{
	"contracts/PatientRecord.sol": {
		"PatientRecord": {
			"abi": [
				{
					"inputs": [],
					"stateMutability": "nonpayable",
					"type": "constructor"
				},
				{
					"inputs": [
						{
							"internalType": "uint256",
							"name": "",
							"type": "uint256"
						}
					],
					"name": "doctors",
					"outputs": [
						{
							"internalType": "uint256",
							"name": "id",
							"type": "uint256"
						},
						{
							"internalType": "string",
							"name": "name",
							"type": "string"
						},
						{
							"internalType": "string",
							"name": "qualification",
							"type": "string"
						},
						{
							"internalType": "string",
							"name": "hospitalAddress",
							"type": "string"
						}
					],
					"stateMutability": "view",
					"type": "function"
				},
				{
					"inputs": [
						{
							"internalType": "uint256",
							"name": "key",
							"type": "uint256"
						}
					],
					"name": "getPatientRecord",
					"outputs": [
						{
							"internalType": "string",
							"name": "",
							"type": "string"
						},
						{
							"internalType": "uint256",
							"name": "",
							"type": "uint256"
						},
						{
							"internalType": "string[]",
							"name": "",
							"type": "string[]"
						}
					],
					"stateMutability": "view",
					"type": "function"
				},
				{
					"inputs": [
						{
							"internalType": "uint256",
							"name": "",
							"type": "uint256"
						}
					],
					"name": "medicines",
					"outputs": [
						{
							"internalType": "uint256",
							"name": "id",
							"type": "uint256"
						},
						{
							"internalType": "string",
							"name": "name",
							"type": "string"
						},
						{
							"internalType": "string",
							"name": "expiryDate",
							"type": "string"
						},
						{
							"internalType": "uint256",
							"name": "dose",
							"type": "uint256"
						},
						{
							"internalType": "uint256",
							"name": "price",
							"type": "uint256"
						}
					],
					"stateMutability": "view",
					"type": "function"
				},
				{
					"inputs": [],
					"name": "owner",
					"outputs": [
						{
							"internalType": "address",
							"name": "",
							"type": "address"
						}
					],
					"stateMutability": "view",
					"type": "function"
				},
				{
					"inputs": [
						{
							"internalType": "uint256",
							"name": "",
							"type": "uint256"
						}
					],
					"name": "patients",
					"outputs": [
						{
							"internalType": "uint256",
							"name": "id",
							"type": "uint256"
						},
						{
							"internalType": "string",
							"name": "name",
							"type": "string"
						},
						{
							"internalType": "uint256",
							"name": "age",
							"type": "uint256"
						}
					],
					"stateMutability": "view",
					"type": "function"
				},
				{
					"inputs": [
						{
							"internalType": "address",
							"name": "",
							"type": "address"
						}
					],
					"name": "patientsAddress",
					"outputs": [
						{
							"internalType": "address",
							"name": "",
							"type": "address"
						}
					],
					"stateMutability": "view",
					"type": "function"
				},
				{
					"inputs": [
						{
							"internalType": "address",
							"name": "",
							"type": "address"
						},
						{
							"internalType": "uint256",
							"name": "",
							"type": "uint256"
						}
					],
					"name": "prescribedMedicines",
					"outputs": [
						{
							"internalType": "uint256",
							"name": "",
							"type": "uint256"
						}
					],
					"stateMutability": "view",
					"type": "function"
				},
				{
					"inputs": [
						{
							"internalType": "uint256",
							"name": "key",
							"type": "uint256"
						},
						{
							"internalType": "string",
							"name": "_name",
							"type": "string"
						},
						{
							"internalType": "string",
							"name": "_qualification",
							"type": "string"
						},
						{
							"internalType": "string",
							"name": "_workPlaceAddr",
							"type": "string"
						}
					],
					"name": "registerDoctor",
					"outputs": [],
					"stateMutability": "nonpayable",
					"type": "function"
				},
				{
					"inputs": [
						{
							"internalType": "uint256",
							"name": "key",
							"type": "uint256"
						},
						{
							"internalType": "string",
							"name": "_name",
							"type": "string"
						},
						{
							"internalType": "uint256",
							"name": "_age",
							"type": "uint256"
						},
						{
							"internalType": "string[]",
							"name": "_disease",
							"type": "string[]"
						}
					],
					"name": "registerPatient",
					"outputs": [],
					"stateMutability": "nonpayable",
					"type": "function"
				}
			],
			"devdoc": {
				"kind": "dev",
				"methods": {},
				"version": 1
			},
			"evm": {
				"assembly": "    /* \"contracts/PatientRecord.sol\":28:2004  contract PatientRecord {... */\n  mstore(0x40, 0x80)\n    /* \"contracts/PatientRecord.sol\":89:140  constructor() {... */\n  callvalue\n  dup1\n  iszero\n  tag_1\n  jumpi\n  0x00\n  dup1\n  revert\ntag_1:\n  pop\n    /* \"contracts/PatientRecord.sol\":122:132  msg.sender */\n  caller\n    /* \"contracts/PatientRecord.sol\":114:119  owner */\n  0x00\n  dup1\n    /* \"contracts/PatientRecord.sol\":114:132  owner = msg.sender */\n  0x0100\n  exp\n  dup2\n  sload\n  dup2\n  0xffffffffffffffffffffffffffffffffffffffff\n  mul\n  not\n  and\n  swap1\n  dup4\n  0xffffffffffffffffffffffffffffffffffffffff\n  and\n  mul\n  or\n  swap1\n  sstore\n  pop\n    /* \"contracts/PatientRecord.sol\":28:2004  contract PatientRecord {... */\n  dataSize(sub_0)\n  dup1\n  dataOffset(sub_0)\n  0x00\n  codecopy\n  0x00\n  return\nstop\n\nsub_0: assembly {\n        /* \"contracts/PatientRecord.sol\":28:2004  contract PatientRecord {... */\n      mstore(0x40, 0x80)\n      callvalue\n      dup1\n      iszero\n      tag_1\n      jumpi\n      0x00\n      dup1\n      revert\n    tag_1:\n      pop\n      jumpi(tag_2, lt(calldatasize, 0x04))\n      shr(0xe0, calldataload(0x00))\n      dup1\n      0x9eea24d8\n      gt\n      tag_12\n      jumpi\n      dup1\n      0x9eea24d8\n      eq\n      tag_7\n      jumpi\n      dup1\n      0xb9fff11b\n      eq\n      tag_8\n      jumpi\n      dup1\n      0xc85e766d\n      eq\n      tag_9\n      jumpi\n      dup1\n      0xee73a541\n      eq\n      tag_10\n      jumpi\n      dup1\n      0xf0206d20\n      eq\n      tag_11\n      jumpi\n      jump(tag_2)\n    tag_12:\n      dup1\n      0x6efb1b84\n      eq\n      tag_3\n      jumpi\n      dup1\n      0x8d7baa61\n      eq\n      tag_4\n      jumpi\n      dup1\n      0x8da5cb5b\n      eq\n      tag_5\n      jumpi\n      dup1\n      0x93119a83\n      eq\n      tag_6\n      jumpi\n    tag_2:\n      0x00\n      dup1\n      revert\n        /* \"contracts/PatientRecord.sol\":658:696  mapping(uint => Doctor) public doctors */\n    tag_3:\n      tag_13\n      0x04\n      dup1\n      calldatasize\n      sub\n      dup2\n      add\n      swap1\n      tag_14\n      swap2\n      swap1\n      tag_15\n      jump\t// in\n    tag_14:\n      tag_16\n      jump\t// in\n    tag_13:\n      mload(0x40)\n      tag_17\n      swap5\n      swap4\n      swap3\n      swap2\n      swap1\n      tag_18\n      jump\t// in\n    tag_17:\n      mload(0x40)\n      dup1\n      swap2\n      sub\n      swap1\n      return\n        /* \"contracts/PatientRecord.sol\":947:1291  function registerPatient(uint key, string memory _name, uint _age, string[] memory _disease) public {... */\n    tag_4:\n      tag_19\n      0x04\n      dup1\n      calldatasize\n      sub\n      dup2\n      add\n      swap1\n      tag_20\n      swap2\n      swap1\n      tag_21\n      jump\t// in\n    tag_20:\n      tag_22\n      jump\t// in\n    tag_19:\n      stop\n        /* \"contracts/PatientRecord.sol\":60:80  address public owner */\n    tag_5:\n      tag_23\n      tag_24\n      jump\t// in\n    tag_23:\n      mload(0x40)\n      tag_25\n      swap2\n      swap1\n      tag_26\n      jump\t// in\n    tag_25:\n      mload(0x40)\n      dup1\n      swap2\n      sub\n      swap1\n      return\n        /* \"contracts/PatientRecord.sol\":703:743  mapping(uint => Patient) public patients */\n    tag_6:\n      tag_27\n      0x04\n      dup1\n      calldatasize\n      sub\n      dup2\n      add\n      swap1\n      tag_28\n      swap2\n      swap1\n      tag_15\n      jump\t// in\n    tag_28:\n      tag_29\n      jump\t// in\n    tag_27:\n      mload(0x40)\n      tag_30\n      swap4\n      swap3\n      swap2\n      swap1\n      tag_31\n      jump\t// in\n    tag_30:\n      mload(0x40)\n      dup1\n      swap2\n      sub\n      swap1\n      return\n        /* \"contracts/PatientRecord.sol\":799:849  mapping(address => address) public patientsAddress */\n    tag_7:\n      tag_32\n      0x04\n      dup1\n      calldatasize\n      sub\n      dup2\n      add\n      swap1\n      tag_33\n      swap2\n      swap1\n      tag_34\n      jump\t// in\n    tag_33:\n      tag_35\n      jump\t// in\n    tag_32:\n      mload(0x40)\n      tag_36\n      swap2\n      swap1\n      tag_26\n      jump\t// in\n    tag_36:\n      mload(0x40)\n      dup1\n      swap2\n      sub\n      swap1\n      return\n        /* \"contracts/PatientRecord.sol\":1662:1845  function getPatientRecord(uint key) public view returns (string memory, uint, string[] memory) {... */\n    tag_8:\n      tag_37\n      0x04\n      dup1\n      calldatasize\n      sub\n      dup2\n      add\n      swap1\n      tag_38\n      swap2\n      swap1\n      tag_15\n      jump\t// in\n    tag_38:\n      tag_39\n      jump\t// in\n    tag_37:\n      mload(0x40)\n      tag_40\n      swap4\n      swap3\n      swap2\n      swap1\n      tag_41\n      jump\t// in\n    tag_40:\n      mload(0x40)\n      dup1\n      swap2\n      sub\n      swap1\n      return\n        /* \"contracts/PatientRecord.sol\":750:792  mapping(uint => Medicine) public medicines */\n    tag_9:\n      tag_42\n      0x04\n      dup1\n      calldatasize\n      sub\n      dup2\n      add\n      swap1\n      tag_43\n      swap2\n      swap1\n      tag_15\n      jump\t// in\n    tag_43:\n      tag_44\n      jump\t// in\n    tag_42:\n      mload(0x40)\n      tag_45\n      swap6\n      swap5\n      swap4\n      swap3\n      swap2\n      swap1\n      tag_46\n      jump\t// in\n    tag_45:\n      mload(0x40)\n      dup1\n      swap2\n      sub\n      swap1\n      return\n        /* \"contracts/PatientRecord.sol\":856:909  mapping(address => uint[]) public prescribedMedicines */\n    tag_10:\n      tag_47\n      0x04\n      dup1\n      calldatasize\n      sub\n      dup2\n      add\n      swap1\n      tag_48\n      swap2\n      swap1\n      tag_49\n      jump\t// in\n    tag_48:\n      tag_50\n      jump\t// in\n    tag_47:\n      mload(0x40)\n      tag_51\n      swap2\n      swap1\n      tag_52\n      jump\t// in\n    tag_51:\n      mload(0x40)\n      dup1\n      swap2\n      sub\n      swap1\n      return\n        /* \"contracts/PatientRecord.sol\":1299:1645  function registerDoctor(uint key, string memory _name, string memory _qualification, string memory _workPlaceAddr) public {... */\n    tag_11:\n      tag_53\n      0x04\n      dup1\n      calldatasize\n      sub\n      dup2\n      add\n      swap1\n      tag_54\n      swap2\n      swap1\n      tag_55\n      jump\t// in\n    tag_54:\n      tag_56\n      jump\t// in\n    tag_53:\n      stop\n        /* \"contracts/PatientRecord.sol\":658:696  mapping(uint => Doctor) public doctors */\n    tag_16:\n      mstore(0x20, 0x01)\n      dup1\n      0x00\n      mstore\n      keccak256(0x00, 0x40)\n      0x00\n      swap2\n      pop\n      swap1\n      pop\n      dup1\n      0x00\n      add\n      sload\n      swap1\n      dup1\n      0x01\n      add\n      dup1\n      sload\n      tag_57\n      swap1\n      tag_58\n      jump\t// in\n    tag_57:\n      dup1\n      0x1f\n      add\n      0x20\n      dup1\n      swap2\n      div\n      mul\n      0x20\n      add\n      mload(0x40)\n      swap1\n      dup2\n      add\n      0x40\n      mstore\n      dup1\n      swap3\n      swap2\n      swap1\n      dup2\n      dup2\n      mstore\n      0x20\n      add\n      dup3\n      dup1\n      sload\n      tag_59\n      swap1\n      tag_58\n      jump\t// in\n    tag_59:\n      dup1\n      iszero\n      tag_60\n      jumpi\n      dup1\n      0x1f\n      lt\n      tag_61\n      jumpi\n      0x0100\n      dup1\n      dup4\n      sload\n      div\n      mul\n      dup4\n      mstore\n      swap2\n      0x20\n      add\n      swap2\n      jump(tag_60)\n    tag_61:\n      dup3\n      add\n      swap2\n      swap1\n      0x00\n      mstore\n      keccak256(0x00, 0x20)\n      swap1\n    tag_62:\n      dup2\n      sload\n      dup2\n      mstore\n      swap1\n      0x01\n      add\n      swap1\n      0x20\n      add\n      dup1\n      dup4\n      gt\n      tag_62\n      jumpi\n      dup3\n      swap1\n      sub\n      0x1f\n      and\n      dup3\n      add\n      swap2\n    tag_60:\n      pop\n      pop\n      pop\n      pop\n      pop\n      swap1\n      dup1\n      0x02\n      add\n      dup1\n      sload\n      tag_63\n      swap1\n      tag_58\n      jump\t// in\n    tag_63:\n      dup1\n      0x1f\n      add\n      0x20\n      dup1\n      swap2\n      div\n      mul\n      0x20\n      add\n      mload(0x40)\n      swap1\n      dup2\n      add\n      0x40\n      mstore\n      dup1\n      swap3\n      swap2\n      swap1\n      dup2\n      dup2\n      mstore\n      0x20\n      add\n      dup3\n      dup1\n      sload\n      tag_64\n      swap1\n      tag_58\n      jump\t// in\n    tag_64:\n      dup1\n      iszero\n      tag_65\n      jumpi\n      dup1\n      0x1f\n      lt\n      tag_66\n      jumpi\n      0x0100\n      dup1\n      dup4\n      sload\n      div\n      mul\n      dup4\n      mstore\n      swap2\n      0x20\n      add\n      swap2\n      jump(tag_65)\n    tag_66:\n      dup3\n      add\n      swap2\n      swap1\n      0x00\n      mstore\n      keccak256(0x00, 0x20)\n      swap1\n    tag_67:\n      dup2\n      sload\n      dup2\n      mstore\n      swap1\n      0x01\n      add\n      swap1\n      0x20\n      add\n      dup1\n      dup4\n      gt\n      tag_67\n      jumpi\n      dup3\n      swap1\n      sub\n      0x1f\n      and\n      dup3\n      add\n      swap2\n    tag_65:\n      pop\n      pop\n      pop\n      pop\n      pop\n      swap1\n      dup1\n      0x03\n      add\n      dup1\n      sload\n      tag_68\n      swap1\n      tag_58\n      jump\t// in\n    tag_68:\n      dup1\n      0x1f\n      add\n      0x20\n      dup1\n      swap2\n      div\n      mul\n      0x20\n      add\n      mload(0x40)\n      swap1\n      dup2\n      add\n      0x40\n      mstore\n      dup1\n      swap3\n      swap2\n      swap1\n      dup2\n      dup2\n      mstore\n      0x20\n      add\n      dup3\n      dup1\n      sload\n      tag_69\n      swap1\n      tag_58\n      jump\t// in\n    tag_69:\n      dup1\n      iszero\n      tag_70\n      jumpi\n      dup1\n      0x1f\n      lt\n      tag_71\n      jumpi\n      0x0100\n      dup1\n      dup4\n      sload\n      div\n      mul\n      dup4\n      mstore\n      swap2\n      0x20\n      add\n      swap2\n      jump(tag_70)\n    tag_71:\n      dup3\n      add\n      swap2\n      swap1\n      0x00\n      mstore\n      keccak256(0x00, 0x20)\n      swap1\n    tag_72:\n      dup2\n      sload\n      dup2\n      mstore\n      swap1\n      0x01\n      add\n      swap1\n      0x20\n      add\n      dup1\n      dup4\n      gt\n      tag_72\n      jumpi\n      dup3\n      swap1\n      sub\n      0x1f\n      and\n      dup3\n      add\n      swap2\n    tag_70:\n      pop\n      pop\n      pop\n      pop\n      pop\n      swap1\n      pop\n      dup5\n      jump\t// out\n        /* \"contracts/PatientRecord.sol\":947:1291  function registerPatient(uint key, string memory _name, uint _age, string[] memory _disease) public {... */\n    tag_22:\n        /* \"contracts/PatientRecord.sol\":1079:1084  _name */\n      dup3\n        /* \"contracts/PatientRecord.sol\":1058:1066  patients */\n      0x02\n        /* \"contracts/PatientRecord.sol\":1058:1071  patients[key] */\n      0x00\n        /* \"contracts/PatientRecord.sol\":1067:1070  key */\n      dup7\n        /* \"contracts/PatientRecord.sol\":1058:1071  patients[key] */\n      dup2\n      mstore\n      0x20\n      add\n      swap1\n      dup2\n      mstore\n      0x20\n      add\n      0x00\n      keccak256\n        /* \"contracts/PatientRecord.sol\":1058:1076  patients[key].name */\n      0x01\n      add\n        /* \"contracts/PatientRecord.sol\":1058:1084  patients[key].name = _name */\n      swap1\n      dup2\n      tag_74\n      swap2\n      swap1\n      tag_75\n      jump\t// in\n    tag_74:\n      pop\n        /* \"contracts/PatientRecord.sol\":1115:1119  _age */\n      dup2\n        /* \"contracts/PatientRecord.sol\":1095:1103  patients */\n      0x02\n        /* \"contracts/PatientRecord.sol\":1095:1108  patients[key] */\n      0x00\n        /* \"contracts/PatientRecord.sol\":1104:1107  key */\n      dup7\n        /* \"contracts/PatientRecord.sol\":1095:1108  patients[key] */\n      dup2\n      mstore\n      0x20\n      add\n      swap1\n      dup2\n      mstore\n      0x20\n      add\n      0x00\n      keccak256\n        /* \"contracts/PatientRecord.sol\":1095:1112  patients[key].age */\n      0x02\n      add\n        /* \"contracts/PatientRecord.sol\":1095:1119  patients[key].age = _age */\n      dup2\n      swap1\n      sstore\n      pop\n        /* \"contracts/PatientRecord.sol\":1167:1175  _disease */\n      dup1\n        /* \"contracts/PatientRecord.sol\":1167:1182  _disease.length */\n      mload\n        /* \"contracts/PatientRecord.sol\":1154:1183  new string[](_disease.length) */\n      0xffffffffffffffff\n      dup2\n      gt\n      iszero\n      tag_76\n      jumpi\n      tag_77\n      tag_78\n      jump\t// in\n    tag_77:\n    tag_76:\n      mload(0x40)\n      swap1\n      dup1\n      dup3\n      mstore\n      dup1\n      0x20\n      mul\n      0x20\n      add\n      dup3\n      add\n      0x40\n      mstore\n      dup1\n      iszero\n      tag_79\n      jumpi\n      dup2\n      0x20\n      add\n    tag_80:\n      0x60\n      dup2\n      mstore\n      0x20\n      add\n      swap1\n      0x01\n      swap1\n      sub\n      swap1\n      dup2\n      tag_80\n      jumpi\n      swap1\n      pop\n    tag_79:\n      pop\n        /* \"contracts/PatientRecord.sol\":1130:1138  patients */\n      0x02\n        /* \"contracts/PatientRecord.sol\":1130:1143  patients[key] */\n      0x00\n        /* \"contracts/PatientRecord.sol\":1139:1142  key */\n      dup7\n        /* \"contracts/PatientRecord.sol\":1130:1143  patients[key] */\n      dup2\n      mstore\n      0x20\n      add\n      swap1\n      dup2\n      mstore\n      0x20\n      add\n      0x00\n      keccak256\n        /* \"contracts/PatientRecord.sol\":1130:1151  patients[key].disease */\n      0x03\n      add\n        /* \"contracts/PatientRecord.sol\":1130:1183  patients[key].disease = new string[](_disease.length) */\n      swap1\n      dup1\n      mload\n      swap1\n      0x20\n      add\n      swap1\n      tag_81\n      swap3\n      swap2\n      swap1\n      tag_82\n      jump\t// in\n    tag_81:\n      pop\n        /* \"contracts/PatientRecord.sol\":1199:1205  uint i */\n      0x00\n        /* \"contracts/PatientRecord.sol\":1194:1283  for (uint i = 0; i<_disease.length; i++) ... */\n    tag_83:\n        /* \"contracts/PatientRecord.sol\":1213:1221  _disease */\n      dup2\n        /* \"contracts/PatientRecord.sol\":1213:1228  _disease.length */\n      mload\n        /* \"contracts/PatientRecord.sol\":1211:1212  i */\n      dup2\n        /* \"contracts/PatientRecord.sol\":1211:1228  i<_disease.length */\n      lt\n        /* \"contracts/PatientRecord.sol\":1194:1283  for (uint i = 0; i<_disease.length; i++) ... */\n      iszero\n      tag_84\n      jumpi\n        /* \"contracts/PatientRecord.sol\":1272:1280  _disease */\n      dup2\n        /* \"contracts/PatientRecord.sol\":1281:1282  i */\n      dup2\n        /* \"contracts/PatientRecord.sol\":1272:1283  _disease[i] */\n      dup2\n      mload\n      dup2\n      lt\n      tag_86\n      jumpi\n      tag_87\n      tag_88\n      jump\t// in\n    tag_87:\n    tag_86:\n      0x20\n      mul\n      0x20\n      add\n      add\n      mload\n        /* \"contracts/PatientRecord.sol\":1245:1253  patients */\n      0x02\n        /* \"contracts/PatientRecord.sol\":1245:1258  patients[key] */\n      0x00\n        /* \"contracts/PatientRecord.sol\":1254:1257  key */\n      dup8\n        /* \"contracts/PatientRecord.sol\":1245:1258  patients[key] */\n      dup2\n      mstore\n      0x20\n      add\n      swap1\n      dup2\n      mstore\n      0x20\n      add\n      0x00\n      keccak256\n        /* \"contracts/PatientRecord.sol\":1245:1266  patients[key].disease */\n      0x03\n      add\n        /* \"contracts/PatientRecord.sol\":1267:1268  i */\n      dup3\n        /* \"contracts/PatientRecord.sol\":1245:1269  patients[key].disease[i] */\n      dup2\n      sload\n      dup2\n      lt\n      tag_89\n      jumpi\n      tag_90\n      tag_88\n      jump\t// in\n    tag_90:\n    tag_89:\n      swap1\n      0x00\n      mstore\n      keccak256(0x00, 0x20)\n      add\n        /* \"contracts/PatientRecord.sol\":1245:1283  patients[key].disease[i] = _disease[i] */\n      swap1\n      dup2\n      tag_92\n      swap2\n      swap1\n      tag_75\n      jump\t// in\n    tag_92:\n      pop\n        /* \"contracts/PatientRecord.sol\":1230:1233  i++ */\n      dup1\n      dup1\n      tag_93\n      swap1\n      tag_94\n      jump\t// in\n    tag_93:\n      swap2\n      pop\n      pop\n        /* \"contracts/PatientRecord.sol\":1194:1283  for (uint i = 0; i<_disease.length; i++) ... */\n      jump(tag_83)\n    tag_84:\n      pop\n        /* \"contracts/PatientRecord.sol\":947:1291  function registerPatient(uint key, string memory _name, uint _age, string[] memory _disease) public {... */\n      pop\n      pop\n      pop\n      pop\n      jump\t// out\n        /* \"contracts/PatientRecord.sol\":60:80  address public owner */\n    tag_24:\n      0x00\n      dup1\n      sload\n      swap1\n      0x0100\n      exp\n      swap1\n      div\n      0xffffffffffffffffffffffffffffffffffffffff\n      and\n      dup2\n      jump\t// out\n        /* \"contracts/PatientRecord.sol\":703:743  mapping(uint => Patient) public patients */\n    tag_29:\n      mstore(0x20, 0x02)\n      dup1\n      0x00\n      mstore\n      keccak256(0x00, 0x40)\n      0x00\n      swap2\n      pop\n      swap1\n      pop\n      dup1\n      0x00\n      add\n      sload\n      swap1\n      dup1\n      0x01\n      add\n      dup1\n      sload\n      tag_95\n      swap1\n      tag_58\n      jump\t// in\n    tag_95:\n      dup1\n      0x1f\n      add\n      0x20\n      dup1\n      swap2\n      div\n      mul\n      0x20\n      add\n      mload(0x40)\n      swap1\n      dup2\n      add\n      0x40\n      mstore\n      dup1\n      swap3\n      swap2\n      swap1\n      dup2\n      dup2\n      mstore\n      0x20\n      add\n      dup3\n      dup1\n      sload\n      tag_96\n      swap1\n      tag_58\n      jump\t// in\n    tag_96:\n      dup1\n      iszero\n      tag_97\n      jumpi\n      dup1\n      0x1f\n      lt\n      tag_98\n      jumpi\n      0x0100\n      dup1\n      dup4\n      sload\n      div\n      mul\n      dup4\n      mstore\n      swap2\n      0x20\n      add\n      swap2\n      jump(tag_97)\n    tag_98:\n      dup3\n      add\n      swap2\n      swap1\n      0x00\n      mstore\n      keccak256(0x00, 0x20)\n      swap1\n    tag_99:\n      dup2\n      sload\n      dup2\n      mstore\n      swap1\n      0x01\n      add\n      swap1\n      0x20\n      add\n      dup1\n      dup4\n      gt\n      tag_99\n      jumpi\n      dup3\n      swap1\n      sub\n      0x1f\n      and\n      dup3\n      add\n      swap2\n    tag_97:\n      pop\n      pop\n      pop\n      pop\n      pop\n      swap1\n      dup1\n      0x02\n      add\n      sload\n      swap1\n      pop\n      dup4\n      jump\t// out\n        /* \"contracts/PatientRecord.sol\":799:849  mapping(address => address) public patientsAddress */\n    tag_35:\n      mstore(0x20, 0x04)\n      dup1\n      0x00\n      mstore\n      keccak256(0x00, 0x40)\n      0x00\n      swap2\n      pop\n      sload\n      swap1\n      0x0100\n      exp\n      swap1\n      div\n      0xffffffffffffffffffffffffffffffffffffffff\n      and\n      dup2\n      jump\t// out\n        /* \"contracts/PatientRecord.sol\":1662:1845  function getPatientRecord(uint key) public view returns (string memory, uint, string[] memory) {... */\n    tag_39:\n        /* \"contracts/PatientRecord.sol\":1719:1732  string memory */\n      0x60\n        /* \"contracts/PatientRecord.sol\":1734:1738  uint */\n      0x00\n        /* \"contracts/PatientRecord.sol\":1740:1755  string[] memory */\n      0x60\n        /* \"contracts/PatientRecord.sol\":1776:1784  patients */\n      0x02\n        /* \"contracts/PatientRecord.sol\":1776:1789  patients[key] */\n      0x00\n        /* \"contracts/PatientRecord.sol\":1785:1788  key */\n      dup6\n        /* \"contracts/PatientRecord.sol\":1776:1789  patients[key] */\n      dup2\n      mstore\n      0x20\n      add\n      swap1\n      dup2\n      mstore\n      0x20\n      add\n      0x00\n      keccak256\n        /* \"contracts/PatientRecord.sol\":1776:1794  patients[key].name */\n      0x01\n      add\n        /* \"contracts/PatientRecord.sol\":1796:1804  patients */\n      0x02\n        /* \"contracts/PatientRecord.sol\":1796:1809  patients[key] */\n      0x00\n        /* \"contracts/PatientRecord.sol\":1805:1808  key */\n      dup7\n        /* \"contracts/PatientRecord.sol\":1796:1809  patients[key] */\n      dup2\n      mstore\n      0x20\n      add\n      swap1\n      dup2\n      mstore\n      0x20\n      add\n      0x00\n      keccak256\n        /* \"contracts/PatientRecord.sol\":1796:1813  patients[key].age */\n      0x02\n      add\n      sload\n        /* \"contracts/PatientRecord.sol\":1815:1823  patients */\n      0x02\n        /* \"contracts/PatientRecord.sol\":1815:1828  patients[key] */\n      0x00\n        /* \"contracts/PatientRecord.sol\":1824:1827  key */\n      dup8\n        /* \"contracts/PatientRecord.sol\":1815:1828  patients[key] */\n      dup2\n      mstore\n      0x20\n      add\n      swap1\n      dup2\n      mstore\n      0x20\n      add\n      0x00\n      keccak256\n        /* \"contracts/PatientRecord.sol\":1815:1836  patients[key].disease */\n      0x03\n      add\n        /* \"contracts/PatientRecord.sol\":1768:1837  return (patients[key].name, patients[key].age, patients[key].disease) */\n      dup3\n      dup1\n      sload\n      tag_101\n      swap1\n      tag_58\n      jump\t// in\n    tag_101:\n      dup1\n      0x1f\n      add\n      0x20\n      dup1\n      swap2\n      div\n      mul\n      0x20\n      add\n      mload(0x40)\n      swap1\n      dup2\n      add\n      0x40\n      mstore\n      dup1\n      swap3\n      swap2\n      swap1\n      dup2\n      dup2\n      mstore\n      0x20\n      add\n      dup3\n      dup1\n      sload\n      tag_102\n      swap1\n      tag_58\n      jump\t// in\n    tag_102:\n      dup1\n      iszero\n      tag_103\n      jumpi\n      dup1\n      0x1f\n      lt\n      tag_104\n      jumpi\n      0x0100\n      dup1\n      dup4\n      sload\n      div\n      mul\n      dup4\n      mstore\n      swap2\n      0x20\n      add\n      swap2\n      jump(tag_103)\n    tag_104:\n      dup3\n      add\n      swap2\n      swap1\n      0x00\n      mstore\n      keccak256(0x00, 0x20)\n      swap1\n    tag_105:\n      dup2\n      sload\n      dup2\n      mstore\n      swap1\n      0x01\n      add\n      swap1\n      0x20\n      add\n      dup1\n      dup4\n      gt\n      tag_105\n      jumpi\n      dup3\n      swap1\n      sub\n      0x1f\n      and\n      dup3\n      add\n      swap2\n    tag_103:\n      pop\n      pop\n      pop\n      pop\n      pop\n      swap3\n      pop\n      dup1\n      dup1\n      sload\n      dup1\n      0x20\n      mul\n      0x20\n      add\n      mload(0x40)\n      swap1\n      dup2\n      add\n      0x40\n      mstore\n      dup1\n      swap3\n      swap2\n      swap1\n      dup2\n      dup2\n      mstore\n      0x20\n      add\n      0x00\n      swap1\n    tag_106:\n      dup3\n      dup3\n      lt\n      iszero\n      tag_107\n      jumpi\n      dup4\n      dup3\n      swap1\n      0x00\n      mstore\n      keccak256(0x00, 0x20)\n      add\n      dup1\n      sload\n      tag_109\n      swap1\n      tag_58\n      jump\t// in\n    tag_109:\n      dup1\n      0x1f\n      add\n      0x20\n      dup1\n      swap2\n      div\n      mul\n      0x20\n      add\n      mload(0x40)\n      swap1\n      dup2\n      add\n      0x40\n      mstore\n      dup1\n      swap3\n      swap2\n      swap1\n      dup2\n      dup2\n      mstore\n      0x20\n      add\n      dup3\n      dup1\n      sload\n      tag_110\n      swap1\n      tag_58\n      jump\t// in\n    tag_110:\n      dup1\n      iszero\n      tag_111\n      jumpi\n      dup1\n      0x1f\n      lt\n      tag_112\n      jumpi\n      0x0100\n      dup1\n      dup4\n      sload\n      div\n      mul\n      dup4\n      mstore\n      swap2\n      0x20\n      add\n      swap2\n      jump(tag_111)\n    tag_112:\n      dup3\n      add\n      swap2\n      swap1\n      0x00\n      mstore\n      keccak256(0x00, 0x20)\n      swap1\n    tag_113:\n      dup2\n      sload\n      dup2\n      mstore\n      swap1\n      0x01\n      add\n      swap1\n      0x20\n      add\n      dup1\n      dup4\n      gt\n      tag_113\n      jumpi\n      dup3\n      swap1\n      sub\n      0x1f\n      and\n      dup3\n      add\n      swap2\n    tag_111:\n      pop\n      pop\n      pop\n      pop\n      pop\n      dup2\n      mstore\n      0x20\n      add\n      swap1\n      0x01\n      add\n      swap1\n      jump(tag_106)\n    tag_107:\n      pop\n      pop\n      pop\n      pop\n      swap1\n      pop\n      swap3\n      pop\n      swap3\n      pop\n      swap3\n      pop\n        /* \"contracts/PatientRecord.sol\":1662:1845  function getPatientRecord(uint key) public view returns (string memory, uint, string[] memory) {... */\n      swap2\n      swap4\n      swap1\n      swap3\n      pop\n      jump\t// out\n        /* \"contracts/PatientRecord.sol\":750:792  mapping(uint => Medicine) public medicines */\n    tag_44:\n      mstore(0x20, 0x03)\n      dup1\n      0x00\n      mstore\n      keccak256(0x00, 0x40)\n      0x00\n      swap2\n      pop\n      swap1\n      pop\n      dup1\n      0x00\n      add\n      sload\n      swap1\n      dup1\n      0x01\n      add\n      dup1\n      sload\n      tag_114\n      swap1\n      tag_58\n      jump\t// in\n    tag_114:\n      dup1\n      0x1f\n      add\n      0x20\n      dup1\n      swap2\n      div\n      mul\n      0x20\n      add\n      mload(0x40)\n      swap1\n      dup2\n      add\n      0x40\n      mstore\n      dup1\n      swap3\n      swap2\n      swap1\n      dup2\n      dup2\n      mstore\n      0x20\n      add\n      dup3\n      dup1\n      sload\n      tag_115\n      swap1\n      tag_58\n      jump\t// in\n    tag_115:\n      dup1\n      iszero\n      tag_116\n      jumpi\n      dup1\n      0x1f\n      lt\n      tag_117\n      jumpi\n      0x0100\n      dup1\n      dup4\n      sload\n      div\n      mul\n      dup4\n      mstore\n      swap2\n      0x20\n      add\n      swap2\n      jump(tag_116)\n    tag_117:\n      dup3\n      add\n      swap2\n      swap1\n      0x00\n      mstore\n      keccak256(0x00, 0x20)\n      swap1\n    tag_118:\n      dup2\n      sload\n      dup2\n      mstore\n      swap1\n      0x01\n      add\n      swap1\n      0x20\n      add\n      dup1\n      dup4\n      gt\n      tag_118\n      jumpi\n      dup3\n      swap1\n      sub\n      0x1f\n      and\n      dup3\n      add\n      swap2\n    tag_116:\n      pop\n      pop\n      pop\n      pop\n      pop\n      swap1\n      dup1\n      0x02\n      add\n      dup1\n      sload\n      tag_119\n      swap1\n      tag_58\n      jump\t// in\n    tag_119:\n      dup1\n      0x1f\n      add\n      0x20\n      dup1\n      swap2\n      div\n      mul\n      0x20\n      add\n      mload(0x40)\n      swap1\n      dup2\n      add\n      0x40\n      mstore\n      dup1\n      swap3\n      swap2\n      swap1\n      dup2\n      dup2\n      mstore\n      0x20\n      add\n      dup3\n      dup1\n      sload\n      tag_120\n      swap1\n      tag_58\n      jump\t// in\n    tag_120:\n      dup1\n      iszero\n      tag_121\n      jumpi\n      dup1\n      0x1f\n      lt\n      tag_122\n      jumpi\n      0x0100\n      dup1\n      dup4\n      sload\n      div\n      mul\n      dup4\n      mstore\n      swap2\n      0x20\n      add\n      swap2\n      jump(tag_121)\n    tag_122:\n      dup3\n      add\n      swap2\n      swap1\n      0x00\n      mstore\n      keccak256(0x00, 0x20)\n      swap1\n    tag_123:\n      dup2\n      sload\n      dup2\n      mstore\n      swap1\n      0x01\n      add\n      swap1\n      0x20\n      add\n      dup1\n      dup4\n      gt\n      tag_123\n      jumpi\n      dup3\n      swap1\n      sub\n      0x1f\n      and\n      dup3\n      add\n      swap2\n    tag_121:\n      pop\n      pop\n      pop\n      pop\n      pop\n      swap1\n      dup1\n      0x03\n      add\n      sload\n      swap1\n      dup1\n      0x04\n      add\n      sload\n      swap1\n      pop\n      dup6\n      jump\t// out\n        /* \"contracts/PatientRecord.sol\":856:909  mapping(address => uint[]) public prescribedMedicines */\n    tag_50:\n      mstore(0x20, 0x05)\n      dup2\n      0x00\n      mstore\n      keccak256(0x00, 0x40)\n      dup2\n      dup2\n      sload\n      dup2\n      lt\n      tag_124\n      jumpi\n      0x00\n      dup1\n      revert\n    tag_124:\n      swap1\n      0x00\n      mstore\n      keccak256(0x00, 0x20)\n      add\n      0x00\n      swap2\n      pop\n      swap2\n      pop\n      pop\n      sload\n      dup2\n      jump\t// out\n        /* \"contracts/PatientRecord.sol\":1299:1645  function registerDoctor(uint key, string memory _name, string memory _qualification, string memory _workPlaceAddr) public {... */\n    tag_56:\n        /* \"contracts/PatientRecord.sol\":1452:1457  _name */\n      dup3\n        /* \"contracts/PatientRecord.sol\":1432:1439  doctors */\n      0x01\n        /* \"contracts/PatientRecord.sol\":1432:1444  doctors[key] */\n      0x00\n        /* \"contracts/PatientRecord.sol\":1440:1443  key */\n      dup7\n        /* \"contracts/PatientRecord.sol\":1432:1444  doctors[key] */\n      dup2\n      mstore\n      0x20\n      add\n      swap1\n      dup2\n      mstore\n      0x20\n      add\n      0x00\n      keccak256\n        /* \"contracts/PatientRecord.sol\":1432:1449  doctors[key].name */\n      0x01\n      add\n        /* \"contracts/PatientRecord.sol\":1432:1457  doctors[key].name = _name */\n      swap1\n      dup2\n      tag_127\n      swap2\n      swap1\n      tag_75\n      jump\t// in\n    tag_127:\n      pop\n        /* \"contracts/PatientRecord.sol\":1497:1511  _qualification */\n      dup2\n        /* \"contracts/PatientRecord.sol\":1468:1475  doctors */\n      0x01\n        /* \"contracts/PatientRecord.sol\":1468:1480  doctors[key] */\n      0x00\n        /* \"contracts/PatientRecord.sol\":1476:1479  key */\n      dup7\n        /* \"contracts/PatientRecord.sol\":1468:1480  doctors[key] */\n      dup2\n      mstore\n      0x20\n      add\n      swap1\n      dup2\n      mstore\n      0x20\n      add\n      0x00\n      keccak256\n        /* \"contracts/PatientRecord.sol\":1468:1494  doctors[key].qualification */\n      0x02\n      add\n        /* \"contracts/PatientRecord.sol\":1468:1511  doctors[key].qualification = _qualification */\n      swap1\n      dup2\n      tag_128\n      swap2\n      swap1\n      tag_75\n      jump\t// in\n    tag_128:\n      pop\n        /* \"contracts/PatientRecord.sol\":1542:1556  _workPlaceAddr */\n      dup1\n        /* \"contracts/PatientRecord.sol\":1522:1529  doctors */\n      0x01\n        /* \"contracts/PatientRecord.sol\":1522:1534  doctors[key] */\n      0x00\n        /* \"contracts/PatientRecord.sol\":1530:1533  key */\n      dup7\n        /* \"contracts/PatientRecord.sol\":1522:1534  doctors[key] */\n      dup2\n      mstore\n      0x20\n      add\n      swap1\n      dup2\n      mstore\n      0x20\n      add\n      0x00\n      keccak256\n        /* \"contracts/PatientRecord.sol\":1522:1539  doctors[key].name */\n      0x01\n      add\n        /* \"contracts/PatientRecord.sol\":1522:1556  doctors[key].name = _workPlaceAddr */\n      swap1\n      dup2\n      tag_129\n      swap2\n      swap1\n      tag_75\n      jump\t// in\n    tag_129:\n      pop\n        /* \"contracts/PatientRecord.sol\":1569:1580  doctorsList */\n      0x06\n        /* \"contracts/PatientRecord.sol\":1586:1636  Doctor(key, _name, _qualification, _workPlaceAddr) */\n      mload(0x40)\n      dup1\n      0x80\n      add\n      0x40\n      mstore\n      dup1\n        /* \"contracts/PatientRecord.sol\":1593:1596  key */\n      dup7\n        /* \"contracts/PatientRecord.sol\":1586:1636  Doctor(key, _name, _qualification, _workPlaceAddr) */\n      dup2\n      mstore\n      0x20\n      add\n        /* \"contracts/PatientRecord.sol\":1598:1603  _name */\n      dup6\n        /* \"contracts/PatientRecord.sol\":1586:1636  Doctor(key, _name, _qualification, _workPlaceAddr) */\n      dup2\n      mstore\n      0x20\n      add\n        /* \"contracts/PatientRecord.sol\":1605:1619  _qualification */\n      dup5\n        /* \"contracts/PatientRecord.sol\":1586:1636  Doctor(key, _name, _qualification, _workPlaceAddr) */\n      dup2\n      mstore\n      0x20\n      add\n        /* \"contracts/PatientRecord.sol\":1621:1635  _workPlaceAddr */\n      dup4\n        /* \"contracts/PatientRecord.sol\":1586:1636  Doctor(key, _name, _qualification, _workPlaceAddr) */\n      dup2\n      mstore\n      pop\n        /* \"contracts/PatientRecord.sol\":1569:1637  doctorsList.push(Doctor(key, _name, _qualification, _workPlaceAddr)) */\n      swap1\n      dup1\n      0x01\n      dup2\n      sload\n      add\n      dup1\n      dup3\n      sstore\n      dup1\n      swap2\n      pop\n      pop\n      0x01\n      swap1\n      sub\n      swap1\n      0x00\n      mstore\n      keccak256(0x00, 0x20)\n      swap1\n      0x04\n      mul\n      add\n      0x00\n      swap1\n      swap2\n      swap1\n      swap2\n      swap1\n      swap2\n      pop\n      0x00\n      dup3\n      add\n      mload\n      dup2\n      0x00\n      add\n      sstore\n      0x20\n      dup3\n      add\n      mload\n      dup2\n      0x01\n      add\n      swap1\n      dup2\n      tag_131\n      swap2\n      swap1\n      tag_75\n      jump\t// in\n    tag_131:\n      pop\n      0x40\n      dup3\n      add\n      mload\n      dup2\n      0x02\n      add\n      swap1\n      dup2\n      tag_132\n      swap2\n      swap1\n      tag_75\n      jump\t// in\n    tag_132:\n      pop\n      0x60\n      dup3\n      add\n      mload\n      dup2\n      0x03\n      add\n      swap1\n      dup2\n      tag_133\n      swap2\n      swap1\n      tag_75\n      jump\t// in\n    tag_133:\n      pop\n      pop\n      pop\n        /* \"contracts/PatientRecord.sol\":1299:1645  function registerDoctor(uint key, string memory _name, string memory _qualification, string memory _workPlaceAddr) public {... */\n      pop\n      pop\n      pop\n      pop\n      jump\t// out\n    tag_82:\n      dup3\n      dup1\n      sload\n      dup3\n      dup3\n      sstore\n      swap1\n      0x00\n      mstore\n      keccak256(0x00, 0x20)\n      swap1\n      dup2\n      add\n      swap3\n      dup3\n      iszero\n      tag_134\n      jumpi\n      swap2\n      0x20\n      mul\n      dup3\n      add\n    tag_135:\n      dup3\n      dup2\n      gt\n      iszero\n      tag_136\n      jumpi\n      dup3\n      mload\n      dup3\n      swap1\n      dup2\n      tag_137\n      swap2\n      swap1\n      tag_75\n      jump\t// in\n    tag_137:\n      pop\n      swap2\n      0x20\n      add\n      swap2\n      swap1\n      0x01\n      add\n      swap1\n      jump(tag_135)\n    tag_136:\n    tag_134:\n      pop\n      swap1\n      pop\n      tag_138\n      swap2\n      swap1\n      tag_139\n      jump\t// in\n    tag_138:\n      pop\n      swap1\n      jump\t// out\n    tag_139:\n    tag_140:\n      dup1\n      dup3\n      gt\n      iszero\n      tag_141\n      jumpi\n      0x00\n      dup2\n      dup2\n      tag_142\n      swap2\n      swap1\n      tag_143\n      jump\t// in\n    tag_142:\n      pop\n      0x01\n      add\n      jump(tag_140)\n    tag_141:\n      pop\n      swap1\n      jump\t// out\n    tag_143:\n      pop\n      dup1\n      sload\n      tag_144\n      swap1\n      tag_58\n      jump\t// in\n    tag_144:\n      0x00\n      dup3\n      sstore\n      dup1\n      0x1f\n      lt\n      tag_146\n      jumpi\n      pop\n      jump(tag_145)\n    tag_146:\n      0x1f\n      add\n      0x20\n      swap1\n      div\n      swap1\n      0x00\n      mstore\n      keccak256(0x00, 0x20)\n      swap1\n      dup2\n      add\n      swap1\n      tag_147\n      swap2\n      swap1\n      tag_148\n      jump\t// in\n    tag_147:\n    tag_145:\n      pop\n      jump\t// out\n    tag_148:\n    tag_149:\n      dup1\n      dup3\n      gt\n      iszero\n      tag_150\n      jumpi\n      0x00\n      dup2\n      0x00\n      swap1\n      sstore\n      pop\n      0x01\n      add\n      jump(tag_149)\n    tag_150:\n      pop\n      swap1\n      jump\t// out\n        /* \"#utility.yul\":7:82   */\n    tag_151:\n        /* \"#utility.yul\":40:46   */\n      0x00\n        /* \"#utility.yul\":73:75   */\n      0x40\n        /* \"#utility.yul\":67:76   */\n      mload\n        /* \"#utility.yul\":57:76   */\n      swap1\n      pop\n        /* \"#utility.yul\":7:82   */\n      swap1\n      jump\t// out\n        /* \"#utility.yul\":88:205   */\n    tag_152:\n        /* \"#utility.yul\":197:198   */\n      0x00\n        /* \"#utility.yul\":194:195   */\n      dup1\n        /* \"#utility.yul\":187:199   */\n      revert\n        /* \"#utility.yul\":211:328   */\n    tag_153:\n        /* \"#utility.yul\":320:321   */\n      0x00\n        /* \"#utility.yul\":317:318   */\n      dup1\n        /* \"#utility.yul\":310:322   */\n      revert\n        /* \"#utility.yul\":334:411   */\n    tag_154:\n        /* \"#utility.yul\":371:378   */\n      0x00\n        /* \"#utility.yul\":400:405   */\n      dup2\n        /* \"#utility.yul\":389:405   */\n      swap1\n      pop\n        /* \"#utility.yul\":334:411   */\n      swap2\n      swap1\n      pop\n      jump\t// out\n        /* \"#utility.yul\":417:539   */\n    tag_155:\n        /* \"#utility.yul\":490:514   */\n      tag_211\n        /* \"#utility.yul\":508:513   */\n      dup2\n        /* \"#utility.yul\":490:514   */\n      tag_154\n      jump\t// in\n    tag_211:\n        /* \"#utility.yul\":483:488   */\n      dup2\n        /* \"#utility.yul\":480:515   */\n      eq\n        /* \"#utility.yul\":470:533   */\n      tag_212\n      jumpi\n        /* \"#utility.yul\":529:530   */\n      0x00\n        /* \"#utility.yul\":526:527   */\n      dup1\n        /* \"#utility.yul\":519:531   */\n      revert\n        /* \"#utility.yul\":470:533   */\n    tag_212:\n        /* \"#utility.yul\":417:539   */\n      pop\n      jump\t// out\n        /* \"#utility.yul\":545:684   */\n    tag_156:\n        /* \"#utility.yul\":591:596   */\n      0x00\n        /* \"#utility.yul\":629:635   */\n      dup2\n        /* \"#utility.yul\":616:636   */\n      calldataload\n        /* \"#utility.yul\":607:636   */\n      swap1\n      pop\n        /* \"#utility.yul\":645:678   */\n      tag_214\n        /* \"#utility.yul\":672:677   */\n      dup2\n        /* \"#utility.yul\":645:678   */\n      tag_155\n      jump\t// in\n    tag_214:\n        /* \"#utility.yul\":545:684   */\n      swap3\n      swap2\n      pop\n      pop\n      jump\t// out\n        /* \"#utility.yul\":690:1019   */\n    tag_15:\n        /* \"#utility.yul\":749:755   */\n      0x00\n        /* \"#utility.yul\":798:800   */\n      0x20\n        /* \"#utility.yul\":786:795   */\n      dup3\n        /* \"#utility.yul\":777:784   */\n      dup5\n        /* \"#utility.yul\":773:796   */\n      sub\n        /* \"#utility.yul\":769:801   */\n      slt\n        /* \"#utility.yul\":766:885   */\n      iszero\n      tag_216\n      jumpi\n        /* \"#utility.yul\":804:883   */\n      tag_217\n      tag_152\n      jump\t// in\n    tag_217:\n        /* \"#utility.yul\":766:885   */\n    tag_216:\n        /* \"#utility.yul\":924:925   */\n      0x00\n        /* \"#utility.yul\":949:1002   */\n      tag_218\n        /* \"#utility.yul\":994:1001   */\n      dup5\n        /* \"#utility.yul\":985:991   */\n      dup3\n        /* \"#utility.yul\":974:983   */\n      dup6\n        /* \"#utility.yul\":970:992   */\n      add\n        /* \"#utility.yul\":949:1002   */\n      tag_156\n      jump\t// in\n    tag_218:\n        /* \"#utility.yul\":939:1002   */\n      swap2\n      pop\n        /* \"#utility.yul\":895:1012   */\n      pop\n        /* \"#utility.yul\":690:1019   */\n      swap3\n      swap2\n      pop\n      pop\n      jump\t// out\n        /* \"#utility.yul\":1025:1143   */\n    tag_157:\n        /* \"#utility.yul\":1112:1136   */\n      tag_220\n        /* \"#utility.yul\":1130:1135   */\n      dup2\n        /* \"#utility.yul\":1112:1136   */\n      tag_154\n      jump\t// in\n    tag_220:\n        /* \"#utility.yul\":1107:1110   */\n      dup3\n        /* \"#utility.yul\":1100:1137   */\n      mstore\n        /* \"#utility.yul\":1025:1143   */\n      pop\n      pop\n      jump\t// out\n        /* \"#utility.yul\":1149:1248   */\n    tag_158:\n        /* \"#utility.yul\":1201:1207   */\n      0x00\n        /* \"#utility.yul\":1235:1240   */\n      dup2\n        /* \"#utility.yul\":1229:1241   */\n      mload\n        /* \"#utility.yul\":1219:1241   */\n      swap1\n      pop\n        /* \"#utility.yul\":1149:1248   */\n      swap2\n      swap1\n      pop\n      jump\t// out\n        /* \"#utility.yul\":1254:1423   */\n    tag_159:\n        /* \"#utility.yul\":1338:1349   */\n      0x00\n        /* \"#utility.yul\":1372:1378   */\n      dup3\n        /* \"#utility.yul\":1367:1370   */\n      dup3\n        /* \"#utility.yul\":1360:1379   */\n      mstore\n        /* \"#utility.yul\":1412:1416   */\n      0x20\n        /* \"#utility.yul\":1407:1410   */\n      dup3\n        /* \"#utility.yul\":1403:1417   */\n      add\n        /* \"#utility.yul\":1388:1417   */\n      swap1\n      pop\n        /* \"#utility.yul\":1254:1423   */\n      swap3\n      swap2\n      pop\n      pop\n      jump\t// out\n        /* \"#utility.yul\":1429:1675   */\n    tag_160:\n        /* \"#utility.yul\":1510:1511   */\n      0x00\n        /* \"#utility.yul\":1520:1633   */\n    tag_224:\n        /* \"#utility.yul\":1534:1540   */\n      dup4\n        /* \"#utility.yul\":1531:1532   */\n      dup2\n        /* \"#utility.yul\":1528:1541   */\n      lt\n        /* \"#utility.yul\":1520:1633   */\n      iszero\n      tag_226\n      jumpi\n        /* \"#utility.yul\":1619:1620   */\n      dup1\n        /* \"#utility.yul\":1614:1617   */\n      dup3\n        /* \"#utility.yul\":1610:1621   */\n      add\n        /* \"#utility.yul\":1604:1622   */\n      mload\n        /* \"#utility.yul\":1600:1601   */\n      dup2\n        /* \"#utility.yul\":1595:1598   */\n      dup5\n        /* \"#utility.yul\":1591:1602   */\n      add\n        /* \"#utility.yul\":1584:1623   */\n      mstore\n        /* \"#utility.yul\":1556:1558   */\n      0x20\n        /* \"#utility.yul\":1553:1554   */\n      dup2\n        /* \"#utility.yul\":1549:1559   */\n      add\n        /* \"#utility.yul\":1544:1559   */\n      swap1\n      pop\n        /* \"#utility.yul\":1520:1633   */\n      jump(tag_224)\n    tag_226:\n        /* \"#utility.yul\":1667:1668   */\n      0x00\n        /* \"#utility.yul\":1658:1664   */\n      dup5\n        /* \"#utility.yul\":1653:1656   */\n      dup5\n        /* \"#utility.yul\":1649:1665   */\n      add\n        /* \"#utility.yul\":1642:1669   */\n      mstore\n        /* \"#utility.yul\":1491:1675   */\n      pop\n        /* \"#utility.yul\":1429:1675   */\n      pop\n      pop\n      pop\n      jump\t// out\n        /* \"#utility.yul\":1681:1783   */\n    tag_161:\n        /* \"#utility.yul\":1722:1728   */\n      0x00\n        /* \"#utility.yul\":1773:1775   */\n      0x1f\n        /* \"#utility.yul\":1769:1776   */\n      not\n        /* \"#utility.yul\":1764:1766   */\n      0x1f\n        /* \"#utility.yul\":1757:1762   */\n      dup4\n        /* \"#utility.yul\":1753:1767   */\n      add\n        /* \"#utility.yul\":1749:1777   */\n      and\n        /* \"#utility.yul\":1739:1777   */\n      swap1\n      pop\n        /* \"#utility.yul\":1681:1783   */\n      swap2\n      swap1\n      pop\n      jump\t// out\n        /* \"#utility.yul\":1789:2166   */\n    tag_162:\n        /* \"#utility.yul\":1877:1880   */\n      0x00\n        /* \"#utility.yul\":1905:1944   */\n      tag_229\n        /* \"#utility.yul\":1938:1943   */\n      dup3\n        /* \"#utility.yul\":1905:1944   */\n      tag_158\n      jump\t// in\n    tag_229:\n        /* \"#utility.yul\":1960:2031   */\n      tag_230\n        /* \"#utility.yul\":2024:2030   */\n      dup2\n        /* \"#utility.yul\":2019:2022   */\n      dup6\n        /* \"#utility.yul\":1960:2031   */\n      tag_159\n      jump\t// in\n    tag_230:\n        /* \"#utility.yul\":1953:2031   */\n      swap4\n      pop\n        /* \"#utility.yul\":2040:2105   */\n      tag_231\n        /* \"#utility.yul\":2098:2104   */\n      dup2\n        /* \"#utility.yul\":2093:2096   */\n      dup6\n        /* \"#utility.yul\":2086:2090   */\n      0x20\n        /* \"#utility.yul\":2079:2084   */\n      dup7\n        /* \"#utility.yul\":2075:2091   */\n      add\n        /* \"#utility.yul\":2040:2105   */\n      tag_160\n      jump\t// in\n    tag_231:\n        /* \"#utility.yul\":2130:2159   */\n      tag_232\n        /* \"#utility.yul\":2152:2158   */\n      dup2\n        /* \"#utility.yul\":2130:2159   */\n      tag_161\n      jump\t// in\n    tag_232:\n        /* \"#utility.yul\":2125:2128   */\n      dup5\n        /* \"#utility.yul\":2121:2160   */\n      add\n        /* \"#utility.yul\":2114:2160   */\n      swap2\n      pop\n        /* \"#utility.yul\":1881:2166   */\n      pop\n        /* \"#utility.yul\":1789:2166   */\n      swap3\n      swap2\n      pop\n      pop\n      jump\t// out\n        /* \"#utility.yul\":2172:2998   */\n    tag_18:\n        /* \"#utility.yul\":2409:2413   */\n      0x00\n        /* \"#utility.yul\":2447:2450   */\n      0x80\n        /* \"#utility.yul\":2436:2445   */\n      dup3\n        /* \"#utility.yul\":2432:2451   */\n      add\n        /* \"#utility.yul\":2424:2451   */\n      swap1\n      pop\n        /* \"#utility.yul\":2461:2532   */\n      tag_234\n        /* \"#utility.yul\":2529:2530   */\n      0x00\n        /* \"#utility.yul\":2518:2527   */\n      dup4\n        /* \"#utility.yul\":2514:2531   */\n      add\n        /* \"#utility.yul\":2505:2511   */\n      dup8\n        /* \"#utility.yul\":2461:2532   */\n      tag_157\n      jump\t// in\n    tag_234:\n        /* \"#utility.yul\":2579:2588   */\n      dup2\n        /* \"#utility.yul\":2573:2577   */\n      dup2\n        /* \"#utility.yul\":2569:2589   */\n      sub\n        /* \"#utility.yul\":2564:2566   */\n      0x20\n        /* \"#utility.yul\":2553:2562   */\n      dup4\n        /* \"#utility.yul\":2549:2567   */\n      add\n        /* \"#utility.yul\":2542:2590   */\n      mstore\n        /* \"#utility.yul\":2607:2685   */\n      tag_235\n        /* \"#utility.yul\":2680:2684   */\n      dup2\n        /* \"#utility.yul\":2671:2677   */\n      dup7\n        /* \"#utility.yul\":2607:2685   */\n      tag_162\n      jump\t// in\n    tag_235:\n        /* \"#utility.yul\":2599:2685   */\n      swap1\n      pop\n        /* \"#utility.yul\":2732:2741   */\n      dup2\n        /* \"#utility.yul\":2726:2730   */\n      dup2\n        /* \"#utility.yul\":2722:2742   */\n      sub\n        /* \"#utility.yul\":2717:2719   */\n      0x40\n        /* \"#utility.yul\":2706:2715   */\n      dup4\n        /* \"#utility.yul\":2702:2720   */\n      add\n        /* \"#utility.yul\":2695:2743   */\n      mstore\n        /* \"#utility.yul\":2760:2838   */\n      tag_236\n        /* \"#utility.yul\":2833:2837   */\n      dup2\n        /* \"#utility.yul\":2824:2830   */\n      dup6\n        /* \"#utility.yul\":2760:2838   */\n      tag_162\n      jump\t// in\n    tag_236:\n        /* \"#utility.yul\":2752:2838   */\n      swap1\n      pop\n        /* \"#utility.yul\":2885:2894   */\n      dup2\n        /* \"#utility.yul\":2879:2883   */\n      dup2\n        /* \"#utility.yul\":2875:2895   */\n      sub\n        /* \"#utility.yul\":2870:2872   */\n      0x60\n        /* \"#utility.yul\":2859:2868   */\n      dup4\n        /* \"#utility.yul\":2855:2873   */\n      add\n        /* \"#utility.yul\":2848:2896   */\n      mstore\n        /* \"#utility.yul\":2913:2991   */\n      tag_237\n        /* \"#utility.yul\":2986:2990   */\n      dup2\n        /* \"#utility.yul\":2977:2983   */\n      dup5\n        /* \"#utility.yul\":2913:2991   */\n      tag_162\n      jump\t// in\n    tag_237:\n        /* \"#utility.yul\":2905:2991   */\n      swap1\n      pop\n        /* \"#utility.yul\":2172:2998   */\n      swap6\n      swap5\n      pop\n      pop\n      pop\n      pop\n      pop\n      jump\t// out\n        /* \"#utility.yul\":3004:3121   */\n    tag_163:\n        /* \"#utility.yul\":3113:3114   */\n      0x00\n        /* \"#utility.yul\":3110:3111   */\n      dup1\n        /* \"#utility.yul\":3103:3115   */\n      revert\n        /* \"#utility.yul\":3127:3244   */\n    tag_164:\n        /* \"#utility.yul\":3236:3237   */\n      0x00\n        /* \"#utility.yul\":3233:3234   */\n      dup1\n        /* \"#utility.yul\":3226:3238   */\n      revert\n        /* \"#utility.yul\":3250:3430   */\n    tag_78:\n        /* \"#utility.yul\":3298:3375   */\n      0x4e487b7100000000000000000000000000000000000000000000000000000000\n        /* \"#utility.yul\":3295:3296   */\n      0x00\n        /* \"#utility.yul\":3288:3376   */\n      mstore\n        /* \"#utility.yul\":3395:3399   */\n      0x41\n        /* \"#utility.yul\":3392:3393   */\n      0x04\n        /* \"#utility.yul\":3385:3400   */\n      mstore\n        /* \"#utility.yul\":3419:3423   */\n      0x24\n        /* \"#utility.yul\":3416:3417   */\n      0x00\n        /* \"#utility.yul\":3409:3424   */\n      revert\n        /* \"#utility.yul\":3436:3717   */\n    tag_165:\n        /* \"#utility.yul\":3519:3546   */\n      tag_242\n        /* \"#utility.yul\":3541:3545   */\n      dup3\n        /* \"#utility.yul\":3519:3546   */\n      tag_161\n      jump\t// in\n    tag_242:\n        /* \"#utility.yul\":3511:3517   */\n      dup2\n        /* \"#utility.yul\":3507:3547   */\n      add\n        /* \"#utility.yul\":3649:3655   */\n      dup2\n        /* \"#utility.yul\":3637:3647   */\n      dup2\n        /* \"#utility.yul\":3634:3656   */\n      lt\n        /* \"#utility.yul\":3613:3631   */\n      0xffffffffffffffff\n        /* \"#utility.yul\":3601:3611   */\n      dup3\n        /* \"#utility.yul\":3598:3632   */\n      gt\n        /* \"#utility.yul\":3595:3657   */\n      or\n        /* \"#utility.yul\":3592:3680   */\n      iszero\n      tag_243\n      jumpi\n        /* \"#utility.yul\":3660:3678   */\n      tag_244\n      tag_78\n      jump\t// in\n    tag_244:\n        /* \"#utility.yul\":3592:3680   */\n    tag_243:\n        /* \"#utility.yul\":3700:3710   */\n      dup1\n        /* \"#utility.yul\":3696:3698   */\n      0x40\n        /* \"#utility.yul\":3689:3711   */\n      mstore\n        /* \"#utility.yul\":3479:3717   */\n      pop\n        /* \"#utility.yul\":3436:3717   */\n      pop\n      pop\n      jump\t// out\n        /* \"#utility.yul\":3723:3852   */\n    tag_166:\n        /* \"#utility.yul\":3757:3763   */\n      0x00\n        /* \"#utility.yul\":3784:3804   */\n      tag_246\n      tag_151\n      jump\t// in\n    tag_246:\n        /* \"#utility.yul\":3774:3804   */\n      swap1\n      pop\n        /* \"#utility.yul\":3813:3846   */\n      tag_247\n        /* \"#utility.yul\":3841:3845   */\n      dup3\n        /* \"#utility.yul\":3833:3839   */\n      dup3\n        /* \"#utility.yul\":3813:3846   */\n      tag_165\n      jump\t// in\n    tag_247:\n        /* \"#utility.yul\":3723:3852   */\n      swap2\n      swap1\n      pop\n      jump\t// out\n        /* \"#utility.yul\":3858:4166   */\n    tag_167:\n        /* \"#utility.yul\":3920:3924   */\n      0x00\n        /* \"#utility.yul\":4010:4028   */\n      0xffffffffffffffff\n        /* \"#utility.yul\":4002:4008   */\n      dup3\n        /* \"#utility.yul\":3999:4029   */\n      gt\n        /* \"#utility.yul\":3996:4052   */\n      iszero\n      tag_249\n      jumpi\n        /* \"#utility.yul\":4032:4050   */\n      tag_250\n      tag_78\n      jump\t// in\n    tag_250:\n        /* \"#utility.yul\":3996:4052   */\n    tag_249:\n        /* \"#utility.yul\":4070:4099   */\n      tag_251\n        /* \"#utility.yul\":4092:4098   */\n      dup3\n        /* \"#utility.yul\":4070:4099   */\n      tag_161\n      jump\t// in\n    tag_251:\n        /* \"#utility.yul\":4062:4099   */\n      swap1\n      pop\n        /* \"#utility.yul\":4154:4158   */\n      0x20\n        /* \"#utility.yul\":4148:4152   */\n      dup2\n        /* \"#utility.yul\":4144:4159   */\n      add\n        /* \"#utility.yul\":4136:4159   */\n      swap1\n      pop\n        /* \"#utility.yul\":3858:4166   */\n      swap2\n      swap1\n      pop\n      jump\t// out\n        /* \"#utility.yul\":4172:4318   */\n    tag_168:\n        /* \"#utility.yul\":4269:4275   */\n      dup3\n        /* \"#utility.yul\":4264:4267   */\n      dup2\n        /* \"#utility.yul\":4259:4262   */\n      dup4\n        /* \"#utility.yul\":4246:4276   */\n      calldatacopy\n        /* \"#utility.yul\":4310:4311   */\n      0x00\n        /* \"#utility.yul\":4301:4307   */\n      dup4\n        /* \"#utility.yul\":4296:4299   */\n      dup4\n        /* \"#utility.yul\":4292:4308   */\n      add\n        /* \"#utility.yul\":4285:4312   */\n      mstore\n        /* \"#utility.yul\":4172:4318   */\n      pop\n      pop\n      pop\n      jump\t// out\n        /* \"#utility.yul\":4324:4749   */\n    tag_169:\n        /* \"#utility.yul\":4402:4407   */\n      0x00\n        /* \"#utility.yul\":4427:4493   */\n      tag_254\n        /* \"#utility.yul\":4443:4492   */\n      tag_255\n        /* \"#utility.yul\":4485:4491   */\n      dup5\n        /* \"#utility.yul\":4443:4492   */\n      tag_167\n      jump\t// in\n    tag_255:\n        /* \"#utility.yul\":4427:4493   */\n      tag_166\n      jump\t// in\n    tag_254:\n        /* \"#utility.yul\":4418:4493   */\n      swap1\n      pop\n        /* \"#utility.yul\":4516:4522   */\n      dup3\n        /* \"#utility.yul\":4509:4514   */\n      dup2\n        /* \"#utility.yul\":4502:4523   */\n      mstore\n        /* \"#utility.yul\":4554:4558   */\n      0x20\n        /* \"#utility.yul\":4547:4552   */\n      dup2\n        /* \"#utility.yul\":4543:4559   */\n      add\n        /* \"#utility.yul\":4592:4595   */\n      dup5\n        /* \"#utility.yul\":4583:4589   */\n      dup5\n        /* \"#utility.yul\":4578:4581   */\n      dup5\n        /* \"#utility.yul\":4574:4590   */\n      add\n        /* \"#utility.yul\":4571:4596   */\n      gt\n        /* \"#utility.yul\":4568:4680   */\n      iszero\n      tag_256\n      jumpi\n        /* \"#utility.yul\":4599:4678   */\n      tag_257\n      tag_164\n      jump\t// in\n    tag_257:\n        /* \"#utility.yul\":4568:4680   */\n    tag_256:\n        /* \"#utility.yul\":4689:4743   */\n      tag_258\n        /* \"#utility.yul\":4736:4742   */\n      dup5\n        /* \"#utility.yul\":4731:4734   */\n      dup3\n        /* \"#utility.yul\":4726:4729   */\n      dup6\n        /* \"#utility.yul\":4689:4743   */\n      tag_168\n      jump\t// in\n    tag_258:\n        /* \"#utility.yul\":4408:4749   */\n      pop\n        /* \"#utility.yul\":4324:4749   */\n      swap4\n      swap3\n      pop\n      pop\n      pop\n      jump\t// out\n        /* \"#utility.yul\":4769:5109   */\n    tag_170:\n        /* \"#utility.yul\":4825:4830   */\n      0x00\n        /* \"#utility.yul\":4874:4877   */\n      dup3\n        /* \"#utility.yul\":4867:4871   */\n      0x1f\n        /* \"#utility.yul\":4859:4865   */\n      dup4\n        /* \"#utility.yul\":4855:4872   */\n      add\n        /* \"#utility.yul\":4851:4878   */\n      slt\n        /* \"#utility.yul\":4841:4963   */\n      tag_260\n      jumpi\n        /* \"#utility.yul\":4882:4961   */\n      tag_261\n      tag_163\n      jump\t// in\n    tag_261:\n        /* \"#utility.yul\":4841:4963   */\n    tag_260:\n        /* \"#utility.yul\":4999:5005   */\n      dup2\n        /* \"#utility.yul\":4986:5006   */\n      calldataload\n        /* \"#utility.yul\":5024:5103   */\n      tag_262\n        /* \"#utility.yul\":5099:5102   */\n      dup5\n        /* \"#utility.yul\":5091:5097   */\n      dup3\n        /* \"#utility.yul\":5084:5088   */\n      0x20\n        /* \"#utility.yul\":5076:5082   */\n      dup7\n        /* \"#utility.yul\":5072:5089   */\n      add\n        /* \"#utility.yul\":5024:5103   */\n      tag_169\n      jump\t// in\n    tag_262:\n        /* \"#utility.yul\":5015:5103   */\n      swap2\n      pop\n        /* \"#utility.yul\":4831:5109   */\n      pop\n        /* \"#utility.yul\":4769:5109   */\n      swap3\n      swap2\n      pop\n      pop\n      jump\t// out\n        /* \"#utility.yul\":5115:5436   */\n    tag_171:\n        /* \"#utility.yul\":5202:5206   */\n      0x00\n        /* \"#utility.yul\":5292:5310   */\n      0xffffffffffffffff\n        /* \"#utility.yul\":5284:5290   */\n      dup3\n        /* \"#utility.yul\":5281:5311   */\n      gt\n        /* \"#utility.yul\":5278:5334   */\n      iszero\n      tag_264\n      jumpi\n        /* \"#utility.yul\":5314:5332   */\n      tag_265\n      tag_78\n      jump\t// in\n    tag_265:\n        /* \"#utility.yul\":5278:5334   */\n    tag_264:\n        /* \"#utility.yul\":5364:5368   */\n      0x20\n        /* \"#utility.yul\":5356:5362   */\n      dup3\n        /* \"#utility.yul\":5352:5369   */\n      mul\n        /* \"#utility.yul\":5344:5369   */\n      swap1\n      pop\n        /* \"#utility.yul\":5424:5428   */\n      0x20\n        /* \"#utility.yul\":5418:5422   */\n      dup2\n        /* \"#utility.yul\":5414:5429   */\n      add\n        /* \"#utility.yul\":5406:5429   */\n      swap1\n      pop\n        /* \"#utility.yul\":5115:5436   */\n      swap2\n      swap1\n      pop\n      jump\t// out\n        /* \"#utility.yul\":5442:5559   */\n    tag_172:\n        /* \"#utility.yul\":5551:5552   */\n      0x00\n        /* \"#utility.yul\":5548:5549   */\n      dup1\n        /* \"#utility.yul\":5541:5553   */\n      revert\n        /* \"#utility.yul\":5581:6526   */\n    tag_173:\n        /* \"#utility.yul\":5687:5692   */\n      0x00\n        /* \"#utility.yul\":5712:5803   */\n      tag_268\n        /* \"#utility.yul\":5728:5802   */\n      tag_269\n        /* \"#utility.yul\":5795:5801   */\n      dup5\n        /* \"#utility.yul\":5728:5802   */\n      tag_171\n      jump\t// in\n    tag_269:\n        /* \"#utility.yul\":5712:5803   */\n      tag_166\n      jump\t// in\n    tag_268:\n        /* \"#utility.yul\":5703:5803   */\n      swap1\n      pop\n        /* \"#utility.yul\":5823:5828   */\n      dup1\n        /* \"#utility.yul\":5852:5858   */\n      dup4\n        /* \"#utility.yul\":5845:5850   */\n      dup3\n        /* \"#utility.yul\":5838:5859   */\n      mstore\n        /* \"#utility.yul\":5886:5890   */\n      0x20\n        /* \"#utility.yul\":5879:5884   */\n      dup3\n        /* \"#utility.yul\":5875:5891   */\n      add\n        /* \"#utility.yul\":5868:5891   */\n      swap1\n      pop\n        /* \"#utility.yul\":5939:5943   */\n      0x20\n        /* \"#utility.yul\":5931:5937   */\n      dup5\n        /* \"#utility.yul\":5927:5944   */\n      mul\n        /* \"#utility.yul\":5919:5925   */\n      dup4\n        /* \"#utility.yul\":5915:5945   */\n      add\n        /* \"#utility.yul\":5968:5971   */\n      dup6\n        /* \"#utility.yul\":5960:5966   */\n      dup2\n        /* \"#utility.yul\":5957:5972   */\n      gt\n        /* \"#utility.yul\":5954:6076   */\n      iszero\n      tag_270\n      jumpi\n        /* \"#utility.yul\":5987:6066   */\n      tag_271\n      tag_172\n      jump\t// in\n    tag_271:\n        /* \"#utility.yul\":5954:6076   */\n    tag_270:\n        /* \"#utility.yul\":6102:6108   */\n      dup4\n        /* \"#utility.yul\":6085:6520   */\n    tag_272:\n        /* \"#utility.yul\":6119:6125   */\n      dup2\n        /* \"#utility.yul\":6114:6117   */\n      dup2\n        /* \"#utility.yul\":6111:6126   */\n      lt\n        /* \"#utility.yul\":6085:6520   */\n      iszero\n      tag_274\n      jumpi\n        /* \"#utility.yul\":6208:6211   */\n      dup1\n        /* \"#utility.yul\":6195:6212   */\n      calldataload\n        /* \"#utility.yul\":6244:6262   */\n      0xffffffffffffffff\n        /* \"#utility.yul\":6231:6242   */\n      dup2\n        /* \"#utility.yul\":6228:6263   */\n      gt\n        /* \"#utility.yul\":6225:6347   */\n      iszero\n      tag_275\n      jumpi\n        /* \"#utility.yul\":6266:6345   */\n      tag_276\n      tag_163\n      jump\t// in\n    tag_276:\n        /* \"#utility.yul\":6225:6347   */\n    tag_275:\n        /* \"#utility.yul\":6390:6401   */\n      dup1\n        /* \"#utility.yul\":6382:6388   */\n      dup7\n        /* \"#utility.yul\":6378:6402   */\n      add\n        /* \"#utility.yul\":6428:6475   */\n      tag_277\n        /* \"#utility.yul\":6471:6474   */\n      dup10\n        /* \"#utility.yul\":6459:6469   */\n      dup3\n        /* \"#utility.yul\":6428:6475   */\n      tag_170\n      jump\t// in\n    tag_277:\n        /* \"#utility.yul\":6423:6426   */\n      dup6\n        /* \"#utility.yul\":6416:6476   */\n      mstore\n        /* \"#utility.yul\":6505:6509   */\n      0x20\n        /* \"#utility.yul\":6500:6503   */\n      dup6\n        /* \"#utility.yul\":6496:6510   */\n      add\n        /* \"#utility.yul\":6489:6510   */\n      swap5\n      pop\n        /* \"#utility.yul\":6161:6520   */\n      pop\n      pop\n        /* \"#utility.yul\":6145:6149   */\n      0x20\n        /* \"#utility.yul\":6140:6143   */\n      dup2\n        /* \"#utility.yul\":6136:6150   */\n      add\n        /* \"#utility.yul\":6129:6150   */\n      swap1\n      pop\n        /* \"#utility.yul\":6085:6520   */\n      jump(tag_272)\n    tag_274:\n        /* \"#utility.yul\":6089:6110   */\n      pop\n        /* \"#utility.yul\":5693:6526   */\n      pop\n      pop\n        /* \"#utility.yul\":5581:6526   */\n      swap4\n      swap3\n      pop\n      pop\n      pop\n      jump\t// out\n        /* \"#utility.yul\":6548:6938   */\n    tag_174:\n        /* \"#utility.yul\":6629:6634   */\n      0x00\n        /* \"#utility.yul\":6678:6681   */\n      dup3\n        /* \"#utility.yul\":6671:6675   */\n      0x1f\n        /* \"#utility.yul\":6663:6669   */\n      dup4\n        /* \"#utility.yul\":6659:6676   */\n      add\n        /* \"#utility.yul\":6655:6682   */\n      slt\n        /* \"#utility.yul\":6645:6767   */\n      tag_279\n      jumpi\n        /* \"#utility.yul\":6686:6765   */\n      tag_280\n      tag_163\n      jump\t// in\n    tag_280:\n        /* \"#utility.yul\":6645:6767   */\n    tag_279:\n        /* \"#utility.yul\":6803:6809   */\n      dup2\n        /* \"#utility.yul\":6790:6810   */\n      calldataload\n        /* \"#utility.yul\":6828:6932   */\n      tag_281\n        /* \"#utility.yul\":6928:6931   */\n      dup5\n        /* \"#utility.yul\":6920:6926   */\n      dup3\n        /* \"#utility.yul\":6913:6917   */\n      0x20\n        /* \"#utility.yul\":6905:6911   */\n      dup7\n        /* \"#utility.yul\":6901:6918   */\n      add\n        /* \"#utility.yul\":6828:6932   */\n      tag_173\n      jump\t// in\n    tag_281:\n        /* \"#utility.yul\":6819:6932   */\n      swap2\n      pop\n        /* \"#utility.yul\":6635:6938   */\n      pop\n        /* \"#utility.yul\":6548:6938   */\n      swap3\n      swap2\n      pop\n      pop\n      jump\t// out\n        /* \"#utility.yul\":6944:8119   */\n    tag_21:\n        /* \"#utility.yul\":7075:7081   */\n      0x00\n        /* \"#utility.yul\":7083:7089   */\n      dup1\n        /* \"#utility.yul\":7091:7097   */\n      0x00\n        /* \"#utility.yul\":7099:7105   */\n      dup1\n        /* \"#utility.yul\":7148:7151   */\n      0x80\n        /* \"#utility.yul\":7136:7145   */\n      dup6\n        /* \"#utility.yul\":7127:7134   */\n      dup8\n        /* \"#utility.yul\":7123:7146   */\n      sub\n        /* \"#utility.yul\":7119:7152   */\n      slt\n        /* \"#utility.yul\":7116:7236   */\n      iszero\n      tag_283\n      jumpi\n        /* \"#utility.yul\":7155:7234   */\n      tag_284\n      tag_152\n      jump\t// in\n    tag_284:\n        /* \"#utility.yul\":7116:7236   */\n    tag_283:\n        /* \"#utility.yul\":7275:7276   */\n      0x00\n        /* \"#utility.yul\":7300:7353   */\n      tag_285\n        /* \"#utility.yul\":7345:7352   */\n      dup8\n        /* \"#utility.yul\":7336:7342   */\n      dup3\n        /* \"#utility.yul\":7325:7334   */\n      dup9\n        /* \"#utility.yul\":7321:7343   */\n      add\n        /* \"#utility.yul\":7300:7353   */\n      tag_156\n      jump\t// in\n    tag_285:\n        /* \"#utility.yul\":7290:7353   */\n      swap5\n      pop\n        /* \"#utility.yul\":7246:7363   */\n      pop\n        /* \"#utility.yul\":7430:7432   */\n      0x20\n        /* \"#utility.yul\":7419:7428   */\n      dup6\n        /* \"#utility.yul\":7415:7433   */\n      add\n        /* \"#utility.yul\":7402:7434   */\n      calldataload\n        /* \"#utility.yul\":7461:7479   */\n      0xffffffffffffffff\n        /* \"#utility.yul\":7453:7459   */\n      dup2\n        /* \"#utility.yul\":7450:7480   */\n      gt\n        /* \"#utility.yul\":7447:7564   */\n      iszero\n      tag_286\n      jumpi\n        /* \"#utility.yul\":7483:7562   */\n      tag_287\n      tag_153\n      jump\t// in\n    tag_287:\n        /* \"#utility.yul\":7447:7564   */\n    tag_286:\n        /* \"#utility.yul\":7588:7651   */\n      tag_288\n        /* \"#utility.yul\":7643:7650   */\n      dup8\n        /* \"#utility.yul\":7634:7640   */\n      dup3\n        /* \"#utility.yul\":7623:7632   */\n      dup9\n        /* \"#utility.yul\":7619:7641   */\n      add\n        /* \"#utility.yul\":7588:7651   */\n      tag_170\n      jump\t// in\n    tag_288:\n        /* \"#utility.yul\":7578:7651   */\n      swap4\n      pop\n        /* \"#utility.yul\":7373:7661   */\n      pop\n        /* \"#utility.yul\":7700:7702   */\n      0x40\n        /* \"#utility.yul\":7726:7779   */\n      tag_289\n        /* \"#utility.yul\":7771:7778   */\n      dup8\n        /* \"#utility.yul\":7762:7768   */\n      dup3\n        /* \"#utility.yul\":7751:7760   */\n      dup9\n        /* \"#utility.yul\":7747:7769   */\n      add\n        /* \"#utility.yul\":7726:7779   */\n      tag_156\n      jump\t// in\n    tag_289:\n        /* \"#utility.yul\":7716:7779   */\n      swap3\n      pop\n        /* \"#utility.yul\":7671:7789   */\n      pop\n        /* \"#utility.yul\":7856:7858   */\n      0x60\n        /* \"#utility.yul\":7845:7854   */\n      dup6\n        /* \"#utility.yul\":7841:7859   */\n      add\n        /* \"#utility.yul\":7828:7860   */\n      calldataload\n        /* \"#utility.yul\":7887:7905   */\n      0xffffffffffffffff\n        /* \"#utility.yul\":7879:7885   */\n      dup2\n        /* \"#utility.yul\":7876:7906   */\n      gt\n        /* \"#utility.yul\":7873:7990   */\n      iszero\n      tag_290\n      jumpi\n        /* \"#utility.yul\":7909:7988   */\n      tag_291\n      tag_153\n      jump\t// in\n    tag_291:\n        /* \"#utility.yul\":7873:7990   */\n    tag_290:\n        /* \"#utility.yul\":8014:8102   */\n      tag_292\n        /* \"#utility.yul\":8094:8101   */\n      dup8\n        /* \"#utility.yul\":8085:8091   */\n      dup3\n        /* \"#utility.yul\":8074:8083   */\n      dup9\n        /* \"#utility.yul\":8070:8092   */\n      add\n        /* \"#utility.yul\":8014:8102   */\n      tag_174\n      jump\t// in\n    tag_292:\n        /* \"#utility.yul\":8004:8102   */\n      swap2\n      pop\n        /* \"#utility.yul\":7799:8112   */\n      pop\n        /* \"#utility.yul\":6944:8119   */\n      swap3\n      swap6\n      swap2\n      swap5\n      pop\n      swap3\n      pop\n      jump\t// out\n        /* \"#utility.yul\":8125:8251   */\n    tag_175:\n        /* \"#utility.yul\":8162:8169   */\n      0x00\n        /* \"#utility.yul\":8202:8244   */\n      0xffffffffffffffffffffffffffffffffffffffff\n        /* \"#utility.yul\":8195:8200   */\n      dup3\n        /* \"#utility.yul\":8191:8245   */\n      and\n        /* \"#utility.yul\":8180:8245   */\n      swap1\n      pop\n        /* \"#utility.yul\":8125:8251   */\n      swap2\n      swap1\n      pop\n      jump\t// out\n        /* \"#utility.yul\":8257:8353   */\n    tag_176:\n        /* \"#utility.yul\":8294:8301   */\n      0x00\n        /* \"#utility.yul\":8323:8347   */\n      tag_295\n        /* \"#utility.yul\":8341:8346   */\n      dup3\n        /* \"#utility.yul\":8323:8347   */\n      tag_175\n      jump\t// in\n    tag_295:\n        /* \"#utility.yul\":8312:8347   */\n      swap1\n      pop\n        /* \"#utility.yul\":8257:8353   */\n      swap2\n      swap1\n      pop\n      jump\t// out\n        /* \"#utility.yul\":8359:8477   */\n    tag_177:\n        /* \"#utility.yul\":8446:8470   */\n      tag_297\n        /* \"#utility.yul\":8464:8469   */\n      dup2\n        /* \"#utility.yul\":8446:8470   */\n      tag_176\n      jump\t// in\n    tag_297:\n        /* \"#utility.yul\":8441:8444   */\n      dup3\n        /* \"#utility.yul\":8434:8471   */\n      mstore\n        /* \"#utility.yul\":8359:8477   */\n      pop\n      pop\n      jump\t// out\n        /* \"#utility.yul\":8483:8705   */\n    tag_26:\n        /* \"#utility.yul\":8576:8580   */\n      0x00\n        /* \"#utility.yul\":8614:8616   */\n      0x20\n        /* \"#utility.yul\":8603:8612   */\n      dup3\n        /* \"#utility.yul\":8599:8617   */\n      add\n        /* \"#utility.yul\":8591:8617   */\n      swap1\n      pop\n        /* \"#utility.yul\":8627:8698   */\n      tag_299\n        /* \"#utility.yul\":8695:8696   */\n      0x00\n        /* \"#utility.yul\":8684:8693   */\n      dup4\n        /* \"#utility.yul\":8680:8697   */\n      add\n        /* \"#utility.yul\":8671:8677   */\n      dup5\n        /* \"#utility.yul\":8627:8698   */\n      tag_177\n      jump\t// in\n    tag_299:\n        /* \"#utility.yul\":8483:8705   */\n      swap3\n      swap2\n      pop\n      pop\n      jump\t// out\n        /* \"#utility.yul\":8711:9244   */\n    tag_31:\n        /* \"#utility.yul\":8880:8884   */\n      0x00\n        /* \"#utility.yul\":8918:8920   */\n      0x60\n        /* \"#utility.yul\":8907:8916   */\n      dup3\n        /* \"#utility.yul\":8903:8921   */\n      add\n        /* \"#utility.yul\":8895:8921   */\n      swap1\n      pop\n        /* \"#utility.yul\":8931:9002   */\n      tag_301\n        /* \"#utility.yul\":8999:9000   */\n      0x00\n        /* \"#utility.yul\":8988:8997   */\n      dup4\n        /* \"#utility.yul\":8984:9001   */\n      add\n        /* \"#utility.yul\":8975:8981   */\n      dup7\n        /* \"#utility.yul\":8931:9002   */\n      tag_157\n      jump\t// in\n    tag_301:\n        /* \"#utility.yul\":9049:9058   */\n      dup2\n        /* \"#utility.yul\":9043:9047   */\n      dup2\n        /* \"#utility.yul\":9039:9059   */\n      sub\n        /* \"#utility.yul\":9034:9036   */\n      0x20\n        /* \"#utility.yul\":9023:9032   */\n      dup4\n        /* \"#utility.yul\":9019:9037   */\n      add\n        /* \"#utility.yul\":9012:9060   */\n      mstore\n        /* \"#utility.yul\":9077:9155   */\n      tag_302\n        /* \"#utility.yul\":9150:9154   */\n      dup2\n        /* \"#utility.yul\":9141:9147   */\n      dup6\n        /* \"#utility.yul\":9077:9155   */\n      tag_162\n      jump\t// in\n    tag_302:\n        /* \"#utility.yul\":9069:9155   */\n      swap1\n      pop\n        /* \"#utility.yul\":9165:9237   */\n      tag_303\n        /* \"#utility.yul\":9233:9235   */\n      0x40\n        /* \"#utility.yul\":9222:9231   */\n      dup4\n        /* \"#utility.yul\":9218:9236   */\n      add\n        /* \"#utility.yul\":9209:9215   */\n      dup5\n        /* \"#utility.yul\":9165:9237   */\n      tag_157\n      jump\t// in\n    tag_303:\n        /* \"#utility.yul\":8711:9244   */\n      swap5\n      swap4\n      pop\n      pop\n      pop\n      pop\n      jump\t// out\n        /* \"#utility.yul\":9250:9372   */\n    tag_178:\n        /* \"#utility.yul\":9323:9347   */\n      tag_305\n        /* \"#utility.yul\":9341:9346   */\n      dup2\n        /* \"#utility.yul\":9323:9347   */\n      tag_176\n      jump\t// in\n    tag_305:\n        /* \"#utility.yul\":9316:9321   */\n      dup2\n        /* \"#utility.yul\":9313:9348   */\n      eq\n        /* \"#utility.yul\":9303:9366   */\n      tag_306\n      jumpi\n        /* \"#utility.yul\":9362:9363   */\n      0x00\n        /* \"#utility.yul\":9359:9360   */\n      dup1\n        /* \"#utility.yul\":9352:9364   */\n      revert\n        /* \"#utility.yul\":9303:9366   */\n    tag_306:\n        /* \"#utility.yul\":9250:9372   */\n      pop\n      jump\t// out\n        /* \"#utility.yul\":9378:9517   */\n    tag_179:\n        /* \"#utility.yul\":9424:9429   */\n      0x00\n        /* \"#utility.yul\":9462:9468   */\n      dup2\n        /* \"#utility.yul\":9449:9469   */\n      calldataload\n        /* \"#utility.yul\":9440:9469   */\n      swap1\n      pop\n        /* \"#utility.yul\":9478:9511   */\n      tag_308\n        /* \"#utility.yul\":9505:9510   */\n      dup2\n        /* \"#utility.yul\":9478:9511   */\n      tag_178\n      jump\t// in\n    tag_308:\n        /* \"#utility.yul\":9378:9517   */\n      swap3\n      swap2\n      pop\n      pop\n      jump\t// out\n        /* \"#utility.yul\":9523:9852   */\n    tag_34:\n        /* \"#utility.yul\":9582:9588   */\n      0x00\n        /* \"#utility.yul\":9631:9633   */\n      0x20\n        /* \"#utility.yul\":9619:9628   */\n      dup3\n        /* \"#utility.yul\":9610:9617   */\n      dup5\n        /* \"#utility.yul\":9606:9629   */\n      sub\n        /* \"#utility.yul\":9602:9634   */\n      slt\n        /* \"#utility.yul\":9599:9718   */\n      iszero\n      tag_310\n      jumpi\n        /* \"#utility.yul\":9637:9716   */\n      tag_311\n      tag_152\n      jump\t// in\n    tag_311:\n        /* \"#utility.yul\":9599:9718   */\n    tag_310:\n        /* \"#utility.yul\":9757:9758   */\n      0x00\n        /* \"#utility.yul\":9782:9835   */\n      tag_312\n        /* \"#utility.yul\":9827:9834   */\n      dup5\n        /* \"#utility.yul\":9818:9824   */\n      dup3\n        /* \"#utility.yul\":9807:9816   */\n      dup6\n        /* \"#utility.yul\":9803:9825   */\n      add\n        /* \"#utility.yul\":9782:9835   */\n      tag_179\n      jump\t// in\n    tag_312:\n        /* \"#utility.yul\":9772:9835   */\n      swap2\n      pop\n        /* \"#utility.yul\":9728:9845   */\n      pop\n        /* \"#utility.yul\":9523:9852   */\n      swap3\n      swap2\n      pop\n      pop\n      jump\t// out\n        /* \"#utility.yul\":9858:9982   */\n    tag_180:\n        /* \"#utility.yul\":9935:9941   */\n      0x00\n        /* \"#utility.yul\":9969:9974   */\n      dup2\n        /* \"#utility.yul\":9963:9975   */\n      mload\n        /* \"#utility.yul\":9953:9975   */\n      swap1\n      pop\n        /* \"#utility.yul\":9858:9982   */\n      swap2\n      swap1\n      pop\n      jump\t// out\n        /* \"#utility.yul\":9988:10182   */\n    tag_181:\n        /* \"#utility.yul\":10097:10108   */\n      0x00\n        /* \"#utility.yul\":10131:10137   */\n      dup3\n        /* \"#utility.yul\":10126:10129   */\n      dup3\n        /* \"#utility.yul\":10119:10138   */\n      mstore\n        /* \"#utility.yul\":10171:10175   */\n      0x20\n        /* \"#utility.yul\":10166:10169   */\n      dup3\n        /* \"#utility.yul\":10162:10176   */\n      add\n        /* \"#utility.yul\":10147:10176   */\n      swap1\n      pop\n        /* \"#utility.yul\":9988:10182   */\n      swap3\n      swap2\n      pop\n      pop\n      jump\t// out\n        /* \"#utility.yul\":10188:10330   */\n    tag_182:\n        /* \"#utility.yul\":10265:10269   */\n      0x00\n        /* \"#utility.yul\":10288:10291   */\n      dup2\n        /* \"#utility.yul\":10280:10291   */\n      swap1\n      pop\n        /* \"#utility.yul\":10318:10322   */\n      0x20\n        /* \"#utility.yul\":10313:10316   */\n      dup3\n        /* \"#utility.yul\":10309:10323   */\n      add\n        /* \"#utility.yul\":10301:10323   */\n      swap1\n      pop\n        /* \"#utility.yul\":10188:10330   */\n      swap2\n      swap1\n      pop\n      jump\t// out\n        /* \"#utility.yul\":10336:10495   */\n    tag_183:\n        /* \"#utility.yul\":10410:10421   */\n      0x00\n        /* \"#utility.yul\":10444:10450   */\n      dup3\n        /* \"#utility.yul\":10439:10442   */\n      dup3\n        /* \"#utility.yul\":10432:10451   */\n      mstore\n        /* \"#utility.yul\":10484:10488   */\n      0x20\n        /* \"#utility.yul\":10479:10482   */\n      dup3\n        /* \"#utility.yul\":10475:10489   */\n      add\n        /* \"#utility.yul\":10460:10489   */\n      swap1\n      pop\n        /* \"#utility.yul\":10336:10495   */\n      swap3\n      swap2\n      pop\n      pop\n      jump\t// out\n        /* \"#utility.yul\":10501:10858   */\n    tag_184:\n        /* \"#utility.yul\":10579:10582   */\n      0x00\n        /* \"#utility.yul\":10607:10646   */\n      tag_318\n        /* \"#utility.yul\":10640:10645   */\n      dup3\n        /* \"#utility.yul\":10607:10646   */\n      tag_158\n      jump\t// in\n    tag_318:\n        /* \"#utility.yul\":10662:10723   */\n      tag_319\n        /* \"#utility.yul\":10716:10722   */\n      dup2\n        /* \"#utility.yul\":10711:10714   */\n      dup6\n        /* \"#utility.yul\":10662:10723   */\n      tag_183\n      jump\t// in\n    tag_319:\n        /* \"#utility.yul\":10655:10723   */\n      swap4\n      pop\n        /* \"#utility.yul\":10732:10797   */\n      tag_320\n        /* \"#utility.yul\":10790:10796   */\n      dup2\n        /* \"#utility.yul\":10785:10788   */\n      dup6\n        /* \"#utility.yul\":10778:10782   */\n      0x20\n        /* \"#utility.yul\":10771:10776   */\n      dup7\n        /* \"#utility.yul\":10767:10783   */\n      add\n        /* \"#utility.yul\":10732:10797   */\n      tag_160\n      jump\t// in\n    tag_320:\n        /* \"#utility.yul\":10822:10851   */\n      tag_321\n        /* \"#utility.yul\":10844:10850   */\n      dup2\n        /* \"#utility.yul\":10822:10851   */\n      tag_161\n      jump\t// in\n    tag_321:\n        /* \"#utility.yul\":10817:10820   */\n      dup5\n        /* \"#utility.yul\":10813:10852   */\n      add\n        /* \"#utility.yul\":10806:10852   */\n      swap2\n      pop\n        /* \"#utility.yul\":10583:10858   */\n      pop\n        /* \"#utility.yul\":10501:10858   */\n      swap3\n      swap2\n      pop\n      pop\n      jump\t// out\n        /* \"#utility.yul\":10864:11060   */\n    tag_185:\n        /* \"#utility.yul\":10953:10963   */\n      0x00\n        /* \"#utility.yul\":10988:11054   */\n      tag_323\n        /* \"#utility.yul\":11050:11053   */\n      dup4\n        /* \"#utility.yul\":11042:11048   */\n      dup4\n        /* \"#utility.yul\":10988:11054   */\n      tag_184\n      jump\t// in\n    tag_323:\n        /* \"#utility.yul\":10974:11054   */\n      swap1\n      pop\n        /* \"#utility.yul\":10864:11060   */\n      swap3\n      swap2\n      pop\n      pop\n      jump\t// out\n        /* \"#utility.yul\":11066:11189   */\n    tag_186:\n        /* \"#utility.yul\":11146:11150   */\n      0x00\n        /* \"#utility.yul\":11178:11182   */\n      0x20\n        /* \"#utility.yul\":11173:11176   */\n      dup3\n        /* \"#utility.yul\":11169:11183   */\n      add\n        /* \"#utility.yul\":11161:11183   */\n      swap1\n      pop\n        /* \"#utility.yul\":11066:11189   */\n      swap2\n      swap1\n      pop\n      jump\t// out\n        /* \"#utility.yul\":11223:12214   */\n    tag_187:\n        /* \"#utility.yul\":11362:11365   */\n      0x00\n        /* \"#utility.yul\":11391:11455   */\n      tag_326\n        /* \"#utility.yul\":11449:11454   */\n      dup3\n        /* \"#utility.yul\":11391:11455   */\n      tag_180\n      jump\t// in\n    tag_326:\n        /* \"#utility.yul\":11471:11567   */\n      tag_327\n        /* \"#utility.yul\":11560:11566   */\n      dup2\n        /* \"#utility.yul\":11555:11558   */\n      dup6\n        /* \"#utility.yul\":11471:11567   */\n      tag_181\n      jump\t// in\n    tag_327:\n        /* \"#utility.yul\":11464:11567   */\n      swap4\n      pop\n        /* \"#utility.yul\":11593:11596   */\n      dup4\n        /* \"#utility.yul\":11638:11642   */\n      0x20\n        /* \"#utility.yul\":11630:11636   */\n      dup3\n        /* \"#utility.yul\":11626:11643   */\n      mul\n        /* \"#utility.yul\":11621:11624   */\n      dup6\n        /* \"#utility.yul\":11617:11644   */\n      add\n        /* \"#utility.yul\":11668:11734   */\n      tag_328\n        /* \"#utility.yul\":11728:11733   */\n      dup6\n        /* \"#utility.yul\":11668:11734   */\n      tag_182\n      jump\t// in\n    tag_328:\n        /* \"#utility.yul\":11757:11764   */\n      dup1\n        /* \"#utility.yul\":11788:11789   */\n      0x00\n        /* \"#utility.yul\":11773:12169   */\n    tag_329:\n        /* \"#utility.yul\":11798:11804   */\n      dup6\n        /* \"#utility.yul\":11795:11796   */\n      dup2\n        /* \"#utility.yul\":11792:11805   */\n      lt\n        /* \"#utility.yul\":11773:12169   */\n      iszero\n      tag_331\n      jumpi\n        /* \"#utility.yul\":11869:11878   */\n      dup5\n        /* \"#utility.yul\":11863:11867   */\n      dup5\n        /* \"#utility.yul\":11859:11879   */\n      sub\n        /* \"#utility.yul\":11854:11857   */\n      dup10\n        /* \"#utility.yul\":11847:11880   */\n      mstore\n        /* \"#utility.yul\":11920:11926   */\n      dup2\n        /* \"#utility.yul\":11914:11927   */\n      mload\n        /* \"#utility.yul\":11948:12032   */\n      tag_332\n        /* \"#utility.yul\":12027:12031   */\n      dup6\n        /* \"#utility.yul\":12012:12025   */\n      dup3\n        /* \"#utility.yul\":11948:12032   */\n      tag_185\n      jump\t// in\n    tag_332:\n        /* \"#utility.yul\":11940:12032   */\n      swap5\n      pop\n        /* \"#utility.yul\":12055:12125   */\n      tag_333\n        /* \"#utility.yul\":12118:12124   */\n      dup4\n        /* \"#utility.yul\":12055:12125   */\n      tag_186\n      jump\t// in\n    tag_333:\n        /* \"#utility.yul\":12045:12125   */\n      swap3\n      pop\n        /* \"#utility.yul\":12154:12158   */\n      0x20\n        /* \"#utility.yul\":12149:12152   */\n      dup11\n        /* \"#utility.yul\":12145:12159   */\n      add\n        /* \"#utility.yul\":12138:12159   */\n      swap10\n      pop\n        /* \"#utility.yul\":11833:12169   */\n      pop\n        /* \"#utility.yul\":11820:11821   */\n      0x01\n        /* \"#utility.yul\":11817:11818   */\n      dup2\n        /* \"#utility.yul\":11813:11822   */\n      add\n        /* \"#utility.yul\":11808:11822   */\n      swap1\n      pop\n        /* \"#utility.yul\":11773:12169   */\n      jump(tag_329)\n    tag_331:\n        /* \"#utility.yul\":11777:11791   */\n      pop\n        /* \"#utility.yul\":12185:12189   */\n      dup3\n        /* \"#utility.yul\":12178:12189   */\n      swap8\n      pop\n        /* \"#utility.yul\":12205:12208   */\n      dup8\n        /* \"#utility.yul\":12198:12208   */\n      swap6\n      pop\n        /* \"#utility.yul\":11367:12214   */\n      pop\n      pop\n      pop\n      pop\n      pop\n        /* \"#utility.yul\":11223:12214   */\n      swap3\n      swap2\n      pop\n      pop\n      jump\t// out\n        /* \"#utility.yul\":12220:12944   */\n    tag_41:\n        /* \"#utility.yul\":12459:12463   */\n      0x00\n        /* \"#utility.yul\":12497:12499   */\n      0x60\n        /* \"#utility.yul\":12486:12495   */\n      dup3\n        /* \"#utility.yul\":12482:12500   */\n      add\n        /* \"#utility.yul\":12474:12500   */\n      swap1\n      pop\n        /* \"#utility.yul\":12546:12555   */\n      dup2\n        /* \"#utility.yul\":12540:12544   */\n      dup2\n        /* \"#utility.yul\":12536:12556   */\n      sub\n        /* \"#utility.yul\":12532:12533   */\n      0x00\n        /* \"#utility.yul\":12521:12530   */\n      dup4\n        /* \"#utility.yul\":12517:12534   */\n      add\n        /* \"#utility.yul\":12510:12557   */\n      mstore\n        /* \"#utility.yul\":12574:12652   */\n      tag_335\n        /* \"#utility.yul\":12647:12651   */\n      dup2\n        /* \"#utility.yul\":12638:12644   */\n      dup7\n        /* \"#utility.yul\":12574:12652   */\n      tag_162\n      jump\t// in\n    tag_335:\n        /* \"#utility.yul\":12566:12652   */\n      swap1\n      pop\n        /* \"#utility.yul\":12662:12734   */\n      tag_336\n        /* \"#utility.yul\":12730:12732   */\n      0x20\n        /* \"#utility.yul\":12719:12728   */\n      dup4\n        /* \"#utility.yul\":12715:12733   */\n      add\n        /* \"#utility.yul\":12706:12712   */\n      dup6\n        /* \"#utility.yul\":12662:12734   */\n      tag_157\n      jump\t// in\n    tag_336:\n        /* \"#utility.yul\":12781:12790   */\n      dup2\n        /* \"#utility.yul\":12775:12779   */\n      dup2\n        /* \"#utility.yul\":12771:12791   */\n      sub\n        /* \"#utility.yul\":12766:12768   */\n      0x40\n        /* \"#utility.yul\":12755:12764   */\n      dup4\n        /* \"#utility.yul\":12751:12769   */\n      add\n        /* \"#utility.yul\":12744:12792   */\n      mstore\n        /* \"#utility.yul\":12809:12937   */\n      tag_337\n        /* \"#utility.yul\":12932:12936   */\n      dup2\n        /* \"#utility.yul\":12923:12929   */\n      dup5\n        /* \"#utility.yul\":12809:12937   */\n      tag_187\n      jump\t// in\n    tag_337:\n        /* \"#utility.yul\":12801:12937   */\n      swap1\n      pop\n        /* \"#utility.yul\":12220:12944   */\n      swap5\n      swap4\n      pop\n      pop\n      pop\n      pop\n      jump\t// out\n        /* \"#utility.yul\":12950:13796   */\n    tag_46:\n        /* \"#utility.yul\":13195:13199   */\n      0x00\n        /* \"#utility.yul\":13233:13236   */\n      0xa0\n        /* \"#utility.yul\":13222:13231   */\n      dup3\n        /* \"#utility.yul\":13218:13237   */\n      add\n        /* \"#utility.yul\":13210:13237   */\n      swap1\n      pop\n        /* \"#utility.yul\":13247:13318   */\n      tag_339\n        /* \"#utility.yul\":13315:13316   */\n      0x00\n        /* \"#utility.yul\":13304:13313   */\n      dup4\n        /* \"#utility.yul\":13300:13317   */\n      add\n        /* \"#utility.yul\":13291:13297   */\n      dup9\n        /* \"#utility.yul\":13247:13318   */\n      tag_157\n      jump\t// in\n    tag_339:\n        /* \"#utility.yul\":13365:13374   */\n      dup2\n        /* \"#utility.yul\":13359:13363   */\n      dup2\n        /* \"#utility.yul\":13355:13375   */\n      sub\n        /* \"#utility.yul\":13350:13352   */\n      0x20\n        /* \"#utility.yul\":13339:13348   */\n      dup4\n        /* \"#utility.yul\":13335:13353   */\n      add\n        /* \"#utility.yul\":13328:13376   */\n      mstore\n        /* \"#utility.yul\":13393:13471   */\n      tag_340\n        /* \"#utility.yul\":13466:13470   */\n      dup2\n        /* \"#utility.yul\":13457:13463   */\n      dup8\n        /* \"#utility.yul\":13393:13471   */\n      tag_162\n      jump\t// in\n    tag_340:\n        /* \"#utility.yul\":13385:13471   */\n      swap1\n      pop\n        /* \"#utility.yul\":13518:13527   */\n      dup2\n        /* \"#utility.yul\":13512:13516   */\n      dup2\n        /* \"#utility.yul\":13508:13528   */\n      sub\n        /* \"#utility.yul\":13503:13505   */\n      0x40\n        /* \"#utility.yul\":13492:13501   */\n      dup4\n        /* \"#utility.yul\":13488:13506   */\n      add\n        /* \"#utility.yul\":13481:13529   */\n      mstore\n        /* \"#utility.yul\":13546:13624   */\n      tag_341\n        /* \"#utility.yul\":13619:13623   */\n      dup2\n        /* \"#utility.yul\":13610:13616   */\n      dup7\n        /* \"#utility.yul\":13546:13624   */\n      tag_162\n      jump\t// in\n    tag_341:\n        /* \"#utility.yul\":13538:13624   */\n      swap1\n      pop\n        /* \"#utility.yul\":13634:13706   */\n      tag_342\n        /* \"#utility.yul\":13702:13704   */\n      0x60\n        /* \"#utility.yul\":13691:13700   */\n      dup4\n        /* \"#utility.yul\":13687:13705   */\n      add\n        /* \"#utility.yul\":13678:13684   */\n      dup6\n        /* \"#utility.yul\":13634:13706   */\n      tag_157\n      jump\t// in\n    tag_342:\n        /* \"#utility.yul\":13716:13789   */\n      tag_343\n        /* \"#utility.yul\":13784:13787   */\n      0x80\n        /* \"#utility.yul\":13773:13782   */\n      dup4\n        /* \"#utility.yul\":13769:13788   */\n      add\n        /* \"#utility.yul\":13760:13766   */\n      dup5\n        /* \"#utility.yul\":13716:13789   */\n      tag_157\n      jump\t// in\n    tag_343:\n        /* \"#utility.yul\":12950:13796   */\n      swap7\n      swap6\n      pop\n      pop\n      pop\n      pop\n      pop\n      pop\n      jump\t// out\n        /* \"#utility.yul\":13802:14276   */\n    tag_49:\n        /* \"#utility.yul\":13870:13876   */\n      0x00\n        /* \"#utility.yul\":13878:13884   */\n      dup1\n        /* \"#utility.yul\":13927:13929   */\n      0x40\n        /* \"#utility.yul\":13915:13924   */\n      dup4\n        /* \"#utility.yul\":13906:13913   */\n      dup6\n        /* \"#utility.yul\":13902:13925   */\n      sub\n        /* \"#utility.yul\":13898:13930   */\n      slt\n        /* \"#utility.yul\":13895:14014   */\n      iszero\n      tag_345\n      jumpi\n        /* \"#utility.yul\":13933:14012   */\n      tag_346\n      tag_152\n      jump\t// in\n    tag_346:\n        /* \"#utility.yul\":13895:14014   */\n    tag_345:\n        /* \"#utility.yul\":14053:14054   */\n      0x00\n        /* \"#utility.yul\":14078:14131   */\n      tag_347\n        /* \"#utility.yul\":14123:14130   */\n      dup6\n        /* \"#utility.yul\":14114:14120   */\n      dup3\n        /* \"#utility.yul\":14103:14112   */\n      dup7\n        /* \"#utility.yul\":14099:14121   */\n      add\n        /* \"#utility.yul\":14078:14131   */\n      tag_179\n      jump\t// in\n    tag_347:\n        /* \"#utility.yul\":14068:14131   */\n      swap3\n      pop\n        /* \"#utility.yul\":14024:14141   */\n      pop\n        /* \"#utility.yul\":14180:14182   */\n      0x20\n        /* \"#utility.yul\":14206:14259   */\n      tag_348\n        /* \"#utility.yul\":14251:14258   */\n      dup6\n        /* \"#utility.yul\":14242:14248   */\n      dup3\n        /* \"#utility.yul\":14231:14240   */\n      dup7\n        /* \"#utility.yul\":14227:14249   */\n      add\n        /* \"#utility.yul\":14206:14259   */\n      tag_156\n      jump\t// in\n    tag_348:\n        /* \"#utility.yul\":14196:14259   */\n      swap2\n      pop\n        /* \"#utility.yul\":14151:14269   */\n      pop\n        /* \"#utility.yul\":13802:14276   */\n      swap3\n      pop\n      swap3\n      swap1\n      pop\n      jump\t// out\n        /* \"#utility.yul\":14282:14504   */\n    tag_52:\n        /* \"#utility.yul\":14375:14379   */\n      0x00\n        /* \"#utility.yul\":14413:14415   */\n      0x20\n        /* \"#utility.yul\":14402:14411   */\n      dup3\n        /* \"#utility.yul\":14398:14416   */\n      add\n        /* \"#utility.yul\":14390:14416   */\n      swap1\n      pop\n        /* \"#utility.yul\":14426:14497   */\n      tag_350\n        /* \"#utility.yul\":14494:14495   */\n      0x00\n        /* \"#utility.yul\":14483:14492   */\n      dup4\n        /* \"#utility.yul\":14479:14496   */\n      add\n        /* \"#utility.yul\":14470:14476   */\n      dup5\n        /* \"#utility.yul\":14426:14497   */\n      tag_157\n      jump\t// in\n    tag_350:\n        /* \"#utility.yul\":14282:14504   */\n      swap3\n      swap2\n      pop\n      pop\n      jump\t// out\n        /* \"#utility.yul\":14510:15815   */\n    tag_55:\n        /* \"#utility.yul\":14626:14632   */\n      0x00\n        /* \"#utility.yul\":14634:14640   */\n      dup1\n        /* \"#utility.yul\":14642:14648   */\n      0x00\n        /* \"#utility.yul\":14650:14656   */\n      dup1\n        /* \"#utility.yul\":14699:14702   */\n      0x80\n        /* \"#utility.yul\":14687:14696   */\n      dup6\n        /* \"#utility.yul\":14678:14685   */\n      dup8\n        /* \"#utility.yul\":14674:14697   */\n      sub\n        /* \"#utility.yul\":14670:14703   */\n      slt\n        /* \"#utility.yul\":14667:14787   */\n      iszero\n      tag_352\n      jumpi\n        /* \"#utility.yul\":14706:14785   */\n      tag_353\n      tag_152\n      jump\t// in\n    tag_353:\n        /* \"#utility.yul\":14667:14787   */\n    tag_352:\n        /* \"#utility.yul\":14826:14827   */\n      0x00\n        /* \"#utility.yul\":14851:14904   */\n      tag_354\n        /* \"#utility.yul\":14896:14903   */\n      dup8\n        /* \"#utility.yul\":14887:14893   */\n      dup3\n        /* \"#utility.yul\":14876:14885   */\n      dup9\n        /* \"#utility.yul\":14872:14894   */\n      add\n        /* \"#utility.yul\":14851:14904   */\n      tag_156\n      jump\t// in\n    tag_354:\n        /* \"#utility.yul\":14841:14904   */\n      swap5\n      pop\n        /* \"#utility.yul\":14797:14914   */\n      pop\n        /* \"#utility.yul\":14981:14983   */\n      0x20\n        /* \"#utility.yul\":14970:14979   */\n      dup6\n        /* \"#utility.yul\":14966:14984   */\n      add\n        /* \"#utility.yul\":14953:14985   */\n      calldataload\n        /* \"#utility.yul\":15012:15030   */\n      0xffffffffffffffff\n        /* \"#utility.yul\":15004:15010   */\n      dup2\n        /* \"#utility.yul\":15001:15031   */\n      gt\n        /* \"#utility.yul\":14998:15115   */\n      iszero\n      tag_355\n      jumpi\n        /* \"#utility.yul\":15034:15113   */\n      tag_356\n      tag_153\n      jump\t// in\n    tag_356:\n        /* \"#utility.yul\":14998:15115   */\n    tag_355:\n        /* \"#utility.yul\":15139:15202   */\n      tag_357\n        /* \"#utility.yul\":15194:15201   */\n      dup8\n        /* \"#utility.yul\":15185:15191   */\n      dup3\n        /* \"#utility.yul\":15174:15183   */\n      dup9\n        /* \"#utility.yul\":15170:15192   */\n      add\n        /* \"#utility.yul\":15139:15202   */\n      tag_170\n      jump\t// in\n    tag_357:\n        /* \"#utility.yul\":15129:15202   */\n      swap4\n      pop\n        /* \"#utility.yul\":14924:15212   */\n      pop\n        /* \"#utility.yul\":15279:15281   */\n      0x40\n        /* \"#utility.yul\":15268:15277   */\n      dup6\n        /* \"#utility.yul\":15264:15282   */\n      add\n        /* \"#utility.yul\":15251:15283   */\n      calldataload\n        /* \"#utility.yul\":15310:15328   */\n      0xffffffffffffffff\n        /* \"#utility.yul\":15302:15308   */\n      dup2\n        /* \"#utility.yul\":15299:15329   */\n      gt\n        /* \"#utility.yul\":15296:15413   */\n      iszero\n      tag_358\n      jumpi\n        /* \"#utility.yul\":15332:15411   */\n      tag_359\n      tag_153\n      jump\t// in\n    tag_359:\n        /* \"#utility.yul\":15296:15413   */\n    tag_358:\n        /* \"#utility.yul\":15437:15500   */\n      tag_360\n        /* \"#utility.yul\":15492:15499   */\n      dup8\n        /* \"#utility.yul\":15483:15489   */\n      dup3\n        /* \"#utility.yul\":15472:15481   */\n      dup9\n        /* \"#utility.yul\":15468:15490   */\n      add\n        /* \"#utility.yul\":15437:15500   */\n      tag_170\n      jump\t// in\n    tag_360:\n        /* \"#utility.yul\":15427:15500   */\n      swap3\n      pop\n        /* \"#utility.yul\":15222:15510   */\n      pop\n        /* \"#utility.yul\":15577:15579   */\n      0x60\n        /* \"#utility.yul\":15566:15575   */\n      dup6\n        /* \"#utility.yul\":15562:15580   */\n      add\n        /* \"#utility.yul\":15549:15581   */\n      calldataload\n        /* \"#utility.yul\":15608:15626   */\n      0xffffffffffffffff\n        /* \"#utility.yul\":15600:15606   */\n      dup2\n        /* \"#utility.yul\":15597:15627   */\n      gt\n        /* \"#utility.yul\":15594:15711   */\n      iszero\n      tag_361\n      jumpi\n        /* \"#utility.yul\":15630:15709   */\n      tag_362\n      tag_153\n      jump\t// in\n    tag_362:\n        /* \"#utility.yul\":15594:15711   */\n    tag_361:\n        /* \"#utility.yul\":15735:15798   */\n      tag_363\n        /* \"#utility.yul\":15790:15797   */\n      dup8\n        /* \"#utility.yul\":15781:15787   */\n      dup3\n        /* \"#utility.yul\":15770:15779   */\n      dup9\n        /* \"#utility.yul\":15766:15788   */\n      add\n        /* \"#utility.yul\":15735:15798   */\n      tag_170\n      jump\t// in\n    tag_363:\n        /* \"#utility.yul\":15725:15798   */\n      swap2\n      pop\n        /* \"#utility.yul\":15520:15808   */\n      pop\n        /* \"#utility.yul\":14510:15815   */\n      swap3\n      swap6\n      swap2\n      swap5\n      pop\n      swap3\n      pop\n      jump\t// out\n        /* \"#utility.yul\":15821:16001   */\n    tag_188:\n        /* \"#utility.yul\":15869:15946   */\n      0x4e487b7100000000000000000000000000000000000000000000000000000000\n        /* \"#utility.yul\":15866:15867   */\n      0x00\n        /* \"#utility.yul\":15859:15947   */\n      mstore\n        /* \"#utility.yul\":15966:15970   */\n      0x22\n        /* \"#utility.yul\":15963:15964   */\n      0x04\n        /* \"#utility.yul\":15956:15971   */\n      mstore\n        /* \"#utility.yul\":15990:15994   */\n      0x24\n        /* \"#utility.yul\":15987:15988   */\n      0x00\n        /* \"#utility.yul\":15980:15995   */\n      revert\n        /* \"#utility.yul\":16007:16327   */\n    tag_58:\n        /* \"#utility.yul\":16051:16057   */\n      0x00\n        /* \"#utility.yul\":16088:16089   */\n      0x02\n        /* \"#utility.yul\":16082:16086   */\n      dup3\n        /* \"#utility.yul\":16078:16090   */\n      div\n        /* \"#utility.yul\":16068:16090   */\n      swap1\n      pop\n        /* \"#utility.yul\":16135:16136   */\n      0x01\n        /* \"#utility.yul\":16129:16133   */\n      dup3\n        /* \"#utility.yul\":16125:16137   */\n      and\n        /* \"#utility.yul\":16156:16174   */\n      dup1\n        /* \"#utility.yul\":16146:16227   */\n      tag_366\n      jumpi\n        /* \"#utility.yul\":16212:16216   */\n      0x7f\n        /* \"#utility.yul\":16204:16210   */\n      dup3\n        /* \"#utility.yul\":16200:16217   */\n      and\n        /* \"#utility.yul\":16190:16217   */\n      swap2\n      pop\n        /* \"#utility.yul\":16146:16227   */\n    tag_366:\n        /* \"#utility.yul\":16274:16276   */\n      0x20\n        /* \"#utility.yul\":16266:16272   */\n      dup3\n        /* \"#utility.yul\":16263:16277   */\n      lt\n        /* \"#utility.yul\":16243:16261   */\n      dup2\n        /* \"#utility.yul\":16240:16278   */\n      sub\n        /* \"#utility.yul\":16237:16321   */\n      tag_367\n      jumpi\n        /* \"#utility.yul\":16293:16311   */\n      tag_368\n      tag_188\n      jump\t// in\n    tag_368:\n        /* \"#utility.yul\":16237:16321   */\n    tag_367:\n        /* \"#utility.yul\":16058:16327   */\n      pop\n        /* \"#utility.yul\":16007:16327   */\n      swap2\n      swap1\n      pop\n      jump\t// out\n        /* \"#utility.yul\":16333:16474   */\n    tag_189:\n        /* \"#utility.yul\":16382:16386   */\n      0x00\n        /* \"#utility.yul\":16405:16408   */\n      dup2\n        /* \"#utility.yul\":16397:16408   */\n      swap1\n      pop\n        /* \"#utility.yul\":16428:16431   */\n      dup2\n        /* \"#utility.yul\":16425:16426   */\n      0x00\n        /* \"#utility.yul\":16418:16432   */\n      mstore\n        /* \"#utility.yul\":16462:16466   */\n      0x20\n        /* \"#utility.yul\":16459:16460   */\n      0x00\n        /* \"#utility.yul\":16449:16467   */\n      keccak256\n        /* \"#utility.yul\":16441:16467   */\n      swap1\n      pop\n        /* \"#utility.yul\":16333:16474   */\n      swap2\n      swap1\n      pop\n      jump\t// out\n        /* \"#utility.yul\":16480:16573   */\n    tag_190:\n        /* \"#utility.yul\":16517:16523   */\n      0x00\n        /* \"#utility.yul\":16564:16566   */\n      0x20\n        /* \"#utility.yul\":16559:16561   */\n      0x1f\n        /* \"#utility.yul\":16552:16557   */\n      dup4\n        /* \"#utility.yul\":16548:16562   */\n      add\n        /* \"#utility.yul\":16544:16567   */\n      div\n        /* \"#utility.yul\":16534:16567   */\n      swap1\n      pop\n        /* \"#utility.yul\":16480:16573   */\n      swap2\n      swap1\n      pop\n      jump\t// out\n        /* \"#utility.yul\":16579:16686   */\n    tag_191:\n        /* \"#utility.yul\":16623:16631   */\n      0x00\n        /* \"#utility.yul\":16673:16678   */\n      dup3\n        /* \"#utility.yul\":16667:16671   */\n      dup3\n        /* \"#utility.yul\":16663:16679   */\n      shl\n        /* \"#utility.yul\":16642:16679   */\n      swap1\n      pop\n        /* \"#utility.yul\":16579:16686   */\n      swap3\n      swap2\n      pop\n      pop\n      jump\t// out\n        /* \"#utility.yul\":16692:17085   */\n    tag_192:\n        /* \"#utility.yul\":16761:16767   */\n      0x00\n        /* \"#utility.yul\":16811:16812   */\n      0x08\n        /* \"#utility.yul\":16799:16809   */\n      dup4\n        /* \"#utility.yul\":16795:16813   */\n      mul\n        /* \"#utility.yul\":16834:16931   */\n      tag_373\n        /* \"#utility.yul\":16864:16930   */\n      0xffffffffffffffffffffffffffffffffffffffffffffffffffffffffffffffff\n        /* \"#utility.yul\":16853:16862   */\n      dup3\n        /* \"#utility.yul\":16834:16931   */\n      tag_191\n      jump\t// in\n    tag_373:\n        /* \"#utility.yul\":16952:16991   */\n      tag_374\n        /* \"#utility.yul\":16982:16990   */\n      dup7\n        /* \"#utility.yul\":16971:16980   */\n      dup4\n        /* \"#utility.yul\":16952:16991   */\n      tag_191\n      jump\t// in\n    tag_374:\n        /* \"#utility.yul\":16940:16991   */\n      swap6\n      pop\n        /* \"#utility.yul\":17024:17028   */\n      dup1\n        /* \"#utility.yul\":17020:17029   */\n      not\n        /* \"#utility.yul\":17013:17018   */\n      dup5\n        /* \"#utility.yul\":17009:17030   */\n      and\n        /* \"#utility.yul\":17000:17030   */\n      swap4\n      pop\n        /* \"#utility.yul\":17073:17077   */\n      dup1\n        /* \"#utility.yul\":17063:17071   */\n      dup7\n        /* \"#utility.yul\":17059:17078   */\n      and\n        /* \"#utility.yul\":17052:17057   */\n      dup5\n        /* \"#utility.yul\":17049:17079   */\n      or\n        /* \"#utility.yul\":17039:17079   */\n      swap3\n      pop\n        /* \"#utility.yul\":16768:17085   */\n      pop\n      pop\n        /* \"#utility.yul\":16692:17085   */\n      swap4\n      swap3\n      pop\n      pop\n      pop\n      jump\t// out\n        /* \"#utility.yul\":17091:17151   */\n    tag_193:\n        /* \"#utility.yul\":17119:17122   */\n      0x00\n        /* \"#utility.yul\":17140:17145   */\n      dup2\n        /* \"#utility.yul\":17133:17145   */\n      swap1\n      pop\n        /* \"#utility.yul\":17091:17151   */\n      swap2\n      swap1\n      pop\n      jump\t// out\n        /* \"#utility.yul\":17157:17299   */\n    tag_194:\n        /* \"#utility.yul\":17207:17216   */\n      0x00\n        /* \"#utility.yul\":17240:17293   */\n      tag_377\n        /* \"#utility.yul\":17258:17292   */\n      tag_378\n        /* \"#utility.yul\":17267:17291   */\n      tag_379\n        /* \"#utility.yul\":17285:17290   */\n      dup5\n        /* \"#utility.yul\":17267:17291   */\n      tag_154\n      jump\t// in\n    tag_379:\n        /* \"#utility.yul\":17258:17292   */\n      tag_193\n      jump\t// in\n    tag_378:\n        /* \"#utility.yul\":17240:17293   */\n      tag_154\n      jump\t// in\n    tag_377:\n        /* \"#utility.yul\":17227:17293   */\n      swap1\n      pop\n        /* \"#utility.yul\":17157:17299   */\n      swap2\n      swap1\n      pop\n      jump\t// out\n        /* \"#utility.yul\":17305:17380   */\n    tag_195:\n        /* \"#utility.yul\":17348:17351   */\n      0x00\n        /* \"#utility.yul\":17369:17374   */\n      dup2\n        /* \"#utility.yul\":17362:17374   */\n      swap1\n      pop\n        /* \"#utility.yul\":17305:17380   */\n      swap2\n      swap1\n      pop\n      jump\t// out\n        /* \"#utility.yul\":17386:17655   */\n    tag_196:\n        /* \"#utility.yul\":17496:17535   */\n      tag_382\n        /* \"#utility.yul\":17527:17534   */\n      dup4\n        /* \"#utility.yul\":17496:17535   */\n      tag_194\n      jump\t// in\n    tag_382:\n        /* \"#utility.yul\":17557:17648   */\n      tag_383\n        /* \"#utility.yul\":17606:17647   */\n      tag_384\n        /* \"#utility.yul\":17630:17646   */\n      dup3\n        /* \"#utility.yul\":17606:17647   */\n      tag_195\n      jump\t// in\n    tag_384:\n        /* \"#utility.yul\":17598:17604   */\n      dup5\n        /* \"#utility.yul\":17591:17595   */\n      dup5\n        /* \"#utility.yul\":17585:17596   */\n      sload\n        /* \"#utility.yul\":17557:17648   */\n      tag_192\n      jump\t// in\n    tag_383:\n        /* \"#utility.yul\":17551:17555   */\n      dup3\n        /* \"#utility.yul\":17544:17649   */\n      sstore\n        /* \"#utility.yul\":17462:17655   */\n      pop\n        /* \"#utility.yul\":17386:17655   */\n      pop\n      pop\n      pop\n      jump\t// out\n        /* \"#utility.yul\":17661:17734   */\n    tag_197:\n        /* \"#utility.yul\":17706:17709   */\n      0x00\n        /* \"#utility.yul\":17661:17734   */\n      swap1\n      jump\t// out\n        /* \"#utility.yul\":17740:17929   */\n    tag_198:\n        /* \"#utility.yul\":17817:17849   */\n      tag_387\n      tag_197\n      jump\t// in\n    tag_387:\n        /* \"#utility.yul\":17858:17923   */\n      tag_388\n        /* \"#utility.yul\":17916:17922   */\n      dup2\n        /* \"#utility.yul\":17908:17914   */\n      dup5\n        /* \"#utility.yul\":17902:17906   */\n      dup5\n        /* \"#utility.yul\":17858:17923   */\n      tag_196\n      jump\t// in\n    tag_388:\n        /* \"#utility.yul\":17793:17929   */\n      pop\n        /* \"#utility.yul\":17740:17929   */\n      pop\n      pop\n      jump\t// out\n        /* \"#utility.yul\":17935:18121   */\n    tag_199:\n        /* \"#utility.yul\":17995:18115   */\n    tag_390:\n        /* \"#utility.yul\":18012:18015   */\n      dup2\n        /* \"#utility.yul\":18005:18010   */\n      dup2\n        /* \"#utility.yul\":18002:18016   */\n      lt\n        /* \"#utility.yul\":17995:18115   */\n      iszero\n      tag_392\n      jumpi\n        /* \"#utility.yul\":18066:18105   */\n      tag_393\n        /* \"#utility.yul\":18103:18104   */\n      0x00\n        /* \"#utility.yul\":18096:18101   */\n      dup3\n        /* \"#utility.yul\":18066:18105   */\n      tag_198\n      jump\t// in\n    tag_393:\n        /* \"#utility.yul\":18039:18040   */\n      0x01\n        /* \"#utility.yul\":18032:18037   */\n      dup2\n        /* \"#utility.yul\":18028:18041   */\n      add\n        /* \"#utility.yul\":18019:18041   */\n      swap1\n      pop\n        /* \"#utility.yul\":17995:18115   */\n      jump(tag_390)\n    tag_392:\n        /* \"#utility.yul\":17935:18121   */\n      pop\n      pop\n      jump\t// out\n        /* \"#utility.yul\":18127:18670   */\n    tag_200:\n        /* \"#utility.yul\":18228:18230   */\n      0x1f\n        /* \"#utility.yul\":18223:18226   */\n      dup3\n        /* \"#utility.yul\":18220:18231   */\n      gt\n        /* \"#utility.yul\":18217:18663   */\n      iszero\n      tag_395\n      jumpi\n        /* \"#utility.yul\":18262:18300   */\n      tag_396\n        /* \"#utility.yul\":18294:18299   */\n      dup2\n        /* \"#utility.yul\":18262:18300   */\n      tag_189\n      jump\t// in\n    tag_396:\n        /* \"#utility.yul\":18346:18375   */\n      tag_397\n        /* \"#utility.yul\":18364:18374   */\n      dup5\n        /* \"#utility.yul\":18346:18375   */\n      tag_190\n      jump\t// in\n    tag_397:\n        /* \"#utility.yul\":18336:18344   */\n      dup2\n        /* \"#utility.yul\":18332:18376   */\n      add\n        /* \"#utility.yul\":18529:18531   */\n      0x20\n        /* \"#utility.yul\":18517:18527   */\n      dup6\n        /* \"#utility.yul\":18514:18532   */\n      lt\n        /* \"#utility.yul\":18511:18560   */\n      iszero\n      tag_398\n      jumpi\n        /* \"#utility.yul\":18550:18558   */\n      dup2\n        /* \"#utility.yul\":18535:18558   */\n      swap1\n      pop\n        /* \"#utility.yul\":18511:18560   */\n    tag_398:\n        /* \"#utility.yul\":18573:18653   */\n      tag_399\n        /* \"#utility.yul\":18629:18651   */\n      tag_400\n        /* \"#utility.yul\":18647:18650   */\n      dup6\n        /* \"#utility.yul\":18629:18651   */\n      tag_190\n      jump\t// in\n    tag_400:\n        /* \"#utility.yul\":18619:18627   */\n      dup4\n        /* \"#utility.yul\":18615:18652   */\n      add\n        /* \"#utility.yul\":18602:18613   */\n      dup3\n        /* \"#utility.yul\":18573:18653   */\n      tag_199\n      jump\t// in\n    tag_399:\n        /* \"#utility.yul\":18232:18663   */\n      pop\n      pop\n        /* \"#utility.yul\":18217:18663   */\n    tag_395:\n        /* \"#utility.yul\":18127:18670   */\n      pop\n      pop\n      pop\n      jump\t// out\n        /* \"#utility.yul\":18676:18793   */\n    tag_201:\n        /* \"#utility.yul\":18730:18738   */\n      0x00\n        /* \"#utility.yul\":18780:18785   */\n      dup3\n        /* \"#utility.yul\":18774:18778   */\n      dup3\n        /* \"#utility.yul\":18770:18786   */\n      shr\n        /* \"#utility.yul\":18749:18786   */\n      swap1\n      pop\n        /* \"#utility.yul\":18676:18793   */\n      swap3\n      swap2\n      pop\n      pop\n      jump\t// out\n        /* \"#utility.yul\":18799:18968   */\n    tag_202:\n        /* \"#utility.yul\":18843:18849   */\n      0x00\n        /* \"#utility.yul\":18876:18927   */\n      tag_403\n        /* \"#utility.yul\":18924:18925   */\n      0x00\n        /* \"#utility.yul\":18920:18926   */\n      not\n        /* \"#utility.yul\":18912:18917   */\n      dup5\n        /* \"#utility.yul\":18909:18910   */\n      0x08\n        /* \"#utility.yul\":18905:18918   */\n      mul\n        /* \"#utility.yul\":18876:18927   */\n      tag_201\n      jump\t// in\n    tag_403:\n        /* \"#utility.yul\":18872:18928   */\n      not\n        /* \"#utility.yul\":18957:18961   */\n      dup1\n        /* \"#utility.yul\":18951:18955   */\n      dup4\n        /* \"#utility.yul\":18947:18962   */\n      and\n        /* \"#utility.yul\":18937:18962   */\n      swap2\n      pop\n        /* \"#utility.yul\":18850:18968   */\n      pop\n        /* \"#utility.yul\":18799:18968   */\n      swap3\n      swap2\n      pop\n      pop\n      jump\t// out\n        /* \"#utility.yul\":18973:19268   */\n    tag_203:\n        /* \"#utility.yul\":19049:19053   */\n      0x00\n        /* \"#utility.yul\":19195:19224   */\n      tag_405\n        /* \"#utility.yul\":19220:19223   */\n      dup4\n        /* \"#utility.yul\":19214:19218   */\n      dup4\n        /* \"#utility.yul\":19195:19224   */\n      tag_202\n      jump\t// in\n    tag_405:\n        /* \"#utility.yul\":19187:19224   */\n      swap2\n      pop\n        /* \"#utility.yul\":19257:19260   */\n      dup3\n        /* \"#utility.yul\":19254:19255   */\n      0x02\n        /* \"#utility.yul\":19250:19261   */\n      mul\n        /* \"#utility.yul\":19244:19248   */\n      dup3\n        /* \"#utility.yul\":19241:19262   */\n      or\n        /* \"#utility.yul\":19233:19262   */\n      swap1\n      pop\n        /* \"#utility.yul\":18973:19268   */\n      swap3\n      swap2\n      pop\n      pop\n      jump\t// out\n        /* \"#utility.yul\":19273:20668   */\n    tag_75:\n        /* \"#utility.yul\":19390:19427   */\n      tag_407\n        /* \"#utility.yul\":19423:19426   */\n      dup3\n        /* \"#utility.yul\":19390:19427   */\n      tag_158\n      jump\t// in\n    tag_407:\n        /* \"#utility.yul\":19492:19510   */\n      0xffffffffffffffff\n        /* \"#utility.yul\":19484:19490   */\n      dup2\n        /* \"#utility.yul\":19481:19511   */\n      gt\n        /* \"#utility.yul\":19478:19534   */\n      iszero\n      tag_408\n      jumpi\n        /* \"#utility.yul\":19514:19532   */\n      tag_409\n      tag_78\n      jump\t// in\n    tag_409:\n        /* \"#utility.yul\":19478:19534   */\n    tag_408:\n        /* \"#utility.yul\":19558:19596   */\n      tag_410\n        /* \"#utility.yul\":19590:19594   */\n      dup3\n        /* \"#utility.yul\":19584:19595   */\n      sload\n        /* \"#utility.yul\":19558:19596   */\n      tag_58\n      jump\t// in\n    tag_410:\n        /* \"#utility.yul\":19643:19710   */\n      tag_411\n        /* \"#utility.yul\":19703:19709   */\n      dup3\n        /* \"#utility.yul\":19695:19701   */\n      dup3\n        /* \"#utility.yul\":19689:19693   */\n      dup6\n        /* \"#utility.yul\":19643:19710   */\n      tag_200\n      jump\t// in\n    tag_411:\n        /* \"#utility.yul\":19737:19738   */\n      0x00\n        /* \"#utility.yul\":19761:19765   */\n      0x20\n        /* \"#utility.yul\":19748:19765   */\n      swap1\n      pop\n        /* \"#utility.yul\":19793:19795   */\n      0x1f\n        /* \"#utility.yul\":19785:19791   */\n      dup4\n        /* \"#utility.yul\":19782:19796   */\n      gt\n        /* \"#utility.yul\":19810:19811   */\n      0x01\n        /* \"#utility.yul\":19805:20423   */\n      dup2\n      eq\n      tag_413\n      jumpi\n        /* \"#utility.yul\":20467:20468   */\n      0x00\n        /* \"#utility.yul\":20484:20490   */\n      dup5\n        /* \"#utility.yul\":20481:20558   */\n      iszero\n      tag_414\n      jumpi\n        /* \"#utility.yul\":20533:20542   */\n      dup3\n        /* \"#utility.yul\":20528:20531   */\n      dup8\n        /* \"#utility.yul\":20524:20543   */\n      add\n        /* \"#utility.yul\":20518:20544   */\n      mload\n        /* \"#utility.yul\":20509:20544   */\n      swap1\n      pop\n        /* \"#utility.yul\":20481:20558   */\n    tag_414:\n        /* \"#utility.yul\":20584:20651   */\n      tag_415\n        /* \"#utility.yul\":20644:20650   */\n      dup6\n        /* \"#utility.yul\":20637:20642   */\n      dup3\n        /* \"#utility.yul\":20584:20651   */\n      tag_203\n      jump\t// in\n    tag_415:\n        /* \"#utility.yul\":20578:20582   */\n      dup7\n        /* \"#utility.yul\":20571:20652   */\n      sstore\n        /* \"#utility.yul\":20440:20662   */\n      pop\n        /* \"#utility.yul\":19775:20662   */\n      jump(tag_412)\n        /* \"#utility.yul\":19805:20423   */\n    tag_413:\n        /* \"#utility.yul\":19857:19861   */\n      0x1f\n        /* \"#utility.yul\":19853:19862   */\n      not\n        /* \"#utility.yul\":19845:19851   */\n      dup5\n        /* \"#utility.yul\":19841:19863   */\n      and\n        /* \"#utility.yul\":19891:19928   */\n      tag_416\n        /* \"#utility.yul\":19923:19927   */\n      dup7\n        /* \"#utility.yul\":19891:19928   */\n      tag_189\n      jump\t// in\n    tag_416:\n        /* \"#utility.yul\":19950:19951   */\n      0x00\n        /* \"#utility.yul\":19964:20172   */\n    tag_417:\n        /* \"#utility.yul\":19978:19985   */\n      dup3\n        /* \"#utility.yul\":19975:19976   */\n      dup2\n        /* \"#utility.yul\":19972:19986   */\n      lt\n        /* \"#utility.yul\":19964:20172   */\n      iszero\n      tag_419\n      jumpi\n        /* \"#utility.yul\":20057:20066   */\n      dup5\n        /* \"#utility.yul\":20052:20055   */\n      dup10\n        /* \"#utility.yul\":20048:20067   */\n      add\n        /* \"#utility.yul\":20042:20068   */\n      mload\n        /* \"#utility.yul\":20034:20040   */\n      dup3\n        /* \"#utility.yul\":20027:20069   */\n      sstore\n        /* \"#utility.yul\":20108:20109   */\n      0x01\n        /* \"#utility.yul\":20100:20106   */\n      dup3\n        /* \"#utility.yul\":20096:20110   */\n      add\n        /* \"#utility.yul\":20086:20110   */\n      swap2\n      pop\n        /* \"#utility.yul\":20155:20157   */\n      0x20\n        /* \"#utility.yul\":20144:20153   */\n      dup6\n        /* \"#utility.yul\":20140:20158   */\n      add\n        /* \"#utility.yul\":20127:20158   */\n      swap5\n      pop\n        /* \"#utility.yul\":20001:20005   */\n      0x20\n        /* \"#utility.yul\":19998:19999   */\n      dup2\n        /* \"#utility.yul\":19994:20006   */\n      add\n        /* \"#utility.yul\":19989:20006   */\n      swap1\n      pop\n        /* \"#utility.yul\":19964:20172   */\n      jump(tag_417)\n    tag_419:\n        /* \"#utility.yul\":20200:20206   */\n      dup7\n        /* \"#utility.yul\":20191:20198   */\n      dup4\n        /* \"#utility.yul\":20188:20207   */\n      lt\n        /* \"#utility.yul\":20185:20364   */\n      iszero\n      tag_420\n      jumpi\n        /* \"#utility.yul\":20258:20267   */\n      dup5\n        /* \"#utility.yul\":20253:20256   */\n      dup10\n        /* \"#utility.yul\":20249:20268   */\n      add\n        /* \"#utility.yul\":20243:20269   */\n      mload\n        /* \"#utility.yul\":20301:20349   */\n      tag_421\n        /* \"#utility.yul\":20343:20347   */\n      0x1f\n        /* \"#utility.yul\":20335:20341   */\n      dup10\n        /* \"#utility.yul\":20331:20348   */\n      and\n        /* \"#utility.yul\":20320:20329   */\n      dup3\n        /* \"#utility.yul\":20301:20349   */\n      tag_202\n      jump\t// in\n    tag_421:\n        /* \"#utility.yul\":20293:20299   */\n      dup4\n        /* \"#utility.yul\":20286:20350   */\n      sstore\n        /* \"#utility.yul\":20208:20364   */\n      pop\n        /* \"#utility.yul\":20185:20364   */\n    tag_420:\n        /* \"#utility.yul\":20410:20411   */\n      0x01\n        /* \"#utility.yul\":20406:20407   */\n      0x02\n        /* \"#utility.yul\":20398:20404   */\n      dup9\n        /* \"#utility.yul\":20394:20408   */\n      mul\n        /* \"#utility.yul\":20390:20412   */\n      add\n        /* \"#utility.yul\":20384:20388   */\n      dup9\n        /* \"#utility.yul\":20377:20413   */\n      sstore\n        /* \"#utility.yul\":19812:20423   */\n      pop\n      pop\n      pop\n        /* \"#utility.yul\":19775:20662   */\n    tag_412:\n      pop\n        /* \"#utility.yul\":19365:20668   */\n      pop\n      pop\n      pop\n        /* \"#utility.yul\":19273:20668   */\n      pop\n      pop\n      jump\t// out\n        /* \"#utility.yul\":20674:20854   */\n    tag_88:\n        /* \"#utility.yul\":20722:20799   */\n      0x4e487b7100000000000000000000000000000000000000000000000000000000\n        /* \"#utility.yul\":20719:20720   */\n      0x00\n        /* \"#utility.yul\":20712:20800   */\n      mstore\n        /* \"#utility.yul\":20819:20823   */\n      0x32\n        /* \"#utility.yul\":20816:20817   */\n      0x04\n        /* \"#utility.yul\":20809:20824   */\n      mstore\n        /* \"#utility.yul\":20843:20847   */\n      0x24\n        /* \"#utility.yul\":20840:20841   */\n      0x00\n        /* \"#utility.yul\":20833:20848   */\n      revert\n        /* \"#utility.yul\":20860:21040   */\n    tag_204:\n        /* \"#utility.yul\":20908:20985   */\n      0x4e487b7100000000000000000000000000000000000000000000000000000000\n        /* \"#utility.yul\":20905:20906   */\n      0x00\n        /* \"#utility.yul\":20898:20986   */\n      mstore\n        /* \"#utility.yul\":21005:21009   */\n      0x11\n        /* \"#utility.yul\":21002:21003   */\n      0x04\n        /* \"#utility.yul\":20995:21010   */\n      mstore\n        /* \"#utility.yul\":21029:21033   */\n      0x24\n        /* \"#utility.yul\":21026:21027   */\n      0x00\n        /* \"#utility.yul\":21019:21034   */\n      revert\n        /* \"#utility.yul\":21046:21279   */\n    tag_94:\n        /* \"#utility.yul\":21085:21088   */\n      0x00\n        /* \"#utility.yul\":21108:21132   */\n      tag_425\n        /* \"#utility.yul\":21126:21131   */\n      dup3\n        /* \"#utility.yul\":21108:21132   */\n      tag_154\n      jump\t// in\n    tag_425:\n        /* \"#utility.yul\":21099:21132   */\n      swap2\n      pop\n        /* \"#utility.yul\":21154:21220   */\n      0xffffffffffffffffffffffffffffffffffffffffffffffffffffffffffffffff\n        /* \"#utility.yul\":21147:21152   */\n      dup3\n        /* \"#utility.yul\":21144:21221   */\n      sub\n        /* \"#utility.yul\":21141:21244   */\n      tag_426\n      jumpi\n        /* \"#utility.yul\":21224:21242   */\n      tag_427\n      tag_204\n      jump\t// in\n    tag_427:\n        /* \"#utility.yul\":21141:21244   */\n    tag_426:\n        /* \"#utility.yul\":21271:21272   */\n      0x01\n        /* \"#utility.yul\":21264:21269   */\n      dup3\n        /* \"#utility.yul\":21260:21273   */\n      add\n        /* \"#utility.yul\":21253:21273   */\n      swap1\n      pop\n        /* \"#utility.yul\":21046:21279   */\n      swap2\n      swap1\n      pop\n      jump\t// out\n\n    auxdata: 0xa2646970667358221220e4876c4c1ff39d8c14065eef34736a914ff444174763b521d611b571cf3d7a6f64736f6c63430008140033\n}\n",
				"bytecode": {
					"linkReferences": {},
					"object": "608060405234801561000f575f80fd5b50335f806101000a81548173ffffffffffffffffffffffffffffffffffffffff021916908373ffffffffffffffffffffffffffffffffffffffff16021790555061162a8061005c5f395ff3fe608060405234801561000f575f80fd5b5060043610610091575f3560e01c80639eea24d8116100645780639eea24d814610134578063b9fff11b14610164578063c85e766d14610196578063ee73a541146101ca578063f0206d20146101fa57610091565b80636efb1b84146100955780638d7baa61146100c85780638da5cb5b146100e457806393119a8314610102575b5f80fd5b6100af60048036038101906100aa9190610b27565b610216565b6040516100bf9493929190610beb565b60405180910390f35b6100e260048036038101906100dd9190610e51565b6103d4565b005b6100ec610501565b6040516100f99190610f2c565b60405180910390f35b61011c60048036038101906101179190610b27565b610524565b60405161012b93929190610f45565b60405180910390f35b61014e60048036038101906101499190610fab565b6105d0565b60405161015b9190610f2c565b60405180910390f35b61017e60048036038101906101799190610b27565b610600565b60405161018d939291906110d9565b60405180910390f35b6101b060048036038101906101ab9190610b27565b6107a7565b6040516101c195949392919061111c565b60405180910390f35b6101e460048036038101906101df919061117b565b6108e5565b6040516101f191906111b9565b60405180910390f35b610214600480360381019061020f91906111d2565b610910565b005b6001602052805f5260405f205f91509050805f01549080600101805461023b906112b7565b80601f0160208091040260200160405190810160405280929190818152602001828054610267906112b7565b80156102b25780601f10610289576101008083540402835291602001916102b2565b820191905f5260205f20905b81548152906001019060200180831161029557829003601f168201915b5050505050908060020180546102c7906112b7565b80601f01602080910402602001604051908101604052809291908181526020018280546102f3906112b7565b801561033e5780601f106103155761010080835404028352916020019161033e565b820191905f5260205f20905b81548152906001019060200180831161032157829003601f168201915b505050505090806003018054610353906112b7565b80601f016020809104026020016040519081016040528092919081815260200182805461037f906112b7565b80156103ca5780601f106103a1576101008083540402835291602001916103ca565b820191905f5260205f20905b8154815290600101906020018083116103ad57829003601f168201915b5050505050905084565b8260025f8681526020019081526020015f2060010190816103f59190611484565b508160025f8681526020019081526020015f2060020181905550805167ffffffffffffffff81111561042a57610429610c4b565b5b60405190808252806020026020018201604052801561045d57816020015b60608152602001906001900390816104485790505b5060025f8681526020019081526020015f206003019080519060200190610485929190610a11565b505f5b81518110156104fa578181815181106104a4576104a3611553565b5b602002602001015160025f8781526020019081526020015f2060030182815481106104d2576104d1611553565b5b905f5260205f200190816104e69190611484565b5080806104f2906115ad565b915050610488565b5050505050565b5f8054906101000a900473ffffffffffffffffffffffffffffffffffffffff1681565b6002602052805f5260405f205f91509050805f015490806001018054610549906112b7565b80601f0160208091040260200160405190810160405280929190818152602001828054610575906112b7565b80156105c05780601f10610597576101008083540402835291602001916105c0565b820191905f5260205f20905b8154815290600101906020018083116105a357829003601f168201915b5050505050908060020154905083565b6004602052805f5260405f205f915054906101000a900473ffffffffffffffffffffffffffffffffffffffff1681565b60605f606060025f8581526020019081526020015f2060010160025f8681526020019081526020015f206002015460025f8781526020019081526020015f2060030182805461064e906112b7565b80601f016020809104026020016040519081016040528092919081815260200182805461067a906112b7565b80156106c55780601f1061069c576101008083540402835291602001916106c5565b820191905f5260205f20905b8154815290600101906020018083116106a857829003601f168201915b5050505050925080805480602002602001604051908101604052809291908181526020015f905b82821015610794578382905f5260205f20018054610709906112b7565b80601f0160208091040260200160405190810160405280929190818152602001828054610735906112b7565b80156107805780601f1061075757610100808354040283529160200191610780565b820191905f5260205f20905b81548152906001019060200180831161076357829003601f168201915b5050505050815260200190600101906106ec565b5050505090509250925092509193909250565b6003602052805f5260405f205f91509050805f0154908060010180546107cc906112b7565b80601f01602080910402602001604051908101604052809291908181526020018280546107f8906112b7565b80156108435780601f1061081a57610100808354040283529160200191610843565b820191905f5260205f20905b81548152906001019060200180831161082657829003601f168201915b505050505090806002018054610858906112b7565b80601f0160208091040260200160405190810160405280929190818152602001828054610884906112b7565b80156108cf5780601f106108a6576101008083540402835291602001916108cf565b820191905f5260205f20905b8154815290600101906020018083116108b257829003601f168201915b5050505050908060030154908060040154905085565b6005602052815f5260405f2081815481106108fe575f80fd5b905f5260205f20015f91509150505481565b8260015f8681526020019081526020015f2060010190816109319190611484565b508160015f8681526020019081526020015f2060020190816109539190611484565b508060015f8681526020019081526020015f2060010190816109759190611484565b506006604051806080016040528086815260200185815260200184815260200183815250908060018154018082558091505060019003905f5260205f2090600402015f909190919091505f820151815f015560208201518160010190816109dc9190611484565b5060408201518160020190816109f29190611484565b506060820151816003019081610a089190611484565b50505050505050565b828054828255905f5260205f20908101928215610a57579160200282015b82811115610a56578251829081610a469190611484565b5091602001919060010190610a2f565b5b509050610a649190610a68565b5090565b5b80821115610a87575f8181610a7e9190610a8b565b50600101610a69565b5090565b508054610a97906112b7565b5f825580601f10610aa85750610ac5565b601f0160209004905f5260205f2090810190610ac49190610ac8565b5b50565b5b80821115610adf575f815f905550600101610ac9565b5090565b5f604051905090565b5f80fd5b5f80fd5b5f819050919050565b610b0681610af4565b8114610b10575f80fd5b50565b5f81359050610b2181610afd565b92915050565b5f60208284031215610b3c57610b3b610aec565b5b5f610b4984828501610b13565b91505092915050565b610b5b81610af4565b82525050565b5f81519050919050565b5f82825260208201905092915050565b5f5b83811015610b98578082015181840152602081019050610b7d565b5f8484015250505050565b5f601f19601f8301169050919050565b5f610bbd82610b61565b610bc78185610b6b565b9350610bd7818560208601610b7b565b610be081610ba3565b840191505092915050565b5f608082019050610bfe5f830187610b52565b8181036020830152610c108186610bb3565b90508181036040830152610c248185610bb3565b90508181036060830152610c388184610bb3565b905095945050505050565b5f80fd5b5f80fd5b7f4e487b71000000000000000000000000000000000000000000000000000000005f52604160045260245ffd5b610c8182610ba3565b810181811067ffffffffffffffff82111715610ca057610c9f610c4b565b5b80604052505050565b5f610cb2610ae3565b9050610cbe8282610c78565b919050565b5f67ffffffffffffffff821115610cdd57610cdc610c4b565b5b610ce682610ba3565b9050602081019050919050565b828183375f83830152505050565b5f610d13610d0e84610cc3565b610ca9565b905082815260208101848484011115610d2f57610d2e610c47565b5b610d3a848285610cf3565b509392505050565b5f82601f830112610d5657610d55610c43565b5b8135610d66848260208601610d01565b91505092915050565b5f67ffffffffffffffff821115610d8957610d88610c4b565b5b602082029050602081019050919050565b5f80fd5b5f610db0610dab84610d6f565b610ca9565b90508083825260208201905060208402830185811115610dd357610dd2610d9a565b5b835b81811015610e1a57803567ffffffffffffffff811115610df857610df7610c43565b5b808601610e058982610d42565b85526020850194505050602081019050610dd5565b5050509392505050565b5f82601f830112610e3857610e37610c43565b5b8135610e48848260208601610d9e565b91505092915050565b5f805f8060808587031215610e6957610e68610aec565b5b5f610e7687828801610b13565b945050602085013567ffffffffffffffff811115610e9757610e96610af0565b5b610ea387828801610d42565b9350506040610eb487828801610b13565b925050606085013567ffffffffffffffff811115610ed557610ed4610af0565b5b610ee187828801610e24565b91505092959194509250565b5f73ffffffffffffffffffffffffffffffffffffffff82169050919050565b5f610f1682610eed565b9050919050565b610f2681610f0c565b82525050565b5f602082019050610f3f5f830184610f1d565b92915050565b5f606082019050610f585f830186610b52565b8181036020830152610f6a8185610bb3565b9050610f796040830184610b52565b949350505050565b610f8a81610f0c565b8114610f94575f80fd5b50565b5f81359050610fa581610f81565b92915050565b5f60208284031215610fc057610fbf610aec565b5b5f610fcd84828501610f97565b91505092915050565b5f81519050919050565b5f82825260208201905092915050565b5f819050602082019050919050565b5f82825260208201905092915050565b5f61101982610b61565b6110238185610fff565b9350611033818560208601610b7b565b61103c81610ba3565b840191505092915050565b5f611052838361100f565b905092915050565b5f602082019050919050565b5f61107082610fd6565b61107a8185610fe0565b93508360208202850161108c85610ff0565b805f5b858110156110c757848403895281516110a88582611047565b94506110b38361105a565b925060208a0199505060018101905061108f565b50829750879550505050505092915050565b5f6060820190508181035f8301526110f18186610bb3565b90506111006020830185610b52565b81810360408301526111128184611066565b9050949350505050565b5f60a08201905061112f5f830188610b52565b81810360208301526111418187610bb3565b905081810360408301526111558186610bb3565b90506111646060830185610b52565b6111716080830184610b52565b9695505050505050565b5f806040838503121561119157611190610aec565b5b5f61119e85828601610f97565b92505060206111af85828601610b13565b9150509250929050565b5f6020820190506111cc5f830184610b52565b92915050565b5f805f80608085870312156111ea576111e9610aec565b5b5f6111f787828801610b13565b945050602085013567ffffffffffffffff81111561121857611217610af0565b5b61122487828801610d42565b935050604085013567ffffffffffffffff81111561124557611244610af0565b5b61125187828801610d42565b925050606085013567ffffffffffffffff81111561127257611271610af0565b5b61127e87828801610d42565b91505092959194509250565b7f4e487b71000000000000000000000000000000000000000000000000000000005f52602260045260245ffd5b5f60028204905060018216806112ce57607f821691505b6020821081036112e1576112e061128a565b5b50919050565b5f819050815f5260205f209050919050565b5f6020601f8301049050919050565b5f82821b905092915050565b5f600883026113437fffffffffffffffffffffffffffffffffffffffffffffffffffffffffffffffff82611308565b61134d8683611308565b95508019841693508086168417925050509392505050565b5f819050919050565b5f61138861138361137e84610af4565b611365565b610af4565b9050919050565b5f819050919050565b6113a18361136e565b6113b56113ad8261138f565b848454611314565b825550505050565b5f90565b6113c96113bd565b6113d4818484611398565b505050565b5b818110156113f7576113ec5f826113c1565b6001810190506113da565b5050565b601f82111561143c5761140d816112e7565b611416846112f9565b81016020851015611425578190505b611439611431856112f9565b8301826113d9565b50505b505050565b5f82821c905092915050565b5f61145c5f1984600802611441565b1980831691505092915050565b5f611474838361144d565b9150826002028217905092915050565b61148d82610b61565b67ffffffffffffffff8111156114a6576114a5610c4b565b5b6114b082546112b7565b6114bb8282856113fb565b5f60209050601f8311600181146114ec575f84156114da578287015190505b6114e48582611469565b86555061154b565b601f1984166114fa866112e7565b5f5b82811015611521578489015182556001820191506020850194506020810190506114fc565b8683101561153e578489015161153a601f89168261144d565b8355505b6001600288020188555050505b505050505050565b7f4e487b71000000000000000000000000000000000000000000000000000000005f52603260045260245ffd5b7f4e487b71000000000000000000000000000000000000000000000000000000005f52601160045260245ffd5b5f6115b782610af4565b91507fffffffffffffffffffffffffffffffffffffffffffffffffffffffffffffffff82036115e9576115e8611580565b5b60018201905091905056fea2646970667358221220e4876c4c1ff39d8c14065eef34736a914ff444174763b521d611b571cf3d7a6f64736f6c63430008140033",
					"opcodes": "PUSH1 0x80 PUSH1 0x40 MSTORE CALLVALUE DUP1 ISZERO PUSH2 0xF JUMPI PUSH0 DUP1 REVERT JUMPDEST POP CALLER PUSH0 DUP1 PUSH2 0x100 EXP DUP2 SLOAD DUP2 PUSH20 0xFFFFFFFFFFFFFFFFFFFFFFFFFFFFFFFFFFFFFFFF MUL NOT AND SWAP1 DUP4 PUSH20 0xFFFFFFFFFFFFFFFFFFFFFFFFFFFFFFFFFFFFFFFF AND MUL OR SWAP1 SSTORE POP PUSH2 0x162A DUP1 PUSH2 0x5C PUSH0 CODECOPY PUSH0 RETURN INVALID PUSH1 0x80 PUSH1 0x40 MSTORE CALLVALUE DUP1 ISZERO PUSH2 0xF JUMPI PUSH0 DUP1 REVERT JUMPDEST POP PUSH1 0x4 CALLDATASIZE LT PUSH2 0x91 JUMPI PUSH0 CALLDATALOAD PUSH1 0xE0 SHR DUP1 PUSH4 0x9EEA24D8 GT PUSH2 0x64 JUMPI DUP1 PUSH4 0x9EEA24D8 EQ PUSH2 0x134 JUMPI DUP1 PUSH4 0xB9FFF11B EQ PUSH2 0x164 JUMPI DUP1 PUSH4 0xC85E766D EQ PUSH2 0x196 JUMPI DUP1 PUSH4 0xEE73A541 EQ PUSH2 0x1CA JUMPI DUP1 PUSH4 0xF0206D20 EQ PUSH2 0x1FA JUMPI PUSH2 0x91 JUMP JUMPDEST DUP1 PUSH4 0x6EFB1B84 EQ PUSH2 0x95 JUMPI DUP1 PUSH4 0x8D7BAA61 EQ PUSH2 0xC8 JUMPI DUP1 PUSH4 0x8DA5CB5B EQ PUSH2 0xE4 JUMPI DUP1 PUSH4 0x93119A83 EQ PUSH2 0x102 JUMPI JUMPDEST PUSH0 DUP1 REVERT JUMPDEST PUSH2 0xAF PUSH1 0x4 DUP1 CALLDATASIZE SUB DUP2 ADD SWAP1 PUSH2 0xAA SWAP2 SWAP1 PUSH2 0xB27 JUMP JUMPDEST PUSH2 0x216 JUMP JUMPDEST PUSH1 0x40 MLOAD PUSH2 0xBF SWAP5 SWAP4 SWAP3 SWAP2 SWAP1 PUSH2 0xBEB JUMP JUMPDEST PUSH1 0x40 MLOAD DUP1 SWAP2 SUB SWAP1 RETURN JUMPDEST PUSH2 0xE2 PUSH1 0x4 DUP1 CALLDATASIZE SUB DUP2 ADD SWAP1 PUSH2 0xDD SWAP2 SWAP1 PUSH2 0xE51 JUMP JUMPDEST PUSH2 0x3D4 JUMP JUMPDEST STOP JUMPDEST PUSH2 0xEC PUSH2 0x501 JUMP JUMPDEST PUSH1 0x40 MLOAD PUSH2 0xF9 SWAP2 SWAP1 PUSH2 0xF2C JUMP JUMPDEST PUSH1 0x40 MLOAD DUP1 SWAP2 SUB SWAP1 RETURN JUMPDEST PUSH2 0x11C PUSH1 0x4 DUP1 CALLDATASIZE SUB DUP2 ADD SWAP1 PUSH2 0x117 SWAP2 SWAP1 PUSH2 0xB27 JUMP JUMPDEST PUSH2 0x524 JUMP JUMPDEST PUSH1 0x40 MLOAD PUSH2 0x12B SWAP4 SWAP3 SWAP2 SWAP1 PUSH2 0xF45 JUMP JUMPDEST PUSH1 0x40 MLOAD DUP1 SWAP2 SUB SWAP1 RETURN JUMPDEST PUSH2 0x14E PUSH1 0x4 DUP1 CALLDATASIZE SUB DUP2 ADD SWAP1 PUSH2 0x149 SWAP2 SWAP1 PUSH2 0xFAB JUMP JUMPDEST PUSH2 0x5D0 JUMP JUMPDEST PUSH1 0x40 MLOAD PUSH2 0x15B SWAP2 SWAP1 PUSH2 0xF2C JUMP JUMPDEST PUSH1 0x40 MLOAD DUP1 SWAP2 SUB SWAP1 RETURN JUMPDEST PUSH2 0x17E PUSH1 0x4 DUP1 CALLDATASIZE SUB DUP2 ADD SWAP1 PUSH2 0x179 SWAP2 SWAP1 PUSH2 0xB27 JUMP JUMPDEST PUSH2 0x600 JUMP JUMPDEST PUSH1 0x40 MLOAD PUSH2 0x18D SWAP4 SWAP3 SWAP2 SWAP1 PUSH2 0x10D9 JUMP JUMPDEST PUSH1 0x40 MLOAD DUP1 SWAP2 SUB SWAP1 RETURN JUMPDEST PUSH2 0x1B0 PUSH1 0x4 DUP1 CALLDATASIZE SUB DUP2 ADD SWAP1 PUSH2 0x1AB SWAP2 SWAP1 PUSH2 0xB27 JUMP JUMPDEST PUSH2 0x7A7 JUMP JUMPDEST PUSH1 0x40 MLOAD PUSH2 0x1C1 SWAP6 SWAP5 SWAP4 SWAP3 SWAP2 SWAP1 PUSH2 0x111C JUMP JUMPDEST PUSH1 0x40 MLOAD DUP1 SWAP2 SUB SWAP1 RETURN JUMPDEST PUSH2 0x1E4 PUSH1 0x4 DUP1 CALLDATASIZE SUB DUP2 ADD SWAP1 PUSH2 0x1DF SWAP2 SWAP1 PUSH2 0x117B JUMP JUMPDEST PUSH2 0x8E5 JUMP JUMPDEST PUSH1 0x40 MLOAD PUSH2 0x1F1 SWAP2 SWAP1 PUSH2 0x11B9 JUMP JUMPDEST PUSH1 0x40 MLOAD DUP1 SWAP2 SUB SWAP1 RETURN JUMPDEST PUSH2 0x214 PUSH1 0x4 DUP1 CALLDATASIZE SUB DUP2 ADD SWAP1 PUSH2 0x20F SWAP2 SWAP1 PUSH2 0x11D2 JUMP JUMPDEST PUSH2 0x910 JUMP JUMPDEST STOP JUMPDEST PUSH1 0x1 PUSH1 0x20 MSTORE DUP1 PUSH0 MSTORE PUSH1 0x40 PUSH0 KECCAK256 PUSH0 SWAP2 POP SWAP1 POP DUP1 PUSH0 ADD SLOAD SWAP1 DUP1 PUSH1 0x1 ADD DUP1 SLOAD PUSH2 0x23B SWAP1 PUSH2 0x12B7 JUMP JUMPDEST DUP1 PUSH1 0x1F ADD PUSH1 0x20 DUP1 SWAP2 DIV MUL PUSH1 0x20 ADD PUSH1 0x40 MLOAD SWAP1 DUP2 ADD PUSH1 0x40 MSTORE DUP1 SWAP3 SWAP2 SWAP1 DUP2 DUP2 MSTORE PUSH1 0x20 ADD DUP3 DUP1 SLOAD PUSH2 0x267 SWAP1 PUSH2 0x12B7 JUMP JUMPDEST DUP1 ISZERO PUSH2 0x2B2 JUMPI DUP1 PUSH1 0x1F LT PUSH2 0x289 JUMPI PUSH2 0x100 DUP1 DUP4 SLOAD DIV MUL DUP4 MSTORE SWAP2 PUSH1 0x20 ADD SWAP2 PUSH2 0x2B2 JUMP JUMPDEST DUP3 ADD SWAP2 SWAP1 PUSH0 MSTORE PUSH1 0x20 PUSH0 KECCAK256 SWAP1 JUMPDEST DUP2 SLOAD DUP2 MSTORE SWAP1 PUSH1 0x1 ADD SWAP1 PUSH1 0x20 ADD DUP1 DUP4 GT PUSH2 0x295 JUMPI DUP3 SWAP1 SUB PUSH1 0x1F AND DUP3 ADD SWAP2 JUMPDEST POP POP POP POP POP SWAP1 DUP1 PUSH1 0x2 ADD DUP1 SLOAD PUSH2 0x2C7 SWAP1 PUSH2 0x12B7 JUMP JUMPDEST DUP1 PUSH1 0x1F ADD PUSH1 0x20 DUP1 SWAP2 DIV MUL PUSH1 0x20 ADD PUSH1 0x40 MLOAD SWAP1 DUP2 ADD PUSH1 0x40 MSTORE DUP1 SWAP3 SWAP2 SWAP1 DUP2 DUP2 MSTORE PUSH1 0x20 ADD DUP3 DUP1 SLOAD PUSH2 0x2F3 SWAP1 PUSH2 0x12B7 JUMP JUMPDEST DUP1 ISZERO PUSH2 0x33E JUMPI DUP1 PUSH1 0x1F LT PUSH2 0x315 JUMPI PUSH2 0x100 DUP1 DUP4 SLOAD DIV MUL DUP4 MSTORE SWAP2 PUSH1 0x20 ADD SWAP2 PUSH2 0x33E JUMP JUMPDEST DUP3 ADD SWAP2 SWAP1 PUSH0 MSTORE PUSH1 0x20 PUSH0 KECCAK256 SWAP1 JUMPDEST DUP2 SLOAD DUP2 MSTORE SWAP1 PUSH1 0x1 ADD SWAP1 PUSH1 0x20 ADD DUP1 DUP4 GT PUSH2 0x321 JUMPI DUP3 SWAP1 SUB PUSH1 0x1F AND DUP3 ADD SWAP2 JUMPDEST POP POP POP POP POP SWAP1 DUP1 PUSH1 0x3 ADD DUP1 SLOAD PUSH2 0x353 SWAP1 PUSH2 0x12B7 JUMP JUMPDEST DUP1 PUSH1 0x1F ADD PUSH1 0x20 DUP1 SWAP2 DIV MUL PUSH1 0x20 ADD PUSH1 0x40 MLOAD SWAP1 DUP2 ADD PUSH1 0x40 MSTORE DUP1 SWAP3 SWAP2 SWAP1 DUP2 DUP2 MSTORE PUSH1 0x20 ADD DUP3 DUP1 SLOAD PUSH2 0x37F SWAP1 PUSH2 0x12B7 JUMP JUMPDEST DUP1 ISZERO PUSH2 0x3CA JUMPI DUP1 PUSH1 0x1F LT PUSH2 0x3A1 JUMPI PUSH2 0x100 DUP1 DUP4 SLOAD DIV MUL DUP4 MSTORE SWAP2 PUSH1 0x20 ADD SWAP2 PUSH2 0x3CA JUMP JUMPDEST DUP3 ADD SWAP2 SWAP1 PUSH0 MSTORE PUSH1 0x20 PUSH0 KECCAK256 SWAP1 JUMPDEST DUP2 SLOAD DUP2 MSTORE SWAP1 PUSH1 0x1 ADD SWAP1 PUSH1 0x20 ADD DUP1 DUP4 GT PUSH2 0x3AD JUMPI DUP3 SWAP1 SUB PUSH1 0x1F AND DUP3 ADD SWAP2 JUMPDEST POP POP POP POP POP SWAP1 POP DUP5 JUMP JUMPDEST DUP3 PUSH1 0x2 PUSH0 DUP7 DUP2 MSTORE PUSH1 0x20 ADD SWAP1 DUP2 MSTORE PUSH1 0x20 ADD PUSH0 KECCAK256 PUSH1 0x1 ADD SWAP1 DUP2 PUSH2 0x3F5 SWAP2 SWAP1 PUSH2 0x1484 JUMP JUMPDEST POP DUP2 PUSH1 0x2 PUSH0 DUP7 DUP2 MSTORE PUSH1 0x20 ADD SWAP1 DUP2 MSTORE PUSH1 0x20 ADD PUSH0 KECCAK256 PUSH1 0x2 ADD DUP2 SWAP1 SSTORE POP DUP1 MLOAD PUSH8 0xFFFFFFFFFFFFFFFF DUP2 GT ISZERO PUSH2 0x42A JUMPI PUSH2 0x429 PUSH2 0xC4B JUMP JUMPDEST JUMPDEST PUSH1 0x40 MLOAD SWAP1 DUP1 DUP3 MSTORE DUP1 PUSH1 0x20 MUL PUSH1 0x20 ADD DUP3 ADD PUSH1 0x40 MSTORE DUP1 ISZERO PUSH2 0x45D JUMPI DUP2 PUSH1 0x20 ADD JUMPDEST PUSH1 0x60 DUP2 MSTORE PUSH1 0x20 ADD SWAP1 PUSH1 0x1 SWAP1 SUB SWAP1 DUP2 PUSH2 0x448 JUMPI SWAP1 POP JUMPDEST POP PUSH1 0x2 PUSH0 DUP7 DUP2 MSTORE PUSH1 0x20 ADD SWAP1 DUP2 MSTORE PUSH1 0x20 ADD PUSH0 KECCAK256 PUSH1 0x3 ADD SWAP1 DUP1 MLOAD SWAP1 PUSH1 0x20 ADD SWAP1 PUSH2 0x485 SWAP3 SWAP2 SWAP1 PUSH2 0xA11 JUMP JUMPDEST POP PUSH0 JUMPDEST DUP2 MLOAD DUP2 LT ISZERO PUSH2 0x4FA JUMPI DUP2 DUP2 DUP2 MLOAD DUP2 LT PUSH2 0x4A4 JUMPI PUSH2 0x4A3 PUSH2 0x1553 JUMP JUMPDEST JUMPDEST PUSH1 0x20 MUL PUSH1 0x20 ADD ADD MLOAD PUSH1 0x2 PUSH0 DUP8 DUP2 MSTORE PUSH1 0x20 ADD SWAP1 DUP2 MSTORE PUSH1 0x20 ADD PUSH0 KECCAK256 PUSH1 0x3 ADD DUP3 DUP2 SLOAD DUP2 LT PUSH2 0x4D2 JUMPI PUSH2 0x4D1 PUSH2 0x1553 JUMP JUMPDEST JUMPDEST SWAP1 PUSH0 MSTORE PUSH1 0x20 PUSH0 KECCAK256 ADD SWAP1 DUP2 PUSH2 0x4E6 SWAP2 SWAP1 PUSH2 0x1484 JUMP JUMPDEST POP DUP1 DUP1 PUSH2 0x4F2 SWAP1 PUSH2 0x15AD JUMP JUMPDEST SWAP2 POP POP PUSH2 0x488 JUMP JUMPDEST POP POP POP POP POP JUMP JUMPDEST PUSH0 DUP1 SLOAD SWAP1 PUSH2 0x100 EXP SWAP1 DIV PUSH20 0xFFFFFFFFFFFFFFFFFFFFFFFFFFFFFFFFFFFFFFFF AND DUP2 JUMP JUMPDEST PUSH1 0x2 PUSH1 0x20 MSTORE DUP1 PUSH0 MSTORE PUSH1 0x40 PUSH0 KECCAK256 PUSH0 SWAP2 POP SWAP1 POP DUP1 PUSH0 ADD SLOAD SWAP1 DUP1 PUSH1 0x1 ADD DUP1 SLOAD PUSH2 0x549 SWAP1 PUSH2 0x12B7 JUMP JUMPDEST DUP1 PUSH1 0x1F ADD PUSH1 0x20 DUP1 SWAP2 DIV MUL PUSH1 0x20 ADD PUSH1 0x40 MLOAD SWAP1 DUP2 ADD PUSH1 0x40 MSTORE DUP1 SWAP3 SWAP2 SWAP1 DUP2 DUP2 MSTORE PUSH1 0x20 ADD DUP3 DUP1 SLOAD PUSH2 0x575 SWAP1 PUSH2 0x12B7 JUMP JUMPDEST DUP1 ISZERO PUSH2 0x5C0 JUMPI DUP1 PUSH1 0x1F LT PUSH2 0x597 JUMPI PUSH2 0x100 DUP1 DUP4 SLOAD DIV MUL DUP4 MSTORE SWAP2 PUSH1 0x20 ADD SWAP2 PUSH2 0x5C0 JUMP JUMPDEST DUP3 ADD SWAP2 SWAP1 PUSH0 MSTORE PUSH1 0x20 PUSH0 KECCAK256 SWAP1 JUMPDEST DUP2 SLOAD DUP2 MSTORE SWAP1 PUSH1 0x1 ADD SWAP1 PUSH1 0x20 ADD DUP1 DUP4 GT PUSH2 0x5A3 JUMPI DUP3 SWAP1 SUB PUSH1 0x1F AND DUP3 ADD SWAP2 JUMPDEST POP POP POP POP POP SWAP1 DUP1 PUSH1 0x2 ADD SLOAD SWAP1 POP DUP4 JUMP JUMPDEST PUSH1 0x4 PUSH1 0x20 MSTORE DUP1 PUSH0 MSTORE PUSH1 0x40 PUSH0 KECCAK256 PUSH0 SWAP2 POP SLOAD SWAP1 PUSH2 0x100 EXP SWAP1 DIV PUSH20 0xFFFFFFFFFFFFFFFFFFFFFFFFFFFFFFFFFFFFFFFF AND DUP2 JUMP JUMPDEST PUSH1 0x60 PUSH0 PUSH1 0x60 PUSH1 0x2 PUSH0 DUP6 DUP2 MSTORE PUSH1 0x20 ADD SWAP1 DUP2 MSTORE PUSH1 0x20 ADD PUSH0 KECCAK256 PUSH1 0x1 ADD PUSH1 0x2 PUSH0 DUP7 DUP2 MSTORE PUSH1 0x20 ADD SWAP1 DUP2 MSTORE PUSH1 0x20 ADD PUSH0 KECCAK256 PUSH1 0x2 ADD SLOAD PUSH1 0x2 PUSH0 DUP8 DUP2 MSTORE PUSH1 0x20 ADD SWAP1 DUP2 MSTORE PUSH1 0x20 ADD PUSH0 KECCAK256 PUSH1 0x3 ADD DUP3 DUP1 SLOAD PUSH2 0x64E SWAP1 PUSH2 0x12B7 JUMP JUMPDEST DUP1 PUSH1 0x1F ADD PUSH1 0x20 DUP1 SWAP2 DIV MUL PUSH1 0x20 ADD PUSH1 0x40 MLOAD SWAP1 DUP2 ADD PUSH1 0x40 MSTORE DUP1 SWAP3 SWAP2 SWAP1 DUP2 DUP2 MSTORE PUSH1 0x20 ADD DUP3 DUP1 SLOAD PUSH2 0x67A SWAP1 PUSH2 0x12B7 JUMP JUMPDEST DUP1 ISZERO PUSH2 0x6C5 JUMPI DUP1 PUSH1 0x1F LT PUSH2 0x69C JUMPI PUSH2 0x100 DUP1 DUP4 SLOAD DIV MUL DUP4 MSTORE SWAP2 PUSH1 0x20 ADD SWAP2 PUSH2 0x6C5 JUMP JUMPDEST DUP3 ADD SWAP2 SWAP1 PUSH0 MSTORE PUSH1 0x20 PUSH0 KECCAK256 SWAP1 JUMPDEST DUP2 SLOAD DUP2 MSTORE SWAP1 PUSH1 0x1 ADD SWAP1 PUSH1 0x20 ADD DUP1 DUP4 GT PUSH2 0x6A8 JUMPI DUP3 SWAP1 SUB PUSH1 0x1F AND DUP3 ADD SWAP2 JUMPDEST POP POP POP POP POP SWAP3 POP DUP1 DUP1 SLOAD DUP1 PUSH1 0x20 MUL PUSH1 0x20 ADD PUSH1 0x40 MLOAD SWAP1 DUP2 ADD PUSH1 0x40 MSTORE DUP1 SWAP3 SWAP2 SWAP1 DUP2 DUP2 MSTORE PUSH1 0x20 ADD PUSH0 SWAP1 JUMPDEST DUP3 DUP3 LT ISZERO PUSH2 0x794 JUMPI DUP4 DUP3 SWAP1 PUSH0 MSTORE PUSH1 0x20 PUSH0 KECCAK256 ADD DUP1 SLOAD PUSH2 0x709 SWAP1 PUSH2 0x12B7 JUMP JUMPDEST DUP1 PUSH1 0x1F ADD PUSH1 0x20 DUP1 SWAP2 DIV MUL PUSH1 0x20 ADD PUSH1 0x40 MLOAD SWAP1 DUP2 ADD PUSH1 0x40 MSTORE DUP1 SWAP3 SWAP2 SWAP1 DUP2 DUP2 MSTORE PUSH1 0x20 ADD DUP3 DUP1 SLOAD PUSH2 0x735 SWAP1 PUSH2 0x12B7 JUMP JUMPDEST DUP1 ISZERO PUSH2 0x780 JUMPI DUP1 PUSH1 0x1F LT PUSH2 0x757 JUMPI PUSH2 0x100 DUP1 DUP4 SLOAD DIV MUL DUP4 MSTORE SWAP2 PUSH1 0x20 ADD SWAP2 PUSH2 0x780 JUMP JUMPDEST DUP3 ADD SWAP2 SWAP1 PUSH0 MSTORE PUSH1 0x20 PUSH0 KECCAK256 SWAP1 JUMPDEST DUP2 SLOAD DUP2 MSTORE SWAP1 PUSH1 0x1 ADD SWAP1 PUSH1 0x20 ADD DUP1 DUP4 GT PUSH2 0x763 JUMPI DUP3 SWAP1 SUB PUSH1 0x1F AND DUP3 ADD SWAP2 JUMPDEST POP POP POP POP POP DUP2 MSTORE PUSH1 0x20 ADD SWAP1 PUSH1 0x1 ADD SWAP1 PUSH2 0x6EC JUMP JUMPDEST POP POP POP POP SWAP1 POP SWAP3 POP SWAP3 POP SWAP3 POP SWAP2 SWAP4 SWAP1 SWAP3 POP JUMP JUMPDEST PUSH1 0x3 PUSH1 0x20 MSTORE DUP1 PUSH0 MSTORE PUSH1 0x40 PUSH0 KECCAK256 PUSH0 SWAP2 POP SWAP1 POP DUP1 PUSH0 ADD SLOAD SWAP1 DUP1 PUSH1 0x1 ADD DUP1 SLOAD PUSH2 0x7CC SWAP1 PUSH2 0x12B7 JUMP JUMPDEST DUP1 PUSH1 0x1F ADD PUSH1 0x20 DUP1 SWAP2 DIV MUL PUSH1 0x20 ADD PUSH1 0x40 MLOAD SWAP1 DUP2 ADD PUSH1 0x40 MSTORE DUP1 SWAP3 SWAP2 SWAP1 DUP2 DUP2 MSTORE PUSH1 0x20 ADD DUP3 DUP1 SLOAD PUSH2 0x7F8 SWAP1 PUSH2 0x12B7 JUMP JUMPDEST DUP1 ISZERO PUSH2 0x843 JUMPI DUP1 PUSH1 0x1F LT PUSH2 0x81A JUMPI PUSH2 0x100 DUP1 DUP4 SLOAD DIV MUL DUP4 MSTORE SWAP2 PUSH1 0x20 ADD SWAP2 PUSH2 0x843 JUMP JUMPDEST DUP3 ADD SWAP2 SWAP1 PUSH0 MSTORE PUSH1 0x20 PUSH0 KECCAK256 SWAP1 JUMPDEST DUP2 SLOAD DUP2 MSTORE SWAP1 PUSH1 0x1 ADD SWAP1 PUSH1 0x20 ADD DUP1 DUP4 GT PUSH2 0x826 JUMPI DUP3 SWAP1 SUB PUSH1 0x1F AND DUP3 ADD SWAP2 JUMPDEST POP POP POP POP POP SWAP1 DUP1 PUSH1 0x2 ADD DUP1 SLOAD PUSH2 0x858 SWAP1 PUSH2 0x12B7 JUMP JUMPDEST DUP1 PUSH1 0x1F ADD PUSH1 0x20 DUP1 SWAP2 DIV MUL PUSH1 0x20 ADD PUSH1 0x40 MLOAD SWAP1 DUP2 ADD PUSH1 0x40 MSTORE DUP1 SWAP3 SWAP2 SWAP1 DUP2 DUP2 MSTORE PUSH1 0x20 ADD DUP3 DUP1 SLOAD PUSH2 0x884 SWAP1 PUSH2 0x12B7 JUMP JUMPDEST DUP1 ISZERO PUSH2 0x8CF JUMPI DUP1 PUSH1 0x1F LT PUSH2 0x8A6 JUMPI PUSH2 0x100 DUP1 DUP4 SLOAD DIV MUL DUP4 MSTORE SWAP2 PUSH1 0x20 ADD SWAP2 PUSH2 0x8CF JUMP JUMPDEST DUP3 ADD SWAP2 SWAP1 PUSH0 MSTORE PUSH1 0x20 PUSH0 KECCAK256 SWAP1 JUMPDEST DUP2 SLOAD DUP2 MSTORE SWAP1 PUSH1 0x1 ADD SWAP1 PUSH1 0x20 ADD DUP1 DUP4 GT PUSH2 0x8B2 JUMPI DUP3 SWAP1 SUB PUSH1 0x1F AND DUP3 ADD SWAP2 JUMPDEST POP POP POP POP POP SWAP1 DUP1 PUSH1 0x3 ADD SLOAD SWAP1 DUP1 PUSH1 0x4 ADD SLOAD SWAP1 POP DUP6 JUMP JUMPDEST PUSH1 0x5 PUSH1 0x20 MSTORE DUP2 PUSH0 MSTORE PUSH1 0x40 PUSH0 KECCAK256 DUP2 DUP2 SLOAD DUP2 LT PUSH2 0x8FE JUMPI PUSH0 DUP1 REVERT JUMPDEST SWAP1 PUSH0 MSTORE PUSH1 0x20 PUSH0 KECCAK256 ADD PUSH0 SWAP2 POP SWAP2 POP POP SLOAD DUP2 JUMP JUMPDEST DUP3 PUSH1 0x1 PUSH0 DUP7 DUP2 MSTORE PUSH1 0x20 ADD SWAP1 DUP2 MSTORE PUSH1 0x20 ADD PUSH0 KECCAK256 PUSH1 0x1 ADD SWAP1 DUP2 PUSH2 0x931 SWAP2 SWAP1 PUSH2 0x1484 JUMP JUMPDEST POP DUP2 PUSH1 0x1 PUSH0 DUP7 DUP2 MSTORE PUSH1 0x20 ADD SWAP1 DUP2 MSTORE PUSH1 0x20 ADD PUSH0 KECCAK256 PUSH1 0x2 ADD SWAP1 DUP2 PUSH2 0x953 SWAP2 SWAP1 PUSH2 0x1484 JUMP JUMPDEST POP DUP1 PUSH1 0x1 PUSH0 DUP7 DUP2 MSTORE PUSH1 0x20 ADD SWAP1 DUP2 MSTORE PUSH1 0x20 ADD PUSH0 KECCAK256 PUSH1 0x1 ADD SWAP1 DUP2 PUSH2 0x975 SWAP2 SWAP1 PUSH2 0x1484 JUMP JUMPDEST POP PUSH1 0x6 PUSH1 0x40 MLOAD DUP1 PUSH1 0x80 ADD PUSH1 0x40 MSTORE DUP1 DUP7 DUP2 MSTORE PUSH1 0x20 ADD DUP6 DUP2 MSTORE PUSH1 0x20 ADD DUP5 DUP2 MSTORE PUSH1 0x20 ADD DUP4 DUP2 MSTORE POP SWAP1 DUP1 PUSH1 0x1 DUP2 SLOAD ADD DUP1 DUP3 SSTORE DUP1 SWAP2 POP POP PUSH1 0x1 SWAP1 SUB SWAP1 PUSH0 MSTORE PUSH1 0x20 PUSH0 KECCAK256 SWAP1 PUSH1 0x4 MUL ADD PUSH0 SWAP1 SWAP2 SWAP1 SWAP2 SWAP1 SWAP2 POP PUSH0 DUP3 ADD MLOAD DUP2 PUSH0 ADD SSTORE PUSH1 0x20 DUP3 ADD MLOAD DUP2 PUSH1 0x1 ADD SWAP1 DUP2 PUSH2 0x9DC SWAP2 SWAP1 PUSH2 0x1484 JUMP JUMPDEST POP PUSH1 0x40 DUP3 ADD MLOAD DUP2 PUSH1 0x2 ADD SWAP1 DUP2 PUSH2 0x9F2 SWAP2 SWAP1 PUSH2 0x1484 JUMP JUMPDEST POP PUSH1 0x60 DUP3 ADD MLOAD DUP2 PUSH1 0x3 ADD SWAP1 DUP2 PUSH2 0xA08 SWAP2 SWAP1 PUSH2 0x1484 JUMP JUMPDEST POP POP POP POP POP POP POP JUMP JUMPDEST DUP3 DUP1 SLOAD DUP3 DUP3 SSTORE SWAP1 PUSH0 MSTORE PUSH1 0x20 PUSH0 KECCAK256 SWAP1 DUP2 ADD SWAP3 DUP3 ISZERO PUSH2 0xA57 JUMPI SWAP2 PUSH1 0x20 MUL DUP3 ADD JUMPDEST DUP3 DUP2 GT ISZERO PUSH2 0xA56 JUMPI DUP3 MLOAD DUP3 SWAP1 DUP2 PUSH2 0xA46 SWAP2 SWAP1 PUSH2 0x1484 JUMP JUMPDEST POP SWAP2 PUSH1 0x20 ADD SWAP2 SWAP1 PUSH1 0x1 ADD SWAP1 PUSH2 0xA2F JUMP JUMPDEST JUMPDEST POP SWAP1 POP PUSH2 0xA64 SWAP2 SWAP1 PUSH2 0xA68 JUMP JUMPDEST POP SWAP1 JUMP JUMPDEST JUMPDEST DUP1 DUP3 GT ISZERO PUSH2 0xA87 JUMPI PUSH0 DUP2 DUP2 PUSH2 0xA7E SWAP2 SWAP1 PUSH2 0xA8B JUMP JUMPDEST POP PUSH1 0x1 ADD PUSH2 0xA69 JUMP JUMPDEST POP SWAP1 JUMP JUMPDEST POP DUP1 SLOAD PUSH2 0xA97 SWAP1 PUSH2 0x12B7 JUMP JUMPDEST PUSH0 DUP3 SSTORE DUP1 PUSH1 0x1F LT PUSH2 0xAA8 JUMPI POP PUSH2 0xAC5 JUMP JUMPDEST PUSH1 0x1F ADD PUSH1 0x20 SWAP1 DIV SWAP1 PUSH0 MSTORE PUSH1 0x20 PUSH0 KECCAK256 SWAP1 DUP2 ADD SWAP1 PUSH2 0xAC4 SWAP2 SWAP1 PUSH2 0xAC8 JUMP JUMPDEST JUMPDEST POP JUMP JUMPDEST JUMPDEST DUP1 DUP3 GT ISZERO PUSH2 0xADF JUMPI PUSH0 DUP2 PUSH0 SWAP1 SSTORE POP PUSH1 0x1 ADD PUSH2 0xAC9 JUMP JUMPDEST POP SWAP1 JUMP JUMPDEST PUSH0 PUSH1 0x40 MLOAD SWAP1 POP SWAP1 JUMP JUMPDEST PUSH0 DUP1 REVERT JUMPDEST PUSH0 DUP1 REVERT JUMPDEST PUSH0 DUP2 SWAP1 POP SWAP2 SWAP1 POP JUMP JUMPDEST PUSH2 0xB06 DUP2 PUSH2 0xAF4 JUMP JUMPDEST DUP2 EQ PUSH2 0xB10 JUMPI PUSH0 DUP1 REVERT JUMPDEST POP JUMP JUMPDEST PUSH0 DUP2 CALLDATALOAD SWAP1 POP PUSH2 0xB21 DUP2 PUSH2 0xAFD JUMP JUMPDEST SWAP3 SWAP2 POP POP JUMP JUMPDEST PUSH0 PUSH1 0x20 DUP3 DUP5 SUB SLT ISZERO PUSH2 0xB3C JUMPI PUSH2 0xB3B PUSH2 0xAEC JUMP JUMPDEST JUMPDEST PUSH0 PUSH2 0xB49 DUP5 DUP3 DUP6 ADD PUSH2 0xB13 JUMP JUMPDEST SWAP2 POP POP SWAP3 SWAP2 POP POP JUMP JUMPDEST PUSH2 0xB5B DUP2 PUSH2 0xAF4 JUMP JUMPDEST DUP3 MSTORE POP POP JUMP JUMPDEST PUSH0 DUP2 MLOAD SWAP1 POP SWAP2 SWAP1 POP JUMP JUMPDEST PUSH0 DUP3 DUP3 MSTORE PUSH1 0x20 DUP3 ADD SWAP1 POP SWAP3 SWAP2 POP POP JUMP JUMPDEST PUSH0 JUMPDEST DUP4 DUP2 LT ISZERO PUSH2 0xB98 JUMPI DUP1 DUP3 ADD MLOAD DUP2 DUP5 ADD MSTORE PUSH1 0x20 DUP2 ADD SWAP1 POP PUSH2 0xB7D JUMP JUMPDEST PUSH0 DUP5 DUP5 ADD MSTORE POP POP POP POP JUMP JUMPDEST PUSH0 PUSH1 0x1F NOT PUSH1 0x1F DUP4 ADD AND SWAP1 POP SWAP2 SWAP1 POP JUMP JUMPDEST PUSH0 PUSH2 0xBBD DUP3 PUSH2 0xB61 JUMP JUMPDEST PUSH2 0xBC7 DUP2 DUP6 PUSH2 0xB6B JUMP JUMPDEST SWAP4 POP PUSH2 0xBD7 DUP2 DUP6 PUSH1 0x20 DUP7 ADD PUSH2 0xB7B JUMP JUMPDEST PUSH2 0xBE0 DUP2 PUSH2 0xBA3 JUMP JUMPDEST DUP5 ADD SWAP2 POP POP SWAP3 SWAP2 POP POP JUMP JUMPDEST PUSH0 PUSH1 0x80 DUP3 ADD SWAP1 POP PUSH2 0xBFE PUSH0 DUP4 ADD DUP8 PUSH2 0xB52 JUMP JUMPDEST DUP2 DUP2 SUB PUSH1 0x20 DUP4 ADD MSTORE PUSH2 0xC10 DUP2 DUP7 PUSH2 0xBB3 JUMP JUMPDEST SWAP1 POP DUP2 DUP2 SUB PUSH1 0x40 DUP4 ADD MSTORE PUSH2 0xC24 DUP2 DUP6 PUSH2 0xBB3 JUMP JUMPDEST SWAP1 POP DUP2 DUP2 SUB PUSH1 0x60 DUP4 ADD MSTORE PUSH2 0xC38 DUP2 DUP5 PUSH2 0xBB3 JUMP JUMPDEST SWAP1 POP SWAP6 SWAP5 POP POP POP POP POP JUMP JUMPDEST PUSH0 DUP1 REVERT JUMPDEST PUSH0 DUP1 REVERT JUMPDEST PUSH32 0x4E487B7100000000000000000000000000000000000000000000000000000000 PUSH0 MSTORE PUSH1 0x41 PUSH1 0x4 MSTORE PUSH1 0x24 PUSH0 REVERT JUMPDEST PUSH2 0xC81 DUP3 PUSH2 0xBA3 JUMP JUMPDEST DUP2 ADD DUP2 DUP2 LT PUSH8 0xFFFFFFFFFFFFFFFF DUP3 GT OR ISZERO PUSH2 0xCA0 JUMPI PUSH2 0xC9F PUSH2 0xC4B JUMP JUMPDEST JUMPDEST DUP1 PUSH1 0x40 MSTORE POP POP POP JUMP JUMPDEST PUSH0 PUSH2 0xCB2 PUSH2 0xAE3 JUMP JUMPDEST SWAP1 POP PUSH2 0xCBE DUP3 DUP3 PUSH2 0xC78 JUMP JUMPDEST SWAP2 SWAP1 POP JUMP JUMPDEST PUSH0 PUSH8 0xFFFFFFFFFFFFFFFF DUP3 GT ISZERO PUSH2 0xCDD JUMPI PUSH2 0xCDC PUSH2 0xC4B JUMP JUMPDEST JUMPDEST PUSH2 0xCE6 DUP3 PUSH2 0xBA3 JUMP JUMPDEST SWAP1 POP PUSH1 0x20 DUP2 ADD SWAP1 POP SWAP2 SWAP1 POP JUMP JUMPDEST DUP3 DUP2 DUP4 CALLDATACOPY PUSH0 DUP4 DUP4 ADD MSTORE POP POP POP JUMP JUMPDEST PUSH0 PUSH2 0xD13 PUSH2 0xD0E DUP5 PUSH2 0xCC3 JUMP JUMPDEST PUSH2 0xCA9 JUMP JUMPDEST SWAP1 POP DUP3 DUP2 MSTORE PUSH1 0x20 DUP2 ADD DUP5 DUP5 DUP5 ADD GT ISZERO PUSH2 0xD2F JUMPI PUSH2 0xD2E PUSH2 0xC47 JUMP JUMPDEST JUMPDEST PUSH2 0xD3A DUP5 DUP3 DUP6 PUSH2 0xCF3 JUMP JUMPDEST POP SWAP4 SWAP3 POP POP POP JUMP JUMPDEST PUSH0 DUP3 PUSH1 0x1F DUP4 ADD SLT PUSH2 0xD56 JUMPI PUSH2 0xD55 PUSH2 0xC43 JUMP JUMPDEST JUMPDEST DUP2 CALLDATALOAD PUSH2 0xD66 DUP5 DUP3 PUSH1 0x20 DUP7 ADD PUSH2 0xD01 JUMP JUMPDEST SWAP2 POP POP SWAP3 SWAP2 POP POP JUMP JUMPDEST PUSH0 PUSH8 0xFFFFFFFFFFFFFFFF DUP3 GT ISZERO PUSH2 0xD89 JUMPI PUSH2 0xD88 PUSH2 0xC4B JUMP JUMPDEST JUMPDEST PUSH1 0x20 DUP3 MUL SWAP1 POP PUSH1 0x20 DUP2 ADD SWAP1 POP SWAP2 SWAP1 POP JUMP JUMPDEST PUSH0 DUP1 REVERT JUMPDEST PUSH0 PUSH2 0xDB0 PUSH2 0xDAB DUP5 PUSH2 0xD6F JUMP JUMPDEST PUSH2 0xCA9 JUMP JUMPDEST SWAP1 POP DUP1 DUP4 DUP3 MSTORE PUSH1 0x20 DUP3 ADD SWAP1 POP PUSH1 0x20 DUP5 MUL DUP4 ADD DUP6 DUP2 GT ISZERO PUSH2 0xDD3 JUMPI PUSH2 0xDD2 PUSH2 0xD9A JUMP JUMPDEST JUMPDEST DUP4 JUMPDEST DUP2 DUP2 LT ISZERO PUSH2 0xE1A JUMPI DUP1 CALLDATALOAD PUSH8 0xFFFFFFFFFFFFFFFF DUP2 GT ISZERO PUSH2 0xDF8 JUMPI PUSH2 0xDF7 PUSH2 0xC43 JUMP JUMPDEST JUMPDEST DUP1 DUP7 ADD PUSH2 0xE05 DUP10 DUP3 PUSH2 0xD42 JUMP JUMPDEST DUP6 MSTORE PUSH1 0x20 DUP6 ADD SWAP5 POP POP POP PUSH1 0x20 DUP2 ADD SWAP1 POP PUSH2 0xDD5 JUMP JUMPDEST POP POP POP SWAP4 SWAP3 POP POP POP JUMP JUMPDEST PUSH0 DUP3 PUSH1 0x1F DUP4 ADD SLT PUSH2 0xE38 JUMPI PUSH2 0xE37 PUSH2 0xC43 JUMP JUMPDEST JUMPDEST DUP2 CALLDATALOAD PUSH2 0xE48 DUP5 DUP3 PUSH1 0x20 DUP7 ADD PUSH2 0xD9E JUMP JUMPDEST SWAP2 POP POP SWAP3 SWAP2 POP POP JUMP JUMPDEST PUSH0 DUP1 PUSH0 DUP1 PUSH1 0x80 DUP6 DUP8 SUB SLT ISZERO PUSH2 0xE69 JUMPI PUSH2 0xE68 PUSH2 0xAEC JUMP JUMPDEST JUMPDEST PUSH0 PUSH2 0xE76 DUP8 DUP3 DUP9 ADD PUSH2 0xB13 JUMP JUMPDEST SWAP5 POP POP PUSH1 0x20 DUP6 ADD CALLDATALOAD PUSH8 0xFFFFFFFFFFFFFFFF DUP2 GT ISZERO PUSH2 0xE97 JUMPI PUSH2 0xE96 PUSH2 0xAF0 JUMP JUMPDEST JUMPDEST PUSH2 0xEA3 DUP8 DUP3 DUP9 ADD PUSH2 0xD42 JUMP JUMPDEST SWAP4 POP POP PUSH1 0x40 PUSH2 0xEB4 DUP8 DUP3 DUP9 ADD PUSH2 0xB13 JUMP JUMPDEST SWAP3 POP POP PUSH1 0x60 DUP6 ADD CALLDATALOAD PUSH8 0xFFFFFFFFFFFFFFFF DUP2 GT ISZERO PUSH2 0xED5 JUMPI PUSH2 0xED4 PUSH2 0xAF0 JUMP JUMPDEST JUMPDEST PUSH2 0xEE1 DUP8 DUP3 DUP9 ADD PUSH2 0xE24 JUMP JUMPDEST SWAP2 POP POP SWAP3 SWAP6 SWAP2 SWAP5 POP SWAP3 POP JUMP JUMPDEST PUSH0 PUSH20 0xFFFFFFFFFFFFFFFFFFFFFFFFFFFFFFFFFFFFFFFF DUP3 AND SWAP1 POP SWAP2 SWAP1 POP JUMP JUMPDEST PUSH0 PUSH2 0xF16 DUP3 PUSH2 0xEED JUMP JUMPDEST SWAP1 POP SWAP2 SWAP1 POP JUMP JUMPDEST PUSH2 0xF26 DUP2 PUSH2 0xF0C JUMP JUMPDEST DUP3 MSTORE POP POP JUMP JUMPDEST PUSH0 PUSH1 0x20 DUP3 ADD SWAP1 POP PUSH2 0xF3F PUSH0 DUP4 ADD DUP5 PUSH2 0xF1D JUMP JUMPDEST SWAP3 SWAP2 POP POP JUMP JUMPDEST PUSH0 PUSH1 0x60 DUP3 ADD SWAP1 POP PUSH2 0xF58 PUSH0 DUP4 ADD DUP7 PUSH2 0xB52 JUMP JUMPDEST DUP2 DUP2 SUB PUSH1 0x20 DUP4 ADD MSTORE PUSH2 0xF6A DUP2 DUP6 PUSH2 0xBB3 JUMP JUMPDEST SWAP1 POP PUSH2 0xF79 PUSH1 0x40 DUP4 ADD DUP5 PUSH2 0xB52 JUMP JUMPDEST SWAP5 SWAP4 POP POP POP POP JUMP JUMPDEST PUSH2 0xF8A DUP2 PUSH2 0xF0C JUMP JUMPDEST DUP2 EQ PUSH2 0xF94 JUMPI PUSH0 DUP1 REVERT JUMPDEST POP JUMP JUMPDEST PUSH0 DUP2 CALLDATALOAD SWAP1 POP PUSH2 0xFA5 DUP2 PUSH2 0xF81 JUMP JUMPDEST SWAP3 SWAP2 POP POP JUMP JUMPDEST PUSH0 PUSH1 0x20 DUP3 DUP5 SUB SLT ISZERO PUSH2 0xFC0 JUMPI PUSH2 0xFBF PUSH2 0xAEC JUMP JUMPDEST JUMPDEST PUSH0 PUSH2 0xFCD DUP5 DUP3 DUP6 ADD PUSH2 0xF97 JUMP JUMPDEST SWAP2 POP POP SWAP3 SWAP2 POP POP JUMP JUMPDEST PUSH0 DUP2 MLOAD SWAP1 POP SWAP2 SWAP1 POP JUMP JUMPDEST PUSH0 DUP3 DUP3 MSTORE PUSH1 0x20 DUP3 ADD SWAP1 POP SWAP3 SWAP2 POP POP JUMP JUMPDEST PUSH0 DUP2 SWAP1 POP PUSH1 0x20 DUP3 ADD SWAP1 POP SWAP2 SWAP1 POP JUMP JUMPDEST PUSH0 DUP3 DUP3 MSTORE PUSH1 0x20 DUP3 ADD SWAP1 POP SWAP3 SWAP2 POP POP JUMP JUMPDEST PUSH0 PUSH2 0x1019 DUP3 PUSH2 0xB61 JUMP JUMPDEST PUSH2 0x1023 DUP2 DUP6 PUSH2 0xFFF JUMP JUMPDEST SWAP4 POP PUSH2 0x1033 DUP2 DUP6 PUSH1 0x20 DUP7 ADD PUSH2 0xB7B JUMP JUMPDEST PUSH2 0x103C DUP2 PUSH2 0xBA3 JUMP JUMPDEST DUP5 ADD SWAP2 POP POP SWAP3 SWAP2 POP POP JUMP JUMPDEST PUSH0 PUSH2 0x1052 DUP4 DUP4 PUSH2 0x100F JUMP JUMPDEST SWAP1 POP SWAP3 SWAP2 POP POP JUMP JUMPDEST PUSH0 PUSH1 0x20 DUP3 ADD SWAP1 POP SWAP2 SWAP1 POP JUMP JUMPDEST PUSH0 PUSH2 0x1070 DUP3 PUSH2 0xFD6 JUMP JUMPDEST PUSH2 0x107A DUP2 DUP6 PUSH2 0xFE0 JUMP JUMPDEST SWAP4 POP DUP4 PUSH1 0x20 DUP3 MUL DUP6 ADD PUSH2 0x108C DUP6 PUSH2 0xFF0 JUMP JUMPDEST DUP1 PUSH0 JUMPDEST DUP6 DUP2 LT ISZERO PUSH2 0x10C7 JUMPI DUP5 DUP5 SUB DUP10 MSTORE DUP2 MLOAD PUSH2 0x10A8 DUP6 DUP3 PUSH2 0x1047 JUMP JUMPDEST SWAP5 POP PUSH2 0x10B3 DUP4 PUSH2 0x105A JUMP JUMPDEST SWAP3 POP PUSH1 0x20 DUP11 ADD SWAP10 POP POP PUSH1 0x1 DUP2 ADD SWAP1 POP PUSH2 0x108F JUMP JUMPDEST POP DUP3 SWAP8 POP DUP8 SWAP6 POP POP POP POP POP POP SWAP3 SWAP2 POP POP JUMP JUMPDEST PUSH0 PUSH1 0x60 DUP3 ADD SWAP1 POP DUP2 DUP2 SUB PUSH0 DUP4 ADD MSTORE PUSH2 0x10F1 DUP2 DUP7 PUSH2 0xBB3 JUMP JUMPDEST SWAP1 POP PUSH2 0x1100 PUSH1 0x20 DUP4 ADD DUP6 PUSH2 0xB52 JUMP JUMPDEST DUP2 DUP2 SUB PUSH1 0x40 DUP4 ADD MSTORE PUSH2 0x1112 DUP2 DUP5 PUSH2 0x1066 JUMP JUMPDEST SWAP1 POP SWAP5 SWAP4 POP POP POP POP JUMP JUMPDEST PUSH0 PUSH1 0xA0 DUP3 ADD SWAP1 POP PUSH2 0x112F PUSH0 DUP4 ADD DUP9 PUSH2 0xB52 JUMP JUMPDEST DUP2 DUP2 SUB PUSH1 0x20 DUP4 ADD MSTORE PUSH2 0x1141 DUP2 DUP8 PUSH2 0xBB3 JUMP JUMPDEST SWAP1 POP DUP2 DUP2 SUB PUSH1 0x40 DUP4 ADD MSTORE PUSH2 0x1155 DUP2 DUP7 PUSH2 0xBB3 JUMP JUMPDEST SWAP1 POP PUSH2 0x1164 PUSH1 0x60 DUP4 ADD DUP6 PUSH2 0xB52 JUMP JUMPDEST PUSH2 0x1171 PUSH1 0x80 DUP4 ADD DUP5 PUSH2 0xB52 JUMP JUMPDEST SWAP7 SWAP6 POP POP POP POP POP POP JUMP JUMPDEST PUSH0 DUP1 PUSH1 0x40 DUP4 DUP6 SUB SLT ISZERO PUSH2 0x1191 JUMPI PUSH2 0x1190 PUSH2 0xAEC JUMP JUMPDEST JUMPDEST PUSH0 PUSH2 0x119E DUP6 DUP3 DUP7 ADD PUSH2 0xF97 JUMP JUMPDEST SWAP3 POP POP PUSH1 0x20 PUSH2 0x11AF DUP6 DUP3 DUP7 ADD PUSH2 0xB13 JUMP JUMPDEST SWAP2 POP POP SWAP3 POP SWAP3 SWAP1 POP JUMP JUMPDEST PUSH0 PUSH1 0x20 DUP3 ADD SWAP1 POP PUSH2 0x11CC PUSH0 DUP4 ADD DUP5 PUSH2 0xB52 JUMP JUMPDEST SWAP3 SWAP2 POP POP JUMP JUMPDEST PUSH0 DUP1 PUSH0 DUP1 PUSH1 0x80 DUP6 DUP8 SUB SLT ISZERO PUSH2 0x11EA JUMPI PUSH2 0x11E9 PUSH2 0xAEC JUMP JUMPDEST JUMPDEST PUSH0 PUSH2 0x11F7 DUP8 DUP3 DUP9 ADD PUSH2 0xB13 JUMP JUMPDEST SWAP5 POP POP PUSH1 0x20 DUP6 ADD CALLDATALOAD PUSH8 0xFFFFFFFFFFFFFFFF DUP2 GT ISZERO PUSH2 0x1218 JUMPI PUSH2 0x1217 PUSH2 0xAF0 JUMP JUMPDEST JUMPDEST PUSH2 0x1224 DUP8 DUP3 DUP9 ADD PUSH2 0xD42 JUMP JUMPDEST SWAP4 POP POP PUSH1 0x40 DUP6 ADD CALLDATALOAD PUSH8 0xFFFFFFFFFFFFFFFF DUP2 GT ISZERO PUSH2 0x1245 JUMPI PUSH2 0x1244 PUSH2 0xAF0 JUMP JUMPDEST JUMPDEST PUSH2 0x1251 DUP8 DUP3 DUP9 ADD PUSH2 0xD42 JUMP JUMPDEST SWAP3 POP POP PUSH1 0x60 DUP6 ADD CALLDATALOAD PUSH8 0xFFFFFFFFFFFFFFFF DUP2 GT ISZERO PUSH2 0x1272 JUMPI PUSH2 0x1271 PUSH2 0xAF0 JUMP JUMPDEST JUMPDEST PUSH2 0x127E DUP8 DUP3 DUP9 ADD PUSH2 0xD42 JUMP JUMPDEST SWAP2 POP POP SWAP3 SWAP6 SWAP2 SWAP5 POP SWAP3 POP JUMP JUMPDEST PUSH32 0x4E487B7100000000000000000000000000000000000000000000000000000000 PUSH0 MSTORE PUSH1 0x22 PUSH1 0x4 MSTORE PUSH1 0x24 PUSH0 REVERT JUMPDEST PUSH0 PUSH1 0x2 DUP3 DIV SWAP1 POP PUSH1 0x1 DUP3 AND DUP1 PUSH2 0x12CE JUMPI PUSH1 0x7F DUP3 AND SWAP2 POP JUMPDEST PUSH1 0x20 DUP3 LT DUP2 SUB PUSH2 0x12E1 JUMPI PUSH2 0x12E0 PUSH2 0x128A JUMP JUMPDEST JUMPDEST POP SWAP2 SWAP1 POP JUMP JUMPDEST PUSH0 DUP2 SWAP1 POP DUP2 PUSH0 MSTORE PUSH1 0x20 PUSH0 KECCAK256 SWAP1 POP SWAP2 SWAP1 POP JUMP JUMPDEST PUSH0 PUSH1 0x20 PUSH1 0x1F DUP4 ADD DIV SWAP1 POP SWAP2 SWAP1 POP JUMP JUMPDEST PUSH0 DUP3 DUP3 SHL SWAP1 POP SWAP3 SWAP2 POP POP JUMP JUMPDEST PUSH0 PUSH1 0x8 DUP4 MUL PUSH2 0x1343 PUSH32 0xFFFFFFFFFFFFFFFFFFFFFFFFFFFFFFFFFFFFFFFFFFFFFFFFFFFFFFFFFFFFFFFF DUP3 PUSH2 0x1308 JUMP JUMPDEST PUSH2 0x134D DUP7 DUP4 PUSH2 0x1308 JUMP JUMPDEST SWAP6 POP DUP1 NOT DUP5 AND SWAP4 POP DUP1 DUP7 AND DUP5 OR SWAP3 POP POP POP SWAP4 SWAP3 POP POP POP JUMP JUMPDEST PUSH0 DUP2 SWAP1 POP SWAP2 SWAP1 POP JUMP JUMPDEST PUSH0 PUSH2 0x1388 PUSH2 0x1383 PUSH2 0x137E DUP5 PUSH2 0xAF4 JUMP JUMPDEST PUSH2 0x1365 JUMP JUMPDEST PUSH2 0xAF4 JUMP JUMPDEST SWAP1 POP SWAP2 SWAP1 POP JUMP JUMPDEST PUSH0 DUP2 SWAP1 POP SWAP2 SWAP1 POP JUMP JUMPDEST PUSH2 0x13A1 DUP4 PUSH2 0x136E JUMP JUMPDEST PUSH2 0x13B5 PUSH2 0x13AD DUP3 PUSH2 0x138F JUMP JUMPDEST DUP5 DUP5 SLOAD PUSH2 0x1314 JUMP JUMPDEST DUP3 SSTORE POP POP POP POP JUMP JUMPDEST PUSH0 SWAP1 JUMP JUMPDEST PUSH2 0x13C9 PUSH2 0x13BD JUMP JUMPDEST PUSH2 0x13D4 DUP2 DUP5 DUP5 PUSH2 0x1398 JUMP JUMPDEST POP POP POP JUMP JUMPDEST JUMPDEST DUP2 DUP2 LT ISZERO PUSH2 0x13F7 JUMPI PUSH2 0x13EC PUSH0 DUP3 PUSH2 0x13C1 JUMP JUMPDEST PUSH1 0x1 DUP2 ADD SWAP1 POP PUSH2 0x13DA JUMP JUMPDEST POP POP JUMP JUMPDEST PUSH1 0x1F DUP3 GT ISZERO PUSH2 0x143C JUMPI PUSH2 0x140D DUP2 PUSH2 0x12E7 JUMP JUMPDEST PUSH2 0x1416 DUP5 PUSH2 0x12F9 JUMP JUMPDEST DUP2 ADD PUSH1 0x20 DUP6 LT ISZERO PUSH2 0x1425 JUMPI DUP2 SWAP1 POP JUMPDEST PUSH2 0x1439 PUSH2 0x1431 DUP6 PUSH2 0x12F9 JUMP JUMPDEST DUP4 ADD DUP3 PUSH2 0x13D9 JUMP JUMPDEST POP POP JUMPDEST POP POP POP JUMP JUMPDEST PUSH0 DUP3 DUP3 SHR SWAP1 POP SWAP3 SWAP2 POP POP JUMP JUMPDEST PUSH0 PUSH2 0x145C PUSH0 NOT DUP5 PUSH1 0x8 MUL PUSH2 0x1441 JUMP JUMPDEST NOT DUP1 DUP4 AND SWAP2 POP POP SWAP3 SWAP2 POP POP JUMP JUMPDEST PUSH0 PUSH2 0x1474 DUP4 DUP4 PUSH2 0x144D JUMP JUMPDEST SWAP2 POP DUP3 PUSH1 0x2 MUL DUP3 OR SWAP1 POP SWAP3 SWAP2 POP POP JUMP JUMPDEST PUSH2 0x148D DUP3 PUSH2 0xB61 JUMP JUMPDEST PUSH8 0xFFFFFFFFFFFFFFFF DUP2 GT ISZERO PUSH2 0x14A6 JUMPI PUSH2 0x14A5 PUSH2 0xC4B JUMP JUMPDEST JUMPDEST PUSH2 0x14B0 DUP3 SLOAD PUSH2 0x12B7 JUMP JUMPDEST PUSH2 0x14BB DUP3 DUP3 DUP6 PUSH2 0x13FB JUMP JUMPDEST PUSH0 PUSH1 0x20 SWAP1 POP PUSH1 0x1F DUP4 GT PUSH1 0x1 DUP2 EQ PUSH2 0x14EC JUMPI PUSH0 DUP5 ISZERO PUSH2 0x14DA JUMPI DUP3 DUP8 ADD MLOAD SWAP1 POP JUMPDEST PUSH2 0x14E4 DUP6 DUP3 PUSH2 0x1469 JUMP JUMPDEST DUP7 SSTORE POP PUSH2 0x154B JUMP JUMPDEST PUSH1 0x1F NOT DUP5 AND PUSH2 0x14FA DUP7 PUSH2 0x12E7 JUMP JUMPDEST PUSH0 JUMPDEST DUP3 DUP2 LT ISZERO PUSH2 0x1521 JUMPI DUP5 DUP10 ADD MLOAD DUP3 SSTORE PUSH1 0x1 DUP3 ADD SWAP2 POP PUSH1 0x20 DUP6 ADD SWAP5 POP PUSH1 0x20 DUP2 ADD SWAP1 POP PUSH2 0x14FC JUMP JUMPDEST DUP7 DUP4 LT ISZERO PUSH2 0x153E JUMPI DUP5 DUP10 ADD MLOAD PUSH2 0x153A PUSH1 0x1F DUP10 AND DUP3 PUSH2 0x144D JUMP JUMPDEST DUP4 SSTORE POP JUMPDEST PUSH1 0x1 PUSH1 0x2 DUP9 MUL ADD DUP9 SSTORE POP POP POP JUMPDEST POP POP POP POP POP POP JUMP JUMPDEST PUSH32 0x4E487B7100000000000000000000000000000000000000000000000000000000 PUSH0 MSTORE PUSH1 0x32 PUSH1 0x4 MSTORE PUSH1 0x24 PUSH0 REVERT JUMPDEST PUSH32 0x4E487B7100000000000000000000000000000000000000000000000000000000 PUSH0 MSTORE PUSH1 0x11 PUSH1 0x4 MSTORE PUSH1 0x24 PUSH0 REVERT JUMPDEST PUSH0 PUSH2 0x15B7 DUP3 PUSH2 0xAF4 JUMP JUMPDEST SWAP2 POP PUSH32 0xFFFFFFFFFFFFFFFFFFFFFFFFFFFFFFFFFFFFFFFFFFFFFFFFFFFFFFFFFFFFFFFF DUP3 SUB PUSH2 0x15E9 JUMPI PUSH2 0x15E8 PUSH2 0x1580 JUMP JUMPDEST JUMPDEST PUSH1 0x1 DUP3 ADD SWAP1 POP SWAP2 SWAP1 POP JUMP INVALID LOG2 PUSH5 0x6970667358 0x22 SLT KECCAK256 0xE4 DUP8 PUSH13 0x4C1FF39D8C14065EEF34736A91 0x4F DELEGATECALL PREVRANDAO OR SELFBALANCE PUSH4 0xB521D611 0xB5 PUSH18 0xCF3D7A6F64736F6C63430008140033000000 "
				},
				"gasEstimates": {
					"creation": {
						"codeDepositCost": "1134800",
						"executionCost": "25443",
						"totalCost": "1160243"
					},
					"external": {
						"doctors(uint256)": "infinite",
						"getPatientRecord(uint256)": "infinite",
						"medicines(uint256)": "infinite",
						"owner()": "2550",
						"patients(uint256)": "infinite",
						"patientsAddress(address)": "infinite",
						"prescribedMedicines(address,uint256)": "infinite",
						"registerDoctor(uint256,string,string,string)": "infinite",
						"registerPatient(uint256,string,uint256,string[])": "infinite"
					}
				},
				"methodIdentifiers": {
					"doctors(uint256)": "6efb1b84",
					"getPatientRecord(uint256)": "b9fff11b",
					"medicines(uint256)": "c85e766d",
					"owner()": "8da5cb5b",
					"patients(uint256)": "93119a83",
					"patientsAddress(address)": "9eea24d8",
					"prescribedMedicines(address,uint256)": "ee73a541",
					"registerDoctor(uint256,string,string,string)": "f0206d20",
					"registerPatient(uint256,string,uint256,string[])": "8d7baa61"
				}
			},
			"storageLayout": {
				"storage": [
					{
						"astId": 3,
						"contract": "contracts/PatientRecord.sol:PatientRecord",
						"label": "owner",
						"offset": 0,
						"slot": "0",
						"type": "t_address"
					},
					{
						"astId": 59,
						"contract": "contracts/PatientRecord.sol:PatientRecord",
						"label": "doctors",
						"offset": 0,
						"slot": "1",
						"type": "t_mapping(t_uint256,t_struct(Doctor)43_storage)"
					},
					{
						"astId": 64,
						"contract": "contracts/PatientRecord.sol:PatientRecord",
						"label": "patients",
						"offset": 0,
						"slot": "2",
						"type": "t_mapping(t_uint256,t_struct(Patient)34_storage)"
					},
					{
						"astId": 69,
						"contract": "contracts/PatientRecord.sol:PatientRecord",
						"label": "medicines",
						"offset": 0,
						"slot": "3",
						"type": "t_mapping(t_uint256,t_struct(Medicine)54_storage)"
					},
					{
						"astId": 73,
						"contract": "contracts/PatientRecord.sol:PatientRecord",
						"label": "patientsAddress",
						"offset": 0,
						"slot": "4",
						"type": "t_mapping(t_address,t_address)"
					},
					{
						"astId": 78,
						"contract": "contracts/PatientRecord.sol:PatientRecord",
						"label": "prescribedMedicines",
						"offset": 0,
						"slot": "5",
						"type": "t_mapping(t_address,t_array(t_uint256)dyn_storage)"
					},
					{
						"astId": 82,
						"contract": "contracts/PatientRecord.sol:PatientRecord",
						"label": "doctorsList",
						"offset": 0,
						"slot": "6",
						"type": "t_array(t_struct(Doctor)43_storage)dyn_storage"
					}
				],
				"types": {
					"t_address": {
						"encoding": "inplace",
						"label": "address",
						"numberOfBytes": "20"
					},
					"t_array(t_string_storage)dyn_storage": {
						"base": "t_string_storage",
						"encoding": "dynamic_array",
						"label": "string[]",
						"numberOfBytes": "32"
					},
					"t_array(t_struct(Doctor)43_storage)dyn_storage": {
						"base": "t_struct(Doctor)43_storage",
						"encoding": "dynamic_array",
						"label": "struct PatientRecord.Doctor[]",
						"numberOfBytes": "32"
					},
					"t_array(t_uint256)dyn_storage": {
						"base": "t_uint256",
						"encoding": "dynamic_array",
						"label": "uint256[]",
						"numberOfBytes": "32"
					},
					"t_mapping(t_address,t_address)": {
						"encoding": "mapping",
						"key": "t_address",
						"label": "mapping(address => address)",
						"numberOfBytes": "32",
						"value": "t_address"
					},
					"t_mapping(t_address,t_array(t_uint256)dyn_storage)": {
						"encoding": "mapping",
						"key": "t_address",
						"label": "mapping(address => uint256[])",
						"numberOfBytes": "32",
						"value": "t_array(t_uint256)dyn_storage"
					},
					"t_mapping(t_uint256,t_struct(Doctor)43_storage)": {
						"encoding": "mapping",
						"key": "t_uint256",
						"label": "mapping(uint256 => struct PatientRecord.Doctor)",
						"numberOfBytes": "32",
						"value": "t_struct(Doctor)43_storage"
					},
					"t_mapping(t_uint256,t_struct(Medicine)54_storage)": {
						"encoding": "mapping",
						"key": "t_uint256",
						"label": "mapping(uint256 => struct PatientRecord.Medicine)",
						"numberOfBytes": "32",
						"value": "t_struct(Medicine)54_storage"
					},
					"t_mapping(t_uint256,t_struct(Patient)34_storage)": {
						"encoding": "mapping",
						"key": "t_uint256",
						"label": "mapping(uint256 => struct PatientRecord.Patient)",
						"numberOfBytes": "32",
						"value": "t_struct(Patient)34_storage"
					},
					"t_string_storage": {
						"encoding": "bytes",
						"label": "string",
						"numberOfBytes": "32"
					},
					"t_struct(Doctor)43_storage": {
						"encoding": "inplace",
						"label": "struct PatientRecord.Doctor",
						"members": [
							{
								"astId": 36,
								"contract": "contracts/PatientRecord.sol:PatientRecord",
								"label": "id",
								"offset": 0,
								"slot": "0",
								"type": "t_uint256"
							},
							{
								"astId": 38,
								"contract": "contracts/PatientRecord.sol:PatientRecord",
								"label": "name",
								"offset": 0,
								"slot": "1",
								"type": "t_string_storage"
							},
							{
								"astId": 40,
								"contract": "contracts/PatientRecord.sol:PatientRecord",
								"label": "qualification",
								"offset": 0,
								"slot": "2",
								"type": "t_string_storage"
							},
							{
								"astId": 42,
								"contract": "contracts/PatientRecord.sol:PatientRecord",
								"label": "hospitalAddress",
								"offset": 0,
								"slot": "3",
								"type": "t_string_storage"
							}
						],
						"numberOfBytes": "128"
					},
					"t_struct(Medicine)54_storage": {
						"encoding": "inplace",
						"label": "struct PatientRecord.Medicine",
						"members": [
							{
								"astId": 45,
								"contract": "contracts/PatientRecord.sol:PatientRecord",
								"label": "id",
								"offset": 0,
								"slot": "0",
								"type": "t_uint256"
							},
							{
								"astId": 47,
								"contract": "contracts/PatientRecord.sol:PatientRecord",
								"label": "name",
								"offset": 0,
								"slot": "1",
								"type": "t_string_storage"
							},
							{
								"astId": 49,
								"contract": "contracts/PatientRecord.sol:PatientRecord",
								"label": "expiryDate",
								"offset": 0,
								"slot": "2",
								"type": "t_string_storage"
							},
							{
								"astId": 51,
								"contract": "contracts/PatientRecord.sol:PatientRecord",
								"label": "dose",
								"offset": 0,
								"slot": "3",
								"type": "t_uint256"
							},
							{
								"astId": 53,
								"contract": "contracts/PatientRecord.sol:PatientRecord",
								"label": "price",
								"offset": 0,
								"slot": "4",
								"type": "t_uint256"
							}
						],
						"numberOfBytes": "160"
					},
					"t_struct(Patient)34_storage": {
						"encoding": "inplace",
						"label": "struct PatientRecord.Patient",
						"members": [
							{
								"astId": 26,
								"contract": "contracts/PatientRecord.sol:PatientRecord",
								"label": "id",
								"offset": 0,
								"slot": "0",
								"type": "t_uint256"
							},
							{
								"astId": 28,
								"contract": "contracts/PatientRecord.sol:PatientRecord",
								"label": "name",
								"offset": 0,
								"slot": "1",
								"type": "t_string_storage"
							},
							{
								"astId": 30,
								"contract": "contracts/PatientRecord.sol:PatientRecord",
								"label": "age",
								"offset": 0,
								"slot": "2",
								"type": "t_uint256"
							},
							{
								"astId": 33,
								"contract": "contracts/PatientRecord.sol:PatientRecord",
								"label": "disease",
								"offset": 0,
								"slot": "3",
								"type": "t_array(t_string_storage)dyn_storage"
							}
						],
						"numberOfBytes": "128"
					},
					"t_uint256": {
						"encoding": "inplace",
						"label": "uint256",
						"numberOfBytes": "32"
					}
				}
			},
			"userdoc": {
				"kind": "user",
				"methods": {},
				"version": 1
			}
		}
	}
}