{
	"contracts/addreess.sol": {
		"test": {
			"abi": [
				{
					"inputs": [
						{
							"internalType": "uint256",
							"name": "_index",
							"type": "uint256"
						}
					],
					"name": "getStudentDetails",
					"outputs": [
						{
							"internalType": "string",
							"name": "",
							"type": "string"
						},
						{
							"internalType": "uint256",
							"name": "",
							"type": "uint256"
						}
					],
					"stateMutability": "view",
					"type": "function"
				},
				{
					"inputs": [
						{
							"internalType": "string",
							"name": "ins_name",
							"type": "string"
						},
						{
							"internalType": "bool",
							"name": "_registered",
							"type": "bool"
						}
					],
					"name": "setInstitutionDetails",
					"outputs": [],
					"stateMutability": "nonpayable",
					"type": "function"
				},
				{
					"inputs": [
						{
							"internalType": "string",
							"name": "_name",
							"type": "string"
						},
						{
							"internalType": "uint256",
							"name": "_age",
							"type": "uint256"
						}
					],
					"name": "setStudentDetails",
					"outputs": [],
					"stateMutability": "nonpayable",
					"type": "function"
				}
			],
			"devdoc": {
				"kind": "dev",
				"methods": {},
				"version": 1
			},
			"evm": {
				"assembly": "    /* \"contracts/addreess.sol\":28:585  contract test {... */\n  mstore(0x40, 0x80)\n  callvalue\n  dup1\n  iszero\n  tag_1\n  jumpi\n  0x00\n  dup1\n  revert\ntag_1:\n  pop\n  dataSize(sub_0)\n  dup1\n  dataOffset(sub_0)\n  0x00\n  codecopy\n  0x00\n  return\nstop\n\nsub_0: assembly {\n        /* \"contracts/addreess.sol\":28:585  contract test {... */\n      mstore(0x40, 0x80)\n      callvalue\n      dup1\n      iszero\n      tag_1\n      jumpi\n      0x00\n      dup1\n      revert\n    tag_1:\n      pop\n      jumpi(tag_2, lt(calldatasize, 0x04))\n      shr(0xe0, calldataload(0x00))\n      dup1\n      0x5f6efd50\n      eq\n      tag_3\n      jumpi\n      dup1\n      0x86a9b364\n      eq\n      tag_4\n      jumpi\n      dup1\n      0xa7cc1582\n      eq\n      tag_5\n      jumpi\n    tag_2:\n      0x00\n      dup1\n      revert\n        /* \"contracts/addreess.sol\":136:294  function setInstitutionDetails(string memory ins_name, bool _registered)... */\n    tag_3:\n      tag_6\n      0x04\n      dup1\n      calldatasize\n      sub\n      dup2\n      add\n      swap1\n      tag_7\n      swap2\n      swap1\n      tag_8\n      jump\t// in\n    tag_7:\n      tag_9\n      jump\t// in\n    tag_6:\n      stop\n        /* \"contracts/addreess.sol\":443:582  function getStudentDetails(uint _index)... */\n    tag_4:\n      tag_10\n      0x04\n      dup1\n      calldatasize\n      sub\n      dup2\n      add\n      swap1\n      tag_11\n      swap2\n      swap1\n      tag_12\n      jump\t// in\n    tag_11:\n      tag_13\n      jump\t// in\n    tag_10:\n      mload(0x40)\n      tag_14\n      swap3\n      swap2\n      swap1\n      tag_15\n      jump\t// in\n    tag_14:\n      mload(0x40)\n      dup1\n      swap2\n      sub\n      swap1\n      return\n        /* \"contracts/addreess.sol\":302:435  function setStudentDetails(string memory _name, uint _age)... */\n    tag_5:\n      tag_16\n      0x04\n      dup1\n      calldatasize\n      sub\n      dup2\n      add\n      swap1\n      tag_17\n      swap2\n      swap1\n      tag_18\n      jump\t// in\n    tag_17:\n      tag_19\n      jump\t// in\n    tag_16:\n      stop\n        /* \"contracts/addreess.sol\":136:294  function setInstitutionDetails(string memory ins_name, bool _registered)... */\n    tag_9:\n        /* \"contracts/addreess.sol\":275:286  _registered */\n      dup1\n        /* \"contracts/addreess.sol\":262:272  registered */\n      0x01\n      0x00\n        /* \"contracts/addreess.sol\":262:286  registered = _registered */\n      0x0100\n      exp\n      dup2\n      sload\n      dup2\n      0xff\n      mul\n      not\n      and\n      swap1\n      dup4\n      iszero\n      iszero\n      mul\n      or\n      swap1\n      sstore\n      pop\n        /* \"contracts/addreess.sol\":136:294  function setInstitutionDetails(string memory ins_name, bool _registered)... */\n      pop\n      pop\n      jump\t// out\n        /* \"contracts/addreess.sol\":443:582  function getStudentDetails(uint _index)... */\n    tag_13:\n        /* \"contracts/addreess.sol\":509:522  string memory */\n      0x60\n        /* \"contracts/addreess.sol\":524:528  uint */\n      0x00\n        /* \"contracts/addreess.sol\":548:552  name */\n      0x02\n        /* \"contracts/addreess.sol\":553:559  _index */\n      dup4\n        /* \"contracts/addreess.sol\":548:560  name[_index] */\n      dup2\n      sload\n      dup2\n      lt\n      tag_22\n      jumpi\n      tag_23\n      tag_24\n      jump\t// in\n    tag_23:\n    tag_22:\n      swap1\n      0x00\n      mstore\n      keccak256(0x00, 0x20)\n      add\n        /* \"contracts/addreess.sol\":562:565  age */\n      0x03\n        /* \"contracts/addreess.sol\":566:572  _index */\n      dup5\n        /* \"contracts/addreess.sol\":562:573  age[_index] */\n      dup2\n      sload\n      dup2\n      lt\n      tag_26\n      jumpi\n      tag_27\n      tag_24\n      jump\t// in\n    tag_27:\n    tag_26:\n      swap1\n      0x00\n      mstore\n      keccak256(0x00, 0x20)\n      add\n      sload\n        /* \"contracts/addreess.sol\":540:574  return (name[_index], age[_index]) */\n      dup2\n      dup1\n      sload\n      tag_29\n      swap1\n      tag_30\n      jump\t// in\n    tag_29:\n      dup1\n      0x1f\n      add\n      0x20\n      dup1\n      swap2\n      div\n      mul\n      0x20\n      add\n      mload(0x40)\n      swap1\n      dup2\n      add\n      0x40\n      mstore\n      dup1\n      swap3\n      swap2\n      swap1\n      dup2\n      dup2\n      mstore\n      0x20\n      add\n      dup3\n      dup1\n      sload\n      tag_31\n      swap1\n      tag_30\n      jump\t// in\n    tag_31:\n      dup1\n      iszero\n      tag_32\n      jumpi\n      dup1\n      0x1f\n      lt\n      tag_33\n      jumpi\n      0x0100\n      dup1\n      dup4\n      sload\n      div\n      mul\n      dup4\n      mstore\n      swap2\n      0x20\n      add\n      swap2\n      jump(tag_32)\n    tag_33:\n      dup3\n      add\n      swap2\n      swap1\n      0x00\n      mstore\n      keccak256(0x00, 0x20)\n      swap1\n    tag_34:\n      dup2\n      sload\n      dup2\n      mstore\n      swap1\n      0x01\n      add\n      swap1\n      0x20\n      add\n      dup1\n      dup4\n      gt\n      tag_34\n      jumpi\n      dup3\n      swap1\n      sub\n      0x1f\n      and\n      dup3\n      add\n      swap2\n    tag_32:\n      pop\n      pop\n      pop\n      pop\n      pop\n      swap2\n      pop\n      swap2\n      pop\n      swap2\n      pop\n        /* \"contracts/addreess.sol\":443:582  function getStudentDetails(uint _index)... */\n      swap2\n      pop\n      swap2\n      jump\t// out\n        /* \"contracts/addreess.sol\":302:435  function setStudentDetails(string memory _name, uint _age)... */\n    tag_19:\n        /* \"contracts/addreess.sol\":384:388  name */\n      0x02\n        /* \"contracts/addreess.sol\":394:399  _name */\n      dup3\n        /* \"contracts/addreess.sol\":384:400  name.push(_name) */\n      swap1\n      dup1\n      0x01\n      dup2\n      sload\n      add\n      dup1\n      dup3\n      sstore\n      dup1\n      swap2\n      pop\n      pop\n      0x01\n      swap1\n      sub\n      swap1\n      0x00\n      mstore\n      keccak256(0x00, 0x20)\n      add\n      0x00\n      swap1\n      swap2\n      swap1\n      swap2\n      swap1\n      swap2\n      pop\n      swap1\n      dup2\n      tag_37\n      swap2\n      swap1\n      tag_38\n      jump\t// in\n    tag_37:\n      pop\n        /* \"contracts/addreess.sol\":411:414  age */\n      0x03\n        /* \"contracts/addreess.sol\":420:424  _age */\n      dup2\n        /* \"contracts/addreess.sol\":411:425  age.push(_age) */\n      swap1\n      dup1\n      0x01\n      dup2\n      sload\n      add\n      dup1\n      dup3\n      sstore\n      dup1\n      swap2\n      pop\n      pop\n      0x01\n      swap1\n      sub\n      swap1\n      0x00\n      mstore\n      keccak256(0x00, 0x20)\n      add\n      0x00\n      swap1\n      swap2\n      swap1\n      swap2\n      swap1\n      swap2\n      pop\n      sstore\n        /* \"contracts/addreess.sol\":302:435  function setStudentDetails(string memory _name, uint _age)... */\n      pop\n      pop\n      jump\t// out\n        /* \"#utility.yul\":7:82   */\n    tag_40:\n        /* \"#utility.yul\":40:46   */\n      0x00\n        /* \"#utility.yul\":73:75   */\n      0x40\n        /* \"#utility.yul\":67:76   */\n      mload\n        /* \"#utility.yul\":57:76   */\n      swap1\n      pop\n        /* \"#utility.yul\":7:82   */\n      swap1\n      jump\t// out\n        /* \"#utility.yul\":88:205   */\n    tag_41:\n        /* \"#utility.yul\":197:198   */\n      0x00\n        /* \"#utility.yul\":194:195   */\n      dup1\n        /* \"#utility.yul\":187:199   */\n      revert\n        /* \"#utility.yul\":211:328   */\n    tag_42:\n        /* \"#utility.yul\":320:321   */\n      0x00\n        /* \"#utility.yul\":317:318   */\n      dup1\n        /* \"#utility.yul\":310:322   */\n      revert\n        /* \"#utility.yul\":334:451   */\n    tag_43:\n        /* \"#utility.yul\":443:444   */\n      0x00\n        /* \"#utility.yul\":440:441   */\n      dup1\n        /* \"#utility.yul\":433:445   */\n      revert\n        /* \"#utility.yul\":457:574   */\n    tag_44:\n        /* \"#utility.yul\":566:567   */\n      0x00\n        /* \"#utility.yul\":563:564   */\n      dup1\n        /* \"#utility.yul\":556:568   */\n      revert\n        /* \"#utility.yul\":580:682   */\n    tag_45:\n        /* \"#utility.yul\":621:627   */\n      0x00\n        /* \"#utility.yul\":672:674   */\n      0x1f\n        /* \"#utility.yul\":668:675   */\n      not\n        /* \"#utility.yul\":663:665   */\n      0x1f\n        /* \"#utility.yul\":656:661   */\n      dup4\n        /* \"#utility.yul\":652:666   */\n      add\n        /* \"#utility.yul\":648:676   */\n      and\n        /* \"#utility.yul\":638:676   */\n      swap1\n      pop\n        /* \"#utility.yul\":580:682   */\n      swap2\n      swap1\n      pop\n      jump\t// out\n        /* \"#utility.yul\":688:868   */\n    tag_46:\n        /* \"#utility.yul\":736:813   */\n      0x4e487b7100000000000000000000000000000000000000000000000000000000\n        /* \"#utility.yul\":733:734   */\n      0x00\n        /* \"#utility.yul\":726:814   */\n      mstore\n        /* \"#utility.yul\":833:837   */\n      0x41\n        /* \"#utility.yul\":830:831   */\n      0x04\n        /* \"#utility.yul\":823:838   */\n      mstore\n        /* \"#utility.yul\":857:861   */\n      0x24\n        /* \"#utility.yul\":854:855   */\n      0x00\n        /* \"#utility.yul\":847:862   */\n      revert\n        /* \"#utility.yul\":874:1155   */\n    tag_47:\n        /* \"#utility.yul\":957:984   */\n      tag_89\n        /* \"#utility.yul\":979:983   */\n      dup3\n        /* \"#utility.yul\":957:984   */\n      tag_45\n      jump\t// in\n    tag_89:\n        /* \"#utility.yul\":949:955   */\n      dup2\n        /* \"#utility.yul\":945:985   */\n      add\n        /* \"#utility.yul\":1087:1093   */\n      dup2\n        /* \"#utility.yul\":1075:1085   */\n      dup2\n        /* \"#utility.yul\":1072:1094   */\n      lt\n        /* \"#utility.yul\":1051:1069   */\n      0xffffffffffffffff\n        /* \"#utility.yul\":1039:1049   */\n      dup3\n        /* \"#utility.yul\":1036:1070   */\n      gt\n        /* \"#utility.yul\":1033:1095   */\n      or\n        /* \"#utility.yul\":1030:1118   */\n      iszero\n      tag_90\n      jumpi\n        /* \"#utility.yul\":1098:1116   */\n      tag_91\n      tag_46\n      jump\t// in\n    tag_91:\n        /* \"#utility.yul\":1030:1118   */\n    tag_90:\n        /* \"#utility.yul\":1138:1148   */\n      dup1\n        /* \"#utility.yul\":1134:1136   */\n      0x40\n        /* \"#utility.yul\":1127:1149   */\n      mstore\n        /* \"#utility.yul\":917:1155   */\n      pop\n        /* \"#utility.yul\":874:1155   */\n      pop\n      pop\n      jump\t// out\n        /* \"#utility.yul\":1161:1290   */\n    tag_48:\n        /* \"#utility.yul\":1195:1201   */\n      0x00\n        /* \"#utility.yul\":1222:1242   */\n      tag_93\n      tag_40\n      jump\t// in\n    tag_93:\n        /* \"#utility.yul\":1212:1242   */\n      swap1\n      pop\n        /* \"#utility.yul\":1251:1284   */\n      tag_94\n        /* \"#utility.yul\":1279:1283   */\n      dup3\n        /* \"#utility.yul\":1271:1277   */\n      dup3\n        /* \"#utility.yul\":1251:1284   */\n      tag_47\n      jump\t// in\n    tag_94:\n        /* \"#utility.yul\":1161:1290   */\n      swap2\n      swap1\n      pop\n      jump\t// out\n        /* \"#utility.yul\":1296:1604   */\n    tag_49:\n        /* \"#utility.yul\":1358:1362   */\n      0x00\n        /* \"#utility.yul\":1448:1466   */\n      0xffffffffffffffff\n        /* \"#utility.yul\":1440:1446   */\n      dup3\n        /* \"#utility.yul\":1437:1467   */\n      gt\n        /* \"#utility.yul\":1434:1490   */\n      iszero\n      tag_96\n      jumpi\n        /* \"#utility.yul\":1470:1488   */\n      tag_97\n      tag_46\n      jump\t// in\n    tag_97:\n        /* \"#utility.yul\":1434:1490   */\n    tag_96:\n        /* \"#utility.yul\":1508:1537   */\n      tag_98\n        /* \"#utility.yul\":1530:1536   */\n      dup3\n        /* \"#utility.yul\":1508:1537   */\n      tag_45\n      jump\t// in\n    tag_98:\n        /* \"#utility.yul\":1500:1537   */\n      swap1\n      pop\n        /* \"#utility.yul\":1592:1596   */\n      0x20\n        /* \"#utility.yul\":1586:1590   */\n      dup2\n        /* \"#utility.yul\":1582:1597   */\n      add\n        /* \"#utility.yul\":1574:1597   */\n      swap1\n      pop\n        /* \"#utility.yul\":1296:1604   */\n      swap2\n      swap1\n      pop\n      jump\t// out\n        /* \"#utility.yul\":1610:1756   */\n    tag_50:\n        /* \"#utility.yul\":1707:1713   */\n      dup3\n        /* \"#utility.yul\":1702:1705   */\n      dup2\n        /* \"#utility.yul\":1697:1700   */\n      dup4\n        /* \"#utility.yul\":1684:1714   */\n      calldatacopy\n        /* \"#utility.yul\":1748:1749   */\n      0x00\n        /* \"#utility.yul\":1739:1745   */\n      dup4\n        /* \"#utility.yul\":1734:1737   */\n      dup4\n        /* \"#utility.yul\":1730:1746   */\n      add\n        /* \"#utility.yul\":1723:1750   */\n      mstore\n        /* \"#utility.yul\":1610:1756   */\n      pop\n      pop\n      pop\n      jump\t// out\n        /* \"#utility.yul\":1762:2187   */\n    tag_51:\n        /* \"#utility.yul\":1840:1845   */\n      0x00\n        /* \"#utility.yul\":1865:1931   */\n      tag_101\n        /* \"#utility.yul\":1881:1930   */\n      tag_102\n        /* \"#utility.yul\":1923:1929   */\n      dup5\n        /* \"#utility.yul\":1881:1930   */\n      tag_49\n      jump\t// in\n    tag_102:\n        /* \"#utility.yul\":1865:1931   */\n      tag_48\n      jump\t// in\n    tag_101:\n        /* \"#utility.yul\":1856:1931   */\n      swap1\n      pop\n        /* \"#utility.yul\":1954:1960   */\n      dup3\n        /* \"#utility.yul\":1947:1952   */\n      dup2\n        /* \"#utility.yul\":1940:1961   */\n      mstore\n        /* \"#utility.yul\":1992:1996   */\n      0x20\n        /* \"#utility.yul\":1985:1990   */\n      dup2\n        /* \"#utility.yul\":1981:1997   */\n      add\n        /* \"#utility.yul\":2030:2033   */\n      dup5\n        /* \"#utility.yul\":2021:2027   */\n      dup5\n        /* \"#utility.yul\":2016:2019   */\n      dup5\n        /* \"#utility.yul\":2012:2028   */\n      add\n        /* \"#utility.yul\":2009:2034   */\n      gt\n        /* \"#utility.yul\":2006:2118   */\n      iszero\n      tag_103\n      jumpi\n        /* \"#utility.yul\":2037:2116   */\n      tag_104\n      tag_44\n      jump\t// in\n    tag_104:\n        /* \"#utility.yul\":2006:2118   */\n    tag_103:\n        /* \"#utility.yul\":2127:2181   */\n      tag_105\n        /* \"#utility.yul\":2174:2180   */\n      dup5\n        /* \"#utility.yul\":2169:2172   */\n      dup3\n        /* \"#utility.yul\":2164:2167   */\n      dup6\n        /* \"#utility.yul\":2127:2181   */\n      tag_50\n      jump\t// in\n    tag_105:\n        /* \"#utility.yul\":1846:2187   */\n      pop\n        /* \"#utility.yul\":1762:2187   */\n      swap4\n      swap3\n      pop\n      pop\n      pop\n      jump\t// out\n        /* \"#utility.yul\":2207:2547   */\n    tag_52:\n        /* \"#utility.yul\":2263:2268   */\n      0x00\n        /* \"#utility.yul\":2312:2315   */\n      dup3\n        /* \"#utility.yul\":2305:2309   */\n      0x1f\n        /* \"#utility.yul\":2297:2303   */\n      dup4\n        /* \"#utility.yul\":2293:2310   */\n      add\n        /* \"#utility.yul\":2289:2316   */\n      slt\n        /* \"#utility.yul\":2279:2401   */\n      tag_107\n      jumpi\n        /* \"#utility.yul\":2320:2399   */\n      tag_108\n      tag_43\n      jump\t// in\n    tag_108:\n        /* \"#utility.yul\":2279:2401   */\n    tag_107:\n        /* \"#utility.yul\":2437:2443   */\n      dup2\n        /* \"#utility.yul\":2424:2444   */\n      calldataload\n        /* \"#utility.yul\":2462:2541   */\n      tag_109\n        /* \"#utility.yul\":2537:2540   */\n      dup5\n        /* \"#utility.yul\":2529:2535   */\n      dup3\n        /* \"#utility.yul\":2522:2526   */\n      0x20\n        /* \"#utility.yul\":2514:2520   */\n      dup7\n        /* \"#utility.yul\":2510:2527   */\n      add\n        /* \"#utility.yul\":2462:2541   */\n      tag_51\n      jump\t// in\n    tag_109:\n        /* \"#utility.yul\":2453:2541   */\n      swap2\n      pop\n        /* \"#utility.yul\":2269:2547   */\n      pop\n        /* \"#utility.yul\":2207:2547   */\n      swap3\n      swap2\n      pop\n      pop\n      jump\t// out\n        /* \"#utility.yul\":2553:2643   */\n    tag_53:\n        /* \"#utility.yul\":2587:2594   */\n      0x00\n        /* \"#utility.yul\":2630:2635   */\n      dup2\n        /* \"#utility.yul\":2623:2636   */\n      iszero\n        /* \"#utility.yul\":2616:2637   */\n      iszero\n        /* \"#utility.yul\":2605:2637   */\n      swap1\n      pop\n        /* \"#utility.yul\":2553:2643   */\n      swap2\n      swap1\n      pop\n      jump\t// out\n        /* \"#utility.yul\":2649:2765   */\n    tag_54:\n        /* \"#utility.yul\":2719:2740   */\n      tag_112\n        /* \"#utility.yul\":2734:2739   */\n      dup2\n        /* \"#utility.yul\":2719:2740   */\n      tag_53\n      jump\t// in\n    tag_112:\n        /* \"#utility.yul\":2712:2717   */\n      dup2\n        /* \"#utility.yul\":2709:2741   */\n      eq\n        /* \"#utility.yul\":2699:2759   */\n      tag_113\n      jumpi\n        /* \"#utility.yul\":2755:2756   */\n      0x00\n        /* \"#utility.yul\":2752:2753   */\n      dup1\n        /* \"#utility.yul\":2745:2757   */\n      revert\n        /* \"#utility.yul\":2699:2759   */\n    tag_113:\n        /* \"#utility.yul\":2649:2765   */\n      pop\n      jump\t// out\n        /* \"#utility.yul\":2771:2904   */\n    tag_55:\n        /* \"#utility.yul\":2814:2819   */\n      0x00\n        /* \"#utility.yul\":2852:2858   */\n      dup2\n        /* \"#utility.yul\":2839:2859   */\n      calldataload\n        /* \"#utility.yul\":2830:2859   */\n      swap1\n      pop\n        /* \"#utility.yul\":2868:2898   */\n      tag_115\n        /* \"#utility.yul\":2892:2897   */\n      dup2\n        /* \"#utility.yul\":2868:2898   */\n      tag_54\n      jump\t// in\n    tag_115:\n        /* \"#utility.yul\":2771:2904   */\n      swap3\n      swap2\n      pop\n      pop\n      jump\t// out\n        /* \"#utility.yul\":2910:3558   */\n    tag_8:\n        /* \"#utility.yul\":2985:2991   */\n      0x00\n        /* \"#utility.yul\":2993:2999   */\n      dup1\n        /* \"#utility.yul\":3042:3044   */\n      0x40\n        /* \"#utility.yul\":3030:3039   */\n      dup4\n        /* \"#utility.yul\":3021:3028   */\n      dup6\n        /* \"#utility.yul\":3017:3040   */\n      sub\n        /* \"#utility.yul\":3013:3045   */\n      slt\n        /* \"#utility.yul\":3010:3129   */\n      iszero\n      tag_117\n      jumpi\n        /* \"#utility.yul\":3048:3127   */\n      tag_118\n      tag_41\n      jump\t// in\n    tag_118:\n        /* \"#utility.yul\":3010:3129   */\n    tag_117:\n        /* \"#utility.yul\":3196:3197   */\n      0x00\n        /* \"#utility.yul\":3185:3194   */\n      dup4\n        /* \"#utility.yul\":3181:3198   */\n      add\n        /* \"#utility.yul\":3168:3199   */\n      calldataload\n        /* \"#utility.yul\":3226:3244   */\n      0xffffffffffffffff\n        /* \"#utility.yul\":3218:3224   */\n      dup2\n        /* \"#utility.yul\":3215:3245   */\n      gt\n        /* \"#utility.yul\":3212:3329   */\n      iszero\n      tag_119\n      jumpi\n        /* \"#utility.yul\":3248:3327   */\n      tag_120\n      tag_42\n      jump\t// in\n    tag_120:\n        /* \"#utility.yul\":3212:3329   */\n    tag_119:\n        /* \"#utility.yul\":3353:3416   */\n      tag_121\n        /* \"#utility.yul\":3408:3415   */\n      dup6\n        /* \"#utility.yul\":3399:3405   */\n      dup3\n        /* \"#utility.yul\":3388:3397   */\n      dup7\n        /* \"#utility.yul\":3384:3406   */\n      add\n        /* \"#utility.yul\":3353:3416   */\n      tag_52\n      jump\t// in\n    tag_121:\n        /* \"#utility.yul\":3343:3416   */\n      swap3\n      pop\n        /* \"#utility.yul\":3139:3426   */\n      pop\n        /* \"#utility.yul\":3465:3467   */\n      0x20\n        /* \"#utility.yul\":3491:3541   */\n      tag_122\n        /* \"#utility.yul\":3533:3540   */\n      dup6\n        /* \"#utility.yul\":3524:3530   */\n      dup3\n        /* \"#utility.yul\":3513:3522   */\n      dup7\n        /* \"#utility.yul\":3509:3531   */\n      add\n        /* \"#utility.yul\":3491:3541   */\n      tag_55\n      jump\t// in\n    tag_122:\n        /* \"#utility.yul\":3481:3541   */\n      swap2\n      pop\n        /* \"#utility.yul\":3436:3551   */\n      pop\n        /* \"#utility.yul\":2910:3558   */\n      swap3\n      pop\n      swap3\n      swap1\n      pop\n      jump\t// out\n        /* \"#utility.yul\":3564:3641   */\n    tag_56:\n        /* \"#utility.yul\":3601:3608   */\n      0x00\n        /* \"#utility.yul\":3630:3635   */\n      dup2\n        /* \"#utility.yul\":3619:3635   */\n      swap1\n      pop\n        /* \"#utility.yul\":3564:3641   */\n      swap2\n      swap1\n      pop\n      jump\t// out\n        /* \"#utility.yul\":3647:3769   */\n    tag_57:\n        /* \"#utility.yul\":3720:3744   */\n      tag_125\n        /* \"#utility.yul\":3738:3743   */\n      dup2\n        /* \"#utility.yul\":3720:3744   */\n      tag_56\n      jump\t// in\n    tag_125:\n        /* \"#utility.yul\":3713:3718   */\n      dup2\n        /* \"#utility.yul\":3710:3745   */\n      eq\n        /* \"#utility.yul\":3700:3763   */\n      tag_126\n      jumpi\n        /* \"#utility.yul\":3759:3760   */\n      0x00\n        /* \"#utility.yul\":3756:3757   */\n      dup1\n        /* \"#utility.yul\":3749:3761   */\n      revert\n        /* \"#utility.yul\":3700:3763   */\n    tag_126:\n        /* \"#utility.yul\":3647:3769   */\n      pop\n      jump\t// out\n        /* \"#utility.yul\":3775:3914   */\n    tag_58:\n        /* \"#utility.yul\":3821:3826   */\n      0x00\n        /* \"#utility.yul\":3859:3865   */\n      dup2\n        /* \"#utility.yul\":3846:3866   */\n      calldataload\n        /* \"#utility.yul\":3837:3866   */\n      swap1\n      pop\n        /* \"#utility.yul\":3875:3908   */\n      tag_128\n        /* \"#utility.yul\":3902:3907   */\n      dup2\n        /* \"#utility.yul\":3875:3908   */\n      tag_57\n      jump\t// in\n    tag_128:\n        /* \"#utility.yul\":3775:3914   */\n      swap3\n      swap2\n      pop\n      pop\n      jump\t// out\n        /* \"#utility.yul\":3920:4249   */\n    tag_12:\n        /* \"#utility.yul\":3979:3985   */\n      0x00\n        /* \"#utility.yul\":4028:4030   */\n      0x20\n        /* \"#utility.yul\":4016:4025   */\n      dup3\n        /* \"#utility.yul\":4007:4014   */\n      dup5\n        /* \"#utility.yul\":4003:4026   */\n      sub\n        /* \"#utility.yul\":3999:4031   */\n      slt\n        /* \"#utility.yul\":3996:4115   */\n      iszero\n      tag_130\n      jumpi\n        /* \"#utility.yul\":4034:4113   */\n      tag_131\n      tag_41\n      jump\t// in\n    tag_131:\n        /* \"#utility.yul\":3996:4115   */\n    tag_130:\n        /* \"#utility.yul\":4154:4155   */\n      0x00\n        /* \"#utility.yul\":4179:4232   */\n      tag_132\n        /* \"#utility.yul\":4224:4231   */\n      dup5\n        /* \"#utility.yul\":4215:4221   */\n      dup3\n        /* \"#utility.yul\":4204:4213   */\n      dup6\n        /* \"#utility.yul\":4200:4222   */\n      add\n        /* \"#utility.yul\":4179:4232   */\n      tag_58\n      jump\t// in\n    tag_132:\n        /* \"#utility.yul\":4169:4232   */\n      swap2\n      pop\n        /* \"#utility.yul\":4125:4242   */\n      pop\n        /* \"#utility.yul\":3920:4249   */\n      swap3\n      swap2\n      pop\n      pop\n      jump\t// out\n        /* \"#utility.yul\":4255:4354   */\n    tag_59:\n        /* \"#utility.yul\":4307:4313   */\n      0x00\n        /* \"#utility.yul\":4341:4346   */\n      dup2\n        /* \"#utility.yul\":4335:4347   */\n      mload\n        /* \"#utility.yul\":4325:4347   */\n      swap1\n      pop\n        /* \"#utility.yul\":4255:4354   */\n      swap2\n      swap1\n      pop\n      jump\t// out\n        /* \"#utility.yul\":4360:4529   */\n    tag_60:\n        /* \"#utility.yul\":4444:4455   */\n      0x00\n        /* \"#utility.yul\":4478:4484   */\n      dup3\n        /* \"#utility.yul\":4473:4476   */\n      dup3\n        /* \"#utility.yul\":4466:4485   */\n      mstore\n        /* \"#utility.yul\":4518:4522   */\n      0x20\n        /* \"#utility.yul\":4513:4516   */\n      dup3\n        /* \"#utility.yul\":4509:4523   */\n      add\n        /* \"#utility.yul\":4494:4523   */\n      swap1\n      pop\n        /* \"#utility.yul\":4360:4529   */\n      swap3\n      swap2\n      pop\n      pop\n      jump\t// out\n        /* \"#utility.yul\":4535:4781   */\n    tag_61:\n        /* \"#utility.yul\":4616:4617   */\n      0x00\n        /* \"#utility.yul\":4626:4739   */\n    tag_136:\n        /* \"#utility.yul\":4640:4646   */\n      dup4\n        /* \"#utility.yul\":4637:4638   */\n      dup2\n        /* \"#utility.yul\":4634:4647   */\n      lt\n        /* \"#utility.yul\":4626:4739   */\n      iszero\n      tag_138\n      jumpi\n        /* \"#utility.yul\":4725:4726   */\n      dup1\n        /* \"#utility.yul\":4720:4723   */\n      dup3\n        /* \"#utility.yul\":4716:4727   */\n      add\n        /* \"#utility.yul\":4710:4728   */\n      mload\n        /* \"#utility.yul\":4706:4707   */\n      dup2\n        /* \"#utility.yul\":4701:4704   */\n      dup5\n        /* \"#utility.yul\":4697:4708   */\n      add\n        /* \"#utility.yul\":4690:4729   */\n      mstore\n        /* \"#utility.yul\":4662:4664   */\n      0x20\n        /* \"#utility.yul\":4659:4660   */\n      dup2\n        /* \"#utility.yul\":4655:4665   */\n      add\n        /* \"#utility.yul\":4650:4665   */\n      swap1\n      pop\n        /* \"#utility.yul\":4626:4739   */\n      jump(tag_136)\n    tag_138:\n        /* \"#utility.yul\":4773:4774   */\n      0x00\n        /* \"#utility.yul\":4764:4770   */\n      dup5\n        /* \"#utility.yul\":4759:4762   */\n      dup5\n        /* \"#utility.yul\":4755:4771   */\n      add\n        /* \"#utility.yul\":4748:4775   */\n      mstore\n        /* \"#utility.yul\":4597:4781   */\n      pop\n        /* \"#utility.yul\":4535:4781   */\n      pop\n      pop\n      pop\n      jump\t// out\n        /* \"#utility.yul\":4787:5164   */\n    tag_62:\n        /* \"#utility.yul\":4875:4878   */\n      0x00\n        /* \"#utility.yul\":4903:4942   */\n      tag_140\n        /* \"#utility.yul\":4936:4941   */\n      dup3\n        /* \"#utility.yul\":4903:4942   */\n      tag_59\n      jump\t// in\n    tag_140:\n        /* \"#utility.yul\":4958:5029   */\n      tag_141\n        /* \"#utility.yul\":5022:5028   */\n      dup2\n        /* \"#utility.yul\":5017:5020   */\n      dup6\n        /* \"#utility.yul\":4958:5029   */\n      tag_60\n      jump\t// in\n    tag_141:\n        /* \"#utility.yul\":4951:5029   */\n      swap4\n      pop\n        /* \"#utility.yul\":5038:5103   */\n      tag_142\n        /* \"#utility.yul\":5096:5102   */\n      dup2\n        /* \"#utility.yul\":5091:5094   */\n      dup6\n        /* \"#utility.yul\":5084:5088   */\n      0x20\n        /* \"#utility.yul\":5077:5082   */\n      dup7\n        /* \"#utility.yul\":5073:5089   */\n      add\n        /* \"#utility.yul\":5038:5103   */\n      tag_61\n      jump\t// in\n    tag_142:\n        /* \"#utility.yul\":5128:5157   */\n      tag_143\n        /* \"#utility.yul\":5150:5156   */\n      dup2\n        /* \"#utility.yul\":5128:5157   */\n      tag_45\n      jump\t// in\n    tag_143:\n        /* \"#utility.yul\":5123:5126   */\n      dup5\n        /* \"#utility.yul\":5119:5158   */\n      add\n        /* \"#utility.yul\":5112:5158   */\n      swap2\n      pop\n        /* \"#utility.yul\":4879:5164   */\n      pop\n        /* \"#utility.yul\":4787:5164   */\n      swap3\n      swap2\n      pop\n      pop\n      jump\t// out\n        /* \"#utility.yul\":5170:5288   */\n    tag_63:\n        /* \"#utility.yul\":5257:5281   */\n      tag_145\n        /* \"#utility.yul\":5275:5280   */\n      dup2\n        /* \"#utility.yul\":5257:5281   */\n      tag_56\n      jump\t// in\n    tag_145:\n        /* \"#utility.yul\":5252:5255   */\n      dup3\n        /* \"#utility.yul\":5245:5282   */\n      mstore\n        /* \"#utility.yul\":5170:5288   */\n      pop\n      pop\n      jump\t// out\n        /* \"#utility.yul\":5294:5717   */\n    tag_15:\n        /* \"#utility.yul\":5435:5439   */\n      0x00\n        /* \"#utility.yul\":5473:5475   */\n      0x40\n        /* \"#utility.yul\":5462:5471   */\n      dup3\n        /* \"#utility.yul\":5458:5476   */\n      add\n        /* \"#utility.yul\":5450:5476   */\n      swap1\n      pop\n        /* \"#utility.yul\":5522:5531   */\n      dup2\n        /* \"#utility.yul\":5516:5520   */\n      dup2\n        /* \"#utility.yul\":5512:5532   */\n      sub\n        /* \"#utility.yul\":5508:5509   */\n      0x00\n        /* \"#utility.yul\":5497:5506   */\n      dup4\n        /* \"#utility.yul\":5493:5510   */\n      add\n        /* \"#utility.yul\":5486:5533   */\n      mstore\n        /* \"#utility.yul\":5550:5628   */\n      tag_147\n        /* \"#utility.yul\":5623:5627   */\n      dup2\n        /* \"#utility.yul\":5614:5620   */\n      dup6\n        /* \"#utility.yul\":5550:5628   */\n      tag_62\n      jump\t// in\n    tag_147:\n        /* \"#utility.yul\":5542:5628   */\n      swap1\n      pop\n        /* \"#utility.yul\":5638:5710   */\n      tag_148\n        /* \"#utility.yul\":5706:5708   */\n      0x20\n        /* \"#utility.yul\":5695:5704   */\n      dup4\n        /* \"#utility.yul\":5691:5709   */\n      add\n        /* \"#utility.yul\":5682:5688   */\n      dup5\n        /* \"#utility.yul\":5638:5710   */\n      tag_63\n      jump\t// in\n    tag_148:\n        /* \"#utility.yul\":5294:5717   */\n      swap4\n      swap3\n      pop\n      pop\n      pop\n      jump\t// out\n        /* \"#utility.yul\":5723:6377   */\n    tag_18:\n        /* \"#utility.yul\":5801:5807   */\n      0x00\n        /* \"#utility.yul\":5809:5815   */\n      dup1\n        /* \"#utility.yul\":5858:5860   */\n      0x40\n        /* \"#utility.yul\":5846:5855   */\n      dup4\n        /* \"#utility.yul\":5837:5844   */\n      dup6\n        /* \"#utility.yul\":5833:5856   */\n      sub\n        /* \"#utility.yul\":5829:5861   */\n      slt\n        /* \"#utility.yul\":5826:5945   */\n      iszero\n      tag_150\n      jumpi\n        /* \"#utility.yul\":5864:5943   */\n      tag_151\n      tag_41\n      jump\t// in\n    tag_151:\n        /* \"#utility.yul\":5826:5945   */\n    tag_150:\n        /* \"#utility.yul\":6012:6013   */\n      0x00\n        /* \"#utility.yul\":6001:6010   */\n      dup4\n        /* \"#utility.yul\":5997:6014   */\n      add\n        /* \"#utility.yul\":5984:6015   */\n      calldataload\n        /* \"#utility.yul\":6042:6060   */\n      0xffffffffffffffff\n        /* \"#utility.yul\":6034:6040   */\n      dup2\n        /* \"#utility.yul\":6031:6061   */\n      gt\n        /* \"#utility.yul\":6028:6145   */\n      iszero\n      tag_152\n      jumpi\n        /* \"#utility.yul\":6064:6143   */\n      tag_153\n      tag_42\n      jump\t// in\n    tag_153:\n        /* \"#utility.yul\":6028:6145   */\n    tag_152:\n        /* \"#utility.yul\":6169:6232   */\n      tag_154\n        /* \"#utility.yul\":6224:6231   */\n      dup6\n        /* \"#utility.yul\":6215:6221   */\n      dup3\n        /* \"#utility.yul\":6204:6213   */\n      dup7\n        /* \"#utility.yul\":6200:6222   */\n      add\n        /* \"#utility.yul\":6169:6232   */\n      tag_52\n      jump\t// in\n    tag_154:\n        /* \"#utility.yul\":6159:6232   */\n      swap3\n      pop\n        /* \"#utility.yul\":5955:6242   */\n      pop\n        /* \"#utility.yul\":6281:6283   */\n      0x20\n        /* \"#utility.yul\":6307:6360   */\n      tag_155\n        /* \"#utility.yul\":6352:6359   */\n      dup6\n        /* \"#utility.yul\":6343:6349   */\n      dup3\n        /* \"#utility.yul\":6332:6341   */\n      dup7\n        /* \"#utility.yul\":6328:6350   */\n      add\n        /* \"#utility.yul\":6307:6360   */\n      tag_58\n      jump\t// in\n    tag_155:\n        /* \"#utility.yul\":6297:6360   */\n      swap2\n      pop\n        /* \"#utility.yul\":6252:6370   */\n      pop\n        /* \"#utility.yul\":5723:6377   */\n      swap3\n      pop\n      swap3\n      swap1\n      pop\n      jump\t// out\n        /* \"#utility.yul\":6383:6563   */\n    tag_24:\n        /* \"#utility.yul\":6431:6508   */\n      0x4e487b7100000000000000000000000000000000000000000000000000000000\n        /* \"#utility.yul\":6428:6429   */\n      0x00\n        /* \"#utility.yul\":6421:6509   */\n      mstore\n        /* \"#utility.yul\":6528:6532   */\n      0x32\n        /* \"#utility.yul\":6525:6526   */\n      0x04\n        /* \"#utility.yul\":6518:6533   */\n      mstore\n        /* \"#utility.yul\":6552:6556   */\n      0x24\n        /* \"#utility.yul\":6549:6550   */\n      0x00\n        /* \"#utility.yul\":6542:6557   */\n      revert\n        /* \"#utility.yul\":6569:6749   */\n    tag_64:\n        /* \"#utility.yul\":6617:6694   */\n      0x4e487b7100000000000000000000000000000000000000000000000000000000\n        /* \"#utility.yul\":6614:6615   */\n      0x00\n        /* \"#utility.yul\":6607:6695   */\n      mstore\n        /* \"#utility.yul\":6714:6718   */\n      0x22\n        /* \"#utility.yul\":6711:6712   */\n      0x04\n        /* \"#utility.yul\":6704:6719   */\n      mstore\n        /* \"#utility.yul\":6738:6742   */\n      0x24\n        /* \"#utility.yul\":6735:6736   */\n      0x00\n        /* \"#utility.yul\":6728:6743   */\n      revert\n        /* \"#utility.yul\":6755:7075   */\n    tag_30:\n        /* \"#utility.yul\":6799:6805   */\n      0x00\n        /* \"#utility.yul\":6836:6837   */\n      0x02\n        /* \"#utility.yul\":6830:6834   */\n      dup3\n        /* \"#utility.yul\":6826:6838   */\n      div\n        /* \"#utility.yul\":6816:6838   */\n      swap1\n      pop\n        /* \"#utility.yul\":6883:6884   */\n      0x01\n        /* \"#utility.yul\":6877:6881   */\n      dup3\n        /* \"#utility.yul\":6873:6885   */\n      and\n        /* \"#utility.yul\":6904:6922   */\n      dup1\n        /* \"#utility.yul\":6894:6975   */\n      tag_159\n      jumpi\n        /* \"#utility.yul\":6960:6964   */\n      0x7f\n        /* \"#utility.yul\":6952:6958   */\n      dup3\n        /* \"#utility.yul\":6948:6965   */\n      and\n        /* \"#utility.yul\":6938:6965   */\n      swap2\n      pop\n        /* \"#utility.yul\":6894:6975   */\n    tag_159:\n        /* \"#utility.yul\":7022:7024   */\n      0x20\n        /* \"#utility.yul\":7014:7020   */\n      dup3\n        /* \"#utility.yul\":7011:7025   */\n      lt\n        /* \"#utility.yul\":6991:7009   */\n      dup2\n        /* \"#utility.yul\":6988:7026   */\n      sub\n        /* \"#utility.yul\":6985:7069   */\n      tag_160\n      jumpi\n        /* \"#utility.yul\":7041:7059   */\n      tag_161\n      tag_64\n      jump\t// in\n    tag_161:\n        /* \"#utility.yul\":6985:7069   */\n    tag_160:\n        /* \"#utility.yul\":6806:7075   */\n      pop\n        /* \"#utility.yul\":6755:7075   */\n      swap2\n      swap1\n      pop\n      jump\t// out\n        /* \"#utility.yul\":7081:7222   */\n    tag_65:\n        /* \"#utility.yul\":7130:7134   */\n      0x00\n        /* \"#utility.yul\":7153:7156   */\n      dup2\n        /* \"#utility.yul\":7145:7156   */\n      swap1\n      pop\n        /* \"#utility.yul\":7176:7179   */\n      dup2\n        /* \"#utility.yul\":7173:7174   */\n      0x00\n        /* \"#utility.yul\":7166:7180   */\n      mstore\n        /* \"#utility.yul\":7210:7214   */\n      0x20\n        /* \"#utility.yul\":7207:7208   */\n      0x00\n        /* \"#utility.yul\":7197:7215   */\n      keccak256\n        /* \"#utility.yul\":7189:7215   */\n      swap1\n      pop\n        /* \"#utility.yul\":7081:7222   */\n      swap2\n      swap1\n      pop\n      jump\t// out\n        /* \"#utility.yul\":7228:7321   */\n    tag_66:\n        /* \"#utility.yul\":7265:7271   */\n      0x00\n        /* \"#utility.yul\":7312:7314   */\n      0x20\n        /* \"#utility.yul\":7307:7309   */\n      0x1f\n        /* \"#utility.yul\":7300:7305   */\n      dup4\n        /* \"#utility.yul\":7296:7310   */\n      add\n        /* \"#utility.yul\":7292:7315   */\n      div\n        /* \"#utility.yul\":7282:7315   */\n      swap1\n      pop\n        /* \"#utility.yul\":7228:7321   */\n      swap2\n      swap1\n      pop\n      jump\t// out\n        /* \"#utility.yul\":7327:7434   */\n    tag_67:\n        /* \"#utility.yul\":7371:7379   */\n      0x00\n        /* \"#utility.yul\":7421:7426   */\n      dup3\n        /* \"#utility.yul\":7415:7419   */\n      dup3\n        /* \"#utility.yul\":7411:7427   */\n      shl\n        /* \"#utility.yul\":7390:7427   */\n      swap1\n      pop\n        /* \"#utility.yul\":7327:7434   */\n      swap3\n      swap2\n      pop\n      pop\n      jump\t// out\n        /* \"#utility.yul\":7440:7833   */\n    tag_68:\n        /* \"#utility.yul\":7509:7515   */\n      0x00\n        /* \"#utility.yul\":7559:7560   */\n      0x08\n        /* \"#utility.yul\":7547:7557   */\n      dup4\n        /* \"#utility.yul\":7543:7561   */\n      mul\n        /* \"#utility.yul\":7582:7679   */\n      tag_166\n        /* \"#utility.yul\":7612:7678   */\n      0xffffffffffffffffffffffffffffffffffffffffffffffffffffffffffffffff\n        /* \"#utility.yul\":7601:7610   */\n      dup3\n        /* \"#utility.yul\":7582:7679   */\n      tag_67\n      jump\t// in\n    tag_166:\n        /* \"#utility.yul\":7700:7739   */\n      tag_167\n        /* \"#utility.yul\":7730:7738   */\n      dup7\n        /* \"#utility.yul\":7719:7728   */\n      dup4\n        /* \"#utility.yul\":7700:7739   */\n      tag_67\n      jump\t// in\n    tag_167:\n        /* \"#utility.yul\":7688:7739   */\n      swap6\n      pop\n        /* \"#utility.yul\":7772:7776   */\n      dup1\n        /* \"#utility.yul\":7768:7777   */\n      not\n        /* \"#utility.yul\":7761:7766   */\n      dup5\n        /* \"#utility.yul\":7757:7778   */\n      and\n        /* \"#utility.yul\":7748:7778   */\n      swap4\n      pop\n        /* \"#utility.yul\":7821:7825   */\n      dup1\n        /* \"#utility.yul\":7811:7819   */\n      dup7\n        /* \"#utility.yul\":7807:7826   */\n      and\n        /* \"#utility.yul\":7800:7805   */\n      dup5\n        /* \"#utility.yul\":7797:7827   */\n      or\n        /* \"#utility.yul\":7787:7827   */\n      swap3\n      pop\n        /* \"#utility.yul\":7516:7833   */\n      pop\n      pop\n        /* \"#utility.yul\":7440:7833   */\n      swap4\n      swap3\n      pop\n      pop\n      pop\n      jump\t// out\n        /* \"#utility.yul\":7839:7899   */\n    tag_69:\n        /* \"#utility.yul\":7867:7870   */\n      0x00\n        /* \"#utility.yul\":7888:7893   */\n      dup2\n        /* \"#utility.yul\":7881:7893   */\n      swap1\n      pop\n        /* \"#utility.yul\":7839:7899   */\n      swap2\n      swap1\n      pop\n      jump\t// out\n        /* \"#utility.yul\":7905:8047   */\n    tag_70:\n        /* \"#utility.yul\":7955:7964   */\n      0x00\n        /* \"#utility.yul\":7988:8041   */\n      tag_170\n        /* \"#utility.yul\":8006:8040   */\n      tag_171\n        /* \"#utility.yul\":8015:8039   */\n      tag_172\n        /* \"#utility.yul\":8033:8038   */\n      dup5\n        /* \"#utility.yul\":8015:8039   */\n      tag_56\n      jump\t// in\n    tag_172:\n        /* \"#utility.yul\":8006:8040   */\n      tag_69\n      jump\t// in\n    tag_171:\n        /* \"#utility.yul\":7988:8041   */\n      tag_56\n      jump\t// in\n    tag_170:\n        /* \"#utility.yul\":7975:8041   */\n      swap1\n      pop\n        /* \"#utility.yul\":7905:8047   */\n      swap2\n      swap1\n      pop\n      jump\t// out\n        /* \"#utility.yul\":8053:8128   */\n    tag_71:\n        /* \"#utility.yul\":8096:8099   */\n      0x00\n        /* \"#utility.yul\":8117:8122   */\n      dup2\n        /* \"#utility.yul\":8110:8122   */\n      swap1\n      pop\n        /* \"#utility.yul\":8053:8128   */\n      swap2\n      swap1\n      pop\n      jump\t// out\n        /* \"#utility.yul\":8134:8403   */\n    tag_72:\n        /* \"#utility.yul\":8244:8283   */\n      tag_175\n        /* \"#utility.yul\":8275:8282   */\n      dup4\n        /* \"#utility.yul\":8244:8283   */\n      tag_70\n      jump\t// in\n    tag_175:\n        /* \"#utility.yul\":8305:8396   */\n      tag_176\n        /* \"#utility.yul\":8354:8395   */\n      tag_177\n        /* \"#utility.yul\":8378:8394   */\n      dup3\n        /* \"#utility.yul\":8354:8395   */\n      tag_71\n      jump\t// in\n    tag_177:\n        /* \"#utility.yul\":8346:8352   */\n      dup5\n        /* \"#utility.yul\":8339:8343   */\n      dup5\n        /* \"#utility.yul\":8333:8344   */\n      sload\n        /* \"#utility.yul\":8305:8396   */\n      tag_68\n      jump\t// in\n    tag_176:\n        /* \"#utility.yul\":8299:8303   */\n      dup3\n        /* \"#utility.yul\":8292:8397   */\n      sstore\n        /* \"#utility.yul\":8210:8403   */\n      pop\n        /* \"#utility.yul\":8134:8403   */\n      pop\n      pop\n      pop\n      jump\t// out\n        /* \"#utility.yul\":8409:8482   */\n    tag_73:\n        /* \"#utility.yul\":8454:8457   */\n      0x00\n        /* \"#utility.yul\":8409:8482   */\n      swap1\n      jump\t// out\n        /* \"#utility.yul\":8488:8677   */\n    tag_74:\n        /* \"#utility.yul\":8565:8597   */\n      tag_180\n      tag_73\n      jump\t// in\n    tag_180:\n        /* \"#utility.yul\":8606:8671   */\n      tag_181\n        /* \"#utility.yul\":8664:8670   */\n      dup2\n        /* \"#utility.yul\":8656:8662   */\n      dup5\n        /* \"#utility.yul\":8650:8654   */\n      dup5\n        /* \"#utility.yul\":8606:8671   */\n      tag_72\n      jump\t// in\n    tag_181:\n        /* \"#utility.yul\":8541:8677   */\n      pop\n        /* \"#utility.yul\":8488:8677   */\n      pop\n      pop\n      jump\t// out\n        /* \"#utility.yul\":8683:8869   */\n    tag_75:\n        /* \"#utility.yul\":8743:8863   */\n    tag_183:\n        /* \"#utility.yul\":8760:8763   */\n      dup2\n        /* \"#utility.yul\":8753:8758   */\n      dup2\n        /* \"#utility.yul\":8750:8764   */\n      lt\n        /* \"#utility.yul\":8743:8863   */\n      iszero\n      tag_185\n      jumpi\n        /* \"#utility.yul\":8814:8853   */\n      tag_186\n        /* \"#utility.yul\":8851:8852   */\n      0x00\n        /* \"#utility.yul\":8844:8849   */\n      dup3\n        /* \"#utility.yul\":8814:8853   */\n      tag_74\n      jump\t// in\n    tag_186:\n        /* \"#utility.yul\":8787:8788   */\n      0x01\n        /* \"#utility.yul\":8780:8785   */\n      dup2\n        /* \"#utility.yul\":8776:8789   */\n      add\n        /* \"#utility.yul\":8767:8789   */\n      swap1\n      pop\n        /* \"#utility.yul\":8743:8863   */\n      jump(tag_183)\n    tag_185:\n        /* \"#utility.yul\":8683:8869   */\n      pop\n      pop\n      jump\t// out\n        /* \"#utility.yul\":8875:9418   */\n    tag_76:\n        /* \"#utility.yul\":8976:8978   */\n      0x1f\n        /* \"#utility.yul\":8971:8974   */\n      dup3\n        /* \"#utility.yul\":8968:8979   */\n      gt\n        /* \"#utility.yul\":8965:9411   */\n      iszero\n      tag_188\n      jumpi\n        /* \"#utility.yul\":9010:9048   */\n      tag_189\n        /* \"#utility.yul\":9042:9047   */\n      dup2\n        /* \"#utility.yul\":9010:9048   */\n      tag_65\n      jump\t// in\n    tag_189:\n        /* \"#utility.yul\":9094:9123   */\n      tag_190\n        /* \"#utility.yul\":9112:9122   */\n      dup5\n        /* \"#utility.yul\":9094:9123   */\n      tag_66\n      jump\t// in\n    tag_190:\n        /* \"#utility.yul\":9084:9092   */\n      dup2\n        /* \"#utility.yul\":9080:9124   */\n      add\n        /* \"#utility.yul\":9277:9279   */\n      0x20\n        /* \"#utility.yul\":9265:9275   */\n      dup6\n        /* \"#utility.yul\":9262:9280   */\n      lt\n        /* \"#utility.yul\":9259:9308   */\n      iszero\n      tag_191\n      jumpi\n        /* \"#utility.yul\":9298:9306   */\n      dup2\n        /* \"#utility.yul\":9283:9306   */\n      swap1\n      pop\n        /* \"#utility.yul\":9259:9308   */\n    tag_191:\n        /* \"#utility.yul\":9321:9401   */\n      tag_192\n        /* \"#utility.yul\":9377:9399   */\n      tag_193\n        /* \"#utility.yul\":9395:9398   */\n      dup6\n        /* \"#utility.yul\":9377:9399   */\n      tag_66\n      jump\t// in\n    tag_193:\n        /* \"#utility.yul\":9367:9375   */\n      dup4\n        /* \"#utility.yul\":9363:9400   */\n      add\n        /* \"#utility.yul\":9350:9361   */\n      dup3\n        /* \"#utility.yul\":9321:9401   */\n      tag_75\n      jump\t// in\n    tag_192:\n        /* \"#utility.yul\":8980:9411   */\n      pop\n      pop\n        /* \"#utility.yul\":8965:9411   */\n    tag_188:\n        /* \"#utility.yul\":8875:9418   */\n      pop\n      pop\n      pop\n      jump\t// out\n        /* \"#utility.yul\":9424:9541   */\n    tag_77:\n        /* \"#utility.yul\":9478:9486   */\n      0x00\n        /* \"#utility.yul\":9528:9533   */\n      dup3\n        /* \"#utility.yul\":9522:9526   */\n      dup3\n        /* \"#utility.yul\":9518:9534   */\n      shr\n        /* \"#utility.yul\":9497:9534   */\n      swap1\n      pop\n        /* \"#utility.yul\":9424:9541   */\n      swap3\n      swap2\n      pop\n      pop\n      jump\t// out\n        /* \"#utility.yul\":9547:9716   */\n    tag_78:\n        /* \"#utility.yul\":9591:9597   */\n      0x00\n        /* \"#utility.yul\":9624:9675   */\n      tag_196\n        /* \"#utility.yul\":9672:9673   */\n      0x00\n        /* \"#utility.yul\":9668:9674   */\n      not\n        /* \"#utility.yul\":9660:9665   */\n      dup5\n        /* \"#utility.yul\":9657:9658   */\n      0x08\n        /* \"#utility.yul\":9653:9666   */\n      mul\n        /* \"#utility.yul\":9624:9675   */\n      tag_77\n      jump\t// in\n    tag_196:\n        /* \"#utility.yul\":9620:9676   */\n      not\n        /* \"#utility.yul\":9705:9709   */\n      dup1\n        /* \"#utility.yul\":9699:9703   */\n      dup4\n        /* \"#utility.yul\":9695:9710   */\n      and\n        /* \"#utility.yul\":9685:9710   */\n      swap2\n      pop\n        /* \"#utility.yul\":9598:9716   */\n      pop\n        /* \"#utility.yul\":9547:9716   */\n      swap3\n      swap2\n      pop\n      pop\n      jump\t// out\n        /* \"#utility.yul\":9721:10016   */\n    tag_79:\n        /* \"#utility.yul\":9797:9801   */\n      0x00\n        /* \"#utility.yul\":9943:9972   */\n      tag_198\n        /* \"#utility.yul\":9968:9971   */\n      dup4\n        /* \"#utility.yul\":9962:9966   */\n      dup4\n        /* \"#utility.yul\":9943:9972   */\n      tag_78\n      jump\t// in\n    tag_198:\n        /* \"#utility.yul\":9935:9972   */\n      swap2\n      pop\n        /* \"#utility.yul\":10005:10008   */\n      dup3\n        /* \"#utility.yul\":10002:10003   */\n      0x02\n        /* \"#utility.yul\":9998:10009   */\n      mul\n        /* \"#utility.yul\":9992:9996   */\n      dup3\n        /* \"#utility.yul\":9989:10010   */\n      or\n        /* \"#utility.yul\":9981:10010   */\n      swap1\n      pop\n        /* \"#utility.yul\":9721:10016   */\n      swap3\n      swap2\n      pop\n      pop\n      jump\t// out\n        /* \"#utility.yul\":10021:11416   */\n    tag_38:\n        /* \"#utility.yul\":10138:10175   */\n      tag_200\n        /* \"#utility.yul\":10171:10174   */\n      dup3\n        /* \"#utility.yul\":10138:10175   */\n      tag_59\n      jump\t// in\n    tag_200:\n        /* \"#utility.yul\":10240:10258   */\n      0xffffffffffffffff\n        /* \"#utility.yul\":10232:10238   */\n      dup2\n        /* \"#utility.yul\":10229:10259   */\n      gt\n        /* \"#utility.yul\":10226:10282   */\n      iszero\n      tag_201\n      jumpi\n        /* \"#utility.yul\":10262:10280   */\n      tag_202\n      tag_46\n      jump\t// in\n    tag_202:\n        /* \"#utility.yul\":10226:10282   */\n    tag_201:\n        /* \"#utility.yul\":10306:10344   */\n      tag_203\n        /* \"#utility.yul\":10338:10342   */\n      dup3\n        /* \"#utility.yul\":10332:10343   */\n      sload\n        /* \"#utility.yul\":10306:10344   */\n      tag_30\n      jump\t// in\n    tag_203:\n        /* \"#utility.yul\":10391:10458   */\n      tag_204\n        /* \"#utility.yul\":10451:10457   */\n      dup3\n        /* \"#utility.yul\":10443:10449   */\n      dup3\n        /* \"#utility.yul\":10437:10441   */\n      dup6\n        /* \"#utility.yul\":10391:10458   */\n      tag_76\n      jump\t// in\n    tag_204:\n        /* \"#utility.yul\":10485:10486   */\n      0x00\n        /* \"#utility.yul\":10509:10513   */\n      0x20\n        /* \"#utility.yul\":10496:10513   */\n      swap1\n      pop\n        /* \"#utility.yul\":10541:10543   */\n      0x1f\n        /* \"#utility.yul\":10533:10539   */\n      dup4\n        /* \"#utility.yul\":10530:10544   */\n      gt\n        /* \"#utility.yul\":10558:10559   */\n      0x01\n        /* \"#utility.yul\":10553:11171   */\n      dup2\n      eq\n      tag_206\n      jumpi\n        /* \"#utility.yul\":11215:11216   */\n      0x00\n        /* \"#utility.yul\":11232:11238   */\n      dup5\n        /* \"#utility.yul\":11229:11306   */\n      iszero\n      tag_207\n      jumpi\n        /* \"#utility.yul\":11281:11290   */\n      dup3\n        /* \"#utility.yul\":11276:11279   */\n      dup8\n        /* \"#utility.yul\":11272:11291   */\n      add\n        /* \"#utility.yul\":11266:11292   */\n      mload\n        /* \"#utility.yul\":11257:11292   */\n      swap1\n      pop\n        /* \"#utility.yul\":11229:11306   */\n    tag_207:\n        /* \"#utility.yul\":11332:11399   */\n      tag_208\n        /* \"#utility.yul\":11392:11398   */\n      dup6\n        /* \"#utility.yul\":11385:11390   */\n      dup3\n        /* \"#utility.yul\":11332:11399   */\n      tag_79\n      jump\t// in\n    tag_208:\n        /* \"#utility.yul\":11326:11330   */\n      dup7\n        /* \"#utility.yul\":11319:11400   */\n      sstore\n        /* \"#utility.yul\":11188:11410   */\n      pop\n        /* \"#utility.yul\":10523:11410   */\n      jump(tag_205)\n        /* \"#utility.yul\":10553:11171   */\n    tag_206:\n        /* \"#utility.yul\":10605:10609   */\n      0x1f\n        /* \"#utility.yul\":10601:10610   */\n      not\n        /* \"#utility.yul\":10593:10599   */\n      dup5\n        /* \"#utility.yul\":10589:10611   */\n      and\n        /* \"#utility.yul\":10639:10676   */\n      tag_209\n        /* \"#utility.yul\":10671:10675   */\n      dup7\n        /* \"#utility.yul\":10639:10676   */\n      tag_65\n      jump\t// in\n    tag_209:\n        /* \"#utility.yul\":10698:10699   */\n      0x00\n        /* \"#utility.yul\":10712:10920   */\n    tag_210:\n        /* \"#utility.yul\":10726:10733   */\n      dup3\n        /* \"#utility.yul\":10723:10724   */\n      dup2\n        /* \"#utility.yul\":10720:10734   */\n      lt\n        /* \"#utility.yul\":10712:10920   */\n      iszero\n      tag_212\n      jumpi\n        /* \"#utility.yul\":10805:10814   */\n      dup5\n        /* \"#utility.yul\":10800:10803   */\n      dup10\n        /* \"#utility.yul\":10796:10815   */\n      add\n        /* \"#utility.yul\":10790:10816   */\n      mload\n        /* \"#utility.yul\":10782:10788   */\n      dup3\n        /* \"#utility.yul\":10775:10817   */\n      sstore\n        /* \"#utility.yul\":10856:10857   */\n      0x01\n        /* \"#utility.yul\":10848:10854   */\n      dup3\n        /* \"#utility.yul\":10844:10858   */\n      add\n        /* \"#utility.yul\":10834:10858   */\n      swap2\n      pop\n        /* \"#utility.yul\":10903:10905   */\n      0x20\n        /* \"#utility.yul\":10892:10901   */\n      dup6\n        /* \"#utility.yul\":10888:10906   */\n      add\n        /* \"#utility.yul\":10875:10906   */\n      swap5\n      pop\n        /* \"#utility.yul\":10749:10753   */\n      0x20\n        /* \"#utility.yul\":10746:10747   */\n      dup2\n        /* \"#utility.yul\":10742:10754   */\n      add\n        /* \"#utility.yul\":10737:10754   */\n      swap1\n      pop\n        /* \"#utility.yul\":10712:10920   */\n      jump(tag_210)\n    tag_212:\n        /* \"#utility.yul\":10948:10954   */\n      dup7\n        /* \"#utility.yul\":10939:10946   */\n      dup4\n        /* \"#utility.yul\":10936:10955   */\n      lt\n        /* \"#utility.yul\":10933:11112   */\n      iszero\n      tag_213\n      jumpi\n        /* \"#utility.yul\":11006:11015   */\n      dup5\n        /* \"#utility.yul\":11001:11004   */\n      dup10\n        /* \"#utility.yul\":10997:11016   */\n      add\n        /* \"#utility.yul\":10991:11017   */\n      mload\n        /* \"#utility.yul\":11049:11097   */\n      tag_214\n        /* \"#utility.yul\":11091:11095   */\n      0x1f\n        /* \"#utility.yul\":11083:11089   */\n      dup10\n        /* \"#utility.yul\":11079:11096   */\n      and\n        /* \"#utility.yul\":11068:11077   */\n      dup3\n        /* \"#utility.yul\":11049:11097   */\n      tag_78\n      jump\t// in\n    tag_214:\n        /* \"#utility.yul\":11041:11047   */\n      dup4\n        /* \"#utility.yul\":11034:11098   */\n      sstore\n        /* \"#utility.yul\":10956:11112   */\n      pop\n        /* \"#utility.yul\":10933:11112   */\n    tag_213:\n        /* \"#utility.yul\":11158:11159   */\n      0x01\n        /* \"#utility.yul\":11154:11155   */\n      0x02\n        /* \"#utility.yul\":11146:11152   */\n      dup9\n        /* \"#utility.yul\":11142:11156   */\n      mul\n        /* \"#utility.yul\":11138:11160   */\n      add\n        /* \"#utility.yul\":11132:11136   */\n      dup9\n        /* \"#utility.yul\":11125:11161   */\n      sstore\n        /* \"#utility.yul\":10560:11171   */\n      pop\n      pop\n      pop\n        /* \"#utility.yul\":10523:11410   */\n    tag_205:\n      pop\n        /* \"#utility.yul\":10113:11416   */\n      pop\n      pop\n      pop\n        /* \"#utility.yul\":10021:11416   */\n      pop\n      pop\n      jump\t// out\n\n    auxdata: 0xa2646970667358221220b0633e95e890dced18900b11e921f1c4a5e55c0cda1b5afdc970a2411f76a57664736f6c63430008140033\n}\n",
				"bytecode": {
					"linkReferences": {},
					"object": "608060405234801561000f575f80fd5b5061086b8061001d5f395ff3fe608060405234801561000f575f80fd5b506004361061003f575f3560e01c80635f6efd501461004357806386a9b3641461005f578063a7cc158214610090575b5f80fd5b61005d60048036038101906100589190610376565b6100ac565b005b61007960048036038101906100749190610403565b6100c9565b6040516100879291906104b7565b60405180910390f35b6100aa60048036038101906100a591906104e5565b610198565b005b8060015f6101000a81548160ff0219169083151502179055505050565b60605f600283815481106100e0576100df61053f565b5b905f5260205f2001600384815481106100fc576100fb61053f565b5b905f5260205f20015481805461011190610599565b80601f016020809104026020016040519081016040528092919081815260200182805461013d90610599565b80156101885780601f1061015f57610100808354040283529160200191610188565b820191905f5260205f20905b81548152906001019060200180831161016b57829003601f168201915b5050505050915091509150915091565b600282908060018154018082558091505060019003905f5260205f20015f9091909190915090816101c99190610766565b50600381908060018154018082558091505060019003905f5260205f20015f90919091909150555050565b5f604051905090565b5f80fd5b5f80fd5b5f80fd5b5f80fd5b5f601f19601f8301169050919050565b7f4e487b71000000000000000000000000000000000000000000000000000000005f52604160045260245ffd5b6102538261020d565b810181811067ffffffffffffffff821117156102725761027161021d565b5b80604052505050565b5f6102846101f4565b9050610290828261024a565b919050565b5f67ffffffffffffffff8211156102af576102ae61021d565b5b6102b88261020d565b9050602081019050919050565b828183375f83830152505050565b5f6102e56102e084610295565b61027b565b90508281526020810184848401111561030157610300610209565b5b61030c8482856102c5565b509392505050565b5f82601f83011261032857610327610205565b5b81356103388482602086016102d3565b91505092915050565b5f8115159050919050565b61035581610341565b811461035f575f80fd5b50565b5f813590506103708161034c565b92915050565b5f806040838503121561038c5761038b6101fd565b5b5f83013567ffffffffffffffff8111156103a9576103a8610201565b5b6103b585828601610314565b92505060206103c685828601610362565b9150509250929050565b5f819050919050565b6103e2816103d0565b81146103ec575f80fd5b50565b5f813590506103fd816103d9565b92915050565b5f60208284031215610418576104176101fd565b5b5f610425848285016103ef565b91505092915050565b5f81519050919050565b5f82825260208201905092915050565b5f5b8381101561046557808201518184015260208101905061044a565b5f8484015250505050565b5f61047a8261042e565b6104848185610438565b9350610494818560208601610448565b61049d8161020d565b840191505092915050565b6104b1816103d0565b82525050565b5f6040820190508181035f8301526104cf8185610470565b90506104de60208301846104a8565b9392505050565b5f80604083850312156104fb576104fa6101fd565b5b5f83013567ffffffffffffffff81111561051857610517610201565b5b61052485828601610314565b9250506020610535858286016103ef565b9150509250929050565b7f4e487b71000000000000000000000000000000000000000000000000000000005f52603260045260245ffd5b7f4e487b71000000000000000000000000000000000000000000000000000000005f52602260045260245ffd5b5f60028204905060018216806105b057607f821691505b6020821081036105c3576105c261056c565b5b50919050565b5f819050815f5260205f209050919050565b5f6020601f8301049050919050565b5f82821b905092915050565b5f600883026106257fffffffffffffffffffffffffffffffffffffffffffffffffffffffffffffffff826105ea565b61062f86836105ea565b95508019841693508086168417925050509392505050565b5f819050919050565b5f61066a610665610660846103d0565b610647565b6103d0565b9050919050565b5f819050919050565b61068383610650565b61069761068f82610671565b8484546105f6565b825550505050565b5f90565b6106ab61069f565b6106b681848461067a565b505050565b5b818110156106d9576106ce5f826106a3565b6001810190506106bc565b5050565b601f82111561071e576106ef816105c9565b6106f8846105db565b81016020851015610707578190505b61071b610713856105db565b8301826106bb565b50505b505050565b5f82821c905092915050565b5f61073e5f1984600802610723565b1980831691505092915050565b5f610756838361072f565b9150826002028217905092915050565b61076f8261042e565b67ffffffffffffffff8111156107885761078761021d565b5b6107928254610599565b61079d8282856106dd565b5f60209050601f8311600181146107ce575f84156107bc578287015190505b6107c6858261074b565b86555061082d565b601f1984166107dc866105c9565b5f5b82811015610803578489015182556001820191506020850194506020810190506107de565b86831015610820578489015161081c601f89168261072f565b8355505b6001600288020188555050505b50505050505056fea2646970667358221220b0633e95e890dced18900b11e921f1c4a5e55c0cda1b5afdc970a2411f76a57664736f6c63430008140033",
					"opcodes": "PUSH1 0x80 PUSH1 0x40 MSTORE CALLVALUE DUP1 ISZERO PUSH2 0xF JUMPI PUSH0 DUP1 REVERT JUMPDEST POP PUSH2 0x86B DUP1 PUSH2 0x1D PUSH0 CODECOPY PUSH0 RETURN INVALID PUSH1 0x80 PUSH1 0x40 MSTORE CALLVALUE DUP1 ISZERO PUSH2 0xF JUMPI PUSH0 DUP1 REVERT JUMPDEST POP PUSH1 0x4 CALLDATASIZE LT PUSH2 0x3F JUMPI PUSH0 CALLDATALOAD PUSH1 0xE0 SHR DUP1 PUSH4 0x5F6EFD50 EQ PUSH2 0x43 JUMPI DUP1 PUSH4 0x86A9B364 EQ PUSH2 0x5F JUMPI DUP1 PUSH4 0xA7CC1582 EQ PUSH2 0x90 JUMPI JUMPDEST PUSH0 DUP1 REVERT JUMPDEST PUSH2 0x5D PUSH1 0x4 DUP1 CALLDATASIZE SUB DUP2 ADD SWAP1 PUSH2 0x58 SWAP2 SWAP1 PUSH2 0x376 JUMP JUMPDEST PUSH2 0xAC JUMP JUMPDEST STOP JUMPDEST PUSH2 0x79 PUSH1 0x4 DUP1 CALLDATASIZE SUB DUP2 ADD SWAP1 PUSH2 0x74 SWAP2 SWAP1 PUSH2 0x403 JUMP JUMPDEST PUSH2 0xC9 JUMP JUMPDEST PUSH1 0x40 MLOAD PUSH2 0x87 SWAP3 SWAP2 SWAP1 PUSH2 0x4B7 JUMP JUMPDEST PUSH1 0x40 MLOAD DUP1 SWAP2 SUB SWAP1 RETURN JUMPDEST PUSH2 0xAA PUSH1 0x4 DUP1 CALLDATASIZE SUB DUP2 ADD SWAP1 PUSH2 0xA5 SWAP2 SWAP1 PUSH2 0x4E5 JUMP JUMPDEST PUSH2 0x198 JUMP JUMPDEST STOP JUMPDEST DUP1 PUSH1 0x1 PUSH0 PUSH2 0x100 EXP DUP2 SLOAD DUP2 PUSH1 0xFF MUL NOT AND SWAP1 DUP4 ISZERO ISZERO MUL OR SWAP1 SSTORE POP POP POP JUMP JUMPDEST PUSH1 0x60 PUSH0 PUSH1 0x2 DUP4 DUP2 SLOAD DUP2 LT PUSH2 0xE0 JUMPI PUSH2 0xDF PUSH2 0x53F JUMP JUMPDEST JUMPDEST SWAP1 PUSH0 MSTORE PUSH1 0x20 PUSH0 KECCAK256 ADD PUSH1 0x3 DUP5 DUP2 SLOAD DUP2 LT PUSH2 0xFC JUMPI PUSH2 0xFB PUSH2 0x53F JUMP JUMPDEST JUMPDEST SWAP1 PUSH0 MSTORE PUSH1 0x20 PUSH0 KECCAK256 ADD SLOAD DUP2 DUP1 SLOAD PUSH2 0x111 SWAP1 PUSH2 0x599 JUMP JUMPDEST DUP1 PUSH1 0x1F ADD PUSH1 0x20 DUP1 SWAP2 DIV MUL PUSH1 0x20 ADD PUSH1 0x40 MLOAD SWAP1 DUP2 ADD PUSH1 0x40 MSTORE DUP1 SWAP3 SWAP2 SWAP1 DUP2 DUP2 MSTORE PUSH1 0x20 ADD DUP3 DUP1 SLOAD PUSH2 0x13D SWAP1 PUSH2 0x599 JUMP JUMPDEST DUP1 ISZERO PUSH2 0x188 JUMPI DUP1 PUSH1 0x1F LT PUSH2 0x15F JUMPI PUSH2 0x100 DUP1 DUP4 SLOAD DIV MUL DUP4 MSTORE SWAP2 PUSH1 0x20 ADD SWAP2 PUSH2 0x188 JUMP JUMPDEST DUP3 ADD SWAP2 SWAP1 PUSH0 MSTORE PUSH1 0x20 PUSH0 KECCAK256 SWAP1 JUMPDEST DUP2 SLOAD DUP2 MSTORE SWAP1 PUSH1 0x1 ADD SWAP1 PUSH1 0x20 ADD DUP1 DUP4 GT PUSH2 0x16B JUMPI DUP3 SWAP1 SUB PUSH1 0x1F AND DUP3 ADD SWAP2 JUMPDEST POP POP POP POP POP SWAP2 POP SWAP2 POP SWAP2 POP SWAP2 POP SWAP2 JUMP JUMPDEST PUSH1 0x2 DUP3 SWAP1 DUP1 PUSH1 0x1 DUP2 SLOAD ADD DUP1 DUP3 SSTORE DUP1 SWAP2 POP POP PUSH1 0x1 SWAP1 SUB SWAP1 PUSH0 MSTORE PUSH1 0x20 PUSH0 KECCAK256 ADD PUSH0 SWAP1 SWAP2 SWAP1 SWAP2 SWAP1 SWAP2 POP SWAP1 DUP2 PUSH2 0x1C9 SWAP2 SWAP1 PUSH2 0x766 JUMP JUMPDEST POP PUSH1 0x3 DUP2 SWAP1 DUP1 PUSH1 0x1 DUP2 SLOAD ADD DUP1 DUP3 SSTORE DUP1 SWAP2 POP POP PUSH1 0x1 SWAP1 SUB SWAP1 PUSH0 MSTORE PUSH1 0x20 PUSH0 KECCAK256 ADD PUSH0 SWAP1 SWAP2 SWAP1 SWAP2 SWAP1 SWAP2 POP SSTORE POP POP JUMP JUMPDEST PUSH0 PUSH1 0x40 MLOAD SWAP1 POP SWAP1 JUMP JUMPDEST PUSH0 DUP1 REVERT JUMPDEST PUSH0 DUP1 REVERT JUMPDEST PUSH0 DUP1 REVERT JUMPDEST PUSH0 DUP1 REVERT JUMPDEST PUSH0 PUSH1 0x1F NOT PUSH1 0x1F DUP4 ADD AND SWAP1 POP SWAP2 SWAP1 POP JUMP JUMPDEST PUSH32 0x4E487B7100000000000000000000000000000000000000000000000000000000 PUSH0 MSTORE PUSH1 0x41 PUSH1 0x4 MSTORE PUSH1 0x24 PUSH0 REVERT JUMPDEST PUSH2 0x253 DUP3 PUSH2 0x20D JUMP JUMPDEST DUP2 ADD DUP2 DUP2 LT PUSH8 0xFFFFFFFFFFFFFFFF DUP3 GT OR ISZERO PUSH2 0x272 JUMPI PUSH2 0x271 PUSH2 0x21D JUMP JUMPDEST JUMPDEST DUP1 PUSH1 0x40 MSTORE POP POP POP JUMP JUMPDEST PUSH0 PUSH2 0x284 PUSH2 0x1F4 JUMP JUMPDEST SWAP1 POP PUSH2 0x290 DUP3 DUP3 PUSH2 0x24A JUMP JUMPDEST SWAP2 SWAP1 POP JUMP JUMPDEST PUSH0 PUSH8 0xFFFFFFFFFFFFFFFF DUP3 GT ISZERO PUSH2 0x2AF JUMPI PUSH2 0x2AE PUSH2 0x21D JUMP JUMPDEST JUMPDEST PUSH2 0x2B8 DUP3 PUSH2 0x20D JUMP JUMPDEST SWAP1 POP PUSH1 0x20 DUP2 ADD SWAP1 POP SWAP2 SWAP1 POP JUMP JUMPDEST DUP3 DUP2 DUP4 CALLDATACOPY PUSH0 DUP4 DUP4 ADD MSTORE POP POP POP JUMP JUMPDEST PUSH0 PUSH2 0x2E5 PUSH2 0x2E0 DUP5 PUSH2 0x295 JUMP JUMPDEST PUSH2 0x27B JUMP JUMPDEST SWAP1 POP DUP3 DUP2 MSTORE PUSH1 0x20 DUP2 ADD DUP5 DUP5 DUP5 ADD GT ISZERO PUSH2 0x301 JUMPI PUSH2 0x300 PUSH2 0x209 JUMP JUMPDEST JUMPDEST PUSH2 0x30C DUP5 DUP3 DUP6 PUSH2 0x2C5 JUMP JUMPDEST POP SWAP4 SWAP3 POP POP POP JUMP JUMPDEST PUSH0 DUP3 PUSH1 0x1F DUP4 ADD SLT PUSH2 0x328 JUMPI PUSH2 0x327 PUSH2 0x205 JUMP JUMPDEST JUMPDEST DUP2 CALLDATALOAD PUSH2 0x338 DUP5 DUP3 PUSH1 0x20 DUP7 ADD PUSH2 0x2D3 JUMP JUMPDEST SWAP2 POP POP SWAP3 SWAP2 POP POP JUMP JUMPDEST PUSH0 DUP2 ISZERO ISZERO SWAP1 POP SWAP2 SWAP1 POP JUMP JUMPDEST PUSH2 0x355 DUP2 PUSH2 0x341 JUMP JUMPDEST DUP2 EQ PUSH2 0x35F JUMPI PUSH0 DUP1 REVERT JUMPDEST POP JUMP JUMPDEST PUSH0 DUP2 CALLDATALOAD SWAP1 POP PUSH2 0x370 DUP2 PUSH2 0x34C JUMP JUMPDEST SWAP3 SWAP2 POP POP JUMP JUMPDEST PUSH0 DUP1 PUSH1 0x40 DUP4 DUP6 SUB SLT ISZERO PUSH2 0x38C JUMPI PUSH2 0x38B PUSH2 0x1FD JUMP JUMPDEST JUMPDEST PUSH0 DUP4 ADD CALLDATALOAD PUSH8 0xFFFFFFFFFFFFFFFF DUP2 GT ISZERO PUSH2 0x3A9 JUMPI PUSH2 0x3A8 PUSH2 0x201 JUMP JUMPDEST JUMPDEST PUSH2 0x3B5 DUP6 DUP3 DUP7 ADD PUSH2 0x314 JUMP JUMPDEST SWAP3 POP POP PUSH1 0x20 PUSH2 0x3C6 DUP6 DUP3 DUP7 ADD PUSH2 0x362 JUMP JUMPDEST SWAP2 POP POP SWAP3 POP SWAP3 SWAP1 POP JUMP JUMPDEST PUSH0 DUP2 SWAP1 POP SWAP2 SWAP1 POP JUMP JUMPDEST PUSH2 0x3E2 DUP2 PUSH2 0x3D0 JUMP JUMPDEST DUP2 EQ PUSH2 0x3EC JUMPI PUSH0 DUP1 REVERT JUMPDEST POP JUMP JUMPDEST PUSH0 DUP2 CALLDATALOAD SWAP1 POP PUSH2 0x3FD DUP2 PUSH2 0x3D9 JUMP JUMPDEST SWAP3 SWAP2 POP POP JUMP JUMPDEST PUSH0 PUSH1 0x20 DUP3 DUP5 SUB SLT ISZERO PUSH2 0x418 JUMPI PUSH2 0x417 PUSH2 0x1FD JUMP JUMPDEST JUMPDEST PUSH0 PUSH2 0x425 DUP5 DUP3 DUP6 ADD PUSH2 0x3EF JUMP JUMPDEST SWAP2 POP POP SWAP3 SWAP2 POP POP JUMP JUMPDEST PUSH0 DUP2 MLOAD SWAP1 POP SWAP2 SWAP1 POP JUMP JUMPDEST PUSH0 DUP3 DUP3 MSTORE PUSH1 0x20 DUP3 ADD SWAP1 POP SWAP3 SWAP2 POP POP JUMP JUMPDEST PUSH0 JUMPDEST DUP4 DUP2 LT ISZERO PUSH2 0x465 JUMPI DUP1 DUP3 ADD MLOAD DUP2 DUP5 ADD MSTORE PUSH1 0x20 DUP2 ADD SWAP1 POP PUSH2 0x44A JUMP JUMPDEST PUSH0 DUP5 DUP5 ADD MSTORE POP POP POP POP JUMP JUMPDEST PUSH0 PUSH2 0x47A DUP3 PUSH2 0x42E JUMP JUMPDEST PUSH2 0x484 DUP2 DUP6 PUSH2 0x438 JUMP JUMPDEST SWAP4 POP PUSH2 0x494 DUP2 DUP6 PUSH1 0x20 DUP7 ADD PUSH2 0x448 JUMP JUMPDEST PUSH2 0x49D DUP2 PUSH2 0x20D JUMP JUMPDEST DUP5 ADD SWAP2 POP POP SWAP3 SWAP2 POP POP JUMP JUMPDEST PUSH2 0x4B1 DUP2 PUSH2 0x3D0 JUMP JUMPDEST DUP3 MSTORE POP POP JUMP JUMPDEST PUSH0 PUSH1 0x40 DUP3 ADD SWAP1 POP DUP2 DUP2 SUB PUSH0 DUP4 ADD MSTORE PUSH2 0x4CF DUP2 DUP6 PUSH2 0x470 JUMP JUMPDEST SWAP1 POP PUSH2 0x4DE PUSH1 0x20 DUP4 ADD DUP5 PUSH2 0x4A8 JUMP JUMPDEST SWAP4 SWAP3 POP POP POP JUMP JUMPDEST PUSH0 DUP1 PUSH1 0x40 DUP4 DUP6 SUB SLT ISZERO PUSH2 0x4FB JUMPI PUSH2 0x4FA PUSH2 0x1FD JUMP JUMPDEST JUMPDEST PUSH0 DUP4 ADD CALLDATALOAD PUSH8 0xFFFFFFFFFFFFFFFF DUP2 GT ISZERO PUSH2 0x518 JUMPI PUSH2 0x517 PUSH2 0x201 JUMP JUMPDEST JUMPDEST PUSH2 0x524 DUP6 DUP3 DUP7 ADD PUSH2 0x314 JUMP JUMPDEST SWAP3 POP POP PUSH1 0x20 PUSH2 0x535 DUP6 DUP3 DUP7 ADD PUSH2 0x3EF JUMP JUMPDEST SWAP2 POP POP SWAP3 POP SWAP3 SWAP1 POP JUMP JUMPDEST PUSH32 0x4E487B7100000000000000000000000000000000000000000000000000000000 PUSH0 MSTORE PUSH1 0x32 PUSH1 0x4 MSTORE PUSH1 0x24 PUSH0 REVERT JUMPDEST PUSH32 0x4E487B7100000000000000000000000000000000000000000000000000000000 PUSH0 MSTORE PUSH1 0x22 PUSH1 0x4 MSTORE PUSH1 0x24 PUSH0 REVERT JUMPDEST PUSH0 PUSH1 0x2 DUP3 DIV SWAP1 POP PUSH1 0x1 DUP3 AND DUP1 PUSH2 0x5B0 JUMPI PUSH1 0x7F DUP3 AND SWAP2 POP JUMPDEST PUSH1 0x20 DUP3 LT DUP2 SUB PUSH2 0x5C3 JUMPI PUSH2 0x5C2 PUSH2 0x56C JUMP JUMPDEST JUMPDEST POP SWAP2 SWAP1 POP JUMP JUMPDEST PUSH0 DUP2 SWAP1 POP DUP2 PUSH0 MSTORE PUSH1 0x20 PUSH0 KECCAK256 SWAP1 POP SWAP2 SWAP1 POP JUMP JUMPDEST PUSH0 PUSH1 0x20 PUSH1 0x1F DUP4 ADD DIV SWAP1 POP SWAP2 SWAP1 POP JUMP JUMPDEST PUSH0 DUP3 DUP3 SHL SWAP1 POP SWAP3 SWAP2 POP POP JUMP JUMPDEST PUSH0 PUSH1 0x8 DUP4 MUL PUSH2 0x625 PUSH32 0xFFFFFFFFFFFFFFFFFFFFFFFFFFFFFFFFFFFFFFFFFFFFFFFFFFFFFFFFFFFFFFFF DUP3 PUSH2 0x5EA JUMP JUMPDEST PUSH2 0x62F DUP7 DUP4 PUSH2 0x5EA JUMP JUMPDEST SWAP6 POP DUP1 NOT DUP5 AND SWAP4 POP DUP1 DUP7 AND DUP5 OR SWAP3 POP POP POP SWAP4 SWAP3 POP POP POP JUMP JUMPDEST PUSH0 DUP2 SWAP1 POP SWAP2 SWAP1 POP JUMP JUMPDEST PUSH0 PUSH2 0x66A PUSH2 0x665 PUSH2 0x660 DUP5 PUSH2 0x3D0 JUMP JUMPDEST PUSH2 0x647 JUMP JUMPDEST PUSH2 0x3D0 JUMP JUMPDEST SWAP1 POP SWAP2 SWAP1 POP JUMP JUMPDEST PUSH0 DUP2 SWAP1 POP SWAP2 SWAP1 POP JUMP JUMPDEST PUSH2 0x683 DUP4 PUSH2 0x650 JUMP JUMPDEST PUSH2 0x697 PUSH2 0x68F DUP3 PUSH2 0x671 JUMP JUMPDEST DUP5 DUP5 SLOAD PUSH2 0x5F6 JUMP JUMPDEST DUP3 SSTORE POP POP POP POP JUMP JUMPDEST PUSH0 SWAP1 JUMP JUMPDEST PUSH2 0x6AB PUSH2 0x69F JUMP JUMPDEST PUSH2 0x6B6 DUP2 DUP5 DUP5 PUSH2 0x67A JUMP JUMPDEST POP POP POP JUMP JUMPDEST JUMPDEST DUP2 DUP2 LT ISZERO PUSH2 0x6D9 JUMPI PUSH2 0x6CE PUSH0 DUP3 PUSH2 0x6A3 JUMP JUMPDEST PUSH1 0x1 DUP2 ADD SWAP1 POP PUSH2 0x6BC JUMP JUMPDEST POP POP JUMP JUMPDEST PUSH1 0x1F DUP3 GT ISZERO PUSH2 0x71E JUMPI PUSH2 0x6EF DUP2 PUSH2 0x5C9 JUMP JUMPDEST PUSH2 0x6F8 DUP5 PUSH2 0x5DB JUMP JUMPDEST DUP2 ADD PUSH1 0x20 DUP6 LT ISZERO PUSH2 0x707 JUMPI DUP2 SWAP1 POP JUMPDEST PUSH2 0x71B PUSH2 0x713 DUP6 PUSH2 0x5DB JUMP JUMPDEST DUP4 ADD DUP3 PUSH2 0x6BB JUMP JUMPDEST POP POP JUMPDEST POP POP POP JUMP JUMPDEST PUSH0 DUP3 DUP3 SHR SWAP1 POP SWAP3 SWAP2 POP POP JUMP JUMPDEST PUSH0 PUSH2 0x73E PUSH0 NOT DUP5 PUSH1 0x8 MUL PUSH2 0x723 JUMP JUMPDEST NOT DUP1 DUP4 AND SWAP2 POP POP SWAP3 SWAP2 POP POP JUMP JUMPDEST PUSH0 PUSH2 0x756 DUP4 DUP4 PUSH2 0x72F JUMP JUMPDEST SWAP2 POP DUP3 PUSH1 0x2 MUL DUP3 OR SWAP1 POP SWAP3 SWAP2 POP POP JUMP JUMPDEST PUSH2 0x76F DUP3 PUSH2 0x42E JUMP JUMPDEST PUSH8 0xFFFFFFFFFFFFFFFF DUP2 GT ISZERO PUSH2 0x788 JUMPI PUSH2 0x787 PUSH2 0x21D JUMP JUMPDEST JUMPDEST PUSH2 0x792 DUP3 SLOAD PUSH2 0x599 JUMP JUMPDEST PUSH2 0x79D DUP3 DUP3 DUP6 PUSH2 0x6DD JUMP JUMPDEST PUSH0 PUSH1 0x20 SWAP1 POP PUSH1 0x1F DUP4 GT PUSH1 0x1 DUP2 EQ PUSH2 0x7CE JUMPI PUSH0 DUP5 ISZERO PUSH2 0x7BC JUMPI DUP3 DUP8 ADD MLOAD SWAP1 POP JUMPDEST PUSH2 0x7C6 DUP6 DUP3 PUSH2 0x74B JUMP JUMPDEST DUP7 SSTORE POP PUSH2 0x82D JUMP JUMPDEST PUSH1 0x1F NOT DUP5 AND PUSH2 0x7DC DUP7 PUSH2 0x5C9 JUMP JUMPDEST PUSH0 JUMPDEST DUP3 DUP2 LT ISZERO PUSH2 0x803 JUMPI DUP5 DUP10 ADD MLOAD DUP3 SSTORE PUSH1 0x1 DUP3 ADD SWAP2 POP PUSH1 0x20 DUP6 ADD SWAP5 POP PUSH1 0x20 DUP2 ADD SWAP1 POP PUSH2 0x7DE JUMP JUMPDEST DUP7 DUP4 LT ISZERO PUSH2 0x820 JUMPI DUP5 DUP10 ADD MLOAD PUSH2 0x81C PUSH1 0x1F DUP10 AND DUP3 PUSH2 0x72F JUMP JUMPDEST DUP4 SSTORE POP JUMPDEST PUSH1 0x1 PUSH1 0x2 DUP9 MUL ADD DUP9 SSTORE POP POP POP JUMPDEST POP POP POP POP POP POP JUMP INVALID LOG2 PUSH5 0x6970667358 0x22 SLT KECCAK256 0xB0 PUSH4 0x3E95E890 0xDC 0xED XOR SWAP1 SIGNEXTEND GT 0xE9 0x21 CALL 0xC4 0xA5 0xE5 0x5C 0xC 0xDA SHL GAS REVERT 0xC9 PUSH17 0xA2411F76A57664736F6C63430008140033 "
				},
				"gasEstimates": {
					"creation": {
						"codeDepositCost": "431000",
						"executionCost": "466",
						"totalCost": "431466"
					},
					"external": {
						"getStudentDetails(uint256)": "infinite",
						"setInstitutionDetails(string,bool)": "infinite",
						"setStudentDetails(string,uint256)": "infinite"
					}
				},
				"methodIdentifiers": {
					"getStudentDetails(uint256)": "86a9b364",
					"setInstitutionDetails(string,bool)": "5f6efd50",
					"setStudentDetails(string,uint256)": "a7cc1582"
				}
			},
			"storageLayout": {
				"storage": [
					{
						"astId": 3,
						"contract": "contracts/addreess.sol:test",
						"label": "ins_name",
						"offset": 0,
						"slot": "0",
						"type": "t_string_storage"
					},
					{
						"astId": 5,
						"contract": "contracts/addreess.sol:test",
						"label": "registered",
						"offset": 0,
						"slot": "1",
						"type": "t_bool"
					},
					{
						"astId": 8,
						"contract": "contracts/addreess.sol:test",
						"label": "name",
						"offset": 0,
						"slot": "2",
						"type": "t_array(t_string_storage)dyn_storage"
					},
					{
						"astId": 11,
						"contract": "contracts/addreess.sol:test",
						"label": "age",
						"offset": 0,
						"slot": "3",
						"type": "t_array(t_uint256)dyn_storage"
					}
				],
				"types": {
					"t_array(t_string_storage)dyn_storage": {
						"base": "t_string_storage",
						"encoding": "dynamic_array",
						"label": "string[]",
						"numberOfBytes": "32"
					},
					"t_array(t_uint256)dyn_storage": {
						"base": "t_uint256",
						"encoding": "dynamic_array",
						"label": "uint256[]",
						"numberOfBytes": "32"
					},
					"t_bool": {
						"encoding": "inplace",
						"label": "bool",
						"numberOfBytes": "1"
					},
					"t_string_storage": {
						"encoding": "bytes",
						"label": "string",
						"numberOfBytes": "32"
					},
					"t_uint256": {
						"encoding": "inplace",
						"label": "uint256",
						"numberOfBytes": "32"
					}
				}
			},
			"userdoc": {
				"kind": "user",
				"methods": {},
				"version": 1
			}
		}
	}
}