{
	"contracts/gender.sol": {
		"test": {
			"abi": [
				{
					"inputs": [],
					"name": "getChoice",
					"outputs": [
						{
							"internalType": "enum test.Gender",
							"name": "",
							"type": "uint8"
						}
					],
					"stateMutability": "view",
					"type": "function"
				},
				{
					"inputs": [],
					"name": "getDefaultOrChoice",
					"outputs": [
						{
							"internalType": "uint256",
							"name": "",
							"type": "uint256"
						}
					],
					"stateMutability": "view",
					"type": "function"
				},
				{
					"inputs": [],
					"name": "setGender",
					"outputs": [],
					"stateMutability": "nonpayable",
					"type": "function"
				}
			],
			"devdoc": {
				"kind": "dev",
				"methods": {},
				"version": 1
			},
			"evm": {
				"assembly": "    /* \"contracts/gender.sol\":28:486  contract test {... */\n  mstore(0x40, 0x80)\n    /* \"contracts/gender.sol\":153:164  Gender.MALE */\n  0x00\n    /* \"contracts/gender.sol\":131:164  Gender defaultChoice= Gender.MALE */\n  dup1\n  exp(0x0100, 0x01)\n  dup2\n  sload\n  dup2\n  0xff\n  mul\n  not\n  and\n  swap1\n  dup4\n  0x01\n  dup2\n  gt\n  iszero\n  tag_1\n  jumpi\n  tag_2\n  tag_3\n  jump\t// in\ntag_2:\ntag_1:\n  mul\n  or\n  swap1\n  sstore\n  pop\n    /* \"contracts/gender.sol\":28:486  contract test {... */\n  callvalue\n  dup1\n  iszero\n  tag_4\n  jumpi\n  0x00\n  dup1\n  revert\ntag_4:\n  pop\n  jump(tag_5)\n    /* \"#utility.yul\":7:187   */\ntag_3:\n    /* \"#utility.yul\":55:132   */\n  0x4e487b7100000000000000000000000000000000000000000000000000000000\n    /* \"#utility.yul\":52:53   */\n  0x00\n    /* \"#utility.yul\":45:133   */\n  mstore\n    /* \"#utility.yul\":152:156   */\n  0x21\n    /* \"#utility.yul\":149:150   */\n  0x04\n    /* \"#utility.yul\":142:157   */\n  mstore\n    /* \"#utility.yul\":176:180   */\n  0x24\n    /* \"#utility.yul\":173:174   */\n  0x00\n    /* \"#utility.yul\":166:181   */\n  revert\n    /* \"contracts/gender.sol\":28:486  contract test {... */\ntag_5:\n  dataSize(sub_0)\n  dup1\n  dataOffset(sub_0)\n  0x00\n  codecopy\n  0x00\n  return\nstop\n\nsub_0: assembly {\n        /* \"contracts/gender.sol\":28:486  contract test {... */\n      mstore(0x40, 0x80)\n      callvalue\n      dup1\n      iszero\n      tag_1\n      jumpi\n      0x00\n      dup1\n      revert\n    tag_1:\n      pop\n      jumpi(tag_2, lt(calldatasize, 0x04))\n      shr(0xe0, calldataload(0x00))\n      dup1\n      0x0819ed27\n      eq\n      tag_3\n      jumpi\n      dup1\n      0x67cb61b6\n      eq\n      tag_4\n      jumpi\n      dup1\n      0xaf53b6f3\n      eq\n      tag_5\n      jumpi\n    tag_2:\n      0x00\n      dup1\n      revert\n        /* \"contracts/gender.sol\":177:253  function setGender() public {... */\n    tag_3:\n      tag_6\n      tag_7\n      jump\t// in\n    tag_6:\n      stop\n        /* \"contracts/gender.sol\":263:354  function getChoice() public view returns (Gender){... */\n    tag_4:\n      tag_8\n      tag_9\n      jump\t// in\n    tag_8:\n      mload(0x40)\n      tag_10\n      swap2\n      swap1\n      tag_11\n      jump\t// in\n    tag_10:\n      mload(0x40)\n      dup1\n      swap2\n      sub\n      swap1\n      return\n        /* \"contracts/gender.sol\":374:483  function getDefaultOrChoice() public view returns (uint){... */\n    tag_5:\n      tag_12\n      tag_13\n      jump\t// in\n    tag_12:\n      mload(0x40)\n      tag_14\n      swap2\n      swap1\n      tag_15\n      jump\t// in\n    tag_14:\n      mload(0x40)\n      dup1\n      swap2\n      sub\n      swap1\n      return\n        /* \"contracts/gender.sol\":177:253  function setGender() public {... */\n    tag_7:\n        /* \"contracts/gender.sol\":228:241  Gender.FEMALE */\n      0x01\n        /* \"contracts/gender.sol\":220:226  choice */\n      0x00\n      dup1\n        /* \"contracts/gender.sol\":220:241  choice= Gender.FEMALE */\n      0x0100\n      exp\n      dup2\n      sload\n      dup2\n      0xff\n      mul\n      not\n      and\n      swap1\n      dup4\n      0x01\n      dup2\n      gt\n      iszero\n      tag_17\n      jumpi\n      tag_18\n      tag_19\n      jump\t// in\n    tag_18:\n    tag_17:\n      mul\n      or\n      swap1\n      sstore\n      pop\n        /* \"contracts/gender.sol\":177:253  function setGender() public {... */\n      jump\t// out\n        /* \"contracts/gender.sol\":263:354  function getChoice() public view returns (Gender){... */\n    tag_9:\n        /* \"contracts/gender.sol\":305:311  Gender */\n      0x00\n        /* \"contracts/gender.sol\":334:340  choice */\n      dup1\n      0x00\n      swap1\n      sload\n      swap1\n      0x0100\n      exp\n      swap1\n      div\n      0xff\n      and\n        /* \"contracts/gender.sol\":327:340  return choice */\n      swap1\n      pop\n        /* \"contracts/gender.sol\":263:354  function getChoice() public view returns (Gender){... */\n      swap1\n      jump\t// out\n        /* \"contracts/gender.sol\":374:483  function getDefaultOrChoice() public view returns (uint){... */\n    tag_13:\n        /* \"contracts/gender.sol\":425:429  uint */\n      0x00\n        /* \"contracts/gender.sol\":457:470  defaultChoice */\n      dup1\n      0x01\n      swap1\n      sload\n      swap1\n      0x0100\n      exp\n      swap1\n      div\n      0xff\n      and\n        /* \"contracts/gender.sol\":452:471  uint(defaultChoice) */\n      0x01\n      dup2\n      gt\n      iszero\n      tag_22\n      jumpi\n      tag_23\n      tag_19\n      jump\t// in\n    tag_23:\n    tag_22:\n        /* \"contracts/gender.sol\":445:471  return uint(defaultChoice) */\n      swap1\n      pop\n        /* \"contracts/gender.sol\":374:483  function getDefaultOrChoice() public view returns (uint){... */\n      swap1\n      jump\t// out\n        /* \"#utility.yul\":7:187   */\n    tag_19:\n        /* \"#utility.yul\":55:132   */\n      0x4e487b7100000000000000000000000000000000000000000000000000000000\n        /* \"#utility.yul\":52:53   */\n      0x00\n        /* \"#utility.yul\":45:133   */\n      mstore\n        /* \"#utility.yul\":152:156   */\n      0x21\n        /* \"#utility.yul\":149:150   */\n      0x04\n        /* \"#utility.yul\":142:157   */\n      mstore\n        /* \"#utility.yul\":176:180   */\n      0x24\n        /* \"#utility.yul\":173:174   */\n      0x00\n        /* \"#utility.yul\":166:181   */\n      revert\n        /* \"#utility.yul\":193:306   */\n    tag_24:\n        /* \"#utility.yul\":274:275   */\n      0x02\n        /* \"#utility.yul\":267:272   */\n      dup2\n        /* \"#utility.yul\":264:276   */\n      lt\n        /* \"#utility.yul\":254:300   */\n      tag_33\n      jumpi\n        /* \"#utility.yul\":280:298   */\n      tag_34\n      tag_19\n      jump\t// in\n    tag_34:\n        /* \"#utility.yul\":254:300   */\n    tag_33:\n        /* \"#utility.yul\":193:306   */\n      pop\n      jump\t// out\n        /* \"#utility.yul\":312:439   */\n    tag_25:\n        /* \"#utility.yul\":357:364   */\n      0x00\n        /* \"#utility.yul\":386:391   */\n      dup2\n        /* \"#utility.yul\":375:391   */\n      swap1\n      pop\n        /* \"#utility.yul\":392:433   */\n      tag_36\n        /* \"#utility.yul\":427:432   */\n      dup3\n        /* \"#utility.yul\":392:433   */\n      tag_24\n      jump\t// in\n    tag_36:\n        /* \"#utility.yul\":312:439   */\n      swap2\n      swap1\n      pop\n      jump\t// out\n        /* \"#utility.yul\":445:572   */\n    tag_26:\n        /* \"#utility.yul\":501:510   */\n      0x00\n        /* \"#utility.yul\":534:566   */\n      tag_38\n        /* \"#utility.yul\":560:565   */\n      dup3\n        /* \"#utility.yul\":534:566   */\n      tag_25\n      jump\t// in\n    tag_38:\n        /* \"#utility.yul\":521:566   */\n      swap1\n      pop\n        /* \"#utility.yul\":445:572   */\n      swap2\n      swap1\n      pop\n      jump\t// out\n        /* \"#utility.yul\":578:721   */\n    tag_27:\n        /* \"#utility.yul\":671:714   */\n      tag_40\n        /* \"#utility.yul\":708:713   */\n      dup2\n        /* \"#utility.yul\":671:714   */\n      tag_26\n      jump\t// in\n    tag_40:\n        /* \"#utility.yul\":666:669   */\n      dup3\n        /* \"#utility.yul\":659:715   */\n      mstore\n        /* \"#utility.yul\":578:721   */\n      pop\n      pop\n      jump\t// out\n        /* \"#utility.yul\":727:961   */\n    tag_11:\n        /* \"#utility.yul\":826:830   */\n      0x00\n        /* \"#utility.yul\":864:866   */\n      0x20\n        /* \"#utility.yul\":853:862   */\n      dup3\n        /* \"#utility.yul\":849:867   */\n      add\n        /* \"#utility.yul\":841:867   */\n      swap1\n      pop\n        /* \"#utility.yul\":877:954   */\n      tag_42\n        /* \"#utility.yul\":951:952   */\n      0x00\n        /* \"#utility.yul\":940:949   */\n      dup4\n        /* \"#utility.yul\":936:953   */\n      add\n        /* \"#utility.yul\":927:933   */\n      dup5\n        /* \"#utility.yul\":877:954   */\n      tag_27\n      jump\t// in\n    tag_42:\n        /* \"#utility.yul\":727:961   */\n      swap3\n      swap2\n      pop\n      pop\n      jump\t// out\n        /* \"#utility.yul\":967:1044   */\n    tag_28:\n        /* \"#utility.yul\":1004:1011   */\n      0x00\n        /* \"#utility.yul\":1033:1038   */\n      dup2\n        /* \"#utility.yul\":1022:1038   */\n      swap1\n      pop\n        /* \"#utility.yul\":967:1044   */\n      swap2\n      swap1\n      pop\n      jump\t// out\n        /* \"#utility.yul\":1050:1168   */\n    tag_29:\n        /* \"#utility.yul\":1137:1161   */\n      tag_45\n        /* \"#utility.yul\":1155:1160   */\n      dup2\n        /* \"#utility.yul\":1137:1161   */\n      tag_28\n      jump\t// in\n    tag_45:\n        /* \"#utility.yul\":1132:1135   */\n      dup3\n        /* \"#utility.yul\":1125:1162   */\n      mstore\n        /* \"#utility.yul\":1050:1168   */\n      pop\n      pop\n      jump\t// out\n        /* \"#utility.yul\":1174:1396   */\n    tag_15:\n        /* \"#utility.yul\":1267:1271   */\n      0x00\n        /* \"#utility.yul\":1305:1307   */\n      0x20\n        /* \"#utility.yul\":1294:1303   */\n      dup3\n        /* \"#utility.yul\":1290:1308   */\n      add\n        /* \"#utility.yul\":1282:1308   */\n      swap1\n      pop\n        /* \"#utility.yul\":1318:1389   */\n      tag_47\n        /* \"#utility.yul\":1386:1387   */\n      0x00\n        /* \"#utility.yul\":1375:1384   */\n      dup4\n        /* \"#utility.yul\":1371:1388   */\n      add\n        /* \"#utility.yul\":1362:1368   */\n      dup5\n        /* \"#utility.yul\":1318:1389   */\n      tag_29\n      jump\t// in\n    tag_47:\n        /* \"#utility.yul\":1174:1396   */\n      swap3\n      swap2\n      pop\n      pop\n      jump\t// out\n\n    auxdata: 0xa26469706673582212203a4c78b319cc8e32b9c197a0ef992c26959afde7b9ad133c6c3050b9251b9f0464736f6c634300080e0033\n}\n",
				"bytecode": {
					"linkReferences": {},
					"object": "608060405260008060016101000a81548160ff0219169083600181111561002957610028610040565b5b021790555034801561003a57600080fd5b5061006f565b7f4e487b7100000000000000000000000000000000000000000000000000000000600052602160045260246000fd5b6101f28061007e6000396000f3fe608060405234801561001057600080fd5b50600436106100415760003560e01c80630819ed271461004657806367cb61b614610050578063af53b6f31461006e575b600080fd5b61004e61008c565b005b6100586100b8565b604051610065919061016d565b60405180910390f35b6100766100ce565b60405161008391906101a1565b60405180910390f35b60016000806101000a81548160ff021916908360018111156100b1576100b06100f6565b5b0217905550565b60008060009054906101000a900460ff16905090565b60008060019054906101000a900460ff1660018111156100f1576100f06100f6565b5b905090565b7f4e487b7100000000000000000000000000000000000000000000000000000000600052602160045260246000fd5b60028110610136576101356100f6565b5b50565b600081905061014782610125565b919050565b600061015782610139565b9050919050565b6101678161014c565b82525050565b6000602082019050610182600083018461015e565b92915050565b6000819050919050565b61019b81610188565b82525050565b60006020820190506101b66000830184610192565b9291505056fea26469706673582212203a4c78b319cc8e32b9c197a0ef992c26959afde7b9ad133c6c3050b9251b9f0464736f6c634300080e0033",
					"opcodes": "PUSH1 0x80 PUSH1 0x40 MSTORE PUSH1 0x0 DUP1 PUSH1 0x1 PUSH2 0x100 EXP DUP2 SLOAD DUP2 PUSH1 0xFF MUL NOT AND SWAP1 DUP4 PUSH1 0x1 DUP2 GT ISZERO PUSH2 0x29 JUMPI PUSH2 0x28 PUSH2 0x40 JUMP JUMPDEST JUMPDEST MUL OR SWAP1 SSTORE POP CALLVALUE DUP1 ISZERO PUSH2 0x3A JUMPI PUSH1 0x0 DUP1 REVERT JUMPDEST POP PUSH2 0x6F JUMP JUMPDEST PUSH32 0x4E487B7100000000000000000000000000000000000000000000000000000000 PUSH1 0x0 MSTORE PUSH1 0x21 PUSH1 0x4 MSTORE PUSH1 0x24 PUSH1 0x0 REVERT JUMPDEST PUSH2 0x1F2 DUP1 PUSH2 0x7E PUSH1 0x0 CODECOPY PUSH1 0x0 RETURN INVALID PUSH1 0x80 PUSH1 0x40 MSTORE CALLVALUE DUP1 ISZERO PUSH2 0x10 JUMPI PUSH1 0x0 DUP1 REVERT JUMPDEST POP PUSH1 0x4 CALLDATASIZE LT PUSH2 0x41 JUMPI PUSH1 0x0 CALLDATALOAD PUSH1 0xE0 SHR DUP1 PUSH4 0x819ED27 EQ PUSH2 0x46 JUMPI DUP1 PUSH4 0x67CB61B6 EQ PUSH2 0x50 JUMPI DUP1 PUSH4 0xAF53B6F3 EQ PUSH2 0x6E JUMPI JUMPDEST PUSH1 0x0 DUP1 REVERT JUMPDEST PUSH2 0x4E PUSH2 0x8C JUMP JUMPDEST STOP JUMPDEST PUSH2 0x58 PUSH2 0xB8 JUMP JUMPDEST PUSH1 0x40 MLOAD PUSH2 0x65 SWAP2 SWAP1 PUSH2 0x16D JUMP JUMPDEST PUSH1 0x40 MLOAD DUP1 SWAP2 SUB SWAP1 RETURN JUMPDEST PUSH2 0x76 PUSH2 0xCE JUMP JUMPDEST PUSH1 0x40 MLOAD PUSH2 0x83 SWAP2 SWAP1 PUSH2 0x1A1 JUMP JUMPDEST PUSH1 0x40 MLOAD DUP1 SWAP2 SUB SWAP1 RETURN JUMPDEST PUSH1 0x1 PUSH1 0x0 DUP1 PUSH2 0x100 EXP DUP2 SLOAD DUP2 PUSH1 0xFF MUL NOT AND SWAP1 DUP4 PUSH1 0x1 DUP2 GT ISZERO PUSH2 0xB1 JUMPI PUSH2 0xB0 PUSH2 0xF6 JUMP JUMPDEST JUMPDEST MUL OR SWAP1 SSTORE POP JUMP JUMPDEST PUSH1 0x0 DUP1 PUSH1 0x0 SWAP1 SLOAD SWAP1 PUSH2 0x100 EXP SWAP1 DIV PUSH1 0xFF AND SWAP1 POP SWAP1 JUMP JUMPDEST PUSH1 0x0 DUP1 PUSH1 0x1 SWAP1 SLOAD SWAP1 PUSH2 0x100 EXP SWAP1 DIV PUSH1 0xFF AND PUSH1 0x1 DUP2 GT ISZERO PUSH2 0xF1 JUMPI PUSH2 0xF0 PUSH2 0xF6 JUMP JUMPDEST JUMPDEST SWAP1 POP SWAP1 JUMP JUMPDEST PUSH32 0x4E487B7100000000000000000000000000000000000000000000000000000000 PUSH1 0x0 MSTORE PUSH1 0x21 PUSH1 0x4 MSTORE PUSH1 0x24 PUSH1 0x0 REVERT JUMPDEST PUSH1 0x2 DUP2 LT PUSH2 0x136 JUMPI PUSH2 0x135 PUSH2 0xF6 JUMP JUMPDEST JUMPDEST POP JUMP JUMPDEST PUSH1 0x0 DUP2 SWAP1 POP PUSH2 0x147 DUP3 PUSH2 0x125 JUMP JUMPDEST SWAP2 SWAP1 POP JUMP JUMPDEST PUSH1 0x0 PUSH2 0x157 DUP3 PUSH2 0x139 JUMP JUMPDEST SWAP1 POP SWAP2 SWAP1 POP JUMP JUMPDEST PUSH2 0x167 DUP2 PUSH2 0x14C JUMP JUMPDEST DUP3 MSTORE POP POP JUMP JUMPDEST PUSH1 0x0 PUSH1 0x20 DUP3 ADD SWAP1 POP PUSH2 0x182 PUSH1 0x0 DUP4 ADD DUP5 PUSH2 0x15E JUMP JUMPDEST SWAP3 SWAP2 POP POP JUMP JUMPDEST PUSH1 0x0 DUP2 SWAP1 POP SWAP2 SWAP1 POP JUMP JUMPDEST PUSH2 0x19B DUP2 PUSH2 0x188 JUMP JUMPDEST DUP3 MSTORE POP POP JUMP JUMPDEST PUSH1 0x0 PUSH1 0x20 DUP3 ADD SWAP1 POP PUSH2 0x1B6 PUSH1 0x0 DUP4 ADD DUP5 PUSH2 0x192 JUMP JUMPDEST SWAP3 SWAP2 POP POP JUMP INVALID LOG2 PUSH5 0x6970667358 0x22 SLT KECCAK256 GASPRICE 0x4C PUSH25 0xB319CC8E32B9C197A0EF992C26959AFDE7B9AD133C6C3050B9 0x25 SHL SWAP16 DIV PUSH5 0x736F6C6343 STOP ADDMOD 0xE STOP CALLER "
				},
				"gasEstimates": {
					"creation": {
						"codeDepositCost": "99600",
						"executionCost": "24496",
						"totalCost": "124096"
					},
					"external": {
						"getChoice()": "2568",
						"getDefaultOrChoice()": "2571",
						"setGender()": "24409"
					}
				},
				"methodIdentifiers": {
					"getChoice()": "67cb61b6",
					"getDefaultOrChoice()": "af53b6f3",
					"setGender()": "0819ed27"
				}
			},
			"storageLayout": {
				"storage": [
					{
						"astId": 7,
						"contract": "contracts/gender.sol:test",
						"label": "choice",
						"offset": 0,
						"slot": "0",
						"type": "t_enum(Gender)4"
					},
					{
						"astId": 12,
						"contract": "contracts/gender.sol:test",
						"label": "defaultChoice",
						"offset": 1,
						"slot": "0",
						"type": "t_enum(Gender)4"
					}
				],
				"types": {
					"t_enum(Gender)4": {
						"encoding": "inplace",
						"label": "enum test.Gender",
						"numberOfBytes": "1"
					}
				}
			},
			"userdoc": {
				"kind": "user",
				"methods": {},
				"version": 1
			}
		}
	}
}