{
	"contracts/interface.sol": {
		"derivedContract": {
			"abi": [
				{
					"inputs": [],
					"name": "add",
					"outputs": [
						{
							"internalType": "uint256",
							"name": "",
							"type": "uint256"
						}
					],
					"stateMutability": "view",
					"type": "function"
				},
				{
					"inputs": [
						{
							"internalType": "string",
							"name": "_strin",
							"type": "string"
						}
					],
					"name": "getstr",
					"outputs": [
						{
							"internalType": "string",
							"name": "",
							"type": "string"
						}
					],
					"stateMutability": "view",
					"type": "function"
				},
				{
					"inputs": [
						{
							"internalType": "uint256",
							"name": "_in1",
							"type": "uint256"
						},
						{
							"internalType": "uint256",
							"name": "_in2",
							"type": "uint256"
						}
					],
					"name": "setValue",
					"outputs": [],
					"stateMutability": "nonpayable",
					"type": "function"
				}
			],
			"devdoc": {
				"kind": "dev",
				"methods": {},
				"version": 1
			},
			"evm": {
				"assembly": "    /* \"contracts/interface.sol\":325:732  contract derivedContract is AbstractContract {... */\n  mstore(0x40, 0x80)\n  callvalue\n  dup1\n  iszero\n  tag_1\n  jumpi\n  0x00\n  dup1\n  revert\ntag_1:\n  pop\n  dataSize(sub_0)\n  dup1\n  dataOffset(sub_0)\n  0x00\n  codecopy\n  0x00\n  return\nstop\n\nsub_0: assembly {\n        /* \"contracts/interface.sol\":325:732  contract derivedContract is AbstractContract {... */\n      mstore(0x40, 0x80)\n      callvalue\n      dup1\n      iszero\n      tag_1\n      jumpi\n      0x00\n      dup1\n      revert\n    tag_1:\n      pop\n      jumpi(tag_2, lt(calldatasize, 0x04))\n      shr(0xe0, calldataload(0x00))\n      dup1\n      0x4f2be91f\n      eq\n      tag_3\n      jumpi\n      dup1\n      0x67d498f9\n      eq\n      tag_4\n      jumpi\n      dup1\n      0x7b8d56e3\n      eq\n      tag_5\n      jumpi\n    tag_2:\n      0x00\n      dup1\n      revert\n        /* \"contracts/interface.sol\":649:729  function add() public view returns (uint){... */\n    tag_3:\n      tag_6\n      tag_7\n      jump\t// in\n    tag_6:\n      mload(0x40)\n      tag_8\n      swap2\n      swap1\n      tag_9\n      jump\t// in\n    tag_8:\n      mload(0x40)\n      dup1\n      swap2\n      sub\n      swap1\n      return\n        /* \"contracts/interface.sol\":431:535  function getstr(string memory _strin) public view returns(string memory){... */\n    tag_4:\n      tag_10\n      0x04\n      dup1\n      calldatasize\n      sub\n      dup2\n      add\n      swap1\n      tag_11\n      swap2\n      swap1\n      tag_12\n      jump\t// in\n    tag_11:\n      tag_13\n      jump\t// in\n    tag_10:\n      mload(0x40)\n      tag_14\n      swap2\n      swap1\n      tag_15\n      jump\t// in\n    tag_14:\n      mload(0x40)\n      dup1\n      swap2\n      sub\n      swap1\n      return\n        /* \"contracts/interface.sol\":543:641  function setValue(uint _in1, uint _in2) public {... */\n    tag_5:\n      tag_16\n      0x04\n      dup1\n      calldatasize\n      sub\n      dup2\n      add\n      swap1\n      tag_17\n      swap2\n      swap1\n      tag_18\n      jump\t// in\n    tag_17:\n      tag_19\n      jump\t// in\n    tag_16:\n      stop\n        /* \"contracts/interface.sol\":649:729  function add() public view returns (uint){... */\n    tag_7:\n        /* \"contracts/interface.sol\":685:689  uint */\n      0x00\n        /* \"contracts/interface.sol\":716:720  num2 */\n      sload(0x01)\n        /* \"contracts/interface.sol\":709:713  num1 */\n      sload(0x00)\n        /* \"contracts/interface.sol\":709:720  num1 + num2 */\n      tag_21\n      swap2\n      swap1\n      tag_22\n      jump\t// in\n    tag_21:\n        /* \"contracts/interface.sol\":701:721  return (num1 + num2) */\n      swap1\n      pop\n        /* \"contracts/interface.sol\":649:729  function add() public view returns (uint){... */\n      swap1\n      jump\t// out\n        /* \"contracts/interface.sol\":431:535  function getstr(string memory _strin) public view returns(string memory){... */\n    tag_13:\n        /* \"contracts/interface.sol\":489:502  string memory */\n      0x60\n        /* \"contracts/interface.sol\":521:527  _strin */\n      dup2\n        /* \"contracts/interface.sol\":514:527  return _strin */\n      swap1\n      pop\n        /* \"contracts/interface.sol\":431:535  function getstr(string memory _strin) public view returns(string memory){... */\n      swap2\n      swap1\n      pop\n      jump\t// out\n        /* \"contracts/interface.sol\":543:641  function setValue(uint _in1, uint _in2) public {... */\n    tag_19:\n        /* \"contracts/interface.sol\":607:611  _in1 */\n      dup2\n        /* \"contracts/interface.sol\":601:605  num1 */\n      0x00\n        /* \"contracts/interface.sol\":601:611  num1 =_in1 */\n      dup2\n      swap1\n      sstore\n      pop\n        /* \"contracts/interface.sol\":629:633  _in2 */\n      dup1\n        /* \"contracts/interface.sol\":622:626  num2 */\n      0x01\n        /* \"contracts/interface.sol\":622:633  num2 = _in2 */\n      dup2\n      swap1\n      sstore\n      pop\n        /* \"contracts/interface.sol\":543:641  function setValue(uint _in1, uint _in2) public {... */\n      pop\n      pop\n      jump\t// out\n        /* \"#utility.yul\":7:84   */\n    tag_25:\n        /* \"#utility.yul\":44:51   */\n      0x00\n        /* \"#utility.yul\":73:78   */\n      dup2\n        /* \"#utility.yul\":62:78   */\n      swap1\n      pop\n        /* \"#utility.yul\":7:84   */\n      swap2\n      swap1\n      pop\n      jump\t// out\n        /* \"#utility.yul\":90:208   */\n    tag_26:\n        /* \"#utility.yul\":177:201   */\n      tag_50\n        /* \"#utility.yul\":195:200   */\n      dup2\n        /* \"#utility.yul\":177:201   */\n      tag_25\n      jump\t// in\n    tag_50:\n        /* \"#utility.yul\":172:175   */\n      dup3\n        /* \"#utility.yul\":165:202   */\n      mstore\n        /* \"#utility.yul\":90:208   */\n      pop\n      pop\n      jump\t// out\n        /* \"#utility.yul\":214:436   */\n    tag_9:\n        /* \"#utility.yul\":307:311   */\n      0x00\n        /* \"#utility.yul\":345:347   */\n      0x20\n        /* \"#utility.yul\":334:343   */\n      dup3\n        /* \"#utility.yul\":330:348   */\n      add\n        /* \"#utility.yul\":322:348   */\n      swap1\n      pop\n        /* \"#utility.yul\":358:429   */\n      tag_52\n        /* \"#utility.yul\":426:427   */\n      0x00\n        /* \"#utility.yul\":415:424   */\n      dup4\n        /* \"#utility.yul\":411:428   */\n      add\n        /* \"#utility.yul\":402:408   */\n      dup5\n        /* \"#utility.yul\":358:429   */\n      tag_26\n      jump\t// in\n    tag_52:\n        /* \"#utility.yul\":214:436   */\n      swap3\n      swap2\n      pop\n      pop\n      jump\t// out\n        /* \"#utility.yul\":442:517   */\n    tag_27:\n        /* \"#utility.yul\":475:481   */\n      0x00\n        /* \"#utility.yul\":508:510   */\n      0x40\n        /* \"#utility.yul\":502:511   */\n      mload\n        /* \"#utility.yul\":492:511   */\n      swap1\n      pop\n        /* \"#utility.yul\":442:517   */\n      swap1\n      jump\t// out\n        /* \"#utility.yul\":523:640   */\n    tag_28:\n        /* \"#utility.yul\":632:633   */\n      0x00\n        /* \"#utility.yul\":629:630   */\n      dup1\n        /* \"#utility.yul\":622:634   */\n      revert\n        /* \"#utility.yul\":646:763   */\n    tag_29:\n        /* \"#utility.yul\":755:756   */\n      0x00\n        /* \"#utility.yul\":752:753   */\n      dup1\n        /* \"#utility.yul\":745:757   */\n      revert\n        /* \"#utility.yul\":769:886   */\n    tag_30:\n        /* \"#utility.yul\":878:879   */\n      0x00\n        /* \"#utility.yul\":875:876   */\n      dup1\n        /* \"#utility.yul\":868:880   */\n      revert\n        /* \"#utility.yul\":892:1009   */\n    tag_31:\n        /* \"#utility.yul\":1001:1002   */\n      0x00\n        /* \"#utility.yul\":998:999   */\n      dup1\n        /* \"#utility.yul\":991:1003   */\n      revert\n        /* \"#utility.yul\":1015:1117   */\n    tag_32:\n        /* \"#utility.yul\":1056:1062   */\n      0x00\n        /* \"#utility.yul\":1107:1109   */\n      0x1f\n        /* \"#utility.yul\":1103:1110   */\n      not\n        /* \"#utility.yul\":1098:1100   */\n      0x1f\n        /* \"#utility.yul\":1091:1096   */\n      dup4\n        /* \"#utility.yul\":1087:1101   */\n      add\n        /* \"#utility.yul\":1083:1111   */\n      and\n        /* \"#utility.yul\":1073:1111   */\n      swap1\n      pop\n        /* \"#utility.yul\":1015:1117   */\n      swap2\n      swap1\n      pop\n      jump\t// out\n        /* \"#utility.yul\":1123:1303   */\n    tag_33:\n        /* \"#utility.yul\":1171:1248   */\n      0x4e487b7100000000000000000000000000000000000000000000000000000000\n        /* \"#utility.yul\":1168:1169   */\n      0x00\n        /* \"#utility.yul\":1161:1249   */\n      mstore\n        /* \"#utility.yul\":1268:1272   */\n      0x41\n        /* \"#utility.yul\":1265:1266   */\n      0x04\n        /* \"#utility.yul\":1258:1273   */\n      mstore\n        /* \"#utility.yul\":1292:1296   */\n      0x24\n        /* \"#utility.yul\":1289:1290   */\n      0x00\n        /* \"#utility.yul\":1282:1297   */\n      revert\n        /* \"#utility.yul\":1309:1590   */\n    tag_34:\n        /* \"#utility.yul\":1392:1419   */\n      tag_61\n        /* \"#utility.yul\":1414:1418   */\n      dup3\n        /* \"#utility.yul\":1392:1419   */\n      tag_32\n      jump\t// in\n    tag_61:\n        /* \"#utility.yul\":1384:1390   */\n      dup2\n        /* \"#utility.yul\":1380:1420   */\n      add\n        /* \"#utility.yul\":1522:1528   */\n      dup2\n        /* \"#utility.yul\":1510:1520   */\n      dup2\n        /* \"#utility.yul\":1507:1529   */\n      lt\n        /* \"#utility.yul\":1486:1504   */\n      0xffffffffffffffff\n        /* \"#utility.yul\":1474:1484   */\n      dup3\n        /* \"#utility.yul\":1471:1505   */\n      gt\n        /* \"#utility.yul\":1468:1530   */\n      or\n        /* \"#utility.yul\":1465:1553   */\n      iszero\n      tag_62\n      jumpi\n        /* \"#utility.yul\":1533:1551   */\n      tag_63\n      tag_33\n      jump\t// in\n    tag_63:\n        /* \"#utility.yul\":1465:1553   */\n    tag_62:\n        /* \"#utility.yul\":1573:1583   */\n      dup1\n        /* \"#utility.yul\":1569:1571   */\n      0x40\n        /* \"#utility.yul\":1562:1584   */\n      mstore\n        /* \"#utility.yul\":1352:1590   */\n      pop\n        /* \"#utility.yul\":1309:1590   */\n      pop\n      pop\n      jump\t// out\n        /* \"#utility.yul\":1596:1725   */\n    tag_35:\n        /* \"#utility.yul\":1630:1636   */\n      0x00\n        /* \"#utility.yul\":1657:1677   */\n      tag_65\n      tag_27\n      jump\t// in\n    tag_65:\n        /* \"#utility.yul\":1647:1677   */\n      swap1\n      pop\n        /* \"#utility.yul\":1686:1719   */\n      tag_66\n        /* \"#utility.yul\":1714:1718   */\n      dup3\n        /* \"#utility.yul\":1706:1712   */\n      dup3\n        /* \"#utility.yul\":1686:1719   */\n      tag_34\n      jump\t// in\n    tag_66:\n        /* \"#utility.yul\":1596:1725   */\n      swap2\n      swap1\n      pop\n      jump\t// out\n        /* \"#utility.yul\":1731:2039   */\n    tag_36:\n        /* \"#utility.yul\":1793:1797   */\n      0x00\n        /* \"#utility.yul\":1883:1901   */\n      0xffffffffffffffff\n        /* \"#utility.yul\":1875:1881   */\n      dup3\n        /* \"#utility.yul\":1872:1902   */\n      gt\n        /* \"#utility.yul\":1869:1925   */\n      iszero\n      tag_68\n      jumpi\n        /* \"#utility.yul\":1905:1923   */\n      tag_69\n      tag_33\n      jump\t// in\n    tag_69:\n        /* \"#utility.yul\":1869:1925   */\n    tag_68:\n        /* \"#utility.yul\":1943:1972   */\n      tag_70\n        /* \"#utility.yul\":1965:1971   */\n      dup3\n        /* \"#utility.yul\":1943:1972   */\n      tag_32\n      jump\t// in\n    tag_70:\n        /* \"#utility.yul\":1935:1972   */\n      swap1\n      pop\n        /* \"#utility.yul\":2027:2031   */\n      0x20\n        /* \"#utility.yul\":2021:2025   */\n      dup2\n        /* \"#utility.yul\":2017:2032   */\n      add\n        /* \"#utility.yul\":2009:2032   */\n      swap1\n      pop\n        /* \"#utility.yul\":1731:2039   */\n      swap2\n      swap1\n      pop\n      jump\t// out\n        /* \"#utility.yul\":2045:2193   */\n    tag_37:\n        /* \"#utility.yul\":2143:2149   */\n      dup3\n        /* \"#utility.yul\":2138:2141   */\n      dup2\n        /* \"#utility.yul\":2133:2136   */\n      dup4\n        /* \"#utility.yul\":2120:2150   */\n      calldatacopy\n        /* \"#utility.yul\":2184:2185   */\n      0x00\n        /* \"#utility.yul\":2175:2181   */\n      dup4\n        /* \"#utility.yul\":2170:2173   */\n      dup4\n        /* \"#utility.yul\":2166:2182   */\n      add\n        /* \"#utility.yul\":2159:2186   */\n      mstore\n        /* \"#utility.yul\":2045:2193   */\n      pop\n      pop\n      pop\n      jump\t// out\n        /* \"#utility.yul\":2199:2624   */\n    tag_38:\n        /* \"#utility.yul\":2277:2282   */\n      0x00\n        /* \"#utility.yul\":2302:2368   */\n      tag_73\n        /* \"#utility.yul\":2318:2367   */\n      tag_74\n        /* \"#utility.yul\":2360:2366   */\n      dup5\n        /* \"#utility.yul\":2318:2367   */\n      tag_36\n      jump\t// in\n    tag_74:\n        /* \"#utility.yul\":2302:2368   */\n      tag_35\n      jump\t// in\n    tag_73:\n        /* \"#utility.yul\":2293:2368   */\n      swap1\n      pop\n        /* \"#utility.yul\":2391:2397   */\n      dup3\n        /* \"#utility.yul\":2384:2389   */\n      dup2\n        /* \"#utility.yul\":2377:2398   */\n      mstore\n        /* \"#utility.yul\":2429:2433   */\n      0x20\n        /* \"#utility.yul\":2422:2427   */\n      dup2\n        /* \"#utility.yul\":2418:2434   */\n      add\n        /* \"#utility.yul\":2467:2470   */\n      dup5\n        /* \"#utility.yul\":2458:2464   */\n      dup5\n        /* \"#utility.yul\":2453:2456   */\n      dup5\n        /* \"#utility.yul\":2449:2465   */\n      add\n        /* \"#utility.yul\":2446:2471   */\n      gt\n        /* \"#utility.yul\":2443:2555   */\n      iszero\n      tag_75\n      jumpi\n        /* \"#utility.yul\":2474:2553   */\n      tag_76\n      tag_31\n      jump\t// in\n    tag_76:\n        /* \"#utility.yul\":2443:2555   */\n    tag_75:\n        /* \"#utility.yul\":2564:2618   */\n      tag_77\n        /* \"#utility.yul\":2611:2617   */\n      dup5\n        /* \"#utility.yul\":2606:2609   */\n      dup3\n        /* \"#utility.yul\":2601:2604   */\n      dup6\n        /* \"#utility.yul\":2564:2618   */\n      tag_37\n      jump\t// in\n    tag_77:\n        /* \"#utility.yul\":2283:2624   */\n      pop\n        /* \"#utility.yul\":2199:2624   */\n      swap4\n      swap3\n      pop\n      pop\n      pop\n      jump\t// out\n        /* \"#utility.yul\":2644:2984   */\n    tag_39:\n        /* \"#utility.yul\":2700:2705   */\n      0x00\n        /* \"#utility.yul\":2749:2752   */\n      dup3\n        /* \"#utility.yul\":2742:2746   */\n      0x1f\n        /* \"#utility.yul\":2734:2740   */\n      dup4\n        /* \"#utility.yul\":2730:2747   */\n      add\n        /* \"#utility.yul\":2726:2753   */\n      slt\n        /* \"#utility.yul\":2716:2838   */\n      tag_79\n      jumpi\n        /* \"#utility.yul\":2757:2836   */\n      tag_80\n      tag_30\n      jump\t// in\n    tag_80:\n        /* \"#utility.yul\":2716:2838   */\n    tag_79:\n        /* \"#utility.yul\":2874:2880   */\n      dup2\n        /* \"#utility.yul\":2861:2881   */\n      calldataload\n        /* \"#utility.yul\":2899:2978   */\n      tag_81\n        /* \"#utility.yul\":2974:2977   */\n      dup5\n        /* \"#utility.yul\":2966:2972   */\n      dup3\n        /* \"#utility.yul\":2959:2963   */\n      0x20\n        /* \"#utility.yul\":2951:2957   */\n      dup7\n        /* \"#utility.yul\":2947:2964   */\n      add\n        /* \"#utility.yul\":2899:2978   */\n      tag_38\n      jump\t// in\n    tag_81:\n        /* \"#utility.yul\":2890:2978   */\n      swap2\n      pop\n        /* \"#utility.yul\":2706:2984   */\n      pop\n        /* \"#utility.yul\":2644:2984   */\n      swap3\n      swap2\n      pop\n      pop\n      jump\t// out\n        /* \"#utility.yul\":2990:3499   */\n    tag_12:\n        /* \"#utility.yul\":3059:3065   */\n      0x00\n        /* \"#utility.yul\":3108:3110   */\n      0x20\n        /* \"#utility.yul\":3096:3105   */\n      dup3\n        /* \"#utility.yul\":3087:3094   */\n      dup5\n        /* \"#utility.yul\":3083:3106   */\n      sub\n        /* \"#utility.yul\":3079:3111   */\n      slt\n        /* \"#utility.yul\":3076:3195   */\n      iszero\n      tag_83\n      jumpi\n        /* \"#utility.yul\":3114:3193   */\n      tag_84\n      tag_28\n      jump\t// in\n    tag_84:\n        /* \"#utility.yul\":3076:3195   */\n    tag_83:\n        /* \"#utility.yul\":3262:3263   */\n      0x00\n        /* \"#utility.yul\":3251:3260   */\n      dup3\n        /* \"#utility.yul\":3247:3264   */\n      add\n        /* \"#utility.yul\":3234:3265   */\n      calldataload\n        /* \"#utility.yul\":3292:3310   */\n      0xffffffffffffffff\n        /* \"#utility.yul\":3284:3290   */\n      dup2\n        /* \"#utility.yul\":3281:3311   */\n      gt\n        /* \"#utility.yul\":3278:3395   */\n      iszero\n      tag_85\n      jumpi\n        /* \"#utility.yul\":3314:3393   */\n      tag_86\n      tag_29\n      jump\t// in\n    tag_86:\n        /* \"#utility.yul\":3278:3395   */\n    tag_85:\n        /* \"#utility.yul\":3419:3482   */\n      tag_87\n        /* \"#utility.yul\":3474:3481   */\n      dup5\n        /* \"#utility.yul\":3465:3471   */\n      dup3\n        /* \"#utility.yul\":3454:3463   */\n      dup6\n        /* \"#utility.yul\":3450:3472   */\n      add\n        /* \"#utility.yul\":3419:3482   */\n      tag_39\n      jump\t// in\n    tag_87:\n        /* \"#utility.yul\":3409:3482   */\n      swap2\n      pop\n        /* \"#utility.yul\":3205:3492   */\n      pop\n        /* \"#utility.yul\":2990:3499   */\n      swap3\n      swap2\n      pop\n      pop\n      jump\t// out\n        /* \"#utility.yul\":3505:3604   */\n    tag_40:\n        /* \"#utility.yul\":3557:3563   */\n      0x00\n        /* \"#utility.yul\":3591:3596   */\n      dup2\n        /* \"#utility.yul\":3585:3597   */\n      mload\n        /* \"#utility.yul\":3575:3597   */\n      swap1\n      pop\n        /* \"#utility.yul\":3505:3604   */\n      swap2\n      swap1\n      pop\n      jump\t// out\n        /* \"#utility.yul\":3610:3779   */\n    tag_41:\n        /* \"#utility.yul\":3694:3705   */\n      0x00\n        /* \"#utility.yul\":3728:3734   */\n      dup3\n        /* \"#utility.yul\":3723:3726   */\n      dup3\n        /* \"#utility.yul\":3716:3735   */\n      mstore\n        /* \"#utility.yul\":3768:3772   */\n      0x20\n        /* \"#utility.yul\":3763:3766   */\n      dup3\n        /* \"#utility.yul\":3759:3773   */\n      add\n        /* \"#utility.yul\":3744:3773   */\n      swap1\n      pop\n        /* \"#utility.yul\":3610:3779   */\n      swap3\n      swap2\n      pop\n      pop\n      jump\t// out\n        /* \"#utility.yul\":3785:3924   */\n    tag_42:\n        /* \"#utility.yul\":3874:3880   */\n      dup3\n        /* \"#utility.yul\":3869:3872   */\n      dup2\n        /* \"#utility.yul\":3864:3867   */\n      dup4\n        /* \"#utility.yul\":3858:3881   */\n      mcopy\n        /* \"#utility.yul\":3915:3916   */\n      0x00\n        /* \"#utility.yul\":3906:3912   */\n      dup4\n        /* \"#utility.yul\":3901:3904   */\n      dup4\n        /* \"#utility.yul\":3897:3913   */\n      add\n        /* \"#utility.yul\":3890:3917   */\n      mstore\n        /* \"#utility.yul\":3785:3924   */\n      pop\n      pop\n      pop\n      jump\t// out\n        /* \"#utility.yul\":3930:4307   */\n    tag_43:\n        /* \"#utility.yul\":4018:4021   */\n      0x00\n        /* \"#utility.yul\":4046:4085   */\n      tag_92\n        /* \"#utility.yul\":4079:4084   */\n      dup3\n        /* \"#utility.yul\":4046:4085   */\n      tag_40\n      jump\t// in\n    tag_92:\n        /* \"#utility.yul\":4101:4172   */\n      tag_93\n        /* \"#utility.yul\":4165:4171   */\n      dup2\n        /* \"#utility.yul\":4160:4163   */\n      dup6\n        /* \"#utility.yul\":4101:4172   */\n      tag_41\n      jump\t// in\n    tag_93:\n        /* \"#utility.yul\":4094:4172   */\n      swap4\n      pop\n        /* \"#utility.yul\":4181:4246   */\n      tag_94\n        /* \"#utility.yul\":4239:4245   */\n      dup2\n        /* \"#utility.yul\":4234:4237   */\n      dup6\n        /* \"#utility.yul\":4227:4231   */\n      0x20\n        /* \"#utility.yul\":4220:4225   */\n      dup7\n        /* \"#utility.yul\":4216:4232   */\n      add\n        /* \"#utility.yul\":4181:4246   */\n      tag_42\n      jump\t// in\n    tag_94:\n        /* \"#utility.yul\":4271:4300   */\n      tag_95\n        /* \"#utility.yul\":4293:4299   */\n      dup2\n        /* \"#utility.yul\":4271:4300   */\n      tag_32\n      jump\t// in\n    tag_95:\n        /* \"#utility.yul\":4266:4269   */\n      dup5\n        /* \"#utility.yul\":4262:4301   */\n      add\n        /* \"#utility.yul\":4255:4301   */\n      swap2\n      pop\n        /* \"#utility.yul\":4022:4307   */\n      pop\n        /* \"#utility.yul\":3930:4307   */\n      swap3\n      swap2\n      pop\n      pop\n      jump\t// out\n        /* \"#utility.yul\":4313:4626   */\n    tag_15:\n        /* \"#utility.yul\":4426:4430   */\n      0x00\n        /* \"#utility.yul\":4464:4466   */\n      0x20\n        /* \"#utility.yul\":4453:4462   */\n      dup3\n        /* \"#utility.yul\":4449:4467   */\n      add\n        /* \"#utility.yul\":4441:4467   */\n      swap1\n      pop\n        /* \"#utility.yul\":4513:4522   */\n      dup2\n        /* \"#utility.yul\":4507:4511   */\n      dup2\n        /* \"#utility.yul\":4503:4523   */\n      sub\n        /* \"#utility.yul\":4499:4500   */\n      0x00\n        /* \"#utility.yul\":4488:4497   */\n      dup4\n        /* \"#utility.yul\":4484:4501   */\n      add\n        /* \"#utility.yul\":4477:4524   */\n      mstore\n        /* \"#utility.yul\":4541:4619   */\n      tag_97\n        /* \"#utility.yul\":4614:4618   */\n      dup2\n        /* \"#utility.yul\":4605:4611   */\n      dup5\n        /* \"#utility.yul\":4541:4619   */\n      tag_43\n      jump\t// in\n    tag_97:\n        /* \"#utility.yul\":4533:4619   */\n      swap1\n      pop\n        /* \"#utility.yul\":4313:4626   */\n      swap3\n      swap2\n      pop\n      pop\n      jump\t// out\n        /* \"#utility.yul\":4632:4754   */\n    tag_44:\n        /* \"#utility.yul\":4705:4729   */\n      tag_99\n        /* \"#utility.yul\":4723:4728   */\n      dup2\n        /* \"#utility.yul\":4705:4729   */\n      tag_25\n      jump\t// in\n    tag_99:\n        /* \"#utility.yul\":4698:4703   */\n      dup2\n        /* \"#utility.yul\":4695:4730   */\n      eq\n        /* \"#utility.yul\":4685:4748   */\n      tag_100\n      jumpi\n        /* \"#utility.yul\":4744:4745   */\n      0x00\n        /* \"#utility.yul\":4741:4742   */\n      dup1\n        /* \"#utility.yul\":4734:4746   */\n      revert\n        /* \"#utility.yul\":4685:4748   */\n    tag_100:\n        /* \"#utility.yul\":4632:4754   */\n      pop\n      jump\t// out\n        /* \"#utility.yul\":4760:4899   */\n    tag_45:\n        /* \"#utility.yul\":4806:4811   */\n      0x00\n        /* \"#utility.yul\":4844:4850   */\n      dup2\n        /* \"#utility.yul\":4831:4851   */\n      calldataload\n        /* \"#utility.yul\":4822:4851   */\n      swap1\n      pop\n        /* \"#utility.yul\":4860:4893   */\n      tag_102\n        /* \"#utility.yul\":4887:4892   */\n      dup2\n        /* \"#utility.yul\":4860:4893   */\n      tag_44\n      jump\t// in\n    tag_102:\n        /* \"#utility.yul\":4760:4899   */\n      swap3\n      swap2\n      pop\n      pop\n      jump\t// out\n        /* \"#utility.yul\":4905:5379   */\n    tag_18:\n        /* \"#utility.yul\":4973:4979   */\n      0x00\n        /* \"#utility.yul\":4981:4987   */\n      dup1\n        /* \"#utility.yul\":5030:5032   */\n      0x40\n        /* \"#utility.yul\":5018:5027   */\n      dup4\n        /* \"#utility.yul\":5009:5016   */\n      dup6\n        /* \"#utility.yul\":5005:5028   */\n      sub\n        /* \"#utility.yul\":5001:5033   */\n      slt\n        /* \"#utility.yul\":4998:5117   */\n      iszero\n      tag_104\n      jumpi\n        /* \"#utility.yul\":5036:5115   */\n      tag_105\n      tag_28\n      jump\t// in\n    tag_105:\n        /* \"#utility.yul\":4998:5117   */\n    tag_104:\n        /* \"#utility.yul\":5156:5157   */\n      0x00\n        /* \"#utility.yul\":5181:5234   */\n      tag_106\n        /* \"#utility.yul\":5226:5233   */\n      dup6\n        /* \"#utility.yul\":5217:5223   */\n      dup3\n        /* \"#utility.yul\":5206:5215   */\n      dup7\n        /* \"#utility.yul\":5202:5224   */\n      add\n        /* \"#utility.yul\":5181:5234   */\n      tag_45\n      jump\t// in\n    tag_106:\n        /* \"#utility.yul\":5171:5234   */\n      swap3\n      pop\n        /* \"#utility.yul\":5127:5244   */\n      pop\n        /* \"#utility.yul\":5283:5285   */\n      0x20\n        /* \"#utility.yul\":5309:5362   */\n      tag_107\n        /* \"#utility.yul\":5354:5361   */\n      dup6\n        /* \"#utility.yul\":5345:5351   */\n      dup3\n        /* \"#utility.yul\":5334:5343   */\n      dup7\n        /* \"#utility.yul\":5330:5352   */\n      add\n        /* \"#utility.yul\":5309:5362   */\n      tag_45\n      jump\t// in\n    tag_107:\n        /* \"#utility.yul\":5299:5362   */\n      swap2\n      pop\n        /* \"#utility.yul\":5254:5372   */\n      pop\n        /* \"#utility.yul\":4905:5379   */\n      swap3\n      pop\n      swap3\n      swap1\n      pop\n      jump\t// out\n        /* \"#utility.yul\":5385:5565   */\n    tag_46:\n        /* \"#utility.yul\":5433:5510   */\n      0x4e487b7100000000000000000000000000000000000000000000000000000000\n        /* \"#utility.yul\":5430:5431   */\n      0x00\n        /* \"#utility.yul\":5423:5511   */\n      mstore\n        /* \"#utility.yul\":5530:5534   */\n      0x11\n        /* \"#utility.yul\":5527:5528   */\n      0x04\n        /* \"#utility.yul\":5520:5535   */\n      mstore\n        /* \"#utility.yul\":5554:5558   */\n      0x24\n        /* \"#utility.yul\":5551:5552   */\n      0x00\n        /* \"#utility.yul\":5544:5559   */\n      revert\n        /* \"#utility.yul\":5571:5762   */\n    tag_22:\n        /* \"#utility.yul\":5611:5614   */\n      0x00\n        /* \"#utility.yul\":5630:5650   */\n      tag_110\n        /* \"#utility.yul\":5648:5649   */\n      dup3\n        /* \"#utility.yul\":5630:5650   */\n      tag_25\n      jump\t// in\n    tag_110:\n        /* \"#utility.yul\":5625:5650   */\n      swap2\n      pop\n        /* \"#utility.yul\":5664:5684   */\n      tag_111\n        /* \"#utility.yul\":5682:5683   */\n      dup4\n        /* \"#utility.yul\":5664:5684   */\n      tag_25\n      jump\t// in\n    tag_111:\n        /* \"#utility.yul\":5659:5684   */\n      swap3\n      pop\n        /* \"#utility.yul\":5707:5708   */\n      dup3\n        /* \"#utility.yul\":5704:5705   */\n      dup3\n        /* \"#utility.yul\":5700:5709   */\n      add\n        /* \"#utility.yul\":5693:5709   */\n      swap1\n      pop\n        /* \"#utility.yul\":5728:5731   */\n      dup1\n        /* \"#utility.yul\":5725:5726   */\n      dup3\n        /* \"#utility.yul\":5722:5732   */\n      gt\n        /* \"#utility.yul\":5719:5755   */\n      iszero\n      tag_112\n      jumpi\n        /* \"#utility.yul\":5735:5753   */\n      tag_113\n      tag_46\n      jump\t// in\n    tag_113:\n        /* \"#utility.yul\":5719:5755   */\n    tag_112:\n        /* \"#utility.yul\":5571:5762   */\n      swap3\n      swap2\n      pop\n      pop\n      jump\t// out\n\n    auxdata: 0xa2646970667358221220abc1b18671aa8bc1989e9ecc619b5986ae3eb32ccc5f87b84eb0676456956d8a64736f6c63430008190033\n}\n",
				"bytecode": {
					"linkReferences": {},
					"object": "6080604052348015600e575f80fd5b506104208061001c5f395ff3fe608060405234801561000f575f80fd5b506004361061003f575f3560e01c80634f2be91f1461004357806367d498f9146100615780637b8d56e314610091575b5f80fd5b61004b6100ad565b60405161005891906100f5565b60405180910390f35b61007b6004803603810190610076919061025b565b6100c2565b6040516100889190610302565b60405180910390f35b6100ab60048036038101906100a6919061034c565b6100cc565b005b5f6001545f546100bd91906103b7565b905090565b6060819050919050565b815f81905550806001819055505050565b5f819050919050565b6100ef816100dd565b82525050565b5f6020820190506101085f8301846100e6565b92915050565b5f604051905090565b5f80fd5b5f80fd5b5f80fd5b5f80fd5b5f601f19601f8301169050919050565b7f4e487b71000000000000000000000000000000000000000000000000000000005f52604160045260245ffd5b61016d82610127565b810181811067ffffffffffffffff8211171561018c5761018b610137565b5b80604052505050565b5f61019e61010e565b90506101aa8282610164565b919050565b5f67ffffffffffffffff8211156101c9576101c8610137565b5b6101d282610127565b9050602081019050919050565b828183375f83830152505050565b5f6101ff6101fa846101af565b610195565b90508281526020810184848401111561021b5761021a610123565b5b6102268482856101df565b509392505050565b5f82601f8301126102425761024161011f565b5b81356102528482602086016101ed565b91505092915050565b5f602082840312156102705761026f610117565b5b5f82013567ffffffffffffffff81111561028d5761028c61011b565b5b6102998482850161022e565b91505092915050565b5f81519050919050565b5f82825260208201905092915050565b8281835e5f83830152505050565b5f6102d4826102a2565b6102de81856102ac565b93506102ee8185602086016102bc565b6102f781610127565b840191505092915050565b5f6020820190508181035f83015261031a81846102ca565b905092915050565b61032b816100dd565b8114610335575f80fd5b50565b5f8135905061034681610322565b92915050565b5f806040838503121561036257610361610117565b5b5f61036f85828601610338565b925050602061038085828601610338565b9150509250929050565b7f4e487b71000000000000000000000000000000000000000000000000000000005f52601160045260245ffd5b5f6103c1826100dd565b91506103cc836100dd565b92508282019050808211156103e4576103e361038a565b5b9291505056fea2646970667358221220abc1b18671aa8bc1989e9ecc619b5986ae3eb32ccc5f87b84eb0676456956d8a64736f6c63430008190033",
					"opcodes": "PUSH1 0x80 PUSH1 0x40 MSTORE CALLVALUE DUP1 ISZERO PUSH1 0xE JUMPI PUSH0 DUP1 REVERT JUMPDEST POP PUSH2 0x420 DUP1 PUSH2 0x1C PUSH0 CODECOPY PUSH0 RETURN INVALID PUSH1 0x80 PUSH1 0x40 MSTORE CALLVALUE DUP1 ISZERO PUSH2 0xF JUMPI PUSH0 DUP1 REVERT JUMPDEST POP PUSH1 0x4 CALLDATASIZE LT PUSH2 0x3F JUMPI PUSH0 CALLDATALOAD PUSH1 0xE0 SHR DUP1 PUSH4 0x4F2BE91F EQ PUSH2 0x43 JUMPI DUP1 PUSH4 0x67D498F9 EQ PUSH2 0x61 JUMPI DUP1 PUSH4 0x7B8D56E3 EQ PUSH2 0x91 JUMPI JUMPDEST PUSH0 DUP1 REVERT JUMPDEST PUSH2 0x4B PUSH2 0xAD JUMP JUMPDEST PUSH1 0x40 MLOAD PUSH2 0x58 SWAP2 SWAP1 PUSH2 0xF5 JUMP JUMPDEST PUSH1 0x40 MLOAD DUP1 SWAP2 SUB SWAP1 RETURN JUMPDEST PUSH2 0x7B PUSH1 0x4 DUP1 CALLDATASIZE SUB DUP2 ADD SWAP1 PUSH2 0x76 SWAP2 SWAP1 PUSH2 0x25B JUMP JUMPDEST PUSH2 0xC2 JUMP JUMPDEST PUSH1 0x40 MLOAD PUSH2 0x88 SWAP2 SWAP1 PUSH2 0x302 JUMP JUMPDEST PUSH1 0x40 MLOAD DUP1 SWAP2 SUB SWAP1 RETURN JUMPDEST PUSH2 0xAB PUSH1 0x4 DUP1 CALLDATASIZE SUB DUP2 ADD SWAP1 PUSH2 0xA6 SWAP2 SWAP1 PUSH2 0x34C JUMP JUMPDEST PUSH2 0xCC JUMP JUMPDEST STOP JUMPDEST PUSH0 PUSH1 0x1 SLOAD PUSH0 SLOAD PUSH2 0xBD SWAP2 SWAP1 PUSH2 0x3B7 JUMP JUMPDEST SWAP1 POP SWAP1 JUMP JUMPDEST PUSH1 0x60 DUP2 SWAP1 POP SWAP2 SWAP1 POP JUMP JUMPDEST DUP2 PUSH0 DUP2 SWAP1 SSTORE POP DUP1 PUSH1 0x1 DUP2 SWAP1 SSTORE POP POP POP JUMP JUMPDEST PUSH0 DUP2 SWAP1 POP SWAP2 SWAP1 POP JUMP JUMPDEST PUSH2 0xEF DUP2 PUSH2 0xDD JUMP JUMPDEST DUP3 MSTORE POP POP JUMP JUMPDEST PUSH0 PUSH1 0x20 DUP3 ADD SWAP1 POP PUSH2 0x108 PUSH0 DUP4 ADD DUP5 PUSH2 0xE6 JUMP JUMPDEST SWAP3 SWAP2 POP POP JUMP JUMPDEST PUSH0 PUSH1 0x40 MLOAD SWAP1 POP SWAP1 JUMP JUMPDEST PUSH0 DUP1 REVERT JUMPDEST PUSH0 DUP1 REVERT JUMPDEST PUSH0 DUP1 REVERT JUMPDEST PUSH0 DUP1 REVERT JUMPDEST PUSH0 PUSH1 0x1F NOT PUSH1 0x1F DUP4 ADD AND SWAP1 POP SWAP2 SWAP1 POP JUMP JUMPDEST PUSH32 0x4E487B7100000000000000000000000000000000000000000000000000000000 PUSH0 MSTORE PUSH1 0x41 PUSH1 0x4 MSTORE PUSH1 0x24 PUSH0 REVERT JUMPDEST PUSH2 0x16D DUP3 PUSH2 0x127 JUMP JUMPDEST DUP2 ADD DUP2 DUP2 LT PUSH8 0xFFFFFFFFFFFFFFFF DUP3 GT OR ISZERO PUSH2 0x18C JUMPI PUSH2 0x18B PUSH2 0x137 JUMP JUMPDEST JUMPDEST DUP1 PUSH1 0x40 MSTORE POP POP POP JUMP JUMPDEST PUSH0 PUSH2 0x19E PUSH2 0x10E JUMP JUMPDEST SWAP1 POP PUSH2 0x1AA DUP3 DUP3 PUSH2 0x164 JUMP JUMPDEST SWAP2 SWAP1 POP JUMP JUMPDEST PUSH0 PUSH8 0xFFFFFFFFFFFFFFFF DUP3 GT ISZERO PUSH2 0x1C9 JUMPI PUSH2 0x1C8 PUSH2 0x137 JUMP JUMPDEST JUMPDEST PUSH2 0x1D2 DUP3 PUSH2 0x127 JUMP JUMPDEST SWAP1 POP PUSH1 0x20 DUP2 ADD SWAP1 POP SWAP2 SWAP1 POP JUMP JUMPDEST DUP3 DUP2 DUP4 CALLDATACOPY PUSH0 DUP4 DUP4 ADD MSTORE POP POP POP JUMP JUMPDEST PUSH0 PUSH2 0x1FF PUSH2 0x1FA DUP5 PUSH2 0x1AF JUMP JUMPDEST PUSH2 0x195 JUMP JUMPDEST SWAP1 POP DUP3 DUP2 MSTORE PUSH1 0x20 DUP2 ADD DUP5 DUP5 DUP5 ADD GT ISZERO PUSH2 0x21B JUMPI PUSH2 0x21A PUSH2 0x123 JUMP JUMPDEST JUMPDEST PUSH2 0x226 DUP5 DUP3 DUP6 PUSH2 0x1DF JUMP JUMPDEST POP SWAP4 SWAP3 POP POP POP JUMP JUMPDEST PUSH0 DUP3 PUSH1 0x1F DUP4 ADD SLT PUSH2 0x242 JUMPI PUSH2 0x241 PUSH2 0x11F JUMP JUMPDEST JUMPDEST DUP2 CALLDATALOAD PUSH2 0x252 DUP5 DUP3 PUSH1 0x20 DUP7 ADD PUSH2 0x1ED JUMP JUMPDEST SWAP2 POP POP SWAP3 SWAP2 POP POP JUMP JUMPDEST PUSH0 PUSH1 0x20 DUP3 DUP5 SUB SLT ISZERO PUSH2 0x270 JUMPI PUSH2 0x26F PUSH2 0x117 JUMP JUMPDEST JUMPDEST PUSH0 DUP3 ADD CALLDATALOAD PUSH8 0xFFFFFFFFFFFFFFFF DUP2 GT ISZERO PUSH2 0x28D JUMPI PUSH2 0x28C PUSH2 0x11B JUMP JUMPDEST JUMPDEST PUSH2 0x299 DUP5 DUP3 DUP6 ADD PUSH2 0x22E JUMP JUMPDEST SWAP2 POP POP SWAP3 SWAP2 POP POP JUMP JUMPDEST PUSH0 DUP2 MLOAD SWAP1 POP SWAP2 SWAP1 POP JUMP JUMPDEST PUSH0 DUP3 DUP3 MSTORE PUSH1 0x20 DUP3 ADD SWAP1 POP SWAP3 SWAP2 POP POP JUMP JUMPDEST DUP3 DUP2 DUP4 MCOPY PUSH0 DUP4 DUP4 ADD MSTORE POP POP POP JUMP JUMPDEST PUSH0 PUSH2 0x2D4 DUP3 PUSH2 0x2A2 JUMP JUMPDEST PUSH2 0x2DE DUP2 DUP6 PUSH2 0x2AC JUMP JUMPDEST SWAP4 POP PUSH2 0x2EE DUP2 DUP6 PUSH1 0x20 DUP7 ADD PUSH2 0x2BC JUMP JUMPDEST PUSH2 0x2F7 DUP2 PUSH2 0x127 JUMP JUMPDEST DUP5 ADD SWAP2 POP POP SWAP3 SWAP2 POP POP JUMP JUMPDEST PUSH0 PUSH1 0x20 DUP3 ADD SWAP1 POP DUP2 DUP2 SUB PUSH0 DUP4 ADD MSTORE PUSH2 0x31A DUP2 DUP5 PUSH2 0x2CA JUMP JUMPDEST SWAP1 POP SWAP3 SWAP2 POP POP JUMP JUMPDEST PUSH2 0x32B DUP2 PUSH2 0xDD JUMP JUMPDEST DUP2 EQ PUSH2 0x335 JUMPI PUSH0 DUP1 REVERT JUMPDEST POP JUMP JUMPDEST PUSH0 DUP2 CALLDATALOAD SWAP1 POP PUSH2 0x346 DUP2 PUSH2 0x322 JUMP JUMPDEST SWAP3 SWAP2 POP POP JUMP JUMPDEST PUSH0 DUP1 PUSH1 0x40 DUP4 DUP6 SUB SLT ISZERO PUSH2 0x362 JUMPI PUSH2 0x361 PUSH2 0x117 JUMP JUMPDEST JUMPDEST PUSH0 PUSH2 0x36F DUP6 DUP3 DUP7 ADD PUSH2 0x338 JUMP JUMPDEST SWAP3 POP POP PUSH1 0x20 PUSH2 0x380 DUP6 DUP3 DUP7 ADD PUSH2 0x338 JUMP JUMPDEST SWAP2 POP POP SWAP3 POP SWAP3 SWAP1 POP JUMP JUMPDEST PUSH32 0x4E487B7100000000000000000000000000000000000000000000000000000000 PUSH0 MSTORE PUSH1 0x11 PUSH1 0x4 MSTORE PUSH1 0x24 PUSH0 REVERT JUMPDEST PUSH0 PUSH2 0x3C1 DUP3 PUSH2 0xDD JUMP JUMPDEST SWAP2 POP PUSH2 0x3CC DUP4 PUSH2 0xDD JUMP JUMPDEST SWAP3 POP DUP3 DUP3 ADD SWAP1 POP DUP1 DUP3 GT ISZERO PUSH2 0x3E4 JUMPI PUSH2 0x3E3 PUSH2 0x38A JUMP JUMPDEST JUMPDEST SWAP3 SWAP2 POP POP JUMP INVALID LOG2 PUSH5 0x6970667358 0x22 SLT KECCAK256 0xAB 0xC1 0xB1 DUP7 PUSH18 0xAA8BC1989E9ECC619B5986AE3EB32CCC5F87 0xB8 0x4E 0xB0 PUSH8 0x6456956D8A64736F PUSH13 0x63430008190033000000000000 "
				},
				"gasEstimates": {
					"creation": {
						"codeDepositCost": "211200",
						"executionCost": "249",
						"totalCost": "211449"
					},
					"external": {
						"add()": "infinite",
						"getstr(string)": "infinite",
						"setValue(uint256,uint256)": "infinite"
					}
				},
				"methodIdentifiers": {
					"add()": "4f2be91f",
					"getstr(string)": "67d498f9",
					"setValue(uint256,uint256)": "7b8d56e3"
				}
			},
			"storageLayout": {
				"storage": [
					{
						"astId": 25,
						"contract": "contracts/interface.sol:derivedContract",
						"label": "num1",
						"offset": 0,
						"slot": "0",
						"type": "t_uint256"
					},
					{
						"astId": 27,
						"contract": "contracts/interface.sol:derivedContract",
						"label": "num2",
						"offset": 0,
						"slot": "1",
						"type": "t_uint256"
					}
				],
				"types": {
					"t_uint256": {
						"encoding": "inplace",
						"label": "uint256",
						"numberOfBytes": "32"
					}
				}
			},
			"userdoc": {
				"kind": "user",
				"methods": {},
				"version": 1
			}
		}
	}
}