{
	"contracts/ex.sol": {
		"StringCompare": {
			"abi": [
				{
					"inputs": [
						{
							"internalType": "string",
							"name": "a",
							"type": "string"
						},
						{
							"internalType": "string",
							"name": "b",
							"type": "string"
						}
					],
					"name": "compareStrings",
					"outputs": [
						{
							"internalType": "bool",
							"name": "",
							"type": "bool"
						}
					],
					"stateMutability": "pure",
					"type": "function"
				},
				{
					"inputs": [
						{
							"internalType": "string",
							"name": "a",
							"type": "string"
						},
						{
							"internalType": "string",
							"name": "b",
							"type": "string"
						}
					],
					"name": "isEqual",
					"outputs": [
						{
							"internalType": "string",
							"name": "",
							"type": "string"
						}
					],
					"stateMutability": "pure",
					"type": "function"
				}
			],
			"devdoc": {
				"kind": "dev",
				"methods": {},
				"version": 1
			},
			"evm": {
				"assembly": "    /* \"contracts/ex.sol\":60:671  contract StringCompare {... */\n  mstore(0x40, 0x80)\n  callvalue\n  dup1\n  iszero\n  tag_1\n  jumpi\n  0x00\n  dup1\n  revert\ntag_1:\n  pop\n  dataSize(sub_0)\n  dup1\n  dataOffset(sub_0)\n  0x00\n  codecopy\n  0x00\n  return\nstop\n\nsub_0: assembly {\n        /* \"contracts/ex.sol\":60:671  contract StringCompare {... */\n      mstore(0x40, 0x80)\n      callvalue\n      dup1\n      iszero\n      tag_1\n      jumpi\n      0x00\n      dup1\n      revert\n    tag_1:\n      pop\n      jumpi(tag_2, lt(calldatasize, 0x04))\n      shr(0xe0, calldataload(0x00))\n      dup1\n      0x465c4105\n      eq\n      tag_3\n      jumpi\n      dup1\n      0xbed34bba\n      eq\n      tag_4\n      jumpi\n    tag_2:\n      0x00\n      dup1\n      revert\n        /* \"contracts/ex.sol\":421:668  function isEqual(string memory a, string memory b) public pure returns (string memory) {... */\n    tag_3:\n      tag_5\n      0x04\n      dup1\n      calldatasize\n      sub\n      dup2\n      add\n      swap1\n      tag_6\n      swap2\n      swap1\n      tag_7\n      jump\t// in\n    tag_6:\n      tag_8\n      jump\t// in\n    tag_5:\n      mload(0x40)\n      tag_9\n      swap2\n      swap1\n      tag_10\n      jump\t// in\n    tag_9:\n      mload(0x40)\n      dup1\n      swap2\n      sub\n      swap1\n      return\n        /* \"contracts/ex.sol\":136:359  function compareStrings(string memory a, string memory b) public pure returns (bool) {... */\n    tag_4:\n      tag_11\n      0x04\n      dup1\n      calldatasize\n      sub\n      dup2\n      add\n      swap1\n      tag_12\n      swap2\n      swap1\n      tag_7\n      jump\t// in\n    tag_12:\n      tag_13\n      jump\t// in\n    tag_11:\n      mload(0x40)\n      tag_14\n      swap2\n      swap1\n      tag_15\n      jump\t// in\n    tag_14:\n      mload(0x40)\n      dup1\n      swap2\n      sub\n      swap1\n      return\n        /* \"contracts/ex.sol\":421:668  function isEqual(string memory a, string memory b) public pure returns (string memory) {... */\n    tag_8:\n        /* \"contracts/ex.sol\":493:506  string memory */\n      0x60\n        /* \"contracts/ex.sol\":523:543  compareStrings(a, b) */\n      tag_17\n        /* \"contracts/ex.sol\":538:539  a */\n      dup4\n        /* \"contracts/ex.sol\":541:542  b */\n      dup4\n        /* \"contracts/ex.sol\":523:537  compareStrings */\n      tag_13\n        /* \"contracts/ex.sol\":523:543  compareStrings(a, b) */\n      jump\t// in\n    tag_17:\n        /* \"contracts/ex.sol\":519:661  if (compareStrings(a, b)) {... */\n      iszero\n      tag_18\n      jumpi\n        /* \"contracts/ex.sol\":560:586  return \"Strings are equal\" */\n      mload(0x40)\n      dup1\n      0x40\n      add\n      0x40\n      mstore\n      dup1\n      0x11\n      dup2\n      mstore\n      0x20\n      add\n      0x537472696e67732061726520657175616c000000000000000000000000000000\n      dup2\n      mstore\n      pop\n      swap1\n      pop\n      jump(tag_16)\n        /* \"contracts/ex.sol\":519:661  if (compareStrings(a, b)) {... */\n    tag_18:\n        /* \"contracts/ex.sol\":619:649  return \"Strings are not equal\" */\n      mload(0x40)\n      dup1\n      0x40\n      add\n      0x40\n      mstore\n      dup1\n      0x15\n      dup2\n      mstore\n      0x20\n      add\n      0x537472696e677320617265206e6f7420657175616c0000000000000000000000\n      dup2\n      mstore\n      pop\n      swap1\n      pop\n        /* \"contracts/ex.sol\":421:668  function isEqual(string memory a, string memory b) public pure returns (string memory) {... */\n    tag_16:\n      swap3\n      swap2\n      pop\n      pop\n      jump\t// out\n        /* \"contracts/ex.sol\":136:359  function compareStrings(string memory a, string memory b) public pure returns (bool) {... */\n    tag_13:\n        /* \"contracts/ex.sol\":215:219  bool */\n      0x00\n        /* \"contracts/ex.sol\":348:349  b */\n      dup2\n        /* \"contracts/ex.sol\":331:350  abi.encodePacked(b) */\n      add(0x20, mload(0x40))\n      tag_21\n      swap2\n      swap1\n      tag_22\n      jump\t// in\n    tag_21:\n      mload(0x40)\n      0x20\n      dup2\n      dup4\n      sub\n      sub\n      dup2\n      mstore\n      swap1\n      0x40\n      mstore\n        /* \"contracts/ex.sol\":321:351  keccak256(abi.encodePacked(b)) */\n      dup1\n      mload\n      swap1\n      0x20\n      add\n      keccak256\n        /* \"contracts/ex.sol\":314:315  a */\n      dup4\n        /* \"contracts/ex.sol\":297:316  abi.encodePacked(a) */\n      add(0x20, mload(0x40))\n      tag_23\n      swap2\n      swap1\n      tag_22\n      jump\t// in\n    tag_23:\n      mload(0x40)\n      0x20\n      dup2\n      dup4\n      sub\n      sub\n      dup2\n      mstore\n      swap1\n      0x40\n      mstore\n        /* \"contracts/ex.sol\":287:317  keccak256(abi.encodePacked(a)) */\n      dup1\n      mload\n      swap1\n      0x20\n      add\n      keccak256\n        /* \"contracts/ex.sol\":287:351  keccak256(abi.encodePacked(a)) == keccak256(abi.encodePacked(b)) */\n      eq\n        /* \"contracts/ex.sol\":280:351  return keccak256(abi.encodePacked(a)) == keccak256(abi.encodePacked(b)) */\n      swap1\n      pop\n        /* \"contracts/ex.sol\":136:359  function compareStrings(string memory a, string memory b) public pure returns (bool) {... */\n      swap3\n      swap2\n      pop\n      pop\n      jump\t// out\n        /* \"#utility.yul\":7:82   */\n    tag_24:\n        /* \"#utility.yul\":40:46   */\n      0x00\n        /* \"#utility.yul\":73:75   */\n      0x40\n        /* \"#utility.yul\":67:76   */\n      mload\n        /* \"#utility.yul\":57:76   */\n      swap1\n      pop\n        /* \"#utility.yul\":7:82   */\n      swap1\n      jump\t// out\n        /* \"#utility.yul\":88:205   */\n    tag_25:\n        /* \"#utility.yul\":197:198   */\n      0x00\n        /* \"#utility.yul\":194:195   */\n      dup1\n        /* \"#utility.yul\":187:199   */\n      revert\n        /* \"#utility.yul\":211:328   */\n    tag_26:\n        /* \"#utility.yul\":320:321   */\n      0x00\n        /* \"#utility.yul\":317:318   */\n      dup1\n        /* \"#utility.yul\":310:322   */\n      revert\n        /* \"#utility.yul\":334:451   */\n    tag_27:\n        /* \"#utility.yul\":443:444   */\n      0x00\n        /* \"#utility.yul\":440:441   */\n      dup1\n        /* \"#utility.yul\":433:445   */\n      revert\n        /* \"#utility.yul\":457:574   */\n    tag_28:\n        /* \"#utility.yul\":566:567   */\n      0x00\n        /* \"#utility.yul\":563:564   */\n      dup1\n        /* \"#utility.yul\":556:568   */\n      revert\n        /* \"#utility.yul\":580:682   */\n    tag_29:\n        /* \"#utility.yul\":621:627   */\n      0x00\n        /* \"#utility.yul\":672:674   */\n      0x1f\n        /* \"#utility.yul\":668:675   */\n      not\n        /* \"#utility.yul\":663:665   */\n      0x1f\n        /* \"#utility.yul\":656:661   */\n      dup4\n        /* \"#utility.yul\":652:666   */\n      add\n        /* \"#utility.yul\":648:676   */\n      and\n        /* \"#utility.yul\":638:676   */\n      swap1\n      pop\n        /* \"#utility.yul\":580:682   */\n      swap2\n      swap1\n      pop\n      jump\t// out\n        /* \"#utility.yul\":688:868   */\n    tag_30:\n        /* \"#utility.yul\":736:813   */\n      0x4e487b7100000000000000000000000000000000000000000000000000000000\n        /* \"#utility.yul\":733:734   */\n      0x00\n        /* \"#utility.yul\":726:814   */\n      mstore\n        /* \"#utility.yul\":833:837   */\n      0x41\n        /* \"#utility.yul\":830:831   */\n      0x04\n        /* \"#utility.yul\":823:838   */\n      mstore\n        /* \"#utility.yul\":857:861   */\n      0x24\n        /* \"#utility.yul\":854:855   */\n      0x00\n        /* \"#utility.yul\":847:862   */\n      revert\n        /* \"#utility.yul\":874:1155   */\n    tag_31:\n        /* \"#utility.yul\":957:984   */\n      tag_54\n        /* \"#utility.yul\":979:983   */\n      dup3\n        /* \"#utility.yul\":957:984   */\n      tag_29\n      jump\t// in\n    tag_54:\n        /* \"#utility.yul\":949:955   */\n      dup2\n        /* \"#utility.yul\":945:985   */\n      add\n        /* \"#utility.yul\":1087:1093   */\n      dup2\n        /* \"#utility.yul\":1075:1085   */\n      dup2\n        /* \"#utility.yul\":1072:1094   */\n      lt\n        /* \"#utility.yul\":1051:1069   */\n      0xffffffffffffffff\n        /* \"#utility.yul\":1039:1049   */\n      dup3\n        /* \"#utility.yul\":1036:1070   */\n      gt\n        /* \"#utility.yul\":1033:1095   */\n      or\n        /* \"#utility.yul\":1030:1118   */\n      iszero\n      tag_55\n      jumpi\n        /* \"#utility.yul\":1098:1116   */\n      tag_56\n      tag_30\n      jump\t// in\n    tag_56:\n        /* \"#utility.yul\":1030:1118   */\n    tag_55:\n        /* \"#utility.yul\":1138:1148   */\n      dup1\n        /* \"#utility.yul\":1134:1136   */\n      0x40\n        /* \"#utility.yul\":1127:1149   */\n      mstore\n        /* \"#utility.yul\":917:1155   */\n      pop\n        /* \"#utility.yul\":874:1155   */\n      pop\n      pop\n      jump\t// out\n        /* \"#utility.yul\":1161:1290   */\n    tag_32:\n        /* \"#utility.yul\":1195:1201   */\n      0x00\n        /* \"#utility.yul\":1222:1242   */\n      tag_58\n      tag_24\n      jump\t// in\n    tag_58:\n        /* \"#utility.yul\":1212:1242   */\n      swap1\n      pop\n        /* \"#utility.yul\":1251:1284   */\n      tag_59\n        /* \"#utility.yul\":1279:1283   */\n      dup3\n        /* \"#utility.yul\":1271:1277   */\n      dup3\n        /* \"#utility.yul\":1251:1284   */\n      tag_31\n      jump\t// in\n    tag_59:\n        /* \"#utility.yul\":1161:1290   */\n      swap2\n      swap1\n      pop\n      jump\t// out\n        /* \"#utility.yul\":1296:1604   */\n    tag_33:\n        /* \"#utility.yul\":1358:1362   */\n      0x00\n        /* \"#utility.yul\":1448:1466   */\n      0xffffffffffffffff\n        /* \"#utility.yul\":1440:1446   */\n      dup3\n        /* \"#utility.yul\":1437:1467   */\n      gt\n        /* \"#utility.yul\":1434:1490   */\n      iszero\n      tag_61\n      jumpi\n        /* \"#utility.yul\":1470:1488   */\n      tag_62\n      tag_30\n      jump\t// in\n    tag_62:\n        /* \"#utility.yul\":1434:1490   */\n    tag_61:\n        /* \"#utility.yul\":1508:1537   */\n      tag_63\n        /* \"#utility.yul\":1530:1536   */\n      dup3\n        /* \"#utility.yul\":1508:1537   */\n      tag_29\n      jump\t// in\n    tag_63:\n        /* \"#utility.yul\":1500:1537   */\n      swap1\n      pop\n        /* \"#utility.yul\":1592:1596   */\n      0x20\n        /* \"#utility.yul\":1586:1590   */\n      dup2\n        /* \"#utility.yul\":1582:1597   */\n      add\n        /* \"#utility.yul\":1574:1597   */\n      swap1\n      pop\n        /* \"#utility.yul\":1296:1604   */\n      swap2\n      swap1\n      pop\n      jump\t// out\n        /* \"#utility.yul\":1610:1758   */\n    tag_34:\n        /* \"#utility.yul\":1708:1714   */\n      dup3\n        /* \"#utility.yul\":1703:1706   */\n      dup2\n        /* \"#utility.yul\":1698:1701   */\n      dup4\n        /* \"#utility.yul\":1685:1715   */\n      calldatacopy\n        /* \"#utility.yul\":1749:1750   */\n      0x00\n        /* \"#utility.yul\":1740:1746   */\n      dup4\n        /* \"#utility.yul\":1735:1738   */\n      dup4\n        /* \"#utility.yul\":1731:1747   */\n      add\n        /* \"#utility.yul\":1724:1751   */\n      mstore\n        /* \"#utility.yul\":1610:1758   */\n      pop\n      pop\n      pop\n      jump\t// out\n        /* \"#utility.yul\":1764:2189   */\n    tag_35:\n        /* \"#utility.yul\":1842:1847   */\n      0x00\n        /* \"#utility.yul\":1867:1933   */\n      tag_66\n        /* \"#utility.yul\":1883:1932   */\n      tag_67\n        /* \"#utility.yul\":1925:1931   */\n      dup5\n        /* \"#utility.yul\":1883:1932   */\n      tag_33\n      jump\t// in\n    tag_67:\n        /* \"#utility.yul\":1867:1933   */\n      tag_32\n      jump\t// in\n    tag_66:\n        /* \"#utility.yul\":1858:1933   */\n      swap1\n      pop\n        /* \"#utility.yul\":1956:1962   */\n      dup3\n        /* \"#utility.yul\":1949:1954   */\n      dup2\n        /* \"#utility.yul\":1942:1963   */\n      mstore\n        /* \"#utility.yul\":1994:1998   */\n      0x20\n        /* \"#utility.yul\":1987:1992   */\n      dup2\n        /* \"#utility.yul\":1983:1999   */\n      add\n        /* \"#utility.yul\":2032:2035   */\n      dup5\n        /* \"#utility.yul\":2023:2029   */\n      dup5\n        /* \"#utility.yul\":2018:2021   */\n      dup5\n        /* \"#utility.yul\":2014:2030   */\n      add\n        /* \"#utility.yul\":2011:2036   */\n      gt\n        /* \"#utility.yul\":2008:2120   */\n      iszero\n      tag_68\n      jumpi\n        /* \"#utility.yul\":2039:2118   */\n      tag_69\n      tag_28\n      jump\t// in\n    tag_69:\n        /* \"#utility.yul\":2008:2120   */\n    tag_68:\n        /* \"#utility.yul\":2129:2183   */\n      tag_70\n        /* \"#utility.yul\":2176:2182   */\n      dup5\n        /* \"#utility.yul\":2171:2174   */\n      dup3\n        /* \"#utility.yul\":2166:2169   */\n      dup6\n        /* \"#utility.yul\":2129:2183   */\n      tag_34\n      jump\t// in\n    tag_70:\n        /* \"#utility.yul\":1848:2189   */\n      pop\n        /* \"#utility.yul\":1764:2189   */\n      swap4\n      swap3\n      pop\n      pop\n      pop\n      jump\t// out\n        /* \"#utility.yul\":2209:2549   */\n    tag_36:\n        /* \"#utility.yul\":2265:2270   */\n      0x00\n        /* \"#utility.yul\":2314:2317   */\n      dup3\n        /* \"#utility.yul\":2307:2311   */\n      0x1f\n        /* \"#utility.yul\":2299:2305   */\n      dup4\n        /* \"#utility.yul\":2295:2312   */\n      add\n        /* \"#utility.yul\":2291:2318   */\n      slt\n        /* \"#utility.yul\":2281:2403   */\n      tag_72\n      jumpi\n        /* \"#utility.yul\":2322:2401   */\n      tag_73\n      tag_27\n      jump\t// in\n    tag_73:\n        /* \"#utility.yul\":2281:2403   */\n    tag_72:\n        /* \"#utility.yul\":2439:2445   */\n      dup2\n        /* \"#utility.yul\":2426:2446   */\n      calldataload\n        /* \"#utility.yul\":2464:2543   */\n      tag_74\n        /* \"#utility.yul\":2539:2542   */\n      dup5\n        /* \"#utility.yul\":2531:2537   */\n      dup3\n        /* \"#utility.yul\":2524:2528   */\n      0x20\n        /* \"#utility.yul\":2516:2522   */\n      dup7\n        /* \"#utility.yul\":2512:2529   */\n      add\n        /* \"#utility.yul\":2464:2543   */\n      tag_35\n      jump\t// in\n    tag_74:\n        /* \"#utility.yul\":2455:2543   */\n      swap2\n      pop\n        /* \"#utility.yul\":2271:2549   */\n      pop\n        /* \"#utility.yul\":2209:2549   */\n      swap3\n      swap2\n      pop\n      pop\n      jump\t// out\n        /* \"#utility.yul\":2555:3389   */\n    tag_7:\n        /* \"#utility.yul\":2643:2649   */\n      0x00\n        /* \"#utility.yul\":2651:2657   */\n      dup1\n        /* \"#utility.yul\":2700:2702   */\n      0x40\n        /* \"#utility.yul\":2688:2697   */\n      dup4\n        /* \"#utility.yul\":2679:2686   */\n      dup6\n        /* \"#utility.yul\":2675:2698   */\n      sub\n        /* \"#utility.yul\":2671:2703   */\n      slt\n        /* \"#utility.yul\":2668:2787   */\n      iszero\n      tag_76\n      jumpi\n        /* \"#utility.yul\":2706:2785   */\n      tag_77\n      tag_25\n      jump\t// in\n    tag_77:\n        /* \"#utility.yul\":2668:2787   */\n    tag_76:\n        /* \"#utility.yul\":2854:2855   */\n      0x00\n        /* \"#utility.yul\":2843:2852   */\n      dup4\n        /* \"#utility.yul\":2839:2856   */\n      add\n        /* \"#utility.yul\":2826:2857   */\n      calldataload\n        /* \"#utility.yul\":2884:2902   */\n      0xffffffffffffffff\n        /* \"#utility.yul\":2876:2882   */\n      dup2\n        /* \"#utility.yul\":2873:2903   */\n      gt\n        /* \"#utility.yul\":2870:2987   */\n      iszero\n      tag_78\n      jumpi\n        /* \"#utility.yul\":2906:2985   */\n      tag_79\n      tag_26\n      jump\t// in\n    tag_79:\n        /* \"#utility.yul\":2870:2987   */\n    tag_78:\n        /* \"#utility.yul\":3011:3074   */\n      tag_80\n        /* \"#utility.yul\":3066:3073   */\n      dup6\n        /* \"#utility.yul\":3057:3063   */\n      dup3\n        /* \"#utility.yul\":3046:3055   */\n      dup7\n        /* \"#utility.yul\":3042:3064   */\n      add\n        /* \"#utility.yul\":3011:3074   */\n      tag_36\n      jump\t// in\n    tag_80:\n        /* \"#utility.yul\":3001:3074   */\n      swap3\n      pop\n        /* \"#utility.yul\":2797:3084   */\n      pop\n        /* \"#utility.yul\":3151:3153   */\n      0x20\n        /* \"#utility.yul\":3140:3149   */\n      dup4\n        /* \"#utility.yul\":3136:3154   */\n      add\n        /* \"#utility.yul\":3123:3155   */\n      calldataload\n        /* \"#utility.yul\":3182:3200   */\n      0xffffffffffffffff\n        /* \"#utility.yul\":3174:3180   */\n      dup2\n        /* \"#utility.yul\":3171:3201   */\n      gt\n        /* \"#utility.yul\":3168:3285   */\n      iszero\n      tag_81\n      jumpi\n        /* \"#utility.yul\":3204:3283   */\n      tag_82\n      tag_26\n      jump\t// in\n    tag_82:\n        /* \"#utility.yul\":3168:3285   */\n    tag_81:\n        /* \"#utility.yul\":3309:3372   */\n      tag_83\n        /* \"#utility.yul\":3364:3371   */\n      dup6\n        /* \"#utility.yul\":3355:3361   */\n      dup3\n        /* \"#utility.yul\":3344:3353   */\n      dup7\n        /* \"#utility.yul\":3340:3362   */\n      add\n        /* \"#utility.yul\":3309:3372   */\n      tag_36\n      jump\t// in\n    tag_83:\n        /* \"#utility.yul\":3299:3372   */\n      swap2\n      pop\n        /* \"#utility.yul\":3094:3382   */\n      pop\n        /* \"#utility.yul\":2555:3389   */\n      swap3\n      pop\n      swap3\n      swap1\n      pop\n      jump\t// out\n        /* \"#utility.yul\":3395:3494   */\n    tag_37:\n        /* \"#utility.yul\":3447:3453   */\n      0x00\n        /* \"#utility.yul\":3481:3486   */\n      dup2\n        /* \"#utility.yul\":3475:3487   */\n      mload\n        /* \"#utility.yul\":3465:3487   */\n      swap1\n      pop\n        /* \"#utility.yul\":3395:3494   */\n      swap2\n      swap1\n      pop\n      jump\t// out\n        /* \"#utility.yul\":3500:3669   */\n    tag_38:\n        /* \"#utility.yul\":3584:3595   */\n      0x00\n        /* \"#utility.yul\":3618:3624   */\n      dup3\n        /* \"#utility.yul\":3613:3616   */\n      dup3\n        /* \"#utility.yul\":3606:3625   */\n      mstore\n        /* \"#utility.yul\":3658:3662   */\n      0x20\n        /* \"#utility.yul\":3653:3656   */\n      dup3\n        /* \"#utility.yul\":3649:3663   */\n      add\n        /* \"#utility.yul\":3634:3663   */\n      swap1\n      pop\n        /* \"#utility.yul\":3500:3669   */\n      swap3\n      swap2\n      pop\n      pop\n      jump\t// out\n        /* \"#utility.yul\":3675:3814   */\n    tag_39:\n        /* \"#utility.yul\":3764:3770   */\n      dup3\n        /* \"#utility.yul\":3759:3762   */\n      dup2\n        /* \"#utility.yul\":3754:3757   */\n      dup4\n        /* \"#utility.yul\":3748:3771   */\n      mcopy\n        /* \"#utility.yul\":3805:3806   */\n      0x00\n        /* \"#utility.yul\":3796:3802   */\n      dup4\n        /* \"#utility.yul\":3791:3794   */\n      dup4\n        /* \"#utility.yul\":3787:3803   */\n      add\n        /* \"#utility.yul\":3780:3807   */\n      mstore\n        /* \"#utility.yul\":3675:3814   */\n      pop\n      pop\n      pop\n      jump\t// out\n        /* \"#utility.yul\":3820:4197   */\n    tag_40:\n        /* \"#utility.yul\":3908:3911   */\n      0x00\n        /* \"#utility.yul\":3936:3975   */\n      tag_88\n        /* \"#utility.yul\":3969:3974   */\n      dup3\n        /* \"#utility.yul\":3936:3975   */\n      tag_37\n      jump\t// in\n    tag_88:\n        /* \"#utility.yul\":3991:4062   */\n      tag_89\n        /* \"#utility.yul\":4055:4061   */\n      dup2\n        /* \"#utility.yul\":4050:4053   */\n      dup6\n        /* \"#utility.yul\":3991:4062   */\n      tag_38\n      jump\t// in\n    tag_89:\n        /* \"#utility.yul\":3984:4062   */\n      swap4\n      pop\n        /* \"#utility.yul\":4071:4136   */\n      tag_90\n        /* \"#utility.yul\":4129:4135   */\n      dup2\n        /* \"#utility.yul\":4124:4127   */\n      dup6\n        /* \"#utility.yul\":4117:4121   */\n      0x20\n        /* \"#utility.yul\":4110:4115   */\n      dup7\n        /* \"#utility.yul\":4106:4122   */\n      add\n        /* \"#utility.yul\":4071:4136   */\n      tag_39\n      jump\t// in\n    tag_90:\n        /* \"#utility.yul\":4161:4190   */\n      tag_91\n        /* \"#utility.yul\":4183:4189   */\n      dup2\n        /* \"#utility.yul\":4161:4190   */\n      tag_29\n      jump\t// in\n    tag_91:\n        /* \"#utility.yul\":4156:4159   */\n      dup5\n        /* \"#utility.yul\":4152:4191   */\n      add\n        /* \"#utility.yul\":4145:4191   */\n      swap2\n      pop\n        /* \"#utility.yul\":3912:4197   */\n      pop\n        /* \"#utility.yul\":3820:4197   */\n      swap3\n      swap2\n      pop\n      pop\n      jump\t// out\n        /* \"#utility.yul\":4203:4516   */\n    tag_10:\n        /* \"#utility.yul\":4316:4320   */\n      0x00\n        /* \"#utility.yul\":4354:4356   */\n      0x20\n        /* \"#utility.yul\":4343:4352   */\n      dup3\n        /* \"#utility.yul\":4339:4357   */\n      add\n        /* \"#utility.yul\":4331:4357   */\n      swap1\n      pop\n        /* \"#utility.yul\":4403:4412   */\n      dup2\n        /* \"#utility.yul\":4397:4401   */\n      dup2\n        /* \"#utility.yul\":4393:4413   */\n      sub\n        /* \"#utility.yul\":4389:4390   */\n      0x00\n        /* \"#utility.yul\":4378:4387   */\n      dup4\n        /* \"#utility.yul\":4374:4391   */\n      add\n        /* \"#utility.yul\":4367:4414   */\n      mstore\n        /* \"#utility.yul\":4431:4509   */\n      tag_93\n        /* \"#utility.yul\":4504:4508   */\n      dup2\n        /* \"#utility.yul\":4495:4501   */\n      dup5\n        /* \"#utility.yul\":4431:4509   */\n      tag_40\n      jump\t// in\n    tag_93:\n        /* \"#utility.yul\":4423:4509   */\n      swap1\n      pop\n        /* \"#utility.yul\":4203:4516   */\n      swap3\n      swap2\n      pop\n      pop\n      jump\t// out\n        /* \"#utility.yul\":4522:4612   */\n    tag_41:\n        /* \"#utility.yul\":4556:4563   */\n      0x00\n        /* \"#utility.yul\":4599:4604   */\n      dup2\n        /* \"#utility.yul\":4592:4605   */\n      iszero\n        /* \"#utility.yul\":4585:4606   */\n      iszero\n        /* \"#utility.yul\":4574:4606   */\n      swap1\n      pop\n        /* \"#utility.yul\":4522:4612   */\n      swap2\n      swap1\n      pop\n      jump\t// out\n        /* \"#utility.yul\":4618:4727   */\n    tag_42:\n        /* \"#utility.yul\":4699:4720   */\n      tag_96\n        /* \"#utility.yul\":4714:4719   */\n      dup2\n        /* \"#utility.yul\":4699:4720   */\n      tag_41\n      jump\t// in\n    tag_96:\n        /* \"#utility.yul\":4694:4697   */\n      dup3\n        /* \"#utility.yul\":4687:4721   */\n      mstore\n        /* \"#utility.yul\":4618:4727   */\n      pop\n      pop\n      jump\t// out\n        /* \"#utility.yul\":4733:4943   */\n    tag_15:\n        /* \"#utility.yul\":4820:4824   */\n      0x00\n        /* \"#utility.yul\":4858:4860   */\n      0x20\n        /* \"#utility.yul\":4847:4856   */\n      dup3\n        /* \"#utility.yul\":4843:4861   */\n      add\n        /* \"#utility.yul\":4835:4861   */\n      swap1\n      pop\n        /* \"#utility.yul\":4871:4936   */\n      tag_98\n        /* \"#utility.yul\":4933:4934   */\n      0x00\n        /* \"#utility.yul\":4922:4931   */\n      dup4\n        /* \"#utility.yul\":4918:4935   */\n      add\n        /* \"#utility.yul\":4909:4915   */\n      dup5\n        /* \"#utility.yul\":4871:4936   */\n      tag_42\n      jump\t// in\n    tag_98:\n        /* \"#utility.yul\":4733:4943   */\n      swap3\n      swap2\n      pop\n      pop\n      jump\t// out\n        /* \"#utility.yul\":4949:5097   */\n    tag_43:\n        /* \"#utility.yul\":5051:5062   */\n      0x00\n        /* \"#utility.yul\":5088:5091   */\n      dup2\n        /* \"#utility.yul\":5073:5091   */\n      swap1\n      pop\n        /* \"#utility.yul\":4949:5097   */\n      swap3\n      swap2\n      pop\n      pop\n      jump\t// out\n        /* \"#utility.yul\":5103:5493   */\n    tag_44:\n        /* \"#utility.yul\":5209:5212   */\n      0x00\n        /* \"#utility.yul\":5237:5276   */\n      tag_101\n        /* \"#utility.yul\":5270:5275   */\n      dup3\n        /* \"#utility.yul\":5237:5276   */\n      tag_37\n      jump\t// in\n    tag_101:\n        /* \"#utility.yul\":5292:5381   */\n      tag_102\n        /* \"#utility.yul\":5374:5380   */\n      dup2\n        /* \"#utility.yul\":5369:5372   */\n      dup6\n        /* \"#utility.yul\":5292:5381   */\n      tag_43\n      jump\t// in\n    tag_102:\n        /* \"#utility.yul\":5285:5381   */\n      swap4\n      pop\n        /* \"#utility.yul\":5390:5455   */\n      tag_103\n        /* \"#utility.yul\":5448:5454   */\n      dup2\n        /* \"#utility.yul\":5443:5446   */\n      dup6\n        /* \"#utility.yul\":5436:5440   */\n      0x20\n        /* \"#utility.yul\":5429:5434   */\n      dup7\n        /* \"#utility.yul\":5425:5441   */\n      add\n        /* \"#utility.yul\":5390:5455   */\n      tag_39\n      jump\t// in\n    tag_103:\n        /* \"#utility.yul\":5480:5486   */\n      dup1\n        /* \"#utility.yul\":5475:5478   */\n      dup5\n        /* \"#utility.yul\":5471:5487   */\n      add\n        /* \"#utility.yul\":5464:5487   */\n      swap2\n      pop\n        /* \"#utility.yul\":5213:5493   */\n      pop\n        /* \"#utility.yul\":5103:5493   */\n      swap3\n      swap2\n      pop\n      pop\n      jump\t// out\n        /* \"#utility.yul\":5499:5774   */\n    tag_22:\n        /* \"#utility.yul\":5631:5634   */\n      0x00\n        /* \"#utility.yul\":5653:5748   */\n      tag_105\n        /* \"#utility.yul\":5744:5747   */\n      dup3\n        /* \"#utility.yul\":5735:5741   */\n      dup5\n        /* \"#utility.yul\":5653:5748   */\n      tag_44\n      jump\t// in\n    tag_105:\n        /* \"#utility.yul\":5646:5748   */\n      swap2\n      pop\n        /* \"#utility.yul\":5765:5768   */\n      dup2\n        /* \"#utility.yul\":5758:5768   */\n      swap1\n      pop\n        /* \"#utility.yul\":5499:5774   */\n      swap3\n      swap2\n      pop\n      pop\n      jump\t// out\n\n    auxdata: 0xa2646970667358221220e03e5c779758014f3ebe75108a3bcd660ef60dc19bb3cb7b23a08957203d556164736f6c63430008190033\n}\n",
				"bytecode": {
					"linkReferences": {},
					"object": "6080604052348015600e575f80fd5b506104798061001c5f395ff3fe608060405234801561000f575f80fd5b5060043610610034575f3560e01c8063465c410514610038578063bed34bba14610068575b5f80fd5b610052600480360381019061004d91906102ca565b610098565b60405161005f91906103a0565b60405180910390f35b610082600480360381019061007d91906102ca565b610125565b60405161008f91906103da565b60405180910390f35b60606100a48383610125565b156100e6576040518060400160405280601181526020017f537472696e67732061726520657175616c000000000000000000000000000000815250905061011f565b6040518060400160405280601581526020017f537472696e677320617265206e6f7420657175616c000000000000000000000081525090505b92915050565b5f81604051602001610137919061042d565b604051602081830303815290604052805190602001208360405160200161015e919061042d565b6040516020818303038152906040528051906020012014905092915050565b5f604051905090565b5f80fd5b5f80fd5b5f80fd5b5f80fd5b5f601f19601f8301169050919050565b7f4e487b71000000000000000000000000000000000000000000000000000000005f52604160045260245ffd5b6101dc82610196565b810181811067ffffffffffffffff821117156101fb576101fa6101a6565b5b80604052505050565b5f61020d61017d565b905061021982826101d3565b919050565b5f67ffffffffffffffff821115610238576102376101a6565b5b61024182610196565b9050602081019050919050565b828183375f83830152505050565b5f61026e6102698461021e565b610204565b90508281526020810184848401111561028a57610289610192565b5b61029584828561024e565b509392505050565b5f82601f8301126102b1576102b061018e565b5b81356102c184826020860161025c565b91505092915050565b5f80604083850312156102e0576102df610186565b5b5f83013567ffffffffffffffff8111156102fd576102fc61018a565b5b6103098582860161029d565b925050602083013567ffffffffffffffff81111561032a5761032961018a565b5b6103368582860161029d565b9150509250929050565b5f81519050919050565b5f82825260208201905092915050565b8281835e5f83830152505050565b5f61037282610340565b61037c818561034a565b935061038c81856020860161035a565b61039581610196565b840191505092915050565b5f6020820190508181035f8301526103b88184610368565b905092915050565b5f8115159050919050565b6103d4816103c0565b82525050565b5f6020820190506103ed5f8301846103cb565b92915050565b5f81905092915050565b5f61040782610340565b61041181856103f3565b935061042181856020860161035a565b80840191505092915050565b5f61043882846103fd565b91508190509291505056fea2646970667358221220e03e5c779758014f3ebe75108a3bcd660ef60dc19bb3cb7b23a08957203d556164736f6c63430008190033",
					"opcodes": "PUSH1 0x80 PUSH1 0x40 MSTORE CALLVALUE DUP1 ISZERO PUSH1 0xE JUMPI PUSH0 DUP1 REVERT JUMPDEST POP PUSH2 0x479 DUP1 PUSH2 0x1C PUSH0 CODECOPY PUSH0 RETURN INVALID PUSH1 0x80 PUSH1 0x40 MSTORE CALLVALUE DUP1 ISZERO PUSH2 0xF JUMPI PUSH0 DUP1 REVERT JUMPDEST POP PUSH1 0x4 CALLDATASIZE LT PUSH2 0x34 JUMPI PUSH0 CALLDATALOAD PUSH1 0xE0 SHR DUP1 PUSH4 0x465C4105 EQ PUSH2 0x38 JUMPI DUP1 PUSH4 0xBED34BBA EQ PUSH2 0x68 JUMPI JUMPDEST PUSH0 DUP1 REVERT JUMPDEST PUSH2 0x52 PUSH1 0x4 DUP1 CALLDATASIZE SUB DUP2 ADD SWAP1 PUSH2 0x4D SWAP2 SWAP1 PUSH2 0x2CA JUMP JUMPDEST PUSH2 0x98 JUMP JUMPDEST PUSH1 0x40 MLOAD PUSH2 0x5F SWAP2 SWAP1 PUSH2 0x3A0 JUMP JUMPDEST PUSH1 0x40 MLOAD DUP1 SWAP2 SUB SWAP1 RETURN JUMPDEST PUSH2 0x82 PUSH1 0x4 DUP1 CALLDATASIZE SUB DUP2 ADD SWAP1 PUSH2 0x7D SWAP2 SWAP1 PUSH2 0x2CA JUMP JUMPDEST PUSH2 0x125 JUMP JUMPDEST PUSH1 0x40 MLOAD PUSH2 0x8F SWAP2 SWAP1 PUSH2 0x3DA JUMP JUMPDEST PUSH1 0x40 MLOAD DUP1 SWAP2 SUB SWAP1 RETURN JUMPDEST PUSH1 0x60 PUSH2 0xA4 DUP4 DUP4 PUSH2 0x125 JUMP JUMPDEST ISZERO PUSH2 0xE6 JUMPI PUSH1 0x40 MLOAD DUP1 PUSH1 0x40 ADD PUSH1 0x40 MSTORE DUP1 PUSH1 0x11 DUP2 MSTORE PUSH1 0x20 ADD PUSH32 0x537472696E67732061726520657175616C000000000000000000000000000000 DUP2 MSTORE POP SWAP1 POP PUSH2 0x11F JUMP JUMPDEST PUSH1 0x40 MLOAD DUP1 PUSH1 0x40 ADD PUSH1 0x40 MSTORE DUP1 PUSH1 0x15 DUP2 MSTORE PUSH1 0x20 ADD PUSH32 0x537472696E677320617265206E6F7420657175616C0000000000000000000000 DUP2 MSTORE POP SWAP1 POP JUMPDEST SWAP3 SWAP2 POP POP JUMP JUMPDEST PUSH0 DUP2 PUSH1 0x40 MLOAD PUSH1 0x20 ADD PUSH2 0x137 SWAP2 SWAP1 PUSH2 0x42D JUMP JUMPDEST PUSH1 0x40 MLOAD PUSH1 0x20 DUP2 DUP4 SUB SUB DUP2 MSTORE SWAP1 PUSH1 0x40 MSTORE DUP1 MLOAD SWAP1 PUSH1 0x20 ADD KECCAK256 DUP4 PUSH1 0x40 MLOAD PUSH1 0x20 ADD PUSH2 0x15E SWAP2 SWAP1 PUSH2 0x42D JUMP JUMPDEST PUSH1 0x40 MLOAD PUSH1 0x20 DUP2 DUP4 SUB SUB DUP2 MSTORE SWAP1 PUSH1 0x40 MSTORE DUP1 MLOAD SWAP1 PUSH1 0x20 ADD KECCAK256 EQ SWAP1 POP SWAP3 SWAP2 POP POP JUMP JUMPDEST PUSH0 PUSH1 0x40 MLOAD SWAP1 POP SWAP1 JUMP JUMPDEST PUSH0 DUP1 REVERT JUMPDEST PUSH0 DUP1 REVERT JUMPDEST PUSH0 DUP1 REVERT JUMPDEST PUSH0 DUP1 REVERT JUMPDEST PUSH0 PUSH1 0x1F NOT PUSH1 0x1F DUP4 ADD AND SWAP1 POP SWAP2 SWAP1 POP JUMP JUMPDEST PUSH32 0x4E487B7100000000000000000000000000000000000000000000000000000000 PUSH0 MSTORE PUSH1 0x41 PUSH1 0x4 MSTORE PUSH1 0x24 PUSH0 REVERT JUMPDEST PUSH2 0x1DC DUP3 PUSH2 0x196 JUMP JUMPDEST DUP2 ADD DUP2 DUP2 LT PUSH8 0xFFFFFFFFFFFFFFFF DUP3 GT OR ISZERO PUSH2 0x1FB JUMPI PUSH2 0x1FA PUSH2 0x1A6 JUMP JUMPDEST JUMPDEST DUP1 PUSH1 0x40 MSTORE POP POP POP JUMP JUMPDEST PUSH0 PUSH2 0x20D PUSH2 0x17D JUMP JUMPDEST SWAP1 POP PUSH2 0x219 DUP3 DUP3 PUSH2 0x1D3 JUMP JUMPDEST SWAP2 SWAP1 POP JUMP JUMPDEST PUSH0 PUSH8 0xFFFFFFFFFFFFFFFF DUP3 GT ISZERO PUSH2 0x238 JUMPI PUSH2 0x237 PUSH2 0x1A6 JUMP JUMPDEST JUMPDEST PUSH2 0x241 DUP3 PUSH2 0x196 JUMP JUMPDEST SWAP1 POP PUSH1 0x20 DUP2 ADD SWAP1 POP SWAP2 SWAP1 POP JUMP JUMPDEST DUP3 DUP2 DUP4 CALLDATACOPY PUSH0 DUP4 DUP4 ADD MSTORE POP POP POP JUMP JUMPDEST PUSH0 PUSH2 0x26E PUSH2 0x269 DUP5 PUSH2 0x21E JUMP JUMPDEST PUSH2 0x204 JUMP JUMPDEST SWAP1 POP DUP3 DUP2 MSTORE PUSH1 0x20 DUP2 ADD DUP5 DUP5 DUP5 ADD GT ISZERO PUSH2 0x28A JUMPI PUSH2 0x289 PUSH2 0x192 JUMP JUMPDEST JUMPDEST PUSH2 0x295 DUP5 DUP3 DUP6 PUSH2 0x24E JUMP JUMPDEST POP SWAP4 SWAP3 POP POP POP JUMP JUMPDEST PUSH0 DUP3 PUSH1 0x1F DUP4 ADD SLT PUSH2 0x2B1 JUMPI PUSH2 0x2B0 PUSH2 0x18E JUMP JUMPDEST JUMPDEST DUP2 CALLDATALOAD PUSH2 0x2C1 DUP5 DUP3 PUSH1 0x20 DUP7 ADD PUSH2 0x25C JUMP JUMPDEST SWAP2 POP POP SWAP3 SWAP2 POP POP JUMP JUMPDEST PUSH0 DUP1 PUSH1 0x40 DUP4 DUP6 SUB SLT ISZERO PUSH2 0x2E0 JUMPI PUSH2 0x2DF PUSH2 0x186 JUMP JUMPDEST JUMPDEST PUSH0 DUP4 ADD CALLDATALOAD PUSH8 0xFFFFFFFFFFFFFFFF DUP2 GT ISZERO PUSH2 0x2FD JUMPI PUSH2 0x2FC PUSH2 0x18A JUMP JUMPDEST JUMPDEST PUSH2 0x309 DUP6 DUP3 DUP7 ADD PUSH2 0x29D JUMP JUMPDEST SWAP3 POP POP PUSH1 0x20 DUP4 ADD CALLDATALOAD PUSH8 0xFFFFFFFFFFFFFFFF DUP2 GT ISZERO PUSH2 0x32A JUMPI PUSH2 0x329 PUSH2 0x18A JUMP JUMPDEST JUMPDEST PUSH2 0x336 DUP6 DUP3 DUP7 ADD PUSH2 0x29D JUMP JUMPDEST SWAP2 POP POP SWAP3 POP SWAP3 SWAP1 POP JUMP JUMPDEST PUSH0 DUP2 MLOAD SWAP1 POP SWAP2 SWAP1 POP JUMP JUMPDEST PUSH0 DUP3 DUP3 MSTORE PUSH1 0x20 DUP3 ADD SWAP1 POP SWAP3 SWAP2 POP POP JUMP JUMPDEST DUP3 DUP2 DUP4 MCOPY PUSH0 DUP4 DUP4 ADD MSTORE POP POP POP JUMP JUMPDEST PUSH0 PUSH2 0x372 DUP3 PUSH2 0x340 JUMP JUMPDEST PUSH2 0x37C DUP2 DUP6 PUSH2 0x34A JUMP JUMPDEST SWAP4 POP PUSH2 0x38C DUP2 DUP6 PUSH1 0x20 DUP7 ADD PUSH2 0x35A JUMP JUMPDEST PUSH2 0x395 DUP2 PUSH2 0x196 JUMP JUMPDEST DUP5 ADD SWAP2 POP POP SWAP3 SWAP2 POP POP JUMP JUMPDEST PUSH0 PUSH1 0x20 DUP3 ADD SWAP1 POP DUP2 DUP2 SUB PUSH0 DUP4 ADD MSTORE PUSH2 0x3B8 DUP2 DUP5 PUSH2 0x368 JUMP JUMPDEST SWAP1 POP SWAP3 SWAP2 POP POP JUMP JUMPDEST PUSH0 DUP2 ISZERO ISZERO SWAP1 POP SWAP2 SWAP1 POP JUMP JUMPDEST PUSH2 0x3D4 DUP2 PUSH2 0x3C0 JUMP JUMPDEST DUP3 MSTORE POP POP JUMP JUMPDEST PUSH0 PUSH1 0x20 DUP3 ADD SWAP1 POP PUSH2 0x3ED PUSH0 DUP4 ADD DUP5 PUSH2 0x3CB JUMP JUMPDEST SWAP3 SWAP2 POP POP JUMP JUMPDEST PUSH0 DUP2 SWAP1 POP SWAP3 SWAP2 POP POP JUMP JUMPDEST PUSH0 PUSH2 0x407 DUP3 PUSH2 0x340 JUMP JUMPDEST PUSH2 0x411 DUP2 DUP6 PUSH2 0x3F3 JUMP JUMPDEST SWAP4 POP PUSH2 0x421 DUP2 DUP6 PUSH1 0x20 DUP7 ADD PUSH2 0x35A JUMP JUMPDEST DUP1 DUP5 ADD SWAP2 POP POP SWAP3 SWAP2 POP POP JUMP JUMPDEST PUSH0 PUSH2 0x438 DUP3 DUP5 PUSH2 0x3FD JUMP JUMPDEST SWAP2 POP DUP2 SWAP1 POP SWAP3 SWAP2 POP POP JUMP INVALID LOG2 PUSH5 0x6970667358 0x22 SLT KECCAK256 0xE0 RETURNDATACOPY TLOAD PUSH24 0x9758014F3EBE75108A3BCD660EF60DC19BB3CB7B23A08957 KECCAK256 RETURNDATASIZE SSTORE PUSH2 0x6473 PUSH16 0x6C634300081900330000000000000000 "
				},
				"gasEstimates": {
					"creation": {
						"codeDepositCost": "229000",
						"executionCost": "267",
						"totalCost": "229267"
					},
					"external": {
						"compareStrings(string,string)": "infinite",
						"isEqual(string,string)": "infinite"
					}
				},
				"methodIdentifiers": {
					"compareStrings(string,string)": "bed34bba",
					"isEqual(string,string)": "465c4105"
				}
			},
			"storageLayout": {
				"storage": [],
				"types": null
			},
			"userdoc": {
				"kind": "user",
				"methods": {},
				"version": 1
			}
		}
	}
}