{
	"contracts/mappingexerciseMessageSender.sol": {
		"test": {
			"abi": [
				{
					"inputs": [
						{
							"internalType": "address",
							"name": "",
							"type": "address"
						}
					],
					"name": "SLParticipant",
					"outputs": [
						{
							"internalType": "string",
							"name": "Pname",
							"type": "string"
						},
						{
							"internalType": "uint256",
							"name": "Page",
							"type": "uint256"
						},
						{
							"internalType": "uint256",
							"name": "PphoneNo",
							"type": "uint256"
						},
						{
							"internalType": "string",
							"name": "Pemail",
							"type": "string"
						},
						{
							"internalType": "string",
							"name": "courseEnrolled",
							"type": "string"
						},
						{
							"internalType": "bool",
							"name": "feePaid",
							"type": "bool"
						}
					],
					"stateMutability": "view",
					"type": "function"
				},
				{
					"inputs": [
						{
							"internalType": "uint256",
							"name": "key",
							"type": "uint256"
						},
						{
							"internalType": "string",
							"name": "_name",
							"type": "string"
						},
						{
							"internalType": "uint256",
							"name": "_page",
							"type": "uint256"
						},
						{
							"internalType": "uint256",
							"name": "_pphoneNo",
							"type": "uint256"
						},
						{
							"internalType": "string",
							"name": "pemail",
							"type": "string"
						},
						{
							"internalType": "string",
							"name": "_courseenrolled",
							"type": "string"
						},
						{
							"internalType": "bool",
							"name": "_feepaid",
							"type": "bool"
						}
					],
					"name": "addParticipant",
					"outputs": [],
					"stateMutability": "nonpayable",
					"type": "function"
				},
				{
					"inputs": [
						{
							"internalType": "uint256",
							"name": "key",
							"type": "uint256"
						}
					],
					"name": "getparticipant",
					"outputs": [
						{
							"components": [
								{
									"internalType": "string",
									"name": "Pname",
									"type": "string"
								},
								{
									"internalType": "uint256",
									"name": "Page",
									"type": "uint256"
								},
								{
									"internalType": "uint256",
									"name": "PphoneNo",
									"type": "uint256"
								},
								{
									"internalType": "string",
									"name": "Pemail",
									"type": "string"
								},
								{
									"internalType": "string",
									"name": "courseEnrolled",
									"type": "string"
								},
								{
									"internalType": "bool",
									"name": "feePaid",
									"type": "bool"
								}
							],
							"internalType": "struct test.Participant",
							"name": "",
							"type": "tuple"
						}
					],
					"stateMutability": "view",
					"type": "function"
				}
			],
			"devdoc": {
				"kind": "dev",
				"methods": {},
				"version": 1
			},
			"evm": {
				"assembly": "    /* \"contracts/mappingexerciseMessageSender.sol\":28:804  contract test {... */\n  mstore(0x40, 0x80)\n  callvalue\n  dup1\n  iszero\n  tag_1\n  jumpi\n  0x00\n  dup1\n  revert\ntag_1:\n  pop\n  dataSize(sub_0)\n  dup1\n  dataOffset(sub_0)\n  0x00\n  codecopy\n  0x00\n  return\nstop\n\nsub_0: assembly {\n        /* \"contracts/mappingexerciseMessageSender.sol\":28:804  contract test {... */\n      mstore(0x40, 0x80)\n      callvalue\n      dup1\n      iszero\n      tag_1\n      jumpi\n      0x00\n      dup1\n      revert\n    tag_1:\n      pop\n      jumpi(tag_2, lt(calldatasize, 0x04))\n      shr(0xe0, calldataload(0x00))\n      dup1\n      0x2a72500a\n      eq\n      tag_3\n      jumpi\n      dup1\n      0xa82dab0b\n      eq\n      tag_4\n      jumpi\n      dup1\n      0xf4a33d48\n      eq\n      tag_5\n      jumpi\n    tag_2:\n      0x00\n      dup1\n      revert\n        /* \"contracts/mappingexerciseMessageSender.sol\":332:641  function addParticipant(uint key, string memory _name, uint _page, uint _pphoneNo, string memory pemail,... */\n    tag_3:\n      tag_6\n      0x04\n      dup1\n      calldatasize\n      sub\n      dup2\n      add\n      swap1\n      tag_7\n      swap2\n      swap1\n      tag_8\n      jump\t// in\n    tag_7:\n      tag_9\n      jump\t// in\n    tag_6:\n      stop\n        /* \"contracts/mappingexerciseMessageSender.sol\":661:797  function getparticipant(uint key) public view returns(Participant memory){... */\n    tag_4:\n      tag_10\n      0x04\n      dup1\n      calldatasize\n      sub\n      dup2\n      add\n      swap1\n      tag_11\n      swap2\n      swap1\n      tag_12\n      jump\t// in\n    tag_11:\n      tag_13\n      jump\t// in\n    tag_10:\n      mload(0x40)\n      tag_14\n      swap2\n      swap1\n      tag_15\n      jump\t// in\n    tag_14:\n      mload(0x40)\n      dup1\n      swap2\n      sub\n      swap1\n      return\n        /* \"contracts/mappingexerciseMessageSender.sol\":266:319  mapping (address => Participant) public SLParticipant */\n    tag_5:\n      tag_16\n      0x04\n      dup1\n      calldatasize\n      sub\n      dup2\n      add\n      swap1\n      tag_17\n      swap2\n      swap1\n      tag_18\n      jump\t// in\n    tag_17:\n      tag_19\n      jump\t// in\n    tag_16:\n      mload(0x40)\n      tag_20\n      swap7\n      swap6\n      swap5\n      swap4\n      swap3\n      swap2\n      swap1\n      tag_21\n      jump\t// in\n    tag_20:\n      mload(0x40)\n      dup1\n      swap2\n      sub\n      swap1\n      return\n        /* \"contracts/mappingexerciseMessageSender.sol\":332:641  function addParticipant(uint key, string memory _name, uint _page, uint _pphoneNo, string memory pemail,... */\n    tag_9:\n        /* \"contracts/mappingexerciseMessageSender.sol\":547:618  Participant(_name, _page, _pphoneNo, pemail, _courseenrolled, _feepaid) */\n      mload(0x40)\n      dup1\n      0xc0\n      add\n      0x40\n      mstore\n      dup1\n        /* \"contracts/mappingexerciseMessageSender.sol\":559:564  _name */\n      dup8\n        /* \"contracts/mappingexerciseMessageSender.sol\":547:618  Participant(_name, _page, _pphoneNo, pemail, _courseenrolled, _feepaid) */\n      dup2\n      mstore\n      0x20\n      add\n        /* \"contracts/mappingexerciseMessageSender.sol\":566:571  _page */\n      dup7\n        /* \"contracts/mappingexerciseMessageSender.sol\":547:618  Participant(_name, _page, _pphoneNo, pemail, _courseenrolled, _feepaid) */\n      dup2\n      mstore\n      0x20\n      add\n        /* \"contracts/mappingexerciseMessageSender.sol\":573:582  _pphoneNo */\n      dup6\n        /* \"contracts/mappingexerciseMessageSender.sol\":547:618  Participant(_name, _page, _pphoneNo, pemail, _courseenrolled, _feepaid) */\n      dup2\n      mstore\n      0x20\n      add\n        /* \"contracts/mappingexerciseMessageSender.sol\":584:590  pemail */\n      dup5\n        /* \"contracts/mappingexerciseMessageSender.sol\":547:618  Participant(_name, _page, _pphoneNo, pemail, _courseenrolled, _feepaid) */\n      dup2\n      mstore\n      0x20\n      add\n        /* \"contracts/mappingexerciseMessageSender.sol\":592:607  _courseenrolled */\n      dup4\n        /* \"contracts/mappingexerciseMessageSender.sol\":547:618  Participant(_name, _page, _pphoneNo, pemail, _courseenrolled, _feepaid) */\n      dup2\n      mstore\n      0x20\n      add\n        /* \"contracts/mappingexerciseMessageSender.sol\":609:617  _feepaid */\n      dup3\n        /* \"contracts/mappingexerciseMessageSender.sol\":547:618  Participant(_name, _page, _pphoneNo, pemail, _courseenrolled, _feepaid) */\n      iszero\n      iszero\n      dup2\n      mstore\n      pop\n        /* \"contracts/mappingexerciseMessageSender.sol\":519:532  SLParticipant */\n      0x00\n        /* \"contracts/mappingexerciseMessageSender.sol\":519:544  SLParticipant[msg.sender] */\n      dup1\n        /* \"contracts/mappingexerciseMessageSender.sol\":533:543  msg.sender */\n      caller\n        /* \"contracts/mappingexerciseMessageSender.sol\":519:544  SLParticipant[msg.sender] */\n      0xffffffffffffffffffffffffffffffffffffffff\n      and\n      0xffffffffffffffffffffffffffffffffffffffff\n      and\n      dup2\n      mstore\n      0x20\n      add\n      swap1\n      dup2\n      mstore\n      0x20\n      add\n      0x00\n      keccak256\n        /* \"contracts/mappingexerciseMessageSender.sol\":519:618  SLParticipant[msg.sender] = Participant(_name, _page, _pphoneNo, pemail, _courseenrolled, _feepaid) */\n      0x00\n      dup3\n      add\n      mload\n      dup2\n      0x00\n      add\n      swap1\n      dup2\n      tag_23\n      swap2\n      swap1\n      tag_24\n      jump\t// in\n    tag_23:\n      pop\n      0x20\n      dup3\n      add\n      mload\n      dup2\n      0x01\n      add\n      sstore\n      0x40\n      dup3\n      add\n      mload\n      dup2\n      0x02\n      add\n      sstore\n      0x60\n      dup3\n      add\n      mload\n      dup2\n      0x03\n      add\n      swap1\n      dup2\n      tag_25\n      swap2\n      swap1\n      tag_24\n      jump\t// in\n    tag_25:\n      pop\n      0x80\n      dup3\n      add\n      mload\n      dup2\n      0x04\n      add\n      swap1\n      dup2\n      tag_26\n      swap2\n      swap1\n      tag_24\n      jump\t// in\n    tag_26:\n      pop\n      0xa0\n      dup3\n      add\n      mload\n      dup2\n      0x05\n      add\n      exp(0x0100, 0x00)\n      dup2\n      sload\n      dup2\n      0xff\n      mul\n      not\n      and\n      swap1\n      dup4\n      iszero\n      iszero\n      mul\n      or\n      swap1\n      sstore\n      pop\n      swap1\n      pop\n      pop\n        /* \"contracts/mappingexerciseMessageSender.sol\":332:641  function addParticipant(uint key, string memory _name, uint _page, uint _pphoneNo, string memory pemail,... */\n      pop\n      pop\n      pop\n      pop\n      pop\n      pop\n      pop\n      jump\t// out\n        /* \"contracts/mappingexerciseMessageSender.sol\":661:797  function getparticipant(uint key) public view returns(Participant memory){... */\n    tag_13:\n        /* \"contracts/mappingexerciseMessageSender.sol\":715:733  Participant memory */\n      tag_27\n      tag_28\n      jump\t// in\n    tag_27:\n        /* \"contracts/mappingexerciseMessageSender.sol\":760:773  SLParticipant */\n      0x00\n        /* \"contracts/mappingexerciseMessageSender.sol\":760:785  SLParticipant[msg.sender] */\n      dup1\n        /* \"contracts/mappingexerciseMessageSender.sol\":774:784  msg.sender */\n      caller\n        /* \"contracts/mappingexerciseMessageSender.sol\":760:785  SLParticipant[msg.sender] */\n      0xffffffffffffffffffffffffffffffffffffffff\n      and\n      0xffffffffffffffffffffffffffffffffffffffff\n      and\n      dup2\n      mstore\n      0x20\n      add\n      swap1\n      dup2\n      mstore\n      0x20\n      add\n      0x00\n      keccak256\n        /* \"contracts/mappingexerciseMessageSender.sol\":753:785  return SLParticipant[msg.sender] */\n      mload(0x40)\n      dup1\n      0xc0\n      add\n      0x40\n      mstore\n      swap1\n      dup2\n      0x00\n      dup3\n      add\n      dup1\n      sload\n      tag_30\n      swap1\n      tag_31\n      jump\t// in\n    tag_30:\n      dup1\n      0x1f\n      add\n      0x20\n      dup1\n      swap2\n      div\n      mul\n      0x20\n      add\n      mload(0x40)\n      swap1\n      dup2\n      add\n      0x40\n      mstore\n      dup1\n      swap3\n      swap2\n      swap1\n      dup2\n      dup2\n      mstore\n      0x20\n      add\n      dup3\n      dup1\n      sload\n      tag_32\n      swap1\n      tag_31\n      jump\t// in\n    tag_32:\n      dup1\n      iszero\n      tag_33\n      jumpi\n      dup1\n      0x1f\n      lt\n      tag_34\n      jumpi\n      0x0100\n      dup1\n      dup4\n      sload\n      div\n      mul\n      dup4\n      mstore\n      swap2\n      0x20\n      add\n      swap2\n      jump(tag_33)\n    tag_34:\n      dup3\n      add\n      swap2\n      swap1\n      0x00\n      mstore\n      keccak256(0x00, 0x20)\n      swap1\n    tag_35:\n      dup2\n      sload\n      dup2\n      mstore\n      swap1\n      0x01\n      add\n      swap1\n      0x20\n      add\n      dup1\n      dup4\n      gt\n      tag_35\n      jumpi\n      dup3\n      swap1\n      sub\n      0x1f\n      and\n      dup3\n      add\n      swap2\n    tag_33:\n      pop\n      pop\n      pop\n      pop\n      pop\n      dup2\n      mstore\n      0x20\n      add\n      0x01\n      dup3\n      add\n      sload\n      dup2\n      mstore\n      0x20\n      add\n      0x02\n      dup3\n      add\n      sload\n      dup2\n      mstore\n      0x20\n      add\n      0x03\n      dup3\n      add\n      dup1\n      sload\n      tag_36\n      swap1\n      tag_31\n      jump\t// in\n    tag_36:\n      dup1\n      0x1f\n      add\n      0x20\n      dup1\n      swap2\n      div\n      mul\n      0x20\n      add\n      mload(0x40)\n      swap1\n      dup2\n      add\n      0x40\n      mstore\n      dup1\n      swap3\n      swap2\n      swap1\n      dup2\n      dup2\n      mstore\n      0x20\n      add\n      dup3\n      dup1\n      sload\n      tag_37\n      swap1\n      tag_31\n      jump\t// in\n    tag_37:\n      dup1\n      iszero\n      tag_38\n      jumpi\n      dup1\n      0x1f\n      lt\n      tag_39\n      jumpi\n      0x0100\n      dup1\n      dup4\n      sload\n      div\n      mul\n      dup4\n      mstore\n      swap2\n      0x20\n      add\n      swap2\n      jump(tag_38)\n    tag_39:\n      dup3\n      add\n      swap2\n      swap1\n      0x00\n      mstore\n      keccak256(0x00, 0x20)\n      swap1\n    tag_40:\n      dup2\n      sload\n      dup2\n      mstore\n      swap1\n      0x01\n      add\n      swap1\n      0x20\n      add\n      dup1\n      dup4\n      gt\n      tag_40\n      jumpi\n      dup3\n      swap1\n      sub\n      0x1f\n      and\n      dup3\n      add\n      swap2\n    tag_38:\n      pop\n      pop\n      pop\n      pop\n      pop\n      dup2\n      mstore\n      0x20\n      add\n      0x04\n      dup3\n      add\n      dup1\n      sload\n      tag_41\n      swap1\n      tag_31\n      jump\t// in\n    tag_41:\n      dup1\n      0x1f\n      add\n      0x20\n      dup1\n      swap2\n      div\n      mul\n      0x20\n      add\n      mload(0x40)\n      swap1\n      dup2\n      add\n      0x40\n      mstore\n      dup1\n      swap3\n      swap2\n      swap1\n      dup2\n      dup2\n      mstore\n      0x20\n      add\n      dup3\n      dup1\n      sload\n      tag_42\n      swap1\n      tag_31\n      jump\t// in\n    tag_42:\n      dup1\n      iszero\n      tag_43\n      jumpi\n      dup1\n      0x1f\n      lt\n      tag_44\n      jumpi\n      0x0100\n      dup1\n      dup4\n      sload\n      div\n      mul\n      dup4\n      mstore\n      swap2\n      0x20\n      add\n      swap2\n      jump(tag_43)\n    tag_44:\n      dup3\n      add\n      swap2\n      swap1\n      0x00\n      mstore\n      keccak256(0x00, 0x20)\n      swap1\n    tag_45:\n      dup2\n      sload\n      dup2\n      mstore\n      swap1\n      0x01\n      add\n      swap1\n      0x20\n      add\n      dup1\n      dup4\n      gt\n      tag_45\n      jumpi\n      dup3\n      swap1\n      sub\n      0x1f\n      and\n      dup3\n      add\n      swap2\n    tag_43:\n      pop\n      pop\n      pop\n      pop\n      pop\n      dup2\n      mstore\n      0x20\n      add\n      0x05\n      dup3\n      add\n      0x00\n      swap1\n      sload\n      swap1\n      0x0100\n      exp\n      swap1\n      div\n      0xff\n      and\n      iszero\n      iszero\n      iszero\n      iszero\n      dup2\n      mstore\n      pop\n      pop\n      swap1\n      pop\n        /* \"contracts/mappingexerciseMessageSender.sol\":661:797  function getparticipant(uint key) public view returns(Participant memory){... */\n      swap2\n      swap1\n      pop\n      jump\t// out\n        /* \"contracts/mappingexerciseMessageSender.sol\":266:319  mapping (address => Participant) public SLParticipant */\n    tag_19:\n      mstore(0x20, 0x00)\n      dup1\n      0x00\n      mstore\n      keccak256(0x00, 0x40)\n      0x00\n      swap2\n      pop\n      swap1\n      pop\n      dup1\n      0x00\n      add\n      dup1\n      sload\n      tag_46\n      swap1\n      tag_31\n      jump\t// in\n    tag_46:\n      dup1\n      0x1f\n      add\n      0x20\n      dup1\n      swap2\n      div\n      mul\n      0x20\n      add\n      mload(0x40)\n      swap1\n      dup2\n      add\n      0x40\n      mstore\n      dup1\n      swap3\n      swap2\n      swap1\n      dup2\n      dup2\n      mstore\n      0x20\n      add\n      dup3\n      dup1\n      sload\n      tag_47\n      swap1\n      tag_31\n      jump\t// in\n    tag_47:\n      dup1\n      iszero\n      tag_48\n      jumpi\n      dup1\n      0x1f\n      lt\n      tag_49\n      jumpi\n      0x0100\n      dup1\n      dup4\n      sload\n      div\n      mul\n      dup4\n      mstore\n      swap2\n      0x20\n      add\n      swap2\n      jump(tag_48)\n    tag_49:\n      dup3\n      add\n      swap2\n      swap1\n      0x00\n      mstore\n      keccak256(0x00, 0x20)\n      swap1\n    tag_50:\n      dup2\n      sload\n      dup2\n      mstore\n      swap1\n      0x01\n      add\n      swap1\n      0x20\n      add\n      dup1\n      dup4\n      gt\n      tag_50\n      jumpi\n      dup3\n      swap1\n      sub\n      0x1f\n      and\n      dup3\n      add\n      swap2\n    tag_48:\n      pop\n      pop\n      pop\n      pop\n      pop\n      swap1\n      dup1\n      0x01\n      add\n      sload\n      swap1\n      dup1\n      0x02\n      add\n      sload\n      swap1\n      dup1\n      0x03\n      add\n      dup1\n      sload\n      tag_51\n      swap1\n      tag_31\n      jump\t// in\n    tag_51:\n      dup1\n      0x1f\n      add\n      0x20\n      dup1\n      swap2\n      div\n      mul\n      0x20\n      add\n      mload(0x40)\n      swap1\n      dup2\n      add\n      0x40\n      mstore\n      dup1\n      swap3\n      swap2\n      swap1\n      dup2\n      dup2\n      mstore\n      0x20\n      add\n      dup3\n      dup1\n      sload\n      tag_52\n      swap1\n      tag_31\n      jump\t// in\n    tag_52:\n      dup1\n      iszero\n      tag_53\n      jumpi\n      dup1\n      0x1f\n      lt\n      tag_54\n      jumpi\n      0x0100\n      dup1\n      dup4\n      sload\n      div\n      mul\n      dup4\n      mstore\n      swap2\n      0x20\n      add\n      swap2\n      jump(tag_53)\n    tag_54:\n      dup3\n      add\n      swap2\n      swap1\n      0x00\n      mstore\n      keccak256(0x00, 0x20)\n      swap1\n    tag_55:\n      dup2\n      sload\n      dup2\n      mstore\n      swap1\n      0x01\n      add\n      swap1\n      0x20\n      add\n      dup1\n      dup4\n      gt\n      tag_55\n      jumpi\n      dup3\n      swap1\n      sub\n      0x1f\n      and\n      dup3\n      add\n      swap2\n    tag_53:\n      pop\n      pop\n      pop\n      pop\n      pop\n      swap1\n      dup1\n      0x04\n      add\n      dup1\n      sload\n      tag_56\n      swap1\n      tag_31\n      jump\t// in\n    tag_56:\n      dup1\n      0x1f\n      add\n      0x20\n      dup1\n      swap2\n      div\n      mul\n      0x20\n      add\n      mload(0x40)\n      swap1\n      dup2\n      add\n      0x40\n      mstore\n      dup1\n      swap3\n      swap2\n      swap1\n      dup2\n      dup2\n      mstore\n      0x20\n      add\n      dup3\n      dup1\n      sload\n      tag_57\n      swap1\n      tag_31\n      jump\t// in\n    tag_57:\n      dup1\n      iszero\n      tag_58\n      jumpi\n      dup1\n      0x1f\n      lt\n      tag_59\n      jumpi\n      0x0100\n      dup1\n      dup4\n      sload\n      div\n      mul\n      dup4\n      mstore\n      swap2\n      0x20\n      add\n      swap2\n      jump(tag_58)\n    tag_59:\n      dup3\n      add\n      swap2\n      swap1\n      0x00\n      mstore\n      keccak256(0x00, 0x20)\n      swap1\n    tag_60:\n      dup2\n      sload\n      dup2\n      mstore\n      swap1\n      0x01\n      add\n      swap1\n      0x20\n      add\n      dup1\n      dup4\n      gt\n      tag_60\n      jumpi\n      dup3\n      swap1\n      sub\n      0x1f\n      and\n      dup3\n      add\n      swap2\n    tag_58:\n      pop\n      pop\n      pop\n      pop\n      pop\n      swap1\n      dup1\n      0x05\n      add\n      0x00\n      swap1\n      sload\n      swap1\n      0x0100\n      exp\n      swap1\n      div\n      0xff\n      and\n      swap1\n      pop\n      dup7\n      jump\t// out\n    tag_28:\n      mload(0x40)\n      dup1\n      0xc0\n      add\n      0x40\n      mstore\n      dup1\n      0x60\n      dup2\n      mstore\n      0x20\n      add\n      0x00\n      dup2\n      mstore\n      0x20\n      add\n      0x00\n      dup2\n      mstore\n      0x20\n      add\n      0x60\n      dup2\n      mstore\n      0x20\n      add\n      0x60\n      dup2\n      mstore\n      0x20\n      add\n      iszero(iszero(0x00))\n      dup2\n      mstore\n      pop\n      swap1\n      jump\t// out\n        /* \"#utility.yul\":7:82   */\n    tag_61:\n        /* \"#utility.yul\":40:46   */\n      0x00\n        /* \"#utility.yul\":73:75   */\n      0x40\n        /* \"#utility.yul\":67:76   */\n      mload\n        /* \"#utility.yul\":57:76   */\n      swap1\n      pop\n        /* \"#utility.yul\":7:82   */\n      swap1\n      jump\t// out\n        /* \"#utility.yul\":88:205   */\n    tag_62:\n        /* \"#utility.yul\":197:198   */\n      0x00\n        /* \"#utility.yul\":194:195   */\n      dup1\n        /* \"#utility.yul\":187:199   */\n      revert\n        /* \"#utility.yul\":211:328   */\n    tag_63:\n        /* \"#utility.yul\":320:321   */\n      0x00\n        /* \"#utility.yul\":317:318   */\n      dup1\n        /* \"#utility.yul\":310:322   */\n      revert\n        /* \"#utility.yul\":334:411   */\n    tag_64:\n        /* \"#utility.yul\":371:378   */\n      0x00\n        /* \"#utility.yul\":400:405   */\n      dup2\n        /* \"#utility.yul\":389:405   */\n      swap1\n      pop\n        /* \"#utility.yul\":334:411   */\n      swap2\n      swap1\n      pop\n      jump\t// out\n        /* \"#utility.yul\":417:539   */\n    tag_65:\n        /* \"#utility.yul\":490:514   */\n      tag_117\n        /* \"#utility.yul\":508:513   */\n      dup2\n        /* \"#utility.yul\":490:514   */\n      tag_64\n      jump\t// in\n    tag_117:\n        /* \"#utility.yul\":483:488   */\n      dup2\n        /* \"#utility.yul\":480:515   */\n      eq\n        /* \"#utility.yul\":470:533   */\n      tag_118\n      jumpi\n        /* \"#utility.yul\":529:530   */\n      0x00\n        /* \"#utility.yul\":526:527   */\n      dup1\n        /* \"#utility.yul\":519:531   */\n      revert\n        /* \"#utility.yul\":470:533   */\n    tag_118:\n        /* \"#utility.yul\":417:539   */\n      pop\n      jump\t// out\n        /* \"#utility.yul\":545:684   */\n    tag_66:\n        /* \"#utility.yul\":591:596   */\n      0x00\n        /* \"#utility.yul\":629:635   */\n      dup2\n        /* \"#utility.yul\":616:636   */\n      calldataload\n        /* \"#utility.yul\":607:636   */\n      swap1\n      pop\n        /* \"#utility.yul\":645:678   */\n      tag_120\n        /* \"#utility.yul\":672:677   */\n      dup2\n        /* \"#utility.yul\":645:678   */\n      tag_65\n      jump\t// in\n    tag_120:\n        /* \"#utility.yul\":545:684   */\n      swap3\n      swap2\n      pop\n      pop\n      jump\t// out\n        /* \"#utility.yul\":690:807   */\n    tag_67:\n        /* \"#utility.yul\":799:800   */\n      0x00\n        /* \"#utility.yul\":796:797   */\n      dup1\n        /* \"#utility.yul\":789:801   */\n      revert\n        /* \"#utility.yul\":813:930   */\n    tag_68:\n        /* \"#utility.yul\":922:923   */\n      0x00\n        /* \"#utility.yul\":919:920   */\n      dup1\n        /* \"#utility.yul\":912:924   */\n      revert\n        /* \"#utility.yul\":936:1038   */\n    tag_69:\n        /* \"#utility.yul\":977:983   */\n      0x00\n        /* \"#utility.yul\":1028:1030   */\n      0x1f\n        /* \"#utility.yul\":1024:1031   */\n      not\n        /* \"#utility.yul\":1019:1021   */\n      0x1f\n        /* \"#utility.yul\":1012:1017   */\n      dup4\n        /* \"#utility.yul\":1008:1022   */\n      add\n        /* \"#utility.yul\":1004:1032   */\n      and\n        /* \"#utility.yul\":994:1032   */\n      swap1\n      pop\n        /* \"#utility.yul\":936:1038   */\n      swap2\n      swap1\n      pop\n      jump\t// out\n        /* \"#utility.yul\":1044:1224   */\n    tag_70:\n        /* \"#utility.yul\":1092:1169   */\n      0x4e487b7100000000000000000000000000000000000000000000000000000000\n        /* \"#utility.yul\":1089:1090   */\n      0x00\n        /* \"#utility.yul\":1082:1170   */\n      mstore\n        /* \"#utility.yul\":1189:1193   */\n      0x41\n        /* \"#utility.yul\":1186:1187   */\n      0x04\n        /* \"#utility.yul\":1179:1194   */\n      mstore\n        /* \"#utility.yul\":1213:1217   */\n      0x24\n        /* \"#utility.yul\":1210:1211   */\n      0x00\n        /* \"#utility.yul\":1203:1218   */\n      revert\n        /* \"#utility.yul\":1230:1511   */\n    tag_71:\n        /* \"#utility.yul\":1313:1340   */\n      tag_126\n        /* \"#utility.yul\":1335:1339   */\n      dup3\n        /* \"#utility.yul\":1313:1340   */\n      tag_69\n      jump\t// in\n    tag_126:\n        /* \"#utility.yul\":1305:1311   */\n      dup2\n        /* \"#utility.yul\":1301:1341   */\n      add\n        /* \"#utility.yul\":1443:1449   */\n      dup2\n        /* \"#utility.yul\":1431:1441   */\n      dup2\n        /* \"#utility.yul\":1428:1450   */\n      lt\n        /* \"#utility.yul\":1407:1425   */\n      0xffffffffffffffff\n        /* \"#utility.yul\":1395:1405   */\n      dup3\n        /* \"#utility.yul\":1392:1426   */\n      gt\n        /* \"#utility.yul\":1389:1451   */\n      or\n        /* \"#utility.yul\":1386:1474   */\n      iszero\n      tag_127\n      jumpi\n        /* \"#utility.yul\":1454:1472   */\n      tag_128\n      tag_70\n      jump\t// in\n    tag_128:\n        /* \"#utility.yul\":1386:1474   */\n    tag_127:\n        /* \"#utility.yul\":1494:1504   */\n      dup1\n        /* \"#utility.yul\":1490:1492   */\n      0x40\n        /* \"#utility.yul\":1483:1505   */\n      mstore\n        /* \"#utility.yul\":1273:1511   */\n      pop\n        /* \"#utility.yul\":1230:1511   */\n      pop\n      pop\n      jump\t// out\n        /* \"#utility.yul\":1517:1646   */\n    tag_72:\n        /* \"#utility.yul\":1551:1557   */\n      0x00\n        /* \"#utility.yul\":1578:1598   */\n      tag_130\n      tag_61\n      jump\t// in\n    tag_130:\n        /* \"#utility.yul\":1568:1598   */\n      swap1\n      pop\n        /* \"#utility.yul\":1607:1640   */\n      tag_131\n        /* \"#utility.yul\":1635:1639   */\n      dup3\n        /* \"#utility.yul\":1627:1633   */\n      dup3\n        /* \"#utility.yul\":1607:1640   */\n      tag_71\n      jump\t// in\n    tag_131:\n        /* \"#utility.yul\":1517:1646   */\n      swap2\n      swap1\n      pop\n      jump\t// out\n        /* \"#utility.yul\":1652:1960   */\n    tag_73:\n        /* \"#utility.yul\":1714:1718   */\n      0x00\n        /* \"#utility.yul\":1804:1822   */\n      0xffffffffffffffff\n        /* \"#utility.yul\":1796:1802   */\n      dup3\n        /* \"#utility.yul\":1793:1823   */\n      gt\n        /* \"#utility.yul\":1790:1846   */\n      iszero\n      tag_133\n      jumpi\n        /* \"#utility.yul\":1826:1844   */\n      tag_134\n      tag_70\n      jump\t// in\n    tag_134:\n        /* \"#utility.yul\":1790:1846   */\n    tag_133:\n        /* \"#utility.yul\":1864:1893   */\n      tag_135\n        /* \"#utility.yul\":1886:1892   */\n      dup3\n        /* \"#utility.yul\":1864:1893   */\n      tag_69\n      jump\t// in\n    tag_135:\n        /* \"#utility.yul\":1856:1893   */\n      swap1\n      pop\n        /* \"#utility.yul\":1948:1952   */\n      0x20\n        /* \"#utility.yul\":1942:1946   */\n      dup2\n        /* \"#utility.yul\":1938:1953   */\n      add\n        /* \"#utility.yul\":1930:1953   */\n      swap1\n      pop\n        /* \"#utility.yul\":1652:1960   */\n      swap2\n      swap1\n      pop\n      jump\t// out\n        /* \"#utility.yul\":1966:2112   */\n    tag_74:\n        /* \"#utility.yul\":2063:2069   */\n      dup3\n        /* \"#utility.yul\":2058:2061   */\n      dup2\n        /* \"#utility.yul\":2053:2056   */\n      dup4\n        /* \"#utility.yul\":2040:2070   */\n      calldatacopy\n        /* \"#utility.yul\":2104:2105   */\n      0x00\n        /* \"#utility.yul\":2095:2101   */\n      dup4\n        /* \"#utility.yul\":2090:2093   */\n      dup4\n        /* \"#utility.yul\":2086:2102   */\n      add\n        /* \"#utility.yul\":2079:2106   */\n      mstore\n        /* \"#utility.yul\":1966:2112   */\n      pop\n      pop\n      pop\n      jump\t// out\n        /* \"#utility.yul\":2118:2543   */\n    tag_75:\n        /* \"#utility.yul\":2196:2201   */\n      0x00\n        /* \"#utility.yul\":2221:2287   */\n      tag_138\n        /* \"#utility.yul\":2237:2286   */\n      tag_139\n        /* \"#utility.yul\":2279:2285   */\n      dup5\n        /* \"#utility.yul\":2237:2286   */\n      tag_73\n      jump\t// in\n    tag_139:\n        /* \"#utility.yul\":2221:2287   */\n      tag_72\n      jump\t// in\n    tag_138:\n        /* \"#utility.yul\":2212:2287   */\n      swap1\n      pop\n        /* \"#utility.yul\":2310:2316   */\n      dup3\n        /* \"#utility.yul\":2303:2308   */\n      dup2\n        /* \"#utility.yul\":2296:2317   */\n      mstore\n        /* \"#utility.yul\":2348:2352   */\n      0x20\n        /* \"#utility.yul\":2341:2346   */\n      dup2\n        /* \"#utility.yul\":2337:2353   */\n      add\n        /* \"#utility.yul\":2386:2389   */\n      dup5\n        /* \"#utility.yul\":2377:2383   */\n      dup5\n        /* \"#utility.yul\":2372:2375   */\n      dup5\n        /* \"#utility.yul\":2368:2384   */\n      add\n        /* \"#utility.yul\":2365:2390   */\n      gt\n        /* \"#utility.yul\":2362:2474   */\n      iszero\n      tag_140\n      jumpi\n        /* \"#utility.yul\":2393:2472   */\n      tag_141\n      tag_68\n      jump\t// in\n    tag_141:\n        /* \"#utility.yul\":2362:2474   */\n    tag_140:\n        /* \"#utility.yul\":2483:2537   */\n      tag_142\n        /* \"#utility.yul\":2530:2536   */\n      dup5\n        /* \"#utility.yul\":2525:2528   */\n      dup3\n        /* \"#utility.yul\":2520:2523   */\n      dup6\n        /* \"#utility.yul\":2483:2537   */\n      tag_74\n      jump\t// in\n    tag_142:\n        /* \"#utility.yul\":2202:2543   */\n      pop\n        /* \"#utility.yul\":2118:2543   */\n      swap4\n      swap3\n      pop\n      pop\n      pop\n      jump\t// out\n        /* \"#utility.yul\":2563:2903   */\n    tag_76:\n        /* \"#utility.yul\":2619:2624   */\n      0x00\n        /* \"#utility.yul\":2668:2671   */\n      dup3\n        /* \"#utility.yul\":2661:2665   */\n      0x1f\n        /* \"#utility.yul\":2653:2659   */\n      dup4\n        /* \"#utility.yul\":2649:2666   */\n      add\n        /* \"#utility.yul\":2645:2672   */\n      slt\n        /* \"#utility.yul\":2635:2757   */\n      tag_144\n      jumpi\n        /* \"#utility.yul\":2676:2755   */\n      tag_145\n      tag_67\n      jump\t// in\n    tag_145:\n        /* \"#utility.yul\":2635:2757   */\n    tag_144:\n        /* \"#utility.yul\":2793:2799   */\n      dup2\n        /* \"#utility.yul\":2780:2800   */\n      calldataload\n        /* \"#utility.yul\":2818:2897   */\n      tag_146\n        /* \"#utility.yul\":2893:2896   */\n      dup5\n        /* \"#utility.yul\":2885:2891   */\n      dup3\n        /* \"#utility.yul\":2878:2882   */\n      0x20\n        /* \"#utility.yul\":2870:2876   */\n      dup7\n        /* \"#utility.yul\":2866:2883   */\n      add\n        /* \"#utility.yul\":2818:2897   */\n      tag_75\n      jump\t// in\n    tag_146:\n        /* \"#utility.yul\":2809:2897   */\n      swap2\n      pop\n        /* \"#utility.yul\":2625:2903   */\n      pop\n        /* \"#utility.yul\":2563:2903   */\n      swap3\n      swap2\n      pop\n      pop\n      jump\t// out\n        /* \"#utility.yul\":2909:2999   */\n    tag_77:\n        /* \"#utility.yul\":2943:2950   */\n      0x00\n        /* \"#utility.yul\":2986:2991   */\n      dup2\n        /* \"#utility.yul\":2979:2992   */\n      iszero\n        /* \"#utility.yul\":2972:2993   */\n      iszero\n        /* \"#utility.yul\":2961:2993   */\n      swap1\n      pop\n        /* \"#utility.yul\":2909:2999   */\n      swap2\n      swap1\n      pop\n      jump\t// out\n        /* \"#utility.yul\":3005:3121   */\n    tag_78:\n        /* \"#utility.yul\":3075:3096   */\n      tag_149\n        /* \"#utility.yul\":3090:3095   */\n      dup2\n        /* \"#utility.yul\":3075:3096   */\n      tag_77\n      jump\t// in\n    tag_149:\n        /* \"#utility.yul\":3068:3073   */\n      dup2\n        /* \"#utility.yul\":3065:3097   */\n      eq\n        /* \"#utility.yul\":3055:3115   */\n      tag_150\n      jumpi\n        /* \"#utility.yul\":3111:3112   */\n      0x00\n        /* \"#utility.yul\":3108:3109   */\n      dup1\n        /* \"#utility.yul\":3101:3113   */\n      revert\n        /* \"#utility.yul\":3055:3115   */\n    tag_150:\n        /* \"#utility.yul\":3005:3121   */\n      pop\n      jump\t// out\n        /* \"#utility.yul\":3127:3260   */\n    tag_79:\n        /* \"#utility.yul\":3170:3175   */\n      0x00\n        /* \"#utility.yul\":3208:3214   */\n      dup2\n        /* \"#utility.yul\":3195:3215   */\n      calldataload\n        /* \"#utility.yul\":3186:3215   */\n      swap1\n      pop\n        /* \"#utility.yul\":3224:3254   */\n      tag_152\n        /* \"#utility.yul\":3248:3253   */\n      dup2\n        /* \"#utility.yul\":3224:3254   */\n      tag_78\n      jump\t// in\n    tag_152:\n        /* \"#utility.yul\":3127:3260   */\n      swap3\n      swap2\n      pop\n      pop\n      jump\t// out\n        /* \"#utility.yul\":3266:5003   */\n    tag_8:\n        /* \"#utility.yul\":3406:3412   */\n      0x00\n        /* \"#utility.yul\":3414:3420   */\n      dup1\n        /* \"#utility.yul\":3422:3428   */\n      0x00\n        /* \"#utility.yul\":3430:3436   */\n      dup1\n        /* \"#utility.yul\":3438:3444   */\n      0x00\n        /* \"#utility.yul\":3446:3452   */\n      dup1\n        /* \"#utility.yul\":3454:3460   */\n      0x00\n        /* \"#utility.yul\":3503:3506   */\n      0xe0\n        /* \"#utility.yul\":3491:3500   */\n      dup9\n        /* \"#utility.yul\":3482:3489   */\n      dup11\n        /* \"#utility.yul\":3478:3501   */\n      sub\n        /* \"#utility.yul\":3474:3507   */\n      slt\n        /* \"#utility.yul\":3471:3591   */\n      iszero\n      tag_154\n      jumpi\n        /* \"#utility.yul\":3510:3589   */\n      tag_155\n      tag_62\n      jump\t// in\n    tag_155:\n        /* \"#utility.yul\":3471:3591   */\n    tag_154:\n        /* \"#utility.yul\":3630:3631   */\n      0x00\n        /* \"#utility.yul\":3655:3708   */\n      tag_156\n        /* \"#utility.yul\":3700:3707   */\n      dup11\n        /* \"#utility.yul\":3691:3697   */\n      dup3\n        /* \"#utility.yul\":3680:3689   */\n      dup12\n        /* \"#utility.yul\":3676:3698   */\n      add\n        /* \"#utility.yul\":3655:3708   */\n      tag_66\n      jump\t// in\n    tag_156:\n        /* \"#utility.yul\":3645:3708   */\n      swap8\n      pop\n        /* \"#utility.yul\":3601:3718   */\n      pop\n        /* \"#utility.yul\":3785:3787   */\n      0x20\n        /* \"#utility.yul\":3774:3783   */\n      dup9\n        /* \"#utility.yul\":3770:3788   */\n      add\n        /* \"#utility.yul\":3757:3789   */\n      calldataload\n        /* \"#utility.yul\":3816:3834   */\n      0xffffffffffffffff\n        /* \"#utility.yul\":3808:3814   */\n      dup2\n        /* \"#utility.yul\":3805:3835   */\n      gt\n        /* \"#utility.yul\":3802:3919   */\n      iszero\n      tag_157\n      jumpi\n        /* \"#utility.yul\":3838:3917   */\n      tag_158\n      tag_63\n      jump\t// in\n    tag_158:\n        /* \"#utility.yul\":3802:3919   */\n    tag_157:\n        /* \"#utility.yul\":3943:4006   */\n      tag_159\n        /* \"#utility.yul\":3998:4005   */\n      dup11\n        /* \"#utility.yul\":3989:3995   */\n      dup3\n        /* \"#utility.yul\":3978:3987   */\n      dup12\n        /* \"#utility.yul\":3974:3996   */\n      add\n        /* \"#utility.yul\":3943:4006   */\n      tag_76\n      jump\t// in\n    tag_159:\n        /* \"#utility.yul\":3933:4006   */\n      swap7\n      pop\n        /* \"#utility.yul\":3728:4016   */\n      pop\n        /* \"#utility.yul\":4055:4057   */\n      0x40\n        /* \"#utility.yul\":4081:4134   */\n      tag_160\n        /* \"#utility.yul\":4126:4133   */\n      dup11\n        /* \"#utility.yul\":4117:4123   */\n      dup3\n        /* \"#utility.yul\":4106:4115   */\n      dup12\n        /* \"#utility.yul\":4102:4124   */\n      add\n        /* \"#utility.yul\":4081:4134   */\n      tag_66\n      jump\t// in\n    tag_160:\n        /* \"#utility.yul\":4071:4134   */\n      swap6\n      pop\n        /* \"#utility.yul\":4026:4144   */\n      pop\n        /* \"#utility.yul\":4183:4185   */\n      0x60\n        /* \"#utility.yul\":4209:4262   */\n      tag_161\n        /* \"#utility.yul\":4254:4261   */\n      dup11\n        /* \"#utility.yul\":4245:4251   */\n      dup3\n        /* \"#utility.yul\":4234:4243   */\n      dup12\n        /* \"#utility.yul\":4230:4252   */\n      add\n        /* \"#utility.yul\":4209:4262   */\n      tag_66\n      jump\t// in\n    tag_161:\n        /* \"#utility.yul\":4199:4262   */\n      swap5\n      pop\n        /* \"#utility.yul\":4154:4272   */\n      pop\n        /* \"#utility.yul\":4339:4342   */\n      0x80\n        /* \"#utility.yul\":4328:4337   */\n      dup9\n        /* \"#utility.yul\":4324:4343   */\n      add\n        /* \"#utility.yul\":4311:4344   */\n      calldataload\n        /* \"#utility.yul\":4371:4389   */\n      0xffffffffffffffff\n        /* \"#utility.yul\":4363:4369   */\n      dup2\n        /* \"#utility.yul\":4360:4390   */\n      gt\n        /* \"#utility.yul\":4357:4474   */\n      iszero\n      tag_162\n      jumpi\n        /* \"#utility.yul\":4393:4472   */\n      tag_163\n      tag_63\n      jump\t// in\n    tag_163:\n        /* \"#utility.yul\":4357:4474   */\n    tag_162:\n        /* \"#utility.yul\":4498:4561   */\n      tag_164\n        /* \"#utility.yul\":4553:4560   */\n      dup11\n        /* \"#utility.yul\":4544:4550   */\n      dup3\n        /* \"#utility.yul\":4533:4542   */\n      dup12\n        /* \"#utility.yul\":4529:4551   */\n      add\n        /* \"#utility.yul\":4498:4561   */\n      tag_76\n      jump\t// in\n    tag_164:\n        /* \"#utility.yul\":4488:4561   */\n      swap4\n      pop\n        /* \"#utility.yul\":4282:4571   */\n      pop\n        /* \"#utility.yul\":4638:4641   */\n      0xa0\n        /* \"#utility.yul\":4627:4636   */\n      dup9\n        /* \"#utility.yul\":4623:4642   */\n      add\n        /* \"#utility.yul\":4610:4643   */\n      calldataload\n        /* \"#utility.yul\":4670:4688   */\n      0xffffffffffffffff\n        /* \"#utility.yul\":4662:4668   */\n      dup2\n        /* \"#utility.yul\":4659:4689   */\n      gt\n        /* \"#utility.yul\":4656:4773   */\n      iszero\n      tag_165\n      jumpi\n        /* \"#utility.yul\":4692:4771   */\n      tag_166\n      tag_63\n      jump\t// in\n    tag_166:\n        /* \"#utility.yul\":4656:4773   */\n    tag_165:\n        /* \"#utility.yul\":4797:4860   */\n      tag_167\n        /* \"#utility.yul\":4852:4859   */\n      dup11\n        /* \"#utility.yul\":4843:4849   */\n      dup3\n        /* \"#utility.yul\":4832:4841   */\n      dup12\n        /* \"#utility.yul\":4828:4850   */\n      add\n        /* \"#utility.yul\":4797:4860   */\n      tag_76\n      jump\t// in\n    tag_167:\n        /* \"#utility.yul\":4787:4860   */\n      swap3\n      pop\n        /* \"#utility.yul\":4581:4870   */\n      pop\n        /* \"#utility.yul\":4909:4912   */\n      0xc0\n        /* \"#utility.yul\":4936:4986   */\n      tag_168\n        /* \"#utility.yul\":4978:4985   */\n      dup11\n        /* \"#utility.yul\":4969:4975   */\n      dup3\n        /* \"#utility.yul\":4958:4967   */\n      dup12\n        /* \"#utility.yul\":4954:4976   */\n      add\n        /* \"#utility.yul\":4936:4986   */\n      tag_79\n      jump\t// in\n    tag_168:\n        /* \"#utility.yul\":4926:4986   */\n      swap2\n      pop\n        /* \"#utility.yul\":4880:4996   */\n      pop\n        /* \"#utility.yul\":3266:5003   */\n      swap3\n      swap6\n      swap9\n      swap2\n      swap5\n      swap8\n      pop\n      swap3\n      swap6\n      pop\n      jump\t// out\n        /* \"#utility.yul\":5009:5338   */\n    tag_12:\n        /* \"#utility.yul\":5068:5074   */\n      0x00\n        /* \"#utility.yul\":5117:5119   */\n      0x20\n        /* \"#utility.yul\":5105:5114   */\n      dup3\n        /* \"#utility.yul\":5096:5103   */\n      dup5\n        /* \"#utility.yul\":5092:5115   */\n      sub\n        /* \"#utility.yul\":5088:5120   */\n      slt\n        /* \"#utility.yul\":5085:5204   */\n      iszero\n      tag_170\n      jumpi\n        /* \"#utility.yul\":5123:5202   */\n      tag_171\n      tag_62\n      jump\t// in\n    tag_171:\n        /* \"#utility.yul\":5085:5204   */\n    tag_170:\n        /* \"#utility.yul\":5243:5244   */\n      0x00\n        /* \"#utility.yul\":5268:5321   */\n      tag_172\n        /* \"#utility.yul\":5313:5320   */\n      dup5\n        /* \"#utility.yul\":5304:5310   */\n      dup3\n        /* \"#utility.yul\":5293:5302   */\n      dup6\n        /* \"#utility.yul\":5289:5311   */\n      add\n        /* \"#utility.yul\":5268:5321   */\n      tag_66\n      jump\t// in\n    tag_172:\n        /* \"#utility.yul\":5258:5321   */\n      swap2\n      pop\n        /* \"#utility.yul\":5214:5331   */\n      pop\n        /* \"#utility.yul\":5009:5338   */\n      swap3\n      swap2\n      pop\n      pop\n      jump\t// out\n        /* \"#utility.yul\":5344:5443   */\n    tag_80:\n        /* \"#utility.yul\":5396:5402   */\n      0x00\n        /* \"#utility.yul\":5430:5435   */\n      dup2\n        /* \"#utility.yul\":5424:5436   */\n      mload\n        /* \"#utility.yul\":5414:5436   */\n      swap1\n      pop\n        /* \"#utility.yul\":5344:5443   */\n      swap2\n      swap1\n      pop\n      jump\t// out\n        /* \"#utility.yul\":5449:5608   */\n    tag_81:\n        /* \"#utility.yul\":5523:5534   */\n      0x00\n        /* \"#utility.yul\":5557:5563   */\n      dup3\n        /* \"#utility.yul\":5552:5555   */\n      dup3\n        /* \"#utility.yul\":5545:5564   */\n      mstore\n        /* \"#utility.yul\":5597:5601   */\n      0x20\n        /* \"#utility.yul\":5592:5595   */\n      dup3\n        /* \"#utility.yul\":5588:5602   */\n      add\n        /* \"#utility.yul\":5573:5602   */\n      swap1\n      pop\n        /* \"#utility.yul\":5449:5608   */\n      swap3\n      swap2\n      pop\n      pop\n      jump\t// out\n        /* \"#utility.yul\":5614:5860   */\n    tag_82:\n        /* \"#utility.yul\":5695:5696   */\n      0x00\n        /* \"#utility.yul\":5705:5818   */\n    tag_176:\n        /* \"#utility.yul\":5719:5725   */\n      dup4\n        /* \"#utility.yul\":5716:5717   */\n      dup2\n        /* \"#utility.yul\":5713:5726   */\n      lt\n        /* \"#utility.yul\":5705:5818   */\n      iszero\n      tag_178\n      jumpi\n        /* \"#utility.yul\":5804:5805   */\n      dup1\n        /* \"#utility.yul\":5799:5802   */\n      dup3\n        /* \"#utility.yul\":5795:5806   */\n      add\n        /* \"#utility.yul\":5789:5807   */\n      mload\n        /* \"#utility.yul\":5785:5786   */\n      dup2\n        /* \"#utility.yul\":5780:5783   */\n      dup5\n        /* \"#utility.yul\":5776:5787   */\n      add\n        /* \"#utility.yul\":5769:5808   */\n      mstore\n        /* \"#utility.yul\":5741:5743   */\n      0x20\n        /* \"#utility.yul\":5738:5739   */\n      dup2\n        /* \"#utility.yul\":5734:5744   */\n      add\n        /* \"#utility.yul\":5729:5744   */\n      swap1\n      pop\n        /* \"#utility.yul\":5705:5818   */\n      jump(tag_176)\n    tag_178:\n        /* \"#utility.yul\":5852:5853   */\n      0x00\n        /* \"#utility.yul\":5843:5849   */\n      dup5\n        /* \"#utility.yul\":5838:5841   */\n      dup5\n        /* \"#utility.yul\":5834:5850   */\n      add\n        /* \"#utility.yul\":5827:5854   */\n      mstore\n        /* \"#utility.yul\":5676:5860   */\n      pop\n        /* \"#utility.yul\":5614:5860   */\n      pop\n      pop\n      pop\n      jump\t// out\n        /* \"#utility.yul\":5866:6223   */\n    tag_83:\n        /* \"#utility.yul\":5944:5947   */\n      0x00\n        /* \"#utility.yul\":5972:6011   */\n      tag_180\n        /* \"#utility.yul\":6005:6010   */\n      dup3\n        /* \"#utility.yul\":5972:6011   */\n      tag_80\n      jump\t// in\n    tag_180:\n        /* \"#utility.yul\":6027:6088   */\n      tag_181\n        /* \"#utility.yul\":6081:6087   */\n      dup2\n        /* \"#utility.yul\":6076:6079   */\n      dup6\n        /* \"#utility.yul\":6027:6088   */\n      tag_81\n      jump\t// in\n    tag_181:\n        /* \"#utility.yul\":6020:6088   */\n      swap4\n      pop\n        /* \"#utility.yul\":6097:6162   */\n      tag_182\n        /* \"#utility.yul\":6155:6161   */\n      dup2\n        /* \"#utility.yul\":6150:6153   */\n      dup6\n        /* \"#utility.yul\":6143:6147   */\n      0x20\n        /* \"#utility.yul\":6136:6141   */\n      dup7\n        /* \"#utility.yul\":6132:6148   */\n      add\n        /* \"#utility.yul\":6097:6162   */\n      tag_82\n      jump\t// in\n    tag_182:\n        /* \"#utility.yul\":6187:6216   */\n      tag_183\n        /* \"#utility.yul\":6209:6215   */\n      dup2\n        /* \"#utility.yul\":6187:6216   */\n      tag_69\n      jump\t// in\n    tag_183:\n        /* \"#utility.yul\":6182:6185   */\n      dup5\n        /* \"#utility.yul\":6178:6217   */\n      add\n        /* \"#utility.yul\":6171:6217   */\n      swap2\n      pop\n        /* \"#utility.yul\":5948:6223   */\n      pop\n        /* \"#utility.yul\":5866:6223   */\n      swap3\n      swap2\n      pop\n      pop\n      jump\t// out\n        /* \"#utility.yul\":6229:6337   */\n    tag_84:\n        /* \"#utility.yul\":6306:6330   */\n      tag_185\n        /* \"#utility.yul\":6324:6329   */\n      dup2\n        /* \"#utility.yul\":6306:6330   */\n      tag_64\n      jump\t// in\n    tag_185:\n        /* \"#utility.yul\":6301:6304   */\n      dup3\n        /* \"#utility.yul\":6294:6331   */\n      mstore\n        /* \"#utility.yul\":6229:6337   */\n      pop\n      pop\n      jump\t// out\n        /* \"#utility.yul\":6343:6442   */\n    tag_85:\n        /* \"#utility.yul\":6414:6435   */\n      tag_187\n        /* \"#utility.yul\":6429:6434   */\n      dup2\n        /* \"#utility.yul\":6414:6435   */\n      tag_77\n      jump\t// in\n    tag_187:\n        /* \"#utility.yul\":6409:6412   */\n      dup3\n        /* \"#utility.yul\":6402:6436   */\n      mstore\n        /* \"#utility.yul\":6343:6442   */\n      pop\n      pop\n      jump\t// out\n        /* \"#utility.yul\":6506:7968   */\n    tag_86:\n        /* \"#utility.yul\":6629:6632   */\n      0x00\n        /* \"#utility.yul\":6665:6669   */\n      0xc0\n        /* \"#utility.yul\":6660:6663   */\n      dup4\n        /* \"#utility.yul\":6656:6670   */\n      add\n        /* \"#utility.yul\":6753:6757   */\n      0x00\n        /* \"#utility.yul\":6746:6751   */\n      dup4\n        /* \"#utility.yul\":6742:6758   */\n      add\n        /* \"#utility.yul\":6736:6759   */\n      mload\n        /* \"#utility.yul\":6806:6809   */\n      dup5\n        /* \"#utility.yul\":6800:6804   */\n      dup3\n        /* \"#utility.yul\":6796:6810   */\n      sub\n        /* \"#utility.yul\":6789:6793   */\n      0x00\n        /* \"#utility.yul\":6784:6787   */\n      dup7\n        /* \"#utility.yul\":6780:6794   */\n      add\n        /* \"#utility.yul\":6773:6811   */\n      mstore\n        /* \"#utility.yul\":6832:6905   */\n      tag_189\n        /* \"#utility.yul\":6900:6904   */\n      dup3\n        /* \"#utility.yul\":6886:6898   */\n      dup3\n        /* \"#utility.yul\":6832:6905   */\n      tag_83\n      jump\t// in\n    tag_189:\n        /* \"#utility.yul\":6824:6905   */\n      swap2\n      pop\n        /* \"#utility.yul\":6680:6916   */\n      pop\n        /* \"#utility.yul\":6998:7002   */\n      0x20\n        /* \"#utility.yul\":6991:6996   */\n      dup4\n        /* \"#utility.yul\":6987:7003   */\n      add\n        /* \"#utility.yul\":6981:7004   */\n      mload\n        /* \"#utility.yul\":7017:7080   */\n      tag_190\n        /* \"#utility.yul\":7074:7078   */\n      0x20\n        /* \"#utility.yul\":7069:7072   */\n      dup7\n        /* \"#utility.yul\":7065:7079   */\n      add\n        /* \"#utility.yul\":7051:7063   */\n      dup3\n        /* \"#utility.yul\":7017:7080   */\n      tag_84\n      jump\t// in\n    tag_190:\n        /* \"#utility.yul\":6926:7090   */\n      pop\n        /* \"#utility.yul\":7176:7180   */\n      0x40\n        /* \"#utility.yul\":7169:7174   */\n      dup4\n        /* \"#utility.yul\":7165:7181   */\n      add\n        /* \"#utility.yul\":7159:7182   */\n      mload\n        /* \"#utility.yul\":7195:7258   */\n      tag_191\n        /* \"#utility.yul\":7252:7256   */\n      0x40\n        /* \"#utility.yul\":7247:7250   */\n      dup7\n        /* \"#utility.yul\":7243:7257   */\n      add\n        /* \"#utility.yul\":7229:7241   */\n      dup3\n        /* \"#utility.yul\":7195:7258   */\n      tag_84\n      jump\t// in\n    tag_191:\n        /* \"#utility.yul\":7100:7268   */\n      pop\n        /* \"#utility.yul\":7352:7356   */\n      0x60\n        /* \"#utility.yul\":7345:7350   */\n      dup4\n        /* \"#utility.yul\":7341:7357   */\n      add\n        /* \"#utility.yul\":7335:7358   */\n      mload\n        /* \"#utility.yul\":7405:7408   */\n      dup5\n        /* \"#utility.yul\":7399:7403   */\n      dup3\n        /* \"#utility.yul\":7395:7409   */\n      sub\n        /* \"#utility.yul\":7388:7392   */\n      0x60\n        /* \"#utility.yul\":7383:7386   */\n      dup7\n        /* \"#utility.yul\":7379:7393   */\n      add\n        /* \"#utility.yul\":7372:7410   */\n      mstore\n        /* \"#utility.yul\":7431:7504   */\n      tag_192\n        /* \"#utility.yul\":7499:7503   */\n      dup3\n        /* \"#utility.yul\":7485:7497   */\n      dup3\n        /* \"#utility.yul\":7431:7504   */\n      tag_83\n      jump\t// in\n    tag_192:\n        /* \"#utility.yul\":7423:7504   */\n      swap2\n      pop\n        /* \"#utility.yul\":7278:7515   */\n      pop\n        /* \"#utility.yul\":7607:7611   */\n      0x80\n        /* \"#utility.yul\":7600:7605   */\n      dup4\n        /* \"#utility.yul\":7596:7612   */\n      add\n        /* \"#utility.yul\":7590:7613   */\n      mload\n        /* \"#utility.yul\":7660:7663   */\n      dup5\n        /* \"#utility.yul\":7654:7658   */\n      dup3\n        /* \"#utility.yul\":7650:7664   */\n      sub\n        /* \"#utility.yul\":7643:7647   */\n      0x80\n        /* \"#utility.yul\":7638:7641   */\n      dup7\n        /* \"#utility.yul\":7634:7648   */\n      add\n        /* \"#utility.yul\":7627:7665   */\n      mstore\n        /* \"#utility.yul\":7686:7759   */\n      tag_193\n        /* \"#utility.yul\":7754:7758   */\n      dup3\n        /* \"#utility.yul\":7740:7752   */\n      dup3\n        /* \"#utility.yul\":7686:7759   */\n      tag_83\n      jump\t// in\n    tag_193:\n        /* \"#utility.yul\":7678:7759   */\n      swap2\n      pop\n        /* \"#utility.yul\":7525:7770   */\n      pop\n        /* \"#utility.yul\":7855:7859   */\n      0xa0\n        /* \"#utility.yul\":7848:7853   */\n      dup4\n        /* \"#utility.yul\":7844:7860   */\n      add\n        /* \"#utility.yul\":7838:7861   */\n      mload\n        /* \"#utility.yul\":7874:7931   */\n      tag_194\n        /* \"#utility.yul\":7925:7929   */\n      0xa0\n        /* \"#utility.yul\":7920:7923   */\n      dup7\n        /* \"#utility.yul\":7916:7930   */\n      add\n        /* \"#utility.yul\":7902:7914   */\n      dup3\n        /* \"#utility.yul\":7874:7931   */\n      tag_85\n      jump\t// in\n    tag_194:\n        /* \"#utility.yul\":7780:7941   */\n      pop\n        /* \"#utility.yul\":7958:7962   */\n      dup1\n        /* \"#utility.yul\":7951:7962   */\n      swap2\n      pop\n        /* \"#utility.yul\":6634:7968   */\n      pop\n        /* \"#utility.yul\":6506:7968   */\n      swap3\n      swap2\n      pop\n      pop\n      jump\t// out\n        /* \"#utility.yul\":7974:8355   */\n    tag_15:\n        /* \"#utility.yul\":8121:8125   */\n      0x00\n        /* \"#utility.yul\":8159:8161   */\n      0x20\n        /* \"#utility.yul\":8148:8157   */\n      dup3\n        /* \"#utility.yul\":8144:8162   */\n      add\n        /* \"#utility.yul\":8136:8162   */\n      swap1\n      pop\n        /* \"#utility.yul\":8208:8217   */\n      dup2\n        /* \"#utility.yul\":8202:8206   */\n      dup2\n        /* \"#utility.yul\":8198:8218   */\n      sub\n        /* \"#utility.yul\":8194:8195   */\n      0x00\n        /* \"#utility.yul\":8183:8192   */\n      dup4\n        /* \"#utility.yul\":8179:8196   */\n      add\n        /* \"#utility.yul\":8172:8219   */\n      mstore\n        /* \"#utility.yul\":8236:8348   */\n      tag_196\n        /* \"#utility.yul\":8343:8347   */\n      dup2\n        /* \"#utility.yul\":8334:8340   */\n      dup5\n        /* \"#utility.yul\":8236:8348   */\n      tag_86\n      jump\t// in\n    tag_196:\n        /* \"#utility.yul\":8228:8348   */\n      swap1\n      pop\n        /* \"#utility.yul\":7974:8355   */\n      swap3\n      swap2\n      pop\n      pop\n      jump\t// out\n        /* \"#utility.yul\":8361:8487   */\n    tag_87:\n        /* \"#utility.yul\":8398:8405   */\n      0x00\n        /* \"#utility.yul\":8438:8480   */\n      0xffffffffffffffffffffffffffffffffffffffff\n        /* \"#utility.yul\":8431:8436   */\n      dup3\n        /* \"#utility.yul\":8427:8481   */\n      and\n        /* \"#utility.yul\":8416:8481   */\n      swap1\n      pop\n        /* \"#utility.yul\":8361:8487   */\n      swap2\n      swap1\n      pop\n      jump\t// out\n        /* \"#utility.yul\":8493:8589   */\n    tag_88:\n        /* \"#utility.yul\":8530:8537   */\n      0x00\n        /* \"#utility.yul\":8559:8583   */\n      tag_199\n        /* \"#utility.yul\":8577:8582   */\n      dup3\n        /* \"#utility.yul\":8559:8583   */\n      tag_87\n      jump\t// in\n    tag_199:\n        /* \"#utility.yul\":8548:8583   */\n      swap1\n      pop\n        /* \"#utility.yul\":8493:8589   */\n      swap2\n      swap1\n      pop\n      jump\t// out\n        /* \"#utility.yul\":8595:8717   */\n    tag_89:\n        /* \"#utility.yul\":8668:8692   */\n      tag_201\n        /* \"#utility.yul\":8686:8691   */\n      dup2\n        /* \"#utility.yul\":8668:8692   */\n      tag_88\n      jump\t// in\n    tag_201:\n        /* \"#utility.yul\":8661:8666   */\n      dup2\n        /* \"#utility.yul\":8658:8693   */\n      eq\n        /* \"#utility.yul\":8648:8711   */\n      tag_202\n      jumpi\n        /* \"#utility.yul\":8707:8708   */\n      0x00\n        /* \"#utility.yul\":8704:8705   */\n      dup1\n        /* \"#utility.yul\":8697:8709   */\n      revert\n        /* \"#utility.yul\":8648:8711   */\n    tag_202:\n        /* \"#utility.yul\":8595:8717   */\n      pop\n      jump\t// out\n        /* \"#utility.yul\":8723:8862   */\n    tag_90:\n        /* \"#utility.yul\":8769:8774   */\n      0x00\n        /* \"#utility.yul\":8807:8813   */\n      dup2\n        /* \"#utility.yul\":8794:8814   */\n      calldataload\n        /* \"#utility.yul\":8785:8814   */\n      swap1\n      pop\n        /* \"#utility.yul\":8823:8856   */\n      tag_204\n        /* \"#utility.yul\":8850:8855   */\n      dup2\n        /* \"#utility.yul\":8823:8856   */\n      tag_89\n      jump\t// in\n    tag_204:\n        /* \"#utility.yul\":8723:8862   */\n      swap3\n      swap2\n      pop\n      pop\n      jump\t// out\n        /* \"#utility.yul\":8868:9197   */\n    tag_18:\n        /* \"#utility.yul\":8927:8933   */\n      0x00\n        /* \"#utility.yul\":8976:8978   */\n      0x20\n        /* \"#utility.yul\":8964:8973   */\n      dup3\n        /* \"#utility.yul\":8955:8962   */\n      dup5\n        /* \"#utility.yul\":8951:8974   */\n      sub\n        /* \"#utility.yul\":8947:8979   */\n      slt\n        /* \"#utility.yul\":8944:9063   */\n      iszero\n      tag_206\n      jumpi\n        /* \"#utility.yul\":8982:9061   */\n      tag_207\n      tag_62\n      jump\t// in\n    tag_207:\n        /* \"#utility.yul\":8944:9063   */\n    tag_206:\n        /* \"#utility.yul\":9102:9103   */\n      0x00\n        /* \"#utility.yul\":9127:9180   */\n      tag_208\n        /* \"#utility.yul\":9172:9179   */\n      dup5\n        /* \"#utility.yul\":9163:9169   */\n      dup3\n        /* \"#utility.yul\":9152:9161   */\n      dup6\n        /* \"#utility.yul\":9148:9170   */\n      add\n        /* \"#utility.yul\":9127:9180   */\n      tag_90\n      jump\t// in\n    tag_208:\n        /* \"#utility.yul\":9117:9180   */\n      swap2\n      pop\n        /* \"#utility.yul\":9073:9190   */\n      pop\n        /* \"#utility.yul\":8868:9197   */\n      swap3\n      swap2\n      pop\n      pop\n      jump\t// out\n        /* \"#utility.yul\":9203:9372   */\n    tag_91:\n        /* \"#utility.yul\":9287:9298   */\n      0x00\n        /* \"#utility.yul\":9321:9327   */\n      dup3\n        /* \"#utility.yul\":9316:9319   */\n      dup3\n        /* \"#utility.yul\":9309:9328   */\n      mstore\n        /* \"#utility.yul\":9361:9365   */\n      0x20\n        /* \"#utility.yul\":9356:9359   */\n      dup3\n        /* \"#utility.yul\":9352:9366   */\n      add\n        /* \"#utility.yul\":9337:9366   */\n      swap1\n      pop\n        /* \"#utility.yul\":9203:9372   */\n      swap3\n      swap2\n      pop\n      pop\n      jump\t// out\n        /* \"#utility.yul\":9378:9755   */\n    tag_92:\n        /* \"#utility.yul\":9466:9469   */\n      0x00\n        /* \"#utility.yul\":9494:9533   */\n      tag_211\n        /* \"#utility.yul\":9527:9532   */\n      dup3\n        /* \"#utility.yul\":9494:9533   */\n      tag_80\n      jump\t// in\n    tag_211:\n        /* \"#utility.yul\":9549:9620   */\n      tag_212\n        /* \"#utility.yul\":9613:9619   */\n      dup2\n        /* \"#utility.yul\":9608:9611   */\n      dup6\n        /* \"#utility.yul\":9549:9620   */\n      tag_91\n      jump\t// in\n    tag_212:\n        /* \"#utility.yul\":9542:9620   */\n      swap4\n      pop\n        /* \"#utility.yul\":9629:9694   */\n      tag_213\n        /* \"#utility.yul\":9687:9693   */\n      dup2\n        /* \"#utility.yul\":9682:9685   */\n      dup6\n        /* \"#utility.yul\":9675:9679   */\n      0x20\n        /* \"#utility.yul\":9668:9673   */\n      dup7\n        /* \"#utility.yul\":9664:9680   */\n      add\n        /* \"#utility.yul\":9629:9694   */\n      tag_82\n      jump\t// in\n    tag_213:\n        /* \"#utility.yul\":9719:9748   */\n      tag_214\n        /* \"#utility.yul\":9741:9747   */\n      dup2\n        /* \"#utility.yul\":9719:9748   */\n      tag_69\n      jump\t// in\n    tag_214:\n        /* \"#utility.yul\":9714:9717   */\n      dup5\n        /* \"#utility.yul\":9710:9749   */\n      add\n        /* \"#utility.yul\":9703:9749   */\n      swap2\n      pop\n        /* \"#utility.yul\":9470:9755   */\n      pop\n        /* \"#utility.yul\":9378:9755   */\n      swap3\n      swap2\n      pop\n      pop\n      jump\t// out\n        /* \"#utility.yul\":9761:9879   */\n    tag_93:\n        /* \"#utility.yul\":9848:9872   */\n      tag_216\n        /* \"#utility.yul\":9866:9871   */\n      dup2\n        /* \"#utility.yul\":9848:9872   */\n      tag_64\n      jump\t// in\n    tag_216:\n        /* \"#utility.yul\":9843:9846   */\n      dup3\n        /* \"#utility.yul\":9836:9873   */\n      mstore\n        /* \"#utility.yul\":9761:9879   */\n      pop\n      pop\n      jump\t// out\n        /* \"#utility.yul\":9885:9994   */\n    tag_94:\n        /* \"#utility.yul\":9966:9987   */\n      tag_218\n        /* \"#utility.yul\":9981:9986   */\n      dup2\n        /* \"#utility.yul\":9966:9987   */\n      tag_77\n      jump\t// in\n    tag_218:\n        /* \"#utility.yul\":9961:9964   */\n      dup3\n        /* \"#utility.yul\":9954:9988   */\n      mstore\n        /* \"#utility.yul\":9885:9994   */\n      pop\n      pop\n      jump\t// out\n        /* \"#utility.yul\":10000:11036   */\n    tag_21:\n        /* \"#utility.yul\":10287:10291   */\n      0x00\n        /* \"#utility.yul\":10325:10328   */\n      0xc0\n        /* \"#utility.yul\":10314:10323   */\n      dup3\n        /* \"#utility.yul\":10310:10329   */\n      add\n        /* \"#utility.yul\":10302:10329   */\n      swap1\n      pop\n        /* \"#utility.yul\":10375:10384   */\n      dup2\n        /* \"#utility.yul\":10369:10373   */\n      dup2\n        /* \"#utility.yul\":10365:10385   */\n      sub\n        /* \"#utility.yul\":10361:10362   */\n      0x00\n        /* \"#utility.yul\":10350:10359   */\n      dup4\n        /* \"#utility.yul\":10346:10363   */\n      add\n        /* \"#utility.yul\":10339:10386   */\n      mstore\n        /* \"#utility.yul\":10403:10481   */\n      tag_220\n        /* \"#utility.yul\":10476:10480   */\n      dup2\n        /* \"#utility.yul\":10467:10473   */\n      dup10\n        /* \"#utility.yul\":10403:10481   */\n      tag_92\n      jump\t// in\n    tag_220:\n        /* \"#utility.yul\":10395:10481   */\n      swap1\n      pop\n        /* \"#utility.yul\":10491:10563   */\n      tag_221\n        /* \"#utility.yul\":10559:10561   */\n      0x20\n        /* \"#utility.yul\":10548:10557   */\n      dup4\n        /* \"#utility.yul\":10544:10562   */\n      add\n        /* \"#utility.yul\":10535:10541   */\n      dup9\n        /* \"#utility.yul\":10491:10563   */\n      tag_93\n      jump\t// in\n    tag_221:\n        /* \"#utility.yul\":10573:10645   */\n      tag_222\n        /* \"#utility.yul\":10641:10643   */\n      0x40\n        /* \"#utility.yul\":10630:10639   */\n      dup4\n        /* \"#utility.yul\":10626:10644   */\n      add\n        /* \"#utility.yul\":10617:10623   */\n      dup8\n        /* \"#utility.yul\":10573:10645   */\n      tag_93\n      jump\t// in\n    tag_222:\n        /* \"#utility.yul\":10692:10701   */\n      dup2\n        /* \"#utility.yul\":10686:10690   */\n      dup2\n        /* \"#utility.yul\":10682:10702   */\n      sub\n        /* \"#utility.yul\":10677:10679   */\n      0x60\n        /* \"#utility.yul\":10666:10675   */\n      dup4\n        /* \"#utility.yul\":10662:10680   */\n      add\n        /* \"#utility.yul\":10655:10703   */\n      mstore\n        /* \"#utility.yul\":10720:10798   */\n      tag_223\n        /* \"#utility.yul\":10793:10797   */\n      dup2\n        /* \"#utility.yul\":10784:10790   */\n      dup7\n        /* \"#utility.yul\":10720:10798   */\n      tag_92\n      jump\t// in\n    tag_223:\n        /* \"#utility.yul\":10712:10798   */\n      swap1\n      pop\n        /* \"#utility.yul\":10846:10855   */\n      dup2\n        /* \"#utility.yul\":10840:10844   */\n      dup2\n        /* \"#utility.yul\":10836:10856   */\n      sub\n        /* \"#utility.yul\":10830:10833   */\n      0x80\n        /* \"#utility.yul\":10819:10828   */\n      dup4\n        /* \"#utility.yul\":10815:10834   */\n      add\n        /* \"#utility.yul\":10808:10857   */\n      mstore\n        /* \"#utility.yul\":10874:10952   */\n      tag_224\n        /* \"#utility.yul\":10947:10951   */\n      dup2\n        /* \"#utility.yul\":10938:10944   */\n      dup6\n        /* \"#utility.yul\":10874:10952   */\n      tag_92\n      jump\t// in\n    tag_224:\n        /* \"#utility.yul\":10866:10952   */\n      swap1\n      pop\n        /* \"#utility.yul\":10962:11029   */\n      tag_225\n        /* \"#utility.yul\":11024:11027   */\n      0xa0\n        /* \"#utility.yul\":11013:11022   */\n      dup4\n        /* \"#utility.yul\":11009:11028   */\n      add\n        /* \"#utility.yul\":11000:11006   */\n      dup5\n        /* \"#utility.yul\":10962:11029   */\n      tag_94\n      jump\t// in\n    tag_225:\n        /* \"#utility.yul\":10000:11036   */\n      swap8\n      swap7\n      pop\n      pop\n      pop\n      pop\n      pop\n      pop\n      pop\n      jump\t// out\n        /* \"#utility.yul\":11042:11222   */\n    tag_95:\n        /* \"#utility.yul\":11090:11167   */\n      0x4e487b7100000000000000000000000000000000000000000000000000000000\n        /* \"#utility.yul\":11087:11088   */\n      0x00\n        /* \"#utility.yul\":11080:11168   */\n      mstore\n        /* \"#utility.yul\":11187:11191   */\n      0x22\n        /* \"#utility.yul\":11184:11185   */\n      0x04\n        /* \"#utility.yul\":11177:11192   */\n      mstore\n        /* \"#utility.yul\":11211:11215   */\n      0x24\n        /* \"#utility.yul\":11208:11209   */\n      0x00\n        /* \"#utility.yul\":11201:11216   */\n      revert\n        /* \"#utility.yul\":11228:11548   */\n    tag_31:\n        /* \"#utility.yul\":11272:11278   */\n      0x00\n        /* \"#utility.yul\":11309:11310   */\n      0x02\n        /* \"#utility.yul\":11303:11307   */\n      dup3\n        /* \"#utility.yul\":11299:11311   */\n      div\n        /* \"#utility.yul\":11289:11311   */\n      swap1\n      pop\n        /* \"#utility.yul\":11356:11357   */\n      0x01\n        /* \"#utility.yul\":11350:11354   */\n      dup3\n        /* \"#utility.yul\":11346:11358   */\n      and\n        /* \"#utility.yul\":11377:11395   */\n      dup1\n        /* \"#utility.yul\":11367:11448   */\n      tag_228\n      jumpi\n        /* \"#utility.yul\":11433:11437   */\n      0x7f\n        /* \"#utility.yul\":11425:11431   */\n      dup3\n        /* \"#utility.yul\":11421:11438   */\n      and\n        /* \"#utility.yul\":11411:11438   */\n      swap2\n      pop\n        /* \"#utility.yul\":11367:11448   */\n    tag_228:\n        /* \"#utility.yul\":11495:11497   */\n      0x20\n        /* \"#utility.yul\":11487:11493   */\n      dup3\n        /* \"#utility.yul\":11484:11498   */\n      lt\n        /* \"#utility.yul\":11464:11482   */\n      dup2\n        /* \"#utility.yul\":11461:11499   */\n      sub\n        /* \"#utility.yul\":11458:11542   */\n      tag_229\n      jumpi\n        /* \"#utility.yul\":11514:11532   */\n      tag_230\n      tag_95\n      jump\t// in\n    tag_230:\n        /* \"#utility.yul\":11458:11542   */\n    tag_229:\n        /* \"#utility.yul\":11279:11548   */\n      pop\n        /* \"#utility.yul\":11228:11548   */\n      swap2\n      swap1\n      pop\n      jump\t// out\n        /* \"#utility.yul\":11554:11695   */\n    tag_96:\n        /* \"#utility.yul\":11603:11607   */\n      0x00\n        /* \"#utility.yul\":11626:11629   */\n      dup2\n        /* \"#utility.yul\":11618:11629   */\n      swap1\n      pop\n        /* \"#utility.yul\":11649:11652   */\n      dup2\n        /* \"#utility.yul\":11646:11647   */\n      0x00\n        /* \"#utility.yul\":11639:11653   */\n      mstore\n        /* \"#utility.yul\":11683:11687   */\n      0x20\n        /* \"#utility.yul\":11680:11681   */\n      0x00\n        /* \"#utility.yul\":11670:11688   */\n      keccak256\n        /* \"#utility.yul\":11662:11688   */\n      swap1\n      pop\n        /* \"#utility.yul\":11554:11695   */\n      swap2\n      swap1\n      pop\n      jump\t// out\n        /* \"#utility.yul\":11701:11794   */\n    tag_97:\n        /* \"#utility.yul\":11738:11744   */\n      0x00\n        /* \"#utility.yul\":11785:11787   */\n      0x20\n        /* \"#utility.yul\":11780:11782   */\n      0x1f\n        /* \"#utility.yul\":11773:11778   */\n      dup4\n        /* \"#utility.yul\":11769:11783   */\n      add\n        /* \"#utility.yul\":11765:11788   */\n      div\n        /* \"#utility.yul\":11755:11788   */\n      swap1\n      pop\n        /* \"#utility.yul\":11701:11794   */\n      swap2\n      swap1\n      pop\n      jump\t// out\n        /* \"#utility.yul\":11800:11907   */\n    tag_98:\n        /* \"#utility.yul\":11844:11852   */\n      0x00\n        /* \"#utility.yul\":11894:11899   */\n      dup3\n        /* \"#utility.yul\":11888:11892   */\n      dup3\n        /* \"#utility.yul\":11884:11900   */\n      shl\n        /* \"#utility.yul\":11863:11900   */\n      swap1\n      pop\n        /* \"#utility.yul\":11800:11907   */\n      swap3\n      swap2\n      pop\n      pop\n      jump\t// out\n        /* \"#utility.yul\":11913:12306   */\n    tag_99:\n        /* \"#utility.yul\":11982:11988   */\n      0x00\n        /* \"#utility.yul\":12032:12033   */\n      0x08\n        /* \"#utility.yul\":12020:12030   */\n      dup4\n        /* \"#utility.yul\":12016:12034   */\n      mul\n        /* \"#utility.yul\":12055:12152   */\n      tag_235\n        /* \"#utility.yul\":12085:12151   */\n      0xffffffffffffffffffffffffffffffffffffffffffffffffffffffffffffffff\n        /* \"#utility.yul\":12074:12083   */\n      dup3\n        /* \"#utility.yul\":12055:12152   */\n      tag_98\n      jump\t// in\n    tag_235:\n        /* \"#utility.yul\":12173:12212   */\n      tag_236\n        /* \"#utility.yul\":12203:12211   */\n      dup7\n        /* \"#utility.yul\":12192:12201   */\n      dup4\n        /* \"#utility.yul\":12173:12212   */\n      tag_98\n      jump\t// in\n    tag_236:\n        /* \"#utility.yul\":12161:12212   */\n      swap6\n      pop\n        /* \"#utility.yul\":12245:12249   */\n      dup1\n        /* \"#utility.yul\":12241:12250   */\n      not\n        /* \"#utility.yul\":12234:12239   */\n      dup5\n        /* \"#utility.yul\":12230:12251   */\n      and\n        /* \"#utility.yul\":12221:12251   */\n      swap4\n      pop\n        /* \"#utility.yul\":12294:12298   */\n      dup1\n        /* \"#utility.yul\":12284:12292   */\n      dup7\n        /* \"#utility.yul\":12280:12299   */\n      and\n        /* \"#utility.yul\":12273:12278   */\n      dup5\n        /* \"#utility.yul\":12270:12300   */\n      or\n        /* \"#utility.yul\":12260:12300   */\n      swap3\n      pop\n        /* \"#utility.yul\":11989:12306   */\n      pop\n      pop\n        /* \"#utility.yul\":11913:12306   */\n      swap4\n      swap3\n      pop\n      pop\n      pop\n      jump\t// out\n        /* \"#utility.yul\":12312:12372   */\n    tag_100:\n        /* \"#utility.yul\":12340:12343   */\n      0x00\n        /* \"#utility.yul\":12361:12366   */\n      dup2\n        /* \"#utility.yul\":12354:12366   */\n      swap1\n      pop\n        /* \"#utility.yul\":12312:12372   */\n      swap2\n      swap1\n      pop\n      jump\t// out\n        /* \"#utility.yul\":12378:12520   */\n    tag_101:\n        /* \"#utility.yul\":12428:12437   */\n      0x00\n        /* \"#utility.yul\":12461:12514   */\n      tag_239\n        /* \"#utility.yul\":12479:12513   */\n      tag_240\n        /* \"#utility.yul\":12488:12512   */\n      tag_241\n        /* \"#utility.yul\":12506:12511   */\n      dup5\n        /* \"#utility.yul\":12488:12512   */\n      tag_64\n      jump\t// in\n    tag_241:\n        /* \"#utility.yul\":12479:12513   */\n      tag_100\n      jump\t// in\n    tag_240:\n        /* \"#utility.yul\":12461:12514   */\n      tag_64\n      jump\t// in\n    tag_239:\n        /* \"#utility.yul\":12448:12514   */\n      swap1\n      pop\n        /* \"#utility.yul\":12378:12520   */\n      swap2\n      swap1\n      pop\n      jump\t// out\n        /* \"#utility.yul\":12526:12601   */\n    tag_102:\n        /* \"#utility.yul\":12569:12572   */\n      0x00\n        /* \"#utility.yul\":12590:12595   */\n      dup2\n        /* \"#utility.yul\":12583:12595   */\n      swap1\n      pop\n        /* \"#utility.yul\":12526:12601   */\n      swap2\n      swap1\n      pop\n      jump\t// out\n        /* \"#utility.yul\":12607:12876   */\n    tag_103:\n        /* \"#utility.yul\":12717:12756   */\n      tag_244\n        /* \"#utility.yul\":12748:12755   */\n      dup4\n        /* \"#utility.yul\":12717:12756   */\n      tag_101\n      jump\t// in\n    tag_244:\n        /* \"#utility.yul\":12778:12869   */\n      tag_245\n        /* \"#utility.yul\":12827:12868   */\n      tag_246\n        /* \"#utility.yul\":12851:12867   */\n      dup3\n        /* \"#utility.yul\":12827:12868   */\n      tag_102\n      jump\t// in\n    tag_246:\n        /* \"#utility.yul\":12819:12825   */\n      dup5\n        /* \"#utility.yul\":12812:12816   */\n      dup5\n        /* \"#utility.yul\":12806:12817   */\n      sload\n        /* \"#utility.yul\":12778:12869   */\n      tag_99\n      jump\t// in\n    tag_245:\n        /* \"#utility.yul\":12772:12776   */\n      dup3\n        /* \"#utility.yul\":12765:12870   */\n      sstore\n        /* \"#utility.yul\":12683:12876   */\n      pop\n        /* \"#utility.yul\":12607:12876   */\n      pop\n      pop\n      pop\n      jump\t// out\n        /* \"#utility.yul\":12882:12955   */\n    tag_104:\n        /* \"#utility.yul\":12927:12930   */\n      0x00\n        /* \"#utility.yul\":12882:12955   */\n      swap1\n      jump\t// out\n        /* \"#utility.yul\":12961:13150   */\n    tag_105:\n        /* \"#utility.yul\":13038:13070   */\n      tag_249\n      tag_104\n      jump\t// in\n    tag_249:\n        /* \"#utility.yul\":13079:13144   */\n      tag_250\n        /* \"#utility.yul\":13137:13143   */\n      dup2\n        /* \"#utility.yul\":13129:13135   */\n      dup5\n        /* \"#utility.yul\":13123:13127   */\n      dup5\n        /* \"#utility.yul\":13079:13144   */\n      tag_103\n      jump\t// in\n    tag_250:\n        /* \"#utility.yul\":13014:13150   */\n      pop\n        /* \"#utility.yul\":12961:13150   */\n      pop\n      pop\n      jump\t// out\n        /* \"#utility.yul\":13156:13342   */\n    tag_106:\n        /* \"#utility.yul\":13216:13336   */\n    tag_252:\n        /* \"#utility.yul\":13233:13236   */\n      dup2\n        /* \"#utility.yul\":13226:13231   */\n      dup2\n        /* \"#utility.yul\":13223:13237   */\n      lt\n        /* \"#utility.yul\":13216:13336   */\n      iszero\n      tag_254\n      jumpi\n        /* \"#utility.yul\":13287:13326   */\n      tag_255\n        /* \"#utility.yul\":13324:13325   */\n      0x00\n        /* \"#utility.yul\":13317:13322   */\n      dup3\n        /* \"#utility.yul\":13287:13326   */\n      tag_105\n      jump\t// in\n    tag_255:\n        /* \"#utility.yul\":13260:13261   */\n      0x01\n        /* \"#utility.yul\":13253:13258   */\n      dup2\n        /* \"#utility.yul\":13249:13262   */\n      add\n        /* \"#utility.yul\":13240:13262   */\n      swap1\n      pop\n        /* \"#utility.yul\":13216:13336   */\n      jump(tag_252)\n    tag_254:\n        /* \"#utility.yul\":13156:13342   */\n      pop\n      pop\n      jump\t// out\n        /* \"#utility.yul\":13348:13891   */\n    tag_107:\n        /* \"#utility.yul\":13449:13451   */\n      0x1f\n        /* \"#utility.yul\":13444:13447   */\n      dup3\n        /* \"#utility.yul\":13441:13452   */\n      gt\n        /* \"#utility.yul\":13438:13884   */\n      iszero\n      tag_257\n      jumpi\n        /* \"#utility.yul\":13483:13521   */\n      tag_258\n        /* \"#utility.yul\":13515:13520   */\n      dup2\n        /* \"#utility.yul\":13483:13521   */\n      tag_96\n      jump\t// in\n    tag_258:\n        /* \"#utility.yul\":13567:13596   */\n      tag_259\n        /* \"#utility.yul\":13585:13595   */\n      dup5\n        /* \"#utility.yul\":13567:13596   */\n      tag_97\n      jump\t// in\n    tag_259:\n        /* \"#utility.yul\":13557:13565   */\n      dup2\n        /* \"#utility.yul\":13553:13597   */\n      add\n        /* \"#utility.yul\":13750:13752   */\n      0x20\n        /* \"#utility.yul\":13738:13748   */\n      dup6\n        /* \"#utility.yul\":13735:13753   */\n      lt\n        /* \"#utility.yul\":13732:13781   */\n      iszero\n      tag_260\n      jumpi\n        /* \"#utility.yul\":13771:13779   */\n      dup2\n        /* \"#utility.yul\":13756:13779   */\n      swap1\n      pop\n        /* \"#utility.yul\":13732:13781   */\n    tag_260:\n        /* \"#utility.yul\":13794:13874   */\n      tag_261\n        /* \"#utility.yul\":13850:13872   */\n      tag_262\n        /* \"#utility.yul\":13868:13871   */\n      dup6\n        /* \"#utility.yul\":13850:13872   */\n      tag_97\n      jump\t// in\n    tag_262:\n        /* \"#utility.yul\":13840:13848   */\n      dup4\n        /* \"#utility.yul\":13836:13873   */\n      add\n        /* \"#utility.yul\":13823:13834   */\n      dup3\n        /* \"#utility.yul\":13794:13874   */\n      tag_106\n      jump\t// in\n    tag_261:\n        /* \"#utility.yul\":13453:13884   */\n      pop\n      pop\n        /* \"#utility.yul\":13438:13884   */\n    tag_257:\n        /* \"#utility.yul\":13348:13891   */\n      pop\n      pop\n      pop\n      jump\t// out\n        /* \"#utility.yul\":13897:14014   */\n    tag_108:\n        /* \"#utility.yul\":13951:13959   */\n      0x00\n        /* \"#utility.yul\":14001:14006   */\n      dup3\n        /* \"#utility.yul\":13995:13999   */\n      dup3\n        /* \"#utility.yul\":13991:14007   */\n      shr\n        /* \"#utility.yul\":13970:14007   */\n      swap1\n      pop\n        /* \"#utility.yul\":13897:14014   */\n      swap3\n      swap2\n      pop\n      pop\n      jump\t// out\n        /* \"#utility.yul\":14020:14189   */\n    tag_109:\n        /* \"#utility.yul\":14064:14070   */\n      0x00\n        /* \"#utility.yul\":14097:14148   */\n      tag_265\n        /* \"#utility.yul\":14145:14146   */\n      0x00\n        /* \"#utility.yul\":14141:14147   */\n      not\n        /* \"#utility.yul\":14133:14138   */\n      dup5\n        /* \"#utility.yul\":14130:14131   */\n      0x08\n        /* \"#utility.yul\":14126:14139   */\n      mul\n        /* \"#utility.yul\":14097:14148   */\n      tag_108\n      jump\t// in\n    tag_265:\n        /* \"#utility.yul\":14093:14149   */\n      not\n        /* \"#utility.yul\":14178:14182   */\n      dup1\n        /* \"#utility.yul\":14172:14176   */\n      dup4\n        /* \"#utility.yul\":14168:14183   */\n      and\n        /* \"#utility.yul\":14158:14183   */\n      swap2\n      pop\n        /* \"#utility.yul\":14071:14189   */\n      pop\n        /* \"#utility.yul\":14020:14189   */\n      swap3\n      swap2\n      pop\n      pop\n      jump\t// out\n        /* \"#utility.yul\":14194:14489   */\n    tag_110:\n        /* \"#utility.yul\":14270:14274   */\n      0x00\n        /* \"#utility.yul\":14416:14445   */\n      tag_267\n        /* \"#utility.yul\":14441:14444   */\n      dup4\n        /* \"#utility.yul\":14435:14439   */\n      dup4\n        /* \"#utility.yul\":14416:14445   */\n      tag_109\n      jump\t// in\n    tag_267:\n        /* \"#utility.yul\":14408:14445   */\n      swap2\n      pop\n        /* \"#utility.yul\":14478:14481   */\n      dup3\n        /* \"#utility.yul\":14475:14476   */\n      0x02\n        /* \"#utility.yul\":14471:14482   */\n      mul\n        /* \"#utility.yul\":14465:14469   */\n      dup3\n        /* \"#utility.yul\":14462:14483   */\n      or\n        /* \"#utility.yul\":14454:14483   */\n      swap1\n      pop\n        /* \"#utility.yul\":14194:14489   */\n      swap3\n      swap2\n      pop\n      pop\n      jump\t// out\n        /* \"#utility.yul\":14494:15889   */\n    tag_24:\n        /* \"#utility.yul\":14611:14648   */\n      tag_269\n        /* \"#utility.yul\":14644:14647   */\n      dup3\n        /* \"#utility.yul\":14611:14648   */\n      tag_80\n      jump\t// in\n    tag_269:\n        /* \"#utility.yul\":14713:14731   */\n      0xffffffffffffffff\n        /* \"#utility.yul\":14705:14711   */\n      dup2\n        /* \"#utility.yul\":14702:14732   */\n      gt\n        /* \"#utility.yul\":14699:14755   */\n      iszero\n      tag_270\n      jumpi\n        /* \"#utility.yul\":14735:14753   */\n      tag_271\n      tag_70\n      jump\t// in\n    tag_271:\n        /* \"#utility.yul\":14699:14755   */\n    tag_270:\n        /* \"#utility.yul\":14779:14817   */\n      tag_272\n        /* \"#utility.yul\":14811:14815   */\n      dup3\n        /* \"#utility.yul\":14805:14816   */\n      sload\n        /* \"#utility.yul\":14779:14817   */\n      tag_31\n      jump\t// in\n    tag_272:\n        /* \"#utility.yul\":14864:14931   */\n      tag_273\n        /* \"#utility.yul\":14924:14930   */\n      dup3\n        /* \"#utility.yul\":14916:14922   */\n      dup3\n        /* \"#utility.yul\":14910:14914   */\n      dup6\n        /* \"#utility.yul\":14864:14931   */\n      tag_107\n      jump\t// in\n    tag_273:\n        /* \"#utility.yul\":14958:14959   */\n      0x00\n        /* \"#utility.yul\":14982:14986   */\n      0x20\n        /* \"#utility.yul\":14969:14986   */\n      swap1\n      pop\n        /* \"#utility.yul\":15014:15016   */\n      0x1f\n        /* \"#utility.yul\":15006:15012   */\n      dup4\n        /* \"#utility.yul\":15003:15017   */\n      gt\n        /* \"#utility.yul\":15031:15032   */\n      0x01\n        /* \"#utility.yul\":15026:15644   */\n      dup2\n      eq\n      tag_275\n      jumpi\n        /* \"#utility.yul\":15688:15689   */\n      0x00\n        /* \"#utility.yul\":15705:15711   */\n      dup5\n        /* \"#utility.yul\":15702:15779   */\n      iszero\n      tag_276\n      jumpi\n        /* \"#utility.yul\":15754:15763   */\n      dup3\n        /* \"#utility.yul\":15749:15752   */\n      dup8\n        /* \"#utility.yul\":15745:15764   */\n      add\n        /* \"#utility.yul\":15739:15765   */\n      mload\n        /* \"#utility.yul\":15730:15765   */\n      swap1\n      pop\n        /* \"#utility.yul\":15702:15779   */\n    tag_276:\n        /* \"#utility.yul\":15805:15872   */\n      tag_277\n        /* \"#utility.yul\":15865:15871   */\n      dup6\n        /* \"#utility.yul\":15858:15863   */\n      dup3\n        /* \"#utility.yul\":15805:15872   */\n      tag_110\n      jump\t// in\n    tag_277:\n        /* \"#utility.yul\":15799:15803   */\n      dup7\n        /* \"#utility.yul\":15792:15873   */\n      sstore\n        /* \"#utility.yul\":15661:15883   */\n      pop\n        /* \"#utility.yul\":14996:15883   */\n      jump(tag_274)\n        /* \"#utility.yul\":15026:15644   */\n    tag_275:\n        /* \"#utility.yul\":15078:15082   */\n      0x1f\n        /* \"#utility.yul\":15074:15083   */\n      not\n        /* \"#utility.yul\":15066:15072   */\n      dup5\n        /* \"#utility.yul\":15062:15084   */\n      and\n        /* \"#utility.yul\":15112:15149   */\n      tag_278\n        /* \"#utility.yul\":15144:15148   */\n      dup7\n        /* \"#utility.yul\":15112:15149   */\n      tag_96\n      jump\t// in\n    tag_278:\n        /* \"#utility.yul\":15171:15172   */\n      0x00\n        /* \"#utility.yul\":15185:15393   */\n    tag_279:\n        /* \"#utility.yul\":15199:15206   */\n      dup3\n        /* \"#utility.yul\":15196:15197   */\n      dup2\n        /* \"#utility.yul\":15193:15207   */\n      lt\n        /* \"#utility.yul\":15185:15393   */\n      iszero\n      tag_281\n      jumpi\n        /* \"#utility.yul\":15278:15287   */\n      dup5\n        /* \"#utility.yul\":15273:15276   */\n      dup10\n        /* \"#utility.yul\":15269:15288   */\n      add\n        /* \"#utility.yul\":15263:15289   */\n      mload\n        /* \"#utility.yul\":15255:15261   */\n      dup3\n        /* \"#utility.yul\":15248:15290   */\n      sstore\n        /* \"#utility.yul\":15329:15330   */\n      0x01\n        /* \"#utility.yul\":15321:15327   */\n      dup3\n        /* \"#utility.yul\":15317:15331   */\n      add\n        /* \"#utility.yul\":15307:15331   */\n      swap2\n      pop\n        /* \"#utility.yul\":15376:15378   */\n      0x20\n        /* \"#utility.yul\":15365:15374   */\n      dup6\n        /* \"#utility.yul\":15361:15379   */\n      add\n        /* \"#utility.yul\":15348:15379   */\n      swap5\n      pop\n        /* \"#utility.yul\":15222:15226   */\n      0x20\n        /* \"#utility.yul\":15219:15220   */\n      dup2\n        /* \"#utility.yul\":15215:15227   */\n      add\n        /* \"#utility.yul\":15210:15227   */\n      swap1\n      pop\n        /* \"#utility.yul\":15185:15393   */\n      jump(tag_279)\n    tag_281:\n        /* \"#utility.yul\":15421:15427   */\n      dup7\n        /* \"#utility.yul\":15412:15419   */\n      dup4\n        /* \"#utility.yul\":15409:15428   */\n      lt\n        /* \"#utility.yul\":15406:15585   */\n      iszero\n      tag_282\n      jumpi\n        /* \"#utility.yul\":15479:15488   */\n      dup5\n        /* \"#utility.yul\":15474:15477   */\n      dup10\n        /* \"#utility.yul\":15470:15489   */\n      add\n        /* \"#utility.yul\":15464:15490   */\n      mload\n        /* \"#utility.yul\":15522:15570   */\n      tag_283\n        /* \"#utility.yul\":15564:15568   */\n      0x1f\n        /* \"#utility.yul\":15556:15562   */\n      dup10\n        /* \"#utility.yul\":15552:15569   */\n      and\n        /* \"#utility.yul\":15541:15550   */\n      dup3\n        /* \"#utility.yul\":15522:15570   */\n      tag_109\n      jump\t// in\n    tag_283:\n        /* \"#utility.yul\":15514:15520   */\n      dup4\n        /* \"#utility.yul\":15507:15571   */\n      sstore\n        /* \"#utility.yul\":15429:15585   */\n      pop\n        /* \"#utility.yul\":15406:15585   */\n    tag_282:\n        /* \"#utility.yul\":15631:15632   */\n      0x01\n        /* \"#utility.yul\":15627:15628   */\n      0x02\n        /* \"#utility.yul\":15619:15625   */\n      dup9\n        /* \"#utility.yul\":15615:15629   */\n      mul\n        /* \"#utility.yul\":15611:15633   */\n      add\n        /* \"#utility.yul\":15605:15609   */\n      dup9\n        /* \"#utility.yul\":15598:15634   */\n      sstore\n        /* \"#utility.yul\":15033:15644   */\n      pop\n      pop\n      pop\n        /* \"#utility.yul\":14996:15883   */\n    tag_274:\n      pop\n        /* \"#utility.yul\":14586:15889   */\n      pop\n      pop\n      pop\n        /* \"#utility.yul\":14494:15889   */\n      pop\n      pop\n      jump\t// out\n\n    auxdata: 0xa26469706673582212208e7a75b7ff8a8ee0f2936120eecb4ebc1f41f70232b96d4fbb8c441779816ce564736f6c63430008140033\n}\n",
				"bytecode": {
					"linkReferences": {},
					"object": "608060405234801561000f575f80fd5b50610e668061001d5f395ff3fe608060405234801561000f575f80fd5b506004361061003f575f3560e01c80632a72500a14610043578063a82dab0b1461005f578063f4a33d481461008f575b5f80fd5b61005d600480360381019061005891906107a0565b6100c4565b005b61007960048036038101906100749190610891565b6101ae565b60405161008691906109e8565b60405180910390f35b6100a960048036038101906100a49190610a62565b6103e1565b6040516100bb96959493929190610af3565b60405180910390f35b6040518060c001604052808781526020018681526020018581526020018481526020018381526020018215158152505f803373ffffffffffffffffffffffffffffffffffffffff1673ffffffffffffffffffffffffffffffffffffffff1681526020019081526020015f205f820151815f0190816101429190610d61565b506020820151816001015560408201518160020155606082015181600301908161016c9190610d61565b5060808201518160040190816101829190610d61565b5060a0820151816005015f6101000a81548160ff02191690831515021790555090505050505050505050565b6101b66105b6565b5f803373ffffffffffffffffffffffffffffffffffffffff1673ffffffffffffffffffffffffffffffffffffffff1681526020019081526020015f206040518060c00160405290815f8201805461020c90610b94565b80601f016020809104026020016040519081016040528092919081815260200182805461023890610b94565b80156102835780601f1061025a57610100808354040283529160200191610283565b820191905f5260205f20905b81548152906001019060200180831161026657829003601f168201915b5050505050815260200160018201548152602001600282015481526020016003820180546102b090610b94565b80601f01602080910402602001604051908101604052809291908181526020018280546102dc90610b94565b80156103275780601f106102fe57610100808354040283529160200191610327565b820191905f5260205f20905b81548152906001019060200180831161030a57829003601f168201915b5050505050815260200160048201805461034090610b94565b80601f016020809104026020016040519081016040528092919081815260200182805461036c90610b94565b80156103b75780601f1061038e576101008083540402835291602001916103b7565b820191905f5260205f20905b81548152906001019060200180831161039a57829003601f168201915b50505050508152602001600582015f9054906101000a900460ff1615151515815250509050919050565b5f602052805f5260405f205f91509050805f0180546103ff90610b94565b80601f016020809104026020016040519081016040528092919081815260200182805461042b90610b94565b80156104765780601f1061044d57610100808354040283529160200191610476565b820191905f5260205f20905b81548152906001019060200180831161045957829003601f168201915b50505050509080600101549080600201549080600301805461049790610b94565b80601f01602080910402602001604051908101604052809291908181526020018280546104c390610b94565b801561050e5780601f106104e55761010080835404028352916020019161050e565b820191905f5260205f20905b8154815290600101906020018083116104f157829003601f168201915b50505050509080600401805461052390610b94565b80601f016020809104026020016040519081016040528092919081815260200182805461054f90610b94565b801561059a5780601f106105715761010080835404028352916020019161059a565b820191905f5260205f20905b81548152906001019060200180831161057d57829003601f168201915b505050505090806005015f9054906101000a900460ff16905086565b6040518060c00160405280606081526020015f81526020015f815260200160608152602001606081526020015f151581525090565b5f604051905090565b5f80fd5b5f80fd5b5f819050919050565b61060e816105fc565b8114610618575f80fd5b50565b5f8135905061062981610605565b92915050565b5f80fd5b5f80fd5b5f601f19601f8301169050919050565b7f4e487b71000000000000000000000000000000000000000000000000000000005f52604160045260245ffd5b61067d82610637565b810181811067ffffffffffffffff8211171561069c5761069b610647565b5b80604052505050565b5f6106ae6105eb565b90506106ba8282610674565b919050565b5f67ffffffffffffffff8211156106d9576106d8610647565b5b6106e282610637565b9050602081019050919050565b828183375f83830152505050565b5f61070f61070a846106bf565b6106a5565b90508281526020810184848401111561072b5761072a610633565b5b6107368482856106ef565b509392505050565b5f82601f8301126107525761075161062f565b5b81356107628482602086016106fd565b91505092915050565b5f8115159050919050565b61077f8161076b565b8114610789575f80fd5b50565b5f8135905061079a81610776565b92915050565b5f805f805f805f60e0888a0312156107bb576107ba6105f4565b5b5f6107c88a828b0161061b565b975050602088013567ffffffffffffffff8111156107e9576107e86105f8565b5b6107f58a828b0161073e565b96505060406108068a828b0161061b565b95505060606108178a828b0161061b565b945050608088013567ffffffffffffffff811115610838576108376105f8565b5b6108448a828b0161073e565b93505060a088013567ffffffffffffffff811115610865576108646105f8565b5b6108718a828b0161073e565b92505060c06108828a828b0161078c565b91505092959891949750929550565b5f602082840312156108a6576108a56105f4565b5b5f6108b38482850161061b565b91505092915050565b5f81519050919050565b5f82825260208201905092915050565b5f5b838110156108f35780820151818401526020810190506108d8565b5f8484015250505050565b5f610908826108bc565b61091281856108c6565b93506109228185602086016108d6565b61092b81610637565b840191505092915050565b61093f816105fc565b82525050565b61094e8161076b565b82525050565b5f60c083015f8301518482035f86015261096e82826108fe565b91505060208301516109836020860182610936565b5060408301516109966040860182610936565b50606083015184820360608601526109ae82826108fe565b915050608083015184820360808601526109c882826108fe565b91505060a08301516109dd60a0860182610945565b508091505092915050565b5f6020820190508181035f830152610a008184610954565b905092915050565b5f73ffffffffffffffffffffffffffffffffffffffff82169050919050565b5f610a3182610a08565b9050919050565b610a4181610a27565b8114610a4b575f80fd5b50565b5f81359050610a5c81610a38565b92915050565b5f60208284031215610a7757610a766105f4565b5b5f610a8484828501610a4e565b91505092915050565b5f82825260208201905092915050565b5f610aa7826108bc565b610ab18185610a8d565b9350610ac18185602086016108d6565b610aca81610637565b840191505092915050565b610ade816105fc565b82525050565b610aed8161076b565b82525050565b5f60c0820190508181035f830152610b0b8189610a9d565b9050610b1a6020830188610ad5565b610b276040830187610ad5565b8181036060830152610b398186610a9d565b90508181036080830152610b4d8185610a9d565b9050610b5c60a0830184610ae4565b979650505050505050565b7f4e487b71000000000000000000000000000000000000000000000000000000005f52602260045260245ffd5b5f6002820490506001821680610bab57607f821691505b602082108103610bbe57610bbd610b67565b5b50919050565b5f819050815f5260205f209050919050565b5f6020601f8301049050919050565b5f82821b905092915050565b5f60088302610c207fffffffffffffffffffffffffffffffffffffffffffffffffffffffffffffffff82610be5565b610c2a8683610be5565b95508019841693508086168417925050509392505050565b5f819050919050565b5f610c65610c60610c5b846105fc565b610c42565b6105fc565b9050919050565b5f819050919050565b610c7e83610c4b565b610c92610c8a82610c6c565b848454610bf1565b825550505050565b5f90565b610ca6610c9a565b610cb1818484610c75565b505050565b5b81811015610cd457610cc95f82610c9e565b600181019050610cb7565b5050565b601f821115610d1957610cea81610bc4565b610cf384610bd6565b81016020851015610d02578190505b610d16610d0e85610bd6565b830182610cb6565b50505b505050565b5f82821c905092915050565b5f610d395f1984600802610d1e565b1980831691505092915050565b5f610d518383610d2a565b9150826002028217905092915050565b610d6a826108bc565b67ffffffffffffffff811115610d8357610d82610647565b5b610d8d8254610b94565b610d98828285610cd8565b5f60209050601f831160018114610dc9575f8415610db7578287015190505b610dc18582610d46565b865550610e28565b601f198416610dd786610bc4565b5f5b82811015610dfe57848901518255600182019150602085019450602081019050610dd9565b86831015610e1b5784890151610e17601f891682610d2a565b8355505b6001600288020188555050505b50505050505056fea26469706673582212208e7a75b7ff8a8ee0f2936120eecb4ebc1f41f70232b96d4fbb8c441779816ce564736f6c63430008140033",
					"opcodes": "PUSH1 0x80 PUSH1 0x40 MSTORE CALLVALUE DUP1 ISZERO PUSH2 0xF JUMPI PUSH0 DUP1 REVERT JUMPDEST POP PUSH2 0xE66 DUP1 PUSH2 0x1D PUSH0 CODECOPY PUSH0 RETURN INVALID PUSH1 0x80 PUSH1 0x40 MSTORE CALLVALUE DUP1 ISZERO PUSH2 0xF JUMPI PUSH0 DUP1 REVERT JUMPDEST POP PUSH1 0x4 CALLDATASIZE LT PUSH2 0x3F JUMPI PUSH0 CALLDATALOAD PUSH1 0xE0 SHR DUP1 PUSH4 0x2A72500A EQ PUSH2 0x43 JUMPI DUP1 PUSH4 0xA82DAB0B EQ PUSH2 0x5F JUMPI DUP1 PUSH4 0xF4A33D48 EQ PUSH2 0x8F JUMPI JUMPDEST PUSH0 DUP1 REVERT JUMPDEST PUSH2 0x5D PUSH1 0x4 DUP1 CALLDATASIZE SUB DUP2 ADD SWAP1 PUSH2 0x58 SWAP2 SWAP1 PUSH2 0x7A0 JUMP JUMPDEST PUSH2 0xC4 JUMP JUMPDEST STOP JUMPDEST PUSH2 0x79 PUSH1 0x4 DUP1 CALLDATASIZE SUB DUP2 ADD SWAP1 PUSH2 0x74 SWAP2 SWAP1 PUSH2 0x891 JUMP JUMPDEST PUSH2 0x1AE JUMP JUMPDEST PUSH1 0x40 MLOAD PUSH2 0x86 SWAP2 SWAP1 PUSH2 0x9E8 JUMP JUMPDEST PUSH1 0x40 MLOAD DUP1 SWAP2 SUB SWAP1 RETURN JUMPDEST PUSH2 0xA9 PUSH1 0x4 DUP1 CALLDATASIZE SUB DUP2 ADD SWAP1 PUSH2 0xA4 SWAP2 SWAP1 PUSH2 0xA62 JUMP JUMPDEST PUSH2 0x3E1 JUMP JUMPDEST PUSH1 0x40 MLOAD PUSH2 0xBB SWAP7 SWAP6 SWAP5 SWAP4 SWAP3 SWAP2 SWAP1 PUSH2 0xAF3 JUMP JUMPDEST PUSH1 0x40 MLOAD DUP1 SWAP2 SUB SWAP1 RETURN JUMPDEST PUSH1 0x40 MLOAD DUP1 PUSH1 0xC0 ADD PUSH1 0x40 MSTORE DUP1 DUP8 DUP2 MSTORE PUSH1 0x20 ADD DUP7 DUP2 MSTORE PUSH1 0x20 ADD DUP6 DUP2 MSTORE PUSH1 0x20 ADD DUP5 DUP2 MSTORE PUSH1 0x20 ADD DUP4 DUP2 MSTORE PUSH1 0x20 ADD DUP3 ISZERO ISZERO DUP2 MSTORE POP PUSH0 DUP1 CALLER PUSH20 0xFFFFFFFFFFFFFFFFFFFFFFFFFFFFFFFFFFFFFFFF AND PUSH20 0xFFFFFFFFFFFFFFFFFFFFFFFFFFFFFFFFFFFFFFFF AND DUP2 MSTORE PUSH1 0x20 ADD SWAP1 DUP2 MSTORE PUSH1 0x20 ADD PUSH0 KECCAK256 PUSH0 DUP3 ADD MLOAD DUP2 PUSH0 ADD SWAP1 DUP2 PUSH2 0x142 SWAP2 SWAP1 PUSH2 0xD61 JUMP JUMPDEST POP PUSH1 0x20 DUP3 ADD MLOAD DUP2 PUSH1 0x1 ADD SSTORE PUSH1 0x40 DUP3 ADD MLOAD DUP2 PUSH1 0x2 ADD SSTORE PUSH1 0x60 DUP3 ADD MLOAD DUP2 PUSH1 0x3 ADD SWAP1 DUP2 PUSH2 0x16C SWAP2 SWAP1 PUSH2 0xD61 JUMP JUMPDEST POP PUSH1 0x80 DUP3 ADD MLOAD DUP2 PUSH1 0x4 ADD SWAP1 DUP2 PUSH2 0x182 SWAP2 SWAP1 PUSH2 0xD61 JUMP JUMPDEST POP PUSH1 0xA0 DUP3 ADD MLOAD DUP2 PUSH1 0x5 ADD PUSH0 PUSH2 0x100 EXP DUP2 SLOAD DUP2 PUSH1 0xFF MUL NOT AND SWAP1 DUP4 ISZERO ISZERO MUL OR SWAP1 SSTORE POP SWAP1 POP POP POP POP POP POP POP POP POP JUMP JUMPDEST PUSH2 0x1B6 PUSH2 0x5B6 JUMP JUMPDEST PUSH0 DUP1 CALLER PUSH20 0xFFFFFFFFFFFFFFFFFFFFFFFFFFFFFFFFFFFFFFFF AND PUSH20 0xFFFFFFFFFFFFFFFFFFFFFFFFFFFFFFFFFFFFFFFF AND DUP2 MSTORE PUSH1 0x20 ADD SWAP1 DUP2 MSTORE PUSH1 0x20 ADD PUSH0 KECCAK256 PUSH1 0x40 MLOAD DUP1 PUSH1 0xC0 ADD PUSH1 0x40 MSTORE SWAP1 DUP2 PUSH0 DUP3 ADD DUP1 SLOAD PUSH2 0x20C SWAP1 PUSH2 0xB94 JUMP JUMPDEST DUP1 PUSH1 0x1F ADD PUSH1 0x20 DUP1 SWAP2 DIV MUL PUSH1 0x20 ADD PUSH1 0x40 MLOAD SWAP1 DUP2 ADD PUSH1 0x40 MSTORE DUP1 SWAP3 SWAP2 SWAP1 DUP2 DUP2 MSTORE PUSH1 0x20 ADD DUP3 DUP1 SLOAD PUSH2 0x238 SWAP1 PUSH2 0xB94 JUMP JUMPDEST DUP1 ISZERO PUSH2 0x283 JUMPI DUP1 PUSH1 0x1F LT PUSH2 0x25A JUMPI PUSH2 0x100 DUP1 DUP4 SLOAD DIV MUL DUP4 MSTORE SWAP2 PUSH1 0x20 ADD SWAP2 PUSH2 0x283 JUMP JUMPDEST DUP3 ADD SWAP2 SWAP1 PUSH0 MSTORE PUSH1 0x20 PUSH0 KECCAK256 SWAP1 JUMPDEST DUP2 SLOAD DUP2 MSTORE SWAP1 PUSH1 0x1 ADD SWAP1 PUSH1 0x20 ADD DUP1 DUP4 GT PUSH2 0x266 JUMPI DUP3 SWAP1 SUB PUSH1 0x1F AND DUP3 ADD SWAP2 JUMPDEST POP POP POP POP POP DUP2 MSTORE PUSH1 0x20 ADD PUSH1 0x1 DUP3 ADD SLOAD DUP2 MSTORE PUSH1 0x20 ADD PUSH1 0x2 DUP3 ADD SLOAD DUP2 MSTORE PUSH1 0x20 ADD PUSH1 0x3 DUP3 ADD DUP1 SLOAD PUSH2 0x2B0 SWAP1 PUSH2 0xB94 JUMP JUMPDEST DUP1 PUSH1 0x1F ADD PUSH1 0x20 DUP1 SWAP2 DIV MUL PUSH1 0x20 ADD PUSH1 0x40 MLOAD SWAP1 DUP2 ADD PUSH1 0x40 MSTORE DUP1 SWAP3 SWAP2 SWAP1 DUP2 DUP2 MSTORE PUSH1 0x20 ADD DUP3 DUP1 SLOAD PUSH2 0x2DC SWAP1 PUSH2 0xB94 JUMP JUMPDEST DUP1 ISZERO PUSH2 0x327 JUMPI DUP1 PUSH1 0x1F LT PUSH2 0x2FE JUMPI PUSH2 0x100 DUP1 DUP4 SLOAD DIV MUL DUP4 MSTORE SWAP2 PUSH1 0x20 ADD SWAP2 PUSH2 0x327 JUMP JUMPDEST DUP3 ADD SWAP2 SWAP1 PUSH0 MSTORE PUSH1 0x20 PUSH0 KECCAK256 SWAP1 JUMPDEST DUP2 SLOAD DUP2 MSTORE SWAP1 PUSH1 0x1 ADD SWAP1 PUSH1 0x20 ADD DUP1 DUP4 GT PUSH2 0x30A JUMPI DUP3 SWAP1 SUB PUSH1 0x1F AND DUP3 ADD SWAP2 JUMPDEST POP POP POP POP POP DUP2 MSTORE PUSH1 0x20 ADD PUSH1 0x4 DUP3 ADD DUP1 SLOAD PUSH2 0x340 SWAP1 PUSH2 0xB94 JUMP JUMPDEST DUP1 PUSH1 0x1F ADD PUSH1 0x20 DUP1 SWAP2 DIV MUL PUSH1 0x20 ADD PUSH1 0x40 MLOAD SWAP1 DUP2 ADD PUSH1 0x40 MSTORE DUP1 SWAP3 SWAP2 SWAP1 DUP2 DUP2 MSTORE PUSH1 0x20 ADD DUP3 DUP1 SLOAD PUSH2 0x36C SWAP1 PUSH2 0xB94 JUMP JUMPDEST DUP1 ISZERO PUSH2 0x3B7 JUMPI DUP1 PUSH1 0x1F LT PUSH2 0x38E JUMPI PUSH2 0x100 DUP1 DUP4 SLOAD DIV MUL DUP4 MSTORE SWAP2 PUSH1 0x20 ADD SWAP2 PUSH2 0x3B7 JUMP JUMPDEST DUP3 ADD SWAP2 SWAP1 PUSH0 MSTORE PUSH1 0x20 PUSH0 KECCAK256 SWAP1 JUMPDEST DUP2 SLOAD DUP2 MSTORE SWAP1 PUSH1 0x1 ADD SWAP1 PUSH1 0x20 ADD DUP1 DUP4 GT PUSH2 0x39A JUMPI DUP3 SWAP1 SUB PUSH1 0x1F AND DUP3 ADD SWAP2 JUMPDEST POP POP POP POP POP DUP2 MSTORE PUSH1 0x20 ADD PUSH1 0x5 DUP3 ADD PUSH0 SWAP1 SLOAD SWAP1 PUSH2 0x100 EXP SWAP1 DIV PUSH1 0xFF AND ISZERO ISZERO ISZERO ISZERO DUP2 MSTORE POP POP SWAP1 POP SWAP2 SWAP1 POP JUMP JUMPDEST PUSH0 PUSH1 0x20 MSTORE DUP1 PUSH0 MSTORE PUSH1 0x40 PUSH0 KECCAK256 PUSH0 SWAP2 POP SWAP1 POP DUP1 PUSH0 ADD DUP1 SLOAD PUSH2 0x3FF SWAP1 PUSH2 0xB94 JUMP JUMPDEST DUP1 PUSH1 0x1F ADD PUSH1 0x20 DUP1 SWAP2 DIV MUL PUSH1 0x20 ADD PUSH1 0x40 MLOAD SWAP1 DUP2 ADD PUSH1 0x40 MSTORE DUP1 SWAP3 SWAP2 SWAP1 DUP2 DUP2 MSTORE PUSH1 0x20 ADD DUP3 DUP1 SLOAD PUSH2 0x42B SWAP1 PUSH2 0xB94 JUMP JUMPDEST DUP1 ISZERO PUSH2 0x476 JUMPI DUP1 PUSH1 0x1F LT PUSH2 0x44D JUMPI PUSH2 0x100 DUP1 DUP4 SLOAD DIV MUL DUP4 MSTORE SWAP2 PUSH1 0x20 ADD SWAP2 PUSH2 0x476 JUMP JUMPDEST DUP3 ADD SWAP2 SWAP1 PUSH0 MSTORE PUSH1 0x20 PUSH0 KECCAK256 SWAP1 JUMPDEST DUP2 SLOAD DUP2 MSTORE SWAP1 PUSH1 0x1 ADD SWAP1 PUSH1 0x20 ADD DUP1 DUP4 GT PUSH2 0x459 JUMPI DUP3 SWAP1 SUB PUSH1 0x1F AND DUP3 ADD SWAP2 JUMPDEST POP POP POP POP POP SWAP1 DUP1 PUSH1 0x1 ADD SLOAD SWAP1 DUP1 PUSH1 0x2 ADD SLOAD SWAP1 DUP1 PUSH1 0x3 ADD DUP1 SLOAD PUSH2 0x497 SWAP1 PUSH2 0xB94 JUMP JUMPDEST DUP1 PUSH1 0x1F ADD PUSH1 0x20 DUP1 SWAP2 DIV MUL PUSH1 0x20 ADD PUSH1 0x40 MLOAD SWAP1 DUP2 ADD PUSH1 0x40 MSTORE DUP1 SWAP3 SWAP2 SWAP1 DUP2 DUP2 MSTORE PUSH1 0x20 ADD DUP3 DUP1 SLOAD PUSH2 0x4C3 SWAP1 PUSH2 0xB94 JUMP JUMPDEST DUP1 ISZERO PUSH2 0x50E JUMPI DUP1 PUSH1 0x1F LT PUSH2 0x4E5 JUMPI PUSH2 0x100 DUP1 DUP4 SLOAD DIV MUL DUP4 MSTORE SWAP2 PUSH1 0x20 ADD SWAP2 PUSH2 0x50E JUMP JUMPDEST DUP3 ADD SWAP2 SWAP1 PUSH0 MSTORE PUSH1 0x20 PUSH0 KECCAK256 SWAP1 JUMPDEST DUP2 SLOAD DUP2 MSTORE SWAP1 PUSH1 0x1 ADD SWAP1 PUSH1 0x20 ADD DUP1 DUP4 GT PUSH2 0x4F1 JUMPI DUP3 SWAP1 SUB PUSH1 0x1F AND DUP3 ADD SWAP2 JUMPDEST POP POP POP POP POP SWAP1 DUP1 PUSH1 0x4 ADD DUP1 SLOAD PUSH2 0x523 SWAP1 PUSH2 0xB94 JUMP JUMPDEST DUP1 PUSH1 0x1F ADD PUSH1 0x20 DUP1 SWAP2 DIV MUL PUSH1 0x20 ADD PUSH1 0x40 MLOAD SWAP1 DUP2 ADD PUSH1 0x40 MSTORE DUP1 SWAP3 SWAP2 SWAP1 DUP2 DUP2 MSTORE PUSH1 0x20 ADD DUP3 DUP1 SLOAD PUSH2 0x54F SWAP1 PUSH2 0xB94 JUMP JUMPDEST DUP1 ISZERO PUSH2 0x59A JUMPI DUP1 PUSH1 0x1F LT PUSH2 0x571 JUMPI PUSH2 0x100 DUP1 DUP4 SLOAD DIV MUL DUP4 MSTORE SWAP2 PUSH1 0x20 ADD SWAP2 PUSH2 0x59A JUMP JUMPDEST DUP3 ADD SWAP2 SWAP1 PUSH0 MSTORE PUSH1 0x20 PUSH0 KECCAK256 SWAP1 JUMPDEST DUP2 SLOAD DUP2 MSTORE SWAP1 PUSH1 0x1 ADD SWAP1 PUSH1 0x20 ADD DUP1 DUP4 GT PUSH2 0x57D JUMPI DUP3 SWAP1 SUB PUSH1 0x1F AND DUP3 ADD SWAP2 JUMPDEST POP POP POP POP POP SWAP1 DUP1 PUSH1 0x5 ADD PUSH0 SWAP1 SLOAD SWAP1 PUSH2 0x100 EXP SWAP1 DIV PUSH1 0xFF AND SWAP1 POP DUP7 JUMP JUMPDEST PUSH1 0x40 MLOAD DUP1 PUSH1 0xC0 ADD PUSH1 0x40 MSTORE DUP1 PUSH1 0x60 DUP2 MSTORE PUSH1 0x20 ADD PUSH0 DUP2 MSTORE PUSH1 0x20 ADD PUSH0 DUP2 MSTORE PUSH1 0x20 ADD PUSH1 0x60 DUP2 MSTORE PUSH1 0x20 ADD PUSH1 0x60 DUP2 MSTORE PUSH1 0x20 ADD PUSH0 ISZERO ISZERO DUP2 MSTORE POP SWAP1 JUMP JUMPDEST PUSH0 PUSH1 0x40 MLOAD SWAP1 POP SWAP1 JUMP JUMPDEST PUSH0 DUP1 REVERT JUMPDEST PUSH0 DUP1 REVERT JUMPDEST PUSH0 DUP2 SWAP1 POP SWAP2 SWAP1 POP JUMP JUMPDEST PUSH2 0x60E DUP2 PUSH2 0x5FC JUMP JUMPDEST DUP2 EQ PUSH2 0x618 JUMPI PUSH0 DUP1 REVERT JUMPDEST POP JUMP JUMPDEST PUSH0 DUP2 CALLDATALOAD SWAP1 POP PUSH2 0x629 DUP2 PUSH2 0x605 JUMP JUMPDEST SWAP3 SWAP2 POP POP JUMP JUMPDEST PUSH0 DUP1 REVERT JUMPDEST PUSH0 DUP1 REVERT JUMPDEST PUSH0 PUSH1 0x1F NOT PUSH1 0x1F DUP4 ADD AND SWAP1 POP SWAP2 SWAP1 POP JUMP JUMPDEST PUSH32 0x4E487B7100000000000000000000000000000000000000000000000000000000 PUSH0 MSTORE PUSH1 0x41 PUSH1 0x4 MSTORE PUSH1 0x24 PUSH0 REVERT JUMPDEST PUSH2 0x67D DUP3 PUSH2 0x637 JUMP JUMPDEST DUP2 ADD DUP2 DUP2 LT PUSH8 0xFFFFFFFFFFFFFFFF DUP3 GT OR ISZERO PUSH2 0x69C JUMPI PUSH2 0x69B PUSH2 0x647 JUMP JUMPDEST JUMPDEST DUP1 PUSH1 0x40 MSTORE POP POP POP JUMP JUMPDEST PUSH0 PUSH2 0x6AE PUSH2 0x5EB JUMP JUMPDEST SWAP1 POP PUSH2 0x6BA DUP3 DUP3 PUSH2 0x674 JUMP JUMPDEST SWAP2 SWAP1 POP JUMP JUMPDEST PUSH0 PUSH8 0xFFFFFFFFFFFFFFFF DUP3 GT ISZERO PUSH2 0x6D9 JUMPI PUSH2 0x6D8 PUSH2 0x647 JUMP JUMPDEST JUMPDEST PUSH2 0x6E2 DUP3 PUSH2 0x637 JUMP JUMPDEST SWAP1 POP PUSH1 0x20 DUP2 ADD SWAP1 POP SWAP2 SWAP1 POP JUMP JUMPDEST DUP3 DUP2 DUP4 CALLDATACOPY PUSH0 DUP4 DUP4 ADD MSTORE POP POP POP JUMP JUMPDEST PUSH0 PUSH2 0x70F PUSH2 0x70A DUP5 PUSH2 0x6BF JUMP JUMPDEST PUSH2 0x6A5 JUMP JUMPDEST SWAP1 POP DUP3 DUP2 MSTORE PUSH1 0x20 DUP2 ADD DUP5 DUP5 DUP5 ADD GT ISZERO PUSH2 0x72B JUMPI PUSH2 0x72A PUSH2 0x633 JUMP JUMPDEST JUMPDEST PUSH2 0x736 DUP5 DUP3 DUP6 PUSH2 0x6EF JUMP JUMPDEST POP SWAP4 SWAP3 POP POP POP JUMP JUMPDEST PUSH0 DUP3 PUSH1 0x1F DUP4 ADD SLT PUSH2 0x752 JUMPI PUSH2 0x751 PUSH2 0x62F JUMP JUMPDEST JUMPDEST DUP2 CALLDATALOAD PUSH2 0x762 DUP5 DUP3 PUSH1 0x20 DUP7 ADD PUSH2 0x6FD JUMP JUMPDEST SWAP2 POP POP SWAP3 SWAP2 POP POP JUMP JUMPDEST PUSH0 DUP2 ISZERO ISZERO SWAP1 POP SWAP2 SWAP1 POP JUMP JUMPDEST PUSH2 0x77F DUP2 PUSH2 0x76B JUMP JUMPDEST DUP2 EQ PUSH2 0x789 JUMPI PUSH0 DUP1 REVERT JUMPDEST POP JUMP JUMPDEST PUSH0 DUP2 CALLDATALOAD SWAP1 POP PUSH2 0x79A DUP2 PUSH2 0x776 JUMP JUMPDEST SWAP3 SWAP2 POP POP JUMP JUMPDEST PUSH0 DUP1 PUSH0 DUP1 PUSH0 DUP1 PUSH0 PUSH1 0xE0 DUP9 DUP11 SUB SLT ISZERO PUSH2 0x7BB JUMPI PUSH2 0x7BA PUSH2 0x5F4 JUMP JUMPDEST JUMPDEST PUSH0 PUSH2 0x7C8 DUP11 DUP3 DUP12 ADD PUSH2 0x61B JUMP JUMPDEST SWAP8 POP POP PUSH1 0x20 DUP9 ADD CALLDATALOAD PUSH8 0xFFFFFFFFFFFFFFFF DUP2 GT ISZERO PUSH2 0x7E9 JUMPI PUSH2 0x7E8 PUSH2 0x5F8 JUMP JUMPDEST JUMPDEST PUSH2 0x7F5 DUP11 DUP3 DUP12 ADD PUSH2 0x73E JUMP JUMPDEST SWAP7 POP POP PUSH1 0x40 PUSH2 0x806 DUP11 DUP3 DUP12 ADD PUSH2 0x61B JUMP JUMPDEST SWAP6 POP POP PUSH1 0x60 PUSH2 0x817 DUP11 DUP3 DUP12 ADD PUSH2 0x61B JUMP JUMPDEST SWAP5 POP POP PUSH1 0x80 DUP9 ADD CALLDATALOAD PUSH8 0xFFFFFFFFFFFFFFFF DUP2 GT ISZERO PUSH2 0x838 JUMPI PUSH2 0x837 PUSH2 0x5F8 JUMP JUMPDEST JUMPDEST PUSH2 0x844 DUP11 DUP3 DUP12 ADD PUSH2 0x73E JUMP JUMPDEST SWAP4 POP POP PUSH1 0xA0 DUP9 ADD CALLDATALOAD PUSH8 0xFFFFFFFFFFFFFFFF DUP2 GT ISZERO PUSH2 0x865 JUMPI PUSH2 0x864 PUSH2 0x5F8 JUMP JUMPDEST JUMPDEST PUSH2 0x871 DUP11 DUP3 DUP12 ADD PUSH2 0x73E JUMP JUMPDEST SWAP3 POP POP PUSH1 0xC0 PUSH2 0x882 DUP11 DUP3 DUP12 ADD PUSH2 0x78C JUMP JUMPDEST SWAP2 POP POP SWAP3 SWAP6 SWAP9 SWAP2 SWAP5 SWAP8 POP SWAP3 SWAP6 POP JUMP JUMPDEST PUSH0 PUSH1 0x20 DUP3 DUP5 SUB SLT ISZERO PUSH2 0x8A6 JUMPI PUSH2 0x8A5 PUSH2 0x5F4 JUMP JUMPDEST JUMPDEST PUSH0 PUSH2 0x8B3 DUP5 DUP3 DUP6 ADD PUSH2 0x61B JUMP JUMPDEST SWAP2 POP POP SWAP3 SWAP2 POP POP JUMP JUMPDEST PUSH0 DUP2 MLOAD SWAP1 POP SWAP2 SWAP1 POP JUMP JUMPDEST PUSH0 DUP3 DUP3 MSTORE PUSH1 0x20 DUP3 ADD SWAP1 POP SWAP3 SWAP2 POP POP JUMP JUMPDEST PUSH0 JUMPDEST DUP4 DUP2 LT ISZERO PUSH2 0x8F3 JUMPI DUP1 DUP3 ADD MLOAD DUP2 DUP5 ADD MSTORE PUSH1 0x20 DUP2 ADD SWAP1 POP PUSH2 0x8D8 JUMP JUMPDEST PUSH0 DUP5 DUP5 ADD MSTORE POP POP POP POP JUMP JUMPDEST PUSH0 PUSH2 0x908 DUP3 PUSH2 0x8BC JUMP JUMPDEST PUSH2 0x912 DUP2 DUP6 PUSH2 0x8C6 JUMP JUMPDEST SWAP4 POP PUSH2 0x922 DUP2 DUP6 PUSH1 0x20 DUP7 ADD PUSH2 0x8D6 JUMP JUMPDEST PUSH2 0x92B DUP2 PUSH2 0x637 JUMP JUMPDEST DUP5 ADD SWAP2 POP POP SWAP3 SWAP2 POP POP JUMP JUMPDEST PUSH2 0x93F DUP2 PUSH2 0x5FC JUMP JUMPDEST DUP3 MSTORE POP POP JUMP JUMPDEST PUSH2 0x94E DUP2 PUSH2 0x76B JUMP JUMPDEST DUP3 MSTORE POP POP JUMP JUMPDEST PUSH0 PUSH1 0xC0 DUP4 ADD PUSH0 DUP4 ADD MLOAD DUP5 DUP3 SUB PUSH0 DUP7 ADD MSTORE PUSH2 0x96E DUP3 DUP3 PUSH2 0x8FE JUMP JUMPDEST SWAP2 POP POP PUSH1 0x20 DUP4 ADD MLOAD PUSH2 0x983 PUSH1 0x20 DUP7 ADD DUP3 PUSH2 0x936 JUMP JUMPDEST POP PUSH1 0x40 DUP4 ADD MLOAD PUSH2 0x996 PUSH1 0x40 DUP7 ADD DUP3 PUSH2 0x936 JUMP JUMPDEST POP PUSH1 0x60 DUP4 ADD MLOAD DUP5 DUP3 SUB PUSH1 0x60 DUP7 ADD MSTORE PUSH2 0x9AE DUP3 DUP3 PUSH2 0x8FE JUMP JUMPDEST SWAP2 POP POP PUSH1 0x80 DUP4 ADD MLOAD DUP5 DUP3 SUB PUSH1 0x80 DUP7 ADD MSTORE PUSH2 0x9C8 DUP3 DUP3 PUSH2 0x8FE JUMP JUMPDEST SWAP2 POP POP PUSH1 0xA0 DUP4 ADD MLOAD PUSH2 0x9DD PUSH1 0xA0 DUP7 ADD DUP3 PUSH2 0x945 JUMP JUMPDEST POP DUP1 SWAP2 POP POP SWAP3 SWAP2 POP POP JUMP JUMPDEST PUSH0 PUSH1 0x20 DUP3 ADD SWAP1 POP DUP2 DUP2 SUB PUSH0 DUP4 ADD MSTORE PUSH2 0xA00 DUP2 DUP5 PUSH2 0x954 JUMP JUMPDEST SWAP1 POP SWAP3 SWAP2 POP POP JUMP JUMPDEST PUSH0 PUSH20 0xFFFFFFFFFFFFFFFFFFFFFFFFFFFFFFFFFFFFFFFF DUP3 AND SWAP1 POP SWAP2 SWAP1 POP JUMP JUMPDEST PUSH0 PUSH2 0xA31 DUP3 PUSH2 0xA08 JUMP JUMPDEST SWAP1 POP SWAP2 SWAP1 POP JUMP JUMPDEST PUSH2 0xA41 DUP2 PUSH2 0xA27 JUMP JUMPDEST DUP2 EQ PUSH2 0xA4B JUMPI PUSH0 DUP1 REVERT JUMPDEST POP JUMP JUMPDEST PUSH0 DUP2 CALLDATALOAD SWAP1 POP PUSH2 0xA5C DUP2 PUSH2 0xA38 JUMP JUMPDEST SWAP3 SWAP2 POP POP JUMP JUMPDEST PUSH0 PUSH1 0x20 DUP3 DUP5 SUB SLT ISZERO PUSH2 0xA77 JUMPI PUSH2 0xA76 PUSH2 0x5F4 JUMP JUMPDEST JUMPDEST PUSH0 PUSH2 0xA84 DUP5 DUP3 DUP6 ADD PUSH2 0xA4E JUMP JUMPDEST SWAP2 POP POP SWAP3 SWAP2 POP POP JUMP JUMPDEST PUSH0 DUP3 DUP3 MSTORE PUSH1 0x20 DUP3 ADD SWAP1 POP SWAP3 SWAP2 POP POP JUMP JUMPDEST PUSH0 PUSH2 0xAA7 DUP3 PUSH2 0x8BC JUMP JUMPDEST PUSH2 0xAB1 DUP2 DUP6 PUSH2 0xA8D JUMP JUMPDEST SWAP4 POP PUSH2 0xAC1 DUP2 DUP6 PUSH1 0x20 DUP7 ADD PUSH2 0x8D6 JUMP JUMPDEST PUSH2 0xACA DUP2 PUSH2 0x637 JUMP JUMPDEST DUP5 ADD SWAP2 POP POP SWAP3 SWAP2 POP POP JUMP JUMPDEST PUSH2 0xADE DUP2 PUSH2 0x5FC JUMP JUMPDEST DUP3 MSTORE POP POP JUMP JUMPDEST PUSH2 0xAED DUP2 PUSH2 0x76B JUMP JUMPDEST DUP3 MSTORE POP POP JUMP JUMPDEST PUSH0 PUSH1 0xC0 DUP3 ADD SWAP1 POP DUP2 DUP2 SUB PUSH0 DUP4 ADD MSTORE PUSH2 0xB0B DUP2 DUP10 PUSH2 0xA9D JUMP JUMPDEST SWAP1 POP PUSH2 0xB1A PUSH1 0x20 DUP4 ADD DUP9 PUSH2 0xAD5 JUMP JUMPDEST PUSH2 0xB27 PUSH1 0x40 DUP4 ADD DUP8 PUSH2 0xAD5 JUMP JUMPDEST DUP2 DUP2 SUB PUSH1 0x60 DUP4 ADD MSTORE PUSH2 0xB39 DUP2 DUP7 PUSH2 0xA9D JUMP JUMPDEST SWAP1 POP DUP2 DUP2 SUB PUSH1 0x80 DUP4 ADD MSTORE PUSH2 0xB4D DUP2 DUP6 PUSH2 0xA9D JUMP JUMPDEST SWAP1 POP PUSH2 0xB5C PUSH1 0xA0 DUP4 ADD DUP5 PUSH2 0xAE4 JUMP JUMPDEST SWAP8 SWAP7 POP POP POP POP POP POP POP JUMP JUMPDEST PUSH32 0x4E487B7100000000000000000000000000000000000000000000000000000000 PUSH0 MSTORE PUSH1 0x22 PUSH1 0x4 MSTORE PUSH1 0x24 PUSH0 REVERT JUMPDEST PUSH0 PUSH1 0x2 DUP3 DIV SWAP1 POP PUSH1 0x1 DUP3 AND DUP1 PUSH2 0xBAB JUMPI PUSH1 0x7F DUP3 AND SWAP2 POP JUMPDEST PUSH1 0x20 DUP3 LT DUP2 SUB PUSH2 0xBBE JUMPI PUSH2 0xBBD PUSH2 0xB67 JUMP JUMPDEST JUMPDEST POP SWAP2 SWAP1 POP JUMP JUMPDEST PUSH0 DUP2 SWAP1 POP DUP2 PUSH0 MSTORE PUSH1 0x20 PUSH0 KECCAK256 SWAP1 POP SWAP2 SWAP1 POP JUMP JUMPDEST PUSH0 PUSH1 0x20 PUSH1 0x1F DUP4 ADD DIV SWAP1 POP SWAP2 SWAP1 POP JUMP JUMPDEST PUSH0 DUP3 DUP3 SHL SWAP1 POP SWAP3 SWAP2 POP POP JUMP JUMPDEST PUSH0 PUSH1 0x8 DUP4 MUL PUSH2 0xC20 PUSH32 0xFFFFFFFFFFFFFFFFFFFFFFFFFFFFFFFFFFFFFFFFFFFFFFFFFFFFFFFFFFFFFFFF DUP3 PUSH2 0xBE5 JUMP JUMPDEST PUSH2 0xC2A DUP7 DUP4 PUSH2 0xBE5 JUMP JUMPDEST SWAP6 POP DUP1 NOT DUP5 AND SWAP4 POP DUP1 DUP7 AND DUP5 OR SWAP3 POP POP POP SWAP4 SWAP3 POP POP POP JUMP JUMPDEST PUSH0 DUP2 SWAP1 POP SWAP2 SWAP1 POP JUMP JUMPDEST PUSH0 PUSH2 0xC65 PUSH2 0xC60 PUSH2 0xC5B DUP5 PUSH2 0x5FC JUMP JUMPDEST PUSH2 0xC42 JUMP JUMPDEST PUSH2 0x5FC JUMP JUMPDEST SWAP1 POP SWAP2 SWAP1 POP JUMP JUMPDEST PUSH0 DUP2 SWAP1 POP SWAP2 SWAP1 POP JUMP JUMPDEST PUSH2 0xC7E DUP4 PUSH2 0xC4B JUMP JUMPDEST PUSH2 0xC92 PUSH2 0xC8A DUP3 PUSH2 0xC6C JUMP JUMPDEST DUP5 DUP5 SLOAD PUSH2 0xBF1 JUMP JUMPDEST DUP3 SSTORE POP POP POP POP JUMP JUMPDEST PUSH0 SWAP1 JUMP JUMPDEST PUSH2 0xCA6 PUSH2 0xC9A JUMP JUMPDEST PUSH2 0xCB1 DUP2 DUP5 DUP5 PUSH2 0xC75 JUMP JUMPDEST POP POP POP JUMP JUMPDEST JUMPDEST DUP2 DUP2 LT ISZERO PUSH2 0xCD4 JUMPI PUSH2 0xCC9 PUSH0 DUP3 PUSH2 0xC9E JUMP JUMPDEST PUSH1 0x1 DUP2 ADD SWAP1 POP PUSH2 0xCB7 JUMP JUMPDEST POP POP JUMP JUMPDEST PUSH1 0x1F DUP3 GT ISZERO PUSH2 0xD19 JUMPI PUSH2 0xCEA DUP2 PUSH2 0xBC4 JUMP JUMPDEST PUSH2 0xCF3 DUP5 PUSH2 0xBD6 JUMP JUMPDEST DUP2 ADD PUSH1 0x20 DUP6 LT ISZERO PUSH2 0xD02 JUMPI DUP2 SWAP1 POP JUMPDEST PUSH2 0xD16 PUSH2 0xD0E DUP6 PUSH2 0xBD6 JUMP JUMPDEST DUP4 ADD DUP3 PUSH2 0xCB6 JUMP JUMPDEST POP POP JUMPDEST POP POP POP JUMP JUMPDEST PUSH0 DUP3 DUP3 SHR SWAP1 POP SWAP3 SWAP2 POP POP JUMP JUMPDEST PUSH0 PUSH2 0xD39 PUSH0 NOT DUP5 PUSH1 0x8 MUL PUSH2 0xD1E JUMP JUMPDEST NOT DUP1 DUP4 AND SWAP2 POP POP SWAP3 SWAP2 POP POP JUMP JUMPDEST PUSH0 PUSH2 0xD51 DUP4 DUP4 PUSH2 0xD2A JUMP JUMPDEST SWAP2 POP DUP3 PUSH1 0x2 MUL DUP3 OR SWAP1 POP SWAP3 SWAP2 POP POP JUMP JUMPDEST PUSH2 0xD6A DUP3 PUSH2 0x8BC JUMP JUMPDEST PUSH8 0xFFFFFFFFFFFFFFFF DUP2 GT ISZERO PUSH2 0xD83 JUMPI PUSH2 0xD82 PUSH2 0x647 JUMP JUMPDEST JUMPDEST PUSH2 0xD8D DUP3 SLOAD PUSH2 0xB94 JUMP JUMPDEST PUSH2 0xD98 DUP3 DUP3 DUP6 PUSH2 0xCD8 JUMP JUMPDEST PUSH0 PUSH1 0x20 SWAP1 POP PUSH1 0x1F DUP4 GT PUSH1 0x1 DUP2 EQ PUSH2 0xDC9 JUMPI PUSH0 DUP5 ISZERO PUSH2 0xDB7 JUMPI DUP3 DUP8 ADD MLOAD SWAP1 POP JUMPDEST PUSH2 0xDC1 DUP6 DUP3 PUSH2 0xD46 JUMP JUMPDEST DUP7 SSTORE POP PUSH2 0xE28 JUMP JUMPDEST PUSH1 0x1F NOT DUP5 AND PUSH2 0xDD7 DUP7 PUSH2 0xBC4 JUMP JUMPDEST PUSH0 JUMPDEST DUP3 DUP2 LT ISZERO PUSH2 0xDFE JUMPI DUP5 DUP10 ADD MLOAD DUP3 SSTORE PUSH1 0x1 DUP3 ADD SWAP2 POP PUSH1 0x20 DUP6 ADD SWAP5 POP PUSH1 0x20 DUP2 ADD SWAP1 POP PUSH2 0xDD9 JUMP JUMPDEST DUP7 DUP4 LT ISZERO PUSH2 0xE1B JUMPI DUP5 DUP10 ADD MLOAD PUSH2 0xE17 PUSH1 0x1F DUP10 AND DUP3 PUSH2 0xD2A JUMP JUMPDEST DUP4 SSTORE POP JUMPDEST PUSH1 0x1 PUSH1 0x2 DUP9 MUL ADD DUP9 SSTORE POP POP POP JUMPDEST POP POP POP POP POP POP JUMP INVALID LOG2 PUSH5 0x6970667358 0x22 SLT KECCAK256 DUP15 PUSH27 0x75B7FF8A8EE0F2936120EECB4EBC1F41F70232B96D4FBB8C441779 DUP2 PUSH13 0xE564736F6C6343000814003300 "
				},
				"gasEstimates": {
					"creation": {
						"codeDepositCost": "737200",
						"executionCost": "771",
						"totalCost": "737971"
					},
					"external": {
						"SLParticipant(address)": "infinite",
						"addParticipant(uint256,string,uint256,uint256,string,string,bool)": "infinite",
						"getparticipant(uint256)": "infinite"
					}
				},
				"methodIdentifiers": {
					"SLParticipant(address)": "f4a33d48",
					"addParticipant(uint256,string,uint256,uint256,string,string,bool)": "2a72500a",
					"getparticipant(uint256)": "a82dab0b"
				}
			},
			"storageLayout": {
				"storage": [
					{
						"astId": 19,
						"contract": "contracts/mappingexerciseMessageSender.sol:test",
						"label": "SLParticipant",
						"offset": 0,
						"slot": "0",
						"type": "t_mapping(t_address,t_struct(Participant)14_storage)"
					}
				],
				"types": {
					"t_address": {
						"encoding": "inplace",
						"label": "address",
						"numberOfBytes": "20"
					},
					"t_bool": {
						"encoding": "inplace",
						"label": "bool",
						"numberOfBytes": "1"
					},
					"t_mapping(t_address,t_struct(Participant)14_storage)": {
						"encoding": "mapping",
						"key": "t_address",
						"label": "mapping(address => struct test.Participant)",
						"numberOfBytes": "32",
						"value": "t_struct(Participant)14_storage"
					},
					"t_string_storage": {
						"encoding": "bytes",
						"label": "string",
						"numberOfBytes": "32"
					},
					"t_struct(Participant)14_storage": {
						"encoding": "inplace",
						"label": "struct test.Participant",
						"members": [
							{
								"astId": 3,
								"contract": "contracts/mappingexerciseMessageSender.sol:test",
								"label": "Pname",
								"offset": 0,
								"slot": "0",
								"type": "t_string_storage"
							},
							{
								"astId": 5,
								"contract": "contracts/mappingexerciseMessageSender.sol:test",
								"label": "Page",
								"offset": 0,
								"slot": "1",
								"type": "t_uint256"
							},
							{
								"astId": 7,
								"contract": "contracts/mappingexerciseMessageSender.sol:test",
								"label": "PphoneNo",
								"offset": 0,
								"slot": "2",
								"type": "t_uint256"
							},
							{
								"astId": 9,
								"contract": "contracts/mappingexerciseMessageSender.sol:test",
								"label": "Pemail",
								"offset": 0,
								"slot": "3",
								"type": "t_string_storage"
							},
							{
								"astId": 11,
								"contract": "contracts/mappingexerciseMessageSender.sol:test",
								"label": "courseEnrolled",
								"offset": 0,
								"slot": "4",
								"type": "t_string_storage"
							},
							{
								"astId": 13,
								"contract": "contracts/mappingexerciseMessageSender.sol:test",
								"label": "feePaid",
								"offset": 0,
								"slot": "5",
								"type": "t_bool"
							}
						],
						"numberOfBytes": "192"
					},
					"t_uint256": {
						"encoding": "inplace",
						"label": "uint256",
						"numberOfBytes": "32"
					}
				}
			},
			"userdoc": {
				"kind": "user",
				"methods": {},
				"version": 1
			}
		}
	}
}