{
	"contracts/First.sol": {
		"addittion": {
			"abi": [
				{
					"inputs": [],
					"name": "a",
					"outputs": [
						{
							"internalType": "int256",
							"name": "",
							"type": "int256"
						}
					],
					"stateMutability": "view",
					"type": "function"
				},
				{
					"inputs": [],
					"name": "b",
					"outputs": [
						{
							"internalType": "int256",
							"name": "",
							"type": "int256"
						}
					],
					"stateMutability": "view",
					"type": "function"
				},
				{
					"inputs": [],
					"name": "b1",
					"outputs": [
						{
							"internalType": "bytes1",
							"name": "",
							"type": "bytes1"
						}
					],
					"stateMutability": "view",
					"type": "function"
				},
				{
					"inputs": [],
					"name": "b2",
					"outputs": [
						{
							"internalType": "bytes2",
							"name": "",
							"type": "bytes2"
						}
					],
					"stateMutability": "view",
					"type": "function"
				},
				{
					"inputs": [],
					"name": "b3",
					"outputs": [
						{
							"internalType": "bytes3",
							"name": "",
							"type": "bytes3"
						}
					],
					"stateMutability": "view",
					"type": "function"
				},
				{
					"inputs": [],
					"name": "b4",
					"outputs": [
						{
							"internalType": "bytes4",
							"name": "",
							"type": "bytes4"
						}
					],
					"stateMutability": "view",
					"type": "function"
				},
				{
					"inputs": [],
					"name": "b5",
					"outputs": [
						{
							"internalType": "bytes5",
							"name": "",
							"type": "bytes5"
						}
					],
					"stateMutability": "view",
					"type": "function"
				},
				{
					"inputs": [
						{
							"internalType": "uint256",
							"name": "",
							"type": "uint256"
						}
					],
					"name": "b6",
					"outputs": [
						{
							"internalType": "bytes",
							"name": "",
							"type": "bytes"
						}
					],
					"stateMutability": "view",
					"type": "function"
				},
				{
					"inputs": [],
					"name": "c",
					"outputs": [
						{
							"internalType": "int256",
							"name": "",
							"type": "int256"
						}
					],
					"stateMutability": "view",
					"type": "function"
				},
				{
					"inputs": [],
					"name": "d",
					"outputs": [
						{
							"internalType": "int8",
							"name": "",
							"type": "int8"
						}
					],
					"stateMutability": "view",
					"type": "function"
				},
				{
					"inputs": [],
					"name": "e",
					"outputs": [
						{
							"internalType": "int16",
							"name": "",
							"type": "int16"
						}
					],
					"stateMutability": "view",
					"type": "function"
				},
				{
					"inputs": [],
					"name": "maxint",
					"outputs": [
						{
							"internalType": "uint256",
							"name": "",
							"type": "uint256"
						}
					],
					"stateMutability": "view",
					"type": "function"
				},
				{
					"inputs": [],
					"name": "message",
					"outputs": [
						{
							"internalType": "string",
							"name": "",
							"type": "string"
						}
					],
					"stateMutability": "view",
					"type": "function"
				},
				{
					"inputs": [],
					"name": "message2",
					"outputs": [
						{
							"internalType": "string",
							"name": "",
							"type": "string"
						}
					],
					"stateMutability": "view",
					"type": "function"
				},
				{
					"inputs": [],
					"name": "message3",
					"outputs": [
						{
							"internalType": "string",
							"name": "",
							"type": "string"
						}
					],
					"stateMutability": "view",
					"type": "function"
				},
				{
					"inputs": [],
					"name": "myaddress",
					"outputs": [
						{
							"internalType": "address",
							"name": "",
							"type": "address"
						}
					],
					"stateMutability": "view",
					"type": "function"
				},
				{
					"inputs": [],
					"name": "si",
					"outputs": [
						{
							"internalType": "enum addittion.Status",
							"name": "",
							"type": "uint8"
						}
					],
					"stateMutability": "view",
					"type": "function"
				},
				{
					"inputs": [],
					"name": "si2",
					"outputs": [
						{
							"internalType": "enum addittion.Status",
							"name": "",
							"type": "uint8"
						}
					],
					"stateMutability": "view",
					"type": "function"
				},
				{
					"inputs": [],
					"name": "si3",
					"outputs": [
						{
							"internalType": "enum addittion.Status",
							"name": "",
							"type": "uint8"
						}
					],
					"stateMutability": "view",
					"type": "function"
				},
				{
					"inputs": [],
					"name": "si4",
					"outputs": [
						{
							"internalType": "enum addittion.Status",
							"name": "",
							"type": "uint8"
						}
					],
					"stateMutability": "view",
					"type": "function"
				},
				{
					"inputs": [],
					"name": "si5",
					"outputs": [
						{
							"internalType": "enum addittion.Status",
							"name": "",
							"type": "uint8"
						}
					],
					"stateMutability": "view",
					"type": "function"
				},
				{
					"inputs": [],
					"name": "status1",
					"outputs": [
						{
							"internalType": "bool",
							"name": "",
							"type": "bool"
						}
					],
					"stateMutability": "view",
					"type": "function"
				},
				{
					"inputs": [],
					"name": "status2",
					"outputs": [
						{
							"internalType": "bool",
							"name": "",
							"type": "bool"
						}
					],
					"stateMutability": "view",
					"type": "function"
				}
			],
			"devdoc": {
				"kind": "dev",
				"methods": {},
				"version": 1
			},
			"evm": {
				"assembly": "    /* \"contracts/First.sol\":25:962  contract addittion {... */\n  mstore(0x40, 0x80)\n    /* \"contracts/First.sol\":68:70  20 */\n  0x14\n    /* \"contracts/First.sol\":50:70  int256 public a = 20 */\n  0x00\n  sstore\n    /* \"contracts/First.sol\":94:96  20 */\n  0x14\n    /* \"contracts/First.sol\":76:96  int256 public b = 20 */\n  0x01\n  sstore\n    /* \"contracts/First.sol\":124:125  b */\n  sload(0x01)\n    /* \"contracts/First.sol\":120:121  a */\n  sload(0x00)\n    /* \"contracts/First.sol\":120:125  a + b */\n  tag_1\n  swap2\n  swap1\n  tag_2\n  jump\t// in\ntag_1:\n    /* \"contracts/First.sol\":102:125  int256 public c = a + b */\n  0x02\n  sstore\n    /* \"contracts/First.sol\":147:150  127 */\n  0x7f\n    /* \"contracts/First.sol\":131:150  int8 public d = 127 */\n  0x03\n  exp(0x0100, 0x00)\n  dup2\n  sload\n  dup2\n  0xff\n  mul\n  not\n  and\n  swap1\n  dup4\n  0x00\n  signextend\n  0xff\n  and\n  mul\n  or\n  swap1\n  sstore\n  pop\n    /* \"contracts/First.sol\":173:178  32766 */\n  0x7ffe\n    /* \"contracts/First.sol\":156:178  int16 public e = 32766 */\n  0x03\n  exp(0x0100, 0x01)\n  dup2\n  sload\n  dup2\n  0xffff\n  mul\n  not\n  and\n  swap1\n  dup4\n  0x01\n  signextend\n  0xffff\n  and\n  mul\n  or\n  swap1\n  sstore\n  pop\n    /* \"contracts/First.sol\":208:221  5669891649979 */\n  0x05281fe0b1bb\n    /* \"contracts/First.sol\":184:221  uint256 public maxint = 5669891649979 */\n  0x04\n  sstore\n    /* \"contracts/First.sol\":250:254  true */\n  0x01\n    /* \"contracts/First.sol\":228:254  bool public status1 = true */\n  0x05\n  exp(0x0100, 0x00)\n  dup2\n  sload\n  dup2\n  0xff\n  mul\n  not\n  and\n  swap1\n  dup4\n  iszero\n  iszero\n  mul\n  or\n  swap1\n  sstore\n  pop\n    /* \"contracts/First.sol\":282:287  false */\n  0x00\n    /* \"contracts/First.sol\":260:287  bool public status2 = false */\n  0x05\n  exp(0x0100, 0x01)\n  dup2\n  sload\n  dup2\n  0xff\n  mul\n  not\n  and\n  swap1\n  dup4\n  iszero\n  iszero\n  mul\n  or\n  swap1\n  sstore\n  pop\n    /* \"contracts/First.sol\":294:325  string public message = \"Hello\" */\n  mload(0x40)\n  dup1\n  0x40\n  add\n  0x40\n  mstore\n  dup1\n  0x05\n  dup2\n  mstore\n  0x20\n  add\n  0x48656c6c6f000000000000000000000000000000000000000000000000000000\n  dup2\n  mstore\n  pop\n  0x06\n  swap1\n  dup1\n  mload\n  swap1\n  0x20\n  add\n  swap1\n  tag_3\n  swap3\n  swap2\n  swap1\n  tag_4\n  jump\t// in\ntag_3:\n  pop\n    /* \"contracts/First.sol\":331:361  string public message2 = \"bye\" */\n  mload(0x40)\n  dup1\n  0x40\n  add\n  0x40\n  mstore\n  dup1\n  0x03\n  dup2\n  mstore\n  0x20\n  add\n  0x6279650000000000000000000000000000000000000000000000000000000000\n  dup2\n  mstore\n  pop\n  0x07\n  swap1\n  dup1\n  mload\n  swap1\n  0x20\n  add\n  swap1\n  tag_5\n  swap3\n  swap2\n  swap1\n  tag_4\n  jump\t// in\ntag_5:\n  pop\n    /* \"contracts/First.sol\":367:408  string public message3 = \"Hello How r u?\" */\n  mload(0x40)\n  dup1\n  0x40\n  add\n  0x40\n  mstore\n  dup1\n  0x0e\n  dup2\n  mstore\n  0x20\n  add\n  0x48656c6c6f20486f77207220753f000000000000000000000000000000000000\n  dup2\n  mstore\n  pop\n  0x08\n  swap1\n  dup1\n  mload\n  swap1\n  0x20\n  add\n  swap1\n  tag_6\n  swap3\n  swap2\n  swap1\n  tag_4\n  jump\t// in\ntag_6:\n  pop\n    /* \"contracts/First.sol\":547:562  Status.Accepted */\n  0x02\n    /* \"contracts/First.sol\":528:562  Status public si = Status.Accepted */\n  0x09\n  exp(0x0100, 0x00)\n  dup2\n  sload\n  dup2\n  0xff\n  mul\n  not\n  and\n  swap1\n  dup4\n  0x04\n  dup2\n  gt\n  iszero\n  tag_7\n  jumpi\n  tag_8\n  tag_9\n  jump\t// in\ntag_8:\ntag_7:\n  mul\n  or\n  swap1\n  sstore\n  pop\n    /* \"contracts/First.sol\":588:602  Status.Pending */\n  0x00\n    /* \"contracts/First.sol\":568:602  Status public si2 = Status.Pending */\n  0x09\n  exp(0x0100, 0x01)\n  dup2\n  sload\n  dup2\n  0xff\n  mul\n  not\n  and\n  swap1\n  dup4\n  0x04\n  dup2\n  gt\n  iszero\n  tag_10\n  jumpi\n  tag_11\n  tag_9\n  jump\t// in\ntag_11:\ntag_10:\n  mul\n  or\n  swap1\n  sstore\n  pop\n    /* \"contracts/First.sol\":628:642  Status.Shipped */\n  0x01\n    /* \"contracts/First.sol\":608:642  Status public si3 = Status.Shipped */\n  0x09\n  exp(0x0100, 0x02)\n  dup2\n  sload\n  dup2\n  0xff\n  mul\n  not\n  and\n  swap1\n  dup4\n  0x04\n  dup2\n  gt\n  iszero\n  tag_12\n  jumpi\n  tag_13\n  tag_9\n  jump\t// in\ntag_13:\ntag_12:\n  mul\n  or\n  swap1\n  sstore\n  pop\n    /* \"contracts/First.sol\":668:683  Status.Rejected */\n  0x03\n    /* \"contracts/First.sol\":648:683  Status public si4 = Status.Rejected */\n  0x09\n  exp(0x0100, 0x03)\n  dup2\n  sload\n  dup2\n  0xff\n  mul\n  not\n  and\n  swap1\n  dup4\n  0x04\n  dup2\n  gt\n  iszero\n  tag_14\n  jumpi\n  tag_15\n  tag_9\n  jump\t// in\ntag_15:\ntag_14:\n  mul\n  or\n  swap1\n  sstore\n  pop\n    /* \"contracts/First.sol\":709:725  Status.Cancelled */\n  0x04\n    /* \"contracts/First.sol\":689:725  Status public si5 = Status.Cancelled */\n  0x09\n  exp(0x0100, 0x04)\n  dup2\n  sload\n  dup2\n  0xff\n  mul\n  not\n  and\n  swap1\n  dup4\n  0x04\n  dup2\n  gt\n  iszero\n  tag_16\n  jumpi\n  tag_17\n  tag_9\n  jump\t// in\ntag_17:\ntag_16:\n  mul\n  or\n  swap1\n  sstore\n  pop\n    /* \"contracts/First.sol\":777:781  0x45 */\n  0x45\n    /* \"contracts/First.sol\":758:781  bytes1 public b1 = 0x45 */\n  0xf8\n  shl\n  0x09\n  exp(0x0100, 0x05)\n  dup2\n  sload\n  dup2\n  0xff\n  mul\n  not\n  and\n  swap1\n  dup4\n  0xf8\n  shr\n  mul\n  or\n  swap1\n  sstore\n  pop\n    /* \"contracts/First.sol\":806:812  0x4545 */\n  0x4545\n    /* \"contracts/First.sol\":787:812  bytes2 public b2 = 0x4545 */\n  0xf0\n  shl\n  0x09\n  exp(0x0100, 0x06)\n  dup2\n  sload\n  dup2\n  0xffff\n  mul\n  not\n  and\n  swap1\n  dup4\n  0xf0\n  shr\n  mul\n  or\n  swap1\n  sstore\n  pop\n    /* \"contracts/First.sol\":837:845  0x454545 */\n  0x454545\n    /* \"contracts/First.sol\":818:845  bytes3 public b3 = 0x454545 */\n  0xe8\n  shl\n  0x09\n  exp(0x0100, 0x08)\n  dup2\n  sload\n  dup2\n  0xffffff\n  mul\n  not\n  and\n  swap1\n  dup4\n  0xe8\n  shr\n  mul\n  or\n  swap1\n  sstore\n  pop\n    /* \"contracts/First.sol\":870:880  0x45565587 */\n  0x45565587\n    /* \"contracts/First.sol\":851:880  bytes4 public b4 = 0x45565587 */\n  0xe0\n  shl\n  0x09\n  exp(0x0100, 0x0b)\n  dup2\n  sload\n  dup2\n  0xffffffff\n  mul\n  not\n  and\n  swap1\n  dup4\n  0xe0\n  shr\n  mul\n  or\n  swap1\n  sstore\n  pop\n    /* \"contracts/First.sol\":25:962  contract addittion {... */\n  callvalue\n  dup1\n  iszero\n  tag_18\n  jumpi\n  0x00\n  dup1\n  revert\ntag_18:\n  pop\n  jump(tag_19)\ntag_4:\n  dup3\n  dup1\n  sload\n  tag_20\n  swap1\n  tag_21\n  jump\t// in\ntag_20:\n  swap1\n  0x00\n  mstore\n  keccak256(0x00, 0x20)\n  swap1\n  0x1f\n  add\n  0x20\n  swap1\n  div\n  dup2\n  add\n  swap3\n  dup3\n  tag_23\n  jumpi\n  0x00\n  dup6\n  sstore\n  jump(tag_22)\ntag_23:\n  dup3\n  0x1f\n  lt\n  tag_24\n  jumpi\n  dup1\n  mload\n  not(0xff)\n  and\n  dup4\n  dup1\n  add\n  or\n  dup6\n  sstore\n  jump(tag_22)\ntag_24:\n  dup3\n  dup1\n  add\n  0x01\n  add\n  dup6\n  sstore\n  dup3\n  iszero\n  tag_22\n  jumpi\n  swap2\n  dup3\n  add\ntag_25:\n  dup3\n  dup2\n  gt\n  iszero\n  tag_26\n  jumpi\n  dup3\n  mload\n  dup3\n  sstore\n  swap2\n  0x20\n  add\n  swap2\n  swap1\n  0x01\n  add\n  swap1\n  jump(tag_25)\ntag_26:\ntag_22:\n  pop\n  swap1\n  pop\n  tag_27\n  swap2\n  swap1\n  tag_28\n  jump\t// in\ntag_27:\n  pop\n  swap1\n  jump\t// out\ntag_28:\ntag_29:\n  dup1\n  dup3\n  gt\n  iszero\n  tag_30\n  jumpi\n  0x00\n  dup2\n  0x00\n  swap1\n  sstore\n  pop\n  0x01\n  add\n  jump(tag_29)\ntag_30:\n  pop\n  swap1\n  jump\t// out\n    /* \"#utility.yul\":7:83   */\ntag_31:\n    /* \"#utility.yul\":43:50   */\n  0x00\n    /* \"#utility.yul\":72:77   */\n  dup2\n    /* \"#utility.yul\":61:77   */\n  swap1\n  pop\n    /* \"#utility.yul\":7:83   */\n  swap2\n  swap1\n  pop\n  jump\t// out\n    /* \"#utility.yul\":89:269   */\ntag_32:\n    /* \"#utility.yul\":137:214   */\n  0x4e487b7100000000000000000000000000000000000000000000000000000000\n    /* \"#utility.yul\":134:135   */\n  0x00\n    /* \"#utility.yul\":127:215   */\n  mstore\n    /* \"#utility.yul\":234:238   */\n  0x11\n    /* \"#utility.yul\":231:232   */\n  0x04\n    /* \"#utility.yul\":224:239   */\n  mstore\n    /* \"#utility.yul\":258:262   */\n  0x24\n    /* \"#utility.yul\":255:256   */\n  0x00\n    /* \"#utility.yul\":248:263   */\n  revert\n    /* \"#utility.yul\":275:800   */\ntag_2:\n    /* \"#utility.yul\":314:317   */\n  0x00\n    /* \"#utility.yul\":333:352   */\n  tag_38\n    /* \"#utility.yul\":350:351   */\n  dup3\n    /* \"#utility.yul\":333:352   */\n  tag_31\n  jump\t// in\ntag_38:\n    /* \"#utility.yul\":328:352   */\n  swap2\n  pop\n    /* \"#utility.yul\":366:385   */\n  tag_39\n    /* \"#utility.yul\":383:384   */\n  dup4\n    /* \"#utility.yul\":366:385   */\n  tag_31\n  jump\t// in\ntag_39:\n    /* \"#utility.yul\":361:385   */\n  swap3\n  pop\n    /* \"#utility.yul\":554:555   */\n  dup2\n    /* \"#utility.yul\":486:552   */\n  0x7fffffffffffffffffffffffffffffffffffffffffffffffffffffffffffffff\n    /* \"#utility.yul\":482:556   */\n  sub\n    /* \"#utility.yul\":479:480   */\n  dup4\n    /* \"#utility.yul\":475:557   */\n  sgt\n    /* \"#utility.yul\":470:471   */\n  0x00\n    /* \"#utility.yul\":467:468   */\n  dup4\n    /* \"#utility.yul\":463:472   */\n  slt\n    /* \"#utility.yul\":456:473   */\n  iszero\n    /* \"#utility.yul\":452:558   */\n  and\n    /* \"#utility.yul\":449:581   */\n  iszero\n  tag_40\n  jumpi\n    /* \"#utility.yul\":561:579   */\n  tag_41\n  tag_32\n  jump\t// in\ntag_41:\n    /* \"#utility.yul\":449:581   */\ntag_40:\n    /* \"#utility.yul\":741:742   */\n  dup2\n    /* \"#utility.yul\":673:739   */\n  0x8000000000000000000000000000000000000000000000000000000000000000\n    /* \"#utility.yul\":669:743   */\n  sub\n    /* \"#utility.yul\":666:667   */\n  dup4\n    /* \"#utility.yul\":662:744   */\n  slt\n    /* \"#utility.yul\":658:659   */\n  0x00\n    /* \"#utility.yul\":655:656   */\n  dup4\n    /* \"#utility.yul\":651:660   */\n  slt\n    /* \"#utility.yul\":647:745   */\n  and\n    /* \"#utility.yul\":644:768   */\n  iszero\n  tag_42\n  jumpi\n    /* \"#utility.yul\":748:766   */\n  tag_43\n  tag_32\n  jump\t// in\ntag_43:\n    /* \"#utility.yul\":644:768   */\ntag_42:\n    /* \"#utility.yul\":792:793   */\n  dup3\n    /* \"#utility.yul\":789:790   */\n  dup3\n    /* \"#utility.yul\":785:794   */\n  add\n    /* \"#utility.yul\":778:794   */\n  swap1\n  pop\n    /* \"#utility.yul\":275:800   */\n  swap3\n  swap2\n  pop\n  pop\n  jump\t// out\n    /* \"#utility.yul\":806:986   */\ntag_9:\n    /* \"#utility.yul\":854:931   */\n  0x4e487b7100000000000000000000000000000000000000000000000000000000\n    /* \"#utility.yul\":851:852   */\n  0x00\n    /* \"#utility.yul\":844:932   */\n  mstore\n    /* \"#utility.yul\":951:955   */\n  0x21\n    /* \"#utility.yul\":948:949   */\n  0x04\n    /* \"#utility.yul\":941:956   */\n  mstore\n    /* \"#utility.yul\":975:979   */\n  0x24\n    /* \"#utility.yul\":972:973   */\n  0x00\n    /* \"#utility.yul\":965:980   */\n  revert\n    /* \"#utility.yul\":992:1172   */\ntag_33:\n    /* \"#utility.yul\":1040:1117   */\n  0x4e487b7100000000000000000000000000000000000000000000000000000000\n    /* \"#utility.yul\":1037:1038   */\n  0x00\n    /* \"#utility.yul\":1030:1118   */\n  mstore\n    /* \"#utility.yul\":1137:1141   */\n  0x22\n    /* \"#utility.yul\":1134:1135   */\n  0x04\n    /* \"#utility.yul\":1127:1142   */\n  mstore\n    /* \"#utility.yul\":1161:1165   */\n  0x24\n    /* \"#utility.yul\":1158:1159   */\n  0x00\n    /* \"#utility.yul\":1151:1166   */\n  revert\n    /* \"#utility.yul\":1178:1498   */\ntag_21:\n    /* \"#utility.yul\":1222:1228   */\n  0x00\n    /* \"#utility.yul\":1259:1260   */\n  0x02\n    /* \"#utility.yul\":1253:1257   */\n  dup3\n    /* \"#utility.yul\":1249:1261   */\n  div\n    /* \"#utility.yul\":1239:1261   */\n  swap1\n  pop\n    /* \"#utility.yul\":1306:1307   */\n  0x01\n    /* \"#utility.yul\":1300:1304   */\n  dup3\n    /* \"#utility.yul\":1296:1308   */\n  and\n    /* \"#utility.yul\":1327:1345   */\n  dup1\n    /* \"#utility.yul\":1317:1398   */\n  tag_47\n  jumpi\n    /* \"#utility.yul\":1383:1387   */\n  0x7f\n    /* \"#utility.yul\":1375:1381   */\n  dup3\n    /* \"#utility.yul\":1371:1388   */\n  and\n    /* \"#utility.yul\":1361:1388   */\n  swap2\n  pop\n    /* \"#utility.yul\":1317:1398   */\ntag_47:\n    /* \"#utility.yul\":1445:1447   */\n  0x20\n    /* \"#utility.yul\":1437:1443   */\n  dup3\n    /* \"#utility.yul\":1434:1448   */\n  lt\n    /* \"#utility.yul\":1414:1432   */\n  dup2\n    /* \"#utility.yul\":1411:1449   */\n  sub\n    /* \"#utility.yul\":1408:1492   */\n  tag_48\n  jumpi\n    /* \"#utility.yul\":1464:1482   */\n  tag_49\n  tag_33\n  jump\t// in\ntag_49:\n    /* \"#utility.yul\":1408:1492   */\ntag_48:\n    /* \"#utility.yul\":1229:1498   */\n  pop\n    /* \"#utility.yul\":1178:1498   */\n  swap2\n  swap1\n  pop\n  jump\t// out\n    /* \"contracts/First.sol\":25:962  contract addittion {... */\ntag_19:\n  dataSize(sub_0)\n  dup1\n  dataOffset(sub_0)\n  0x00\n  codecopy\n  0x00\n  return\nstop\n\nsub_0: assembly {\n        /* \"contracts/First.sol\":25:962  contract addittion {... */\n      mstore(0x40, 0x80)\n      callvalue\n      dup1\n      iszero\n      tag_1\n      jumpi\n      0x00\n      dup1\n      revert\n    tag_1:\n      pop\n      jumpi(tag_2, lt(calldatasize, 0x04))\n      shr(0xe0, calldataload(0x00))\n      dup1\n      0xb8636574\n      gt\n      tag_26\n      jumpi\n      dup1\n      0xe589d582\n      gt\n      tag_27\n      jumpi\n      dup1\n      0xe589d582\n      eq\n      tag_20\n      jumpi\n      dup1\n      0xe9b61909\n      eq\n      tag_21\n      jumpi\n      dup1\n      0xee495002\n      eq\n      tag_22\n      jumpi\n      dup1\n      0xf528e741\n      eq\n      tag_23\n      jumpi\n      dup1\n      0xfcf814c3\n      eq\n      tag_24\n      jumpi\n      dup1\n      0xffae15ba\n      eq\n      tag_25\n      jumpi\n      jump(tag_2)\n    tag_27:\n      dup1\n      0xb8636574\n      eq\n      tag_14\n      jumpi\n      dup1\n      0xc2d36658\n      eq\n      tag_15\n      jumpi\n      dup1\n      0xc3da42b8\n      eq\n      tag_16\n      jumpi\n      dup1\n      0xcb2182c5\n      eq\n      tag_17\n      jumpi\n      dup1\n      0xd5da6a2b\n      eq\n      tag_18\n      jumpi\n      dup1\n      0xe21f37ce\n      eq\n      tag_19\n      jumpi\n      jump(tag_2)\n    tag_26:\n      dup1\n      0x3db3fb0a\n      gt\n      tag_28\n      jumpi\n      dup1\n      0x3db3fb0a\n      eq\n      tag_8\n      jumpi\n      dup1\n      0x44a12d91\n      eq\n      tag_9\n      jumpi\n      dup1\n      0x4df7e3d0\n      eq\n      tag_10\n      jumpi\n      dup1\n      0x65f8812c\n      eq\n      tag_11\n      jumpi\n      dup1\n      0x66891a8e\n      eq\n      tag_12\n      jumpi\n      dup1\n      0x8a054ac2\n      eq\n      tag_13\n      jumpi\n      jump(tag_2)\n    tag_28:\n      dup1\n      0x0add6ef2\n      eq\n      tag_3\n      jumpi\n      dup1\n      0x0dbe671f\n      eq\n      tag_4\n      jumpi\n      dup1\n      0x26b9a740\n      eq\n      tag_5\n      jumpi\n      dup1\n      0x2c23de69\n      eq\n      tag_6\n      jumpi\n      dup1\n      0x3a032815\n      eq\n      tag_7\n      jumpi\n    tag_2:\n      0x00\n      dup1\n      revert\n        /* \"contracts/First.sol\":787:812  bytes2 public b2 = 0x4545 */\n    tag_3:\n      tag_29\n      tag_30\n      jump\t// in\n    tag_29:\n      mload(0x40)\n      tag_31\n      swap2\n      swap1\n      tag_32\n      jump\t// in\n    tag_31:\n      mload(0x40)\n      dup1\n      swap2\n      sub\n      swap1\n      return\n        /* \"contracts/First.sol\":50:70  int256 public a = 20 */\n    tag_4:\n      tag_33\n      tag_34\n      jump\t// in\n    tag_33:\n      mload(0x40)\n      tag_35\n      swap2\n      swap1\n      tag_36\n      jump\t// in\n    tag_35:\n      mload(0x40)\n      dup1\n      swap2\n      sub\n      swap1\n      return\n        /* \"contracts/First.sol\":568:602  Status public si2 = Status.Pending */\n    tag_5:\n      tag_37\n      tag_38\n      jump\t// in\n    tag_37:\n      mload(0x40)\n      tag_39\n      swap2\n      swap1\n      tag_40\n      jump\t// in\n    tag_39:\n      mload(0x40)\n      dup1\n      swap2\n      sub\n      swap1\n      return\n        /* \"contracts/First.sol\":184:221  uint256 public maxint = 5669891649979 */\n    tag_6:\n      tag_41\n      tag_42\n      jump\t// in\n    tag_41:\n      mload(0x40)\n      tag_43\n      swap2\n      swap1\n      tag_44\n      jump\t// in\n    tag_43:\n      mload(0x40)\n      dup1\n      swap2\n      sub\n      swap1\n      return\n        /* \"contracts/First.sol\":608:642  Status public si3 = Status.Shipped */\n    tag_7:\n      tag_45\n      tag_46\n      jump\t// in\n    tag_45:\n      mload(0x40)\n      tag_47\n      swap2\n      swap1\n      tag_40\n      jump\t// in\n    tag_47:\n      mload(0x40)\n      dup1\n      swap2\n      sub\n      swap1\n      return\n        /* \"contracts/First.sol\":851:880  bytes4 public b4 = 0x45565587 */\n    tag_8:\n      tag_48\n      tag_49\n      jump\t// in\n    tag_48:\n      mload(0x40)\n      tag_50\n      swap2\n      swap1\n      tag_51\n      jump\t// in\n    tag_50:\n      mload(0x40)\n      dup1\n      swap2\n      sub\n      swap1\n      return\n        /* \"contracts/First.sol\":528:562  Status public si = Status.Accepted */\n    tag_9:\n      tag_52\n      tag_53\n      jump\t// in\n    tag_52:\n      mload(0x40)\n      tag_54\n      swap2\n      swap1\n      tag_40\n      jump\t// in\n    tag_54:\n      mload(0x40)\n      dup1\n      swap2\n      sub\n      swap1\n      return\n        /* \"contracts/First.sol\":76:96  int256 public b = 20 */\n    tag_10:\n      tag_55\n      tag_56\n      jump\t// in\n    tag_55:\n      mload(0x40)\n      tag_57\n      swap2\n      swap1\n      tag_36\n      jump\t// in\n    tag_57:\n      mload(0x40)\n      dup1\n      swap2\n      sub\n      swap1\n      return\n        /* \"contracts/First.sol\":648:683  Status public si4 = Status.Rejected */\n    tag_11:\n      tag_58\n      tag_59\n      jump\t// in\n    tag_58:\n      mload(0x40)\n      tag_60\n      swap2\n      swap1\n      tag_40\n      jump\t// in\n    tag_60:\n      mload(0x40)\n      dup1\n      swap2\n      sub\n      swap1\n      return\n        /* \"contracts/First.sol\":367:408  string public message3 = \"Hello How r u?\" */\n    tag_12:\n      tag_61\n      tag_62\n      jump\t// in\n    tag_61:\n      mload(0x40)\n      tag_63\n      swap2\n      swap1\n      tag_64\n      jump\t// in\n    tag_63:\n      mload(0x40)\n      dup1\n      swap2\n      sub\n      swap1\n      return\n        /* \"contracts/First.sol\":131:150  int8 public d = 127 */\n    tag_13:\n      tag_65\n      tag_66\n      jump\t// in\n    tag_65:\n      mload(0x40)\n      tag_67\n      swap2\n      swap1\n      tag_68\n      jump\t// in\n    tag_67:\n      mload(0x40)\n      dup1\n      swap2\n      sub\n      swap1\n      return\n        /* \"contracts/First.sol\":909:926  bytes[] public b6 */\n    tag_14:\n      tag_69\n      0x04\n      dup1\n      calldatasize\n      sub\n      dup2\n      add\n      swap1\n      tag_70\n      swap2\n      swap1\n      tag_71\n      jump\t// in\n    tag_70:\n      tag_72\n      jump\t// in\n    tag_69:\n      mload(0x40)\n      tag_73\n      swap2\n      swap1\n      tag_74\n      jump\t// in\n    tag_73:\n      mload(0x40)\n      dup1\n      swap2\n      sub\n      swap1\n      return\n        /* \"contracts/First.sol\":331:361  string public message2 = \"bye\" */\n    tag_15:\n      tag_75\n      tag_76\n      jump\t// in\n    tag_75:\n      mload(0x40)\n      tag_77\n      swap2\n      swap1\n      tag_64\n      jump\t// in\n    tag_77:\n      mload(0x40)\n      dup1\n      swap2\n      sub\n      swap1\n      return\n        /* \"contracts/First.sol\":102:125  int256 public c = a + b */\n    tag_16:\n      tag_78\n      tag_79\n      jump\t// in\n    tag_78:\n      mload(0x40)\n      tag_80\n      swap2\n      swap1\n      tag_36\n      jump\t// in\n    tag_80:\n      mload(0x40)\n      dup1\n      swap2\n      sub\n      swap1\n      return\n        /* \"contracts/First.sol\":886:902  bytes5 public b5 */\n    tag_17:\n      tag_81\n      tag_82\n      jump\t// in\n    tag_81:\n      mload(0x40)\n      tag_83\n      swap2\n      swap1\n      tag_84\n      jump\t// in\n    tag_83:\n      mload(0x40)\n      dup1\n      swap2\n      sub\n      swap1\n      return\n        /* \"contracts/First.sol\":260:287  bool public status2 = false */\n    tag_18:\n      tag_85\n      tag_86\n      jump\t// in\n    tag_85:\n      mload(0x40)\n      tag_87\n      swap2\n      swap1\n      tag_88\n      jump\t// in\n    tag_87:\n      mload(0x40)\n      dup1\n      swap2\n      sub\n      swap1\n      return\n        /* \"contracts/First.sol\":294:325  string public message = \"Hello\" */\n    tag_19:\n      tag_89\n      tag_90\n      jump\t// in\n    tag_89:\n      mload(0x40)\n      tag_91\n      swap2\n      swap1\n      tag_64\n      jump\t// in\n    tag_91:\n      mload(0x40)\n      dup1\n      swap2\n      sub\n      swap1\n      return\n        /* \"contracts/First.sol\":228:254  bool public status1 = true */\n    tag_20:\n      tag_92\n      tag_93\n      jump\t// in\n    tag_92:\n      mload(0x40)\n      tag_94\n      swap2\n      swap1\n      tag_88\n      jump\t// in\n    tag_94:\n      mload(0x40)\n      dup1\n      swap2\n      sub\n      swap1\n      return\n        /* \"contracts/First.sol\":818:845  bytes3 public b3 = 0x454545 */\n    tag_21:\n      tag_95\n      tag_96\n      jump\t// in\n    tag_95:\n      mload(0x40)\n      tag_97\n      swap2\n      swap1\n      tag_98\n      jump\t// in\n    tag_97:\n      mload(0x40)\n      dup1\n      swap2\n      sub\n      swap1\n      return\n        /* \"contracts/First.sol\":758:781  bytes1 public b1 = 0x45 */\n    tag_22:\n      tag_99\n      tag_100\n      jump\t// in\n    tag_99:\n      mload(0x40)\n      tag_101\n      swap2\n      swap1\n      tag_102\n      jump\t// in\n    tag_101:\n      mload(0x40)\n      dup1\n      swap2\n      sub\n      swap1\n      return\n        /* \"contracts/First.sol\":689:725  Status public si5 = Status.Cancelled */\n    tag_23:\n      tag_103\n      tag_104\n      jump\t// in\n    tag_103:\n      mload(0x40)\n      tag_105\n      swap2\n      swap1\n      tag_40\n      jump\t// in\n    tag_105:\n      mload(0x40)\n      dup1\n      swap2\n      sub\n      swap1\n      return\n        /* \"contracts/First.sol\":935:959  address public myaddress */\n    tag_24:\n      tag_106\n      tag_107\n      jump\t// in\n    tag_106:\n      mload(0x40)\n      tag_108\n      swap2\n      swap1\n      tag_109\n      jump\t// in\n    tag_108:\n      mload(0x40)\n      dup1\n      swap2\n      sub\n      swap1\n      return\n        /* \"contracts/First.sol\":156:178  int16 public e = 32766 */\n    tag_25:\n      tag_110\n      tag_111\n      jump\t// in\n    tag_110:\n      mload(0x40)\n      tag_112\n      swap2\n      swap1\n      tag_113\n      jump\t// in\n    tag_112:\n      mload(0x40)\n      dup1\n      swap2\n      sub\n      swap1\n      return\n        /* \"contracts/First.sol\":787:812  bytes2 public b2 = 0x4545 */\n    tag_30:\n      0x09\n      0x06\n      swap1\n      sload\n      swap1\n      0x0100\n      exp\n      swap1\n      div\n      0xf0\n      shl\n      dup2\n      jump\t// out\n        /* \"contracts/First.sol\":50:70  int256 public a = 20 */\n    tag_34:\n      sload(0x00)\n      dup2\n      jump\t// out\n        /* \"contracts/First.sol\":568:602  Status public si2 = Status.Pending */\n    tag_38:\n      0x09\n      0x01\n      swap1\n      sload\n      swap1\n      0x0100\n      exp\n      swap1\n      div\n      0xff\n      and\n      dup2\n      jump\t// out\n        /* \"contracts/First.sol\":184:221  uint256 public maxint = 5669891649979 */\n    tag_42:\n      sload(0x04)\n      dup2\n      jump\t// out\n        /* \"contracts/First.sol\":608:642  Status public si3 = Status.Shipped */\n    tag_46:\n      0x09\n      0x02\n      swap1\n      sload\n      swap1\n      0x0100\n      exp\n      swap1\n      div\n      0xff\n      and\n      dup2\n      jump\t// out\n        /* \"contracts/First.sol\":851:880  bytes4 public b4 = 0x45565587 */\n    tag_49:\n      0x09\n      0x0b\n      swap1\n      sload\n      swap1\n      0x0100\n      exp\n      swap1\n      div\n      0xe0\n      shl\n      dup2\n      jump\t// out\n        /* \"contracts/First.sol\":528:562  Status public si = Status.Accepted */\n    tag_53:\n      0x09\n      0x00\n      swap1\n      sload\n      swap1\n      0x0100\n      exp\n      swap1\n      div\n      0xff\n      and\n      dup2\n      jump\t// out\n        /* \"contracts/First.sol\":76:96  int256 public b = 20 */\n    tag_56:\n      sload(0x01)\n      dup2\n      jump\t// out\n        /* \"contracts/First.sol\":648:683  Status public si4 = Status.Rejected */\n    tag_59:\n      0x09\n      0x03\n      swap1\n      sload\n      swap1\n      0x0100\n      exp\n      swap1\n      div\n      0xff\n      and\n      dup2\n      jump\t// out\n        /* \"contracts/First.sol\":367:408  string public message3 = \"Hello How r u?\" */\n    tag_62:\n      0x08\n      dup1\n      sload\n      tag_114\n      swap1\n      tag_115\n      jump\t// in\n    tag_114:\n      dup1\n      0x1f\n      add\n      0x20\n      dup1\n      swap2\n      div\n      mul\n      0x20\n      add\n      mload(0x40)\n      swap1\n      dup2\n      add\n      0x40\n      mstore\n      dup1\n      swap3\n      swap2\n      swap1\n      dup2\n      dup2\n      mstore\n      0x20\n      add\n      dup3\n      dup1\n      sload\n      tag_116\n      swap1\n      tag_115\n      jump\t// in\n    tag_116:\n      dup1\n      iszero\n      tag_117\n      jumpi\n      dup1\n      0x1f\n      lt\n      tag_118\n      jumpi\n      0x0100\n      dup1\n      dup4\n      sload\n      div\n      mul\n      dup4\n      mstore\n      swap2\n      0x20\n      add\n      swap2\n      jump(tag_117)\n    tag_118:\n      dup3\n      add\n      swap2\n      swap1\n      0x00\n      mstore\n      keccak256(0x00, 0x20)\n      swap1\n    tag_119:\n      dup2\n      sload\n      dup2\n      mstore\n      swap1\n      0x01\n      add\n      swap1\n      0x20\n      add\n      dup1\n      dup4\n      gt\n      tag_119\n      jumpi\n      dup3\n      swap1\n      sub\n      0x1f\n      and\n      dup3\n      add\n      swap2\n    tag_117:\n      pop\n      pop\n      pop\n      pop\n      pop\n      dup2\n      jump\t// out\n        /* \"contracts/First.sol\":131:150  int8 public d = 127 */\n    tag_66:\n      0x03\n      0x00\n      swap1\n      sload\n      swap1\n      0x0100\n      exp\n      swap1\n      div\n      0x00\n      signextend\n      dup2\n      jump\t// out\n        /* \"contracts/First.sol\":909:926  bytes[] public b6 */\n    tag_72:\n      0x0a\n      dup2\n      dup2\n      sload\n      dup2\n      lt\n      tag_120\n      jumpi\n      0x00\n      dup1\n      revert\n    tag_120:\n      swap1\n      0x00\n      mstore\n      keccak256(0x00, 0x20)\n      add\n      0x00\n      swap2\n      pop\n      swap1\n      pop\n      dup1\n      sload\n      tag_122\n      swap1\n      tag_115\n      jump\t// in\n    tag_122:\n      dup1\n      0x1f\n      add\n      0x20\n      dup1\n      swap2\n      div\n      mul\n      0x20\n      add\n      mload(0x40)\n      swap1\n      dup2\n      add\n      0x40\n      mstore\n      dup1\n      swap3\n      swap2\n      swap1\n      dup2\n      dup2\n      mstore\n      0x20\n      add\n      dup3\n      dup1\n      sload\n      tag_123\n      swap1\n      tag_115\n      jump\t// in\n    tag_123:\n      dup1\n      iszero\n      tag_124\n      jumpi\n      dup1\n      0x1f\n      lt\n      tag_125\n      jumpi\n      0x0100\n      dup1\n      dup4\n      sload\n      div\n      mul\n      dup4\n      mstore\n      swap2\n      0x20\n      add\n      swap2\n      jump(tag_124)\n    tag_125:\n      dup3\n      add\n      swap2\n      swap1\n      0x00\n      mstore\n      keccak256(0x00, 0x20)\n      swap1\n    tag_126:\n      dup2\n      sload\n      dup2\n      mstore\n      swap1\n      0x01\n      add\n      swap1\n      0x20\n      add\n      dup1\n      dup4\n      gt\n      tag_126\n      jumpi\n      dup3\n      swap1\n      sub\n      0x1f\n      and\n      dup3\n      add\n      swap2\n    tag_124:\n      pop\n      pop\n      pop\n      pop\n      pop\n      dup2\n      jump\t// out\n        /* \"contracts/First.sol\":331:361  string public message2 = \"bye\" */\n    tag_76:\n      0x07\n      dup1\n      sload\n      tag_127\n      swap1\n      tag_115\n      jump\t// in\n    tag_127:\n      dup1\n      0x1f\n      add\n      0x20\n      dup1\n      swap2\n      div\n      mul\n      0x20\n      add\n      mload(0x40)\n      swap1\n      dup2\n      add\n      0x40\n      mstore\n      dup1\n      swap3\n      swap2\n      swap1\n      dup2\n      dup2\n      mstore\n      0x20\n      add\n      dup3\n      dup1\n      sload\n      tag_128\n      swap1\n      tag_115\n      jump\t// in\n    tag_128:\n      dup1\n      iszero\n      tag_129\n      jumpi\n      dup1\n      0x1f\n      lt\n      tag_130\n      jumpi\n      0x0100\n      dup1\n      dup4\n      sload\n      div\n      mul\n      dup4\n      mstore\n      swap2\n      0x20\n      add\n      swap2\n      jump(tag_129)\n    tag_130:\n      dup3\n      add\n      swap2\n      swap1\n      0x00\n      mstore\n      keccak256(0x00, 0x20)\n      swap1\n    tag_131:\n      dup2\n      sload\n      dup2\n      mstore\n      swap1\n      0x01\n      add\n      swap1\n      0x20\n      add\n      dup1\n      dup4\n      gt\n      tag_131\n      jumpi\n      dup3\n      swap1\n      sub\n      0x1f\n      and\n      dup3\n      add\n      swap2\n    tag_129:\n      pop\n      pop\n      pop\n      pop\n      pop\n      dup2\n      jump\t// out\n        /* \"contracts/First.sol\":102:125  int256 public c = a + b */\n    tag_79:\n      sload(0x02)\n      dup2\n      jump\t// out\n        /* \"contracts/First.sol\":886:902  bytes5 public b5 */\n    tag_82:\n      0x09\n      0x0f\n      swap1\n      sload\n      swap1\n      0x0100\n      exp\n      swap1\n      div\n      0xd8\n      shl\n      dup2\n      jump\t// out\n        /* \"contracts/First.sol\":260:287  bool public status2 = false */\n    tag_86:\n      0x05\n      0x01\n      swap1\n      sload\n      swap1\n      0x0100\n      exp\n      swap1\n      div\n      0xff\n      and\n      dup2\n      jump\t// out\n        /* \"contracts/First.sol\":294:325  string public message = \"Hello\" */\n    tag_90:\n      0x06\n      dup1\n      sload\n      tag_132\n      swap1\n      tag_115\n      jump\t// in\n    tag_132:\n      dup1\n      0x1f\n      add\n      0x20\n      dup1\n      swap2\n      div\n      mul\n      0x20\n      add\n      mload(0x40)\n      swap1\n      dup2\n      add\n      0x40\n      mstore\n      dup1\n      swap3\n      swap2\n      swap1\n      dup2\n      dup2\n      mstore\n      0x20\n      add\n      dup3\n      dup1\n      sload\n      tag_133\n      swap1\n      tag_115\n      jump\t// in\n    tag_133:\n      dup1\n      iszero\n      tag_134\n      jumpi\n      dup1\n      0x1f\n      lt\n      tag_135\n      jumpi\n      0x0100\n      dup1\n      dup4\n      sload\n      div\n      mul\n      dup4\n      mstore\n      swap2\n      0x20\n      add\n      swap2\n      jump(tag_134)\n    tag_135:\n      dup3\n      add\n      swap2\n      swap1\n      0x00\n      mstore\n      keccak256(0x00, 0x20)\n      swap1\n    tag_136:\n      dup2\n      sload\n      dup2\n      mstore\n      swap1\n      0x01\n      add\n      swap1\n      0x20\n      add\n      dup1\n      dup4\n      gt\n      tag_136\n      jumpi\n      dup3\n      swap1\n      sub\n      0x1f\n      and\n      dup3\n      add\n      swap2\n    tag_134:\n      pop\n      pop\n      pop\n      pop\n      pop\n      dup2\n      jump\t// out\n        /* \"contracts/First.sol\":228:254  bool public status1 = true */\n    tag_93:\n      0x05\n      0x00\n      swap1\n      sload\n      swap1\n      0x0100\n      exp\n      swap1\n      div\n      0xff\n      and\n      dup2\n      jump\t// out\n        /* \"contracts/First.sol\":818:845  bytes3 public b3 = 0x454545 */\n    tag_96:\n      0x09\n      0x08\n      swap1\n      sload\n      swap1\n      0x0100\n      exp\n      swap1\n      div\n      0xe8\n      shl\n      dup2\n      jump\t// out\n        /* \"contracts/First.sol\":758:781  bytes1 public b1 = 0x45 */\n    tag_100:\n      0x09\n      0x05\n      swap1\n      sload\n      swap1\n      0x0100\n      exp\n      swap1\n      div\n      0xf8\n      shl\n      dup2\n      jump\t// out\n        /* \"contracts/First.sol\":689:725  Status public si5 = Status.Cancelled */\n    tag_104:\n      0x09\n      0x04\n      swap1\n      sload\n      swap1\n      0x0100\n      exp\n      swap1\n      div\n      0xff\n      and\n      dup2\n      jump\t// out\n        /* \"contracts/First.sol\":935:959  address public myaddress */\n    tag_107:\n      0x0b\n      0x00\n      swap1\n      sload\n      swap1\n      0x0100\n      exp\n      swap1\n      div\n      0xffffffffffffffffffffffffffffffffffffffff\n      and\n      dup2\n      jump\t// out\n        /* \"contracts/First.sol\":156:178  int16 public e = 32766 */\n    tag_111:\n      0x03\n      0x01\n      swap1\n      sload\n      swap1\n      0x0100\n      exp\n      swap1\n      div\n      0x01\n      signextend\n      dup2\n      jump\t// out\n        /* \"#utility.yul\":7:156   */\n    tag_137:\n        /* \"#utility.yul\":43:50   */\n      0x00\n        /* \"#utility.yul\":83:149   */\n      0xffff000000000000000000000000000000000000000000000000000000000000\n        /* \"#utility.yul\":76:81   */\n      dup3\n        /* \"#utility.yul\":72:150   */\n      and\n        /* \"#utility.yul\":61:150   */\n      swap1\n      pop\n        /* \"#utility.yul\":7:156   */\n      swap2\n      swap1\n      pop\n      jump\t// out\n        /* \"#utility.yul\":162:277   */\n    tag_138:\n        /* \"#utility.yul\":247:270   */\n      tag_182\n        /* \"#utility.yul\":264:269   */\n      dup2\n        /* \"#utility.yul\":247:270   */\n      tag_137\n      jump\t// in\n    tag_182:\n        /* \"#utility.yul\":242:245   */\n      dup3\n        /* \"#utility.yul\":235:271   */\n      mstore\n        /* \"#utility.yul\":162:277   */\n      pop\n      pop\n      jump\t// out\n        /* \"#utility.yul\":283:501   */\n    tag_32:\n        /* \"#utility.yul\":374:378   */\n      0x00\n        /* \"#utility.yul\":412:414   */\n      0x20\n        /* \"#utility.yul\":401:410   */\n      dup3\n        /* \"#utility.yul\":397:415   */\n      add\n        /* \"#utility.yul\":389:415   */\n      swap1\n      pop\n        /* \"#utility.yul\":425:494   */\n      tag_184\n        /* \"#utility.yul\":491:492   */\n      0x00\n        /* \"#utility.yul\":480:489   */\n      dup4\n        /* \"#utility.yul\":476:493   */\n      add\n        /* \"#utility.yul\":467:473   */\n      dup5\n        /* \"#utility.yul\":425:494   */\n      tag_138\n      jump\t// in\n    tag_184:\n        /* \"#utility.yul\":283:501   */\n      swap3\n      swap2\n      pop\n      pop\n      jump\t// out\n        /* \"#utility.yul\":507:583   */\n    tag_139:\n        /* \"#utility.yul\":543:550   */\n      0x00\n        /* \"#utility.yul\":572:577   */\n      dup2\n        /* \"#utility.yul\":561:577   */\n      swap1\n      pop\n        /* \"#utility.yul\":507:583   */\n      swap2\n      swap1\n      pop\n      jump\t// out\n        /* \"#utility.yul\":589:704   */\n    tag_140:\n        /* \"#utility.yul\":674:697   */\n      tag_187\n        /* \"#utility.yul\":691:696   */\n      dup2\n        /* \"#utility.yul\":674:697   */\n      tag_139\n      jump\t// in\n    tag_187:\n        /* \"#utility.yul\":669:672   */\n      dup3\n        /* \"#utility.yul\":662:698   */\n      mstore\n        /* \"#utility.yul\":589:704   */\n      pop\n      pop\n      jump\t// out\n        /* \"#utility.yul\":710:928   */\n    tag_36:\n        /* \"#utility.yul\":801:805   */\n      0x00\n        /* \"#utility.yul\":839:841   */\n      0x20\n        /* \"#utility.yul\":828:837   */\n      dup3\n        /* \"#utility.yul\":824:842   */\n      add\n        /* \"#utility.yul\":816:842   */\n      swap1\n      pop\n        /* \"#utility.yul\":852:921   */\n      tag_189\n        /* \"#utility.yul\":918:919   */\n      0x00\n        /* \"#utility.yul\":907:916   */\n      dup4\n        /* \"#utility.yul\":903:920   */\n      add\n        /* \"#utility.yul\":894:900   */\n      dup5\n        /* \"#utility.yul\":852:921   */\n      tag_140\n      jump\t// in\n    tag_189:\n        /* \"#utility.yul\":710:928   */\n      swap3\n      swap2\n      pop\n      pop\n      jump\t// out\n        /* \"#utility.yul\":934:1114   */\n    tag_141:\n        /* \"#utility.yul\":982:1059   */\n      0x4e487b7100000000000000000000000000000000000000000000000000000000\n        /* \"#utility.yul\":979:980   */\n      0x00\n        /* \"#utility.yul\":972:1060   */\n      mstore\n        /* \"#utility.yul\":1079:1083   */\n      0x21\n        /* \"#utility.yul\":1076:1077   */\n      0x04\n        /* \"#utility.yul\":1069:1084   */\n      mstore\n        /* \"#utility.yul\":1103:1107   */\n      0x24\n        /* \"#utility.yul\":1100:1101   */\n      0x00\n        /* \"#utility.yul\":1093:1108   */\n      revert\n        /* \"#utility.yul\":1120:1234   */\n    tag_142:\n        /* \"#utility.yul\":1202:1203   */\n      0x05\n        /* \"#utility.yul\":1195:1200   */\n      dup2\n        /* \"#utility.yul\":1192:1204   */\n      lt\n        /* \"#utility.yul\":1182:1228   */\n      tag_192\n      jumpi\n        /* \"#utility.yul\":1208:1226   */\n      tag_193\n      tag_141\n      jump\t// in\n    tag_193:\n        /* \"#utility.yul\":1182:1228   */\n    tag_192:\n        /* \"#utility.yul\":1120:1234   */\n      pop\n      jump\t// out\n        /* \"#utility.yul\":1240:1369   */\n    tag_143:\n        /* \"#utility.yul\":1286:1293   */\n      0x00\n        /* \"#utility.yul\":1315:1320   */\n      dup2\n        /* \"#utility.yul\":1304:1320   */\n      swap1\n      pop\n        /* \"#utility.yul\":1321:1363   */\n      tag_195\n        /* \"#utility.yul\":1357:1362   */\n      dup3\n        /* \"#utility.yul\":1321:1363   */\n      tag_142\n      jump\t// in\n    tag_195:\n        /* \"#utility.yul\":1240:1369   */\n      swap2\n      swap1\n      pop\n      jump\t// out\n        /* \"#utility.yul\":1375:1504   */\n    tag_144:\n        /* \"#utility.yul\":1432:1441   */\n      0x00\n        /* \"#utility.yul\":1465:1498   */\n      tag_197\n        /* \"#utility.yul\":1492:1497   */\n      dup3\n        /* \"#utility.yul\":1465:1498   */\n      tag_143\n      jump\t// in\n    tag_197:\n        /* \"#utility.yul\":1452:1498   */\n      swap1\n      pop\n        /* \"#utility.yul\":1375:1504   */\n      swap2\n      swap1\n      pop\n      jump\t// out\n        /* \"#utility.yul\":1510:1655   */\n    tag_145:\n        /* \"#utility.yul\":1604:1648   */\n      tag_199\n        /* \"#utility.yul\":1642:1647   */\n      dup2\n        /* \"#utility.yul\":1604:1648   */\n      tag_144\n      jump\t// in\n    tag_199:\n        /* \"#utility.yul\":1599:1602   */\n      dup3\n        /* \"#utility.yul\":1592:1649   */\n      mstore\n        /* \"#utility.yul\":1510:1655   */\n      pop\n      pop\n      jump\t// out\n        /* \"#utility.yul\":1661:1897   */\n    tag_40:\n        /* \"#utility.yul\":1761:1765   */\n      0x00\n        /* \"#utility.yul\":1799:1801   */\n      0x20\n        /* \"#utility.yul\":1788:1797   */\n      dup3\n        /* \"#utility.yul\":1784:1802   */\n      add\n        /* \"#utility.yul\":1776:1802   */\n      swap1\n      pop\n        /* \"#utility.yul\":1812:1890   */\n      tag_201\n        /* \"#utility.yul\":1887:1888   */\n      0x00\n        /* \"#utility.yul\":1876:1885   */\n      dup4\n        /* \"#utility.yul\":1872:1889   */\n      add\n        /* \"#utility.yul\":1863:1869   */\n      dup5\n        /* \"#utility.yul\":1812:1890   */\n      tag_145\n      jump\t// in\n    tag_201:\n        /* \"#utility.yul\":1661:1897   */\n      swap3\n      swap2\n      pop\n      pop\n      jump\t// out\n        /* \"#utility.yul\":1903:1980   */\n    tag_146:\n        /* \"#utility.yul\":1940:1947   */\n      0x00\n        /* \"#utility.yul\":1969:1974   */\n      dup2\n        /* \"#utility.yul\":1958:1974   */\n      swap1\n      pop\n        /* \"#utility.yul\":1903:1980   */\n      swap2\n      swap1\n      pop\n      jump\t// out\n        /* \"#utility.yul\":1986:2104   */\n    tag_147:\n        /* \"#utility.yul\":2073:2097   */\n      tag_204\n        /* \"#utility.yul\":2091:2096   */\n      dup2\n        /* \"#utility.yul\":2073:2097   */\n      tag_146\n      jump\t// in\n    tag_204:\n        /* \"#utility.yul\":2068:2071   */\n      dup3\n        /* \"#utility.yul\":2061:2098   */\n      mstore\n        /* \"#utility.yul\":1986:2104   */\n      pop\n      pop\n      jump\t// out\n        /* \"#utility.yul\":2110:2332   */\n    tag_44:\n        /* \"#utility.yul\":2203:2207   */\n      0x00\n        /* \"#utility.yul\":2241:2243   */\n      0x20\n        /* \"#utility.yul\":2230:2239   */\n      dup3\n        /* \"#utility.yul\":2226:2244   */\n      add\n        /* \"#utility.yul\":2218:2244   */\n      swap1\n      pop\n        /* \"#utility.yul\":2254:2325   */\n      tag_206\n        /* \"#utility.yul\":2322:2323   */\n      0x00\n        /* \"#utility.yul\":2311:2320   */\n      dup4\n        /* \"#utility.yul\":2307:2324   */\n      add\n        /* \"#utility.yul\":2298:2304   */\n      dup5\n        /* \"#utility.yul\":2254:2325   */\n      tag_147\n      jump\t// in\n    tag_206:\n        /* \"#utility.yul\":2110:2332   */\n      swap3\n      swap2\n      pop\n      pop\n      jump\t// out\n        /* \"#utility.yul\":2338:2487   */\n    tag_148:\n        /* \"#utility.yul\":2374:2381   */\n      0x00\n        /* \"#utility.yul\":2414:2480   */\n      0xffffffff00000000000000000000000000000000000000000000000000000000\n        /* \"#utility.yul\":2407:2412   */\n      dup3\n        /* \"#utility.yul\":2403:2481   */\n      and\n        /* \"#utility.yul\":2392:2481   */\n      swap1\n      pop\n        /* \"#utility.yul\":2338:2487   */\n      swap2\n      swap1\n      pop\n      jump\t// out\n        /* \"#utility.yul\":2493:2608   */\n    tag_149:\n        /* \"#utility.yul\":2578:2601   */\n      tag_209\n        /* \"#utility.yul\":2595:2600   */\n      dup2\n        /* \"#utility.yul\":2578:2601   */\n      tag_148\n      jump\t// in\n    tag_209:\n        /* \"#utility.yul\":2573:2576   */\n      dup3\n        /* \"#utility.yul\":2566:2602   */\n      mstore\n        /* \"#utility.yul\":2493:2608   */\n      pop\n      pop\n      jump\t// out\n        /* \"#utility.yul\":2614:2832   */\n    tag_51:\n        /* \"#utility.yul\":2705:2709   */\n      0x00\n        /* \"#utility.yul\":2743:2745   */\n      0x20\n        /* \"#utility.yul\":2732:2741   */\n      dup3\n        /* \"#utility.yul\":2728:2746   */\n      add\n        /* \"#utility.yul\":2720:2746   */\n      swap1\n      pop\n        /* \"#utility.yul\":2756:2825   */\n      tag_211\n        /* \"#utility.yul\":2822:2823   */\n      0x00\n        /* \"#utility.yul\":2811:2820   */\n      dup4\n        /* \"#utility.yul\":2807:2824   */\n      add\n        /* \"#utility.yul\":2798:2804   */\n      dup5\n        /* \"#utility.yul\":2756:2825   */\n      tag_149\n      jump\t// in\n    tag_211:\n        /* \"#utility.yul\":2614:2832   */\n      swap3\n      swap2\n      pop\n      pop\n      jump\t// out\n        /* \"#utility.yul\":2838:2937   */\n    tag_150:\n        /* \"#utility.yul\":2890:2896   */\n      0x00\n        /* \"#utility.yul\":2924:2929   */\n      dup2\n        /* \"#utility.yul\":2918:2930   */\n      mload\n        /* \"#utility.yul\":2908:2930   */\n      swap1\n      pop\n        /* \"#utility.yul\":2838:2937   */\n      swap2\n      swap1\n      pop\n      jump\t// out\n        /* \"#utility.yul\":2943:3112   */\n    tag_151:\n        /* \"#utility.yul\":3027:3038   */\n      0x00\n        /* \"#utility.yul\":3061:3067   */\n      dup3\n        /* \"#utility.yul\":3056:3059   */\n      dup3\n        /* \"#utility.yul\":3049:3068   */\n      mstore\n        /* \"#utility.yul\":3101:3105   */\n      0x20\n        /* \"#utility.yul\":3096:3099   */\n      dup3\n        /* \"#utility.yul\":3092:3106   */\n      add\n        /* \"#utility.yul\":3077:3106   */\n      swap1\n      pop\n        /* \"#utility.yul\":2943:3112   */\n      swap3\n      swap2\n      pop\n      pop\n      jump\t// out\n        /* \"#utility.yul\":3118:3425   */\n    tag_152:\n        /* \"#utility.yul\":3186:3187   */\n      0x00\n        /* \"#utility.yul\":3196:3309   */\n    tag_215:\n        /* \"#utility.yul\":3210:3216   */\n      dup4\n        /* \"#utility.yul\":3207:3208   */\n      dup2\n        /* \"#utility.yul\":3204:3217   */\n      lt\n        /* \"#utility.yul\":3196:3309   */\n      iszero\n      tag_217\n      jumpi\n        /* \"#utility.yul\":3295:3296   */\n      dup1\n        /* \"#utility.yul\":3290:3293   */\n      dup3\n        /* \"#utility.yul\":3286:3297   */\n      add\n        /* \"#utility.yul\":3280:3298   */\n      mload\n        /* \"#utility.yul\":3276:3277   */\n      dup2\n        /* \"#utility.yul\":3271:3274   */\n      dup5\n        /* \"#utility.yul\":3267:3278   */\n      add\n        /* \"#utility.yul\":3260:3299   */\n      mstore\n        /* \"#utility.yul\":3232:3234   */\n      0x20\n        /* \"#utility.yul\":3229:3230   */\n      dup2\n        /* \"#utility.yul\":3225:3235   */\n      add\n        /* \"#utility.yul\":3220:3235   */\n      swap1\n      pop\n        /* \"#utility.yul\":3196:3309   */\n      jump(tag_215)\n    tag_217:\n        /* \"#utility.yul\":3327:3333   */\n      dup4\n        /* \"#utility.yul\":3324:3325   */\n      dup2\n        /* \"#utility.yul\":3321:3334   */\n      gt\n        /* \"#utility.yul\":3318:3419   */\n      iszero\n      tag_218\n      jumpi\n        /* \"#utility.yul\":3407:3408   */\n      0x00\n        /* \"#utility.yul\":3398:3404   */\n      dup5\n        /* \"#utility.yul\":3393:3396   */\n      dup5\n        /* \"#utility.yul\":3389:3405   */\n      add\n        /* \"#utility.yul\":3382:3409   */\n      mstore\n        /* \"#utility.yul\":3318:3419   */\n    tag_218:\n        /* \"#utility.yul\":3167:3425   */\n      pop\n        /* \"#utility.yul\":3118:3425   */\n      pop\n      pop\n      pop\n      jump\t// out\n        /* \"#utility.yul\":3431:3533   */\n    tag_153:\n        /* \"#utility.yul\":3472:3478   */\n      0x00\n        /* \"#utility.yul\":3523:3525   */\n      0x1f\n        /* \"#utility.yul\":3519:3526   */\n      not\n        /* \"#utility.yul\":3514:3516   */\n      0x1f\n        /* \"#utility.yul\":3507:3512   */\n      dup4\n        /* \"#utility.yul\":3503:3517   */\n      add\n        /* \"#utility.yul\":3499:3527   */\n      and\n        /* \"#utility.yul\":3489:3527   */\n      swap1\n      pop\n        /* \"#utility.yul\":3431:3533   */\n      swap2\n      swap1\n      pop\n      jump\t// out\n        /* \"#utility.yul\":3539:3903   */\n    tag_154:\n        /* \"#utility.yul\":3627:3630   */\n      0x00\n        /* \"#utility.yul\":3655:3694   */\n      tag_221\n        /* \"#utility.yul\":3688:3693   */\n      dup3\n        /* \"#utility.yul\":3655:3694   */\n      tag_150\n      jump\t// in\n    tag_221:\n        /* \"#utility.yul\":3710:3781   */\n      tag_222\n        /* \"#utility.yul\":3774:3780   */\n      dup2\n        /* \"#utility.yul\":3769:3772   */\n      dup6\n        /* \"#utility.yul\":3710:3781   */\n      tag_151\n      jump\t// in\n    tag_222:\n        /* \"#utility.yul\":3703:3781   */\n      swap4\n      pop\n        /* \"#utility.yul\":3790:3842   */\n      tag_223\n        /* \"#utility.yul\":3835:3841   */\n      dup2\n        /* \"#utility.yul\":3830:3833   */\n      dup6\n        /* \"#utility.yul\":3823:3827   */\n      0x20\n        /* \"#utility.yul\":3816:3821   */\n      dup7\n        /* \"#utility.yul\":3812:3828   */\n      add\n        /* \"#utility.yul\":3790:3842   */\n      tag_152\n      jump\t// in\n    tag_223:\n        /* \"#utility.yul\":3867:3896   */\n      tag_224\n        /* \"#utility.yul\":3889:3895   */\n      dup2\n        /* \"#utility.yul\":3867:3896   */\n      tag_153\n      jump\t// in\n    tag_224:\n        /* \"#utility.yul\":3862:3865   */\n      dup5\n        /* \"#utility.yul\":3858:3897   */\n      add\n        /* \"#utility.yul\":3851:3897   */\n      swap2\n      pop\n        /* \"#utility.yul\":3631:3903   */\n      pop\n        /* \"#utility.yul\":3539:3903   */\n      swap3\n      swap2\n      pop\n      pop\n      jump\t// out\n        /* \"#utility.yul\":3909:4222   */\n    tag_64:\n        /* \"#utility.yul\":4022:4026   */\n      0x00\n        /* \"#utility.yul\":4060:4062   */\n      0x20\n        /* \"#utility.yul\":4049:4058   */\n      dup3\n        /* \"#utility.yul\":4045:4063   */\n      add\n        /* \"#utility.yul\":4037:4063   */\n      swap1\n      pop\n        /* \"#utility.yul\":4109:4118   */\n      dup2\n        /* \"#utility.yul\":4103:4107   */\n      dup2\n        /* \"#utility.yul\":4099:4119   */\n      sub\n        /* \"#utility.yul\":4095:4096   */\n      0x00\n        /* \"#utility.yul\":4084:4093   */\n      dup4\n        /* \"#utility.yul\":4080:4097   */\n      add\n        /* \"#utility.yul\":4073:4120   */\n      mstore\n        /* \"#utility.yul\":4137:4215   */\n      tag_226\n        /* \"#utility.yul\":4210:4214   */\n      dup2\n        /* \"#utility.yul\":4201:4207   */\n      dup5\n        /* \"#utility.yul\":4137:4215   */\n      tag_154\n      jump\t// in\n    tag_226:\n        /* \"#utility.yul\":4129:4215   */\n      swap1\n      pop\n        /* \"#utility.yul\":3909:4222   */\n      swap3\n      swap2\n      pop\n      pop\n      jump\t// out\n        /* \"#utility.yul\":4228:4317   */\n    tag_155:\n        /* \"#utility.yul\":4262:4269   */\n      0x00\n        /* \"#utility.yul\":4305:4310   */\n      dup2\n        /* \"#utility.yul\":4302:4303   */\n      0x00\n        /* \"#utility.yul\":4291:4311   */\n      signextend\n        /* \"#utility.yul\":4280:4311   */\n      swap1\n      pop\n        /* \"#utility.yul\":4228:4317   */\n      swap2\n      swap1\n      pop\n      jump\t// out\n        /* \"#utility.yul\":4323:4432   */\n    tag_156:\n        /* \"#utility.yul\":4404:4425   */\n      tag_229\n        /* \"#utility.yul\":4419:4424   */\n      dup2\n        /* \"#utility.yul\":4404:4425   */\n      tag_155\n      jump\t// in\n    tag_229:\n        /* \"#utility.yul\":4399:4402   */\n      dup3\n        /* \"#utility.yul\":4392:4426   */\n      mstore\n        /* \"#utility.yul\":4323:4432   */\n      pop\n      pop\n      jump\t// out\n        /* \"#utility.yul\":4438:4648   */\n    tag_68:\n        /* \"#utility.yul\":4525:4529   */\n      0x00\n        /* \"#utility.yul\":4563:4565   */\n      0x20\n        /* \"#utility.yul\":4552:4561   */\n      dup3\n        /* \"#utility.yul\":4548:4566   */\n      add\n        /* \"#utility.yul\":4540:4566   */\n      swap1\n      pop\n        /* \"#utility.yul\":4576:4641   */\n      tag_231\n        /* \"#utility.yul\":4638:4639   */\n      0x00\n        /* \"#utility.yul\":4627:4636   */\n      dup4\n        /* \"#utility.yul\":4623:4640   */\n      add\n        /* \"#utility.yul\":4614:4620   */\n      dup5\n        /* \"#utility.yul\":4576:4641   */\n      tag_156\n      jump\t// in\n    tag_231:\n        /* \"#utility.yul\":4438:4648   */\n      swap3\n      swap2\n      pop\n      pop\n      jump\t// out\n        /* \"#utility.yul\":4735:4852   */\n    tag_158:\n        /* \"#utility.yul\":4844:4845   */\n      0x00\n        /* \"#utility.yul\":4841:4842   */\n      dup1\n        /* \"#utility.yul\":4834:4846   */\n      revert\n        /* \"#utility.yul\":4981:5103   */\n    tag_160:\n        /* \"#utility.yul\":5054:5078   */\n      tag_236\n        /* \"#utility.yul\":5072:5077   */\n      dup2\n        /* \"#utility.yul\":5054:5078   */\n      tag_146\n      jump\t// in\n    tag_236:\n        /* \"#utility.yul\":5047:5052   */\n      dup2\n        /* \"#utility.yul\":5044:5079   */\n      eq\n        /* \"#utility.yul\":5034:5097   */\n      tag_237\n      jumpi\n        /* \"#utility.yul\":5093:5094   */\n      0x00\n        /* \"#utility.yul\":5090:5091   */\n      dup1\n        /* \"#utility.yul\":5083:5095   */\n      revert\n        /* \"#utility.yul\":5034:5097   */\n    tag_237:\n        /* \"#utility.yul\":4981:5103   */\n      pop\n      jump\t// out\n        /* \"#utility.yul\":5109:5248   */\n    tag_161:\n        /* \"#utility.yul\":5155:5160   */\n      0x00\n        /* \"#utility.yul\":5193:5199   */\n      dup2\n        /* \"#utility.yul\":5180:5200   */\n      calldataload\n        /* \"#utility.yul\":5171:5200   */\n      swap1\n      pop\n        /* \"#utility.yul\":5209:5242   */\n      tag_239\n        /* \"#utility.yul\":5236:5241   */\n      dup2\n        /* \"#utility.yul\":5209:5242   */\n      tag_160\n      jump\t// in\n    tag_239:\n        /* \"#utility.yul\":5109:5248   */\n      swap3\n      swap2\n      pop\n      pop\n      jump\t// out\n        /* \"#utility.yul\":5254:5583   */\n    tag_71:\n        /* \"#utility.yul\":5313:5319   */\n      0x00\n        /* \"#utility.yul\":5362:5364   */\n      0x20\n        /* \"#utility.yul\":5350:5359   */\n      dup3\n        /* \"#utility.yul\":5341:5348   */\n      dup5\n        /* \"#utility.yul\":5337:5360   */\n      sub\n        /* \"#utility.yul\":5333:5365   */\n      slt\n        /* \"#utility.yul\":5330:5449   */\n      iszero\n      tag_241\n      jumpi\n        /* \"#utility.yul\":5368:5447   */\n      tag_242\n      tag_158\n      jump\t// in\n    tag_242:\n        /* \"#utility.yul\":5330:5449   */\n    tag_241:\n        /* \"#utility.yul\":5488:5489   */\n      0x00\n        /* \"#utility.yul\":5513:5566   */\n      tag_243\n        /* \"#utility.yul\":5558:5565   */\n      dup5\n        /* \"#utility.yul\":5549:5555   */\n      dup3\n        /* \"#utility.yul\":5538:5547   */\n      dup6\n        /* \"#utility.yul\":5534:5556   */\n      add\n        /* \"#utility.yul\":5513:5566   */\n      tag_161\n      jump\t// in\n    tag_243:\n        /* \"#utility.yul\":5503:5566   */\n      swap2\n      pop\n        /* \"#utility.yul\":5459:5576   */\n      pop\n        /* \"#utility.yul\":5254:5583   */\n      swap3\n      swap2\n      pop\n      pop\n      jump\t// out\n        /* \"#utility.yul\":5589:5687   */\n    tag_162:\n        /* \"#utility.yul\":5640:5646   */\n      0x00\n        /* \"#utility.yul\":5674:5679   */\n      dup2\n        /* \"#utility.yul\":5668:5680   */\n      mload\n        /* \"#utility.yul\":5658:5680   */\n      swap1\n      pop\n        /* \"#utility.yul\":5589:5687   */\n      swap2\n      swap1\n      pop\n      jump\t// out\n        /* \"#utility.yul\":5693:5861   */\n    tag_163:\n        /* \"#utility.yul\":5776:5787   */\n      0x00\n        /* \"#utility.yul\":5810:5816   */\n      dup3\n        /* \"#utility.yul\":5805:5808   */\n      dup3\n        /* \"#utility.yul\":5798:5817   */\n      mstore\n        /* \"#utility.yul\":5850:5854   */\n      0x20\n        /* \"#utility.yul\":5845:5848   */\n      dup3\n        /* \"#utility.yul\":5841:5855   */\n      add\n        /* \"#utility.yul\":5826:5855   */\n      swap1\n      pop\n        /* \"#utility.yul\":5693:5861   */\n      swap3\n      swap2\n      pop\n      pop\n      jump\t// out\n        /* \"#utility.yul\":5867:6227   */\n    tag_164:\n        /* \"#utility.yul\":5953:5956   */\n      0x00\n        /* \"#utility.yul\":5981:6019   */\n      tag_247\n        /* \"#utility.yul\":6013:6018   */\n      dup3\n        /* \"#utility.yul\":5981:6019   */\n      tag_162\n      jump\t// in\n    tag_247:\n        /* \"#utility.yul\":6035:6105   */\n      tag_248\n        /* \"#utility.yul\":6098:6104   */\n      dup2\n        /* \"#utility.yul\":6093:6096   */\n      dup6\n        /* \"#utility.yul\":6035:6105   */\n      tag_163\n      jump\t// in\n    tag_248:\n        /* \"#utility.yul\":6028:6105   */\n      swap4\n      pop\n        /* \"#utility.yul\":6114:6166   */\n      tag_249\n        /* \"#utility.yul\":6159:6165   */\n      dup2\n        /* \"#utility.yul\":6154:6157   */\n      dup6\n        /* \"#utility.yul\":6147:6151   */\n      0x20\n        /* \"#utility.yul\":6140:6145   */\n      dup7\n        /* \"#utility.yul\":6136:6152   */\n      add\n        /* \"#utility.yul\":6114:6166   */\n      tag_152\n      jump\t// in\n    tag_249:\n        /* \"#utility.yul\":6191:6220   */\n      tag_250\n        /* \"#utility.yul\":6213:6219   */\n      dup2\n        /* \"#utility.yul\":6191:6220   */\n      tag_153\n      jump\t// in\n    tag_250:\n        /* \"#utility.yul\":6186:6189   */\n      dup5\n        /* \"#utility.yul\":6182:6221   */\n      add\n        /* \"#utility.yul\":6175:6221   */\n      swap2\n      pop\n        /* \"#utility.yul\":5957:6227   */\n      pop\n        /* \"#utility.yul\":5867:6227   */\n      swap3\n      swap2\n      pop\n      pop\n      jump\t// out\n        /* \"#utility.yul\":6233:6542   */\n    tag_74:\n        /* \"#utility.yul\":6344:6348   */\n      0x00\n        /* \"#utility.yul\":6382:6384   */\n      0x20\n        /* \"#utility.yul\":6371:6380   */\n      dup3\n        /* \"#utility.yul\":6367:6385   */\n      add\n        /* \"#utility.yul\":6359:6385   */\n      swap1\n      pop\n        /* \"#utility.yul\":6431:6440   */\n      dup2\n        /* \"#utility.yul\":6425:6429   */\n      dup2\n        /* \"#utility.yul\":6421:6441   */\n      sub\n        /* \"#utility.yul\":6417:6418   */\n      0x00\n        /* \"#utility.yul\":6406:6415   */\n      dup4\n        /* \"#utility.yul\":6402:6419   */\n      add\n        /* \"#utility.yul\":6395:6442   */\n      mstore\n        /* \"#utility.yul\":6459:6535   */\n      tag_252\n        /* \"#utility.yul\":6530:6534   */\n      dup2\n        /* \"#utility.yul\":6521:6527   */\n      dup5\n        /* \"#utility.yul\":6459:6535   */\n      tag_164\n      jump\t// in\n    tag_252:\n        /* \"#utility.yul\":6451:6535   */\n      swap1\n      pop\n        /* \"#utility.yul\":6233:6542   */\n      swap3\n      swap2\n      pop\n      pop\n      jump\t// out\n        /* \"#utility.yul\":6548:6697   */\n    tag_165:\n        /* \"#utility.yul\":6584:6591   */\n      0x00\n        /* \"#utility.yul\":6624:6690   */\n      0xffffffffff000000000000000000000000000000000000000000000000000000\n        /* \"#utility.yul\":6617:6622   */\n      dup3\n        /* \"#utility.yul\":6613:6691   */\n      and\n        /* \"#utility.yul\":6602:6691   */\n      swap1\n      pop\n        /* \"#utility.yul\":6548:6697   */\n      swap2\n      swap1\n      pop\n      jump\t// out\n        /* \"#utility.yul\":6703:6818   */\n    tag_166:\n        /* \"#utility.yul\":6788:6811   */\n      tag_255\n        /* \"#utility.yul\":6805:6810   */\n      dup2\n        /* \"#utility.yul\":6788:6811   */\n      tag_165\n      jump\t// in\n    tag_255:\n        /* \"#utility.yul\":6783:6786   */\n      dup3\n        /* \"#utility.yul\":6776:6812   */\n      mstore\n        /* \"#utility.yul\":6703:6818   */\n      pop\n      pop\n      jump\t// out\n        /* \"#utility.yul\":6824:7042   */\n    tag_84:\n        /* \"#utility.yul\":6915:6919   */\n      0x00\n        /* \"#utility.yul\":6953:6955   */\n      0x20\n        /* \"#utility.yul\":6942:6951   */\n      dup3\n        /* \"#utility.yul\":6938:6956   */\n      add\n        /* \"#utility.yul\":6930:6956   */\n      swap1\n      pop\n        /* \"#utility.yul\":6966:7035   */\n      tag_257\n        /* \"#utility.yul\":7032:7033   */\n      0x00\n        /* \"#utility.yul\":7021:7030   */\n      dup4\n        /* \"#utility.yul\":7017:7034   */\n      add\n        /* \"#utility.yul\":7008:7014   */\n      dup5\n        /* \"#utility.yul\":6966:7035   */\n      tag_166\n      jump\t// in\n    tag_257:\n        /* \"#utility.yul\":6824:7042   */\n      swap3\n      swap2\n      pop\n      pop\n      jump\t// out\n        /* \"#utility.yul\":7048:7138   */\n    tag_167:\n        /* \"#utility.yul\":7082:7089   */\n      0x00\n        /* \"#utility.yul\":7125:7130   */\n      dup2\n        /* \"#utility.yul\":7118:7131   */\n      iszero\n        /* \"#utility.yul\":7111:7132   */\n      iszero\n        /* \"#utility.yul\":7100:7132   */\n      swap1\n      pop\n        /* \"#utility.yul\":7048:7138   */\n      swap2\n      swap1\n      pop\n      jump\t// out\n        /* \"#utility.yul\":7144:7253   */\n    tag_168:\n        /* \"#utility.yul\":7225:7246   */\n      tag_260\n        /* \"#utility.yul\":7240:7245   */\n      dup2\n        /* \"#utility.yul\":7225:7246   */\n      tag_167\n      jump\t// in\n    tag_260:\n        /* \"#utility.yul\":7220:7223   */\n      dup3\n        /* \"#utility.yul\":7213:7247   */\n      mstore\n        /* \"#utility.yul\":7144:7253   */\n      pop\n      pop\n      jump\t// out\n        /* \"#utility.yul\":7259:7469   */\n    tag_88:\n        /* \"#utility.yul\":7346:7350   */\n      0x00\n        /* \"#utility.yul\":7384:7386   */\n      0x20\n        /* \"#utility.yul\":7373:7382   */\n      dup3\n        /* \"#utility.yul\":7369:7387   */\n      add\n        /* \"#utility.yul\":7361:7387   */\n      swap1\n      pop\n        /* \"#utility.yul\":7397:7462   */\n      tag_262\n        /* \"#utility.yul\":7459:7460   */\n      0x00\n        /* \"#utility.yul\":7448:7457   */\n      dup4\n        /* \"#utility.yul\":7444:7461   */\n      add\n        /* \"#utility.yul\":7435:7441   */\n      dup5\n        /* \"#utility.yul\":7397:7462   */\n      tag_168\n      jump\t// in\n    tag_262:\n        /* \"#utility.yul\":7259:7469   */\n      swap3\n      swap2\n      pop\n      pop\n      jump\t// out\n        /* \"#utility.yul\":7475:7624   */\n    tag_169:\n        /* \"#utility.yul\":7511:7518   */\n      0x00\n        /* \"#utility.yul\":7551:7617   */\n      0xffffff0000000000000000000000000000000000000000000000000000000000\n        /* \"#utility.yul\":7544:7549   */\n      dup3\n        /* \"#utility.yul\":7540:7618   */\n      and\n        /* \"#utility.yul\":7529:7618   */\n      swap1\n      pop\n        /* \"#utility.yul\":7475:7624   */\n      swap2\n      swap1\n      pop\n      jump\t// out\n        /* \"#utility.yul\":7630:7745   */\n    tag_170:\n        /* \"#utility.yul\":7715:7738   */\n      tag_265\n        /* \"#utility.yul\":7732:7737   */\n      dup2\n        /* \"#utility.yul\":7715:7738   */\n      tag_169\n      jump\t// in\n    tag_265:\n        /* \"#utility.yul\":7710:7713   */\n      dup3\n        /* \"#utility.yul\":7703:7739   */\n      mstore\n        /* \"#utility.yul\":7630:7745   */\n      pop\n      pop\n      jump\t// out\n        /* \"#utility.yul\":7751:7969   */\n    tag_98:\n        /* \"#utility.yul\":7842:7846   */\n      0x00\n        /* \"#utility.yul\":7880:7882   */\n      0x20\n        /* \"#utility.yul\":7869:7878   */\n      dup3\n        /* \"#utility.yul\":7865:7883   */\n      add\n        /* \"#utility.yul\":7857:7883   */\n      swap1\n      pop\n        /* \"#utility.yul\":7893:7962   */\n      tag_267\n        /* \"#utility.yul\":7959:7960   */\n      0x00\n        /* \"#utility.yul\":7948:7957   */\n      dup4\n        /* \"#utility.yul\":7944:7961   */\n      add\n        /* \"#utility.yul\":7935:7941   */\n      dup5\n        /* \"#utility.yul\":7893:7962   */\n      tag_170\n      jump\t// in\n    tag_267:\n        /* \"#utility.yul\":7751:7969   */\n      swap3\n      swap2\n      pop\n      pop\n      jump\t// out\n        /* \"#utility.yul\":7975:8124   */\n    tag_171:\n        /* \"#utility.yul\":8011:8018   */\n      0x00\n        /* \"#utility.yul\":8051:8117   */\n      0xff00000000000000000000000000000000000000000000000000000000000000\n        /* \"#utility.yul\":8044:8049   */\n      dup3\n        /* \"#utility.yul\":8040:8118   */\n      and\n        /* \"#utility.yul\":8029:8118   */\n      swap1\n      pop\n        /* \"#utility.yul\":7975:8124   */\n      swap2\n      swap1\n      pop\n      jump\t// out\n        /* \"#utility.yul\":8130:8245   */\n    tag_172:\n        /* \"#utility.yul\":8215:8238   */\n      tag_270\n        /* \"#utility.yul\":8232:8237   */\n      dup2\n        /* \"#utility.yul\":8215:8238   */\n      tag_171\n      jump\t// in\n    tag_270:\n        /* \"#utility.yul\":8210:8213   */\n      dup3\n        /* \"#utility.yul\":8203:8239   */\n      mstore\n        /* \"#utility.yul\":8130:8245   */\n      pop\n      pop\n      jump\t// out\n        /* \"#utility.yul\":8251:8469   */\n    tag_102:\n        /* \"#utility.yul\":8342:8346   */\n      0x00\n        /* \"#utility.yul\":8380:8382   */\n      0x20\n        /* \"#utility.yul\":8369:8378   */\n      dup3\n        /* \"#utility.yul\":8365:8383   */\n      add\n        /* \"#utility.yul\":8357:8383   */\n      swap1\n      pop\n        /* \"#utility.yul\":8393:8462   */\n      tag_272\n        /* \"#utility.yul\":8459:8460   */\n      0x00\n        /* \"#utility.yul\":8448:8457   */\n      dup4\n        /* \"#utility.yul\":8444:8461   */\n      add\n        /* \"#utility.yul\":8435:8441   */\n      dup5\n        /* \"#utility.yul\":8393:8462   */\n      tag_172\n      jump\t// in\n    tag_272:\n        /* \"#utility.yul\":8251:8469   */\n      swap3\n      swap2\n      pop\n      pop\n      jump\t// out\n        /* \"#utility.yul\":8475:8601   */\n    tag_173:\n        /* \"#utility.yul\":8512:8519   */\n      0x00\n        /* \"#utility.yul\":8552:8594   */\n      0xffffffffffffffffffffffffffffffffffffffff\n        /* \"#utility.yul\":8545:8550   */\n      dup3\n        /* \"#utility.yul\":8541:8595   */\n      and\n        /* \"#utility.yul\":8530:8595   */\n      swap1\n      pop\n        /* \"#utility.yul\":8475:8601   */\n      swap2\n      swap1\n      pop\n      jump\t// out\n        /* \"#utility.yul\":8607:8703   */\n    tag_174:\n        /* \"#utility.yul\":8644:8651   */\n      0x00\n        /* \"#utility.yul\":8673:8697   */\n      tag_275\n        /* \"#utility.yul\":8691:8696   */\n      dup3\n        /* \"#utility.yul\":8673:8697   */\n      tag_173\n      jump\t// in\n    tag_275:\n        /* \"#utility.yul\":8662:8697   */\n      swap1\n      pop\n        /* \"#utility.yul\":8607:8703   */\n      swap2\n      swap1\n      pop\n      jump\t// out\n        /* \"#utility.yul\":8709:8827   */\n    tag_175:\n        /* \"#utility.yul\":8796:8820   */\n      tag_277\n        /* \"#utility.yul\":8814:8819   */\n      dup2\n        /* \"#utility.yul\":8796:8820   */\n      tag_174\n      jump\t// in\n    tag_277:\n        /* \"#utility.yul\":8791:8794   */\n      dup3\n        /* \"#utility.yul\":8784:8821   */\n      mstore\n        /* \"#utility.yul\":8709:8827   */\n      pop\n      pop\n      jump\t// out\n        /* \"#utility.yul\":8833:9055   */\n    tag_109:\n        /* \"#utility.yul\":8926:8930   */\n      0x00\n        /* \"#utility.yul\":8964:8966   */\n      0x20\n        /* \"#utility.yul\":8953:8962   */\n      dup3\n        /* \"#utility.yul\":8949:8967   */\n      add\n        /* \"#utility.yul\":8941:8967   */\n      swap1\n      pop\n        /* \"#utility.yul\":8977:9048   */\n      tag_279\n        /* \"#utility.yul\":9045:9046   */\n      0x00\n        /* \"#utility.yul\":9034:9043   */\n      dup4\n        /* \"#utility.yul\":9030:9047   */\n      add\n        /* \"#utility.yul\":9021:9027   */\n      dup5\n        /* \"#utility.yul\":8977:9048   */\n      tag_175\n      jump\t// in\n    tag_279:\n        /* \"#utility.yul\":8833:9055   */\n      swap3\n      swap2\n      pop\n      pop\n      jump\t// out\n        /* \"#utility.yul\":9061:9151   */\n    tag_176:\n        /* \"#utility.yul\":9096:9103   */\n      0x00\n        /* \"#utility.yul\":9139:9144   */\n      dup2\n        /* \"#utility.yul\":9136:9137   */\n      0x01\n        /* \"#utility.yul\":9125:9145   */\n      signextend\n        /* \"#utility.yul\":9114:9145   */\n      swap1\n      pop\n        /* \"#utility.yul\":9061:9151   */\n      swap2\n      swap1\n      pop\n      jump\t// out\n        /* \"#utility.yul\":9157:9269   */\n    tag_177:\n        /* \"#utility.yul\":9240:9262   */\n      tag_282\n        /* \"#utility.yul\":9256:9261   */\n      dup2\n        /* \"#utility.yul\":9240:9262   */\n      tag_176\n      jump\t// in\n    tag_282:\n        /* \"#utility.yul\":9235:9238   */\n      dup3\n        /* \"#utility.yul\":9228:9263   */\n      mstore\n        /* \"#utility.yul\":9157:9269   */\n      pop\n      pop\n      jump\t// out\n        /* \"#utility.yul\":9275:9489   */\n    tag_113:\n        /* \"#utility.yul\":9364:9368   */\n      0x00\n        /* \"#utility.yul\":9402:9404   */\n      0x20\n        /* \"#utility.yul\":9391:9400   */\n      dup3\n        /* \"#utility.yul\":9387:9405   */\n      add\n        /* \"#utility.yul\":9379:9405   */\n      swap1\n      pop\n        /* \"#utility.yul\":9415:9482   */\n      tag_284\n        /* \"#utility.yul\":9479:9480   */\n      0x00\n        /* \"#utility.yul\":9468:9477   */\n      dup4\n        /* \"#utility.yul\":9464:9481   */\n      add\n        /* \"#utility.yul\":9455:9461   */\n      dup5\n        /* \"#utility.yul\":9415:9482   */\n      tag_177\n      jump\t// in\n    tag_284:\n        /* \"#utility.yul\":9275:9489   */\n      swap3\n      swap2\n      pop\n      pop\n      jump\t// out\n        /* \"#utility.yul\":9495:9675   */\n    tag_178:\n        /* \"#utility.yul\":9543:9620   */\n      0x4e487b7100000000000000000000000000000000000000000000000000000000\n        /* \"#utility.yul\":9540:9541   */\n      0x00\n        /* \"#utility.yul\":9533:9621   */\n      mstore\n        /* \"#utility.yul\":9640:9644   */\n      0x22\n        /* \"#utility.yul\":9637:9638   */\n      0x04\n        /* \"#utility.yul\":9630:9645   */\n      mstore\n        /* \"#utility.yul\":9664:9668   */\n      0x24\n        /* \"#utility.yul\":9661:9662   */\n      0x00\n        /* \"#utility.yul\":9654:9669   */\n      revert\n        /* \"#utility.yul\":9681:10001   */\n    tag_115:\n        /* \"#utility.yul\":9725:9731   */\n      0x00\n        /* \"#utility.yul\":9762:9763   */\n      0x02\n        /* \"#utility.yul\":9756:9760   */\n      dup3\n        /* \"#utility.yul\":9752:9764   */\n      div\n        /* \"#utility.yul\":9742:9764   */\n      swap1\n      pop\n        /* \"#utility.yul\":9809:9810   */\n      0x01\n        /* \"#utility.yul\":9803:9807   */\n      dup3\n        /* \"#utility.yul\":9799:9811   */\n      and\n        /* \"#utility.yul\":9830:9848   */\n      dup1\n        /* \"#utility.yul\":9820:9901   */\n      tag_287\n      jumpi\n        /* \"#utility.yul\":9886:9890   */\n      0x7f\n        /* \"#utility.yul\":9878:9884   */\n      dup3\n        /* \"#utility.yul\":9874:9891   */\n      and\n        /* \"#utility.yul\":9864:9891   */\n      swap2\n      pop\n        /* \"#utility.yul\":9820:9901   */\n    tag_287:\n        /* \"#utility.yul\":9948:9950   */\n      0x20\n        /* \"#utility.yul\":9940:9946   */\n      dup3\n        /* \"#utility.yul\":9937:9951   */\n      lt\n        /* \"#utility.yul\":9917:9935   */\n      dup2\n        /* \"#utility.yul\":9914:9952   */\n      sub\n        /* \"#utility.yul\":9911:9995   */\n      tag_288\n      jumpi\n        /* \"#utility.yul\":9967:9985   */\n      tag_289\n      tag_178\n      jump\t// in\n    tag_289:\n        /* \"#utility.yul\":9911:9995   */\n    tag_288:\n        /* \"#utility.yul\":9732:10001   */\n      pop\n        /* \"#utility.yul\":9681:10001   */\n      swap2\n      swap1\n      pop\n      jump\t// out\n\n    auxdata: 0xa2646970667358221220a9110f25bbf248763ed83c150ec00aac8862b0e2340f1d6070fbaac38e6947fc64736f6c634300080e0033\n}\n",
				"bytecode": {
					"linkReferences": {},
					"object": "608060405260146000556014600155600154600054620000209190620003f9565b600255607f600360006101000a81548160ff021916908360000b60ff160217905550617ffe600360016101000a81548161ffff021916908360010b61ffff1602179055506505281fe0b1bb6004556001600560006101000a81548160ff0219169083151502179055506000600560016101000a81548160ff0219169083151502179055506040518060400160405280600581526020017f48656c6c6f00000000000000000000000000000000000000000000000000000081525060069080519060200190620000f192919062000310565b506040518060400160405280600381526020017f6279650000000000000000000000000000000000000000000000000000000000815250600790805190602001906200013f92919062000310565b506040518060400160405280600e81526020017f48656c6c6f20486f77207220753f000000000000000000000000000000000000815250600890805190602001906200018d92919062000310565b506002600960006101000a81548160ff02191690836004811115620001b757620001b662000497565b5b02179055506000600960016101000a81548160ff02191690836004811115620001e557620001e462000497565b5b02179055506001600960026101000a81548160ff0219169083600481111562000213576200021262000497565b5b02179055506003600960036101000a81548160ff0219169083600481111562000241576200024062000497565b5b02179055506004600960046101000a81548160ff021916908360048111156200026f576200026e62000497565b5b0217905550604560f81b600960056101000a81548160ff021916908360f81c021790555061454560f01b600960066101000a81548161ffff021916908360f01c02179055506245454560e81b600960086101000a81548162ffffff021916908360e81c0217905550634556558760e01b6009600b6101000a81548163ffffffff021916908360e01c02179055503480156200030957600080fd5b506200052a565b8280546200031e90620004f5565b90600052602060002090601f0160209004810192826200034257600085556200038e565b82601f106200035d57805160ff19168380011785556200038e565b828001600101855582156200038e579182015b828111156200038d57825182559160200191906001019062000370565b5b5090506200039d9190620003a1565b5090565b5b80821115620003bc576000816000905550600101620003a2565b5090565b6000819050919050565b7f4e487b7100000000000000000000000000000000000000000000000000000000600052601160045260246000fd5b60006200040682620003c0565b91506200041383620003c0565b9250817f7fffffffffffffffffffffffffffffffffffffffffffffffffffffffffffffff03831360008312151615620004515762000450620003ca565b5b817f80000000000000000000000000000000000000000000000000000000000000000383126000831216156200048c576200048b620003ca565b5b828201905092915050565b7f4e487b7100000000000000000000000000000000000000000000000000000000600052602160045260246000fd5b7f4e487b7100000000000000000000000000000000000000000000000000000000600052602260045260246000fd5b600060028204905060018216806200050e57607f821691505b602082108103620005245762000523620004c6565b5b50919050565b610d82806200053a6000396000f3fe608060405234801561001057600080fd5b506004361061014d5760003560e01c8063b8636574116100c3578063e589d5821161007c578063e589d58214610362578063e9b6190914610380578063ee4950021461039e578063f528e741146103bc578063fcf814c3146103da578063ffae15ba146103f85761014d565b8063b86365741461029c578063c2d36658146102cc578063c3da42b8146102ea578063cb2182c514610308578063d5da6a2b14610326578063e21f37ce146103445761014d565b80633db3fb0a116101155780633db3fb0a146101e857806344a12d91146102065780634df7e3d01461022457806365f8812c1461024257806366891a8e146102605780638a054ac21461027e5761014d565b80630add6ef2146101525780630dbe671f1461017057806326b9a7401461018e5780632c23de69146101ac5780633a032815146101ca575b600080fd5b61015a610416565b60405161016791906107ef565b60405180910390f35b610178610429565b6040516101859190610823565b60405180910390f35b61019661042f565b6040516101a391906108b5565b60405180910390f35b6101b4610442565b6040516101c191906108e9565b60405180910390f35b6101d2610448565b6040516101df91906108b5565b60405180910390f35b6101f061045b565b6040516101fd919061093f565b60405180910390f35b61020e61046e565b60405161021b91906108b5565b60405180910390f35b61022c610481565b6040516102399190610823565b60405180910390f35b61024a610487565b60405161025791906108b5565b60405180910390f35b61026861049a565b60405161027591906109f3565b60405180910390f35b610286610528565b6040516102939190610a31565b60405180910390f35b6102b660048036038101906102b19190610a7d565b61053b565b6040516102c39190610aff565b60405180910390f35b6102d46105e7565b6040516102e191906109f3565b60405180910390f35b6102f2610675565b6040516102ff9190610823565b60405180910390f35b61031061067b565b60405161031d9190610b5c565b60405180910390f35b61032e61068e565b60405161033b9190610b92565b60405180910390f35b61034c6106a1565b60405161035991906109f3565b60405180910390f35b61036a61072f565b6040516103779190610b92565b60405180910390f35b610388610742565b6040516103959190610be8565b60405180910390f35b6103a6610755565b6040516103b39190610c3e565b60405180910390f35b6103c4610768565b6040516103d191906108b5565b60405180910390f35b6103e261077b565b6040516103ef9190610c9a565b60405180910390f35b6104006107a1565b60405161040d9190610cd1565b60405180910390f35b600960069054906101000a900460f01b81565b60005481565b600960019054906101000a900460ff1681565b60045481565b600960029054906101000a900460ff1681565b6009600b9054906101000a900460e01b81565b600960009054906101000a900460ff1681565b60015481565b600960039054906101000a900460ff1681565b600880546104a790610d1b565b80601f01602080910402602001604051908101604052809291908181526020018280546104d390610d1b565b80156105205780601f106104f557610100808354040283529160200191610520565b820191906000526020600020905b81548152906001019060200180831161050357829003601f168201915b505050505081565b600360009054906101000a900460000b81565b600a818154811061054b57600080fd5b90600052602060002001600091509050805461056690610d1b565b80601f016020809104026020016040519081016040528092919081815260200182805461059290610d1b565b80156105df5780601f106105b4576101008083540402835291602001916105df565b820191906000526020600020905b8154815290600101906020018083116105c257829003601f168201915b505050505081565b600780546105f490610d1b565b80601f016020809104026020016040519081016040528092919081815260200182805461062090610d1b565b801561066d5780601f106106425761010080835404028352916020019161066d565b820191906000526020600020905b81548152906001019060200180831161065057829003601f168201915b505050505081565b60025481565b6009600f9054906101000a900460d81b81565b600560019054906101000a900460ff1681565b600680546106ae90610d1b565b80601f01602080910402602001604051908101604052809291908181526020018280546106da90610d1b565b80156107275780601f106106fc57610100808354040283529160200191610727565b820191906000526020600020905b81548152906001019060200180831161070a57829003601f168201915b505050505081565b600560009054906101000a900460ff1681565b600960089054906101000a900460e81b81565b600960059054906101000a900460f81b81565b600960049054906101000a900460ff1681565b600b60009054906101000a900473ffffffffffffffffffffffffffffffffffffffff1681565b600360019054906101000a900460010b81565b60007fffff00000000000000000000000000000000000000000000000000000000000082169050919050565b6107e9816107b4565b82525050565b600060208201905061080460008301846107e0565b92915050565b6000819050919050565b61081d8161080a565b82525050565b60006020820190506108386000830184610814565b92915050565b7f4e487b7100000000000000000000000000000000000000000000000000000000600052602160045260246000fd5b6005811061087e5761087d61083e565b5b50565b600081905061088f8261086d565b919050565b600061089f82610881565b9050919050565b6108af81610894565b82525050565b60006020820190506108ca60008301846108a6565b92915050565b6000819050919050565b6108e3816108d0565b82525050565b60006020820190506108fe60008301846108da565b92915050565b60007fffffffff0000000000000000000000000000000000000000000000000000000082169050919050565b61093981610904565b82525050565b60006020820190506109546000830184610930565b92915050565b600081519050919050565b600082825260208201905092915050565b60005b83811015610994578082015181840152602081019050610979565b838111156109a3576000848401525b50505050565b6000601f19601f8301169050919050565b60006109c58261095a565b6109cf8185610965565b93506109df818560208601610976565b6109e8816109a9565b840191505092915050565b60006020820190508181036000830152610a0d81846109ba565b905092915050565b60008160000b9050919050565b610a2b81610a15565b82525050565b6000602082019050610a466000830184610a22565b92915050565b600080fd5b610a5a816108d0565b8114610a6557600080fd5b50565b600081359050610a7781610a51565b92915050565b600060208284031215610a9357610a92610a4c565b5b6000610aa184828501610a68565b91505092915050565b600081519050919050565b600082825260208201905092915050565b6000610ad182610aaa565b610adb8185610ab5565b9350610aeb818560208601610976565b610af4816109a9565b840191505092915050565b60006020820190508181036000830152610b198184610ac6565b905092915050565b60007fffffffffff00000000000000000000000000000000000000000000000000000082169050919050565b610b5681610b21565b82525050565b6000602082019050610b716000830184610b4d565b92915050565b60008115159050919050565b610b8c81610b77565b82525050565b6000602082019050610ba76000830184610b83565b92915050565b60007fffffff000000000000000000000000000000000000000000000000000000000082169050919050565b610be281610bad565b82525050565b6000602082019050610bfd6000830184610bd9565b92915050565b60007fff0000000000000000000000000000000000000000000000000000000000000082169050919050565b610c3881610c03565b82525050565b6000602082019050610c536000830184610c2f565b92915050565b600073ffffffffffffffffffffffffffffffffffffffff82169050919050565b6000610c8482610c59565b9050919050565b610c9481610c79565b82525050565b6000602082019050610caf6000830184610c8b565b92915050565b60008160010b9050919050565b610ccb81610cb5565b82525050565b6000602082019050610ce66000830184610cc2565b92915050565b7f4e487b7100000000000000000000000000000000000000000000000000000000600052602260045260246000fd5b60006002820490506001821680610d3357607f821691505b602082108103610d4657610d45610cec565b5b5091905056fea2646970667358221220a9110f25bbf248763ed83c150ec00aac8862b0e2340f1d6070fbaac38e6947fc64736f6c634300080e0033",
					"opcodes": "PUSH1 0x80 PUSH1 0x40 MSTORE PUSH1 0x14 PUSH1 0x0 SSTORE PUSH1 0x14 PUSH1 0x1 SSTORE PUSH1 0x1 SLOAD PUSH1 0x0 SLOAD PUSH3 0x20 SWAP2 SWAP1 PUSH3 0x3F9 JUMP JUMPDEST PUSH1 0x2 SSTORE PUSH1 0x7F PUSH1 0x3 PUSH1 0x0 PUSH2 0x100 EXP DUP2 SLOAD DUP2 PUSH1 0xFF MUL NOT AND SWAP1 DUP4 PUSH1 0x0 SIGNEXTEND PUSH1 0xFF AND MUL OR SWAP1 SSTORE POP PUSH2 0x7FFE PUSH1 0x3 PUSH1 0x1 PUSH2 0x100 EXP DUP2 SLOAD DUP2 PUSH2 0xFFFF MUL NOT AND SWAP1 DUP4 PUSH1 0x1 SIGNEXTEND PUSH2 0xFFFF AND MUL OR SWAP1 SSTORE POP PUSH6 0x5281FE0B1BB PUSH1 0x4 SSTORE PUSH1 0x1 PUSH1 0x5 PUSH1 0x0 PUSH2 0x100 EXP DUP2 SLOAD DUP2 PUSH1 0xFF MUL NOT AND SWAP1 DUP4 ISZERO ISZERO MUL OR SWAP1 SSTORE POP PUSH1 0x0 PUSH1 0x5 PUSH1 0x1 PUSH2 0x100 EXP DUP2 SLOAD DUP2 PUSH1 0xFF MUL NOT AND SWAP1 DUP4 ISZERO ISZERO MUL OR SWAP1 SSTORE POP PUSH1 0x40 MLOAD DUP1 PUSH1 0x40 ADD PUSH1 0x40 MSTORE DUP1 PUSH1 0x5 DUP2 MSTORE PUSH1 0x20 ADD PUSH32 0x48656C6C6F000000000000000000000000000000000000000000000000000000 DUP2 MSTORE POP PUSH1 0x6 SWAP1 DUP1 MLOAD SWAP1 PUSH1 0x20 ADD SWAP1 PUSH3 0xF1 SWAP3 SWAP2 SWAP1 PUSH3 0x310 JUMP JUMPDEST POP PUSH1 0x40 MLOAD DUP1 PUSH1 0x40 ADD PUSH1 0x40 MSTORE DUP1 PUSH1 0x3 DUP2 MSTORE PUSH1 0x20 ADD PUSH32 0x6279650000000000000000000000000000000000000000000000000000000000 DUP2 MSTORE POP PUSH1 0x7 SWAP1 DUP1 MLOAD SWAP1 PUSH1 0x20 ADD SWAP1 PUSH3 0x13F SWAP3 SWAP2 SWAP1 PUSH3 0x310 JUMP JUMPDEST POP PUSH1 0x40 MLOAD DUP1 PUSH1 0x40 ADD PUSH1 0x40 MSTORE DUP1 PUSH1 0xE DUP2 MSTORE PUSH1 0x20 ADD PUSH32 0x48656C6C6F20486F77207220753F000000000000000000000000000000000000 DUP2 MSTORE POP PUSH1 0x8 SWAP1 DUP1 MLOAD SWAP1 PUSH1 0x20 ADD SWAP1 PUSH3 0x18D SWAP3 SWAP2 SWAP1 PUSH3 0x310 JUMP JUMPDEST POP PUSH1 0x2 PUSH1 0x9 PUSH1 0x0 PUSH2 0x100 EXP DUP2 SLOAD DUP2 PUSH1 0xFF MUL NOT AND SWAP1 DUP4 PUSH1 0x4 DUP2 GT ISZERO PUSH3 0x1B7 JUMPI PUSH3 0x1B6 PUSH3 0x497 JUMP JUMPDEST JUMPDEST MUL OR SWAP1 SSTORE POP PUSH1 0x0 PUSH1 0x9 PUSH1 0x1 PUSH2 0x100 EXP DUP2 SLOAD DUP2 PUSH1 0xFF MUL NOT AND SWAP1 DUP4 PUSH1 0x4 DUP2 GT ISZERO PUSH3 0x1E5 JUMPI PUSH3 0x1E4 PUSH3 0x497 JUMP JUMPDEST JUMPDEST MUL OR SWAP1 SSTORE POP PUSH1 0x1 PUSH1 0x9 PUSH1 0x2 PUSH2 0x100 EXP DUP2 SLOAD DUP2 PUSH1 0xFF MUL NOT AND SWAP1 DUP4 PUSH1 0x4 DUP2 GT ISZERO PUSH3 0x213 JUMPI PUSH3 0x212 PUSH3 0x497 JUMP JUMPDEST JUMPDEST MUL OR SWAP1 SSTORE POP PUSH1 0x3 PUSH1 0x9 PUSH1 0x3 PUSH2 0x100 EXP DUP2 SLOAD DUP2 PUSH1 0xFF MUL NOT AND SWAP1 DUP4 PUSH1 0x4 DUP2 GT ISZERO PUSH3 0x241 JUMPI PUSH3 0x240 PUSH3 0x497 JUMP JUMPDEST JUMPDEST MUL OR SWAP1 SSTORE POP PUSH1 0x4 PUSH1 0x9 PUSH1 0x4 PUSH2 0x100 EXP DUP2 SLOAD DUP2 PUSH1 0xFF MUL NOT AND SWAP1 DUP4 PUSH1 0x4 DUP2 GT ISZERO PUSH3 0x26F JUMPI PUSH3 0x26E PUSH3 0x497 JUMP JUMPDEST JUMPDEST MUL OR SWAP1 SSTORE POP PUSH1 0x45 PUSH1 0xF8 SHL PUSH1 0x9 PUSH1 0x5 PUSH2 0x100 EXP DUP2 SLOAD DUP2 PUSH1 0xFF MUL NOT AND SWAP1 DUP4 PUSH1 0xF8 SHR MUL OR SWAP1 SSTORE POP PUSH2 0x4545 PUSH1 0xF0 SHL PUSH1 0x9 PUSH1 0x6 PUSH2 0x100 EXP DUP2 SLOAD DUP2 PUSH2 0xFFFF MUL NOT AND SWAP1 DUP4 PUSH1 0xF0 SHR MUL OR SWAP1 SSTORE POP PUSH3 0x454545 PUSH1 0xE8 SHL PUSH1 0x9 PUSH1 0x8 PUSH2 0x100 EXP DUP2 SLOAD DUP2 PUSH3 0xFFFFFF MUL NOT AND SWAP1 DUP4 PUSH1 0xE8 SHR MUL OR SWAP1 SSTORE POP PUSH4 0x45565587 PUSH1 0xE0 SHL PUSH1 0x9 PUSH1 0xB PUSH2 0x100 EXP DUP2 SLOAD DUP2 PUSH4 0xFFFFFFFF MUL NOT AND SWAP1 DUP4 PUSH1 0xE0 SHR MUL OR SWAP1 SSTORE POP CALLVALUE DUP1 ISZERO PUSH3 0x309 JUMPI PUSH1 0x0 DUP1 REVERT JUMPDEST POP PUSH3 0x52A JUMP JUMPDEST DUP3 DUP1 SLOAD PUSH3 0x31E SWAP1 PUSH3 0x4F5 JUMP JUMPDEST SWAP1 PUSH1 0x0 MSTORE PUSH1 0x20 PUSH1 0x0 KECCAK256 SWAP1 PUSH1 0x1F ADD PUSH1 0x20 SWAP1 DIV DUP2 ADD SWAP3 DUP3 PUSH3 0x342 JUMPI PUSH1 0x0 DUP6 SSTORE PUSH3 0x38E JUMP JUMPDEST DUP3 PUSH1 0x1F LT PUSH3 0x35D JUMPI DUP1 MLOAD PUSH1 0xFF NOT AND DUP4 DUP1 ADD OR DUP6 SSTORE PUSH3 0x38E JUMP JUMPDEST DUP3 DUP1 ADD PUSH1 0x1 ADD DUP6 SSTORE DUP3 ISZERO PUSH3 0x38E JUMPI SWAP2 DUP3 ADD JUMPDEST DUP3 DUP2 GT ISZERO PUSH3 0x38D JUMPI DUP3 MLOAD DUP3 SSTORE SWAP2 PUSH1 0x20 ADD SWAP2 SWAP1 PUSH1 0x1 ADD SWAP1 PUSH3 0x370 JUMP JUMPDEST JUMPDEST POP SWAP1 POP PUSH3 0x39D SWAP2 SWAP1 PUSH3 0x3A1 JUMP JUMPDEST POP SWAP1 JUMP JUMPDEST JUMPDEST DUP1 DUP3 GT ISZERO PUSH3 0x3BC JUMPI PUSH1 0x0 DUP2 PUSH1 0x0 SWAP1 SSTORE POP PUSH1 0x1 ADD PUSH3 0x3A2 JUMP JUMPDEST POP SWAP1 JUMP JUMPDEST PUSH1 0x0 DUP2 SWAP1 POP SWAP2 SWAP1 POP JUMP JUMPDEST PUSH32 0x4E487B7100000000000000000000000000000000000000000000000000000000 PUSH1 0x0 MSTORE PUSH1 0x11 PUSH1 0x4 MSTORE PUSH1 0x24 PUSH1 0x0 REVERT JUMPDEST PUSH1 0x0 PUSH3 0x406 DUP3 PUSH3 0x3C0 JUMP JUMPDEST SWAP2 POP PUSH3 0x413 DUP4 PUSH3 0x3C0 JUMP JUMPDEST SWAP3 POP DUP2 PUSH32 0x7FFFFFFFFFFFFFFFFFFFFFFFFFFFFFFFFFFFFFFFFFFFFFFFFFFFFFFFFFFFFFFF SUB DUP4 SGT PUSH1 0x0 DUP4 SLT ISZERO AND ISZERO PUSH3 0x451 JUMPI PUSH3 0x450 PUSH3 0x3CA JUMP JUMPDEST JUMPDEST DUP2 PUSH32 0x8000000000000000000000000000000000000000000000000000000000000000 SUB DUP4 SLT PUSH1 0x0 DUP4 SLT AND ISZERO PUSH3 0x48C JUMPI PUSH3 0x48B PUSH3 0x3CA JUMP JUMPDEST JUMPDEST DUP3 DUP3 ADD SWAP1 POP SWAP3 SWAP2 POP POP JUMP JUMPDEST PUSH32 0x4E487B7100000000000000000000000000000000000000000000000000000000 PUSH1 0x0 MSTORE PUSH1 0x21 PUSH1 0x4 MSTORE PUSH1 0x24 PUSH1 0x0 REVERT JUMPDEST PUSH32 0x4E487B7100000000000000000000000000000000000000000000000000000000 PUSH1 0x0 MSTORE PUSH1 0x22 PUSH1 0x4 MSTORE PUSH1 0x24 PUSH1 0x0 REVERT JUMPDEST PUSH1 0x0 PUSH1 0x2 DUP3 DIV SWAP1 POP PUSH1 0x1 DUP3 AND DUP1 PUSH3 0x50E JUMPI PUSH1 0x7F DUP3 AND SWAP2 POP JUMPDEST PUSH1 0x20 DUP3 LT DUP2 SUB PUSH3 0x524 JUMPI PUSH3 0x523 PUSH3 0x4C6 JUMP JUMPDEST JUMPDEST POP SWAP2 SWAP1 POP JUMP JUMPDEST PUSH2 0xD82 DUP1 PUSH3 0x53A PUSH1 0x0 CODECOPY PUSH1 0x0 RETURN INVALID PUSH1 0x80 PUSH1 0x40 MSTORE CALLVALUE DUP1 ISZERO PUSH2 0x10 JUMPI PUSH1 0x0 DUP1 REVERT JUMPDEST POP PUSH1 0x4 CALLDATASIZE LT PUSH2 0x14D JUMPI PUSH1 0x0 CALLDATALOAD PUSH1 0xE0 SHR DUP1 PUSH4 0xB8636574 GT PUSH2 0xC3 JUMPI DUP1 PUSH4 0xE589D582 GT PUSH2 0x7C JUMPI DUP1 PUSH4 0xE589D582 EQ PUSH2 0x362 JUMPI DUP1 PUSH4 0xE9B61909 EQ PUSH2 0x380 JUMPI DUP1 PUSH4 0xEE495002 EQ PUSH2 0x39E JUMPI DUP1 PUSH4 0xF528E741 EQ PUSH2 0x3BC JUMPI DUP1 PUSH4 0xFCF814C3 EQ PUSH2 0x3DA JUMPI DUP1 PUSH4 0xFFAE15BA EQ PUSH2 0x3F8 JUMPI PUSH2 0x14D JUMP JUMPDEST DUP1 PUSH4 0xB8636574 EQ PUSH2 0x29C JUMPI DUP1 PUSH4 0xC2D36658 EQ PUSH2 0x2CC JUMPI DUP1 PUSH4 0xC3DA42B8 EQ PUSH2 0x2EA JUMPI DUP1 PUSH4 0xCB2182C5 EQ PUSH2 0x308 JUMPI DUP1 PUSH4 0xD5DA6A2B EQ PUSH2 0x326 JUMPI DUP1 PUSH4 0xE21F37CE EQ PUSH2 0x344 JUMPI PUSH2 0x14D JUMP JUMPDEST DUP1 PUSH4 0x3DB3FB0A GT PUSH2 0x115 JUMPI DUP1 PUSH4 0x3DB3FB0A EQ PUSH2 0x1E8 JUMPI DUP1 PUSH4 0x44A12D91 EQ PUSH2 0x206 JUMPI DUP1 PUSH4 0x4DF7E3D0 EQ PUSH2 0x224 JUMPI DUP1 PUSH4 0x65F8812C EQ PUSH2 0x242 JUMPI DUP1 PUSH4 0x66891A8E EQ PUSH2 0x260 JUMPI DUP1 PUSH4 0x8A054AC2 EQ PUSH2 0x27E JUMPI PUSH2 0x14D JUMP JUMPDEST DUP1 PUSH4 0xADD6EF2 EQ PUSH2 0x152 JUMPI DUP1 PUSH4 0xDBE671F EQ PUSH2 0x170 JUMPI DUP1 PUSH4 0x26B9A740 EQ PUSH2 0x18E JUMPI DUP1 PUSH4 0x2C23DE69 EQ PUSH2 0x1AC JUMPI DUP1 PUSH4 0x3A032815 EQ PUSH2 0x1CA JUMPI JUMPDEST PUSH1 0x0 DUP1 REVERT JUMPDEST PUSH2 0x15A PUSH2 0x416 JUMP JUMPDEST PUSH1 0x40 MLOAD PUSH2 0x167 SWAP2 SWAP1 PUSH2 0x7EF JUMP JUMPDEST PUSH1 0x40 MLOAD DUP1 SWAP2 SUB SWAP1 RETURN JUMPDEST PUSH2 0x178 PUSH2 0x429 JUMP JUMPDEST PUSH1 0x40 MLOAD PUSH2 0x185 SWAP2 SWAP1 PUSH2 0x823 JUMP JUMPDEST PUSH1 0x40 MLOAD DUP1 SWAP2 SUB SWAP1 RETURN JUMPDEST PUSH2 0x196 PUSH2 0x42F JUMP JUMPDEST PUSH1 0x40 MLOAD PUSH2 0x1A3 SWAP2 SWAP1 PUSH2 0x8B5 JUMP JUMPDEST PUSH1 0x40 MLOAD DUP1 SWAP2 SUB SWAP1 RETURN JUMPDEST PUSH2 0x1B4 PUSH2 0x442 JUMP JUMPDEST PUSH1 0x40 MLOAD PUSH2 0x1C1 SWAP2 SWAP1 PUSH2 0x8E9 JUMP JUMPDEST PUSH1 0x40 MLOAD DUP1 SWAP2 SUB SWAP1 RETURN JUMPDEST PUSH2 0x1D2 PUSH2 0x448 JUMP JUMPDEST PUSH1 0x40 MLOAD PUSH2 0x1DF SWAP2 SWAP1 PUSH2 0x8B5 JUMP JUMPDEST PUSH1 0x40 MLOAD DUP1 SWAP2 SUB SWAP1 RETURN JUMPDEST PUSH2 0x1F0 PUSH2 0x45B JUMP JUMPDEST PUSH1 0x40 MLOAD PUSH2 0x1FD SWAP2 SWAP1 PUSH2 0x93F JUMP JUMPDEST PUSH1 0x40 MLOAD DUP1 SWAP2 SUB SWAP1 RETURN JUMPDEST PUSH2 0x20E PUSH2 0x46E JUMP JUMPDEST PUSH1 0x40 MLOAD PUSH2 0x21B SWAP2 SWAP1 PUSH2 0x8B5 JUMP JUMPDEST PUSH1 0x40 MLOAD DUP1 SWAP2 SUB SWAP1 RETURN JUMPDEST PUSH2 0x22C PUSH2 0x481 JUMP JUMPDEST PUSH1 0x40 MLOAD PUSH2 0x239 SWAP2 SWAP1 PUSH2 0x823 JUMP JUMPDEST PUSH1 0x40 MLOAD DUP1 SWAP2 SUB SWAP1 RETURN JUMPDEST PUSH2 0x24A PUSH2 0x487 JUMP JUMPDEST PUSH1 0x40 MLOAD PUSH2 0x257 SWAP2 SWAP1 PUSH2 0x8B5 JUMP JUMPDEST PUSH1 0x40 MLOAD DUP1 SWAP2 SUB SWAP1 RETURN JUMPDEST PUSH2 0x268 PUSH2 0x49A JUMP JUMPDEST PUSH1 0x40 MLOAD PUSH2 0x275 SWAP2 SWAP1 PUSH2 0x9F3 JUMP JUMPDEST PUSH1 0x40 MLOAD DUP1 SWAP2 SUB SWAP1 RETURN JUMPDEST PUSH2 0x286 PUSH2 0x528 JUMP JUMPDEST PUSH1 0x40 MLOAD PUSH2 0x293 SWAP2 SWAP1 PUSH2 0xA31 JUMP JUMPDEST PUSH1 0x40 MLOAD DUP1 SWAP2 SUB SWAP1 RETURN JUMPDEST PUSH2 0x2B6 PUSH1 0x4 DUP1 CALLDATASIZE SUB DUP2 ADD SWAP1 PUSH2 0x2B1 SWAP2 SWAP1 PUSH2 0xA7D JUMP JUMPDEST PUSH2 0x53B JUMP JUMPDEST PUSH1 0x40 MLOAD PUSH2 0x2C3 SWAP2 SWAP1 PUSH2 0xAFF JUMP JUMPDEST PUSH1 0x40 MLOAD DUP1 SWAP2 SUB SWAP1 RETURN JUMPDEST PUSH2 0x2D4 PUSH2 0x5E7 JUMP JUMPDEST PUSH1 0x40 MLOAD PUSH2 0x2E1 SWAP2 SWAP1 PUSH2 0x9F3 JUMP JUMPDEST PUSH1 0x40 MLOAD DUP1 SWAP2 SUB SWAP1 RETURN JUMPDEST PUSH2 0x2F2 PUSH2 0x675 JUMP JUMPDEST PUSH1 0x40 MLOAD PUSH2 0x2FF SWAP2 SWAP1 PUSH2 0x823 JUMP JUMPDEST PUSH1 0x40 MLOAD DUP1 SWAP2 SUB SWAP1 RETURN JUMPDEST PUSH2 0x310 PUSH2 0x67B JUMP JUMPDEST PUSH1 0x40 MLOAD PUSH2 0x31D SWAP2 SWAP1 PUSH2 0xB5C JUMP JUMPDEST PUSH1 0x40 MLOAD DUP1 SWAP2 SUB SWAP1 RETURN JUMPDEST PUSH2 0x32E PUSH2 0x68E JUMP JUMPDEST PUSH1 0x40 MLOAD PUSH2 0x33B SWAP2 SWAP1 PUSH2 0xB92 JUMP JUMPDEST PUSH1 0x40 MLOAD DUP1 SWAP2 SUB SWAP1 RETURN JUMPDEST PUSH2 0x34C PUSH2 0x6A1 JUMP JUMPDEST PUSH1 0x40 MLOAD PUSH2 0x359 SWAP2 SWAP1 PUSH2 0x9F3 JUMP JUMPDEST PUSH1 0x40 MLOAD DUP1 SWAP2 SUB SWAP1 RETURN JUMPDEST PUSH2 0x36A PUSH2 0x72F JUMP JUMPDEST PUSH1 0x40 MLOAD PUSH2 0x377 SWAP2 SWAP1 PUSH2 0xB92 JUMP JUMPDEST PUSH1 0x40 MLOAD DUP1 SWAP2 SUB SWAP1 RETURN JUMPDEST PUSH2 0x388 PUSH2 0x742 JUMP JUMPDEST PUSH1 0x40 MLOAD PUSH2 0x395 SWAP2 SWAP1 PUSH2 0xBE8 JUMP JUMPDEST PUSH1 0x40 MLOAD DUP1 SWAP2 SUB SWAP1 RETURN JUMPDEST PUSH2 0x3A6 PUSH2 0x755 JUMP JUMPDEST PUSH1 0x40 MLOAD PUSH2 0x3B3 SWAP2 SWAP1 PUSH2 0xC3E JUMP JUMPDEST PUSH1 0x40 MLOAD DUP1 SWAP2 SUB SWAP1 RETURN JUMPDEST PUSH2 0x3C4 PUSH2 0x768 JUMP JUMPDEST PUSH1 0x40 MLOAD PUSH2 0x3D1 SWAP2 SWAP1 PUSH2 0x8B5 JUMP JUMPDEST PUSH1 0x40 MLOAD DUP1 SWAP2 SUB SWAP1 RETURN JUMPDEST PUSH2 0x3E2 PUSH2 0x77B JUMP JUMPDEST PUSH1 0x40 MLOAD PUSH2 0x3EF SWAP2 SWAP1 PUSH2 0xC9A JUMP JUMPDEST PUSH1 0x40 MLOAD DUP1 SWAP2 SUB SWAP1 RETURN JUMPDEST PUSH2 0x400 PUSH2 0x7A1 JUMP JUMPDEST PUSH1 0x40 MLOAD PUSH2 0x40D SWAP2 SWAP1 PUSH2 0xCD1 JUMP JUMPDEST PUSH1 0x40 MLOAD DUP1 SWAP2 SUB SWAP1 RETURN JUMPDEST PUSH1 0x9 PUSH1 0x6 SWAP1 SLOAD SWAP1 PUSH2 0x100 EXP SWAP1 DIV PUSH1 0xF0 SHL DUP2 JUMP JUMPDEST PUSH1 0x0 SLOAD DUP2 JUMP JUMPDEST PUSH1 0x9 PUSH1 0x1 SWAP1 SLOAD SWAP1 PUSH2 0x100 EXP SWAP1 DIV PUSH1 0xFF AND DUP2 JUMP JUMPDEST PUSH1 0x4 SLOAD DUP2 JUMP JUMPDEST PUSH1 0x9 PUSH1 0x2 SWAP1 SLOAD SWAP1 PUSH2 0x100 EXP SWAP1 DIV PUSH1 0xFF AND DUP2 JUMP JUMPDEST PUSH1 0x9 PUSH1 0xB SWAP1 SLOAD SWAP1 PUSH2 0x100 EXP SWAP1 DIV PUSH1 0xE0 SHL DUP2 JUMP JUMPDEST PUSH1 0x9 PUSH1 0x0 SWAP1 SLOAD SWAP1 PUSH2 0x100 EXP SWAP1 DIV PUSH1 0xFF AND DUP2 JUMP JUMPDEST PUSH1 0x1 SLOAD DUP2 JUMP JUMPDEST PUSH1 0x9 PUSH1 0x3 SWAP1 SLOAD SWAP1 PUSH2 0x100 EXP SWAP1 DIV PUSH1 0xFF AND DUP2 JUMP JUMPDEST PUSH1 0x8 DUP1 SLOAD PUSH2 0x4A7 SWAP1 PUSH2 0xD1B JUMP JUMPDEST DUP1 PUSH1 0x1F ADD PUSH1 0x20 DUP1 SWAP2 DIV MUL PUSH1 0x20 ADD PUSH1 0x40 MLOAD SWAP1 DUP2 ADD PUSH1 0x40 MSTORE DUP1 SWAP3 SWAP2 SWAP1 DUP2 DUP2 MSTORE PUSH1 0x20 ADD DUP3 DUP1 SLOAD PUSH2 0x4D3 SWAP1 PUSH2 0xD1B JUMP JUMPDEST DUP1 ISZERO PUSH2 0x520 JUMPI DUP1 PUSH1 0x1F LT PUSH2 0x4F5 JUMPI PUSH2 0x100 DUP1 DUP4 SLOAD DIV MUL DUP4 MSTORE SWAP2 PUSH1 0x20 ADD SWAP2 PUSH2 0x520 JUMP JUMPDEST DUP3 ADD SWAP2 SWAP1 PUSH1 0x0 MSTORE PUSH1 0x20 PUSH1 0x0 KECCAK256 SWAP1 JUMPDEST DUP2 SLOAD DUP2 MSTORE SWAP1 PUSH1 0x1 ADD SWAP1 PUSH1 0x20 ADD DUP1 DUP4 GT PUSH2 0x503 JUMPI DUP3 SWAP1 SUB PUSH1 0x1F AND DUP3 ADD SWAP2 JUMPDEST POP POP POP POP POP DUP2 JUMP JUMPDEST PUSH1 0x3 PUSH1 0x0 SWAP1 SLOAD SWAP1 PUSH2 0x100 EXP SWAP1 DIV PUSH1 0x0 SIGNEXTEND DUP2 JUMP JUMPDEST PUSH1 0xA DUP2 DUP2 SLOAD DUP2 LT PUSH2 0x54B JUMPI PUSH1 0x0 DUP1 REVERT JUMPDEST SWAP1 PUSH1 0x0 MSTORE PUSH1 0x20 PUSH1 0x0 KECCAK256 ADD PUSH1 0x0 SWAP2 POP SWAP1 POP DUP1 SLOAD PUSH2 0x566 SWAP1 PUSH2 0xD1B JUMP JUMPDEST DUP1 PUSH1 0x1F ADD PUSH1 0x20 DUP1 SWAP2 DIV MUL PUSH1 0x20 ADD PUSH1 0x40 MLOAD SWAP1 DUP2 ADD PUSH1 0x40 MSTORE DUP1 SWAP3 SWAP2 SWAP1 DUP2 DUP2 MSTORE PUSH1 0x20 ADD DUP3 DUP1 SLOAD PUSH2 0x592 SWAP1 PUSH2 0xD1B JUMP JUMPDEST DUP1 ISZERO PUSH2 0x5DF JUMPI DUP1 PUSH1 0x1F LT PUSH2 0x5B4 JUMPI PUSH2 0x100 DUP1 DUP4 SLOAD DIV MUL DUP4 MSTORE SWAP2 PUSH1 0x20 ADD SWAP2 PUSH2 0x5DF JUMP JUMPDEST DUP3 ADD SWAP2 SWAP1 PUSH1 0x0 MSTORE PUSH1 0x20 PUSH1 0x0 KECCAK256 SWAP1 JUMPDEST DUP2 SLOAD DUP2 MSTORE SWAP1 PUSH1 0x1 ADD SWAP1 PUSH1 0x20 ADD DUP1 DUP4 GT PUSH2 0x5C2 JUMPI DUP3 SWAP1 SUB PUSH1 0x1F AND DUP3 ADD SWAP2 JUMPDEST POP POP POP POP POP DUP2 JUMP JUMPDEST PUSH1 0x7 DUP1 SLOAD PUSH2 0x5F4 SWAP1 PUSH2 0xD1B JUMP JUMPDEST DUP1 PUSH1 0x1F ADD PUSH1 0x20 DUP1 SWAP2 DIV MUL PUSH1 0x20 ADD PUSH1 0x40 MLOAD SWAP1 DUP2 ADD PUSH1 0x40 MSTORE DUP1 SWAP3 SWAP2 SWAP1 DUP2 DUP2 MSTORE PUSH1 0x20 ADD DUP3 DUP1 SLOAD PUSH2 0x620 SWAP1 PUSH2 0xD1B JUMP JUMPDEST DUP1 ISZERO PUSH2 0x66D JUMPI DUP1 PUSH1 0x1F LT PUSH2 0x642 JUMPI PUSH2 0x100 DUP1 DUP4 SLOAD DIV MUL DUP4 MSTORE SWAP2 PUSH1 0x20 ADD SWAP2 PUSH2 0x66D JUMP JUMPDEST DUP3 ADD SWAP2 SWAP1 PUSH1 0x0 MSTORE PUSH1 0x20 PUSH1 0x0 KECCAK256 SWAP1 JUMPDEST DUP2 SLOAD DUP2 MSTORE SWAP1 PUSH1 0x1 ADD SWAP1 PUSH1 0x20 ADD DUP1 DUP4 GT PUSH2 0x650 JUMPI DUP3 SWAP1 SUB PUSH1 0x1F AND DUP3 ADD SWAP2 JUMPDEST POP POP POP POP POP DUP2 JUMP JUMPDEST PUSH1 0x2 SLOAD DUP2 JUMP JUMPDEST PUSH1 0x9 PUSH1 0xF SWAP1 SLOAD SWAP1 PUSH2 0x100 EXP SWAP1 DIV PUSH1 0xD8 SHL DUP2 JUMP JUMPDEST PUSH1 0x5 PUSH1 0x1 SWAP1 SLOAD SWAP1 PUSH2 0x100 EXP SWAP1 DIV PUSH1 0xFF AND DUP2 JUMP JUMPDEST PUSH1 0x6 DUP1 SLOAD PUSH2 0x6AE SWAP1 PUSH2 0xD1B JUMP JUMPDEST DUP1 PUSH1 0x1F ADD PUSH1 0x20 DUP1 SWAP2 DIV MUL PUSH1 0x20 ADD PUSH1 0x40 MLOAD SWAP1 DUP2 ADD PUSH1 0x40 MSTORE DUP1 SWAP3 SWAP2 SWAP1 DUP2 DUP2 MSTORE PUSH1 0x20 ADD DUP3 DUP1 SLOAD PUSH2 0x6DA SWAP1 PUSH2 0xD1B JUMP JUMPDEST DUP1 ISZERO PUSH2 0x727 JUMPI DUP1 PUSH1 0x1F LT PUSH2 0x6FC JUMPI PUSH2 0x100 DUP1 DUP4 SLOAD DIV MUL DUP4 MSTORE SWAP2 PUSH1 0x20 ADD SWAP2 PUSH2 0x727 JUMP JUMPDEST DUP3 ADD SWAP2 SWAP1 PUSH1 0x0 MSTORE PUSH1 0x20 PUSH1 0x0 KECCAK256 SWAP1 JUMPDEST DUP2 SLOAD DUP2 MSTORE SWAP1 PUSH1 0x1 ADD SWAP1 PUSH1 0x20 ADD DUP1 DUP4 GT PUSH2 0x70A JUMPI DUP3 SWAP1 SUB PUSH1 0x1F AND DUP3 ADD SWAP2 JUMPDEST POP POP POP POP POP DUP2 JUMP JUMPDEST PUSH1 0x5 PUSH1 0x0 SWAP1 SLOAD SWAP1 PUSH2 0x100 EXP SWAP1 DIV PUSH1 0xFF AND DUP2 JUMP JUMPDEST PUSH1 0x9 PUSH1 0x8 SWAP1 SLOAD SWAP1 PUSH2 0x100 EXP SWAP1 DIV PUSH1 0xE8 SHL DUP2 JUMP JUMPDEST PUSH1 0x9 PUSH1 0x5 SWAP1 SLOAD SWAP1 PUSH2 0x100 EXP SWAP1 DIV PUSH1 0xF8 SHL DUP2 JUMP JUMPDEST PUSH1 0x9 PUSH1 0x4 SWAP1 SLOAD SWAP1 PUSH2 0x100 EXP SWAP1 DIV PUSH1 0xFF AND DUP2 JUMP JUMPDEST PUSH1 0xB PUSH1 0x0 SWAP1 SLOAD SWAP1 PUSH2 0x100 EXP SWAP1 DIV PUSH20 0xFFFFFFFFFFFFFFFFFFFFFFFFFFFFFFFFFFFFFFFF AND DUP2 JUMP JUMPDEST PUSH1 0x3 PUSH1 0x1 SWAP1 SLOAD SWAP1 PUSH2 0x100 EXP SWAP1 DIV PUSH1 0x1 SIGNEXTEND DUP2 JUMP JUMPDEST PUSH1 0x0 PUSH32 0xFFFF000000000000000000000000000000000000000000000000000000000000 DUP3 AND SWAP1 POP SWAP2 SWAP1 POP JUMP JUMPDEST PUSH2 0x7E9 DUP2 PUSH2 0x7B4 JUMP JUMPDEST DUP3 MSTORE POP POP JUMP JUMPDEST PUSH1 0x0 PUSH1 0x20 DUP3 ADD SWAP1 POP PUSH2 0x804 PUSH1 0x0 DUP4 ADD DUP5 PUSH2 0x7E0 JUMP JUMPDEST SWAP3 SWAP2 POP POP JUMP JUMPDEST PUSH1 0x0 DUP2 SWAP1 POP SWAP2 SWAP1 POP JUMP JUMPDEST PUSH2 0x81D DUP2 PUSH2 0x80A JUMP JUMPDEST DUP3 MSTORE POP POP JUMP JUMPDEST PUSH1 0x0 PUSH1 0x20 DUP3 ADD SWAP1 POP PUSH2 0x838 PUSH1 0x0 DUP4 ADD DUP5 PUSH2 0x814 JUMP JUMPDEST SWAP3 SWAP2 POP POP JUMP JUMPDEST PUSH32 0x4E487B7100000000000000000000000000000000000000000000000000000000 PUSH1 0x0 MSTORE PUSH1 0x21 PUSH1 0x4 MSTORE PUSH1 0x24 PUSH1 0x0 REVERT JUMPDEST PUSH1 0x5 DUP2 LT PUSH2 0x87E JUMPI PUSH2 0x87D PUSH2 0x83E JUMP JUMPDEST JUMPDEST POP JUMP JUMPDEST PUSH1 0x0 DUP2 SWAP1 POP PUSH2 0x88F DUP3 PUSH2 0x86D JUMP JUMPDEST SWAP2 SWAP1 POP JUMP JUMPDEST PUSH1 0x0 PUSH2 0x89F DUP3 PUSH2 0x881 JUMP JUMPDEST SWAP1 POP SWAP2 SWAP1 POP JUMP JUMPDEST PUSH2 0x8AF DUP2 PUSH2 0x894 JUMP JUMPDEST DUP3 MSTORE POP POP JUMP JUMPDEST PUSH1 0x0 PUSH1 0x20 DUP3 ADD SWAP1 POP PUSH2 0x8CA PUSH1 0x0 DUP4 ADD DUP5 PUSH2 0x8A6 JUMP JUMPDEST SWAP3 SWAP2 POP POP JUMP JUMPDEST PUSH1 0x0 DUP2 SWAP1 POP SWAP2 SWAP1 POP JUMP JUMPDEST PUSH2 0x8E3 DUP2 PUSH2 0x8D0 JUMP JUMPDEST DUP3 MSTORE POP POP JUMP JUMPDEST PUSH1 0x0 PUSH1 0x20 DUP3 ADD SWAP1 POP PUSH2 0x8FE PUSH1 0x0 DUP4 ADD DUP5 PUSH2 0x8DA JUMP JUMPDEST SWAP3 SWAP2 POP POP JUMP JUMPDEST PUSH1 0x0 PUSH32 0xFFFFFFFF00000000000000000000000000000000000000000000000000000000 DUP3 AND SWAP1 POP SWAP2 SWAP1 POP JUMP JUMPDEST PUSH2 0x939 DUP2 PUSH2 0x904 JUMP JUMPDEST DUP3 MSTORE POP POP JUMP JUMPDEST PUSH1 0x0 PUSH1 0x20 DUP3 ADD SWAP1 POP PUSH2 0x954 PUSH1 0x0 DUP4 ADD DUP5 PUSH2 0x930 JUMP JUMPDEST SWAP3 SWAP2 POP POP JUMP JUMPDEST PUSH1 0x0 DUP2 MLOAD SWAP1 POP SWAP2 SWAP1 POP JUMP JUMPDEST PUSH1 0x0 DUP3 DUP3 MSTORE PUSH1 0x20 DUP3 ADD SWAP1 POP SWAP3 SWAP2 POP POP JUMP JUMPDEST PUSH1 0x0 JUMPDEST DUP4 DUP2 LT ISZERO PUSH2 0x994 JUMPI DUP1 DUP3 ADD MLOAD DUP2 DUP5 ADD MSTORE PUSH1 0x20 DUP2 ADD SWAP1 POP PUSH2 0x979 JUMP JUMPDEST DUP4 DUP2 GT ISZERO PUSH2 0x9A3 JUMPI PUSH1 0x0 DUP5 DUP5 ADD MSTORE JUMPDEST POP POP POP POP JUMP JUMPDEST PUSH1 0x0 PUSH1 0x1F NOT PUSH1 0x1F DUP4 ADD AND SWAP1 POP SWAP2 SWAP1 POP JUMP JUMPDEST PUSH1 0x0 PUSH2 0x9C5 DUP3 PUSH2 0x95A JUMP JUMPDEST PUSH2 0x9CF DUP2 DUP6 PUSH2 0x965 JUMP JUMPDEST SWAP4 POP PUSH2 0x9DF DUP2 DUP6 PUSH1 0x20 DUP7 ADD PUSH2 0x976 JUMP JUMPDEST PUSH2 0x9E8 DUP2 PUSH2 0x9A9 JUMP JUMPDEST DUP5 ADD SWAP2 POP POP SWAP3 SWAP2 POP POP JUMP JUMPDEST PUSH1 0x0 PUSH1 0x20 DUP3 ADD SWAP1 POP DUP2 DUP2 SUB PUSH1 0x0 DUP4 ADD MSTORE PUSH2 0xA0D DUP2 DUP5 PUSH2 0x9BA JUMP JUMPDEST SWAP1 POP SWAP3 SWAP2 POP POP JUMP JUMPDEST PUSH1 0x0 DUP2 PUSH1 0x0 SIGNEXTEND SWAP1 POP SWAP2 SWAP1 POP JUMP JUMPDEST PUSH2 0xA2B DUP2 PUSH2 0xA15 JUMP JUMPDEST DUP3 MSTORE POP POP JUMP JUMPDEST PUSH1 0x0 PUSH1 0x20 DUP3 ADD SWAP1 POP PUSH2 0xA46 PUSH1 0x0 DUP4 ADD DUP5 PUSH2 0xA22 JUMP JUMPDEST SWAP3 SWAP2 POP POP JUMP JUMPDEST PUSH1 0x0 DUP1 REVERT JUMPDEST PUSH2 0xA5A DUP2 PUSH2 0x8D0 JUMP JUMPDEST DUP2 EQ PUSH2 0xA65 JUMPI PUSH1 0x0 DUP1 REVERT JUMPDEST POP JUMP JUMPDEST PUSH1 0x0 DUP2 CALLDATALOAD SWAP1 POP PUSH2 0xA77 DUP2 PUSH2 0xA51 JUMP JUMPDEST SWAP3 SWAP2 POP POP JUMP JUMPDEST PUSH1 0x0 PUSH1 0x20 DUP3 DUP5 SUB SLT ISZERO PUSH2 0xA93 JUMPI PUSH2 0xA92 PUSH2 0xA4C JUMP JUMPDEST JUMPDEST PUSH1 0x0 PUSH2 0xAA1 DUP5 DUP3 DUP6 ADD PUSH2 0xA68 JUMP JUMPDEST SWAP2 POP POP SWAP3 SWAP2 POP POP JUMP JUMPDEST PUSH1 0x0 DUP2 MLOAD SWAP1 POP SWAP2 SWAP1 POP JUMP JUMPDEST PUSH1 0x0 DUP3 DUP3 MSTORE PUSH1 0x20 DUP3 ADD SWAP1 POP SWAP3 SWAP2 POP POP JUMP JUMPDEST PUSH1 0x0 PUSH2 0xAD1 DUP3 PUSH2 0xAAA JUMP JUMPDEST PUSH2 0xADB DUP2 DUP6 PUSH2 0xAB5 JUMP JUMPDEST SWAP4 POP PUSH2 0xAEB DUP2 DUP6 PUSH1 0x20 DUP7 ADD PUSH2 0x976 JUMP JUMPDEST PUSH2 0xAF4 DUP2 PUSH2 0x9A9 JUMP JUMPDEST DUP5 ADD SWAP2 POP POP SWAP3 SWAP2 POP POP JUMP JUMPDEST PUSH1 0x0 PUSH1 0x20 DUP3 ADD SWAP1 POP DUP2 DUP2 SUB PUSH1 0x0 DUP4 ADD MSTORE PUSH2 0xB19 DUP2 DUP5 PUSH2 0xAC6 JUMP JUMPDEST SWAP1 POP SWAP3 SWAP2 POP POP JUMP JUMPDEST PUSH1 0x0 PUSH32 0xFFFFFFFFFF000000000000000000000000000000000000000000000000000000 DUP3 AND SWAP1 POP SWAP2 SWAP1 POP JUMP JUMPDEST PUSH2 0xB56 DUP2 PUSH2 0xB21 JUMP JUMPDEST DUP3 MSTORE POP POP JUMP JUMPDEST PUSH1 0x0 PUSH1 0x20 DUP3 ADD SWAP1 POP PUSH2 0xB71 PUSH1 0x0 DUP4 ADD DUP5 PUSH2 0xB4D JUMP JUMPDEST SWAP3 SWAP2 POP POP JUMP JUMPDEST PUSH1 0x0 DUP2 ISZERO ISZERO SWAP1 POP SWAP2 SWAP1 POP JUMP JUMPDEST PUSH2 0xB8C DUP2 PUSH2 0xB77 JUMP JUMPDEST DUP3 MSTORE POP POP JUMP JUMPDEST PUSH1 0x0 PUSH1 0x20 DUP3 ADD SWAP1 POP PUSH2 0xBA7 PUSH1 0x0 DUP4 ADD DUP5 PUSH2 0xB83 JUMP JUMPDEST SWAP3 SWAP2 POP POP JUMP JUMPDEST PUSH1 0x0 PUSH32 0xFFFFFF0000000000000000000000000000000000000000000000000000000000 DUP3 AND SWAP1 POP SWAP2 SWAP1 POP JUMP JUMPDEST PUSH2 0xBE2 DUP2 PUSH2 0xBAD JUMP JUMPDEST DUP3 MSTORE POP POP JUMP JUMPDEST PUSH1 0x0 PUSH1 0x20 DUP3 ADD SWAP1 POP PUSH2 0xBFD PUSH1 0x0 DUP4 ADD DUP5 PUSH2 0xBD9 JUMP JUMPDEST SWAP3 SWAP2 POP POP JUMP JUMPDEST PUSH1 0x0 PUSH32 0xFF00000000000000000000000000000000000000000000000000000000000000 DUP3 AND SWAP1 POP SWAP2 SWAP1 POP JUMP JUMPDEST PUSH2 0xC38 DUP2 PUSH2 0xC03 JUMP JUMPDEST DUP3 MSTORE POP POP JUMP JUMPDEST PUSH1 0x0 PUSH1 0x20 DUP3 ADD SWAP1 POP PUSH2 0xC53 PUSH1 0x0 DUP4 ADD DUP5 PUSH2 0xC2F JUMP JUMPDEST SWAP3 SWAP2 POP POP JUMP JUMPDEST PUSH1 0x0 PUSH20 0xFFFFFFFFFFFFFFFFFFFFFFFFFFFFFFFFFFFFFFFF DUP3 AND SWAP1 POP SWAP2 SWAP1 POP JUMP JUMPDEST PUSH1 0x0 PUSH2 0xC84 DUP3 PUSH2 0xC59 JUMP JUMPDEST SWAP1 POP SWAP2 SWAP1 POP JUMP JUMPDEST PUSH2 0xC94 DUP2 PUSH2 0xC79 JUMP JUMPDEST DUP3 MSTORE POP POP JUMP JUMPDEST PUSH1 0x0 PUSH1 0x20 DUP3 ADD SWAP1 POP PUSH2 0xCAF PUSH1 0x0 DUP4 ADD DUP5 PUSH2 0xC8B JUMP JUMPDEST SWAP3 SWAP2 POP POP JUMP JUMPDEST PUSH1 0x0 DUP2 PUSH1 0x1 SIGNEXTEND SWAP1 POP SWAP2 SWAP1 POP JUMP JUMPDEST PUSH2 0xCCB DUP2 PUSH2 0xCB5 JUMP JUMPDEST DUP3 MSTORE POP POP JUMP JUMPDEST PUSH1 0x0 PUSH1 0x20 DUP3 ADD SWAP1 POP PUSH2 0xCE6 PUSH1 0x0 DUP4 ADD DUP5 PUSH2 0xCC2 JUMP JUMPDEST SWAP3 SWAP2 POP POP JUMP JUMPDEST PUSH32 0x4E487B7100000000000000000000000000000000000000000000000000000000 PUSH1 0x0 MSTORE PUSH1 0x22 PUSH1 0x4 MSTORE PUSH1 0x24 PUSH1 0x0 REVERT JUMPDEST PUSH1 0x0 PUSH1 0x2 DUP3 DIV SWAP1 POP PUSH1 0x1 DUP3 AND DUP1 PUSH2 0xD33 JUMPI PUSH1 0x7F DUP3 AND SWAP2 POP JUMPDEST PUSH1 0x20 DUP3 LT DUP2 SUB PUSH2 0xD46 JUMPI PUSH2 0xD45 PUSH2 0xCEC JUMP JUMPDEST JUMPDEST POP SWAP2 SWAP1 POP JUMP INVALID LOG2 PUSH5 0x6970667358 0x22 SLT KECCAK256 0xA9 GT 0xF 0x25 0xBB CALLCODE BASEFEE PUSH23 0x3ED83C150EC00AAC8862B0E2340F1D6070FBAAC38E6947 0xFC PUSH5 0x736F6C6343 STOP ADDMOD 0xE STOP CALLER "
				},
				"gasEstimates": {
					"creation": {
						"codeDepositCost": "691600",
						"executionCost": "infinite",
						"totalCost": "infinite"
					},
					"external": {
						"a()": "2475",
						"b()": "2496",
						"b1()": "2587",
						"b2()": "2545",
						"b3()": "2565",
						"b4()": "2544",
						"b5()": "2610",
						"b6(uint256)": "infinite",
						"c()": "2496",
						"d()": "2608",
						"e()": "2657",
						"maxint()": "2519",
						"message()": "infinite",
						"message2()": "infinite",
						"message3()": "infinite",
						"myaddress()": "2624",
						"si()": "2605",
						"si2()": "2678",
						"si3()": "2722",
						"si4()": "2699",
						"si5()": "2698",
						"status1()": "2493",
						"status2()": "2632"
					}
				},
				"methodIdentifiers": {
					"a()": "0dbe671f",
					"b()": "4df7e3d0",
					"b1()": "ee495002",
					"b2()": "0add6ef2",
					"b3()": "e9b61909",
					"b4()": "3db3fb0a",
					"b5()": "cb2182c5",
					"b6(uint256)": "b8636574",
					"c()": "c3da42b8",
					"d()": "8a054ac2",
					"e()": "ffae15ba",
					"maxint()": "2c23de69",
					"message()": "e21f37ce",
					"message2()": "c2d36658",
					"message3()": "66891a8e",
					"myaddress()": "fcf814c3",
					"si()": "44a12d91",
					"si2()": "26b9a740",
					"si3()": "3a032815",
					"si4()": "65f8812c",
					"si5()": "f528e741",
					"status1()": "e589d582",
					"status2()": "d5da6a2b"
				}
			},
			"storageLayout": {
				"storage": [
					{
						"astId": 4,
						"contract": "contracts/First.sol:addittion",
						"label": "a",
						"offset": 0,
						"slot": "0",
						"type": "t_int256"
					},
					{
						"astId": 7,
						"contract": "contracts/First.sol:addittion",
						"label": "b",
						"offset": 0,
						"slot": "1",
						"type": "t_int256"
					},
					{
						"astId": 12,
						"contract": "contracts/First.sol:addittion",
						"label": "c",
						"offset": 0,
						"slot": "2",
						"type": "t_int256"
					},
					{
						"astId": 15,
						"contract": "contracts/First.sol:addittion",
						"label": "d",
						"offset": 0,
						"slot": "3",
						"type": "t_int8"
					},
					{
						"astId": 18,
						"contract": "contracts/First.sol:addittion",
						"label": "e",
						"offset": 1,
						"slot": "3",
						"type": "t_int16"
					},
					{
						"astId": 21,
						"contract": "contracts/First.sol:addittion",
						"label": "maxint",
						"offset": 0,
						"slot": "4",
						"type": "t_uint256"
					},
					{
						"astId": 24,
						"contract": "contracts/First.sol:addittion",
						"label": "status1",
						"offset": 0,
						"slot": "5",
						"type": "t_bool"
					},
					{
						"astId": 27,
						"contract": "contracts/First.sol:addittion",
						"label": "status2",
						"offset": 1,
						"slot": "5",
						"type": "t_bool"
					},
					{
						"astId": 30,
						"contract": "contracts/First.sol:addittion",
						"label": "message",
						"offset": 0,
						"slot": "6",
						"type": "t_string_storage"
					},
					{
						"astId": 33,
						"contract": "contracts/First.sol:addittion",
						"label": "message2",
						"offset": 0,
						"slot": "7",
						"type": "t_string_storage"
					},
					{
						"astId": 36,
						"contract": "contracts/First.sol:addittion",
						"label": "message3",
						"offset": 0,
						"slot": "8",
						"type": "t_string_storage"
					},
					{
						"astId": 47,
						"contract": "contracts/First.sol:addittion",
						"label": "si",
						"offset": 0,
						"slot": "9",
						"type": "t_enum(Status)42"
					},
					{
						"astId": 52,
						"contract": "contracts/First.sol:addittion",
						"label": "si2",
						"offset": 1,
						"slot": "9",
						"type": "t_enum(Status)42"
					},
					{
						"astId": 57,
						"contract": "contracts/First.sol:addittion",
						"label": "si3",
						"offset": 2,
						"slot": "9",
						"type": "t_enum(Status)42"
					},
					{
						"astId": 62,
						"contract": "contracts/First.sol:addittion",
						"label": "si4",
						"offset": 3,
						"slot": "9",
						"type": "t_enum(Status)42"
					},
					{
						"astId": 67,
						"contract": "contracts/First.sol:addittion",
						"label": "si5",
						"offset": 4,
						"slot": "9",
						"type": "t_enum(Status)42"
					},
					{
						"astId": 70,
						"contract": "contracts/First.sol:addittion",
						"label": "b1",
						"offset": 5,
						"slot": "9",
						"type": "t_bytes1"
					},
					{
						"astId": 73,
						"contract": "contracts/First.sol:addittion",
						"label": "b2",
						"offset": 6,
						"slot": "9",
						"type": "t_bytes2"
					},
					{
						"astId": 76,
						"contract": "contracts/First.sol:addittion",
						"label": "b3",
						"offset": 8,
						"slot": "9",
						"type": "t_bytes3"
					},
					{
						"astId": 79,
						"contract": "contracts/First.sol:addittion",
						"label": "b4",
						"offset": 11,
						"slot": "9",
						"type": "t_bytes4"
					},
					{
						"astId": 81,
						"contract": "contracts/First.sol:addittion",
						"label": "b5",
						"offset": 15,
						"slot": "9",
						"type": "t_bytes5"
					},
					{
						"astId": 84,
						"contract": "contracts/First.sol:addittion",
						"label": "b6",
						"offset": 0,
						"slot": "10",
						"type": "t_array(t_bytes_storage)dyn_storage"
					},
					{
						"astId": 86,
						"contract": "contracts/First.sol:addittion",
						"label": "myaddress",
						"offset": 0,
						"slot": "11",
						"type": "t_address"
					}
				],
				"types": {
					"t_address": {
						"encoding": "inplace",
						"label": "address",
						"numberOfBytes": "20"
					},
					"t_array(t_bytes_storage)dyn_storage": {
						"base": "t_bytes_storage",
						"encoding": "dynamic_array",
						"label": "bytes[]",
						"numberOfBytes": "32"
					},
					"t_bool": {
						"encoding": "inplace",
						"label": "bool",
						"numberOfBytes": "1"
					},
					"t_bytes1": {
						"encoding": "inplace",
						"label": "bytes1",
						"numberOfBytes": "1"
					},
					"t_bytes2": {
						"encoding": "inplace",
						"label": "bytes2",
						"numberOfBytes": "2"
					},
					"t_bytes3": {
						"encoding": "inplace",
						"label": "bytes3",
						"numberOfBytes": "3"
					},
					"t_bytes4": {
						"encoding": "inplace",
						"label": "bytes4",
						"numberOfBytes": "4"
					},
					"t_bytes5": {
						"encoding": "inplace",
						"label": "bytes5",
						"numberOfBytes": "5"
					},
					"t_bytes_storage": {
						"encoding": "bytes",
						"label": "bytes",
						"numberOfBytes": "32"
					},
					"t_enum(Status)42": {
						"encoding": "inplace",
						"label": "enum addittion.Status",
						"numberOfBytes": "1"
					},
					"t_int16": {
						"encoding": "inplace",
						"label": "int16",
						"numberOfBytes": "2"
					},
					"t_int256": {
						"encoding": "inplace",
						"label": "int256",
						"numberOfBytes": "32"
					},
					"t_int8": {
						"encoding": "inplace",
						"label": "int8",
						"numberOfBytes": "1"
					},
					"t_string_storage": {
						"encoding": "bytes",
						"label": "string",
						"numberOfBytes": "32"
					},
					"t_uint256": {
						"encoding": "inplace",
						"label": "uint256",
						"numberOfBytes": "32"
					}
				}
			},
			"userdoc": {
				"kind": "user",
				"methods": {},
				"version": 1
			}
		}
	}
}