{
	"contracts/Mathlibrary.sol": {
		"MathLibrary": {
			"abi": [
				{
					"inputs": [
						{
							"internalType": "int256",
							"name": "a",
							"type": "int256"
						},
						{
							"internalType": "int256",
							"name": "b",
							"type": "int256"
						}
					],
					"name": "addittion",
					"outputs": [
						{
							"internalType": "int256",
							"name": "",
							"type": "int256"
						}
					],
					"stateMutability": "pure",
					"type": "function"
				},
				{
					"inputs": [
						{
							"internalType": "uint256",
							"name": "a",
							"type": "uint256"
						},
						{
							"internalType": "uint256",
							"name": "b",
							"type": "uint256"
						}
					],
					"name": "substraction",
					"outputs": [
						{
							"internalType": "uint256",
							"name": "",
							"type": "uint256"
						}
					],
					"stateMutability": "pure",
					"type": "function"
				}
			],
			"devdoc": {
				"kind": "dev",
				"methods": {},
				"version": 1
			},
			"evm": {
				"assembly": "    /* \"contracts/Mathlibrary.sol\":28:300  library MathLibrary {... */\n  dataSize(sub_0)\n  dataOffset(sub_0)\n  0x0b\n  dup3\n  dup3\n  dup3\n  codecopy\n  dup1\n  mload\n  0x00\n  byte\n  0x73\n  eq\n  tag_1\n  jumpi\n  mstore(0x00, 0x4e487b7100000000000000000000000000000000000000000000000000000000)\n  mstore(0x04, 0x00)\n  revert(0x00, 0x24)\ntag_1:\n  mstore(0x00, address)\n  0x73\n  dup2\n  mstore8\n  dup3\n  dup2\n  return\nstop\n\nsub_0: assembly {\n        /* \"contracts/Mathlibrary.sol\":28:300  library MathLibrary {... */\n      eq(address, deployTimeAddress())\n      mstore(0x40, 0x80)\n      jumpi(tag_1, lt(calldatasize, 0x04))\n      shr(0xe0, calldataload(0x00))\n      dup1\n      0x451cec96\n      eq\n      tag_2\n      jumpi\n      dup1\n      0xcdeb3314\n      eq\n      tag_3\n      jumpi\n    tag_1:\n      0x00\n      dup1\n      revert\n        /* \"contracts/Mathlibrary.sol\":57:145  function addittion(int a, int b) external pure returns(int){... */\n    tag_2:\n      tag_4\n      0x04\n      dup1\n      calldatasize\n      sub\n      dup2\n      add\n      swap1\n      tag_5\n      swap2\n      swap1\n      tag_6\n      jump\t// in\n    tag_5:\n      tag_7\n      jump\t// in\n    tag_4:\n      mload(0x40)\n      tag_8\n      swap2\n      swap1\n      tag_9\n      jump\t// in\n    tag_8:\n      mload(0x40)\n      dup1\n      swap2\n      sub\n      swap1\n      return\n        /* \"contracts/Mathlibrary.sol\":157:297  function substraction(uint a, uint b) external pure returns(uint) {... */\n    tag_3:\n      tag_10\n      0x04\n      dup1\n      calldatasize\n      sub\n      dup2\n      add\n      swap1\n      tag_11\n      swap2\n      swap1\n      tag_12\n      jump\t// in\n    tag_11:\n      tag_13\n      jump\t// in\n    tag_10:\n      mload(0x40)\n      tag_14\n      swap2\n      swap1\n      tag_15\n      jump\t// in\n    tag_14:\n      mload(0x40)\n      dup1\n      swap2\n      sub\n      swap1\n      return\n        /* \"contracts/Mathlibrary.sol\":57:145  function addittion(int a, int b) external pure returns(int){... */\n    tag_7:\n        /* \"contracts/Mathlibrary.sol\":112:115  int */\n      0x00\n        /* \"contracts/Mathlibrary.sol\":136:137  b */\n      dup2\n        /* \"contracts/Mathlibrary.sol\":134:135  a */\n      dup4\n        /* \"contracts/Mathlibrary.sol\":134:137  a+b */\n      tag_17\n      swap2\n      swap1\n      tag_18\n      jump\t// in\n    tag_17:\n        /* \"contracts/Mathlibrary.sol\":127:137  return a+b */\n      swap1\n      pop\n        /* \"contracts/Mathlibrary.sol\":57:145  function addittion(int a, int b) external pure returns(int){... */\n      swap3\n      swap2\n      pop\n      pop\n      jump\t// out\n        /* \"contracts/Mathlibrary.sol\":157:297  function substraction(uint a, uint b) external pure returns(uint) {... */\n    tag_13:\n        /* \"contracts/Mathlibrary.sol\":217:221  uint */\n      0x00\n        /* \"contracts/Mathlibrary.sol\":245:246  a */\n      dup3\n        /* \"contracts/Mathlibrary.sol\":242:243  b */\n      dup3\n        /* \"contracts/Mathlibrary.sol\":242:246  b<=a */\n      gt\n      iszero\n        /* \"contracts/Mathlibrary.sol\":234:268  require(b<=a, \"Change the Number\") */\n      tag_20\n      jumpi\n      mload(0x40)\n      0x08c379a000000000000000000000000000000000000000000000000000000000\n      dup2\n      mstore\n      0x04\n      add\n      tag_21\n      swap1\n      tag_22\n      jump\t// in\n    tag_21:\n      mload(0x40)\n      dup1\n      swap2\n      sub\n      swap1\n      revert\n    tag_20:\n        /* \"contracts/Mathlibrary.sol\":288:289  b */\n      dup2\n        /* \"contracts/Mathlibrary.sol\":286:287  a */\n      dup4\n        /* \"contracts/Mathlibrary.sol\":286:289  a+b */\n      tag_23\n      swap2\n      swap1\n      tag_24\n      jump\t// in\n    tag_23:\n        /* \"contracts/Mathlibrary.sol\":279:289  return a+b */\n      swap1\n      pop\n        /* \"contracts/Mathlibrary.sol\":157:297  function substraction(uint a, uint b) external pure returns(uint) {... */\n      swap3\n      swap2\n      pop\n      pop\n      jump\t// out\n        /* \"#utility.yul\":88:205   */\n    tag_26:\n        /* \"#utility.yul\":197:198   */\n      0x00\n        /* \"#utility.yul\":194:195   */\n      dup1\n        /* \"#utility.yul\":187:199   */\n      revert\n        /* \"#utility.yul\":334:410   */\n    tag_28:\n        /* \"#utility.yul\":370:377   */\n      0x00\n        /* \"#utility.yul\":399:404   */\n      dup2\n        /* \"#utility.yul\":388:404   */\n      swap1\n      pop\n        /* \"#utility.yul\":334:410   */\n      swap2\n      swap1\n      pop\n      jump\t// out\n        /* \"#utility.yul\":416:536   */\n    tag_29:\n        /* \"#utility.yul\":488:511   */\n      tag_46\n        /* \"#utility.yul\":505:510   */\n      dup2\n        /* \"#utility.yul\":488:511   */\n      tag_28\n      jump\t// in\n    tag_46:\n        /* \"#utility.yul\":481:486   */\n      dup2\n        /* \"#utility.yul\":478:512   */\n      eq\n        /* \"#utility.yul\":468:530   */\n      tag_47\n      jumpi\n        /* \"#utility.yul\":526:527   */\n      0x00\n        /* \"#utility.yul\":523:524   */\n      dup1\n        /* \"#utility.yul\":516:528   */\n      revert\n        /* \"#utility.yul\":468:530   */\n    tag_47:\n        /* \"#utility.yul\":416:536   */\n      pop\n      jump\t// out\n        /* \"#utility.yul\":542:679   */\n    tag_30:\n        /* \"#utility.yul\":587:592   */\n      0x00\n        /* \"#utility.yul\":625:631   */\n      dup2\n        /* \"#utility.yul\":612:632   */\n      calldataload\n        /* \"#utility.yul\":603:632   */\n      swap1\n      pop\n        /* \"#utility.yul\":641:673   */\n      tag_49\n        /* \"#utility.yul\":667:672   */\n      dup2\n        /* \"#utility.yul\":641:673   */\n      tag_29\n      jump\t// in\n    tag_49:\n        /* \"#utility.yul\":542:679   */\n      swap3\n      swap2\n      pop\n      pop\n      jump\t// out\n        /* \"#utility.yul\":685:1155   */\n    tag_6:\n        /* \"#utility.yul\":751:757   */\n      0x00\n        /* \"#utility.yul\":759:765   */\n      dup1\n        /* \"#utility.yul\":808:810   */\n      0x40\n        /* \"#utility.yul\":796:805   */\n      dup4\n        /* \"#utility.yul\":787:794   */\n      dup6\n        /* \"#utility.yul\":783:806   */\n      sub\n        /* \"#utility.yul\":779:811   */\n      slt\n        /* \"#utility.yul\":776:895   */\n      iszero\n      tag_51\n      jumpi\n        /* \"#utility.yul\":814:893   */\n      tag_52\n      tag_26\n      jump\t// in\n    tag_52:\n        /* \"#utility.yul\":776:895   */\n    tag_51:\n        /* \"#utility.yul\":934:935   */\n      0x00\n        /* \"#utility.yul\":959:1011   */\n      tag_53\n        /* \"#utility.yul\":1003:1010   */\n      dup6\n        /* \"#utility.yul\":994:1000   */\n      dup3\n        /* \"#utility.yul\":983:992   */\n      dup7\n        /* \"#utility.yul\":979:1001   */\n      add\n        /* \"#utility.yul\":959:1011   */\n      tag_30\n      jump\t// in\n    tag_53:\n        /* \"#utility.yul\":949:1011   */\n      swap3\n      pop\n        /* \"#utility.yul\":905:1021   */\n      pop\n        /* \"#utility.yul\":1060:1062   */\n      0x20\n        /* \"#utility.yul\":1086:1138   */\n      tag_54\n        /* \"#utility.yul\":1130:1137   */\n      dup6\n        /* \"#utility.yul\":1121:1127   */\n      dup3\n        /* \"#utility.yul\":1110:1119   */\n      dup7\n        /* \"#utility.yul\":1106:1128   */\n      add\n        /* \"#utility.yul\":1086:1138   */\n      tag_30\n      jump\t// in\n    tag_54:\n        /* \"#utility.yul\":1076:1138   */\n      swap2\n      pop\n        /* \"#utility.yul\":1031:1148   */\n      pop\n        /* \"#utility.yul\":685:1155   */\n      swap3\n      pop\n      swap3\n      swap1\n      pop\n      jump\t// out\n        /* \"#utility.yul\":1161:1284   */\n    tag_31:\n        /* \"#utility.yul\":1254:1277   */\n      tag_56\n        /* \"#utility.yul\":1271:1276   */\n      dup2\n        /* \"#utility.yul\":1254:1277   */\n      tag_28\n      jump\t// in\n    tag_56:\n        /* \"#utility.yul\":1249:1252   */\n      dup3\n        /* \"#utility.yul\":1242:1278   */\n      mstore\n        /* \"#utility.yul\":1161:1284   */\n      pop\n      pop\n      jump\t// out\n        /* \"#utility.yul\":1290:1524   */\n    tag_9:\n        /* \"#utility.yul\":1389:1393   */\n      0x00\n        /* \"#utility.yul\":1427:1429   */\n      0x20\n        /* \"#utility.yul\":1416:1425   */\n      dup3\n        /* \"#utility.yul\":1412:1430   */\n      add\n        /* \"#utility.yul\":1404:1430   */\n      swap1\n      pop\n        /* \"#utility.yul\":1440:1517   */\n      tag_58\n        /* \"#utility.yul\":1514:1515   */\n      0x00\n        /* \"#utility.yul\":1503:1512   */\n      dup4\n        /* \"#utility.yul\":1499:1516   */\n      add\n        /* \"#utility.yul\":1490:1496   */\n      dup5\n        /* \"#utility.yul\":1440:1517   */\n      tag_31\n      jump\t// in\n    tag_58:\n        /* \"#utility.yul\":1290:1524   */\n      swap3\n      swap2\n      pop\n      pop\n      jump\t// out\n        /* \"#utility.yul\":1530:1607   */\n    tag_32:\n        /* \"#utility.yul\":1567:1574   */\n      0x00\n        /* \"#utility.yul\":1596:1601   */\n      dup2\n        /* \"#utility.yul\":1585:1601   */\n      swap1\n      pop\n        /* \"#utility.yul\":1530:1607   */\n      swap2\n      swap1\n      pop\n      jump\t// out\n        /* \"#utility.yul\":1613:1735   */\n    tag_33:\n        /* \"#utility.yul\":1686:1710   */\n      tag_61\n        /* \"#utility.yul\":1704:1709   */\n      dup2\n        /* \"#utility.yul\":1686:1710   */\n      tag_32\n      jump\t// in\n    tag_61:\n        /* \"#utility.yul\":1679:1684   */\n      dup2\n        /* \"#utility.yul\":1676:1711   */\n      eq\n        /* \"#utility.yul\":1666:1729   */\n      tag_62\n      jumpi\n        /* \"#utility.yul\":1725:1726   */\n      0x00\n        /* \"#utility.yul\":1722:1723   */\n      dup1\n        /* \"#utility.yul\":1715:1727   */\n      revert\n        /* \"#utility.yul\":1666:1729   */\n    tag_62:\n        /* \"#utility.yul\":1613:1735   */\n      pop\n      jump\t// out\n        /* \"#utility.yul\":1741:1880   */\n    tag_34:\n        /* \"#utility.yul\":1787:1792   */\n      0x00\n        /* \"#utility.yul\":1825:1831   */\n      dup2\n        /* \"#utility.yul\":1812:1832   */\n      calldataload\n        /* \"#utility.yul\":1803:1832   */\n      swap1\n      pop\n        /* \"#utility.yul\":1841:1874   */\n      tag_64\n        /* \"#utility.yul\":1868:1873   */\n      dup2\n        /* \"#utility.yul\":1841:1874   */\n      tag_33\n      jump\t// in\n    tag_64:\n        /* \"#utility.yul\":1741:1880   */\n      swap3\n      swap2\n      pop\n      pop\n      jump\t// out\n        /* \"#utility.yul\":1886:2360   */\n    tag_12:\n        /* \"#utility.yul\":1954:1960   */\n      0x00\n        /* \"#utility.yul\":1962:1968   */\n      dup1\n        /* \"#utility.yul\":2011:2013   */\n      0x40\n        /* \"#utility.yul\":1999:2008   */\n      dup4\n        /* \"#utility.yul\":1990:1997   */\n      dup6\n        /* \"#utility.yul\":1986:2009   */\n      sub\n        /* \"#utility.yul\":1982:2014   */\n      slt\n        /* \"#utility.yul\":1979:2098   */\n      iszero\n      tag_66\n      jumpi\n        /* \"#utility.yul\":2017:2096   */\n      tag_67\n      tag_26\n      jump\t// in\n    tag_67:\n        /* \"#utility.yul\":1979:2098   */\n    tag_66:\n        /* \"#utility.yul\":2137:2138   */\n      0x00\n        /* \"#utility.yul\":2162:2215   */\n      tag_68\n        /* \"#utility.yul\":2207:2214   */\n      dup6\n        /* \"#utility.yul\":2198:2204   */\n      dup3\n        /* \"#utility.yul\":2187:2196   */\n      dup7\n        /* \"#utility.yul\":2183:2205   */\n      add\n        /* \"#utility.yul\":2162:2215   */\n      tag_34\n      jump\t// in\n    tag_68:\n        /* \"#utility.yul\":2152:2215   */\n      swap3\n      pop\n        /* \"#utility.yul\":2108:2225   */\n      pop\n        /* \"#utility.yul\":2264:2266   */\n      0x20\n        /* \"#utility.yul\":2290:2343   */\n      tag_69\n        /* \"#utility.yul\":2335:2342   */\n      dup6\n        /* \"#utility.yul\":2326:2332   */\n      dup3\n        /* \"#utility.yul\":2315:2324   */\n      dup7\n        /* \"#utility.yul\":2311:2333   */\n      add\n        /* \"#utility.yul\":2290:2343   */\n      tag_34\n      jump\t// in\n    tag_69:\n        /* \"#utility.yul\":2280:2343   */\n      swap2\n      pop\n        /* \"#utility.yul\":2235:2353   */\n      pop\n        /* \"#utility.yul\":1886:2360   */\n      swap3\n      pop\n      swap3\n      swap1\n      pop\n      jump\t// out\n        /* \"#utility.yul\":2366:2492   */\n    tag_35:\n        /* \"#utility.yul\":2461:2485   */\n      tag_71\n        /* \"#utility.yul\":2479:2484   */\n      dup2\n        /* \"#utility.yul\":2461:2485   */\n      tag_32\n      jump\t// in\n    tag_71:\n        /* \"#utility.yul\":2456:2459   */\n      dup3\n        /* \"#utility.yul\":2449:2486   */\n      mstore\n        /* \"#utility.yul\":2366:2492   */\n      pop\n      pop\n      jump\t// out\n        /* \"#utility.yul\":2498:2736   */\n    tag_15:\n        /* \"#utility.yul\":2599:2603   */\n      0x00\n        /* \"#utility.yul\":2637:2639   */\n      0x20\n        /* \"#utility.yul\":2626:2635   */\n      dup3\n        /* \"#utility.yul\":2622:2640   */\n      add\n        /* \"#utility.yul\":2614:2640   */\n      swap1\n      pop\n        /* \"#utility.yul\":2650:2729   */\n      tag_73\n        /* \"#utility.yul\":2726:2727   */\n      0x00\n        /* \"#utility.yul\":2715:2724   */\n      dup4\n        /* \"#utility.yul\":2711:2728   */\n      add\n        /* \"#utility.yul\":2702:2708   */\n      dup5\n        /* \"#utility.yul\":2650:2729   */\n      tag_35\n      jump\t// in\n    tag_73:\n        /* \"#utility.yul\":2498:2736   */\n      swap3\n      swap2\n      pop\n      pop\n      jump\t// out\n        /* \"#utility.yul\":2742:2922   */\n    tag_36:\n        /* \"#utility.yul\":2790:2867   */\n      0x4e487b7100000000000000000000000000000000000000000000000000000000\n        /* \"#utility.yul\":2787:2788   */\n      0x00\n        /* \"#utility.yul\":2780:2868   */\n      mstore\n        /* \"#utility.yul\":2887:2891   */\n      0x11\n        /* \"#utility.yul\":2884:2885   */\n      0x04\n        /* \"#utility.yul\":2877:2892   */\n      mstore\n        /* \"#utility.yul\":2911:2915   */\n      0x24\n        /* \"#utility.yul\":2908:2909   */\n      0x00\n        /* \"#utility.yul\":2901:2916   */\n      revert\n        /* \"#utility.yul\":2928:3303   */\n    tag_18:\n        /* \"#utility.yul\":2967:2970   */\n      0x00\n        /* \"#utility.yul\":2986:3005   */\n      tag_76\n        /* \"#utility.yul\":3003:3004   */\n      dup3\n        /* \"#utility.yul\":2986:3005   */\n      tag_28\n      jump\t// in\n    tag_76:\n        /* \"#utility.yul\":2981:3005   */\n      swap2\n      pop\n        /* \"#utility.yul\":3019:3038   */\n      tag_77\n        /* \"#utility.yul\":3036:3037   */\n      dup4\n        /* \"#utility.yul\":3019:3038   */\n      tag_28\n      jump\t// in\n    tag_77:\n        /* \"#utility.yul\":3014:3038   */\n      swap3\n      pop\n        /* \"#utility.yul\":3061:3062   */\n      dup3\n        /* \"#utility.yul\":3058:3059   */\n      dup3\n        /* \"#utility.yul\":3054:3063   */\n      add\n        /* \"#utility.yul\":3047:3063   */\n      swap1\n      pop\n        /* \"#utility.yul\":3259:3260   */\n      dup3\n        /* \"#utility.yul\":3254:3257   */\n      dup2\n        /* \"#utility.yul\":3250:3261   */\n      slt\n        /* \"#utility.yul\":3243:3262   */\n      iszero\n        /* \"#utility.yul\":3239:3240   */\n      0x00\n        /* \"#utility.yul\":3236:3237   */\n      dup4\n        /* \"#utility.yul\":3232:3241   */\n      slt\n        /* \"#utility.yul\":3228:3263   */\n      and\n        /* \"#utility.yul\":3211:3212   */\n      dup4\n        /* \"#utility.yul\":3206:3209   */\n      dup3\n        /* \"#utility.yul\":3202:3213   */\n      slt\n        /* \"#utility.yul\":3197:3198   */\n      0x00\n        /* \"#utility.yul\":3194:3195   */\n      dup5\n        /* \"#utility.yul\":3190:3199   */\n      slt\n        /* \"#utility.yul\":3183:3200   */\n      iszero\n        /* \"#utility.yul\":3179:3214   */\n      and\n        /* \"#utility.yul\":3163:3273   */\n      or\n        /* \"#utility.yul\":3160:3296   */\n      iszero\n      tag_78\n      jumpi\n        /* \"#utility.yul\":3276:3294   */\n      tag_79\n      tag_36\n      jump\t// in\n    tag_79:\n        /* \"#utility.yul\":3160:3296   */\n    tag_78:\n        /* \"#utility.yul\":2928:3303   */\n      swap3\n      swap2\n      pop\n      pop\n      jump\t// out\n        /* \"#utility.yul\":3309:3478   */\n    tag_37:\n        /* \"#utility.yul\":3393:3404   */\n      0x00\n        /* \"#utility.yul\":3427:3433   */\n      dup3\n        /* \"#utility.yul\":3422:3425   */\n      dup3\n        /* \"#utility.yul\":3415:3434   */\n      mstore\n        /* \"#utility.yul\":3467:3471   */\n      0x20\n        /* \"#utility.yul\":3462:3465   */\n      dup3\n        /* \"#utility.yul\":3458:3472   */\n      add\n        /* \"#utility.yul\":3443:3472   */\n      swap1\n      pop\n        /* \"#utility.yul\":3309:3478   */\n      swap3\n      swap2\n      pop\n      pop\n      jump\t// out\n        /* \"#utility.yul\":3484:3651   */\n    tag_38:\n        /* \"#utility.yul\":3624:3643   */\n      0x4368616e676520746865204e756d626572000000000000000000000000000000\n        /* \"#utility.yul\":3620:3621   */\n      0x00\n        /* \"#utility.yul\":3612:3618   */\n      dup3\n        /* \"#utility.yul\":3608:3622   */\n      add\n        /* \"#utility.yul\":3601:3644   */\n      mstore\n        /* \"#utility.yul\":3484:3651   */\n      pop\n      jump\t// out\n        /* \"#utility.yul\":3657:4023   */\n    tag_39:\n        /* \"#utility.yul\":3799:3802   */\n      0x00\n        /* \"#utility.yul\":3820:3887   */\n      tag_83\n        /* \"#utility.yul\":3884:3886   */\n      0x11\n        /* \"#utility.yul\":3879:3882   */\n      dup4\n        /* \"#utility.yul\":3820:3887   */\n      tag_37\n      jump\t// in\n    tag_83:\n        /* \"#utility.yul\":3813:3887   */\n      swap2\n      pop\n        /* \"#utility.yul\":3896:3989   */\n      tag_84\n        /* \"#utility.yul\":3985:3988   */\n      dup3\n        /* \"#utility.yul\":3896:3989   */\n      tag_38\n      jump\t// in\n    tag_84:\n        /* \"#utility.yul\":4014:4016   */\n      0x20\n        /* \"#utility.yul\":4009:4012   */\n      dup3\n        /* \"#utility.yul\":4005:4017   */\n      add\n        /* \"#utility.yul\":3998:4017   */\n      swap1\n      pop\n        /* \"#utility.yul\":3657:4023   */\n      swap2\n      swap1\n      pop\n      jump\t// out\n        /* \"#utility.yul\":4029:4448   */\n    tag_22:\n        /* \"#utility.yul\":4195:4199   */\n      0x00\n        /* \"#utility.yul\":4233:4235   */\n      0x20\n        /* \"#utility.yul\":4222:4231   */\n      dup3\n        /* \"#utility.yul\":4218:4236   */\n      add\n        /* \"#utility.yul\":4210:4236   */\n      swap1\n      pop\n        /* \"#utility.yul\":4282:4291   */\n      dup2\n        /* \"#utility.yul\":4276:4280   */\n      dup2\n        /* \"#utility.yul\":4272:4292   */\n      sub\n        /* \"#utility.yul\":4268:4269   */\n      0x00\n        /* \"#utility.yul\":4257:4266   */\n      dup4\n        /* \"#utility.yul\":4253:4270   */\n      add\n        /* \"#utility.yul\":4246:4293   */\n      mstore\n        /* \"#utility.yul\":4310:4441   */\n      tag_86\n        /* \"#utility.yul\":4436:4440   */\n      dup2\n        /* \"#utility.yul\":4310:4441   */\n      tag_39\n      jump\t// in\n    tag_86:\n        /* \"#utility.yul\":4302:4441   */\n      swap1\n      pop\n        /* \"#utility.yul\":4029:4448   */\n      swap2\n      swap1\n      pop\n      jump\t// out\n        /* \"#utility.yul\":4454:4645   */\n    tag_24:\n        /* \"#utility.yul\":4494:4497   */\n      0x00\n        /* \"#utility.yul\":4513:4533   */\n      tag_88\n        /* \"#utility.yul\":4531:4532   */\n      dup3\n        /* \"#utility.yul\":4513:4533   */\n      tag_32\n      jump\t// in\n    tag_88:\n        /* \"#utility.yul\":4508:4533   */\n      swap2\n      pop\n        /* \"#utility.yul\":4547:4567   */\n      tag_89\n        /* \"#utility.yul\":4565:4566   */\n      dup4\n        /* \"#utility.yul\":4547:4567   */\n      tag_32\n      jump\t// in\n    tag_89:\n        /* \"#utility.yul\":4542:4567   */\n      swap3\n      pop\n        /* \"#utility.yul\":4590:4591   */\n      dup3\n        /* \"#utility.yul\":4587:4588   */\n      dup3\n        /* \"#utility.yul\":4583:4592   */\n      add\n        /* \"#utility.yul\":4576:4592   */\n      swap1\n      pop\n        /* \"#utility.yul\":4611:4614   */\n      dup1\n        /* \"#utility.yul\":4608:4609   */\n      dup3\n        /* \"#utility.yul\":4605:4615   */\n      gt\n        /* \"#utility.yul\":4602:4638   */\n      iszero\n      tag_90\n      jumpi\n        /* \"#utility.yul\":4618:4636   */\n      tag_91\n      tag_36\n      jump\t// in\n    tag_91:\n        /* \"#utility.yul\":4602:4638   */\n    tag_90:\n        /* \"#utility.yul\":4454:4645   */\n      swap3\n      swap2\n      pop\n      pop\n      jump\t// out\n\n    auxdata: 0xa2646970667358221220c2c15da5614b9eca91fdead052f9e7ea8ac23f22f94bb2ea6accd85b56a6651d64736f6c63430008190033\n}\n",
				"bytecode": {
					"linkReferences": {},
					"object": "61039561004d600b8282823980515f1a6073146041577f4e487b71000000000000000000000000000000000000000000000000000000005f525f60045260245ffd5b305f52607381538281f3fe730000000000000000000000000000000000000000301460806040526004361061003f575f3560e01c8063451cec9614610043578063cdeb331414610073575b5f80fd5b61005d60048036038101906100589190610147565b6100a3565b60405161006a9190610194565b60405180910390f35b61008d600480360381019061008891906101e0565b6100b8565b60405161009a919061022d565b60405180910390f35b5f81836100b09190610273565b905092915050565b5f828211156100fc576040517f08c379a00000000000000000000000000000000000000000000000000000000081526004016100f39061030e565b60405180910390fd5b8183610108919061032c565b905092915050565b5f80fd5b5f819050919050565b61012681610114565b8114610130575f80fd5b50565b5f813590506101418161011d565b92915050565b5f806040838503121561015d5761015c610110565b5b5f61016a85828601610133565b925050602061017b85828601610133565b9150509250929050565b61018e81610114565b82525050565b5f6020820190506101a75f830184610185565b92915050565b5f819050919050565b6101bf816101ad565b81146101c9575f80fd5b50565b5f813590506101da816101b6565b92915050565b5f80604083850312156101f6576101f5610110565b5b5f610203858286016101cc565b9250506020610214858286016101cc565b9150509250929050565b610227816101ad565b82525050565b5f6020820190506102405f83018461021e565b92915050565b7f4e487b71000000000000000000000000000000000000000000000000000000005f52601160045260245ffd5b5f61027d82610114565b915061028883610114565b92508282019050828112155f8312168382125f8412151617156102ae576102ad610246565b5b92915050565b5f82825260208201905092915050565b7f4368616e676520746865204e756d6265720000000000000000000000000000005f82015250565b5f6102f86011836102b4565b9150610303826102c4565b602082019050919050565b5f6020820190508181035f830152610325816102ec565b9050919050565b5f610336826101ad565b9150610341836101ad565b925082820190508082111561035957610358610246565b5b9291505056fea2646970667358221220c2c15da5614b9eca91fdead052f9e7ea8ac23f22f94bb2ea6accd85b56a6651d64736f6c63430008190033",
					"opcodes": "PUSH2 0x395 PUSH2 0x4D PUSH1 0xB DUP3 DUP3 DUP3 CODECOPY DUP1 MLOAD PUSH0 BYTE PUSH1 0x73 EQ PUSH1 0x41 JUMPI PUSH32 0x4E487B7100000000000000000000000000000000000000000000000000000000 PUSH0 MSTORE PUSH0 PUSH1 0x4 MSTORE PUSH1 0x24 PUSH0 REVERT JUMPDEST ADDRESS PUSH0 MSTORE PUSH1 0x73 DUP2 MSTORE8 DUP3 DUP2 RETURN INVALID PUSH20 0x0 ADDRESS EQ PUSH1 0x80 PUSH1 0x40 MSTORE PUSH1 0x4 CALLDATASIZE LT PUSH2 0x3F JUMPI PUSH0 CALLDATALOAD PUSH1 0xE0 SHR DUP1 PUSH4 0x451CEC96 EQ PUSH2 0x43 JUMPI DUP1 PUSH4 0xCDEB3314 EQ PUSH2 0x73 JUMPI JUMPDEST PUSH0 DUP1 REVERT JUMPDEST PUSH2 0x5D PUSH1 0x4 DUP1 CALLDATASIZE SUB DUP2 ADD SWAP1 PUSH2 0x58 SWAP2 SWAP1 PUSH2 0x147 JUMP JUMPDEST PUSH2 0xA3 JUMP JUMPDEST PUSH1 0x40 MLOAD PUSH2 0x6A SWAP2 SWAP1 PUSH2 0x194 JUMP JUMPDEST PUSH1 0x40 MLOAD DUP1 SWAP2 SUB SWAP1 RETURN JUMPDEST PUSH2 0x8D PUSH1 0x4 DUP1 CALLDATASIZE SUB DUP2 ADD SWAP1 PUSH2 0x88 SWAP2 SWAP1 PUSH2 0x1E0 JUMP JUMPDEST PUSH2 0xB8 JUMP JUMPDEST PUSH1 0x40 MLOAD PUSH2 0x9A SWAP2 SWAP1 PUSH2 0x22D JUMP JUMPDEST PUSH1 0x40 MLOAD DUP1 SWAP2 SUB SWAP1 RETURN JUMPDEST PUSH0 DUP2 DUP4 PUSH2 0xB0 SWAP2 SWAP1 PUSH2 0x273 JUMP JUMPDEST SWAP1 POP SWAP3 SWAP2 POP POP JUMP JUMPDEST PUSH0 DUP3 DUP3 GT ISZERO PUSH2 0xFC JUMPI PUSH1 0x40 MLOAD PUSH32 0x8C379A000000000000000000000000000000000000000000000000000000000 DUP2 MSTORE PUSH1 0x4 ADD PUSH2 0xF3 SWAP1 PUSH2 0x30E JUMP JUMPDEST PUSH1 0x40 MLOAD DUP1 SWAP2 SUB SWAP1 REVERT JUMPDEST DUP2 DUP4 PUSH2 0x108 SWAP2 SWAP1 PUSH2 0x32C JUMP JUMPDEST SWAP1 POP SWAP3 SWAP2 POP POP JUMP JUMPDEST PUSH0 DUP1 REVERT JUMPDEST PUSH0 DUP2 SWAP1 POP SWAP2 SWAP1 POP JUMP JUMPDEST PUSH2 0x126 DUP2 PUSH2 0x114 JUMP JUMPDEST DUP2 EQ PUSH2 0x130 JUMPI PUSH0 DUP1 REVERT JUMPDEST POP JUMP JUMPDEST PUSH0 DUP2 CALLDATALOAD SWAP1 POP PUSH2 0x141 DUP2 PUSH2 0x11D JUMP JUMPDEST SWAP3 SWAP2 POP POP JUMP JUMPDEST PUSH0 DUP1 PUSH1 0x40 DUP4 DUP6 SUB SLT ISZERO PUSH2 0x15D JUMPI PUSH2 0x15C PUSH2 0x110 JUMP JUMPDEST JUMPDEST PUSH0 PUSH2 0x16A DUP6 DUP3 DUP7 ADD PUSH2 0x133 JUMP JUMPDEST SWAP3 POP POP PUSH1 0x20 PUSH2 0x17B DUP6 DUP3 DUP7 ADD PUSH2 0x133 JUMP JUMPDEST SWAP2 POP POP SWAP3 POP SWAP3 SWAP1 POP JUMP JUMPDEST PUSH2 0x18E DUP2 PUSH2 0x114 JUMP JUMPDEST DUP3 MSTORE POP POP JUMP JUMPDEST PUSH0 PUSH1 0x20 DUP3 ADD SWAP1 POP PUSH2 0x1A7 PUSH0 DUP4 ADD DUP5 PUSH2 0x185 JUMP JUMPDEST SWAP3 SWAP2 POP POP JUMP JUMPDEST PUSH0 DUP2 SWAP1 POP SWAP2 SWAP1 POP JUMP JUMPDEST PUSH2 0x1BF DUP2 PUSH2 0x1AD JUMP JUMPDEST DUP2 EQ PUSH2 0x1C9 JUMPI PUSH0 DUP1 REVERT JUMPDEST POP JUMP JUMPDEST PUSH0 DUP2 CALLDATALOAD SWAP1 POP PUSH2 0x1DA DUP2 PUSH2 0x1B6 JUMP JUMPDEST SWAP3 SWAP2 POP POP JUMP JUMPDEST PUSH0 DUP1 PUSH1 0x40 DUP4 DUP6 SUB SLT ISZERO PUSH2 0x1F6 JUMPI PUSH2 0x1F5 PUSH2 0x110 JUMP JUMPDEST JUMPDEST PUSH0 PUSH2 0x203 DUP6 DUP3 DUP7 ADD PUSH2 0x1CC JUMP JUMPDEST SWAP3 POP POP PUSH1 0x20 PUSH2 0x214 DUP6 DUP3 DUP7 ADD PUSH2 0x1CC JUMP JUMPDEST SWAP2 POP POP SWAP3 POP SWAP3 SWAP1 POP JUMP JUMPDEST PUSH2 0x227 DUP2 PUSH2 0x1AD JUMP JUMPDEST DUP3 MSTORE POP POP JUMP JUMPDEST PUSH0 PUSH1 0x20 DUP3 ADD SWAP1 POP PUSH2 0x240 PUSH0 DUP4 ADD DUP5 PUSH2 0x21E JUMP JUMPDEST SWAP3 SWAP2 POP POP JUMP JUMPDEST PUSH32 0x4E487B7100000000000000000000000000000000000000000000000000000000 PUSH0 MSTORE PUSH1 0x11 PUSH1 0x4 MSTORE PUSH1 0x24 PUSH0 REVERT JUMPDEST PUSH0 PUSH2 0x27D DUP3 PUSH2 0x114 JUMP JUMPDEST SWAP2 POP PUSH2 0x288 DUP4 PUSH2 0x114 JUMP JUMPDEST SWAP3 POP DUP3 DUP3 ADD SWAP1 POP DUP3 DUP2 SLT ISZERO PUSH0 DUP4 SLT AND DUP4 DUP3 SLT PUSH0 DUP5 SLT ISZERO AND OR ISZERO PUSH2 0x2AE JUMPI PUSH2 0x2AD PUSH2 0x246 JUMP JUMPDEST JUMPDEST SWAP3 SWAP2 POP POP JUMP JUMPDEST PUSH0 DUP3 DUP3 MSTORE PUSH1 0x20 DUP3 ADD SWAP1 POP SWAP3 SWAP2 POP POP JUMP JUMPDEST PUSH32 0x4368616E676520746865204E756D626572000000000000000000000000000000 PUSH0 DUP3 ADD MSTORE POP JUMP JUMPDEST PUSH0 PUSH2 0x2F8 PUSH1 0x11 DUP4 PUSH2 0x2B4 JUMP JUMPDEST SWAP2 POP PUSH2 0x303 DUP3 PUSH2 0x2C4 JUMP JUMPDEST PUSH1 0x20 DUP3 ADD SWAP1 POP SWAP2 SWAP1 POP JUMP JUMPDEST PUSH0 PUSH1 0x20 DUP3 ADD SWAP1 POP DUP2 DUP2 SUB PUSH0 DUP4 ADD MSTORE PUSH2 0x325 DUP2 PUSH2 0x2EC JUMP JUMPDEST SWAP1 POP SWAP2 SWAP1 POP JUMP JUMPDEST PUSH0 PUSH2 0x336 DUP3 PUSH2 0x1AD JUMP JUMPDEST SWAP2 POP PUSH2 0x341 DUP4 PUSH2 0x1AD JUMP JUMPDEST SWAP3 POP DUP3 DUP3 ADD SWAP1 POP DUP1 DUP3 GT ISZERO PUSH2 0x359 JUMPI PUSH2 0x358 PUSH2 0x246 JUMP JUMPDEST JUMPDEST SWAP3 SWAP2 POP POP JUMP INVALID LOG2 PUSH5 0x6970667358 0x22 SLT KECCAK256 0xC2 0xC1 TSTORE 0xA5 PUSH2 0x4B9E 0xCA SWAP2 REVERT 0xEA 0xD0 MSTORE 0xF9 0xE7 0xEA DUP11 0xC2 EXTCODEHASH 0x22 0xF9 0x4B 0xB2 0xEA PUSH11 0xCCD85B56A6651D64736F6C PUSH4 0x43000819 STOP CALLER "
				},
				"gasEstimates": {
					"creation": {
						"codeDepositCost": "183400",
						"executionCost": "249",
						"totalCost": "183649"
					},
					"external": {
						"addittion(int256,int256)": "infinite",
						"substraction(uint256,uint256)": "infinite"
					}
				},
				"methodIdentifiers": {
					"addittion(int256,int256)": "451cec96",
					"substraction(uint256,uint256)": "cdeb3314"
				}
			},
			"storageLayout": {
				"storage": [],
				"types": null
			},
			"userdoc": {
				"kind": "user",
				"methods": {},
				"version": 1
			}
		}
	}
}