{
	"contracts/fallback.sol": {
		"test": {
			"abi": [
				{
					"inputs": [
						{
							"internalType": "address payable",
							"name": "_addr",
							"type": "address"
						}
					],
					"stateMutability": "nonpayable",
					"type": "constructor"
				},
				{
					"inputs": [],
					"name": "callFF",
					"outputs": [],
					"stateMutability": "payable",
					"type": "function"
				}
			],
			"devdoc": {
				"kind": "dev",
				"methods": {},
				"version": 1
			},
			"evm": {
				"assembly": "    /* \"contracts/fallback.sol\":290:647  contract test {... */\n  mstore(0x40, 0x80)\n    /* \"contracts/fallback.sol\":343:413  constructor(address payable _addr){... */\n  callvalue\n  dup1\n  iszero\n  tag_1\n  jumpi\n  0x00\n  dup1\n  revert\ntag_1:\n  pop\n  mload(0x40)\n  sub(codesize, bytecodeSize)\n  dup1\n  bytecodeSize\n  dup4\n  codecopy\n  dup2\n  dup2\n  add\n  0x40\n  mstore\n  dup2\n  add\n  swap1\n  tag_2\n  swap2\n  swap1\n  tag_3\n  jump\t// in\ntag_2:\n    /* \"contracts/fallback.sol\":400:405  _addr */\n  dup1\n    /* \"contracts/fallback.sol\":388:397  scaddress */\n  0x00\n  dup1\n    /* \"contracts/fallback.sol\":388:405  scaddress = _addr */\n  0x0100\n  exp\n  dup2\n  sload\n  dup2\n  0xffffffffffffffffffffffffffffffffffffffff\n  mul\n  not\n  and\n  swap1\n  dup4\n  0xffffffffffffffffffffffffffffffffffffffff\n  and\n  mul\n  or\n  swap1\n  sstore\n  pop\n    /* \"contracts/fallback.sol\":343:413  constructor(address payable _addr){... */\n  pop\n    /* \"contracts/fallback.sol\":290:647  contract test {... */\n  jump(tag_6)\n    /* \"#utility.yul\":88:205   */\ntag_8:\n    /* \"#utility.yul\":197:198   */\n  0x00\n    /* \"#utility.yul\":194:195   */\n  dup1\n    /* \"#utility.yul\":187:199   */\n  revert\n    /* \"#utility.yul\":334:460   */\ntag_10:\n    /* \"#utility.yul\":371:378   */\n  0x00\n    /* \"#utility.yul\":411:453   */\n  0xffffffffffffffffffffffffffffffffffffffff\n    /* \"#utility.yul\":404:409   */\n  dup3\n    /* \"#utility.yul\":400:454   */\n  and\n    /* \"#utility.yul\":389:454   */\n  swap1\n  pop\n    /* \"#utility.yul\":334:460   */\n  swap2\n  swap1\n  pop\n  jump\t// out\n    /* \"#utility.yul\":466:570   */\ntag_11:\n    /* \"#utility.yul\":511:518   */\n  0x00\n    /* \"#utility.yul\":540:564   */\n  tag_20\n    /* \"#utility.yul\":558:563   */\n  dup3\n    /* \"#utility.yul\":540:564   */\n  tag_10\n  jump\t// in\ntag_20:\n    /* \"#utility.yul\":529:564   */\n  swap1\n  pop\n    /* \"#utility.yul\":466:570   */\n  swap2\n  swap1\n  pop\n  jump\t// out\n    /* \"#utility.yul\":576:714   */\ntag_12:\n    /* \"#utility.yul\":657:689   */\n  tag_22\n    /* \"#utility.yul\":683:688   */\n  dup2\n    /* \"#utility.yul\":657:689   */\n  tag_11\n  jump\t// in\ntag_22:\n    /* \"#utility.yul\":650:655   */\n  dup2\n    /* \"#utility.yul\":647:690   */\n  eq\n    /* \"#utility.yul\":637:708   */\n  tag_23\n  jumpi\n    /* \"#utility.yul\":704:705   */\n  0x00\n    /* \"#utility.yul\":701:702   */\n  dup1\n    /* \"#utility.yul\":694:706   */\n  revert\n    /* \"#utility.yul\":637:708   */\ntag_23:\n    /* \"#utility.yul\":576:714   */\n  pop\n  jump\t// out\n    /* \"#utility.yul\":720:879   */\ntag_13:\n    /* \"#utility.yul\":785:790   */\n  0x00\n    /* \"#utility.yul\":816:822   */\n  dup2\n    /* \"#utility.yul\":810:823   */\n  mload\n    /* \"#utility.yul\":801:823   */\n  swap1\n  pop\n    /* \"#utility.yul\":832:873   */\n  tag_25\n    /* \"#utility.yul\":867:872   */\n  dup2\n    /* \"#utility.yul\":832:873   */\n  tag_12\n  jump\t// in\ntag_25:\n    /* \"#utility.yul\":720:879   */\n  swap3\n  swap2\n  pop\n  pop\n  jump\t// out\n    /* \"#utility.yul\":885:1252   */\ntag_3:\n    /* \"#utility.yul\":963:969   */\n  0x00\n    /* \"#utility.yul\":1012:1014   */\n  0x20\n    /* \"#utility.yul\":1000:1009   */\n  dup3\n    /* \"#utility.yul\":991:998   */\n  dup5\n    /* \"#utility.yul\":987:1010   */\n  sub\n    /* \"#utility.yul\":983:1015   */\n  slt\n    /* \"#utility.yul\":980:1099   */\n  iszero\n  tag_27\n  jumpi\n    /* \"#utility.yul\":1018:1097   */\n  tag_28\n  tag_8\n  jump\t// in\ntag_28:\n    /* \"#utility.yul\":980:1099   */\ntag_27:\n    /* \"#utility.yul\":1138:1139   */\n  0x00\n    /* \"#utility.yul\":1163:1235   */\n  tag_29\n    /* \"#utility.yul\":1227:1234   */\n  dup5\n    /* \"#utility.yul\":1218:1224   */\n  dup3\n    /* \"#utility.yul\":1207:1216   */\n  dup6\n    /* \"#utility.yul\":1203:1225   */\n  add\n    /* \"#utility.yul\":1163:1235   */\n  tag_13\n  jump\t// in\ntag_29:\n    /* \"#utility.yul\":1153:1235   */\n  swap2\n  pop\n    /* \"#utility.yul\":1109:1245   */\n  pop\n    /* \"#utility.yul\":885:1252   */\n  swap3\n  swap2\n  pop\n  pop\n  jump\t// out\n    /* \"contracts/fallback.sol\":290:647  contract test {... */\ntag_6:\n  dataSize(sub_0)\n  dup1\n  dataOffset(sub_0)\n  0x00\n  codecopy\n  0x00\n  return\nstop\n\nsub_0: assembly {\n        /* \"contracts/fallback.sol\":290:647  contract test {... */\n      mstore(0x40, 0x80)\n      jumpi(tag_1, lt(calldatasize, 0x04))\n      shr(0xe0, calldataload(0x00))\n      dup1\n      0xa1821c6a\n      eq\n      tag_2\n      jumpi\n    tag_1:\n      0x00\n      dup1\n      revert\n        /* \"contracts/fallback.sol\":463:642  function callFF() public payable {... */\n    tag_2:\n      tag_3\n      tag_4\n      jump\t// in\n    tag_3:\n      stop\n    tag_4:\n        /* \"contracts/fallback.sol\":508:519  bool status */\n      0x00\n        /* \"contracts/fallback.sol\":525:534  scaddress */\n      dup1\n      0x00\n      swap1\n      sload\n      swap1\n      0x0100\n      exp\n      swap1\n      div\n      0xffffffffffffffffffffffffffffffffffffffff\n      and\n        /* \"contracts/fallback.sol\":525:539  scaddress.call */\n      0xffffffffffffffffffffffffffffffffffffffff\n      and\n        /* \"contracts/fallback.sol\":547:556  msg.value */\n      callvalue\n        /* \"contracts/fallback.sol\":525:575  scaddress.call{value: msg.value}(\"Sending Ethers\") */\n      mload(0x40)\n      tag_6\n      swap1\n      tag_7\n      jump\t// in\n    tag_6:\n      0x00\n      mload(0x40)\n      dup1\n      dup4\n      sub\n      dup2\n      dup6\n      dup8\n      gas\n      call\n      swap3\n      pop\n      pop\n      pop\n      returndatasize\n      dup1\n      0x00\n      dup2\n      eq\n      tag_10\n      jumpi\n      mload(0x40)\n      swap2\n      pop\n      and(add(returndatasize, 0x3f), not(0x1f))\n      dup3\n      add\n      0x40\n      mstore\n      returndatasize\n      dup3\n      mstore\n      returndatasize\n      0x00\n      0x20\n      dup5\n      add\n      returndatacopy\n      jump(tag_9)\n    tag_10:\n      0x60\n      swap2\n      pop\n    tag_9:\n      pop\n        /* \"contracts/fallback.sol\":507:575  (bool status, ) = scaddress.call{value: msg.value}(\"Sending Ethers\") */\n      pop\n      swap1\n      pop\n        /* \"contracts/fallback.sol\":594:600  status */\n      dup1\n        /* \"contracts/fallback.sol\":586:634  require(status, \"Fallback Function call Failed\") */\n      tag_11\n      jumpi\n      mload(0x40)\n      0x08c379a000000000000000000000000000000000000000000000000000000000\n      dup2\n      mstore\n      0x04\n      add\n      tag_12\n      swap1\n      tag_13\n      jump\t// in\n    tag_12:\n      mload(0x40)\n      dup1\n      swap2\n      sub\n      swap1\n      revert\n    tag_11:\n        /* \"contracts/fallback.sol\":496:642  {... */\n      pop\n        /* \"contracts/fallback.sol\":463:642  function callFF() public payable {... */\n      jump\t// out\n        /* \"#utility.yul\":7:154   */\n    tag_14:\n        /* \"#utility.yul\":108:119   */\n      0x00\n        /* \"#utility.yul\":145:148   */\n      dup2\n        /* \"#utility.yul\":130:148   */\n      swap1\n      pop\n        /* \"#utility.yul\":7:154   */\n      swap3\n      swap2\n      pop\n      pop\n      jump\t// out\n        /* \"#utility.yul\":160:324   */\n    tag_15:\n        /* \"#utility.yul\":300:316   */\n      0x53656e64696e6720457468657273000000000000000000000000000000000000\n        /* \"#utility.yul\":296:297   */\n      0x00\n        /* \"#utility.yul\":288:294   */\n      dup3\n        /* \"#utility.yul\":284:298   */\n      add\n        /* \"#utility.yul\":277:317   */\n      mstore\n        /* \"#utility.yul\":160:324   */\n      pop\n      jump\t// out\n        /* \"#utility.yul\":330:730   */\n    tag_16:\n        /* \"#utility.yul\":489:492   */\n      0x00\n        /* \"#utility.yul\":510:594   */\n      tag_24\n        /* \"#utility.yul\":591:593   */\n      0x0e\n        /* \"#utility.yul\":586:589   */\n      dup4\n        /* \"#utility.yul\":510:594   */\n      tag_14\n      jump\t// in\n    tag_24:\n        /* \"#utility.yul\":503:594   */\n      swap2\n      pop\n        /* \"#utility.yul\":603:696   */\n      tag_25\n        /* \"#utility.yul\":692:695   */\n      dup3\n        /* \"#utility.yul\":603:696   */\n      tag_15\n      jump\t// in\n    tag_25:\n        /* \"#utility.yul\":721:723   */\n      0x0e\n        /* \"#utility.yul\":716:719   */\n      dup3\n        /* \"#utility.yul\":712:724   */\n      add\n        /* \"#utility.yul\":705:724   */\n      swap1\n      pop\n        /* \"#utility.yul\":330:730   */\n      swap2\n      swap1\n      pop\n      jump\t// out\n        /* \"#utility.yul\":736:1115   */\n    tag_7:\n        /* \"#utility.yul\":920:923   */\n      0x00\n        /* \"#utility.yul\":942:1089   */\n      tag_27\n        /* \"#utility.yul\":1085:1088   */\n      dup3\n        /* \"#utility.yul\":942:1089   */\n      tag_16\n      jump\t// in\n    tag_27:\n        /* \"#utility.yul\":935:1089   */\n      swap2\n      pop\n        /* \"#utility.yul\":1106:1109   */\n      dup2\n        /* \"#utility.yul\":1099:1109   */\n      swap1\n      pop\n        /* \"#utility.yul\":736:1115   */\n      swap2\n      swap1\n      pop\n      jump\t// out\n        /* \"#utility.yul\":1121:1290   */\n    tag_17:\n        /* \"#utility.yul\":1205:1216   */\n      0x00\n        /* \"#utility.yul\":1239:1245   */\n      dup3\n        /* \"#utility.yul\":1234:1237   */\n      dup3\n        /* \"#utility.yul\":1227:1246   */\n      mstore\n        /* \"#utility.yul\":1279:1283   */\n      0x20\n        /* \"#utility.yul\":1274:1277   */\n      dup3\n        /* \"#utility.yul\":1270:1284   */\n      add\n        /* \"#utility.yul\":1255:1284   */\n      swap1\n      pop\n        /* \"#utility.yul\":1121:1290   */\n      swap3\n      swap2\n      pop\n      pop\n      jump\t// out\n        /* \"#utility.yul\":1296:1475   */\n    tag_18:\n        /* \"#utility.yul\":1436:1467   */\n      0x46616c6c6261636b2046756e6374696f6e2063616c6c204661696c6564000000\n        /* \"#utility.yul\":1432:1433   */\n      0x00\n        /* \"#utility.yul\":1424:1430   */\n      dup3\n        /* \"#utility.yul\":1420:1434   */\n      add\n        /* \"#utility.yul\":1413:1468   */\n      mstore\n        /* \"#utility.yul\":1296:1475   */\n      pop\n      jump\t// out\n        /* \"#utility.yul\":1481:1847   */\n    tag_19:\n        /* \"#utility.yul\":1623:1626   */\n      0x00\n        /* \"#utility.yul\":1644:1711   */\n      tag_31\n        /* \"#utility.yul\":1708:1710   */\n      0x1d\n        /* \"#utility.yul\":1703:1706   */\n      dup4\n        /* \"#utility.yul\":1644:1711   */\n      tag_17\n      jump\t// in\n    tag_31:\n        /* \"#utility.yul\":1637:1711   */\n      swap2\n      pop\n        /* \"#utility.yul\":1720:1813   */\n      tag_32\n        /* \"#utility.yul\":1809:1812   */\n      dup3\n        /* \"#utility.yul\":1720:1813   */\n      tag_18\n      jump\t// in\n    tag_32:\n        /* \"#utility.yul\":1838:1840   */\n      0x20\n        /* \"#utility.yul\":1833:1836   */\n      dup3\n        /* \"#utility.yul\":1829:1841   */\n      add\n        /* \"#utility.yul\":1822:1841   */\n      swap1\n      pop\n        /* \"#utility.yul\":1481:1847   */\n      swap2\n      swap1\n      pop\n      jump\t// out\n        /* \"#utility.yul\":1853:2272   */\n    tag_13:\n        /* \"#utility.yul\":2019:2023   */\n      0x00\n        /* \"#utility.yul\":2057:2059   */\n      0x20\n        /* \"#utility.yul\":2046:2055   */\n      dup3\n        /* \"#utility.yul\":2042:2060   */\n      add\n        /* \"#utility.yul\":2034:2060   */\n      swap1\n      pop\n        /* \"#utility.yul\":2106:2115   */\n      dup2\n        /* \"#utility.yul\":2100:2104   */\n      dup2\n        /* \"#utility.yul\":2096:2116   */\n      sub\n        /* \"#utility.yul\":2092:2093   */\n      0x00\n        /* \"#utility.yul\":2081:2090   */\n      dup4\n        /* \"#utility.yul\":2077:2094   */\n      add\n        /* \"#utility.yul\":2070:2117   */\n      mstore\n        /* \"#utility.yul\":2134:2265   */\n      tag_34\n        /* \"#utility.yul\":2260:2264   */\n      dup2\n        /* \"#utility.yul\":2134:2265   */\n      tag_19\n      jump\t// in\n    tag_34:\n        /* \"#utility.yul\":2126:2265   */\n      swap1\n      pop\n        /* \"#utility.yul\":1853:2272   */\n      swap2\n      swap1\n      pop\n      jump\t// out\n\n    auxdata: 0xa264697066735822122053dedf2e9136e9342726a73db43d082ee182237e794988953ae2a26ae5a46e6664736f6c63430008140033\n}\n",
				"bytecode": {
					"linkReferences": {},
					"object": "608060405234801561000f575f80fd5b50604051610318380380610318833981810160405281019061003191906100d4565b805f806101000a81548173ffffffffffffffffffffffffffffffffffffffff021916908373ffffffffffffffffffffffffffffffffffffffff160217905550506100ff565b5f80fd5b5f73ffffffffffffffffffffffffffffffffffffffff82169050919050565b5f6100a38261007a565b9050919050565b6100b381610099565b81146100bd575f80fd5b50565b5f815190506100ce816100aa565b92915050565b5f602082840312156100e9576100e8610076565b5b5f6100f6848285016100c0565b91505092915050565b61020c8061010c5f395ff3fe60806040526004361061001d575f3560e01c8063a1821c6a14610021575b5f80fd5b61002961002b565b005b5f805f9054906101000a900473ffffffffffffffffffffffffffffffffffffffff1673ffffffffffffffffffffffffffffffffffffffff16346040516100709061014a565b5f6040518083038185875af1925050503d805f81146100aa576040519150601f19603f3d011682016040523d82523d5f602084013e6100af565b606091505b50509050806100f3576040517f08c379a00000000000000000000000000000000000000000000000000000000081526004016100ea906101b8565b60405180910390fd5b50565b5f81905092915050565b7f53656e64696e67204574686572730000000000000000000000000000000000005f82015250565b5f610134600e836100f6565b915061013f82610100565b600e82019050919050565b5f61015482610128565b9150819050919050565b5f82825260208201905092915050565b7f46616c6c6261636b2046756e6374696f6e2063616c6c204661696c65640000005f82015250565b5f6101a2601d8361015e565b91506101ad8261016e565b602082019050919050565b5f6020820190508181035f8301526101cf81610196565b905091905056fea264697066735822122053dedf2e9136e9342726a73db43d082ee182237e794988953ae2a26ae5a46e6664736f6c63430008140033",
					"opcodes": "PUSH1 0x80 PUSH1 0x40 MSTORE CALLVALUE DUP1 ISZERO PUSH2 0xF JUMPI PUSH0 DUP1 REVERT JUMPDEST POP PUSH1 0x40 MLOAD PUSH2 0x318 CODESIZE SUB DUP1 PUSH2 0x318 DUP4 CODECOPY DUP2 DUP2 ADD PUSH1 0x40 MSTORE DUP2 ADD SWAP1 PUSH2 0x31 SWAP2 SWAP1 PUSH2 0xD4 JUMP JUMPDEST DUP1 PUSH0 DUP1 PUSH2 0x100 EXP DUP2 SLOAD DUP2 PUSH20 0xFFFFFFFFFFFFFFFFFFFFFFFFFFFFFFFFFFFFFFFF MUL NOT AND SWAP1 DUP4 PUSH20 0xFFFFFFFFFFFFFFFFFFFFFFFFFFFFFFFFFFFFFFFF AND MUL OR SWAP1 SSTORE POP POP PUSH2 0xFF JUMP JUMPDEST PUSH0 DUP1 REVERT JUMPDEST PUSH0 PUSH20 0xFFFFFFFFFFFFFFFFFFFFFFFFFFFFFFFFFFFFFFFF DUP3 AND SWAP1 POP SWAP2 SWAP1 POP JUMP JUMPDEST PUSH0 PUSH2 0xA3 DUP3 PUSH2 0x7A JUMP JUMPDEST SWAP1 POP SWAP2 SWAP1 POP JUMP JUMPDEST PUSH2 0xB3 DUP2 PUSH2 0x99 JUMP JUMPDEST DUP2 EQ PUSH2 0xBD JUMPI PUSH0 DUP1 REVERT JUMPDEST POP JUMP JUMPDEST PUSH0 DUP2 MLOAD SWAP1 POP PUSH2 0xCE DUP2 PUSH2 0xAA JUMP JUMPDEST SWAP3 SWAP2 POP POP JUMP JUMPDEST PUSH0 PUSH1 0x20 DUP3 DUP5 SUB SLT ISZERO PUSH2 0xE9 JUMPI PUSH2 0xE8 PUSH2 0x76 JUMP JUMPDEST JUMPDEST PUSH0 PUSH2 0xF6 DUP5 DUP3 DUP6 ADD PUSH2 0xC0 JUMP JUMPDEST SWAP2 POP POP SWAP3 SWAP2 POP POP JUMP JUMPDEST PUSH2 0x20C DUP1 PUSH2 0x10C PUSH0 CODECOPY PUSH0 RETURN INVALID PUSH1 0x80 PUSH1 0x40 MSTORE PUSH1 0x4 CALLDATASIZE LT PUSH2 0x1D JUMPI PUSH0 CALLDATALOAD PUSH1 0xE0 SHR DUP1 PUSH4 0xA1821C6A EQ PUSH2 0x21 JUMPI JUMPDEST PUSH0 DUP1 REVERT JUMPDEST PUSH2 0x29 PUSH2 0x2B JUMP JUMPDEST STOP JUMPDEST PUSH0 DUP1 PUSH0 SWAP1 SLOAD SWAP1 PUSH2 0x100 EXP SWAP1 DIV PUSH20 0xFFFFFFFFFFFFFFFFFFFFFFFFFFFFFFFFFFFFFFFF AND PUSH20 0xFFFFFFFFFFFFFFFFFFFFFFFFFFFFFFFFFFFFFFFF AND CALLVALUE PUSH1 0x40 MLOAD PUSH2 0x70 SWAP1 PUSH2 0x14A JUMP JUMPDEST PUSH0 PUSH1 0x40 MLOAD DUP1 DUP4 SUB DUP2 DUP6 DUP8 GAS CALL SWAP3 POP POP POP RETURNDATASIZE DUP1 PUSH0 DUP2 EQ PUSH2 0xAA JUMPI PUSH1 0x40 MLOAD SWAP2 POP PUSH1 0x1F NOT PUSH1 0x3F RETURNDATASIZE ADD AND DUP3 ADD PUSH1 0x40 MSTORE RETURNDATASIZE DUP3 MSTORE RETURNDATASIZE PUSH0 PUSH1 0x20 DUP5 ADD RETURNDATACOPY PUSH2 0xAF JUMP JUMPDEST PUSH1 0x60 SWAP2 POP JUMPDEST POP POP SWAP1 POP DUP1 PUSH2 0xF3 JUMPI PUSH1 0x40 MLOAD PUSH32 0x8C379A000000000000000000000000000000000000000000000000000000000 DUP2 MSTORE PUSH1 0x4 ADD PUSH2 0xEA SWAP1 PUSH2 0x1B8 JUMP JUMPDEST PUSH1 0x40 MLOAD DUP1 SWAP2 SUB SWAP1 REVERT JUMPDEST POP JUMP JUMPDEST PUSH0 DUP2 SWAP1 POP SWAP3 SWAP2 POP POP JUMP JUMPDEST PUSH32 0x53656E64696E6720457468657273000000000000000000000000000000000000 PUSH0 DUP3 ADD MSTORE POP JUMP JUMPDEST PUSH0 PUSH2 0x134 PUSH1 0xE DUP4 PUSH2 0xF6 JUMP JUMPDEST SWAP2 POP PUSH2 0x13F DUP3 PUSH2 0x100 JUMP JUMPDEST PUSH1 0xE DUP3 ADD SWAP1 POP SWAP2 SWAP1 POP JUMP JUMPDEST PUSH0 PUSH2 0x154 DUP3 PUSH2 0x128 JUMP JUMPDEST SWAP2 POP DUP2 SWAP1 POP SWAP2 SWAP1 POP JUMP JUMPDEST PUSH0 DUP3 DUP3 MSTORE PUSH1 0x20 DUP3 ADD SWAP1 POP SWAP3 SWAP2 POP POP JUMP JUMPDEST PUSH32 0x46616C6C6261636B2046756E6374696F6E2063616C6C204661696C6564000000 PUSH0 DUP3 ADD MSTORE POP JUMP JUMPDEST PUSH0 PUSH2 0x1A2 PUSH1 0x1D DUP4 PUSH2 0x15E JUMP JUMPDEST SWAP2 POP PUSH2 0x1AD DUP3 PUSH2 0x16E JUMP JUMPDEST PUSH1 0x20 DUP3 ADD SWAP1 POP SWAP2 SWAP1 POP JUMP JUMPDEST PUSH0 PUSH1 0x20 DUP3 ADD SWAP1 POP DUP2 DUP2 SUB PUSH0 DUP4 ADD MSTORE PUSH2 0x1CF DUP2 PUSH2 0x196 JUMP JUMPDEST SWAP1 POP SWAP2 SWAP1 POP JUMP INVALID LOG2 PUSH5 0x6970667358 0x22 SLT KECCAK256 MSTORE8 0xDE 0xDF 0x2E SWAP2 CALLDATASIZE 0xE9 CALLVALUE 0x27 0x26 0xA7 RETURNDATASIZE 0xB4 RETURNDATASIZE ADDMOD 0x2E 0xE1 DUP3 0x23 PUSH31 0x794988953AE2A26AE5A46E6664736F6C634300081400330000000000000000 "
				},
				"gasEstimates": {
					"creation": {
						"codeDepositCost": "104800",
						"executionCost": "infinite",
						"totalCost": "infinite"
					},
					"external": {
						"callFF()": "infinite"
					}
				},
				"methodIdentifiers": {
					"callFF()": "a1821c6a"
				}
			},
			"storageLayout": {
				"storage": [
					{
						"astId": 28,
						"contract": "contracts/fallback.sol:test",
						"label": "scaddress",
						"offset": 0,
						"slot": "0",
						"type": "t_address_payable"
					}
				],
				"types": {
					"t_address_payable": {
						"encoding": "inplace",
						"label": "address payable",
						"numberOfBytes": "20"
					}
				}
			},
			"userdoc": {
				"kind": "user",
				"methods": {},
				"version": 1
			}
		}
	}
}