{
	"contracts/bookexample3.sol": {
		"test": {
			"abi": [
				{
					"inputs": [],
					"name": "getAllDetails",
					"outputs": [
						{
							"components": [
								{
									"internalType": "string",
									"name": "title",
									"type": "string"
								},
								{
									"internalType": "string",
									"name": "author",
									"type": "string"
								},
								{
									"internalType": "uint8",
									"name": "book_id",
									"type": "uint8"
								},
								{
									"internalType": "string",
									"name": "publisher",
									"type": "string"
								}
							],
							"internalType": "struct test.Book",
							"name": "",
							"type": "tuple"
						}
					],
					"stateMutability": "view",
					"type": "function"
				},
				{
					"inputs": [],
					"name": "getBookTitle",
					"outputs": [
						{
							"internalType": "string",
							"name": "",
							"type": "string"
						}
					],
					"stateMutability": "view",
					"type": "function"
				},
				{
					"inputs": [],
					"name": "getBook_id",
					"outputs": [
						{
							"internalType": "uint256",
							"name": "",
							"type": "uint256"
						}
					],
					"stateMutability": "view",
					"type": "function"
				},
				{
					"inputs": [],
					"name": "setBook",
					"outputs": [],
					"stateMutability": "nonpayable",
					"type": "function"
				}
			],
			"devdoc": {
				"kind": "dev",
				"methods": {},
				"version": 1
			},
			"evm": {
				"assembly": "    /* \"contracts/bookexample3.sol\":61:650  contract test {... */\n  mstore(0x40, 0x80)\n  callvalue\n  dup1\n  iszero\n  tag_1\n  jumpi\n  0x00\n  dup1\n  revert\ntag_1:\n  pop\n  dataSize(sub_0)\n  dup1\n  dataOffset(sub_0)\n  0x00\n  codecopy\n  0x00\n  return\nstop\n\nsub_0: assembly {\n        /* \"contracts/bookexample3.sol\":61:650  contract test {... */\n      mstore(0x40, 0x80)\n      callvalue\n      dup1\n      iszero\n      tag_1\n      jumpi\n      0x00\n      dup1\n      revert\n    tag_1:\n      pop\n      jumpi(tag_2, lt(calldatasize, 0x04))\n      shr(0xe0, calldataload(0x00))\n      dup1\n      0x72e46388\n      eq\n      tag_3\n      jumpi\n      dup1\n      0xb015720c\n      eq\n      tag_4\n      jumpi\n      dup1\n      0xccc5d7d4\n      eq\n      tag_5\n      jumpi\n      dup1\n      0xd629546c\n      eq\n      tag_6\n      jumpi\n    tag_2:\n      0x00\n      dup1\n      revert\n        /* \"contracts/bookexample3.sol\":426:528  function getBookTitle() public view returns (string memory){... */\n    tag_3:\n      tag_7\n      tag_8\n      jump\t// in\n    tag_7:\n      mload(0x40)\n      tag_9\n      swap2\n      swap1\n      tag_10\n      jump\t// in\n    tag_9:\n      mload(0x40)\n      dup1\n      swap2\n      sub\n      swap1\n      return\n        /* \"contracts/bookexample3.sol\":318:412  function getBook_id() public view returns(uint) {... */\n    tag_4:\n      tag_11\n      tag_12\n      jump\t// in\n    tag_11:\n      mload(0x40)\n      tag_13\n      swap2\n      swap1\n      tag_14\n      jump\t// in\n    tag_13:\n      mload(0x40)\n      dup1\n      swap2\n      sub\n      swap1\n      return\n        /* \"contracts/bookexample3.sol\":548:647  function getAllDetails() public view returns(Book memory){... */\n    tag_5:\n      tag_15\n      tag_16\n      jump\t// in\n    tag_15:\n      mload(0x40)\n      tag_17\n      swap2\n      swap1\n      tag_18\n      jump\t// in\n    tag_17:\n      mload(0x40)\n      dup1\n      swap2\n      sub\n      swap1\n      return\n        /* \"contracts/bookexample3.sol\":207:306  function setBook() public {... */\n    tag_6:\n      tag_19\n      tag_20\n      jump\t// in\n    tag_19:\n      stop\n        /* \"contracts/bookexample3.sol\":426:528  function getBookTitle() public view returns (string memory){... */\n    tag_8:\n        /* \"contracts/bookexample3.sol\":471:484  string memory */\n      0x60\n        /* \"contracts/bookexample3.sol\":506:510  book */\n      0x00\n        /* \"contracts/bookexample3.sol\":506:516  book.title */\n      dup1\n      add\n        /* \"contracts/bookexample3.sol\":499:516  return book.title */\n      dup1\n      sload\n      tag_22\n      swap1\n      tag_23\n      jump\t// in\n    tag_22:\n      dup1\n      0x1f\n      add\n      0x20\n      dup1\n      swap2\n      div\n      mul\n      0x20\n      add\n      mload(0x40)\n      swap1\n      dup2\n      add\n      0x40\n      mstore\n      dup1\n      swap3\n      swap2\n      swap1\n      dup2\n      dup2\n      mstore\n      0x20\n      add\n      dup3\n      dup1\n      sload\n      tag_24\n      swap1\n      tag_23\n      jump\t// in\n    tag_24:\n      dup1\n      iszero\n      tag_25\n      jumpi\n      dup1\n      0x1f\n      lt\n      tag_26\n      jumpi\n      0x0100\n      dup1\n      dup4\n      sload\n      div\n      mul\n      dup4\n      mstore\n      swap2\n      0x20\n      add\n      swap2\n      jump(tag_25)\n    tag_26:\n      dup3\n      add\n      swap2\n      swap1\n      0x00\n      mstore\n      keccak256(0x00, 0x20)\n      swap1\n    tag_27:\n      dup2\n      sload\n      dup2\n      mstore\n      swap1\n      0x01\n      add\n      swap1\n      0x20\n      add\n      dup1\n      dup4\n      gt\n      tag_27\n      jumpi\n      dup3\n      swap1\n      sub\n      0x1f\n      and\n      dup3\n      add\n      swap2\n    tag_25:\n      pop\n      pop\n      pop\n      pop\n      pop\n      swap1\n      pop\n        /* \"contracts/bookexample3.sol\":426:528  function getBookTitle() public view returns (string memory){... */\n      swap1\n      jump\t// out\n        /* \"contracts/bookexample3.sol\":318:412  function getBook_id() public view returns(uint) {... */\n    tag_12:\n        /* \"contracts/bookexample3.sol\":360:364  uint */\n      0x00\n        /* \"contracts/bookexample3.sol\":388:392  book */\n      dup1\n        /* \"contracts/bookexample3.sol\":388:400  book.book_id */\n      0x02\n      add\n      0x00\n      swap1\n      sload\n      swap1\n      0x0100\n      exp\n      swap1\n      div\n      0xff\n      and\n        /* \"contracts/bookexample3.sol\":381:400  return book.book_id */\n      0xff\n      and\n      swap1\n      pop\n        /* \"contracts/bookexample3.sol\":318:412  function getBook_id() public view returns(uint) {... */\n      swap1\n      jump\t// out\n        /* \"contracts/bookexample3.sol\":548:647  function getAllDetails() public view returns(Book memory){... */\n    tag_16:\n        /* \"contracts/bookexample3.sol\":593:604  Book memory */\n      tag_29\n      tag_30\n      jump\t// in\n    tag_29:\n        /* \"contracts/bookexample3.sol\":631:635  book */\n      0x00\n        /* \"contracts/bookexample3.sol\":624:635  return book */\n      mload(0x40)\n      dup1\n      0x80\n      add\n      0x40\n      mstore\n      swap1\n      dup2\n      0x00\n      dup3\n      add\n      dup1\n      sload\n      tag_32\n      swap1\n      tag_23\n      jump\t// in\n    tag_32:\n      dup1\n      0x1f\n      add\n      0x20\n      dup1\n      swap2\n      div\n      mul\n      0x20\n      add\n      mload(0x40)\n      swap1\n      dup2\n      add\n      0x40\n      mstore\n      dup1\n      swap3\n      swap2\n      swap1\n      dup2\n      dup2\n      mstore\n      0x20\n      add\n      dup3\n      dup1\n      sload\n      tag_33\n      swap1\n      tag_23\n      jump\t// in\n    tag_33:\n      dup1\n      iszero\n      tag_34\n      jumpi\n      dup1\n      0x1f\n      lt\n      tag_35\n      jumpi\n      0x0100\n      dup1\n      dup4\n      sload\n      div\n      mul\n      dup4\n      mstore\n      swap2\n      0x20\n      add\n      swap2\n      jump(tag_34)\n    tag_35:\n      dup3\n      add\n      swap2\n      swap1\n      0x00\n      mstore\n      keccak256(0x00, 0x20)\n      swap1\n    tag_36:\n      dup2\n      sload\n      dup2\n      mstore\n      swap1\n      0x01\n      add\n      swap1\n      0x20\n      add\n      dup1\n      dup4\n      gt\n      tag_36\n      jumpi\n      dup3\n      swap1\n      sub\n      0x1f\n      and\n      dup3\n      add\n      swap2\n    tag_34:\n      pop\n      pop\n      pop\n      pop\n      pop\n      dup2\n      mstore\n      0x20\n      add\n      0x01\n      dup3\n      add\n      dup1\n      sload\n      tag_37\n      swap1\n      tag_23\n      jump\t// in\n    tag_37:\n      dup1\n      0x1f\n      add\n      0x20\n      dup1\n      swap2\n      div\n      mul\n      0x20\n      add\n      mload(0x40)\n      swap1\n      dup2\n      add\n      0x40\n      mstore\n      dup1\n      swap3\n      swap2\n      swap1\n      dup2\n      dup2\n      mstore\n      0x20\n      add\n      dup3\n      dup1\n      sload\n      tag_38\n      swap1\n      tag_23\n      jump\t// in\n    tag_38:\n      dup1\n      iszero\n      tag_39\n      jumpi\n      dup1\n      0x1f\n      lt\n      tag_40\n      jumpi\n      0x0100\n      dup1\n      dup4\n      sload\n      div\n      mul\n      dup4\n      mstore\n      swap2\n      0x20\n      add\n      swap2\n      jump(tag_39)\n    tag_40:\n      dup3\n      add\n      swap2\n      swap1\n      0x00\n      mstore\n      keccak256(0x00, 0x20)\n      swap1\n    tag_41:\n      dup2\n      sload\n      dup2\n      mstore\n      swap1\n      0x01\n      add\n      swap1\n      0x20\n      add\n      dup1\n      dup4\n      gt\n      tag_41\n      jumpi\n      dup3\n      swap1\n      sub\n      0x1f\n      and\n      dup3\n      add\n      swap2\n    tag_39:\n      pop\n      pop\n      pop\n      pop\n      pop\n      dup2\n      mstore\n      0x20\n      add\n      0x02\n      dup3\n      add\n      0x00\n      swap1\n      sload\n      swap1\n      0x0100\n      exp\n      swap1\n      div\n      0xff\n      and\n      0xff\n      and\n      0xff\n      and\n      dup2\n      mstore\n      0x20\n      add\n      0x03\n      dup3\n      add\n      dup1\n      sload\n      tag_42\n      swap1\n      tag_23\n      jump\t// in\n    tag_42:\n      dup1\n      0x1f\n      add\n      0x20\n      dup1\n      swap2\n      div\n      mul\n      0x20\n      add\n      mload(0x40)\n      swap1\n      dup2\n      add\n      0x40\n      mstore\n      dup1\n      swap3\n      swap2\n      swap1\n      dup2\n      dup2\n      mstore\n      0x20\n      add\n      dup3\n      dup1\n      sload\n      tag_43\n      swap1\n      tag_23\n      jump\t// in\n    tag_43:\n      dup1\n      iszero\n      tag_44\n      jumpi\n      dup1\n      0x1f\n      lt\n      tag_45\n      jumpi\n      0x0100\n      dup1\n      dup4\n      sload\n      div\n      mul\n      dup4\n      mstore\n      swap2\n      0x20\n      add\n      swap2\n      jump(tag_44)\n    tag_45:\n      dup3\n      add\n      swap2\n      swap1\n      0x00\n      mstore\n      keccak256(0x00, 0x20)\n      swap1\n    tag_46:\n      dup2\n      sload\n      dup2\n      mstore\n      swap1\n      0x01\n      add\n      swap1\n      0x20\n      add\n      dup1\n      dup4\n      gt\n      tag_46\n      jumpi\n      dup3\n      swap1\n      sub\n      0x1f\n      and\n      dup3\n      add\n      swap2\n    tag_44:\n      pop\n      pop\n      pop\n      pop\n      pop\n      dup2\n      mstore\n      pop\n      pop\n      swap1\n      pop\n        /* \"contracts/bookexample3.sol\":548:647  function getAllDetails() public view returns(Book memory){... */\n      swap1\n      jump\t// out\n        /* \"contracts/bookexample3.sol\":207:306  function setBook() public {... */\n    tag_20:\n        /* \"contracts/bookexample3.sol\":255:294  Book(\"Solidity\", \"Author\", 12, \"Benth\") */\n      mload(0x40)\n      dup1\n      0x80\n      add\n      0x40\n      mstore\n      dup1\n      mload(0x40)\n      dup1\n      0x40\n      add\n      0x40\n      mstore\n      dup1\n      0x08\n      dup2\n      mstore\n      0x20\n      add\n      0x536f6c6964697479000000000000000000000000000000000000000000000000\n      dup2\n      mstore\n      pop\n      dup2\n      mstore\n      0x20\n      add\n      mload(0x40)\n      dup1\n      0x40\n      add\n      0x40\n      mstore\n      dup1\n      0x06\n      dup2\n      mstore\n      0x20\n      add\n      0x417574686f720000000000000000000000000000000000000000000000000000\n      dup2\n      mstore\n      pop\n      dup2\n      mstore\n      0x20\n      add\n        /* \"contracts/bookexample3.sol\":282:284  12 */\n      0x0c\n        /* \"contracts/bookexample3.sol\":255:294  Book(\"Solidity\", \"Author\", 12, \"Benth\") */\n      0xff\n      and\n      dup2\n      mstore\n      0x20\n      add\n      mload(0x40)\n      dup1\n      0x40\n      add\n      0x40\n      mstore\n      dup1\n      0x05\n      dup2\n      mstore\n      0x20\n      add\n      0x42656e7468000000000000000000000000000000000000000000000000000000\n      dup2\n      mstore\n      pop\n      dup2\n      mstore\n      pop\n        /* \"contracts/bookexample3.sol\":248:252  book */\n      0x00\n        /* \"contracts/bookexample3.sol\":248:294  book = Book(\"Solidity\", \"Author\", 12, \"Benth\") */\n      dup1\n      dup3\n      add\n      mload\n      dup2\n      0x00\n      add\n      swap1\n      dup2\n      tag_48\n      swap2\n      swap1\n      tag_49\n      jump\t// in\n    tag_48:\n      pop\n      0x20\n      dup3\n      add\n      mload\n      dup2\n      0x01\n      add\n      swap1\n      dup2\n      tag_50\n      swap2\n      swap1\n      tag_49\n      jump\t// in\n    tag_50:\n      pop\n      0x40\n      dup3\n      add\n      mload\n      dup2\n      0x02\n      add\n      exp(0x0100, 0x00)\n      dup2\n      sload\n      dup2\n      0xff\n      mul\n      not\n      and\n      swap1\n      dup4\n      0xff\n      and\n      mul\n      or\n      swap1\n      sstore\n      pop\n      0x60\n      dup3\n      add\n      mload\n      dup2\n      0x03\n      add\n      swap1\n      dup2\n      tag_51\n      swap2\n      swap1\n      tag_49\n      jump\t// in\n    tag_51:\n      pop\n      swap1\n      pop\n      pop\n        /* \"contracts/bookexample3.sol\":207:306  function setBook() public {... */\n      jump\t// out\n    tag_30:\n      mload(0x40)\n      dup1\n      0x80\n      add\n      0x40\n      mstore\n      dup1\n      0x60\n      dup2\n      mstore\n      0x20\n      add\n      0x60\n      dup2\n      mstore\n      0x20\n      add\n      and(0xff, 0x00)\n      dup2\n      mstore\n      0x20\n      add\n      0x60\n      dup2\n      mstore\n      pop\n      swap1\n      jump\t// out\n        /* \"#utility.yul\":7:106   */\n    tag_52:\n        /* \"#utility.yul\":59:65   */\n      0x00\n        /* \"#utility.yul\":93:98   */\n      dup2\n        /* \"#utility.yul\":87:99   */\n      mload\n        /* \"#utility.yul\":77:99   */\n      swap1\n      pop\n        /* \"#utility.yul\":7:106   */\n      swap2\n      swap1\n      pop\n      jump\t// out\n        /* \"#utility.yul\":112:281   */\n    tag_53:\n        /* \"#utility.yul\":196:207   */\n      0x00\n        /* \"#utility.yul\":230:236   */\n      dup3\n        /* \"#utility.yul\":225:228   */\n      dup3\n        /* \"#utility.yul\":218:237   */\n      mstore\n        /* \"#utility.yul\":270:274   */\n      0x20\n        /* \"#utility.yul\":265:268   */\n      dup3\n        /* \"#utility.yul\":261:275   */\n      add\n        /* \"#utility.yul\":246:275   */\n      swap1\n      pop\n        /* \"#utility.yul\":112:281   */\n      swap3\n      swap2\n      pop\n      pop\n      jump\t// out\n        /* \"#utility.yul\":287:426   */\n    tag_54:\n        /* \"#utility.yul\":376:382   */\n      dup3\n        /* \"#utility.yul\":371:374   */\n      dup2\n        /* \"#utility.yul\":366:369   */\n      dup4\n        /* \"#utility.yul\":360:383   */\n      mcopy\n        /* \"#utility.yul\":417:418   */\n      0x00\n        /* \"#utility.yul\":408:414   */\n      dup4\n        /* \"#utility.yul\":403:406   */\n      dup4\n        /* \"#utility.yul\":399:415   */\n      add\n        /* \"#utility.yul\":392:419   */\n      mstore\n        /* \"#utility.yul\":287:426   */\n      pop\n      pop\n      pop\n      jump\t// out\n        /* \"#utility.yul\":432:534   */\n    tag_55:\n        /* \"#utility.yul\":473:479   */\n      0x00\n        /* \"#utility.yul\":524:526   */\n      0x1f\n        /* \"#utility.yul\":520:527   */\n      not\n        /* \"#utility.yul\":515:517   */\n      0x1f\n        /* \"#utility.yul\":508:513   */\n      dup4\n        /* \"#utility.yul\":504:518   */\n      add\n        /* \"#utility.yul\":500:528   */\n      and\n        /* \"#utility.yul\":490:528   */\n      swap1\n      pop\n        /* \"#utility.yul\":432:534   */\n      swap2\n      swap1\n      pop\n      jump\t// out\n        /* \"#utility.yul\":540:917   */\n    tag_56:\n        /* \"#utility.yul\":628:631   */\n      0x00\n        /* \"#utility.yul\":656:695   */\n      tag_87\n        /* \"#utility.yul\":689:694   */\n      dup3\n        /* \"#utility.yul\":656:695   */\n      tag_52\n      jump\t// in\n    tag_87:\n        /* \"#utility.yul\":711:782   */\n      tag_88\n        /* \"#utility.yul\":775:781   */\n      dup2\n        /* \"#utility.yul\":770:773   */\n      dup6\n        /* \"#utility.yul\":711:782   */\n      tag_53\n      jump\t// in\n    tag_88:\n        /* \"#utility.yul\":704:782   */\n      swap4\n      pop\n        /* \"#utility.yul\":791:856   */\n      tag_89\n        /* \"#utility.yul\":849:855   */\n      dup2\n        /* \"#utility.yul\":844:847   */\n      dup6\n        /* \"#utility.yul\":837:841   */\n      0x20\n        /* \"#utility.yul\":830:835   */\n      dup7\n        /* \"#utility.yul\":826:842   */\n      add\n        /* \"#utility.yul\":791:856   */\n      tag_54\n      jump\t// in\n    tag_89:\n        /* \"#utility.yul\":881:910   */\n      tag_90\n        /* \"#utility.yul\":903:909   */\n      dup2\n        /* \"#utility.yul\":881:910   */\n      tag_55\n      jump\t// in\n    tag_90:\n        /* \"#utility.yul\":876:879   */\n      dup5\n        /* \"#utility.yul\":872:911   */\n      add\n        /* \"#utility.yul\":865:911   */\n      swap2\n      pop\n        /* \"#utility.yul\":632:917   */\n      pop\n        /* \"#utility.yul\":540:917   */\n      swap3\n      swap2\n      pop\n      pop\n      jump\t// out\n        /* \"#utility.yul\":923:1236   */\n    tag_10:\n        /* \"#utility.yul\":1036:1040   */\n      0x00\n        /* \"#utility.yul\":1074:1076   */\n      0x20\n        /* \"#utility.yul\":1063:1072   */\n      dup3\n        /* \"#utility.yul\":1059:1077   */\n      add\n        /* \"#utility.yul\":1051:1077   */\n      swap1\n      pop\n        /* \"#utility.yul\":1123:1132   */\n      dup2\n        /* \"#utility.yul\":1117:1121   */\n      dup2\n        /* \"#utility.yul\":1113:1133   */\n      sub\n        /* \"#utility.yul\":1109:1110   */\n      0x00\n        /* \"#utility.yul\":1098:1107   */\n      dup4\n        /* \"#utility.yul\":1094:1111   */\n      add\n        /* \"#utility.yul\":1087:1134   */\n      mstore\n        /* \"#utility.yul\":1151:1229   */\n      tag_92\n        /* \"#utility.yul\":1224:1228   */\n      dup2\n        /* \"#utility.yul\":1215:1221   */\n      dup5\n        /* \"#utility.yul\":1151:1229   */\n      tag_56\n      jump\t// in\n    tag_92:\n        /* \"#utility.yul\":1143:1229   */\n      swap1\n      pop\n        /* \"#utility.yul\":923:1236   */\n      swap3\n      swap2\n      pop\n      pop\n      jump\t// out\n        /* \"#utility.yul\":1242:1319   */\n    tag_57:\n        /* \"#utility.yul\":1279:1286   */\n      0x00\n        /* \"#utility.yul\":1308:1313   */\n      dup2\n        /* \"#utility.yul\":1297:1313   */\n      swap1\n      pop\n        /* \"#utility.yul\":1242:1319   */\n      swap2\n      swap1\n      pop\n      jump\t// out\n        /* \"#utility.yul\":1325:1443   */\n    tag_58:\n        /* \"#utility.yul\":1412:1436   */\n      tag_95\n        /* \"#utility.yul\":1430:1435   */\n      dup2\n        /* \"#utility.yul\":1412:1436   */\n      tag_57\n      jump\t// in\n    tag_95:\n        /* \"#utility.yul\":1407:1410   */\n      dup3\n        /* \"#utility.yul\":1400:1437   */\n      mstore\n        /* \"#utility.yul\":1325:1443   */\n      pop\n      pop\n      jump\t// out\n        /* \"#utility.yul\":1449:1671   */\n    tag_14:\n        /* \"#utility.yul\":1542:1546   */\n      0x00\n        /* \"#utility.yul\":1580:1582   */\n      0x20\n        /* \"#utility.yul\":1569:1578   */\n      dup3\n        /* \"#utility.yul\":1565:1583   */\n      add\n        /* \"#utility.yul\":1557:1583   */\n      swap1\n      pop\n        /* \"#utility.yul\":1593:1664   */\n      tag_97\n        /* \"#utility.yul\":1661:1662   */\n      0x00\n        /* \"#utility.yul\":1650:1659   */\n      dup4\n        /* \"#utility.yul\":1646:1663   */\n      add\n        /* \"#utility.yul\":1637:1643   */\n      dup5\n        /* \"#utility.yul\":1593:1664   */\n      tag_58\n      jump\t// in\n    tag_97:\n        /* \"#utility.yul\":1449:1671   */\n      swap3\n      swap2\n      pop\n      pop\n      jump\t// out\n        /* \"#utility.yul\":1677:1836   */\n    tag_59:\n        /* \"#utility.yul\":1751:1762   */\n      0x00\n        /* \"#utility.yul\":1785:1791   */\n      dup3\n        /* \"#utility.yul\":1780:1783   */\n      dup3\n        /* \"#utility.yul\":1773:1792   */\n      mstore\n        /* \"#utility.yul\":1825:1829   */\n      0x20\n        /* \"#utility.yul\":1820:1823   */\n      dup3\n        /* \"#utility.yul\":1816:1830   */\n      add\n        /* \"#utility.yul\":1801:1830   */\n      swap1\n      pop\n        /* \"#utility.yul\":1677:1836   */\n      swap3\n      swap2\n      pop\n      pop\n      jump\t// out\n        /* \"#utility.yul\":1842:2199   */\n    tag_60:\n        /* \"#utility.yul\":1920:1923   */\n      0x00\n        /* \"#utility.yul\":1948:1987   */\n      tag_100\n        /* \"#utility.yul\":1981:1986   */\n      dup3\n        /* \"#utility.yul\":1948:1987   */\n      tag_52\n      jump\t// in\n    tag_100:\n        /* \"#utility.yul\":2003:2064   */\n      tag_101\n        /* \"#utility.yul\":2057:2063   */\n      dup2\n        /* \"#utility.yul\":2052:2055   */\n      dup6\n        /* \"#utility.yul\":2003:2064   */\n      tag_59\n      jump\t// in\n    tag_101:\n        /* \"#utility.yul\":1996:2064   */\n      swap4\n      pop\n        /* \"#utility.yul\":2073:2138   */\n      tag_102\n        /* \"#utility.yul\":2131:2137   */\n      dup2\n        /* \"#utility.yul\":2126:2129   */\n      dup6\n        /* \"#utility.yul\":2119:2123   */\n      0x20\n        /* \"#utility.yul\":2112:2117   */\n      dup7\n        /* \"#utility.yul\":2108:2124   */\n      add\n        /* \"#utility.yul\":2073:2138   */\n      tag_54\n      jump\t// in\n    tag_102:\n        /* \"#utility.yul\":2163:2192   */\n      tag_103\n        /* \"#utility.yul\":2185:2191   */\n      dup2\n        /* \"#utility.yul\":2163:2192   */\n      tag_55\n      jump\t// in\n    tag_103:\n        /* \"#utility.yul\":2158:2161   */\n      dup5\n        /* \"#utility.yul\":2154:2193   */\n      add\n        /* \"#utility.yul\":2147:2193   */\n      swap2\n      pop\n        /* \"#utility.yul\":1924:2199   */\n      pop\n        /* \"#utility.yul\":1842:2199   */\n      swap3\n      swap2\n      pop\n      pop\n      jump\t// out\n        /* \"#utility.yul\":2205:2291   */\n    tag_61:\n        /* \"#utility.yul\":2240:2247   */\n      0x00\n        /* \"#utility.yul\":2280:2284   */\n      0xff\n        /* \"#utility.yul\":2273:2278   */\n      dup3\n        /* \"#utility.yul\":2269:2285   */\n      and\n        /* \"#utility.yul\":2258:2285   */\n      swap1\n      pop\n        /* \"#utility.yul\":2205:2291   */\n      swap2\n      swap1\n      pop\n      jump\t// out\n        /* \"#utility.yul\":2297:2399   */\n    tag_62:\n        /* \"#utility.yul\":2370:2392   */\n      tag_106\n        /* \"#utility.yul\":2386:2391   */\n      dup2\n        /* \"#utility.yul\":2370:2392   */\n      tag_61\n      jump\t// in\n    tag_106:\n        /* \"#utility.yul\":2365:2368   */\n      dup3\n        /* \"#utility.yul\":2358:2393   */\n      mstore\n        /* \"#utility.yul\":2297:2399   */\n      pop\n      pop\n      jump\t// out\n        /* \"#utility.yul\":2449:3542   */\n    tag_63:\n        /* \"#utility.yul\":2558:2561   */\n      0x00\n        /* \"#utility.yul\":2594:2598   */\n      0x80\n        /* \"#utility.yul\":2589:2592   */\n      dup4\n        /* \"#utility.yul\":2585:2599   */\n      add\n        /* \"#utility.yul\":2682:2686   */\n      0x00\n        /* \"#utility.yul\":2675:2680   */\n      dup4\n        /* \"#utility.yul\":2671:2687   */\n      add\n        /* \"#utility.yul\":2665:2688   */\n      mload\n        /* \"#utility.yul\":2735:2738   */\n      dup5\n        /* \"#utility.yul\":2729:2733   */\n      dup3\n        /* \"#utility.yul\":2725:2739   */\n      sub\n        /* \"#utility.yul\":2718:2722   */\n      0x00\n        /* \"#utility.yul\":2713:2716   */\n      dup7\n        /* \"#utility.yul\":2709:2723   */\n      add\n        /* \"#utility.yul\":2702:2740   */\n      mstore\n        /* \"#utility.yul\":2761:2834   */\n      tag_108\n        /* \"#utility.yul\":2829:2833   */\n      dup3\n        /* \"#utility.yul\":2815:2827   */\n      dup3\n        /* \"#utility.yul\":2761:2834   */\n      tag_60\n      jump\t// in\n    tag_108:\n        /* \"#utility.yul\":2753:2834   */\n      swap2\n      pop\n        /* \"#utility.yul\":2609:2845   */\n      pop\n        /* \"#utility.yul\":2929:2933   */\n      0x20\n        /* \"#utility.yul\":2922:2927   */\n      dup4\n        /* \"#utility.yul\":2918:2934   */\n      add\n        /* \"#utility.yul\":2912:2935   */\n      mload\n        /* \"#utility.yul\":2982:2985   */\n      dup5\n        /* \"#utility.yul\":2976:2980   */\n      dup3\n        /* \"#utility.yul\":2972:2986   */\n      sub\n        /* \"#utility.yul\":2965:2969   */\n      0x20\n        /* \"#utility.yul\":2960:2963   */\n      dup7\n        /* \"#utility.yul\":2956:2970   */\n      add\n        /* \"#utility.yul\":2949:2987   */\n      mstore\n        /* \"#utility.yul\":3008:3081   */\n      tag_109\n        /* \"#utility.yul\":3076:3080   */\n      dup3\n        /* \"#utility.yul\":3062:3074   */\n      dup3\n        /* \"#utility.yul\":3008:3081   */\n      tag_60\n      jump\t// in\n    tag_109:\n        /* \"#utility.yul\":3000:3081   */\n      swap2\n      pop\n        /* \"#utility.yul\":2855:3092   */\n      pop\n        /* \"#utility.yul\":3177:3181   */\n      0x40\n        /* \"#utility.yul\":3170:3175   */\n      dup4\n        /* \"#utility.yul\":3166:3182   */\n      add\n        /* \"#utility.yul\":3160:3183   */\n      mload\n        /* \"#utility.yul\":3196:3255   */\n      tag_110\n        /* \"#utility.yul\":3249:3253   */\n      0x40\n        /* \"#utility.yul\":3244:3247   */\n      dup7\n        /* \"#utility.yul\":3240:3254   */\n      add\n        /* \"#utility.yul\":3226:3238   */\n      dup3\n        /* \"#utility.yul\":3196:3255   */\n      tag_62\n      jump\t// in\n    tag_110:\n        /* \"#utility.yul\":3102:3265   */\n      pop\n        /* \"#utility.yul\":3352:3356   */\n      0x60\n        /* \"#utility.yul\":3345:3350   */\n      dup4\n        /* \"#utility.yul\":3341:3357   */\n      add\n        /* \"#utility.yul\":3335:3358   */\n      mload\n        /* \"#utility.yul\":3405:3408   */\n      dup5\n        /* \"#utility.yul\":3399:3403   */\n      dup3\n        /* \"#utility.yul\":3395:3409   */\n      sub\n        /* \"#utility.yul\":3388:3392   */\n      0x60\n        /* \"#utility.yul\":3383:3386   */\n      dup7\n        /* \"#utility.yul\":3379:3393   */\n      add\n        /* \"#utility.yul\":3372:3410   */\n      mstore\n        /* \"#utility.yul\":3431:3504   */\n      tag_111\n        /* \"#utility.yul\":3499:3503   */\n      dup3\n        /* \"#utility.yul\":3485:3497   */\n      dup3\n        /* \"#utility.yul\":3431:3504   */\n      tag_60\n      jump\t// in\n    tag_111:\n        /* \"#utility.yul\":3423:3504   */\n      swap2\n      pop\n        /* \"#utility.yul\":3275:3515   */\n      pop\n        /* \"#utility.yul\":3532:3536   */\n      dup1\n        /* \"#utility.yul\":3525:3536   */\n      swap2\n      pop\n        /* \"#utility.yul\":2563:3542   */\n      pop\n        /* \"#utility.yul\":2449:3542   */\n      swap3\n      swap2\n      pop\n      pop\n      jump\t// out\n        /* \"#utility.yul\":3548:3901   */\n    tag_18:\n        /* \"#utility.yul\":3681:3685   */\n      0x00\n        /* \"#utility.yul\":3719:3721   */\n      0x20\n        /* \"#utility.yul\":3708:3717   */\n      dup3\n        /* \"#utility.yul\":3704:3722   */\n      add\n        /* \"#utility.yul\":3696:3722   */\n      swap1\n      pop\n        /* \"#utility.yul\":3768:3777   */\n      dup2\n        /* \"#utility.yul\":3762:3766   */\n      dup2\n        /* \"#utility.yul\":3758:3778   */\n      sub\n        /* \"#utility.yul\":3754:3755   */\n      0x00\n        /* \"#utility.yul\":3743:3752   */\n      dup4\n        /* \"#utility.yul\":3739:3756   */\n      add\n        /* \"#utility.yul\":3732:3779   */\n      mstore\n        /* \"#utility.yul\":3796:3894   */\n      tag_113\n        /* \"#utility.yul\":3889:3893   */\n      dup2\n        /* \"#utility.yul\":3880:3886   */\n      dup5\n        /* \"#utility.yul\":3796:3894   */\n      tag_63\n      jump\t// in\n    tag_113:\n        /* \"#utility.yul\":3788:3894   */\n      swap1\n      pop\n        /* \"#utility.yul\":3548:3901   */\n      swap3\n      swap2\n      pop\n      pop\n      jump\t// out\n        /* \"#utility.yul\":3907:4087   */\n    tag_64:\n        /* \"#utility.yul\":3955:4032   */\n      0x4e487b7100000000000000000000000000000000000000000000000000000000\n        /* \"#utility.yul\":3952:3953   */\n      0x00\n        /* \"#utility.yul\":3945:4033   */\n      mstore\n        /* \"#utility.yul\":4052:4056   */\n      0x22\n        /* \"#utility.yul\":4049:4050   */\n      0x04\n        /* \"#utility.yul\":4042:4057   */\n      mstore\n        /* \"#utility.yul\":4076:4080   */\n      0x24\n        /* \"#utility.yul\":4073:4074   */\n      0x00\n        /* \"#utility.yul\":4066:4081   */\n      revert\n        /* \"#utility.yul\":4093:4413   */\n    tag_23:\n        /* \"#utility.yul\":4137:4143   */\n      0x00\n        /* \"#utility.yul\":4174:4175   */\n      0x02\n        /* \"#utility.yul\":4168:4172   */\n      dup3\n        /* \"#utility.yul\":4164:4176   */\n      div\n        /* \"#utility.yul\":4154:4176   */\n      swap1\n      pop\n        /* \"#utility.yul\":4221:4222   */\n      0x01\n        /* \"#utility.yul\":4215:4219   */\n      dup3\n        /* \"#utility.yul\":4211:4223   */\n      and\n        /* \"#utility.yul\":4242:4260   */\n      dup1\n        /* \"#utility.yul\":4232:4313   */\n      tag_116\n      jumpi\n        /* \"#utility.yul\":4298:4302   */\n      0x7f\n        /* \"#utility.yul\":4290:4296   */\n      dup3\n        /* \"#utility.yul\":4286:4303   */\n      and\n        /* \"#utility.yul\":4276:4303   */\n      swap2\n      pop\n        /* \"#utility.yul\":4232:4313   */\n    tag_116:\n        /* \"#utility.yul\":4360:4362   */\n      0x20\n        /* \"#utility.yul\":4352:4358   */\n      dup3\n        /* \"#utility.yul\":4349:4363   */\n      lt\n        /* \"#utility.yul\":4329:4347   */\n      dup2\n        /* \"#utility.yul\":4326:4364   */\n      sub\n        /* \"#utility.yul\":4323:4407   */\n      tag_117\n      jumpi\n        /* \"#utility.yul\":4379:4397   */\n      tag_118\n      tag_64\n      jump\t// in\n    tag_118:\n        /* \"#utility.yul\":4323:4407   */\n    tag_117:\n        /* \"#utility.yul\":4144:4413   */\n      pop\n        /* \"#utility.yul\":4093:4413   */\n      swap2\n      swap1\n      pop\n      jump\t// out\n        /* \"#utility.yul\":4419:4599   */\n    tag_65:\n        /* \"#utility.yul\":4467:4544   */\n      0x4e487b7100000000000000000000000000000000000000000000000000000000\n        /* \"#utility.yul\":4464:4465   */\n      0x00\n        /* \"#utility.yul\":4457:4545   */\n      mstore\n        /* \"#utility.yul\":4564:4568   */\n      0x41\n        /* \"#utility.yul\":4561:4562   */\n      0x04\n        /* \"#utility.yul\":4554:4569   */\n      mstore\n        /* \"#utility.yul\":4588:4592   */\n      0x24\n        /* \"#utility.yul\":4585:4586   */\n      0x00\n        /* \"#utility.yul\":4578:4593   */\n      revert\n        /* \"#utility.yul\":4605:4746   */\n    tag_66:\n        /* \"#utility.yul\":4654:4658   */\n      0x00\n        /* \"#utility.yul\":4677:4680   */\n      dup2\n        /* \"#utility.yul\":4669:4680   */\n      swap1\n      pop\n        /* \"#utility.yul\":4700:4703   */\n      dup2\n        /* \"#utility.yul\":4697:4698   */\n      0x00\n        /* \"#utility.yul\":4690:4704   */\n      mstore\n        /* \"#utility.yul\":4734:4738   */\n      0x20\n        /* \"#utility.yul\":4731:4732   */\n      0x00\n        /* \"#utility.yul\":4721:4739   */\n      keccak256\n        /* \"#utility.yul\":4713:4739   */\n      swap1\n      pop\n        /* \"#utility.yul\":4605:4746   */\n      swap2\n      swap1\n      pop\n      jump\t// out\n        /* \"#utility.yul\":4752:4845   */\n    tag_67:\n        /* \"#utility.yul\":4789:4795   */\n      0x00\n        /* \"#utility.yul\":4836:4838   */\n      0x20\n        /* \"#utility.yul\":4831:4833   */\n      0x1f\n        /* \"#utility.yul\":4824:4829   */\n      dup4\n        /* \"#utility.yul\":4820:4834   */\n      add\n        /* \"#utility.yul\":4816:4839   */\n      div\n        /* \"#utility.yul\":4806:4839   */\n      swap1\n      pop\n        /* \"#utility.yul\":4752:4845   */\n      swap2\n      swap1\n      pop\n      jump\t// out\n        /* \"#utility.yul\":4851:4958   */\n    tag_68:\n        /* \"#utility.yul\":4895:4903   */\n      0x00\n        /* \"#utility.yul\":4945:4950   */\n      dup3\n        /* \"#utility.yul\":4939:4943   */\n      dup3\n        /* \"#utility.yul\":4935:4951   */\n      shl\n        /* \"#utility.yul\":4914:4951   */\n      swap1\n      pop\n        /* \"#utility.yul\":4851:4958   */\n      swap3\n      swap2\n      pop\n      pop\n      jump\t// out\n        /* \"#utility.yul\":4964:5357   */\n    tag_69:\n        /* \"#utility.yul\":5033:5039   */\n      0x00\n        /* \"#utility.yul\":5083:5084   */\n      0x08\n        /* \"#utility.yul\":5071:5081   */\n      dup4\n        /* \"#utility.yul\":5067:5085   */\n      mul\n        /* \"#utility.yul\":5106:5203   */\n      tag_124\n        /* \"#utility.yul\":5136:5202   */\n      0xffffffffffffffffffffffffffffffffffffffffffffffffffffffffffffffff\n        /* \"#utility.yul\":5125:5134   */\n      dup3\n        /* \"#utility.yul\":5106:5203   */\n      tag_68\n      jump\t// in\n    tag_124:\n        /* \"#utility.yul\":5224:5263   */\n      tag_125\n        /* \"#utility.yul\":5254:5262   */\n      dup7\n        /* \"#utility.yul\":5243:5252   */\n      dup4\n        /* \"#utility.yul\":5224:5263   */\n      tag_68\n      jump\t// in\n    tag_125:\n        /* \"#utility.yul\":5212:5263   */\n      swap6\n      pop\n        /* \"#utility.yul\":5296:5300   */\n      dup1\n        /* \"#utility.yul\":5292:5301   */\n      not\n        /* \"#utility.yul\":5285:5290   */\n      dup5\n        /* \"#utility.yul\":5281:5302   */\n      and\n        /* \"#utility.yul\":5272:5302   */\n      swap4\n      pop\n        /* \"#utility.yul\":5345:5349   */\n      dup1\n        /* \"#utility.yul\":5335:5343   */\n      dup7\n        /* \"#utility.yul\":5331:5350   */\n      and\n        /* \"#utility.yul\":5324:5329   */\n      dup5\n        /* \"#utility.yul\":5321:5351   */\n      or\n        /* \"#utility.yul\":5311:5351   */\n      swap3\n      pop\n        /* \"#utility.yul\":5040:5357   */\n      pop\n      pop\n        /* \"#utility.yul\":4964:5357   */\n      swap4\n      swap3\n      pop\n      pop\n      pop\n      jump\t// out\n        /* \"#utility.yul\":5363:5423   */\n    tag_70:\n        /* \"#utility.yul\":5391:5394   */\n      0x00\n        /* \"#utility.yul\":5412:5417   */\n      dup2\n        /* \"#utility.yul\":5405:5417   */\n      swap1\n      pop\n        /* \"#utility.yul\":5363:5423   */\n      swap2\n      swap1\n      pop\n      jump\t// out\n        /* \"#utility.yul\":5429:5571   */\n    tag_71:\n        /* \"#utility.yul\":5479:5488   */\n      0x00\n        /* \"#utility.yul\":5512:5565   */\n      tag_128\n        /* \"#utility.yul\":5530:5564   */\n      tag_129\n        /* \"#utility.yul\":5539:5563   */\n      tag_130\n        /* \"#utility.yul\":5557:5562   */\n      dup5\n        /* \"#utility.yul\":5539:5563   */\n      tag_57\n      jump\t// in\n    tag_130:\n        /* \"#utility.yul\":5530:5564   */\n      tag_70\n      jump\t// in\n    tag_129:\n        /* \"#utility.yul\":5512:5565   */\n      tag_57\n      jump\t// in\n    tag_128:\n        /* \"#utility.yul\":5499:5565   */\n      swap1\n      pop\n        /* \"#utility.yul\":5429:5571   */\n      swap2\n      swap1\n      pop\n      jump\t// out\n        /* \"#utility.yul\":5577:5652   */\n    tag_72:\n        /* \"#utility.yul\":5620:5623   */\n      0x00\n        /* \"#utility.yul\":5641:5646   */\n      dup2\n        /* \"#utility.yul\":5634:5646   */\n      swap1\n      pop\n        /* \"#utility.yul\":5577:5652   */\n      swap2\n      swap1\n      pop\n      jump\t// out\n        /* \"#utility.yul\":5658:5927   */\n    tag_73:\n        /* \"#utility.yul\":5768:5807   */\n      tag_133\n        /* \"#utility.yul\":5799:5806   */\n      dup4\n        /* \"#utility.yul\":5768:5807   */\n      tag_71\n      jump\t// in\n    tag_133:\n        /* \"#utility.yul\":5829:5920   */\n      tag_134\n        /* \"#utility.yul\":5878:5919   */\n      tag_135\n        /* \"#utility.yul\":5902:5918   */\n      dup3\n        /* \"#utility.yul\":5878:5919   */\n      tag_72\n      jump\t// in\n    tag_135:\n        /* \"#utility.yul\":5870:5876   */\n      dup5\n        /* \"#utility.yul\":5863:5867   */\n      dup5\n        /* \"#utility.yul\":5857:5868   */\n      sload\n        /* \"#utility.yul\":5829:5920   */\n      tag_69\n      jump\t// in\n    tag_134:\n        /* \"#utility.yul\":5823:5827   */\n      dup3\n        /* \"#utility.yul\":5816:5921   */\n      sstore\n        /* \"#utility.yul\":5734:5927   */\n      pop\n        /* \"#utility.yul\":5658:5927   */\n      pop\n      pop\n      pop\n      jump\t// out\n        /* \"#utility.yul\":5933:6006   */\n    tag_74:\n        /* \"#utility.yul\":5978:5981   */\n      0x00\n        /* \"#utility.yul\":5933:6006   */\n      swap1\n      jump\t// out\n        /* \"#utility.yul\":6012:6201   */\n    tag_75:\n        /* \"#utility.yul\":6089:6121   */\n      tag_138\n      tag_74\n      jump\t// in\n    tag_138:\n        /* \"#utility.yul\":6130:6195   */\n      tag_139\n        /* \"#utility.yul\":6188:6194   */\n      dup2\n        /* \"#utility.yul\":6180:6186   */\n      dup5\n        /* \"#utility.yul\":6174:6178   */\n      dup5\n        /* \"#utility.yul\":6130:6195   */\n      tag_73\n      jump\t// in\n    tag_139:\n        /* \"#utility.yul\":6065:6201   */\n      pop\n        /* \"#utility.yul\":6012:6201   */\n      pop\n      pop\n      jump\t// out\n        /* \"#utility.yul\":6207:6393   */\n    tag_76:\n        /* \"#utility.yul\":6267:6387   */\n    tag_141:\n        /* \"#utility.yul\":6284:6287   */\n      dup2\n        /* \"#utility.yul\":6277:6282   */\n      dup2\n        /* \"#utility.yul\":6274:6288   */\n      lt\n        /* \"#utility.yul\":6267:6387   */\n      iszero\n      tag_143\n      jumpi\n        /* \"#utility.yul\":6338:6377   */\n      tag_144\n        /* \"#utility.yul\":6375:6376   */\n      0x00\n        /* \"#utility.yul\":6368:6373   */\n      dup3\n        /* \"#utility.yul\":6338:6377   */\n      tag_75\n      jump\t// in\n    tag_144:\n        /* \"#utility.yul\":6311:6312   */\n      0x01\n        /* \"#utility.yul\":6304:6309   */\n      dup2\n        /* \"#utility.yul\":6300:6313   */\n      add\n        /* \"#utility.yul\":6291:6313   */\n      swap1\n      pop\n        /* \"#utility.yul\":6267:6387   */\n      jump(tag_141)\n    tag_143:\n        /* \"#utility.yul\":6207:6393   */\n      pop\n      pop\n      jump\t// out\n        /* \"#utility.yul\":6399:6942   */\n    tag_77:\n        /* \"#utility.yul\":6500:6502   */\n      0x1f\n        /* \"#utility.yul\":6495:6498   */\n      dup3\n        /* \"#utility.yul\":6492:6503   */\n      gt\n        /* \"#utility.yul\":6489:6935   */\n      iszero\n      tag_146\n      jumpi\n        /* \"#utility.yul\":6534:6572   */\n      tag_147\n        /* \"#utility.yul\":6566:6571   */\n      dup2\n        /* \"#utility.yul\":6534:6572   */\n      tag_66\n      jump\t// in\n    tag_147:\n        /* \"#utility.yul\":6618:6647   */\n      tag_148\n        /* \"#utility.yul\":6636:6646   */\n      dup5\n        /* \"#utility.yul\":6618:6647   */\n      tag_67\n      jump\t// in\n    tag_148:\n        /* \"#utility.yul\":6608:6616   */\n      dup2\n        /* \"#utility.yul\":6604:6648   */\n      add\n        /* \"#utility.yul\":6801:6803   */\n      0x20\n        /* \"#utility.yul\":6789:6799   */\n      dup6\n        /* \"#utility.yul\":6786:6804   */\n      lt\n        /* \"#utility.yul\":6783:6832   */\n      iszero\n      tag_149\n      jumpi\n        /* \"#utility.yul\":6822:6830   */\n      dup2\n        /* \"#utility.yul\":6807:6830   */\n      swap1\n      pop\n        /* \"#utility.yul\":6783:6832   */\n    tag_149:\n        /* \"#utility.yul\":6845:6925   */\n      tag_150\n        /* \"#utility.yul\":6901:6923   */\n      tag_151\n        /* \"#utility.yul\":6919:6922   */\n      dup6\n        /* \"#utility.yul\":6901:6923   */\n      tag_67\n      jump\t// in\n    tag_151:\n        /* \"#utility.yul\":6891:6899   */\n      dup4\n        /* \"#utility.yul\":6887:6924   */\n      add\n        /* \"#utility.yul\":6874:6885   */\n      dup3\n        /* \"#utility.yul\":6845:6925   */\n      tag_76\n      jump\t// in\n    tag_150:\n        /* \"#utility.yul\":6504:6935   */\n      pop\n      pop\n        /* \"#utility.yul\":6489:6935   */\n    tag_146:\n        /* \"#utility.yul\":6399:6942   */\n      pop\n      pop\n      pop\n      jump\t// out\n        /* \"#utility.yul\":6948:7065   */\n    tag_78:\n        /* \"#utility.yul\":7002:7010   */\n      0x00\n        /* \"#utility.yul\":7052:7057   */\n      dup3\n        /* \"#utility.yul\":7046:7050   */\n      dup3\n        /* \"#utility.yul\":7042:7058   */\n      shr\n        /* \"#utility.yul\":7021:7058   */\n      swap1\n      pop\n        /* \"#utility.yul\":6948:7065   */\n      swap3\n      swap2\n      pop\n      pop\n      jump\t// out\n        /* \"#utility.yul\":7071:7240   */\n    tag_79:\n        /* \"#utility.yul\":7115:7121   */\n      0x00\n        /* \"#utility.yul\":7148:7199   */\n      tag_154\n        /* \"#utility.yul\":7196:7197   */\n      0x00\n        /* \"#utility.yul\":7192:7198   */\n      not\n        /* \"#utility.yul\":7184:7189   */\n      dup5\n        /* \"#utility.yul\":7181:7182   */\n      0x08\n        /* \"#utility.yul\":7177:7190   */\n      mul\n        /* \"#utility.yul\":7148:7199   */\n      tag_78\n      jump\t// in\n    tag_154:\n        /* \"#utility.yul\":7144:7200   */\n      not\n        /* \"#utility.yul\":7229:7233   */\n      dup1\n        /* \"#utility.yul\":7223:7227   */\n      dup4\n        /* \"#utility.yul\":7219:7234   */\n      and\n        /* \"#utility.yul\":7209:7234   */\n      swap2\n      pop\n        /* \"#utility.yul\":7122:7240   */\n      pop\n        /* \"#utility.yul\":7071:7240   */\n      swap3\n      swap2\n      pop\n      pop\n      jump\t// out\n        /* \"#utility.yul\":7245:7540   */\n    tag_80:\n        /* \"#utility.yul\":7321:7325   */\n      0x00\n        /* \"#utility.yul\":7467:7496   */\n      tag_156\n        /* \"#utility.yul\":7492:7495   */\n      dup4\n        /* \"#utility.yul\":7486:7490   */\n      dup4\n        /* \"#utility.yul\":7467:7496   */\n      tag_79\n      jump\t// in\n    tag_156:\n        /* \"#utility.yul\":7459:7496   */\n      swap2\n      pop\n        /* \"#utility.yul\":7529:7532   */\n      dup3\n        /* \"#utility.yul\":7526:7527   */\n      0x02\n        /* \"#utility.yul\":7522:7533   */\n      mul\n        /* \"#utility.yul\":7516:7520   */\n      dup3\n        /* \"#utility.yul\":7513:7534   */\n      or\n        /* \"#utility.yul\":7505:7534   */\n      swap1\n      pop\n        /* \"#utility.yul\":7245:7540   */\n      swap3\n      swap2\n      pop\n      pop\n      jump\t// out\n        /* \"#utility.yul\":7545:8940   */\n    tag_49:\n        /* \"#utility.yul\":7662:7699   */\n      tag_158\n        /* \"#utility.yul\":7695:7698   */\n      dup3\n        /* \"#utility.yul\":7662:7699   */\n      tag_52\n      jump\t// in\n    tag_158:\n        /* \"#utility.yul\":7764:7782   */\n      0xffffffffffffffff\n        /* \"#utility.yul\":7756:7762   */\n      dup2\n        /* \"#utility.yul\":7753:7783   */\n      gt\n        /* \"#utility.yul\":7750:7806   */\n      iszero\n      tag_159\n      jumpi\n        /* \"#utility.yul\":7786:7804   */\n      tag_160\n      tag_65\n      jump\t// in\n    tag_160:\n        /* \"#utility.yul\":7750:7806   */\n    tag_159:\n        /* \"#utility.yul\":7830:7868   */\n      tag_161\n        /* \"#utility.yul\":7862:7866   */\n      dup3\n        /* \"#utility.yul\":7856:7867   */\n      sload\n        /* \"#utility.yul\":7830:7868   */\n      tag_23\n      jump\t// in\n    tag_161:\n        /* \"#utility.yul\":7915:7982   */\n      tag_162\n        /* \"#utility.yul\":7975:7981   */\n      dup3\n        /* \"#utility.yul\":7967:7973   */\n      dup3\n        /* \"#utility.yul\":7961:7965   */\n      dup6\n        /* \"#utility.yul\":7915:7982   */\n      tag_77\n      jump\t// in\n    tag_162:\n        /* \"#utility.yul\":8009:8010   */\n      0x00\n        /* \"#utility.yul\":8033:8037   */\n      0x20\n        /* \"#utility.yul\":8020:8037   */\n      swap1\n      pop\n        /* \"#utility.yul\":8065:8067   */\n      0x1f\n        /* \"#utility.yul\":8057:8063   */\n      dup4\n        /* \"#utility.yul\":8054:8068   */\n      gt\n        /* \"#utility.yul\":8082:8083   */\n      0x01\n        /* \"#utility.yul\":8077:8695   */\n      dup2\n      eq\n      tag_164\n      jumpi\n        /* \"#utility.yul\":8739:8740   */\n      0x00\n        /* \"#utility.yul\":8756:8762   */\n      dup5\n        /* \"#utility.yul\":8753:8830   */\n      iszero\n      tag_165\n      jumpi\n        /* \"#utility.yul\":8805:8814   */\n      dup3\n        /* \"#utility.yul\":8800:8803   */\n      dup8\n        /* \"#utility.yul\":8796:8815   */\n      add\n        /* \"#utility.yul\":8790:8816   */\n      mload\n        /* \"#utility.yul\":8781:8816   */\n      swap1\n      pop\n        /* \"#utility.yul\":8753:8830   */\n    tag_165:\n        /* \"#utility.yul\":8856:8923   */\n      tag_166\n        /* \"#utility.yul\":8916:8922   */\n      dup6\n        /* \"#utility.yul\":8909:8914   */\n      dup3\n        /* \"#utility.yul\":8856:8923   */\n      tag_80\n      jump\t// in\n    tag_166:\n        /* \"#utility.yul\":8850:8854   */\n      dup7\n        /* \"#utility.yul\":8843:8924   */\n      sstore\n        /* \"#utility.yul\":8712:8934   */\n      pop\n        /* \"#utility.yul\":8047:8934   */\n      jump(tag_163)\n        /* \"#utility.yul\":8077:8695   */\n    tag_164:\n        /* \"#utility.yul\":8129:8133   */\n      0x1f\n        /* \"#utility.yul\":8125:8134   */\n      not\n        /* \"#utility.yul\":8117:8123   */\n      dup5\n        /* \"#utility.yul\":8113:8135   */\n      and\n        /* \"#utility.yul\":8163:8200   */\n      tag_167\n        /* \"#utility.yul\":8195:8199   */\n      dup7\n        /* \"#utility.yul\":8163:8200   */\n      tag_66\n      jump\t// in\n    tag_167:\n        /* \"#utility.yul\":8222:8223   */\n      0x00\n        /* \"#utility.yul\":8236:8444   */\n    tag_168:\n        /* \"#utility.yul\":8250:8257   */\n      dup3\n        /* \"#utility.yul\":8247:8248   */\n      dup2\n        /* \"#utility.yul\":8244:8258   */\n      lt\n        /* \"#utility.yul\":8236:8444   */\n      iszero\n      tag_170\n      jumpi\n        /* \"#utility.yul\":8329:8338   */\n      dup5\n        /* \"#utility.yul\":8324:8327   */\n      dup10\n        /* \"#utility.yul\":8320:8339   */\n      add\n        /* \"#utility.yul\":8314:8340   */\n      mload\n        /* \"#utility.yul\":8306:8312   */\n      dup3\n        /* \"#utility.yul\":8299:8341   */\n      sstore\n        /* \"#utility.yul\":8380:8381   */\n      0x01\n        /* \"#utility.yul\":8372:8378   */\n      dup3\n        /* \"#utility.yul\":8368:8382   */\n      add\n        /* \"#utility.yul\":8358:8382   */\n      swap2\n      pop\n        /* \"#utility.yul\":8427:8429   */\n      0x20\n        /* \"#utility.yul\":8416:8425   */\n      dup6\n        /* \"#utility.yul\":8412:8430   */\n      add\n        /* \"#utility.yul\":8399:8430   */\n      swap5\n      pop\n        /* \"#utility.yul\":8273:8277   */\n      0x20\n        /* \"#utility.yul\":8270:8271   */\n      dup2\n        /* \"#utility.yul\":8266:8278   */\n      add\n        /* \"#utility.yul\":8261:8278   */\n      swap1\n      pop\n        /* \"#utility.yul\":8236:8444   */\n      jump(tag_168)\n    tag_170:\n        /* \"#utility.yul\":8472:8478   */\n      dup7\n        /* \"#utility.yul\":8463:8470   */\n      dup4\n        /* \"#utility.yul\":8460:8479   */\n      lt\n        /* \"#utility.yul\":8457:8636   */\n      iszero\n      tag_171\n      jumpi\n        /* \"#utility.yul\":8530:8539   */\n      dup5\n        /* \"#utility.yul\":8525:8528   */\n      dup10\n        /* \"#utility.yul\":8521:8540   */\n      add\n        /* \"#utility.yul\":8515:8541   */\n      mload\n        /* \"#utility.yul\":8573:8621   */\n      tag_172\n        /* \"#utility.yul\":8615:8619   */\n      0x1f\n        /* \"#utility.yul\":8607:8613   */\n      dup10\n        /* \"#utility.yul\":8603:8620   */\n      and\n        /* \"#utility.yul\":8592:8601   */\n      dup3\n        /* \"#utility.yul\":8573:8621   */\n      tag_79\n      jump\t// in\n    tag_172:\n        /* \"#utility.yul\":8565:8571   */\n      dup4\n        /* \"#utility.yul\":8558:8622   */\n      sstore\n        /* \"#utility.yul\":8480:8636   */\n      pop\n        /* \"#utility.yul\":8457:8636   */\n    tag_171:\n        /* \"#utility.yul\":8682:8683   */\n      0x01\n        /* \"#utility.yul\":8678:8679   */\n      0x02\n        /* \"#utility.yul\":8670:8676   */\n      dup9\n        /* \"#utility.yul\":8666:8680   */\n      mul\n        /* \"#utility.yul\":8662:8684   */\n      add\n        /* \"#utility.yul\":8656:8660   */\n      dup9\n        /* \"#utility.yul\":8649:8685   */\n      sstore\n        /* \"#utility.yul\":8084:8695   */\n      pop\n      pop\n      pop\n        /* \"#utility.yul\":8047:8934   */\n    tag_163:\n      pop\n        /* \"#utility.yul\":7637:8940   */\n      pop\n      pop\n      pop\n        /* \"#utility.yul\":7545:8940   */\n      pop\n      pop\n      jump\t// out\n\n    auxdata: 0xa26469706673582212209da99b02952977faa32359a30d090e13579b50d175c97229569097bcfc72b85c64736f6c63430008190033\n}\n",
				"bytecode": {
					"linkReferences": {},
					"object": "6080604052348015600e575f80fd5b506109738061001c5f395ff3fe608060405234801561000f575f80fd5b506004361061004a575f3560e01c806372e463881461004e578063b015720c1461006c578063ccc5d7d41461008a578063d629546c146100a8575b5f80fd5b6100566100b2565b6040516100639190610505565b60405180910390f35b610074610143565b604051610081919061053d565b60405180910390f35b61009261015d565b60405161009f9190610627565b60405180910390f35b6100b0610341565b005b60605f800180546100c290610674565b80601f01602080910402602001604051908101604052809291908181526020018280546100ee90610674565b80156101395780601f1061011057610100808354040283529160200191610139565b820191905f5260205f20905b81548152906001019060200180831161011c57829003601f168201915b5050505050905090565b5f806002015f9054906101000a900460ff1660ff16905090565b61016561046b565b5f6040518060800160405290815f8201805461018090610674565b80601f01602080910402602001604051908101604052809291908181526020018280546101ac90610674565b80156101f75780601f106101ce576101008083540402835291602001916101f7565b820191905f5260205f20905b8154815290600101906020018083116101da57829003601f168201915b5050505050815260200160018201805461021090610674565b80601f016020809104026020016040519081016040528092919081815260200182805461023c90610674565b80156102875780601f1061025e57610100808354040283529160200191610287565b820191905f5260205f20905b81548152906001019060200180831161026a57829003601f168201915b50505050508152602001600282015f9054906101000a900460ff1660ff1660ff1681526020016003820180546102bc90610674565b80601f01602080910402602001604051908101604052809291908181526020018280546102e890610674565b80156103335780601f1061030a57610100808354040283529160200191610333565b820191905f5260205f20905b81548152906001019060200180831161031657829003601f168201915b505050505081525050905090565b60405180608001604052806040518060400160405280600881526020017f536f6c696469747900000000000000000000000000000000000000000000000081525081526020016040518060400160405280600681526020017f417574686f7200000000000000000000000000000000000000000000000000008152508152602001600c60ff1681526020016040518060400160405280600581526020017f42656e74680000000000000000000000000000000000000000000000000000008152508152505f80820151815f019081610419919061086e565b50602082015181600101908161042f919061086e565b506040820151816002015f6101000a81548160ff021916908360ff1602179055506060820151816003019081610465919061086e565b50905050565b604051806080016040528060608152602001606081526020015f60ff168152602001606081525090565b5f81519050919050565b5f82825260208201905092915050565b8281835e5f83830152505050565b5f601f19601f8301169050919050565b5f6104d782610495565b6104e1818561049f565b93506104f18185602086016104af565b6104fa816104bd565b840191505092915050565b5f6020820190508181035f83015261051d81846104cd565b905092915050565b5f819050919050565b61053781610525565b82525050565b5f6020820190506105505f83018461052e565b92915050565b5f82825260208201905092915050565b5f61057082610495565b61057a8185610556565b935061058a8185602086016104af565b610593816104bd565b840191505092915050565b5f60ff82169050919050565b6105b38161059e565b82525050565b5f608083015f8301518482035f8601526105d38282610566565b915050602083015184820360208601526105ed8282610566565b915050604083015161060260408601826105aa565b506060830151848203606086015261061a8282610566565b9150508091505092915050565b5f6020820190508181035f83015261063f81846105b9565b905092915050565b7f4e487b71000000000000000000000000000000000000000000000000000000005f52602260045260245ffd5b5f600282049050600182168061068b57607f821691505b60208210810361069e5761069d610647565b5b50919050565b7f4e487b71000000000000000000000000000000000000000000000000000000005f52604160045260245ffd5b5f819050815f5260205f209050919050565b5f6020601f8301049050919050565b5f82821b905092915050565b5f6008830261072d7fffffffffffffffffffffffffffffffffffffffffffffffffffffffffffffffff826106f2565b61073786836106f2565b95508019841693508086168417925050509392505050565b5f819050919050565b5f61077261076d61076884610525565b61074f565b610525565b9050919050565b5f819050919050565b61078b83610758565b61079f61079782610779565b8484546106fe565b825550505050565b5f90565b6107b36107a7565b6107be818484610782565b505050565b5b818110156107e1576107d65f826107ab565b6001810190506107c4565b5050565b601f821115610826576107f7816106d1565b610800846106e3565b8101602085101561080f578190505b61082361081b856106e3565b8301826107c3565b50505b505050565b5f82821c905092915050565b5f6108465f198460080261082b565b1980831691505092915050565b5f61085e8383610837565b9150826002028217905092915050565b61087782610495565b67ffffffffffffffff8111156108905761088f6106a4565b5b61089a8254610674565b6108a58282856107e5565b5f60209050601f8311600181146108d6575f84156108c4578287015190505b6108ce8582610853565b865550610935565b601f1984166108e4866106d1565b5f5b8281101561090b578489015182556001820191506020850194506020810190506108e6565b868310156109285784890151610924601f891682610837565b8355505b6001600288020188555050505b50505050505056fea26469706673582212209da99b02952977faa32359a30d090e13579b50d175c97229569097bcfc72b85c64736f6c63430008190033",
					"opcodes": "PUSH1 0x80 PUSH1 0x40 MSTORE CALLVALUE DUP1 ISZERO PUSH1 0xE JUMPI PUSH0 DUP1 REVERT JUMPDEST POP PUSH2 0x973 DUP1 PUSH2 0x1C PUSH0 CODECOPY PUSH0 RETURN INVALID PUSH1 0x80 PUSH1 0x40 MSTORE CALLVALUE DUP1 ISZERO PUSH2 0xF JUMPI PUSH0 DUP1 REVERT JUMPDEST POP PUSH1 0x4 CALLDATASIZE LT PUSH2 0x4A JUMPI PUSH0 CALLDATALOAD PUSH1 0xE0 SHR DUP1 PUSH4 0x72E46388 EQ PUSH2 0x4E JUMPI DUP1 PUSH4 0xB015720C EQ PUSH2 0x6C JUMPI DUP1 PUSH4 0xCCC5D7D4 EQ PUSH2 0x8A JUMPI DUP1 PUSH4 0xD629546C EQ PUSH2 0xA8 JUMPI JUMPDEST PUSH0 DUP1 REVERT JUMPDEST PUSH2 0x56 PUSH2 0xB2 JUMP JUMPDEST PUSH1 0x40 MLOAD PUSH2 0x63 SWAP2 SWAP1 PUSH2 0x505 JUMP JUMPDEST PUSH1 0x40 MLOAD DUP1 SWAP2 SUB SWAP1 RETURN JUMPDEST PUSH2 0x74 PUSH2 0x143 JUMP JUMPDEST PUSH1 0x40 MLOAD PUSH2 0x81 SWAP2 SWAP1 PUSH2 0x53D JUMP JUMPDEST PUSH1 0x40 MLOAD DUP1 SWAP2 SUB SWAP1 RETURN JUMPDEST PUSH2 0x92 PUSH2 0x15D JUMP JUMPDEST PUSH1 0x40 MLOAD PUSH2 0x9F SWAP2 SWAP1 PUSH2 0x627 JUMP JUMPDEST PUSH1 0x40 MLOAD DUP1 SWAP2 SUB SWAP1 RETURN JUMPDEST PUSH2 0xB0 PUSH2 0x341 JUMP JUMPDEST STOP JUMPDEST PUSH1 0x60 PUSH0 DUP1 ADD DUP1 SLOAD PUSH2 0xC2 SWAP1 PUSH2 0x674 JUMP JUMPDEST DUP1 PUSH1 0x1F ADD PUSH1 0x20 DUP1 SWAP2 DIV MUL PUSH1 0x20 ADD PUSH1 0x40 MLOAD SWAP1 DUP2 ADD PUSH1 0x40 MSTORE DUP1 SWAP3 SWAP2 SWAP1 DUP2 DUP2 MSTORE PUSH1 0x20 ADD DUP3 DUP1 SLOAD PUSH2 0xEE SWAP1 PUSH2 0x674 JUMP JUMPDEST DUP1 ISZERO PUSH2 0x139 JUMPI DUP1 PUSH1 0x1F LT PUSH2 0x110 JUMPI PUSH2 0x100 DUP1 DUP4 SLOAD DIV MUL DUP4 MSTORE SWAP2 PUSH1 0x20 ADD SWAP2 PUSH2 0x139 JUMP JUMPDEST DUP3 ADD SWAP2 SWAP1 PUSH0 MSTORE PUSH1 0x20 PUSH0 KECCAK256 SWAP1 JUMPDEST DUP2 SLOAD DUP2 MSTORE SWAP1 PUSH1 0x1 ADD SWAP1 PUSH1 0x20 ADD DUP1 DUP4 GT PUSH2 0x11C JUMPI DUP3 SWAP1 SUB PUSH1 0x1F AND DUP3 ADD SWAP2 JUMPDEST POP POP POP POP POP SWAP1 POP SWAP1 JUMP JUMPDEST PUSH0 DUP1 PUSH1 0x2 ADD PUSH0 SWAP1 SLOAD SWAP1 PUSH2 0x100 EXP SWAP1 DIV PUSH1 0xFF AND PUSH1 0xFF AND SWAP1 POP SWAP1 JUMP JUMPDEST PUSH2 0x165 PUSH2 0x46B JUMP JUMPDEST PUSH0 PUSH1 0x40 MLOAD DUP1 PUSH1 0x80 ADD PUSH1 0x40 MSTORE SWAP1 DUP2 PUSH0 DUP3 ADD DUP1 SLOAD PUSH2 0x180 SWAP1 PUSH2 0x674 JUMP JUMPDEST DUP1 PUSH1 0x1F ADD PUSH1 0x20 DUP1 SWAP2 DIV MUL PUSH1 0x20 ADD PUSH1 0x40 MLOAD SWAP1 DUP2 ADD PUSH1 0x40 MSTORE DUP1 SWAP3 SWAP2 SWAP1 DUP2 DUP2 MSTORE PUSH1 0x20 ADD DUP3 DUP1 SLOAD PUSH2 0x1AC SWAP1 PUSH2 0x674 JUMP JUMPDEST DUP1 ISZERO PUSH2 0x1F7 JUMPI DUP1 PUSH1 0x1F LT PUSH2 0x1CE JUMPI PUSH2 0x100 DUP1 DUP4 SLOAD DIV MUL DUP4 MSTORE SWAP2 PUSH1 0x20 ADD SWAP2 PUSH2 0x1F7 JUMP JUMPDEST DUP3 ADD SWAP2 SWAP1 PUSH0 MSTORE PUSH1 0x20 PUSH0 KECCAK256 SWAP1 JUMPDEST DUP2 SLOAD DUP2 MSTORE SWAP1 PUSH1 0x1 ADD SWAP1 PUSH1 0x20 ADD DUP1 DUP4 GT PUSH2 0x1DA JUMPI DUP3 SWAP1 SUB PUSH1 0x1F AND DUP3 ADD SWAP2 JUMPDEST POP POP POP POP POP DUP2 MSTORE PUSH1 0x20 ADD PUSH1 0x1 DUP3 ADD DUP1 SLOAD PUSH2 0x210 SWAP1 PUSH2 0x674 JUMP JUMPDEST DUP1 PUSH1 0x1F ADD PUSH1 0x20 DUP1 SWAP2 DIV MUL PUSH1 0x20 ADD PUSH1 0x40 MLOAD SWAP1 DUP2 ADD PUSH1 0x40 MSTORE DUP1 SWAP3 SWAP2 SWAP1 DUP2 DUP2 MSTORE PUSH1 0x20 ADD DUP3 DUP1 SLOAD PUSH2 0x23C SWAP1 PUSH2 0x674 JUMP JUMPDEST DUP1 ISZERO PUSH2 0x287 JUMPI DUP1 PUSH1 0x1F LT PUSH2 0x25E JUMPI PUSH2 0x100 DUP1 DUP4 SLOAD DIV MUL DUP4 MSTORE SWAP2 PUSH1 0x20 ADD SWAP2 PUSH2 0x287 JUMP JUMPDEST DUP3 ADD SWAP2 SWAP1 PUSH0 MSTORE PUSH1 0x20 PUSH0 KECCAK256 SWAP1 JUMPDEST DUP2 SLOAD DUP2 MSTORE SWAP1 PUSH1 0x1 ADD SWAP1 PUSH1 0x20 ADD DUP1 DUP4 GT PUSH2 0x26A JUMPI DUP3 SWAP1 SUB PUSH1 0x1F AND DUP3 ADD SWAP2 JUMPDEST POP POP POP POP POP DUP2 MSTORE PUSH1 0x20 ADD PUSH1 0x2 DUP3 ADD PUSH0 SWAP1 SLOAD SWAP1 PUSH2 0x100 EXP SWAP1 DIV PUSH1 0xFF AND PUSH1 0xFF AND PUSH1 0xFF AND DUP2 MSTORE PUSH1 0x20 ADD PUSH1 0x3 DUP3 ADD DUP1 SLOAD PUSH2 0x2BC SWAP1 PUSH2 0x674 JUMP JUMPDEST DUP1 PUSH1 0x1F ADD PUSH1 0x20 DUP1 SWAP2 DIV MUL PUSH1 0x20 ADD PUSH1 0x40 MLOAD SWAP1 DUP2 ADD PUSH1 0x40 MSTORE DUP1 SWAP3 SWAP2 SWAP1 DUP2 DUP2 MSTORE PUSH1 0x20 ADD DUP3 DUP1 SLOAD PUSH2 0x2E8 SWAP1 PUSH2 0x674 JUMP JUMPDEST DUP1 ISZERO PUSH2 0x333 JUMPI DUP1 PUSH1 0x1F LT PUSH2 0x30A JUMPI PUSH2 0x100 DUP1 DUP4 SLOAD DIV MUL DUP4 MSTORE SWAP2 PUSH1 0x20 ADD SWAP2 PUSH2 0x333 JUMP JUMPDEST DUP3 ADD SWAP2 SWAP1 PUSH0 MSTORE PUSH1 0x20 PUSH0 KECCAK256 SWAP1 JUMPDEST DUP2 SLOAD DUP2 MSTORE SWAP1 PUSH1 0x1 ADD SWAP1 PUSH1 0x20 ADD DUP1 DUP4 GT PUSH2 0x316 JUMPI DUP3 SWAP1 SUB PUSH1 0x1F AND DUP3 ADD SWAP2 JUMPDEST POP POP POP POP POP DUP2 MSTORE POP POP SWAP1 POP SWAP1 JUMP JUMPDEST PUSH1 0x40 MLOAD DUP1 PUSH1 0x80 ADD PUSH1 0x40 MSTORE DUP1 PUSH1 0x40 MLOAD DUP1 PUSH1 0x40 ADD PUSH1 0x40 MSTORE DUP1 PUSH1 0x8 DUP2 MSTORE PUSH1 0x20 ADD PUSH32 0x536F6C6964697479000000000000000000000000000000000000000000000000 DUP2 MSTORE POP DUP2 MSTORE PUSH1 0x20 ADD PUSH1 0x40 MLOAD DUP1 PUSH1 0x40 ADD PUSH1 0x40 MSTORE DUP1 PUSH1 0x6 DUP2 MSTORE PUSH1 0x20 ADD PUSH32 0x417574686F720000000000000000000000000000000000000000000000000000 DUP2 MSTORE POP DUP2 MSTORE PUSH1 0x20 ADD PUSH1 0xC PUSH1 0xFF AND DUP2 MSTORE PUSH1 0x20 ADD PUSH1 0x40 MLOAD DUP1 PUSH1 0x40 ADD PUSH1 0x40 MSTORE DUP1 PUSH1 0x5 DUP2 MSTORE PUSH1 0x20 ADD PUSH32 0x42656E7468000000000000000000000000000000000000000000000000000000 DUP2 MSTORE POP DUP2 MSTORE POP PUSH0 DUP1 DUP3 ADD MLOAD DUP2 PUSH0 ADD SWAP1 DUP2 PUSH2 0x419 SWAP2 SWAP1 PUSH2 0x86E JUMP JUMPDEST POP PUSH1 0x20 DUP3 ADD MLOAD DUP2 PUSH1 0x1 ADD SWAP1 DUP2 PUSH2 0x42F SWAP2 SWAP1 PUSH2 0x86E JUMP JUMPDEST POP PUSH1 0x40 DUP3 ADD MLOAD DUP2 PUSH1 0x2 ADD PUSH0 PUSH2 0x100 EXP DUP2 SLOAD DUP2 PUSH1 0xFF MUL NOT AND SWAP1 DUP4 PUSH1 0xFF AND MUL OR SWAP1 SSTORE POP PUSH1 0x60 DUP3 ADD MLOAD DUP2 PUSH1 0x3 ADD SWAP1 DUP2 PUSH2 0x465 SWAP2 SWAP1 PUSH2 0x86E JUMP JUMPDEST POP SWAP1 POP POP JUMP JUMPDEST PUSH1 0x40 MLOAD DUP1 PUSH1 0x80 ADD PUSH1 0x40 MSTORE DUP1 PUSH1 0x60 DUP2 MSTORE PUSH1 0x20 ADD PUSH1 0x60 DUP2 MSTORE PUSH1 0x20 ADD PUSH0 PUSH1 0xFF AND DUP2 MSTORE PUSH1 0x20 ADD PUSH1 0x60 DUP2 MSTORE POP SWAP1 JUMP JUMPDEST PUSH0 DUP2 MLOAD SWAP1 POP SWAP2 SWAP1 POP JUMP JUMPDEST PUSH0 DUP3 DUP3 MSTORE PUSH1 0x20 DUP3 ADD SWAP1 POP SWAP3 SWAP2 POP POP JUMP JUMPDEST DUP3 DUP2 DUP4 MCOPY PUSH0 DUP4 DUP4 ADD MSTORE POP POP POP JUMP JUMPDEST PUSH0 PUSH1 0x1F NOT PUSH1 0x1F DUP4 ADD AND SWAP1 POP SWAP2 SWAP1 POP JUMP JUMPDEST PUSH0 PUSH2 0x4D7 DUP3 PUSH2 0x495 JUMP JUMPDEST PUSH2 0x4E1 DUP2 DUP6 PUSH2 0x49F JUMP JUMPDEST SWAP4 POP PUSH2 0x4F1 DUP2 DUP6 PUSH1 0x20 DUP7 ADD PUSH2 0x4AF JUMP JUMPDEST PUSH2 0x4FA DUP2 PUSH2 0x4BD JUMP JUMPDEST DUP5 ADD SWAP2 POP POP SWAP3 SWAP2 POP POP JUMP JUMPDEST PUSH0 PUSH1 0x20 DUP3 ADD SWAP1 POP DUP2 DUP2 SUB PUSH0 DUP4 ADD MSTORE PUSH2 0x51D DUP2 DUP5 PUSH2 0x4CD JUMP JUMPDEST SWAP1 POP SWAP3 SWAP2 POP POP JUMP JUMPDEST PUSH0 DUP2 SWAP1 POP SWAP2 SWAP1 POP JUMP JUMPDEST PUSH2 0x537 DUP2 PUSH2 0x525 JUMP JUMPDEST DUP3 MSTORE POP POP JUMP JUMPDEST PUSH0 PUSH1 0x20 DUP3 ADD SWAP1 POP PUSH2 0x550 PUSH0 DUP4 ADD DUP5 PUSH2 0x52E JUMP JUMPDEST SWAP3 SWAP2 POP POP JUMP JUMPDEST PUSH0 DUP3 DUP3 MSTORE PUSH1 0x20 DUP3 ADD SWAP1 POP SWAP3 SWAP2 POP POP JUMP JUMPDEST PUSH0 PUSH2 0x570 DUP3 PUSH2 0x495 JUMP JUMPDEST PUSH2 0x57A DUP2 DUP6 PUSH2 0x556 JUMP JUMPDEST SWAP4 POP PUSH2 0x58A DUP2 DUP6 PUSH1 0x20 DUP7 ADD PUSH2 0x4AF JUMP JUMPDEST PUSH2 0x593 DUP2 PUSH2 0x4BD JUMP JUMPDEST DUP5 ADD SWAP2 POP POP SWAP3 SWAP2 POP POP JUMP JUMPDEST PUSH0 PUSH1 0xFF DUP3 AND SWAP1 POP SWAP2 SWAP1 POP JUMP JUMPDEST PUSH2 0x5B3 DUP2 PUSH2 0x59E JUMP JUMPDEST DUP3 MSTORE POP POP JUMP JUMPDEST PUSH0 PUSH1 0x80 DUP4 ADD PUSH0 DUP4 ADD MLOAD DUP5 DUP3 SUB PUSH0 DUP7 ADD MSTORE PUSH2 0x5D3 DUP3 DUP3 PUSH2 0x566 JUMP JUMPDEST SWAP2 POP POP PUSH1 0x20 DUP4 ADD MLOAD DUP5 DUP3 SUB PUSH1 0x20 DUP7 ADD MSTORE PUSH2 0x5ED DUP3 DUP3 PUSH2 0x566 JUMP JUMPDEST SWAP2 POP POP PUSH1 0x40 DUP4 ADD MLOAD PUSH2 0x602 PUSH1 0x40 DUP7 ADD DUP3 PUSH2 0x5AA JUMP JUMPDEST POP PUSH1 0x60 DUP4 ADD MLOAD DUP5 DUP3 SUB PUSH1 0x60 DUP7 ADD MSTORE PUSH2 0x61A DUP3 DUP3 PUSH2 0x566 JUMP JUMPDEST SWAP2 POP POP DUP1 SWAP2 POP POP SWAP3 SWAP2 POP POP JUMP JUMPDEST PUSH0 PUSH1 0x20 DUP3 ADD SWAP1 POP DUP2 DUP2 SUB PUSH0 DUP4 ADD MSTORE PUSH2 0x63F DUP2 DUP5 PUSH2 0x5B9 JUMP JUMPDEST SWAP1 POP SWAP3 SWAP2 POP POP JUMP JUMPDEST PUSH32 0x4E487B7100000000000000000000000000000000000000000000000000000000 PUSH0 MSTORE PUSH1 0x22 PUSH1 0x4 MSTORE PUSH1 0x24 PUSH0 REVERT JUMPDEST PUSH0 PUSH1 0x2 DUP3 DIV SWAP1 POP PUSH1 0x1 DUP3 AND DUP1 PUSH2 0x68B JUMPI PUSH1 0x7F DUP3 AND SWAP2 POP JUMPDEST PUSH1 0x20 DUP3 LT DUP2 SUB PUSH2 0x69E JUMPI PUSH2 0x69D PUSH2 0x647 JUMP JUMPDEST JUMPDEST POP SWAP2 SWAP1 POP JUMP JUMPDEST PUSH32 0x4E487B7100000000000000000000000000000000000000000000000000000000 PUSH0 MSTORE PUSH1 0x41 PUSH1 0x4 MSTORE PUSH1 0x24 PUSH0 REVERT JUMPDEST PUSH0 DUP2 SWAP1 POP DUP2 PUSH0 MSTORE PUSH1 0x20 PUSH0 KECCAK256 SWAP1 POP SWAP2 SWAP1 POP JUMP JUMPDEST PUSH0 PUSH1 0x20 PUSH1 0x1F DUP4 ADD DIV SWAP1 POP SWAP2 SWAP1 POP JUMP JUMPDEST PUSH0 DUP3 DUP3 SHL SWAP1 POP SWAP3 SWAP2 POP POP JUMP JUMPDEST PUSH0 PUSH1 0x8 DUP4 MUL PUSH2 0x72D PUSH32 0xFFFFFFFFFFFFFFFFFFFFFFFFFFFFFFFFFFFFFFFFFFFFFFFFFFFFFFFFFFFFFFFF DUP3 PUSH2 0x6F2 JUMP JUMPDEST PUSH2 0x737 DUP7 DUP4 PUSH2 0x6F2 JUMP JUMPDEST SWAP6 POP DUP1 NOT DUP5 AND SWAP4 POP DUP1 DUP7 AND DUP5 OR SWAP3 POP POP POP SWAP4 SWAP3 POP POP POP JUMP JUMPDEST PUSH0 DUP2 SWAP1 POP SWAP2 SWAP1 POP JUMP JUMPDEST PUSH0 PUSH2 0x772 PUSH2 0x76D PUSH2 0x768 DUP5 PUSH2 0x525 JUMP JUMPDEST PUSH2 0x74F JUMP JUMPDEST PUSH2 0x525 JUMP JUMPDEST SWAP1 POP SWAP2 SWAP1 POP JUMP JUMPDEST PUSH0 DUP2 SWAP1 POP SWAP2 SWAP1 POP JUMP JUMPDEST PUSH2 0x78B DUP4 PUSH2 0x758 JUMP JUMPDEST PUSH2 0x79F PUSH2 0x797 DUP3 PUSH2 0x779 JUMP JUMPDEST DUP5 DUP5 SLOAD PUSH2 0x6FE JUMP JUMPDEST DUP3 SSTORE POP POP POP POP JUMP JUMPDEST PUSH0 SWAP1 JUMP JUMPDEST PUSH2 0x7B3 PUSH2 0x7A7 JUMP JUMPDEST PUSH2 0x7BE DUP2 DUP5 DUP5 PUSH2 0x782 JUMP JUMPDEST POP POP POP JUMP JUMPDEST JUMPDEST DUP2 DUP2 LT ISZERO PUSH2 0x7E1 JUMPI PUSH2 0x7D6 PUSH0 DUP3 PUSH2 0x7AB JUMP JUMPDEST PUSH1 0x1 DUP2 ADD SWAP1 POP PUSH2 0x7C4 JUMP JUMPDEST POP POP JUMP JUMPDEST PUSH1 0x1F DUP3 GT ISZERO PUSH2 0x826 JUMPI PUSH2 0x7F7 DUP2 PUSH2 0x6D1 JUMP JUMPDEST PUSH2 0x800 DUP5 PUSH2 0x6E3 JUMP JUMPDEST DUP2 ADD PUSH1 0x20 DUP6 LT ISZERO PUSH2 0x80F JUMPI DUP2 SWAP1 POP JUMPDEST PUSH2 0x823 PUSH2 0x81B DUP6 PUSH2 0x6E3 JUMP JUMPDEST DUP4 ADD DUP3 PUSH2 0x7C3 JUMP JUMPDEST POP POP JUMPDEST POP POP POP JUMP JUMPDEST PUSH0 DUP3 DUP3 SHR SWAP1 POP SWAP3 SWAP2 POP POP JUMP JUMPDEST PUSH0 PUSH2 0x846 PUSH0 NOT DUP5 PUSH1 0x8 MUL PUSH2 0x82B JUMP JUMPDEST NOT DUP1 DUP4 AND SWAP2 POP POP SWAP3 SWAP2 POP POP JUMP JUMPDEST PUSH0 PUSH2 0x85E DUP4 DUP4 PUSH2 0x837 JUMP JUMPDEST SWAP2 POP DUP3 PUSH1 0x2 MUL DUP3 OR SWAP1 POP SWAP3 SWAP2 POP POP JUMP JUMPDEST PUSH2 0x877 DUP3 PUSH2 0x495 JUMP JUMPDEST PUSH8 0xFFFFFFFFFFFFFFFF DUP2 GT ISZERO PUSH2 0x890 JUMPI PUSH2 0x88F PUSH2 0x6A4 JUMP JUMPDEST JUMPDEST PUSH2 0x89A DUP3 SLOAD PUSH2 0x674 JUMP JUMPDEST PUSH2 0x8A5 DUP3 DUP3 DUP6 PUSH2 0x7E5 JUMP JUMPDEST PUSH0 PUSH1 0x20 SWAP1 POP PUSH1 0x1F DUP4 GT PUSH1 0x1 DUP2 EQ PUSH2 0x8D6 JUMPI PUSH0 DUP5 ISZERO PUSH2 0x8C4 JUMPI DUP3 DUP8 ADD MLOAD SWAP1 POP JUMPDEST PUSH2 0x8CE DUP6 DUP3 PUSH2 0x853 JUMP JUMPDEST DUP7 SSTORE POP PUSH2 0x935 JUMP JUMPDEST PUSH1 0x1F NOT DUP5 AND PUSH2 0x8E4 DUP7 PUSH2 0x6D1 JUMP JUMPDEST PUSH0 JUMPDEST DUP3 DUP2 LT ISZERO PUSH2 0x90B JUMPI DUP5 DUP10 ADD MLOAD DUP3 SSTORE PUSH1 0x1 DUP3 ADD SWAP2 POP PUSH1 0x20 DUP6 ADD SWAP5 POP PUSH1 0x20 DUP2 ADD SWAP1 POP PUSH2 0x8E6 JUMP JUMPDEST DUP7 DUP4 LT ISZERO PUSH2 0x928 JUMPI DUP5 DUP10 ADD MLOAD PUSH2 0x924 PUSH1 0x1F DUP10 AND DUP3 PUSH2 0x837 JUMP JUMPDEST DUP4 SSTORE POP JUMPDEST PUSH1 0x1 PUSH1 0x2 DUP9 MUL ADD DUP9 SSTORE POP POP POP JUMPDEST POP POP POP POP POP POP JUMP INVALID LOG2 PUSH5 0x6970667358 0x22 SLT KECCAK256 SWAP14 0xA9 SWAP12 MUL SWAP6 0x29 PUSH24 0xFAA32359A30D090E13579B50D175C97229569097BCFC72B8 TLOAD PUSH5 0x736F6C6343 STOP ADDMOD NOT STOP CALLER "
				},
				"gasEstimates": {
					"creation": {
						"codeDepositCost": "483800",
						"executionCost": "516",
						"totalCost": "484316"
					},
					"external": {
						"getAllDetails()": "infinite",
						"getBookTitle()": "infinite",
						"getBook_id()": "2479",
						"setBook()": "infinite"
					}
				},
				"methodIdentifiers": {
					"getAllDetails()": "ccc5d7d4",
					"getBookTitle()": "72e46388",
					"getBook_id()": "b015720c",
					"setBook()": "d629546c"
				}
			},
			"storageLayout": {
				"storage": [
					{
						"astId": 13,
						"contract": "contracts/bookexample3.sol:test",
						"label": "book",
						"offset": 0,
						"slot": "0",
						"type": "t_struct(Book)10_storage"
					}
				],
				"types": {
					"t_string_storage": {
						"encoding": "bytes",
						"label": "string",
						"numberOfBytes": "32"
					},
					"t_struct(Book)10_storage": {
						"encoding": "inplace",
						"label": "struct test.Book",
						"members": [
							{
								"astId": 3,
								"contract": "contracts/bookexample3.sol:test",
								"label": "title",
								"offset": 0,
								"slot": "0",
								"type": "t_string_storage"
							},
							{
								"astId": 5,
								"contract": "contracts/bookexample3.sol:test",
								"label": "author",
								"offset": 0,
								"slot": "1",
								"type": "t_string_storage"
							},
							{
								"astId": 7,
								"contract": "contracts/bookexample3.sol:test",
								"label": "book_id",
								"offset": 0,
								"slot": "2",
								"type": "t_uint8"
							},
							{
								"astId": 9,
								"contract": "contracts/bookexample3.sol:test",
								"label": "publisher",
								"offset": 0,
								"slot": "3",
								"type": "t_string_storage"
							}
						],
						"numberOfBytes": "128"
					},
					"t_uint8": {
						"encoding": "inplace",
						"label": "uint8",
						"numberOfBytes": "1"
					}
				}
			},
			"userdoc": {
				"kind": "user",
				"methods": {},
				"version": 1
			}
		}
	}
}