{
	"contracts/mapping.sol": {
		"test": {
			"abi": [
				{
					"inputs": [],
					"name": "a1",
					"outputs": [
						{
							"internalType": "address",
							"name": "",
							"type": "address"
						}
					],
					"stateMutability": "view",
					"type": "function"
				},
				{
					"inputs": [],
					"name": "getFavLiteral",
					"outputs": [
						{
							"internalType": "string",
							"name": "",
							"type": "string"
						}
					],
					"stateMutability": "view",
					"type": "function"
				},
				{
					"inputs": [],
					"name": "getFavNumber",
					"outputs": [
						{
							"internalType": "uint256",
							"name": "",
							"type": "uint256"
						}
					],
					"stateMutability": "view",
					"type": "function"
				},
				{
					"inputs": [
						{
							"internalType": "string",
							"name": "favliteral",
							"type": "string"
						}
					],
					"name": "setFavLiteral",
					"outputs": [],
					"stateMutability": "nonpayable",
					"type": "function"
				},
				{
					"inputs": [
						{
							"internalType": "uint256",
							"name": "num",
							"type": "uint256"
						}
					],
					"name": "setFavNumber",
					"outputs": [],
					"stateMutability": "nonpayable",
					"type": "function"
				}
			],
			"devdoc": {
				"kind": "dev",
				"methods": {},
				"version": 1
			},
			"evm": {
				"assembly": "    /* \"contracts/mapping.sol\":28:747  contract test {... */\n  mstore(0x40, 0x80)\n    /* \"contracts/mapping.sol\":153:163  msg.sender */\n  caller\n    /* \"contracts/mapping.sol\":134:163  address public a1= msg.sender */\n  0x02\n  exp(0x0100, 0x00)\n  dup2\n  sload\n  dup2\n  0xffffffffffffffffffffffffffffffffffffffff\n  mul\n  not\n  and\n  swap1\n  dup4\n  0xffffffffffffffffffffffffffffffffffffffff\n  and\n  mul\n  or\n  swap1\n  sstore\n  pop\n    /* \"contracts/mapping.sol\":28:747  contract test {... */\n  callvalue\n  dup1\n  iszero\n  tag_1\n  jumpi\n  0x00\n  dup1\n  revert\ntag_1:\n  pop\n  dataSize(sub_0)\n  dup1\n  dataOffset(sub_0)\n  0x00\n  codecopy\n  0x00\n  return\nstop\n\nsub_0: assembly {\n        /* \"contracts/mapping.sol\":28:747  contract test {... */\n      mstore(0x40, 0x80)\n      callvalue\n      dup1\n      iszero\n      tag_1\n      jumpi\n      0x00\n      dup1\n      revert\n    tag_1:\n      pop\n      jumpi(tag_2, lt(calldatasize, 0x04))\n      shr(0xe0, calldataload(0x00))\n      dup1\n      0x012d45ae\n      eq\n      tag_3\n      jumpi\n      dup1\n      0x119552a1\n      eq\n      tag_4\n      jumpi\n      dup1\n      0x72eab9c2\n      eq\n      tag_5\n      jumpi\n      dup1\n      0x8f8699ef\n      eq\n      tag_6\n      jumpi\n      dup1\n      0x9f90ac59\n      eq\n      tag_7\n      jumpi\n    tag_2:\n      0x00\n      dup1\n      revert\n        /* \"contracts/mapping.sol\":521:617  function getFavNumber() public view returns(uint){... */\n    tag_3:\n      tag_8\n      tag_9\n      jump\t// in\n    tag_8:\n      mload(0x40)\n      tag_10\n      swap2\n      swap1\n      tag_11\n      jump\t// in\n    tag_10:\n      mload(0x40)\n      dup1\n      swap2\n      sub\n      swap1\n      return\n        /* \"contracts/mapping.sol\":134:163  address public a1= msg.sender */\n    tag_4:\n      tag_12\n      tag_13\n      jump\t// in\n    tag_12:\n      mload(0x40)\n      tag_14\n      swap2\n      swap1\n      tag_15\n      jump\t// in\n    tag_14:\n      mload(0x40)\n      dup1\n      swap2\n      sub\n      swap1\n      return\n        /* \"contracts/mapping.sol\":172:305  function setFavNumber(uint num) public {... */\n    tag_5:\n      tag_16\n      0x04\n      dup1\n      calldatasize\n      sub\n      dup2\n      add\n      swap1\n      tag_17\n      swap2\n      swap1\n      tag_18\n      jump\t// in\n    tag_17:\n      tag_19\n      jump\t// in\n    tag_16:\n      stop\n        /* \"contracts/mapping.sol\":313:502  function setFavLiteral(string memory favliteral) public {... */\n    tag_6:\n      tag_20\n      0x04\n      dup1\n      calldatasize\n      sub\n      dup2\n      add\n      swap1\n      tag_21\n      swap2\n      swap1\n      tag_22\n      jump\t// in\n    tag_21:\n      tag_23\n      jump\t// in\n    tag_20:\n      stop\n        /* \"contracts/mapping.sol\":633:740  function getFavLiteral() public view returns(string memory){... */\n    tag_7:\n      tag_24\n      tag_25\n      jump\t// in\n    tag_24:\n      mload(0x40)\n      tag_26\n      swap2\n      swap1\n      tag_27\n      jump\t// in\n    tag_26:\n      mload(0x40)\n      dup1\n      swap2\n      sub\n      swap1\n      return\n        /* \"contracts/mapping.sol\":521:617  function getFavNumber() public view returns(uint){... */\n    tag_9:\n        /* \"contracts/mapping.sol\":565:569  uint */\n      0x00\n        /* \"contracts/mapping.sol\":588:597  favnumber */\n      dup1\n        /* \"contracts/mapping.sol\":588:609  favnumber[msg.sender] */\n      0x00\n        /* \"contracts/mapping.sol\":598:608  msg.sender */\n      caller\n        /* \"contracts/mapping.sol\":588:609  favnumber[msg.sender] */\n      0xffffffffffffffffffffffffffffffffffffffff\n      and\n      0xffffffffffffffffffffffffffffffffffffffff\n      and\n      dup2\n      mstore\n      0x20\n      add\n      swap1\n      dup2\n      mstore\n      0x20\n      add\n      0x00\n      keccak256\n      sload\n        /* \"contracts/mapping.sol\":581:609  return favnumber[msg.sender] */\n      swap1\n      pop\n        /* \"contracts/mapping.sol\":521:617  function getFavNumber() public view returns(uint){... */\n      swap1\n      jump\t// out\n        /* \"contracts/mapping.sol\":134:163  address public a1= msg.sender */\n    tag_13:\n      0x02\n      0x00\n      swap1\n      sload\n      swap1\n      0x0100\n      exp\n      swap1\n      div\n      0xffffffffffffffffffffffffffffffffffffffff\n      and\n      dup2\n      jump\t// out\n        /* \"contracts/mapping.sol\":172:305  function setFavNumber(uint num) public {... */\n    tag_19:\n        /* \"contracts/mapping.sol\":235:237  13 */\n      0x0d\n        /* \"contracts/mapping.sol\":230:233  num */\n      dup2\n        /* \"contracts/mapping.sol\":230:237  num!=13 */\n      sub\n        /* \"contracts/mapping.sol\":222:259  require(num!=13, \"change the number\") */\n      tag_30\n      jumpi\n      mload(0x40)\n      0x08c379a000000000000000000000000000000000000000000000000000000000\n      dup2\n      mstore\n      0x04\n      add\n      tag_31\n      swap1\n      tag_32\n      jump\t// in\n    tag_31:\n      mload(0x40)\n      dup1\n      swap2\n      sub\n      swap1\n      revert\n    tag_30:\n        /* \"contracts/mapping.sol\":294:297  num */\n      dup1\n        /* \"contracts/mapping.sol\":270:279  favnumber */\n      0x00\n        /* \"contracts/mapping.sol\":270:291  favnumber[msg.sender] */\n      dup1\n        /* \"contracts/mapping.sol\":280:290  msg.sender */\n      caller\n        /* \"contracts/mapping.sol\":270:291  favnumber[msg.sender] */\n      0xffffffffffffffffffffffffffffffffffffffff\n      and\n      0xffffffffffffffffffffffffffffffffffffffff\n      and\n      dup2\n      mstore\n      0x20\n      add\n      swap1\n      dup2\n      mstore\n      0x20\n      add\n      0x00\n      keccak256\n        /* \"contracts/mapping.sol\":270:297  favnumber[msg.sender] = num */\n      dup2\n      swap1\n      sstore\n      pop\n        /* \"contracts/mapping.sol\":172:305  function setFavNumber(uint num) public {... */\n      pop\n      jump\t// out\n        /* \"contracts/mapping.sol\":313:502  function setFavLiteral(string memory favliteral) public {... */\n    tag_23:\n        /* \"contracts/mapping.sol\":429:441  bytes(\"ABC\") */\n      mload(0x40)\n      dup1\n      0x40\n      add\n      0x40\n      mstore\n      dup1\n      0x03\n      dup2\n      mstore\n      0x20\n      add\n      0x4142430000000000000000000000000000000000000000000000000000000000\n      dup2\n      mstore\n      pop\n        /* \"contracts/mapping.sol\":419:442  keccak256(bytes(\"ABC\")) */\n      dup1\n      mload\n      swap1\n      0x20\n      add\n      keccak256\n        /* \"contracts/mapping.sol\":403:413  favliteral */\n      dup2\n        /* \"contracts/mapping.sol\":387:415  keccak256(bytes(favliteral)) */\n      dup1\n      mload\n      swap1\n      0x20\n      add\n      keccak256\n        /* \"contracts/mapping.sol\":387:442  keccak256(bytes(favliteral)) == keccak256(bytes(\"ABC\")) */\n      eq\n        /* \"contracts/mapping.sol\":378:462  require((keccak256(bytes(favliteral)) == keccak256(bytes(\"ABC\"))), \"Change Literal\") */\n      tag_34\n      jumpi\n      mload(0x40)\n      0x08c379a000000000000000000000000000000000000000000000000000000000\n      dup2\n      mstore\n      0x04\n      add\n      tag_35\n      swap1\n      tag_36\n      jump\t// in\n    tag_35:\n      mload(0x40)\n      dup1\n      swap2\n      sub\n      swap1\n      revert\n    tag_34:\n        /* \"contracts/mapping.sol\":313:502  function setFavLiteral(string memory favliteral) public {... */\n      pop\n      jump\t// out\n        /* \"contracts/mapping.sol\":633:740  function getFavLiteral() public view returns(string memory){... */\n    tag_25:\n        /* \"contracts/mapping.sol\":678:691  string memory */\n      0x60\n        /* \"contracts/mapping.sol\":710:720  favliteral */\n      0x01\n        /* \"contracts/mapping.sol\":710:732  favliteral[msg.sender] */\n      0x00\n        /* \"contracts/mapping.sol\":721:731  msg.sender */\n      caller\n        /* \"contracts/mapping.sol\":710:732  favliteral[msg.sender] */\n      0xffffffffffffffffffffffffffffffffffffffff\n      and\n      0xffffffffffffffffffffffffffffffffffffffff\n      and\n      dup2\n      mstore\n      0x20\n      add\n      swap1\n      dup2\n      mstore\n      0x20\n      add\n      0x00\n      keccak256\n        /* \"contracts/mapping.sol\":703:732  return favliteral[msg.sender] */\n      dup1\n      sload\n      tag_38\n      swap1\n      tag_39\n      jump\t// in\n    tag_38:\n      dup1\n      0x1f\n      add\n      0x20\n      dup1\n      swap2\n      div\n      mul\n      0x20\n      add\n      mload(0x40)\n      swap1\n      dup2\n      add\n      0x40\n      mstore\n      dup1\n      swap3\n      swap2\n      swap1\n      dup2\n      dup2\n      mstore\n      0x20\n      add\n      dup3\n      dup1\n      sload\n      tag_40\n      swap1\n      tag_39\n      jump\t// in\n    tag_40:\n      dup1\n      iszero\n      tag_41\n      jumpi\n      dup1\n      0x1f\n      lt\n      tag_42\n      jumpi\n      0x0100\n      dup1\n      dup4\n      sload\n      div\n      mul\n      dup4\n      mstore\n      swap2\n      0x20\n      add\n      swap2\n      jump(tag_41)\n    tag_42:\n      dup3\n      add\n      swap2\n      swap1\n      0x00\n      mstore\n      keccak256(0x00, 0x20)\n      swap1\n    tag_43:\n      dup2\n      sload\n      dup2\n      mstore\n      swap1\n      0x01\n      add\n      swap1\n      0x20\n      add\n      dup1\n      dup4\n      gt\n      tag_43\n      jumpi\n      dup3\n      swap1\n      sub\n      0x1f\n      and\n      dup3\n      add\n      swap2\n    tag_41:\n      pop\n      pop\n      pop\n      pop\n      pop\n      swap1\n      pop\n        /* \"contracts/mapping.sol\":633:740  function getFavLiteral() public view returns(string memory){... */\n      swap1\n      jump\t// out\n        /* \"#utility.yul\":7:84   */\n    tag_44:\n        /* \"#utility.yul\":44:51   */\n      0x00\n        /* \"#utility.yul\":73:78   */\n      dup2\n        /* \"#utility.yul\":62:78   */\n      swap1\n      pop\n        /* \"#utility.yul\":7:84   */\n      swap2\n      swap1\n      pop\n      jump\t// out\n        /* \"#utility.yul\":90:208   */\n    tag_45:\n        /* \"#utility.yul\":177:201   */\n      tag_76\n        /* \"#utility.yul\":195:200   */\n      dup2\n        /* \"#utility.yul\":177:201   */\n      tag_44\n      jump\t// in\n    tag_76:\n        /* \"#utility.yul\":172:175   */\n      dup3\n        /* \"#utility.yul\":165:202   */\n      mstore\n        /* \"#utility.yul\":90:208   */\n      pop\n      pop\n      jump\t// out\n        /* \"#utility.yul\":214:436   */\n    tag_11:\n        /* \"#utility.yul\":307:311   */\n      0x00\n        /* \"#utility.yul\":345:347   */\n      0x20\n        /* \"#utility.yul\":334:343   */\n      dup3\n        /* \"#utility.yul\":330:348   */\n      add\n        /* \"#utility.yul\":322:348   */\n      swap1\n      pop\n        /* \"#utility.yul\":358:429   */\n      tag_78\n        /* \"#utility.yul\":426:427   */\n      0x00\n        /* \"#utility.yul\":415:424   */\n      dup4\n        /* \"#utility.yul\":411:428   */\n      add\n        /* \"#utility.yul\":402:408   */\n      dup5\n        /* \"#utility.yul\":358:429   */\n      tag_45\n      jump\t// in\n    tag_78:\n        /* \"#utility.yul\":214:436   */\n      swap3\n      swap2\n      pop\n      pop\n      jump\t// out\n        /* \"#utility.yul\":442:568   */\n    tag_46:\n        /* \"#utility.yul\":479:486   */\n      0x00\n        /* \"#utility.yul\":519:561   */\n      0xffffffffffffffffffffffffffffffffffffffff\n        /* \"#utility.yul\":512:517   */\n      dup3\n        /* \"#utility.yul\":508:562   */\n      and\n        /* \"#utility.yul\":497:562   */\n      swap1\n      pop\n        /* \"#utility.yul\":442:568   */\n      swap2\n      swap1\n      pop\n      jump\t// out\n        /* \"#utility.yul\":574:670   */\n    tag_47:\n        /* \"#utility.yul\":611:618   */\n      0x00\n        /* \"#utility.yul\":640:664   */\n      tag_81\n        /* \"#utility.yul\":658:663   */\n      dup3\n        /* \"#utility.yul\":640:664   */\n      tag_46\n      jump\t// in\n    tag_81:\n        /* \"#utility.yul\":629:664   */\n      swap1\n      pop\n        /* \"#utility.yul\":574:670   */\n      swap2\n      swap1\n      pop\n      jump\t// out\n        /* \"#utility.yul\":676:794   */\n    tag_48:\n        /* \"#utility.yul\":763:787   */\n      tag_83\n        /* \"#utility.yul\":781:786   */\n      dup2\n        /* \"#utility.yul\":763:787   */\n      tag_47\n      jump\t// in\n    tag_83:\n        /* \"#utility.yul\":758:761   */\n      dup3\n        /* \"#utility.yul\":751:788   */\n      mstore\n        /* \"#utility.yul\":676:794   */\n      pop\n      pop\n      jump\t// out\n        /* \"#utility.yul\":800:1022   */\n    tag_15:\n        /* \"#utility.yul\":893:897   */\n      0x00\n        /* \"#utility.yul\":931:933   */\n      0x20\n        /* \"#utility.yul\":920:929   */\n      dup3\n        /* \"#utility.yul\":916:934   */\n      add\n        /* \"#utility.yul\":908:934   */\n      swap1\n      pop\n        /* \"#utility.yul\":944:1015   */\n      tag_85\n        /* \"#utility.yul\":1012:1013   */\n      0x00\n        /* \"#utility.yul\":1001:1010   */\n      dup4\n        /* \"#utility.yul\":997:1014   */\n      add\n        /* \"#utility.yul\":988:994   */\n      dup5\n        /* \"#utility.yul\":944:1015   */\n      tag_48\n      jump\t// in\n    tag_85:\n        /* \"#utility.yul\":800:1022   */\n      swap3\n      swap2\n      pop\n      pop\n      jump\t// out\n        /* \"#utility.yul\":1028:1103   */\n    tag_49:\n        /* \"#utility.yul\":1061:1067   */\n      0x00\n        /* \"#utility.yul\":1094:1096   */\n      0x40\n        /* \"#utility.yul\":1088:1097   */\n      mload\n        /* \"#utility.yul\":1078:1097   */\n      swap1\n      pop\n        /* \"#utility.yul\":1028:1103   */\n      swap1\n      jump\t// out\n        /* \"#utility.yul\":1109:1226   */\n    tag_50:\n        /* \"#utility.yul\":1218:1219   */\n      0x00\n        /* \"#utility.yul\":1215:1216   */\n      dup1\n        /* \"#utility.yul\":1208:1220   */\n      revert\n        /* \"#utility.yul\":1232:1349   */\n    tag_51:\n        /* \"#utility.yul\":1341:1342   */\n      0x00\n        /* \"#utility.yul\":1338:1339   */\n      dup1\n        /* \"#utility.yul\":1331:1343   */\n      revert\n        /* \"#utility.yul\":1355:1477   */\n    tag_52:\n        /* \"#utility.yul\":1428:1452   */\n      tag_90\n        /* \"#utility.yul\":1446:1451   */\n      dup2\n        /* \"#utility.yul\":1428:1452   */\n      tag_44\n      jump\t// in\n    tag_90:\n        /* \"#utility.yul\":1421:1426   */\n      dup2\n        /* \"#utility.yul\":1418:1453   */\n      eq\n        /* \"#utility.yul\":1408:1471   */\n      tag_91\n      jumpi\n        /* \"#utility.yul\":1467:1468   */\n      0x00\n        /* \"#utility.yul\":1464:1465   */\n      dup1\n        /* \"#utility.yul\":1457:1469   */\n      revert\n        /* \"#utility.yul\":1408:1471   */\n    tag_91:\n        /* \"#utility.yul\":1355:1477   */\n      pop\n      jump\t// out\n        /* \"#utility.yul\":1483:1622   */\n    tag_53:\n        /* \"#utility.yul\":1529:1534   */\n      0x00\n        /* \"#utility.yul\":1567:1573   */\n      dup2\n        /* \"#utility.yul\":1554:1574   */\n      calldataload\n        /* \"#utility.yul\":1545:1574   */\n      swap1\n      pop\n        /* \"#utility.yul\":1583:1616   */\n      tag_93\n        /* \"#utility.yul\":1610:1615   */\n      dup2\n        /* \"#utility.yul\":1583:1616   */\n      tag_52\n      jump\t// in\n    tag_93:\n        /* \"#utility.yul\":1483:1622   */\n      swap3\n      swap2\n      pop\n      pop\n      jump\t// out\n        /* \"#utility.yul\":1628:1957   */\n    tag_18:\n        /* \"#utility.yul\":1687:1693   */\n      0x00\n        /* \"#utility.yul\":1736:1738   */\n      0x20\n        /* \"#utility.yul\":1724:1733   */\n      dup3\n        /* \"#utility.yul\":1715:1722   */\n      dup5\n        /* \"#utility.yul\":1711:1734   */\n      sub\n        /* \"#utility.yul\":1707:1739   */\n      slt\n        /* \"#utility.yul\":1704:1823   */\n      iszero\n      tag_95\n      jumpi\n        /* \"#utility.yul\":1742:1821   */\n      tag_96\n      tag_50\n      jump\t// in\n    tag_96:\n        /* \"#utility.yul\":1704:1823   */\n    tag_95:\n        /* \"#utility.yul\":1862:1863   */\n      0x00\n        /* \"#utility.yul\":1887:1940   */\n      tag_97\n        /* \"#utility.yul\":1932:1939   */\n      dup5\n        /* \"#utility.yul\":1923:1929   */\n      dup3\n        /* \"#utility.yul\":1912:1921   */\n      dup6\n        /* \"#utility.yul\":1908:1930   */\n      add\n        /* \"#utility.yul\":1887:1940   */\n      tag_53\n      jump\t// in\n    tag_97:\n        /* \"#utility.yul\":1877:1940   */\n      swap2\n      pop\n        /* \"#utility.yul\":1833:1950   */\n      pop\n        /* \"#utility.yul\":1628:1957   */\n      swap3\n      swap2\n      pop\n      pop\n      jump\t// out\n        /* \"#utility.yul\":1963:2080   */\n    tag_54:\n        /* \"#utility.yul\":2072:2073   */\n      0x00\n        /* \"#utility.yul\":2069:2070   */\n      dup1\n        /* \"#utility.yul\":2062:2074   */\n      revert\n        /* \"#utility.yul\":2086:2203   */\n    tag_55:\n        /* \"#utility.yul\":2195:2196   */\n      0x00\n        /* \"#utility.yul\":2192:2193   */\n      dup1\n        /* \"#utility.yul\":2185:2197   */\n      revert\n        /* \"#utility.yul\":2209:2311   */\n    tag_56:\n        /* \"#utility.yul\":2250:2256   */\n      0x00\n        /* \"#utility.yul\":2301:2303   */\n      0x1f\n        /* \"#utility.yul\":2297:2304   */\n      not\n        /* \"#utility.yul\":2292:2294   */\n      0x1f\n        /* \"#utility.yul\":2285:2290   */\n      dup4\n        /* \"#utility.yul\":2281:2295   */\n      add\n        /* \"#utility.yul\":2277:2305   */\n      and\n        /* \"#utility.yul\":2267:2305   */\n      swap1\n      pop\n        /* \"#utility.yul\":2209:2311   */\n      swap2\n      swap1\n      pop\n      jump\t// out\n        /* \"#utility.yul\":2317:2497   */\n    tag_57:\n        /* \"#utility.yul\":2365:2442   */\n      0x4e487b7100000000000000000000000000000000000000000000000000000000\n        /* \"#utility.yul\":2362:2363   */\n      0x00\n        /* \"#utility.yul\":2355:2443   */\n      mstore\n        /* \"#utility.yul\":2462:2466   */\n      0x41\n        /* \"#utility.yul\":2459:2460   */\n      0x04\n        /* \"#utility.yul\":2452:2467   */\n      mstore\n        /* \"#utility.yul\":2486:2490   */\n      0x24\n        /* \"#utility.yul\":2483:2484   */\n      0x00\n        /* \"#utility.yul\":2476:2491   */\n      revert\n        /* \"#utility.yul\":2503:2784   */\n    tag_58:\n        /* \"#utility.yul\":2586:2613   */\n      tag_103\n        /* \"#utility.yul\":2608:2612   */\n      dup3\n        /* \"#utility.yul\":2586:2613   */\n      tag_56\n      jump\t// in\n    tag_103:\n        /* \"#utility.yul\":2578:2584   */\n      dup2\n        /* \"#utility.yul\":2574:2614   */\n      add\n        /* \"#utility.yul\":2716:2722   */\n      dup2\n        /* \"#utility.yul\":2704:2714   */\n      dup2\n        /* \"#utility.yul\":2701:2723   */\n      lt\n        /* \"#utility.yul\":2680:2698   */\n      0xffffffffffffffff\n        /* \"#utility.yul\":2668:2678   */\n      dup3\n        /* \"#utility.yul\":2665:2699   */\n      gt\n        /* \"#utility.yul\":2662:2724   */\n      or\n        /* \"#utility.yul\":2659:2747   */\n      iszero\n      tag_104\n      jumpi\n        /* \"#utility.yul\":2727:2745   */\n      tag_105\n      tag_57\n      jump\t// in\n    tag_105:\n        /* \"#utility.yul\":2659:2747   */\n    tag_104:\n        /* \"#utility.yul\":2767:2777   */\n      dup1\n        /* \"#utility.yul\":2763:2765   */\n      0x40\n        /* \"#utility.yul\":2756:2778   */\n      mstore\n        /* \"#utility.yul\":2546:2784   */\n      pop\n        /* \"#utility.yul\":2503:2784   */\n      pop\n      pop\n      jump\t// out\n        /* \"#utility.yul\":2790:2919   */\n    tag_59:\n        /* \"#utility.yul\":2824:2830   */\n      0x00\n        /* \"#utility.yul\":2851:2871   */\n      tag_107\n      tag_49\n      jump\t// in\n    tag_107:\n        /* \"#utility.yul\":2841:2871   */\n      swap1\n      pop\n        /* \"#utility.yul\":2880:2913   */\n      tag_108\n        /* \"#utility.yul\":2908:2912   */\n      dup3\n        /* \"#utility.yul\":2900:2906   */\n      dup3\n        /* \"#utility.yul\":2880:2913   */\n      tag_58\n      jump\t// in\n    tag_108:\n        /* \"#utility.yul\":2790:2919   */\n      swap2\n      swap1\n      pop\n      jump\t// out\n        /* \"#utility.yul\":2925:3233   */\n    tag_60:\n        /* \"#utility.yul\":2987:2991   */\n      0x00\n        /* \"#utility.yul\":3077:3095   */\n      0xffffffffffffffff\n        /* \"#utility.yul\":3069:3075   */\n      dup3\n        /* \"#utility.yul\":3066:3096   */\n      gt\n        /* \"#utility.yul\":3063:3119   */\n      iszero\n      tag_110\n      jumpi\n        /* \"#utility.yul\":3099:3117   */\n      tag_111\n      tag_57\n      jump\t// in\n    tag_111:\n        /* \"#utility.yul\":3063:3119   */\n    tag_110:\n        /* \"#utility.yul\":3137:3166   */\n      tag_112\n        /* \"#utility.yul\":3159:3165   */\n      dup3\n        /* \"#utility.yul\":3137:3166   */\n      tag_56\n      jump\t// in\n    tag_112:\n        /* \"#utility.yul\":3129:3166   */\n      swap1\n      pop\n        /* \"#utility.yul\":3221:3225   */\n      0x20\n        /* \"#utility.yul\":3215:3219   */\n      dup2\n        /* \"#utility.yul\":3211:3226   */\n      add\n        /* \"#utility.yul\":3203:3226   */\n      swap1\n      pop\n        /* \"#utility.yul\":2925:3233   */\n      swap2\n      swap1\n      pop\n      jump\t// out\n        /* \"#utility.yul\":3239:3387   */\n    tag_61:\n        /* \"#utility.yul\":3337:3343   */\n      dup3\n        /* \"#utility.yul\":3332:3335   */\n      dup2\n        /* \"#utility.yul\":3327:3330   */\n      dup4\n        /* \"#utility.yul\":3314:3344   */\n      calldatacopy\n        /* \"#utility.yul\":3378:3379   */\n      0x00\n        /* \"#utility.yul\":3369:3375   */\n      dup4\n        /* \"#utility.yul\":3364:3367   */\n      dup4\n        /* \"#utility.yul\":3360:3376   */\n      add\n        /* \"#utility.yul\":3353:3380   */\n      mstore\n        /* \"#utility.yul\":3239:3387   */\n      pop\n      pop\n      pop\n      jump\t// out\n        /* \"#utility.yul\":3393:3818   */\n    tag_62:\n        /* \"#utility.yul\":3471:3476   */\n      0x00\n        /* \"#utility.yul\":3496:3562   */\n      tag_115\n        /* \"#utility.yul\":3512:3561   */\n      tag_116\n        /* \"#utility.yul\":3554:3560   */\n      dup5\n        /* \"#utility.yul\":3512:3561   */\n      tag_60\n      jump\t// in\n    tag_116:\n        /* \"#utility.yul\":3496:3562   */\n      tag_59\n      jump\t// in\n    tag_115:\n        /* \"#utility.yul\":3487:3562   */\n      swap1\n      pop\n        /* \"#utility.yul\":3585:3591   */\n      dup3\n        /* \"#utility.yul\":3578:3583   */\n      dup2\n        /* \"#utility.yul\":3571:3592   */\n      mstore\n        /* \"#utility.yul\":3623:3627   */\n      0x20\n        /* \"#utility.yul\":3616:3621   */\n      dup2\n        /* \"#utility.yul\":3612:3628   */\n      add\n        /* \"#utility.yul\":3661:3664   */\n      dup5\n        /* \"#utility.yul\":3652:3658   */\n      dup5\n        /* \"#utility.yul\":3647:3650   */\n      dup5\n        /* \"#utility.yul\":3643:3659   */\n      add\n        /* \"#utility.yul\":3640:3665   */\n      gt\n        /* \"#utility.yul\":3637:3749   */\n      iszero\n      tag_117\n      jumpi\n        /* \"#utility.yul\":3668:3747   */\n      tag_118\n      tag_55\n      jump\t// in\n    tag_118:\n        /* \"#utility.yul\":3637:3749   */\n    tag_117:\n        /* \"#utility.yul\":3758:3812   */\n      tag_119\n        /* \"#utility.yul\":3805:3811   */\n      dup5\n        /* \"#utility.yul\":3800:3803   */\n      dup3\n        /* \"#utility.yul\":3795:3798   */\n      dup6\n        /* \"#utility.yul\":3758:3812   */\n      tag_61\n      jump\t// in\n    tag_119:\n        /* \"#utility.yul\":3477:3818   */\n      pop\n        /* \"#utility.yul\":3393:3818   */\n      swap4\n      swap3\n      pop\n      pop\n      pop\n      jump\t// out\n        /* \"#utility.yul\":3838:4178   */\n    tag_63:\n        /* \"#utility.yul\":3894:3899   */\n      0x00\n        /* \"#utility.yul\":3943:3946   */\n      dup3\n        /* \"#utility.yul\":3936:3940   */\n      0x1f\n        /* \"#utility.yul\":3928:3934   */\n      dup4\n        /* \"#utility.yul\":3924:3941   */\n      add\n        /* \"#utility.yul\":3920:3947   */\n      slt\n        /* \"#utility.yul\":3910:4032   */\n      tag_121\n      jumpi\n        /* \"#utility.yul\":3951:4030   */\n      tag_122\n      tag_54\n      jump\t// in\n    tag_122:\n        /* \"#utility.yul\":3910:4032   */\n    tag_121:\n        /* \"#utility.yul\":4068:4074   */\n      dup2\n        /* \"#utility.yul\":4055:4075   */\n      calldataload\n        /* \"#utility.yul\":4093:4172   */\n      tag_123\n        /* \"#utility.yul\":4168:4171   */\n      dup5\n        /* \"#utility.yul\":4160:4166   */\n      dup3\n        /* \"#utility.yul\":4153:4157   */\n      0x20\n        /* \"#utility.yul\":4145:4151   */\n      dup7\n        /* \"#utility.yul\":4141:4158   */\n      add\n        /* \"#utility.yul\":4093:4172   */\n      tag_62\n      jump\t// in\n    tag_123:\n        /* \"#utility.yul\":4084:4172   */\n      swap2\n      pop\n        /* \"#utility.yul\":3900:4178   */\n      pop\n        /* \"#utility.yul\":3838:4178   */\n      swap3\n      swap2\n      pop\n      pop\n      jump\t// out\n        /* \"#utility.yul\":4184:4693   */\n    tag_22:\n        /* \"#utility.yul\":4253:4259   */\n      0x00\n        /* \"#utility.yul\":4302:4304   */\n      0x20\n        /* \"#utility.yul\":4290:4299   */\n      dup3\n        /* \"#utility.yul\":4281:4288   */\n      dup5\n        /* \"#utility.yul\":4277:4300   */\n      sub\n        /* \"#utility.yul\":4273:4305   */\n      slt\n        /* \"#utility.yul\":4270:4389   */\n      iszero\n      tag_125\n      jumpi\n        /* \"#utility.yul\":4308:4387   */\n      tag_126\n      tag_50\n      jump\t// in\n    tag_126:\n        /* \"#utility.yul\":4270:4389   */\n    tag_125:\n        /* \"#utility.yul\":4456:4457   */\n      0x00\n        /* \"#utility.yul\":4445:4454   */\n      dup3\n        /* \"#utility.yul\":4441:4458   */\n      add\n        /* \"#utility.yul\":4428:4459   */\n      calldataload\n        /* \"#utility.yul\":4486:4504   */\n      0xffffffffffffffff\n        /* \"#utility.yul\":4478:4484   */\n      dup2\n        /* \"#utility.yul\":4475:4505   */\n      gt\n        /* \"#utility.yul\":4472:4589   */\n      iszero\n      tag_127\n      jumpi\n        /* \"#utility.yul\":4508:4587   */\n      tag_128\n      tag_51\n      jump\t// in\n    tag_128:\n        /* \"#utility.yul\":4472:4589   */\n    tag_127:\n        /* \"#utility.yul\":4613:4676   */\n      tag_129\n        /* \"#utility.yul\":4668:4675   */\n      dup5\n        /* \"#utility.yul\":4659:4665   */\n      dup3\n        /* \"#utility.yul\":4648:4657   */\n      dup6\n        /* \"#utility.yul\":4644:4666   */\n      add\n        /* \"#utility.yul\":4613:4676   */\n      tag_63\n      jump\t// in\n    tag_129:\n        /* \"#utility.yul\":4603:4676   */\n      swap2\n      pop\n        /* \"#utility.yul\":4399:4686   */\n      pop\n        /* \"#utility.yul\":4184:4693   */\n      swap3\n      swap2\n      pop\n      pop\n      jump\t// out\n        /* \"#utility.yul\":4699:4798   */\n    tag_64:\n        /* \"#utility.yul\":4751:4757   */\n      0x00\n        /* \"#utility.yul\":4785:4790   */\n      dup2\n        /* \"#utility.yul\":4779:4791   */\n      mload\n        /* \"#utility.yul\":4769:4791   */\n      swap1\n      pop\n        /* \"#utility.yul\":4699:4798   */\n      swap2\n      swap1\n      pop\n      jump\t// out\n        /* \"#utility.yul\":4804:4973   */\n    tag_65:\n        /* \"#utility.yul\":4888:4899   */\n      0x00\n        /* \"#utility.yul\":4922:4928   */\n      dup3\n        /* \"#utility.yul\":4917:4920   */\n      dup3\n        /* \"#utility.yul\":4910:4929   */\n      mstore\n        /* \"#utility.yul\":4962:4966   */\n      0x20\n        /* \"#utility.yul\":4957:4960   */\n      dup3\n        /* \"#utility.yul\":4953:4967   */\n      add\n        /* \"#utility.yul\":4938:4967   */\n      swap1\n      pop\n        /* \"#utility.yul\":4804:4973   */\n      swap3\n      swap2\n      pop\n      pop\n      jump\t// out\n        /* \"#utility.yul\":4979:5118   */\n    tag_66:\n        /* \"#utility.yul\":5068:5074   */\n      dup3\n        /* \"#utility.yul\":5063:5066   */\n      dup2\n        /* \"#utility.yul\":5058:5061   */\n      dup4\n        /* \"#utility.yul\":5052:5075   */\n      mcopy\n        /* \"#utility.yul\":5109:5110   */\n      0x00\n        /* \"#utility.yul\":5100:5106   */\n      dup4\n        /* \"#utility.yul\":5095:5098   */\n      dup4\n        /* \"#utility.yul\":5091:5107   */\n      add\n        /* \"#utility.yul\":5084:5111   */\n      mstore\n        /* \"#utility.yul\":4979:5118   */\n      pop\n      pop\n      pop\n      jump\t// out\n        /* \"#utility.yul\":5124:5501   */\n    tag_67:\n        /* \"#utility.yul\":5212:5215   */\n      0x00\n        /* \"#utility.yul\":5240:5279   */\n      tag_134\n        /* \"#utility.yul\":5273:5278   */\n      dup3\n        /* \"#utility.yul\":5240:5279   */\n      tag_64\n      jump\t// in\n    tag_134:\n        /* \"#utility.yul\":5295:5366   */\n      tag_135\n        /* \"#utility.yul\":5359:5365   */\n      dup2\n        /* \"#utility.yul\":5354:5357   */\n      dup6\n        /* \"#utility.yul\":5295:5366   */\n      tag_65\n      jump\t// in\n    tag_135:\n        /* \"#utility.yul\":5288:5366   */\n      swap4\n      pop\n        /* \"#utility.yul\":5375:5440   */\n      tag_136\n        /* \"#utility.yul\":5433:5439   */\n      dup2\n        /* \"#utility.yul\":5428:5431   */\n      dup6\n        /* \"#utility.yul\":5421:5425   */\n      0x20\n        /* \"#utility.yul\":5414:5419   */\n      dup7\n        /* \"#utility.yul\":5410:5426   */\n      add\n        /* \"#utility.yul\":5375:5440   */\n      tag_66\n      jump\t// in\n    tag_136:\n        /* \"#utility.yul\":5465:5494   */\n      tag_137\n        /* \"#utility.yul\":5487:5493   */\n      dup2\n        /* \"#utility.yul\":5465:5494   */\n      tag_56\n      jump\t// in\n    tag_137:\n        /* \"#utility.yul\":5460:5463   */\n      dup5\n        /* \"#utility.yul\":5456:5495   */\n      add\n        /* \"#utility.yul\":5449:5495   */\n      swap2\n      pop\n        /* \"#utility.yul\":5216:5501   */\n      pop\n        /* \"#utility.yul\":5124:5501   */\n      swap3\n      swap2\n      pop\n      pop\n      jump\t// out\n        /* \"#utility.yul\":5507:5820   */\n    tag_27:\n        /* \"#utility.yul\":5620:5624   */\n      0x00\n        /* \"#utility.yul\":5658:5660   */\n      0x20\n        /* \"#utility.yul\":5647:5656   */\n      dup3\n        /* \"#utility.yul\":5643:5661   */\n      add\n        /* \"#utility.yul\":5635:5661   */\n      swap1\n      pop\n        /* \"#utility.yul\":5707:5716   */\n      dup2\n        /* \"#utility.yul\":5701:5705   */\n      dup2\n        /* \"#utility.yul\":5697:5717   */\n      sub\n        /* \"#utility.yul\":5693:5694   */\n      0x00\n        /* \"#utility.yul\":5682:5691   */\n      dup4\n        /* \"#utility.yul\":5678:5695   */\n      add\n        /* \"#utility.yul\":5671:5718   */\n      mstore\n        /* \"#utility.yul\":5735:5813   */\n      tag_139\n        /* \"#utility.yul\":5808:5812   */\n      dup2\n        /* \"#utility.yul\":5799:5805   */\n      dup5\n        /* \"#utility.yul\":5735:5813   */\n      tag_67\n      jump\t// in\n    tag_139:\n        /* \"#utility.yul\":5727:5813   */\n      swap1\n      pop\n        /* \"#utility.yul\":5507:5820   */\n      swap3\n      swap2\n      pop\n      pop\n      jump\t// out\n        /* \"#utility.yul\":5826:5993   */\n    tag_68:\n        /* \"#utility.yul\":5966:5985   */\n      0x6368616e676520746865206e756d626572000000000000000000000000000000\n        /* \"#utility.yul\":5962:5963   */\n      0x00\n        /* \"#utility.yul\":5954:5960   */\n      dup3\n        /* \"#utility.yul\":5950:5964   */\n      add\n        /* \"#utility.yul\":5943:5986   */\n      mstore\n        /* \"#utility.yul\":5826:5993   */\n      pop\n      jump\t// out\n        /* \"#utility.yul\":5999:6365   */\n    tag_69:\n        /* \"#utility.yul\":6141:6144   */\n      0x00\n        /* \"#utility.yul\":6162:6229   */\n      tag_142\n        /* \"#utility.yul\":6226:6228   */\n      0x11\n        /* \"#utility.yul\":6221:6224   */\n      dup4\n        /* \"#utility.yul\":6162:6229   */\n      tag_65\n      jump\t// in\n    tag_142:\n        /* \"#utility.yul\":6155:6229   */\n      swap2\n      pop\n        /* \"#utility.yul\":6238:6331   */\n      tag_143\n        /* \"#utility.yul\":6327:6330   */\n      dup3\n        /* \"#utility.yul\":6238:6331   */\n      tag_68\n      jump\t// in\n    tag_143:\n        /* \"#utility.yul\":6356:6358   */\n      0x20\n        /* \"#utility.yul\":6351:6354   */\n      dup3\n        /* \"#utility.yul\":6347:6359   */\n      add\n        /* \"#utility.yul\":6340:6359   */\n      swap1\n      pop\n        /* \"#utility.yul\":5999:6365   */\n      swap2\n      swap1\n      pop\n      jump\t// out\n        /* \"#utility.yul\":6371:6790   */\n    tag_32:\n        /* \"#utility.yul\":6537:6541   */\n      0x00\n        /* \"#utility.yul\":6575:6577   */\n      0x20\n        /* \"#utility.yul\":6564:6573   */\n      dup3\n        /* \"#utility.yul\":6560:6578   */\n      add\n        /* \"#utility.yul\":6552:6578   */\n      swap1\n      pop\n        /* \"#utility.yul\":6624:6633   */\n      dup2\n        /* \"#utility.yul\":6618:6622   */\n      dup2\n        /* \"#utility.yul\":6614:6634   */\n      sub\n        /* \"#utility.yul\":6610:6611   */\n      0x00\n        /* \"#utility.yul\":6599:6608   */\n      dup4\n        /* \"#utility.yul\":6595:6612   */\n      add\n        /* \"#utility.yul\":6588:6635   */\n      mstore\n        /* \"#utility.yul\":6652:6783   */\n      tag_145\n        /* \"#utility.yul\":6778:6782   */\n      dup2\n        /* \"#utility.yul\":6652:6783   */\n      tag_69\n      jump\t// in\n    tag_145:\n        /* \"#utility.yul\":6644:6783   */\n      swap1\n      pop\n        /* \"#utility.yul\":6371:6790   */\n      swap2\n      swap1\n      pop\n      jump\t// out\n        /* \"#utility.yul\":6796:6960   */\n    tag_70:\n        /* \"#utility.yul\":6936:6952   */\n      0x4368616e6765204c69746572616c000000000000000000000000000000000000\n        /* \"#utility.yul\":6932:6933   */\n      0x00\n        /* \"#utility.yul\":6924:6930   */\n      dup3\n        /* \"#utility.yul\":6920:6934   */\n      add\n        /* \"#utility.yul\":6913:6953   */\n      mstore\n        /* \"#utility.yul\":6796:6960   */\n      pop\n      jump\t// out\n        /* \"#utility.yul\":6966:7332   */\n    tag_71:\n        /* \"#utility.yul\":7108:7111   */\n      0x00\n        /* \"#utility.yul\":7129:7196   */\n      tag_148\n        /* \"#utility.yul\":7193:7195   */\n      0x0e\n        /* \"#utility.yul\":7188:7191   */\n      dup4\n        /* \"#utility.yul\":7129:7196   */\n      tag_65\n      jump\t// in\n    tag_148:\n        /* \"#utility.yul\":7122:7196   */\n      swap2\n      pop\n        /* \"#utility.yul\":7205:7298   */\n      tag_149\n        /* \"#utility.yul\":7294:7297   */\n      dup3\n        /* \"#utility.yul\":7205:7298   */\n      tag_70\n      jump\t// in\n    tag_149:\n        /* \"#utility.yul\":7323:7325   */\n      0x20\n        /* \"#utility.yul\":7318:7321   */\n      dup3\n        /* \"#utility.yul\":7314:7326   */\n      add\n        /* \"#utility.yul\":7307:7326   */\n      swap1\n      pop\n        /* \"#utility.yul\":6966:7332   */\n      swap2\n      swap1\n      pop\n      jump\t// out\n        /* \"#utility.yul\":7338:7757   */\n    tag_36:\n        /* \"#utility.yul\":7504:7508   */\n      0x00\n        /* \"#utility.yul\":7542:7544   */\n      0x20\n        /* \"#utility.yul\":7531:7540   */\n      dup3\n        /* \"#utility.yul\":7527:7545   */\n      add\n        /* \"#utility.yul\":7519:7545   */\n      swap1\n      pop\n        /* \"#utility.yul\":7591:7600   */\n      dup2\n        /* \"#utility.yul\":7585:7589   */\n      dup2\n        /* \"#utility.yul\":7581:7601   */\n      sub\n        /* \"#utility.yul\":7577:7578   */\n      0x00\n        /* \"#utility.yul\":7566:7575   */\n      dup4\n        /* \"#utility.yul\":7562:7579   */\n      add\n        /* \"#utility.yul\":7555:7602   */\n      mstore\n        /* \"#utility.yul\":7619:7750   */\n      tag_151\n        /* \"#utility.yul\":7745:7749   */\n      dup2\n        /* \"#utility.yul\":7619:7750   */\n      tag_71\n      jump\t// in\n    tag_151:\n        /* \"#utility.yul\":7611:7750   */\n      swap1\n      pop\n        /* \"#utility.yul\":7338:7757   */\n      swap2\n      swap1\n      pop\n      jump\t// out\n        /* \"#utility.yul\":7763:7943   */\n    tag_72:\n        /* \"#utility.yul\":7811:7888   */\n      0x4e487b7100000000000000000000000000000000000000000000000000000000\n        /* \"#utility.yul\":7808:7809   */\n      0x00\n        /* \"#utility.yul\":7801:7889   */\n      mstore\n        /* \"#utility.yul\":7908:7912   */\n      0x22\n        /* \"#utility.yul\":7905:7906   */\n      0x04\n        /* \"#utility.yul\":7898:7913   */\n      mstore\n        /* \"#utility.yul\":7932:7936   */\n      0x24\n        /* \"#utility.yul\":7929:7930   */\n      0x00\n        /* \"#utility.yul\":7922:7937   */\n      revert\n        /* \"#utility.yul\":7949:8269   */\n    tag_39:\n        /* \"#utility.yul\":7993:7999   */\n      0x00\n        /* \"#utility.yul\":8030:8031   */\n      0x02\n        /* \"#utility.yul\":8024:8028   */\n      dup3\n        /* \"#utility.yul\":8020:8032   */\n      div\n        /* \"#utility.yul\":8010:8032   */\n      swap1\n      pop\n        /* \"#utility.yul\":8077:8078   */\n      0x01\n        /* \"#utility.yul\":8071:8075   */\n      dup3\n        /* \"#utility.yul\":8067:8079   */\n      and\n        /* \"#utility.yul\":8098:8116   */\n      dup1\n        /* \"#utility.yul\":8088:8169   */\n      tag_154\n      jumpi\n        /* \"#utility.yul\":8154:8158   */\n      0x7f\n        /* \"#utility.yul\":8146:8152   */\n      dup3\n        /* \"#utility.yul\":8142:8159   */\n      and\n        /* \"#utility.yul\":8132:8159   */\n      swap2\n      pop\n        /* \"#utility.yul\":8088:8169   */\n    tag_154:\n        /* \"#utility.yul\":8216:8218   */\n      0x20\n        /* \"#utility.yul\":8208:8214   */\n      dup3\n        /* \"#utility.yul\":8205:8219   */\n      lt\n        /* \"#utility.yul\":8185:8203   */\n      dup2\n        /* \"#utility.yul\":8182:8220   */\n      sub\n        /* \"#utility.yul\":8179:8263   */\n      tag_155\n      jumpi\n        /* \"#utility.yul\":8235:8253   */\n      tag_156\n      tag_72\n      jump\t// in\n    tag_156:\n        /* \"#utility.yul\":8179:8263   */\n    tag_155:\n        /* \"#utility.yul\":8000:8269   */\n      pop\n        /* \"#utility.yul\":7949:8269   */\n      swap2\n      swap1\n      pop\n      jump\t// out\n\n    auxdata: 0xa264697066735822122037611e5da8454675d12d384f5d8452efae810cd5da234a0330b06580093c32b064736f6c63430008190033\n}\n",
				"bytecode": {
					"linkReferences": {},
					"object": "60806040523360025f6101000a81548173ffffffffffffffffffffffffffffffffffffffff021916908373ffffffffffffffffffffffffffffffffffffffff160217905550348015604e575f80fd5b506107828061005c5f395ff3fe608060405234801561000f575f80fd5b5060043610610055575f3560e01c8063012d45ae14610059578063119552a11461007757806372eab9c2146100955780638f8699ef146100b15780639f90ac59146100cd575b5f80fd5b6100616100eb565b60405161006e9190610345565b60405180910390f35b61007f61012e565b60405161008c919061039d565b60405180910390f35b6100af60048036038101906100aa91906103f1565b610153565b005b6100cb60048036038101906100c69190610558565b6101da565b005b6100d5610262565b6040516100e291906105ff565b60405180910390f35b5f805f3373ffffffffffffffffffffffffffffffffffffffff1673ffffffffffffffffffffffffffffffffffffffff1681526020019081526020015f2054905090565b60025f9054906101000a900473ffffffffffffffffffffffffffffffffffffffff1681565b600d8103610196576040517f08c379a000000000000000000000000000000000000000000000000000000000815260040161018d90610669565b60405180910390fd5b805f803373ffffffffffffffffffffffffffffffffffffffff1673ffffffffffffffffffffffffffffffffffffffff1681526020019081526020015f208190555050565b6040518060400160405280600381526020017f41424300000000000000000000000000000000000000000000000000000000008152508051906020012081805190602001201461025f576040517f08c379a0000000000000000000000000000000000000000000000000000000008152600401610256906106d1565b60405180910390fd5b50565b606060015f3373ffffffffffffffffffffffffffffffffffffffff1673ffffffffffffffffffffffffffffffffffffffff1681526020019081526020015f2080546102ac9061071c565b80601f01602080910402602001604051908101604052809291908181526020018280546102d89061071c565b80156103235780601f106102fa57610100808354040283529160200191610323565b820191905f5260205f20905b81548152906001019060200180831161030657829003601f168201915b5050505050905090565b5f819050919050565b61033f8161032d565b82525050565b5f6020820190506103585f830184610336565b92915050565b5f73ffffffffffffffffffffffffffffffffffffffff82169050919050565b5f6103878261035e565b9050919050565b6103978161037d565b82525050565b5f6020820190506103b05f83018461038e565b92915050565b5f604051905090565b5f80fd5b5f80fd5b6103d08161032d565b81146103da575f80fd5b50565b5f813590506103eb816103c7565b92915050565b5f60208284031215610406576104056103bf565b5b5f610413848285016103dd565b91505092915050565b5f80fd5b5f80fd5b5f601f19601f8301169050919050565b7f4e487b71000000000000000000000000000000000000000000000000000000005f52604160045260245ffd5b61046a82610424565b810181811067ffffffffffffffff8211171561048957610488610434565b5b80604052505050565b5f61049b6103b6565b90506104a78282610461565b919050565b5f67ffffffffffffffff8211156104c6576104c5610434565b5b6104cf82610424565b9050602081019050919050565b828183375f83830152505050565b5f6104fc6104f7846104ac565b610492565b90508281526020810184848401111561051857610517610420565b5b6105238482856104dc565b509392505050565b5f82601f83011261053f5761053e61041c565b5b813561054f8482602086016104ea565b91505092915050565b5f6020828403121561056d5761056c6103bf565b5b5f82013567ffffffffffffffff81111561058a576105896103c3565b5b6105968482850161052b565b91505092915050565b5f81519050919050565b5f82825260208201905092915050565b8281835e5f83830152505050565b5f6105d18261059f565b6105db81856105a9565b93506105eb8185602086016105b9565b6105f481610424565b840191505092915050565b5f6020820190508181035f83015261061781846105c7565b905092915050565b7f6368616e676520746865206e756d6265720000000000000000000000000000005f82015250565b5f6106536011836105a9565b915061065e8261061f565b602082019050919050565b5f6020820190508181035f83015261068081610647565b9050919050565b7f4368616e6765204c69746572616c0000000000000000000000000000000000005f82015250565b5f6106bb600e836105a9565b91506106c682610687565b602082019050919050565b5f6020820190508181035f8301526106e8816106af565b9050919050565b7f4e487b71000000000000000000000000000000000000000000000000000000005f52602260045260245ffd5b5f600282049050600182168061073357607f821691505b602082108103610746576107456106ef565b5b5091905056fea264697066735822122037611e5da8454675d12d384f5d8452efae810cd5da234a0330b06580093c32b064736f6c63430008190033",
					"opcodes": "PUSH1 0x80 PUSH1 0x40 MSTORE CALLER PUSH1 0x2 PUSH0 PUSH2 0x100 EXP DUP2 SLOAD DUP2 PUSH20 0xFFFFFFFFFFFFFFFFFFFFFFFFFFFFFFFFFFFFFFFF MUL NOT AND SWAP1 DUP4 PUSH20 0xFFFFFFFFFFFFFFFFFFFFFFFFFFFFFFFFFFFFFFFF AND MUL OR SWAP1 SSTORE POP CALLVALUE DUP1 ISZERO PUSH1 0x4E JUMPI PUSH0 DUP1 REVERT JUMPDEST POP PUSH2 0x782 DUP1 PUSH2 0x5C PUSH0 CODECOPY PUSH0 RETURN INVALID PUSH1 0x80 PUSH1 0x40 MSTORE CALLVALUE DUP1 ISZERO PUSH2 0xF JUMPI PUSH0 DUP1 REVERT JUMPDEST POP PUSH1 0x4 CALLDATASIZE LT PUSH2 0x55 JUMPI PUSH0 CALLDATALOAD PUSH1 0xE0 SHR DUP1 PUSH4 0x12D45AE EQ PUSH2 0x59 JUMPI DUP1 PUSH4 0x119552A1 EQ PUSH2 0x77 JUMPI DUP1 PUSH4 0x72EAB9C2 EQ PUSH2 0x95 JUMPI DUP1 PUSH4 0x8F8699EF EQ PUSH2 0xB1 JUMPI DUP1 PUSH4 0x9F90AC59 EQ PUSH2 0xCD JUMPI JUMPDEST PUSH0 DUP1 REVERT JUMPDEST PUSH2 0x61 PUSH2 0xEB JUMP JUMPDEST PUSH1 0x40 MLOAD PUSH2 0x6E SWAP2 SWAP1 PUSH2 0x345 JUMP JUMPDEST PUSH1 0x40 MLOAD DUP1 SWAP2 SUB SWAP1 RETURN JUMPDEST PUSH2 0x7F PUSH2 0x12E JUMP JUMPDEST PUSH1 0x40 MLOAD PUSH2 0x8C SWAP2 SWAP1 PUSH2 0x39D JUMP JUMPDEST PUSH1 0x40 MLOAD DUP1 SWAP2 SUB SWAP1 RETURN JUMPDEST PUSH2 0xAF PUSH1 0x4 DUP1 CALLDATASIZE SUB DUP2 ADD SWAP1 PUSH2 0xAA SWAP2 SWAP1 PUSH2 0x3F1 JUMP JUMPDEST PUSH2 0x153 JUMP JUMPDEST STOP JUMPDEST PUSH2 0xCB PUSH1 0x4 DUP1 CALLDATASIZE SUB DUP2 ADD SWAP1 PUSH2 0xC6 SWAP2 SWAP1 PUSH2 0x558 JUMP JUMPDEST PUSH2 0x1DA JUMP JUMPDEST STOP JUMPDEST PUSH2 0xD5 PUSH2 0x262 JUMP JUMPDEST PUSH1 0x40 MLOAD PUSH2 0xE2 SWAP2 SWAP1 PUSH2 0x5FF JUMP JUMPDEST PUSH1 0x40 MLOAD DUP1 SWAP2 SUB SWAP1 RETURN JUMPDEST PUSH0 DUP1 PUSH0 CALLER PUSH20 0xFFFFFFFFFFFFFFFFFFFFFFFFFFFFFFFFFFFFFFFF AND PUSH20 0xFFFFFFFFFFFFFFFFFFFFFFFFFFFFFFFFFFFFFFFF AND DUP2 MSTORE PUSH1 0x20 ADD SWAP1 DUP2 MSTORE PUSH1 0x20 ADD PUSH0 KECCAK256 SLOAD SWAP1 POP SWAP1 JUMP JUMPDEST PUSH1 0x2 PUSH0 SWAP1 SLOAD SWAP1 PUSH2 0x100 EXP SWAP1 DIV PUSH20 0xFFFFFFFFFFFFFFFFFFFFFFFFFFFFFFFFFFFFFFFF AND DUP2 JUMP JUMPDEST PUSH1 0xD DUP2 SUB PUSH2 0x196 JUMPI PUSH1 0x40 MLOAD PUSH32 0x8C379A000000000000000000000000000000000000000000000000000000000 DUP2 MSTORE PUSH1 0x4 ADD PUSH2 0x18D SWAP1 PUSH2 0x669 JUMP JUMPDEST PUSH1 0x40 MLOAD DUP1 SWAP2 SUB SWAP1 REVERT JUMPDEST DUP1 PUSH0 DUP1 CALLER PUSH20 0xFFFFFFFFFFFFFFFFFFFFFFFFFFFFFFFFFFFFFFFF AND PUSH20 0xFFFFFFFFFFFFFFFFFFFFFFFFFFFFFFFFFFFFFFFF AND DUP2 MSTORE PUSH1 0x20 ADD SWAP1 DUP2 MSTORE PUSH1 0x20 ADD PUSH0 KECCAK256 DUP2 SWAP1 SSTORE POP POP JUMP JUMPDEST PUSH1 0x40 MLOAD DUP1 PUSH1 0x40 ADD PUSH1 0x40 MSTORE DUP1 PUSH1 0x3 DUP2 MSTORE PUSH1 0x20 ADD PUSH32 0x4142430000000000000000000000000000000000000000000000000000000000 DUP2 MSTORE POP DUP1 MLOAD SWAP1 PUSH1 0x20 ADD KECCAK256 DUP2 DUP1 MLOAD SWAP1 PUSH1 0x20 ADD KECCAK256 EQ PUSH2 0x25F JUMPI PUSH1 0x40 MLOAD PUSH32 0x8C379A000000000000000000000000000000000000000000000000000000000 DUP2 MSTORE PUSH1 0x4 ADD PUSH2 0x256 SWAP1 PUSH2 0x6D1 JUMP JUMPDEST PUSH1 0x40 MLOAD DUP1 SWAP2 SUB SWAP1 REVERT JUMPDEST POP JUMP JUMPDEST PUSH1 0x60 PUSH1 0x1 PUSH0 CALLER PUSH20 0xFFFFFFFFFFFFFFFFFFFFFFFFFFFFFFFFFFFFFFFF AND PUSH20 0xFFFFFFFFFFFFFFFFFFFFFFFFFFFFFFFFFFFFFFFF AND DUP2 MSTORE PUSH1 0x20 ADD SWAP1 DUP2 MSTORE PUSH1 0x20 ADD PUSH0 KECCAK256 DUP1 SLOAD PUSH2 0x2AC SWAP1 PUSH2 0x71C JUMP JUMPDEST DUP1 PUSH1 0x1F ADD PUSH1 0x20 DUP1 SWAP2 DIV MUL PUSH1 0x20 ADD PUSH1 0x40 MLOAD SWAP1 DUP2 ADD PUSH1 0x40 MSTORE DUP1 SWAP3 SWAP2 SWAP1 DUP2 DUP2 MSTORE PUSH1 0x20 ADD DUP3 DUP1 SLOAD PUSH2 0x2D8 SWAP1 PUSH2 0x71C JUMP JUMPDEST DUP1 ISZERO PUSH2 0x323 JUMPI DUP1 PUSH1 0x1F LT PUSH2 0x2FA JUMPI PUSH2 0x100 DUP1 DUP4 SLOAD DIV MUL DUP4 MSTORE SWAP2 PUSH1 0x20 ADD SWAP2 PUSH2 0x323 JUMP JUMPDEST DUP3 ADD SWAP2 SWAP1 PUSH0 MSTORE PUSH1 0x20 PUSH0 KECCAK256 SWAP1 JUMPDEST DUP2 SLOAD DUP2 MSTORE SWAP1 PUSH1 0x1 ADD SWAP1 PUSH1 0x20 ADD DUP1 DUP4 GT PUSH2 0x306 JUMPI DUP3 SWAP1 SUB PUSH1 0x1F AND DUP3 ADD SWAP2 JUMPDEST POP POP POP POP POP SWAP1 POP SWAP1 JUMP JUMPDEST PUSH0 DUP2 SWAP1 POP SWAP2 SWAP1 POP JUMP JUMPDEST PUSH2 0x33F DUP2 PUSH2 0x32D JUMP JUMPDEST DUP3 MSTORE POP POP JUMP JUMPDEST PUSH0 PUSH1 0x20 DUP3 ADD SWAP1 POP PUSH2 0x358 PUSH0 DUP4 ADD DUP5 PUSH2 0x336 JUMP JUMPDEST SWAP3 SWAP2 POP POP JUMP JUMPDEST PUSH0 PUSH20 0xFFFFFFFFFFFFFFFFFFFFFFFFFFFFFFFFFFFFFFFF DUP3 AND SWAP1 POP SWAP2 SWAP1 POP JUMP JUMPDEST PUSH0 PUSH2 0x387 DUP3 PUSH2 0x35E JUMP JUMPDEST SWAP1 POP SWAP2 SWAP1 POP JUMP JUMPDEST PUSH2 0x397 DUP2 PUSH2 0x37D JUMP JUMPDEST DUP3 MSTORE POP POP JUMP JUMPDEST PUSH0 PUSH1 0x20 DUP3 ADD SWAP1 POP PUSH2 0x3B0 PUSH0 DUP4 ADD DUP5 PUSH2 0x38E JUMP JUMPDEST SWAP3 SWAP2 POP POP JUMP JUMPDEST PUSH0 PUSH1 0x40 MLOAD SWAP1 POP SWAP1 JUMP JUMPDEST PUSH0 DUP1 REVERT JUMPDEST PUSH0 DUP1 REVERT JUMPDEST PUSH2 0x3D0 DUP2 PUSH2 0x32D JUMP JUMPDEST DUP2 EQ PUSH2 0x3DA JUMPI PUSH0 DUP1 REVERT JUMPDEST POP JUMP JUMPDEST PUSH0 DUP2 CALLDATALOAD SWAP1 POP PUSH2 0x3EB DUP2 PUSH2 0x3C7 JUMP JUMPDEST SWAP3 SWAP2 POP POP JUMP JUMPDEST PUSH0 PUSH1 0x20 DUP3 DUP5 SUB SLT ISZERO PUSH2 0x406 JUMPI PUSH2 0x405 PUSH2 0x3BF JUMP JUMPDEST JUMPDEST PUSH0 PUSH2 0x413 DUP5 DUP3 DUP6 ADD PUSH2 0x3DD JUMP JUMPDEST SWAP2 POP POP SWAP3 SWAP2 POP POP JUMP JUMPDEST PUSH0 DUP1 REVERT JUMPDEST PUSH0 DUP1 REVERT JUMPDEST PUSH0 PUSH1 0x1F NOT PUSH1 0x1F DUP4 ADD AND SWAP1 POP SWAP2 SWAP1 POP JUMP JUMPDEST PUSH32 0x4E487B7100000000000000000000000000000000000000000000000000000000 PUSH0 MSTORE PUSH1 0x41 PUSH1 0x4 MSTORE PUSH1 0x24 PUSH0 REVERT JUMPDEST PUSH2 0x46A DUP3 PUSH2 0x424 JUMP JUMPDEST DUP2 ADD DUP2 DUP2 LT PUSH8 0xFFFFFFFFFFFFFFFF DUP3 GT OR ISZERO PUSH2 0x489 JUMPI PUSH2 0x488 PUSH2 0x434 JUMP JUMPDEST JUMPDEST DUP1 PUSH1 0x40 MSTORE POP POP POP JUMP JUMPDEST PUSH0 PUSH2 0x49B PUSH2 0x3B6 JUMP JUMPDEST SWAP1 POP PUSH2 0x4A7 DUP3 DUP3 PUSH2 0x461 JUMP JUMPDEST SWAP2 SWAP1 POP JUMP JUMPDEST PUSH0 PUSH8 0xFFFFFFFFFFFFFFFF DUP3 GT ISZERO PUSH2 0x4C6 JUMPI PUSH2 0x4C5 PUSH2 0x434 JUMP JUMPDEST JUMPDEST PUSH2 0x4CF DUP3 PUSH2 0x424 JUMP JUMPDEST SWAP1 POP PUSH1 0x20 DUP2 ADD SWAP1 POP SWAP2 SWAP1 POP JUMP JUMPDEST DUP3 DUP2 DUP4 CALLDATACOPY PUSH0 DUP4 DUP4 ADD MSTORE POP POP POP JUMP JUMPDEST PUSH0 PUSH2 0x4FC PUSH2 0x4F7 DUP5 PUSH2 0x4AC JUMP JUMPDEST PUSH2 0x492 JUMP JUMPDEST SWAP1 POP DUP3 DUP2 MSTORE PUSH1 0x20 DUP2 ADD DUP5 DUP5 DUP5 ADD GT ISZERO PUSH2 0x518 JUMPI PUSH2 0x517 PUSH2 0x420 JUMP JUMPDEST JUMPDEST PUSH2 0x523 DUP5 DUP3 DUP6 PUSH2 0x4DC JUMP JUMPDEST POP SWAP4 SWAP3 POP POP POP JUMP JUMPDEST PUSH0 DUP3 PUSH1 0x1F DUP4 ADD SLT PUSH2 0x53F JUMPI PUSH2 0x53E PUSH2 0x41C JUMP JUMPDEST JUMPDEST DUP2 CALLDATALOAD PUSH2 0x54F DUP5 DUP3 PUSH1 0x20 DUP7 ADD PUSH2 0x4EA JUMP JUMPDEST SWAP2 POP POP SWAP3 SWAP2 POP POP JUMP JUMPDEST PUSH0 PUSH1 0x20 DUP3 DUP5 SUB SLT ISZERO PUSH2 0x56D JUMPI PUSH2 0x56C PUSH2 0x3BF JUMP JUMPDEST JUMPDEST PUSH0 DUP3 ADD CALLDATALOAD PUSH8 0xFFFFFFFFFFFFFFFF DUP2 GT ISZERO PUSH2 0x58A JUMPI PUSH2 0x589 PUSH2 0x3C3 JUMP JUMPDEST JUMPDEST PUSH2 0x596 DUP5 DUP3 DUP6 ADD PUSH2 0x52B JUMP JUMPDEST SWAP2 POP POP SWAP3 SWAP2 POP POP JUMP JUMPDEST PUSH0 DUP2 MLOAD SWAP1 POP SWAP2 SWAP1 POP JUMP JUMPDEST PUSH0 DUP3 DUP3 MSTORE PUSH1 0x20 DUP3 ADD SWAP1 POP SWAP3 SWAP2 POP POP JUMP JUMPDEST DUP3 DUP2 DUP4 MCOPY PUSH0 DUP4 DUP4 ADD MSTORE POP POP POP JUMP JUMPDEST PUSH0 PUSH2 0x5D1 DUP3 PUSH2 0x59F JUMP JUMPDEST PUSH2 0x5DB DUP2 DUP6 PUSH2 0x5A9 JUMP JUMPDEST SWAP4 POP PUSH2 0x5EB DUP2 DUP6 PUSH1 0x20 DUP7 ADD PUSH2 0x5B9 JUMP JUMPDEST PUSH2 0x5F4 DUP2 PUSH2 0x424 JUMP JUMPDEST DUP5 ADD SWAP2 POP POP SWAP3 SWAP2 POP POP JUMP JUMPDEST PUSH0 PUSH1 0x20 DUP3 ADD SWAP1 POP DUP2 DUP2 SUB PUSH0 DUP4 ADD MSTORE PUSH2 0x617 DUP2 DUP5 PUSH2 0x5C7 JUMP JUMPDEST SWAP1 POP SWAP3 SWAP2 POP POP JUMP JUMPDEST PUSH32 0x6368616E676520746865206E756D626572000000000000000000000000000000 PUSH0 DUP3 ADD MSTORE POP JUMP JUMPDEST PUSH0 PUSH2 0x653 PUSH1 0x11 DUP4 PUSH2 0x5A9 JUMP JUMPDEST SWAP2 POP PUSH2 0x65E DUP3 PUSH2 0x61F JUMP JUMPDEST PUSH1 0x20 DUP3 ADD SWAP1 POP SWAP2 SWAP1 POP JUMP JUMPDEST PUSH0 PUSH1 0x20 DUP3 ADD SWAP1 POP DUP2 DUP2 SUB PUSH0 DUP4 ADD MSTORE PUSH2 0x680 DUP2 PUSH2 0x647 JUMP JUMPDEST SWAP1 POP SWAP2 SWAP1 POP JUMP JUMPDEST PUSH32 0x4368616E6765204C69746572616C000000000000000000000000000000000000 PUSH0 DUP3 ADD MSTORE POP JUMP JUMPDEST PUSH0 PUSH2 0x6BB PUSH1 0xE DUP4 PUSH2 0x5A9 JUMP JUMPDEST SWAP2 POP PUSH2 0x6C6 DUP3 PUSH2 0x687 JUMP JUMPDEST PUSH1 0x20 DUP3 ADD SWAP1 POP SWAP2 SWAP1 POP JUMP JUMPDEST PUSH0 PUSH1 0x20 DUP3 ADD SWAP1 POP DUP2 DUP2 SUB PUSH0 DUP4 ADD MSTORE PUSH2 0x6E8 DUP2 PUSH2 0x6AF JUMP JUMPDEST SWAP1 POP SWAP2 SWAP1 POP JUMP JUMPDEST PUSH32 0x4E487B7100000000000000000000000000000000000000000000000000000000 PUSH0 MSTORE PUSH1 0x22 PUSH1 0x4 MSTORE PUSH1 0x24 PUSH0 REVERT JUMPDEST PUSH0 PUSH1 0x2 DUP3 DIV SWAP1 POP PUSH1 0x1 DUP3 AND DUP1 PUSH2 0x733 JUMPI PUSH1 0x7F DUP3 AND SWAP2 POP JUMPDEST PUSH1 0x20 DUP3 LT DUP2 SUB PUSH2 0x746 JUMPI PUSH2 0x745 PUSH2 0x6EF JUMP JUMPDEST JUMPDEST POP SWAP2 SWAP1 POP JUMP INVALID LOG2 PUSH5 0x6970667358 0x22 SLT KECCAK256 CALLDATACOPY PUSH2 0x1E5D 0xA8 GASLIMIT CHAINID PUSH22 0xD12D384F5D8452EFAE810CD5DA234A0330B06580093C ORIGIN 0xB0 PUSH5 0x736F6C6343 STOP ADDMOD NOT STOP CALLER "
				},
				"gasEstimates": {
					"creation": {
						"codeDepositCost": "384400",
						"executionCost": "24687",
						"totalCost": "409087"
					},
					"external": {
						"a1()": "2508",
						"getFavLiteral()": "infinite",
						"getFavNumber()": "2497",
						"setFavLiteral(string)": "infinite",
						"setFavNumber(uint256)": "22647"
					}
				},
				"methodIdentifiers": {
					"a1()": "119552a1",
					"getFavLiteral()": "9f90ac59",
					"getFavNumber()": "012d45ae",
					"setFavLiteral(string)": "8f8699ef",
					"setFavNumber(uint256)": "72eab9c2"
				}
			},
			"storageLayout": {
				"storage": [
					{
						"astId": 5,
						"contract": "contracts/mapping.sol:test",
						"label": "favnumber",
						"offset": 0,
						"slot": "0",
						"type": "t_mapping(t_address,t_uint256)"
					},
					{
						"astId": 9,
						"contract": "contracts/mapping.sol:test",
						"label": "favliteral",
						"offset": 0,
						"slot": "1",
						"type": "t_mapping(t_address,t_string_storage)"
					},
					{
						"astId": 13,
						"contract": "contracts/mapping.sol:test",
						"label": "a1",
						"offset": 0,
						"slot": "2",
						"type": "t_address"
					}
				],
				"types": {
					"t_address": {
						"encoding": "inplace",
						"label": "address",
						"numberOfBytes": "20"
					},
					"t_mapping(t_address,t_string_storage)": {
						"encoding": "mapping",
						"key": "t_address",
						"label": "mapping(address => string)",
						"numberOfBytes": "32",
						"value": "t_string_storage"
					},
					"t_mapping(t_address,t_uint256)": {
						"encoding": "mapping",
						"key": "t_address",
						"label": "mapping(address => uint256)",
						"numberOfBytes": "32",
						"value": "t_uint256"
					},
					"t_string_storage": {
						"encoding": "bytes",
						"label": "string",
						"numberOfBytes": "32"
					},
					"t_uint256": {
						"encoding": "inplace",
						"label": "uint256",
						"numberOfBytes": "32"
					}
				}
			},
			"userdoc": {
				"kind": "user",
				"methods": {},
				"version": 1
			}
		}
	}
}