{
	"contracts/ErrorHandling.sol": {
		"ErrorHandling": {
			"abi": [
				{
					"inputs": [],
					"name": "balance",
					"outputs": [
						{
							"internalType": "uint256",
							"name": "",
							"type": "uint256"
						}
					],
					"stateMutability": "view",
					"type": "function"
				},
				{
					"inputs": [
						{
							"internalType": "uint256",
							"name": "_amount",
							"type": "uint256"
						}
					],
					"name": "withdrawmoney",
					"outputs": [
						{
							"internalType": "uint256",
							"name": "",
							"type": "uint256"
						}
					],
					"stateMutability": "nonpayable",
					"type": "function"
				}
			],
			"devdoc": {
				"kind": "dev",
				"methods": {},
				"version": 1
			},
			"evm": {
				"assembly": "    /* \"contracts/ErrorHandling.sol\":73:300  contract ErrorHandling {... */\n  mstore(0x40, 0x80)\n    /* \"contracts/ErrorHandling.sol\":124:127  100 */\n  0x64\n    /* \"contracts/ErrorHandling.sol\":104:127  uint public balance=100 */\n  0x00\n  sstore\n    /* \"contracts/ErrorHandling.sol\":73:300  contract ErrorHandling {... */\n  callvalue\n  dup1\n  iszero\n  tag_1\n  jumpi\n  0x00\n  dup1\n  revert\ntag_1:\n  pop\n  dataSize(sub_0)\n  dup1\n  dataOffset(sub_0)\n  0x00\n  codecopy\n  0x00\n  return\nstop\n\nsub_0: assembly {\n        /* \"contracts/ErrorHandling.sol\":73:300  contract ErrorHandling {... */\n      mstore(0x40, 0x80)\n      callvalue\n      dup1\n      iszero\n      tag_1\n      jumpi\n      0x00\n      dup1\n      revert\n    tag_1:\n      pop\n      jumpi(tag_2, lt(calldatasize, 0x04))\n      shr(0xe0, calldataload(0x00))\n      dup1\n      0xb69ef8a8\n      eq\n      tag_3\n      jumpi\n      dup1\n      0xbfc6ae54\n      eq\n      tag_4\n      jumpi\n    tag_2:\n      0x00\n      dup1\n      revert\n        /* \"contracts/ErrorHandling.sol\":104:127  uint public balance=100 */\n    tag_3:\n      tag_5\n      tag_6\n      jump\t// in\n    tag_5:\n      mload(0x40)\n      tag_7\n      swap2\n      swap1\n      tag_8\n      jump\t// in\n    tag_7:\n      mload(0x40)\n      dup1\n      swap2\n      sub\n      swap1\n      return\n        /* \"contracts/ErrorHandling.sol\":135:295  function withdrawmoney(uint _amount) public returns(uint){... */\n    tag_4:\n      tag_9\n      0x04\n      dup1\n      calldatasize\n      sub\n      dup2\n      add\n      swap1\n      tag_10\n      swap2\n      swap1\n      tag_11\n      jump\t// in\n    tag_10:\n      tag_12\n      jump\t// in\n    tag_9:\n      mload(0x40)\n      tag_13\n      swap2\n      swap1\n      tag_8\n      jump\t// in\n    tag_13:\n      mload(0x40)\n      dup1\n      swap2\n      sub\n      swap1\n      return\n        /* \"contracts/ErrorHandling.sol\":104:127  uint public balance=100 */\n    tag_6:\n      sload(0x00)\n      dup2\n      jump\t// out\n        /* \"contracts/ErrorHandling.sol\":135:295  function withdrawmoney(uint _amount) public returns(uint){... */\n    tag_12:\n        /* \"contracts/ErrorHandling.sol\":187:191  uint */\n      0x00\n        /* \"contracts/ErrorHandling.sol\":219:222  100 */\n      0x64\n        /* \"contracts/ErrorHandling.sol\":211:218  _amount */\n      dup3\n        /* \"contracts/ErrorHandling.sol\":211:222  _amount<100 */\n      lt\n        /* \"contracts/ErrorHandling.sol\":203:248  require(_amount<100, \"Not allowed below 100\") */\n      tag_15\n      jumpi\n      mload(0x40)\n      0x08c379a000000000000000000000000000000000000000000000000000000000\n      dup2\n      mstore\n      0x04\n      add\n      tag_16\n      swap1\n      tag_17\n      jump\t// in\n    tag_16:\n      mload(0x40)\n      dup1\n      swap2\n      sub\n      swap1\n      revert\n    tag_15:\n        /* \"contracts/ErrorHandling.sol\":279:286  _amount */\n      dup2\n        /* \"contracts/ErrorHandling.sol\":269:276  balance */\n      sload(0x00)\n        /* \"contracts/ErrorHandling.sol\":269:286  balance - _amount */\n      tag_18\n      swap2\n      swap1\n      tag_19\n      jump\t// in\n    tag_18:\n        /* \"contracts/ErrorHandling.sol\":259:266  balance */\n      0x00\n        /* \"contracts/ErrorHandling.sol\":259:286  balance = balance - _amount */\n      dup2\n      swap1\n      sstore\n      pop\n        /* \"contracts/ErrorHandling.sol\":135:295  function withdrawmoney(uint _amount) public returns(uint){... */\n      swap2\n      swap1\n      pop\n      jump\t// out\n        /* \"#utility.yul\":7:84   */\n    tag_20:\n        /* \"#utility.yul\":44:51   */\n      0x00\n        /* \"#utility.yul\":73:78   */\n      dup2\n        /* \"#utility.yul\":62:78   */\n      swap1\n      pop\n        /* \"#utility.yul\":7:84   */\n      swap2\n      swap1\n      pop\n      jump\t// out\n        /* \"#utility.yul\":90:208   */\n    tag_21:\n        /* \"#utility.yul\":177:201   */\n      tag_34\n        /* \"#utility.yul\":195:200   */\n      dup2\n        /* \"#utility.yul\":177:201   */\n      tag_20\n      jump\t// in\n    tag_34:\n        /* \"#utility.yul\":172:175   */\n      dup3\n        /* \"#utility.yul\":165:202   */\n      mstore\n        /* \"#utility.yul\":90:208   */\n      pop\n      pop\n      jump\t// out\n        /* \"#utility.yul\":214:436   */\n    tag_8:\n        /* \"#utility.yul\":307:311   */\n      0x00\n        /* \"#utility.yul\":345:347   */\n      0x20\n        /* \"#utility.yul\":334:343   */\n      dup3\n        /* \"#utility.yul\":330:348   */\n      add\n        /* \"#utility.yul\":322:348   */\n      swap1\n      pop\n        /* \"#utility.yul\":358:429   */\n      tag_36\n        /* \"#utility.yul\":426:427   */\n      0x00\n        /* \"#utility.yul\":415:424   */\n      dup4\n        /* \"#utility.yul\":411:428   */\n      add\n        /* \"#utility.yul\":402:408   */\n      dup5\n        /* \"#utility.yul\":358:429   */\n      tag_21\n      jump\t// in\n    tag_36:\n        /* \"#utility.yul\":214:436   */\n      swap3\n      swap2\n      pop\n      pop\n      jump\t// out\n        /* \"#utility.yul\":523:640   */\n    tag_23:\n        /* \"#utility.yul\":632:633   */\n      0x00\n        /* \"#utility.yul\":629:630   */\n      dup1\n        /* \"#utility.yul\":622:634   */\n      revert\n        /* \"#utility.yul\":769:891   */\n    tag_25:\n        /* \"#utility.yul\":842:866   */\n      tag_41\n        /* \"#utility.yul\":860:865   */\n      dup2\n        /* \"#utility.yul\":842:866   */\n      tag_20\n      jump\t// in\n    tag_41:\n        /* \"#utility.yul\":835:840   */\n      dup2\n        /* \"#utility.yul\":832:867   */\n      eq\n        /* \"#utility.yul\":822:885   */\n      tag_42\n      jumpi\n        /* \"#utility.yul\":881:882   */\n      0x00\n        /* \"#utility.yul\":878:879   */\n      dup1\n        /* \"#utility.yul\":871:883   */\n      revert\n        /* \"#utility.yul\":822:885   */\n    tag_42:\n        /* \"#utility.yul\":769:891   */\n      pop\n      jump\t// out\n        /* \"#utility.yul\":897:1036   */\n    tag_26:\n        /* \"#utility.yul\":943:948   */\n      0x00\n        /* \"#utility.yul\":981:987   */\n      dup2\n        /* \"#utility.yul\":968:988   */\n      calldataload\n        /* \"#utility.yul\":959:988   */\n      swap1\n      pop\n        /* \"#utility.yul\":997:1030   */\n      tag_44\n        /* \"#utility.yul\":1024:1029   */\n      dup2\n        /* \"#utility.yul\":997:1030   */\n      tag_25\n      jump\t// in\n    tag_44:\n        /* \"#utility.yul\":897:1036   */\n      swap3\n      swap2\n      pop\n      pop\n      jump\t// out\n        /* \"#utility.yul\":1042:1371   */\n    tag_11:\n        /* \"#utility.yul\":1101:1107   */\n      0x00\n        /* \"#utility.yul\":1150:1152   */\n      0x20\n        /* \"#utility.yul\":1138:1147   */\n      dup3\n        /* \"#utility.yul\":1129:1136   */\n      dup5\n        /* \"#utility.yul\":1125:1148   */\n      sub\n        /* \"#utility.yul\":1121:1153   */\n      slt\n        /* \"#utility.yul\":1118:1237   */\n      iszero\n      tag_46\n      jumpi\n        /* \"#utility.yul\":1156:1235   */\n      tag_47\n      tag_23\n      jump\t// in\n    tag_47:\n        /* \"#utility.yul\":1118:1237   */\n    tag_46:\n        /* \"#utility.yul\":1276:1277   */\n      0x00\n        /* \"#utility.yul\":1301:1354   */\n      tag_48\n        /* \"#utility.yul\":1346:1353   */\n      dup5\n        /* \"#utility.yul\":1337:1343   */\n      dup3\n        /* \"#utility.yul\":1326:1335   */\n      dup6\n        /* \"#utility.yul\":1322:1344   */\n      add\n        /* \"#utility.yul\":1301:1354   */\n      tag_26\n      jump\t// in\n    tag_48:\n        /* \"#utility.yul\":1291:1354   */\n      swap2\n      pop\n        /* \"#utility.yul\":1247:1364   */\n      pop\n        /* \"#utility.yul\":1042:1371   */\n      swap3\n      swap2\n      pop\n      pop\n      jump\t// out\n        /* \"#utility.yul\":1377:1546   */\n    tag_27:\n        /* \"#utility.yul\":1461:1472   */\n      0x00\n        /* \"#utility.yul\":1495:1501   */\n      dup3\n        /* \"#utility.yul\":1490:1493   */\n      dup3\n        /* \"#utility.yul\":1483:1502   */\n      mstore\n        /* \"#utility.yul\":1535:1539   */\n      0x20\n        /* \"#utility.yul\":1530:1533   */\n      dup3\n        /* \"#utility.yul\":1526:1540   */\n      add\n        /* \"#utility.yul\":1511:1540   */\n      swap1\n      pop\n        /* \"#utility.yul\":1377:1546   */\n      swap3\n      swap2\n      pop\n      pop\n      jump\t// out\n        /* \"#utility.yul\":1552:1723   */\n    tag_28:\n        /* \"#utility.yul\":1692:1715   */\n      0x4e6f7420616c6c6f7765642062656c6f77203130300000000000000000000000\n        /* \"#utility.yul\":1688:1689   */\n      0x00\n        /* \"#utility.yul\":1680:1686   */\n      dup3\n        /* \"#utility.yul\":1676:1690   */\n      add\n        /* \"#utility.yul\":1669:1716   */\n      mstore\n        /* \"#utility.yul\":1552:1723   */\n      pop\n      jump\t// out\n        /* \"#utility.yul\":1729:2095   */\n    tag_29:\n        /* \"#utility.yul\":1871:1874   */\n      0x00\n        /* \"#utility.yul\":1892:1959   */\n      tag_52\n        /* \"#utility.yul\":1956:1958   */\n      0x15\n        /* \"#utility.yul\":1951:1954   */\n      dup4\n        /* \"#utility.yul\":1892:1959   */\n      tag_27\n      jump\t// in\n    tag_52:\n        /* \"#utility.yul\":1885:1959   */\n      swap2\n      pop\n        /* \"#utility.yul\":1968:2061   */\n      tag_53\n        /* \"#utility.yul\":2057:2060   */\n      dup3\n        /* \"#utility.yul\":1968:2061   */\n      tag_28\n      jump\t// in\n    tag_53:\n        /* \"#utility.yul\":2086:2088   */\n      0x20\n        /* \"#utility.yul\":2081:2084   */\n      dup3\n        /* \"#utility.yul\":2077:2089   */\n      add\n        /* \"#utility.yul\":2070:2089   */\n      swap1\n      pop\n        /* \"#utility.yul\":1729:2095   */\n      swap2\n      swap1\n      pop\n      jump\t// out\n        /* \"#utility.yul\":2101:2520   */\n    tag_17:\n        /* \"#utility.yul\":2267:2271   */\n      0x00\n        /* \"#utility.yul\":2305:2307   */\n      0x20\n        /* \"#utility.yul\":2294:2303   */\n      dup3\n        /* \"#utility.yul\":2290:2308   */\n      add\n        /* \"#utility.yul\":2282:2308   */\n      swap1\n      pop\n        /* \"#utility.yul\":2354:2363   */\n      dup2\n        /* \"#utility.yul\":2348:2352   */\n      dup2\n        /* \"#utility.yul\":2344:2364   */\n      sub\n        /* \"#utility.yul\":2340:2341   */\n      0x00\n        /* \"#utility.yul\":2329:2338   */\n      dup4\n        /* \"#utility.yul\":2325:2342   */\n      add\n        /* \"#utility.yul\":2318:2365   */\n      mstore\n        /* \"#utility.yul\":2382:2513   */\n      tag_55\n        /* \"#utility.yul\":2508:2512   */\n      dup2\n        /* \"#utility.yul\":2382:2513   */\n      tag_29\n      jump\t// in\n    tag_55:\n        /* \"#utility.yul\":2374:2513   */\n      swap1\n      pop\n        /* \"#utility.yul\":2101:2520   */\n      swap2\n      swap1\n      pop\n      jump\t// out\n        /* \"#utility.yul\":2526:2706   */\n    tag_30:\n        /* \"#utility.yul\":2574:2651   */\n      0x4e487b7100000000000000000000000000000000000000000000000000000000\n        /* \"#utility.yul\":2571:2572   */\n      0x00\n        /* \"#utility.yul\":2564:2652   */\n      mstore\n        /* \"#utility.yul\":2671:2675   */\n      0x11\n        /* \"#utility.yul\":2668:2669   */\n      0x04\n        /* \"#utility.yul\":2661:2676   */\n      mstore\n        /* \"#utility.yul\":2695:2699   */\n      0x24\n        /* \"#utility.yul\":2692:2693   */\n      0x00\n        /* \"#utility.yul\":2685:2700   */\n      revert\n        /* \"#utility.yul\":2712:2906   */\n    tag_19:\n        /* \"#utility.yul\":2752:2756   */\n      0x00\n        /* \"#utility.yul\":2772:2792   */\n      tag_58\n        /* \"#utility.yul\":2790:2791   */\n      dup3\n        /* \"#utility.yul\":2772:2792   */\n      tag_20\n      jump\t// in\n    tag_58:\n        /* \"#utility.yul\":2767:2792   */\n      swap2\n      pop\n        /* \"#utility.yul\":2806:2826   */\n      tag_59\n        /* \"#utility.yul\":2824:2825   */\n      dup4\n        /* \"#utility.yul\":2806:2826   */\n      tag_20\n      jump\t// in\n    tag_59:\n        /* \"#utility.yul\":2801:2826   */\n      swap3\n      pop\n        /* \"#utility.yul\":2850:2851   */\n      dup3\n        /* \"#utility.yul\":2847:2848   */\n      dup3\n        /* \"#utility.yul\":2843:2852   */\n      sub\n        /* \"#utility.yul\":2835:2852   */\n      swap1\n      pop\n        /* \"#utility.yul\":2874:2875   */\n      dup2\n        /* \"#utility.yul\":2868:2872   */\n      dup2\n        /* \"#utility.yul\":2865:2876   */\n      gt\n        /* \"#utility.yul\":2862:2899   */\n      iszero\n      tag_60\n      jumpi\n        /* \"#utility.yul\":2879:2897   */\n      tag_61\n      tag_30\n      jump\t// in\n    tag_61:\n        /* \"#utility.yul\":2862:2899   */\n    tag_60:\n        /* \"#utility.yul\":2712:2906   */\n      swap3\n      swap2\n      pop\n      pop\n      jump\t// out\n\n    auxdata: 0xa264697066735822122012b24d2d68fcaaa3c671815701e6148239ce025e3d3dc96dcbc1bbf74079a3f464736f6c63430008190033\n}\n",
				"bytecode": {
					"linkReferences": {},
					"object": "608060405260645f553480156012575f80fd5b5061027e806100205f395ff3fe608060405234801561000f575f80fd5b5060043610610034575f3560e01c8063b69ef8a814610038578063bfc6ae5414610056575b5f80fd5b610040610086565b60405161004d91906100fe565b60405180910390f35b610070600480360381019061006b9190610145565b61008b565b60405161007d91906100fe565b60405180910390f35b5f5481565b5f606482106100cf576040517f08c379a00000000000000000000000000000000000000000000000000000000081526004016100c6906101ca565b60405180910390fd5b815f546100dc9190610215565b5f81905550919050565b5f819050919050565b6100f8816100e6565b82525050565b5f6020820190506101115f8301846100ef565b92915050565b5f80fd5b610124816100e6565b811461012e575f80fd5b50565b5f8135905061013f8161011b565b92915050565b5f6020828403121561015a57610159610117565b5b5f61016784828501610131565b91505092915050565b5f82825260208201905092915050565b7f4e6f7420616c6c6f7765642062656c6f772031303000000000000000000000005f82015250565b5f6101b4601583610170565b91506101bf82610180565b602082019050919050565b5f6020820190508181035f8301526101e1816101a8565b9050919050565b7f4e487b71000000000000000000000000000000000000000000000000000000005f52601160045260245ffd5b5f61021f826100e6565b915061022a836100e6565b9250828203905081811115610242576102416101e8565b5b9291505056fea264697066735822122012b24d2d68fcaaa3c671815701e6148239ce025e3d3dc96dcbc1bbf74079a3f464736f6c63430008190033",
					"opcodes": "PUSH1 0x80 PUSH1 0x40 MSTORE PUSH1 0x64 PUSH0 SSTORE CALLVALUE DUP1 ISZERO PUSH1 0x12 JUMPI PUSH0 DUP1 REVERT JUMPDEST POP PUSH2 0x27E DUP1 PUSH2 0x20 PUSH0 CODECOPY PUSH0 RETURN INVALID PUSH1 0x80 PUSH1 0x40 MSTORE CALLVALUE DUP1 ISZERO PUSH2 0xF JUMPI PUSH0 DUP1 REVERT JUMPDEST POP PUSH1 0x4 CALLDATASIZE LT PUSH2 0x34 JUMPI PUSH0 CALLDATALOAD PUSH1 0xE0 SHR DUP1 PUSH4 0xB69EF8A8 EQ PUSH2 0x38 JUMPI DUP1 PUSH4 0xBFC6AE54 EQ PUSH2 0x56 JUMPI JUMPDEST PUSH0 DUP1 REVERT JUMPDEST PUSH2 0x40 PUSH2 0x86 JUMP JUMPDEST PUSH1 0x40 MLOAD PUSH2 0x4D SWAP2 SWAP1 PUSH2 0xFE JUMP JUMPDEST PUSH1 0x40 MLOAD DUP1 SWAP2 SUB SWAP1 RETURN JUMPDEST PUSH2 0x70 PUSH1 0x4 DUP1 CALLDATASIZE SUB DUP2 ADD SWAP1 PUSH2 0x6B SWAP2 SWAP1 PUSH2 0x145 JUMP JUMPDEST PUSH2 0x8B JUMP JUMPDEST PUSH1 0x40 MLOAD PUSH2 0x7D SWAP2 SWAP1 PUSH2 0xFE JUMP JUMPDEST PUSH1 0x40 MLOAD DUP1 SWAP2 SUB SWAP1 RETURN JUMPDEST PUSH0 SLOAD DUP2 JUMP JUMPDEST PUSH0 PUSH1 0x64 DUP3 LT PUSH2 0xCF JUMPI PUSH1 0x40 MLOAD PUSH32 0x8C379A000000000000000000000000000000000000000000000000000000000 DUP2 MSTORE PUSH1 0x4 ADD PUSH2 0xC6 SWAP1 PUSH2 0x1CA JUMP JUMPDEST PUSH1 0x40 MLOAD DUP1 SWAP2 SUB SWAP1 REVERT JUMPDEST DUP2 PUSH0 SLOAD PUSH2 0xDC SWAP2 SWAP1 PUSH2 0x215 JUMP JUMPDEST PUSH0 DUP2 SWAP1 SSTORE POP SWAP2 SWAP1 POP JUMP JUMPDEST PUSH0 DUP2 SWAP1 POP SWAP2 SWAP1 POP JUMP JUMPDEST PUSH2 0xF8 DUP2 PUSH2 0xE6 JUMP JUMPDEST DUP3 MSTORE POP POP JUMP JUMPDEST PUSH0 PUSH1 0x20 DUP3 ADD SWAP1 POP PUSH2 0x111 PUSH0 DUP4 ADD DUP5 PUSH2 0xEF JUMP JUMPDEST SWAP3 SWAP2 POP POP JUMP JUMPDEST PUSH0 DUP1 REVERT JUMPDEST PUSH2 0x124 DUP2 PUSH2 0xE6 JUMP JUMPDEST DUP2 EQ PUSH2 0x12E JUMPI PUSH0 DUP1 REVERT JUMPDEST POP JUMP JUMPDEST PUSH0 DUP2 CALLDATALOAD SWAP1 POP PUSH2 0x13F DUP2 PUSH2 0x11B JUMP JUMPDEST SWAP3 SWAP2 POP POP JUMP JUMPDEST PUSH0 PUSH1 0x20 DUP3 DUP5 SUB SLT ISZERO PUSH2 0x15A JUMPI PUSH2 0x159 PUSH2 0x117 JUMP JUMPDEST JUMPDEST PUSH0 PUSH2 0x167 DUP5 DUP3 DUP6 ADD PUSH2 0x131 JUMP JUMPDEST SWAP2 POP POP SWAP3 SWAP2 POP POP JUMP JUMPDEST PUSH0 DUP3 DUP3 MSTORE PUSH1 0x20 DUP3 ADD SWAP1 POP SWAP3 SWAP2 POP POP JUMP JUMPDEST PUSH32 0x4E6F7420616C6C6F7765642062656C6F77203130300000000000000000000000 PUSH0 DUP3 ADD MSTORE POP JUMP JUMPDEST PUSH0 PUSH2 0x1B4 PUSH1 0x15 DUP4 PUSH2 0x170 JUMP JUMPDEST SWAP2 POP PUSH2 0x1BF DUP3 PUSH2 0x180 JUMP JUMPDEST PUSH1 0x20 DUP3 ADD SWAP1 POP SWAP2 SWAP1 POP JUMP JUMPDEST PUSH0 PUSH1 0x20 DUP3 ADD SWAP1 POP DUP2 DUP2 SUB PUSH0 DUP4 ADD MSTORE PUSH2 0x1E1 DUP2 PUSH2 0x1A8 JUMP JUMPDEST SWAP1 POP SWAP2 SWAP1 POP JUMP JUMPDEST PUSH32 0x4E487B7100000000000000000000000000000000000000000000000000000000 PUSH0 MSTORE PUSH1 0x11 PUSH1 0x4 MSTORE PUSH1 0x24 PUSH0 REVERT JUMPDEST PUSH0 PUSH2 0x21F DUP3 PUSH2 0xE6 JUMP JUMPDEST SWAP2 POP PUSH2 0x22A DUP4 PUSH2 0xE6 JUMP JUMPDEST SWAP3 POP DUP3 DUP3 SUB SWAP1 POP DUP2 DUP2 GT ISZERO PUSH2 0x242 JUMPI PUSH2 0x241 PUSH2 0x1E8 JUMP JUMPDEST JUMPDEST SWAP3 SWAP2 POP POP JUMP INVALID LOG2 PUSH5 0x6970667358 0x22 SLT KECCAK256 SLT 0xB2 0x4D 0x2D PUSH9 0xFCAAA3C671815701E6 EQ DUP3 CODECOPY 0xCE MUL MCOPY RETURNDATASIZE RETURNDATASIZE 0xC9 PUSH14 0xCBC1BBF74079A3F464736F6C6343 STOP ADDMOD NOT STOP CALLER "
				},
				"gasEstimates": {
					"creation": {
						"codeDepositCost": "127600",
						"executionCost": "22274",
						"totalCost": "149874"
					},
					"external": {
						"balance()": "2402",
						"withdrawmoney(uint256)": "infinite"
					}
				},
				"methodIdentifiers": {
					"balance()": "b69ef8a8",
					"withdrawmoney(uint256)": "bfc6ae54"
				}
			},
			"storageLayout": {
				"storage": [
					{
						"astId": 4,
						"contract": "contracts/ErrorHandling.sol:ErrorHandling",
						"label": "balance",
						"offset": 0,
						"slot": "0",
						"type": "t_uint256"
					}
				],
				"types": {
					"t_uint256": {
						"encoding": "inplace",
						"label": "uint256",
						"numberOfBytes": "32"
					}
				}
			},
			"userdoc": {
				"kind": "user",
				"methods": {},
				"version": 1
			}
		}
	}
}