{
	"contracts/Patient2.sol": {
		"HealthcareSystem": {
			"abi": [
				{
					"inputs": [
						{
							"internalType": "string",
							"name": "_disease",
							"type": "string"
						}
					],
					"name": "addDisease",
					"outputs": [],
					"stateMutability": "nonpayable",
					"type": "function"
				},
				{
					"inputs": [
						{
							"internalType": "string",
							"name": "_name",
							"type": "string"
						},
						{
							"internalType": "uint256",
							"name": "_expiryDate",
							"type": "uint256"
						},
						{
							"internalType": "string",
							"name": "_dose",
							"type": "string"
						},
						{
							"internalType": "uint256",
							"name": "_price",
							"type": "uint256"
						}
					],
					"name": "addMedicine",
					"outputs": [],
					"stateMutability": "nonpayable",
					"type": "function"
				},
				{
					"inputs": [
						{
							"internalType": "uint256",
							"name": "_id",
							"type": "uint256"
						},
						{
							"internalType": "address",
							"name": "_patient",
							"type": "address"
						}
					],
					"name": "prescribeMedicine",
					"outputs": [],
					"stateMutability": "nonpayable",
					"type": "function"
				},
				{
					"inputs": [
						{
							"internalType": "string",
							"name": "_name",
							"type": "string"
						},
						{
							"internalType": "string",
							"name": "_qualification",
							"type": "string"
						},
						{
							"internalType": "string",
							"name": "_workPlace",
							"type": "string"
						}
					],
					"name": "registerDoctor",
					"outputs": [],
					"stateMutability": "nonpayable",
					"type": "function"
				},
				{
					"inputs": [
						{
							"internalType": "string",
							"name": "_name",
							"type": "string"
						},
						{
							"internalType": "uint256",
							"name": "_age",
							"type": "uint256"
						}
					],
					"name": "registerPatient",
					"outputs": [],
					"stateMutability": "nonpayable",
					"type": "function"
				},
				{
					"inputs": [
						{
							"internalType": "uint256",
							"name": "_age",
							"type": "uint256"
						}
					],
					"name": "updatePatientAge",
					"outputs": [],
					"stateMutability": "nonpayable",
					"type": "function"
				},
				{
					"inputs": [
						{
							"internalType": "uint256",
							"name": "_id",
							"type": "uint256"
						}
					],
					"name": "viewDoctorDetails",
					"outputs": [
						{
							"internalType": "uint256",
							"name": "id",
							"type": "uint256"
						},
						{
							"internalType": "string",
							"name": "name",
							"type": "string"
						},
						{
							"internalType": "string",
							"name": "qualification",
							"type": "string"
						},
						{
							"internalType": "string",
							"name": "add",
							"type": "string"
						}
					],
					"stateMutability": "view",
					"type": "function"
				},
				{
					"inputs": [
						{
							"internalType": "uint256",
							"name": "_id",
							"type": "uint256"
						}
					],
					"name": "viewMedicineDetails",
					"outputs": [
						{
							"internalType": "string",
							"name": "name",
							"type": "string"
						},
						{
							"internalType": "uint256",
							"name": "expiryDate",
							"type": "uint256"
						},
						{
							"internalType": "string",
							"name": "dose",
							"type": "string"
						},
						{
							"internalType": "uint256",
							"name": "price",
							"type": "uint256"
						}
					],
					"stateMutability": "view",
					"type": "function"
				},
				{
					"inputs": [],
					"name": "viewPatientData",
					"outputs": [
						{
							"internalType": "uint256",
							"name": "id",
							"type": "uint256"
						},
						{
							"internalType": "uint256",
							"name": "age",
							"type": "uint256"
						},
						{
							"internalType": "string",
							"name": "name",
							"type": "string"
						},
						{
							"internalType": "string[]",
							"name": "disease",
							"type": "string[]"
						}
					],
					"stateMutability": "view",
					"type": "function"
				},
				{
					"inputs": [
						{
							"internalType": "uint256",
							"name": "_id",
							"type": "uint256"
						}
					],
					"name": "viewPatientDataByDoctor",
					"outputs": [
						{
							"internalType": "uint256",
							"name": "id",
							"type": "uint256"
						},
						{
							"internalType": "uint256",
							"name": "age",
							"type": "uint256"
						},
						{
							"internalType": "string",
							"name": "name",
							"type": "string"
						},
						{
							"internalType": "string[]",
							"name": "disease",
							"type": "string[]"
						}
					],
					"stateMutability": "view",
					"type": "function"
				},
				{
					"inputs": [
						{
							"internalType": "address",
							"name": "_patient",
							"type": "address"
						}
					],
					"name": "viewPrescribedMedicines",
					"outputs": [
						{
							"internalType": "uint256[]",
							"name": "ids",
							"type": "uint256[]"
						}
					],
					"stateMutability": "view",
					"type": "function"
				}
			],
			"devdoc": {
				"kind": "dev",
				"methods": {},
				"version": 1
			},
			"evm": {
				"assembly": "    /* \"contracts/Patient2.sol\":60:3860  contract HealthcareSystem {... */\n  mstore(0x40, 0x80)\n  callvalue\n  dup1\n  iszero\n  tag_1\n  jumpi\n  0x00\n  dup1\n  revert\ntag_1:\n  pop\n  dataSize(sub_0)\n  dup1\n  dataOffset(sub_0)\n  0x00\n  codecopy\n  0x00\n  return\nstop\n\nsub_0: assembly {\n        /* \"contracts/Patient2.sol\":60:3860  contract HealthcareSystem {... */\n      mstore(0x40, 0x80)\n      callvalue\n      dup1\n      iszero\n      tag_1\n      jumpi\n      0x00\n      dup1\n      revert\n    tag_1:\n      pop\n      jumpi(tag_2, lt(calldatasize, 0x04))\n      shr(0xe0, calldataload(0x00))\n      dup1\n      0xcc7fa220\n      gt\n      tag_14\n      jumpi\n      dup1\n      0xcc7fa220\n      eq\n      tag_8\n      jumpi\n      dup1\n      0xd36000ed\n      eq\n      tag_9\n      jumpi\n      dup1\n      0xd47c029c\n      eq\n      tag_10\n      jumpi\n      dup1\n      0xd5cfcb06\n      eq\n      tag_11\n      jumpi\n      dup1\n      0xdcd0c2b2\n      eq\n      tag_12\n      jumpi\n      dup1\n      0xe98ee2f0\n      eq\n      tag_13\n      jumpi\n      jump(tag_2)\n    tag_14:\n      dup1\n      0x2de304ed\n      eq\n      tag_3\n      jumpi\n      dup1\n      0x45b06e4f\n      eq\n      tag_4\n      jumpi\n      dup1\n      0x508bd55a\n      eq\n      tag_5\n      jumpi\n      dup1\n      0x50c7a912\n      eq\n      tag_6\n      jumpi\n      dup1\n      0xac48ab0c\n      eq\n      tag_7\n      jumpi\n    tag_2:\n      0x00\n      dup1\n      revert\n        /* \"contracts/Patient2.sol\":1273:1508  function registerPatient(string memory _name, uint256 _age) public {... */\n    tag_3:\n      tag_15\n      0x04\n      dup1\n      calldatasize\n      sub\n      dup2\n      add\n      swap1\n      tag_16\n      swap2\n      swap1\n      tag_17\n      jump\t// in\n    tag_16:\n      tag_18\n      jump\t// in\n    tag_15:\n      stop\n        /* \"contracts/Patient2.sol\":1743:1980  function addMedicine(string memory _name, uint256 _expiryDate, string memory _dose, uint256 _price) public {... */\n    tag_4:\n      tag_19\n      0x04\n      dup1\n      calldatasize\n      sub\n      dup2\n      add\n      swap1\n      tag_20\n      swap2\n      swap1\n      tag_21\n      jump\t// in\n    tag_20:\n      tag_22\n      jump\t// in\n    tag_19:\n      stop\n        /* \"contracts/Patient2.sol\":3085:3355  function viewPatientDataByDoctor(uint256 _id) public view returns (uint256 id, uint256 age, string memory name, string[] memory disease) {... */\n    tag_5:\n      tag_23\n      0x04\n      dup1\n      calldatasize\n      sub\n      dup2\n      add\n      swap1\n      tag_24\n      swap2\n      swap1\n      tag_25\n      jump\t// in\n    tag_24:\n      tag_26\n      jump\t// in\n    tag_23:\n      mload(0x40)\n      tag_27\n      swap5\n      swap4\n      swap3\n      swap2\n      swap1\n      tag_28\n      jump\t// in\n    tag_27:\n      mload(0x40)\n      dup1\n      swap2\n      sub\n      swap1\n      return\n        /* \"contracts/Patient2.sol\":960:1234  function registerDoctor(string memory _name, string memory _qualification, string memory _workPlace) public {... */\n    tag_6:\n      tag_29\n      0x04\n      dup1\n      calldatasize\n      sub\n      dup2\n      add\n      swap1\n      tag_30\n      swap2\n      swap1\n      tag_31\n      jump\t// in\n    tag_30:\n      tag_32\n      jump\t// in\n    tag_29:\n      stop\n        /* \"contracts/Patient2.sol\":2432:2742  function viewPatientData() public view returns (uint256 id, uint256 age, string memory name, string[] memory disease) {... */\n    tag_7:\n      tag_33\n      tag_34\n      jump\t// in\n    tag_33:\n      mload(0x40)\n      tag_35\n      swap5\n      swap4\n      swap3\n      swap2\n      swap1\n      tag_28\n      jump\t// in\n    tag_35:\n      mload(0x40)\n      dup1\n      swap2\n      sub\n      swap1\n      return\n        /* \"contracts/Patient2.sol\":2780:3039  function viewMedicineDetails(uint256 _id) public view returns (string memory name, uint256 expiryDate, string memory dose, uint256 price) {... */\n    tag_8:\n      tag_36\n      0x04\n      dup1\n      calldatasize\n      sub\n      dup2\n      add\n      swap1\n      tag_37\n      swap2\n      swap1\n      tag_25\n      jump\t// in\n    tag_37:\n      tag_38\n      jump\t// in\n    tag_36:\n      mload(0x40)\n      tag_39\n      swap5\n      swap4\n      swap3\n      swap2\n      swap1\n      tag_40\n      jump\t// in\n    tag_39:\n      mload(0x40)\n      dup1\n      swap2\n      sub\n      swap1\n      return\n        /* \"contracts/Patient2.sol\":3412:3558  function viewPrescribedMedicines(address _patient) public view returns (uint256[] memory ids) {... */\n    tag_9:\n      tag_41\n      0x04\n      dup1\n      calldatasize\n      sub\n      dup2\n      add\n      swap1\n      tag_42\n      swap2\n      swap1\n      tag_43\n      jump\t// in\n    tag_42:\n      tag_44\n      jump\t// in\n    tag_41:\n      mload(0x40)\n      tag_45\n      swap2\n      swap1\n      tag_46\n      jump\t// in\n    tag_45:\n      mload(0x40)\n      dup1\n      swap2\n      sub\n      swap1\n      return\n        /* \"contracts/Patient2.sol\":1548:1714  function addDisease(string memory _disease) public {... */\n    tag_10:\n      tag_47\n      0x04\n      dup1\n      calldatasize\n      sub\n      dup2\n      add\n      swap1\n      tag_48\n      swap2\n      swap1\n      tag_49\n      jump\t// in\n    tag_48:\n      tag_50\n      jump\t// in\n    tag_47:\n      stop\n        /* \"contracts/Patient2.sol\":3594:3857  function viewDoctorDetails(uint256 _id) public view returns (uint256 id, string memory name, string memory qualification, string memory add) {... */\n    tag_11:\n      tag_51\n      0x04\n      dup1\n      calldatasize\n      sub\n      dup2\n      add\n      swap1\n      tag_52\n      swap2\n      swap1\n      tag_25\n      jump\t// in\n    tag_52:\n      tag_53\n      jump\t// in\n    tag_51:\n      mload(0x40)\n      tag_54\n      swap5\n      swap4\n      swap3\n      swap2\n      swap1\n      tag_55\n      jump\t// in\n    tag_54:\n      mload(0x40)\n      dup1\n      swap2\n      sub\n      swap1\n      return\n        /* \"contracts/Patient2.sol\":2028:2199  function prescribeMedicine(uint256 _id, address _patient) public {... */\n    tag_12:\n      tag_56\n      0x04\n      dup1\n      calldatasize\n      sub\n      dup2\n      add\n      swap1\n      tag_57\n      swap2\n      swap1\n      tag_58\n      jump\t// in\n    tag_57:\n      tag_59\n      jump\t// in\n    tag_56:\n      stop\n        /* \"contracts/Patient2.sol\":2249:2398  function updatePatientAge(uint256 _age) public {... */\n    tag_13:\n      tag_60\n      0x04\n      dup1\n      calldatasize\n      sub\n      dup2\n      add\n      swap1\n      tag_61\n      swap2\n      swap1\n      tag_25\n      jump\t// in\n    tag_61:\n      tag_62\n      jump\t// in\n    tag_60:\n      stop\n        /* \"contracts/Patient2.sol\":1273:1508  function registerPatient(string memory _name, uint256 _age) public {... */\n    tag_18:\n        /* \"contracts/Patient2.sol\":1351:1363  patientCount */\n      0x01\n      0x00\n        /* \"contracts/Patient2.sol\":1351:1365  patientCount++ */\n      dup2\n      sload\n      dup1\n      swap3\n      swap2\n      swap1\n      tag_64\n      swap1\n      tag_65\n      jump\t// in\n    tag_64:\n      swap2\n      swap1\n      pop\n      sstore\n      pop\n        /* \"contracts/Patient2.sol\":1401:1452  Patient(patientCount, _name, _age, new string[](0)) */\n      mload(0x40)\n      dup1\n      0x80\n      add\n      0x40\n      mstore\n      dup1\n        /* \"contracts/Patient2.sol\":1409:1421  patientCount */\n      sload(0x01)\n        /* \"contracts/Patient2.sol\":1401:1452  Patient(patientCount, _name, _age, new string[](0)) */\n      dup2\n      mstore\n      0x20\n      add\n        /* \"contracts/Patient2.sol\":1423:1428  _name */\n      dup4\n        /* \"contracts/Patient2.sol\":1401:1452  Patient(patientCount, _name, _age, new string[](0)) */\n      dup2\n      mstore\n      0x20\n      add\n        /* \"contracts/Patient2.sol\":1430:1434  _age */\n      dup3\n        /* \"contracts/Patient2.sol\":1401:1452  Patient(patientCount, _name, _age, new string[](0)) */\n      dup2\n      mstore\n      0x20\n      add\n        /* \"contracts/Patient2.sol\":1449:1450  0 */\n      0x00\n        /* \"contracts/Patient2.sol\":1436:1451  new string[](0) */\n      0xffffffffffffffff\n      dup2\n      gt\n      iszero\n      tag_66\n      jumpi\n      tag_67\n      tag_68\n      jump\t// in\n    tag_67:\n    tag_66:\n      mload(0x40)\n      swap1\n      dup1\n      dup3\n      mstore\n      dup1\n      0x20\n      mul\n      0x20\n      add\n      dup3\n      add\n      0x40\n      mstore\n      dup1\n      iszero\n      tag_69\n      jumpi\n      dup2\n      0x20\n      add\n    tag_70:\n      0x60\n      dup2\n      mstore\n      0x20\n      add\n      swap1\n      0x01\n      swap1\n      sub\n      swap1\n      dup2\n      tag_70\n      jumpi\n      swap1\n      pop\n    tag_69:\n      pop\n        /* \"contracts/Patient2.sol\":1401:1452  Patient(patientCount, _name, _age, new string[](0)) */\n      dup2\n      mstore\n      pop\n        /* \"contracts/Patient2.sol\":1376:1384  patients */\n      0x05\n        /* \"contracts/Patient2.sol\":1376:1398  patients[patientCount] */\n      0x00\n        /* \"contracts/Patient2.sol\":1385:1397  patientCount */\n      sload(0x01)\n        /* \"contracts/Patient2.sol\":1376:1398  patients[patientCount] */\n      dup2\n      mstore\n      0x20\n      add\n      swap1\n      dup2\n      mstore\n      0x20\n      add\n      0x00\n      keccak256\n        /* \"contracts/Patient2.sol\":1376:1452  patients[patientCount] = Patient(patientCount, _name, _age, new string[](0)) */\n      0x00\n      dup3\n      add\n      mload\n      dup2\n      0x00\n      add\n      sstore\n      0x20\n      dup3\n      add\n      mload\n      dup2\n      0x01\n      add\n      swap1\n      dup2\n      tag_71\n      swap2\n      swap1\n      tag_72\n      jump\t// in\n    tag_71:\n      pop\n      0x40\n      dup3\n      add\n      mload\n      dup2\n      0x02\n      add\n      sstore\n      0x60\n      dup3\n      add\n      mload\n      dup2\n      0x03\n      add\n      swap1\n      dup1\n      mload\n      swap1\n      0x20\n      add\n      swap1\n      tag_73\n      swap3\n      swap2\n      swap1\n      tag_74\n      jump\t// in\n    tag_73:\n      pop\n      swap1\n      pop\n      pop\n        /* \"contracts/Patient2.sol\":1488:1500  patientCount */\n      sload(0x01)\n        /* \"contracts/Patient2.sol\":1463:1473  patientIds */\n      0x06\n        /* \"contracts/Patient2.sol\":1463:1485  patientIds[msg.sender] */\n      0x00\n        /* \"contracts/Patient2.sol\":1474:1484  msg.sender */\n      caller\n        /* \"contracts/Patient2.sol\":1463:1485  patientIds[msg.sender] */\n      0xffffffffffffffffffffffffffffffffffffffff\n      and\n      0xffffffffffffffffffffffffffffffffffffffff\n      and\n      dup2\n      mstore\n      0x20\n      add\n      swap1\n      dup2\n      mstore\n      0x20\n      add\n      0x00\n      keccak256\n        /* \"contracts/Patient2.sol\":1463:1500  patientIds[msg.sender] = patientCount */\n      dup2\n      swap1\n      sstore\n      pop\n        /* \"contracts/Patient2.sol\":1273:1508  function registerPatient(string memory _name, uint256 _age) public {... */\n      pop\n      pop\n      jump\t// out\n        /* \"contracts/Patient2.sol\":1743:1980  function addMedicine(string memory _name, uint256 _expiryDate, string memory _dose, uint256 _price) public {... */\n    tag_22:\n        /* \"contracts/Patient2.sol\":1861:1874  medicineCount */\n      0x02\n      0x00\n        /* \"contracts/Patient2.sol\":1861:1876  medicineCount++ */\n      dup2\n      sload\n      dup1\n      swap3\n      swap2\n      swap1\n      tag_76\n      swap1\n      tag_65\n      jump\t// in\n    tag_76:\n      swap2\n      swap1\n      pop\n      sstore\n      pop\n        /* \"contracts/Patient2.sol\":1914:1972  Medicine(medicineCount, _name, _expiryDate, _dose, _price) */\n      mload(0x40)\n      dup1\n      0xa0\n      add\n      0x40\n      mstore\n      dup1\n        /* \"contracts/Patient2.sol\":1923:1936  medicineCount */\n      sload(0x02)\n        /* \"contracts/Patient2.sol\":1914:1972  Medicine(medicineCount, _name, _expiryDate, _dose, _price) */\n      dup2\n      mstore\n      0x20\n      add\n        /* \"contracts/Patient2.sol\":1938:1943  _name */\n      dup6\n        /* \"contracts/Patient2.sol\":1914:1972  Medicine(medicineCount, _name, _expiryDate, _dose, _price) */\n      dup2\n      mstore\n      0x20\n      add\n        /* \"contracts/Patient2.sol\":1945:1956  _expiryDate */\n      dup5\n        /* \"contracts/Patient2.sol\":1914:1972  Medicine(medicineCount, _name, _expiryDate, _dose, _price) */\n      dup2\n      mstore\n      0x20\n      add\n        /* \"contracts/Patient2.sol\":1958:1963  _dose */\n      dup4\n        /* \"contracts/Patient2.sol\":1914:1972  Medicine(medicineCount, _name, _expiryDate, _dose, _price) */\n      dup2\n      mstore\n      0x20\n      add\n        /* \"contracts/Patient2.sol\":1965:1971  _price */\n      dup3\n        /* \"contracts/Patient2.sol\":1914:1972  Medicine(medicineCount, _name, _expiryDate, _dose, _price) */\n      dup2\n      mstore\n      pop\n        /* \"contracts/Patient2.sol\":1887:1896  medicines */\n      0x07\n        /* \"contracts/Patient2.sol\":1887:1911  medicines[medicineCount] */\n      0x00\n        /* \"contracts/Patient2.sol\":1897:1910  medicineCount */\n      sload(0x02)\n        /* \"contracts/Patient2.sol\":1887:1911  medicines[medicineCount] */\n      dup2\n      mstore\n      0x20\n      add\n      swap1\n      dup2\n      mstore\n      0x20\n      add\n      0x00\n      keccak256\n        /* \"contracts/Patient2.sol\":1887:1972  medicines[medicineCount] = Medicine(medicineCount, _name, _expiryDate, _dose, _price) */\n      0x00\n      dup3\n      add\n      mload\n      dup2\n      0x00\n      add\n      sstore\n      0x20\n      dup3\n      add\n      mload\n      dup2\n      0x01\n      add\n      swap1\n      dup2\n      tag_77\n      swap2\n      swap1\n      tag_72\n      jump\t// in\n    tag_77:\n      pop\n      0x40\n      dup3\n      add\n      mload\n      dup2\n      0x02\n      add\n      sstore\n      0x60\n      dup3\n      add\n      mload\n      dup2\n      0x03\n      add\n      swap1\n      dup2\n      tag_78\n      swap2\n      swap1\n      tag_72\n      jump\t// in\n    tag_78:\n      pop\n      0x80\n      dup3\n      add\n      mload\n      dup2\n      0x04\n      add\n      sstore\n      swap1\n      pop\n      pop\n        /* \"contracts/Patient2.sol\":1743:1980  function addMedicine(string memory _name, uint256 _expiryDate, string memory _dose, uint256 _price) public {... */\n      pop\n      pop\n      pop\n      pop\n      jump\t// out\n        /* \"contracts/Patient2.sol\":3085:3355  function viewPatientDataByDoctor(uint256 _id) public view returns (uint256 id, uint256 age, string memory name, string[] memory disease) {... */\n    tag_26:\n        /* \"contracts/Patient2.sol\":3152:3162  uint256 id */\n      0x00\n        /* \"contracts/Patient2.sol\":3164:3175  uint256 age */\n      dup1\n        /* \"contracts/Patient2.sol\":3177:3195  string memory name */\n      0x60\n        /* \"contracts/Patient2.sol\":3197:3220  string[] memory disease */\n      dup1\n        /* \"contracts/Patient2.sol\":3233:3256  Patient storage patient */\n      0x00\n        /* \"contracts/Patient2.sol\":3259:3267  patients */\n      0x05\n        /* \"contracts/Patient2.sol\":3259:3272  patients[_id] */\n      0x00\n        /* \"contracts/Patient2.sol\":3268:3271  _id */\n      dup8\n        /* \"contracts/Patient2.sol\":3259:3272  patients[_id] */\n      dup2\n      mstore\n      0x20\n      add\n      swap1\n      dup2\n      mstore\n      0x20\n      add\n      0x00\n      keccak256\n        /* \"contracts/Patient2.sol\":3233:3272  Patient storage patient = patients[_id] */\n      swap1\n      pop\n        /* \"contracts/Patient2.sol\":3291:3298  patient */\n      dup1\n        /* \"contracts/Patient2.sol\":3291:3301  patient.id */\n      0x00\n      add\n      sload\n        /* \"contracts/Patient2.sol\":3303:3310  patient */\n      dup2\n        /* \"contracts/Patient2.sol\":3303:3314  patient.age */\n      0x02\n      add\n      sload\n        /* \"contracts/Patient2.sol\":3316:3323  patient */\n      dup3\n        /* \"contracts/Patient2.sol\":3316:3328  patient.name */\n      0x01\n      add\n        /* \"contracts/Patient2.sol\":3330:3337  patient */\n      dup4\n        /* \"contracts/Patient2.sol\":3330:3346  patient.diseases */\n      0x03\n      add\n        /* \"contracts/Patient2.sol\":3283:3347  return (patient.id, patient.age, patient.name, patient.diseases) */\n      dup2\n      dup1\n      sload\n      tag_80\n      swap1\n      tag_81\n      jump\t// in\n    tag_80:\n      dup1\n      0x1f\n      add\n      0x20\n      dup1\n      swap2\n      div\n      mul\n      0x20\n      add\n      mload(0x40)\n      swap1\n      dup2\n      add\n      0x40\n      mstore\n      dup1\n      swap3\n      swap2\n      swap1\n      dup2\n      dup2\n      mstore\n      0x20\n      add\n      dup3\n      dup1\n      sload\n      tag_82\n      swap1\n      tag_81\n      jump\t// in\n    tag_82:\n      dup1\n      iszero\n      tag_83\n      jumpi\n      dup1\n      0x1f\n      lt\n      tag_84\n      jumpi\n      0x0100\n      dup1\n      dup4\n      sload\n      div\n      mul\n      dup4\n      mstore\n      swap2\n      0x20\n      add\n      swap2\n      jump(tag_83)\n    tag_84:\n      dup3\n      add\n      swap2\n      swap1\n      0x00\n      mstore\n      keccak256(0x00, 0x20)\n      swap1\n    tag_85:\n      dup2\n      sload\n      dup2\n      mstore\n      swap1\n      0x01\n      add\n      swap1\n      0x20\n      add\n      dup1\n      dup4\n      gt\n      tag_85\n      jumpi\n      dup3\n      swap1\n      sub\n      0x1f\n      and\n      dup3\n      add\n      swap2\n    tag_83:\n      pop\n      pop\n      pop\n      pop\n      pop\n      swap2\n      pop\n      dup1\n      dup1\n      sload\n      dup1\n      0x20\n      mul\n      0x20\n      add\n      mload(0x40)\n      swap1\n      dup2\n      add\n      0x40\n      mstore\n      dup1\n      swap3\n      swap2\n      swap1\n      dup2\n      dup2\n      mstore\n      0x20\n      add\n      0x00\n      swap1\n    tag_86:\n      dup3\n      dup3\n      lt\n      iszero\n      tag_87\n      jumpi\n      dup4\n      dup3\n      swap1\n      0x00\n      mstore\n      keccak256(0x00, 0x20)\n      add\n      dup1\n      sload\n      tag_89\n      swap1\n      tag_81\n      jump\t// in\n    tag_89:\n      dup1\n      0x1f\n      add\n      0x20\n      dup1\n      swap2\n      div\n      mul\n      0x20\n      add\n      mload(0x40)\n      swap1\n      dup2\n      add\n      0x40\n      mstore\n      dup1\n      swap3\n      swap2\n      swap1\n      dup2\n      dup2\n      mstore\n      0x20\n      add\n      dup3\n      dup1\n      sload\n      tag_90\n      swap1\n      tag_81\n      jump\t// in\n    tag_90:\n      dup1\n      iszero\n      tag_91\n      jumpi\n      dup1\n      0x1f\n      lt\n      tag_92\n      jumpi\n      0x0100\n      dup1\n      dup4\n      sload\n      div\n      mul\n      dup4\n      mstore\n      swap2\n      0x20\n      add\n      swap2\n      jump(tag_91)\n    tag_92:\n      dup3\n      add\n      swap2\n      swap1\n      0x00\n      mstore\n      keccak256(0x00, 0x20)\n      swap1\n    tag_93:\n      dup2\n      sload\n      dup2\n      mstore\n      swap1\n      0x01\n      add\n      swap1\n      0x20\n      add\n      dup1\n      dup4\n      gt\n      tag_93\n      jumpi\n      dup3\n      swap1\n      sub\n      0x1f\n      and\n      dup3\n      add\n      swap2\n    tag_91:\n      pop\n      pop\n      pop\n      pop\n      pop\n      dup2\n      mstore\n      0x20\n      add\n      swap1\n      0x01\n      add\n      swap1\n      jump(tag_86)\n    tag_87:\n      pop\n      pop\n      pop\n      pop\n      swap1\n      pop\n      swap5\n      pop\n      swap5\n      pop\n      swap5\n      pop\n      swap5\n      pop\n      pop\n        /* \"contracts/Patient2.sol\":3085:3355  function viewPatientDataByDoctor(uint256 _id) public view returns (uint256 id, uint256 age, string memory name, string[] memory disease) {... */\n      swap2\n      swap4\n      pop\n      swap2\n      swap4\n      jump\t// out\n        /* \"contracts/Patient2.sol\":960:1234  function registerDoctor(string memory _name, string memory _qualification, string memory _workPlace) public {... */\n    tag_32:\n        /* \"contracts/Patient2.sol\":1079:1090  doctorCount */\n      0x00\n      dup1\n        /* \"contracts/Patient2.sol\":1079:1092  doctorCount++ */\n      dup2\n      sload\n      dup1\n      swap3\n      swap2\n      swap1\n      tag_95\n      swap1\n      tag_65\n      jump\t// in\n    tag_95:\n      swap2\n      swap1\n      pop\n      sstore\n      pop\n        /* \"contracts/Patient2.sol\":1126:1180  Doctor(doctorCount, _name, _qualification, _workPlace) */\n      mload(0x40)\n      dup1\n      0x80\n      add\n      0x40\n      mstore\n      dup1\n        /* \"contracts/Patient2.sol\":1133:1144  doctorCount */\n      sload(0x00)\n        /* \"contracts/Patient2.sol\":1126:1180  Doctor(doctorCount, _name, _qualification, _workPlace) */\n      dup2\n      mstore\n      0x20\n      add\n        /* \"contracts/Patient2.sol\":1146:1151  _name */\n      dup5\n        /* \"contracts/Patient2.sol\":1126:1180  Doctor(doctorCount, _name, _qualification, _workPlace) */\n      dup2\n      mstore\n      0x20\n      add\n        /* \"contracts/Patient2.sol\":1153:1167  _qualification */\n      dup4\n        /* \"contracts/Patient2.sol\":1126:1180  Doctor(doctorCount, _name, _qualification, _workPlace) */\n      dup2\n      mstore\n      0x20\n      add\n        /* \"contracts/Patient2.sol\":1169:1179  _workPlace */\n      dup3\n        /* \"contracts/Patient2.sol\":1126:1180  Doctor(doctorCount, _name, _qualification, _workPlace) */\n      dup2\n      mstore\n      pop\n        /* \"contracts/Patient2.sol\":1103:1110  doctors */\n      0x03\n        /* \"contracts/Patient2.sol\":1103:1123  doctors[doctorCount] */\n      0x00\n        /* \"contracts/Patient2.sol\":1111:1122  doctorCount */\n      dup1\n      sload\n        /* \"contracts/Patient2.sol\":1103:1123  doctors[doctorCount] */\n      dup2\n      mstore\n      0x20\n      add\n      swap1\n      dup2\n      mstore\n      0x20\n      add\n      0x00\n      keccak256\n        /* \"contracts/Patient2.sol\":1103:1180  doctors[doctorCount] = Doctor(doctorCount, _name, _qualification, _workPlace) */\n      0x00\n      dup3\n      add\n      mload\n      dup2\n      0x00\n      add\n      sstore\n      0x20\n      dup3\n      add\n      mload\n      dup2\n      0x01\n      add\n      swap1\n      dup2\n      tag_96\n      swap2\n      swap1\n      tag_72\n      jump\t// in\n    tag_96:\n      pop\n      0x40\n      dup3\n      add\n      mload\n      dup2\n      0x02\n      add\n      swap1\n      dup2\n      tag_97\n      swap2\n      swap1\n      tag_72\n      jump\t// in\n    tag_97:\n      pop\n      0x60\n      dup3\n      add\n      mload\n      dup2\n      0x03\n      add\n      swap1\n      dup2\n      tag_98\n      swap2\n      swap1\n      tag_72\n      jump\t// in\n    tag_98:\n      pop\n      swap1\n      pop\n      pop\n        /* \"contracts/Patient2.sol\":1215:1226  doctorCount */\n      sload(0x00)\n        /* \"contracts/Patient2.sol\":1191:1200  doctorIds */\n      0x04\n        /* \"contracts/Patient2.sol\":1191:1212  doctorIds[msg.sender] */\n      0x00\n        /* \"contracts/Patient2.sol\":1201:1211  msg.sender */\n      caller\n        /* \"contracts/Patient2.sol\":1191:1212  doctorIds[msg.sender] */\n      0xffffffffffffffffffffffffffffffffffffffff\n      and\n      0xffffffffffffffffffffffffffffffffffffffff\n      and\n      dup2\n      mstore\n      0x20\n      add\n      swap1\n      dup2\n      mstore\n      0x20\n      add\n      0x00\n      keccak256\n        /* \"contracts/Patient2.sol\":1191:1226  doctorIds[msg.sender] = doctorCount */\n      dup2\n      swap1\n      sstore\n      pop\n        /* \"contracts/Patient2.sol\":960:1234  function registerDoctor(string memory _name, string memory _qualification, string memory _workPlace) public {... */\n      pop\n      pop\n      pop\n      jump\t// out\n        /* \"contracts/Patient2.sol\":2432:2742  function viewPatientData() public view returns (uint256 id, uint256 age, string memory name, string[] memory disease) {... */\n    tag_34:\n        /* \"contracts/Patient2.sol\":2480:2490  uint256 id */\n      0x00\n        /* \"contracts/Patient2.sol\":2492:2503  uint256 age */\n      dup1\n        /* \"contracts/Patient2.sol\":2505:2523  string memory name */\n      0x60\n        /* \"contracts/Patient2.sol\":2525:2548  string[] memory disease */\n      dup1\n        /* \"contracts/Patient2.sol\":2561:2578  uint256 patientId */\n      0x00\n        /* \"contracts/Patient2.sol\":2581:2591  patientIds */\n      0x06\n        /* \"contracts/Patient2.sol\":2581:2603  patientIds[msg.sender] */\n      0x00\n        /* \"contracts/Patient2.sol\":2592:2602  msg.sender */\n      caller\n        /* \"contracts/Patient2.sol\":2581:2603  patientIds[msg.sender] */\n      0xffffffffffffffffffffffffffffffffffffffff\n      and\n      0xffffffffffffffffffffffffffffffffffffffff\n      and\n      dup2\n      mstore\n      0x20\n      add\n      swap1\n      dup2\n      mstore\n      0x20\n      add\n      0x00\n      keccak256\n      sload\n        /* \"contracts/Patient2.sol\":2561:2603  uint256 patientId = patientIds[msg.sender] */\n      swap1\n      pop\n        /* \"contracts/Patient2.sol\":2614:2637  Patient storage patient */\n      0x00\n        /* \"contracts/Patient2.sol\":2640:2648  patients */\n      0x05\n        /* \"contracts/Patient2.sol\":2640:2659  patients[patientId] */\n      0x00\n        /* \"contracts/Patient2.sol\":2649:2658  patientId */\n      dup4\n        /* \"contracts/Patient2.sol\":2640:2659  patients[patientId] */\n      dup2\n      mstore\n      0x20\n      add\n      swap1\n      dup2\n      mstore\n      0x20\n      add\n      0x00\n      keccak256\n        /* \"contracts/Patient2.sol\":2614:2659  Patient storage patient = patients[patientId] */\n      swap1\n      pop\n        /* \"contracts/Patient2.sol\":2678:2685  patient */\n      dup1\n        /* \"contracts/Patient2.sol\":2678:2688  patient.id */\n      0x00\n      add\n      sload\n        /* \"contracts/Patient2.sol\":2690:2697  patient */\n      dup2\n        /* \"contracts/Patient2.sol\":2690:2701  patient.age */\n      0x02\n      add\n      sload\n        /* \"contracts/Patient2.sol\":2703:2710  patient */\n      dup3\n        /* \"contracts/Patient2.sol\":2703:2715  patient.name */\n      0x01\n      add\n        /* \"contracts/Patient2.sol\":2717:2724  patient */\n      dup4\n        /* \"contracts/Patient2.sol\":2717:2733  patient.diseases */\n      0x03\n      add\n        /* \"contracts/Patient2.sol\":2670:2734  return (patient.id, patient.age, patient.name, patient.diseases) */\n      dup2\n      dup1\n      sload\n      tag_100\n      swap1\n      tag_81\n      jump\t// in\n    tag_100:\n      dup1\n      0x1f\n      add\n      0x20\n      dup1\n      swap2\n      div\n      mul\n      0x20\n      add\n      mload(0x40)\n      swap1\n      dup2\n      add\n      0x40\n      mstore\n      dup1\n      swap3\n      swap2\n      swap1\n      dup2\n      dup2\n      mstore\n      0x20\n      add\n      dup3\n      dup1\n      sload\n      tag_101\n      swap1\n      tag_81\n      jump\t// in\n    tag_101:\n      dup1\n      iszero\n      tag_102\n      jumpi\n      dup1\n      0x1f\n      lt\n      tag_103\n      jumpi\n      0x0100\n      dup1\n      dup4\n      sload\n      div\n      mul\n      dup4\n      mstore\n      swap2\n      0x20\n      add\n      swap2\n      jump(tag_102)\n    tag_103:\n      dup3\n      add\n      swap2\n      swap1\n      0x00\n      mstore\n      keccak256(0x00, 0x20)\n      swap1\n    tag_104:\n      dup2\n      sload\n      dup2\n      mstore\n      swap1\n      0x01\n      add\n      swap1\n      0x20\n      add\n      dup1\n      dup4\n      gt\n      tag_104\n      jumpi\n      dup3\n      swap1\n      sub\n      0x1f\n      and\n      dup3\n      add\n      swap2\n    tag_102:\n      pop\n      pop\n      pop\n      pop\n      pop\n      swap2\n      pop\n      dup1\n      dup1\n      sload\n      dup1\n      0x20\n      mul\n      0x20\n      add\n      mload(0x40)\n      swap1\n      dup2\n      add\n      0x40\n      mstore\n      dup1\n      swap3\n      swap2\n      swap1\n      dup2\n      dup2\n      mstore\n      0x20\n      add\n      0x00\n      swap1\n    tag_105:\n      dup3\n      dup3\n      lt\n      iszero\n      tag_106\n      jumpi\n      dup4\n      dup3\n      swap1\n      0x00\n      mstore\n      keccak256(0x00, 0x20)\n      add\n      dup1\n      sload\n      tag_108\n      swap1\n      tag_81\n      jump\t// in\n    tag_108:\n      dup1\n      0x1f\n      add\n      0x20\n      dup1\n      swap2\n      div\n      mul\n      0x20\n      add\n      mload(0x40)\n      swap1\n      dup2\n      add\n      0x40\n      mstore\n      dup1\n      swap3\n      swap2\n      swap1\n      dup2\n      dup2\n      mstore\n      0x20\n      add\n      dup3\n      dup1\n      sload\n      tag_109\n      swap1\n      tag_81\n      jump\t// in\n    tag_109:\n      dup1\n      iszero\n      tag_110\n      jumpi\n      dup1\n      0x1f\n      lt\n      tag_111\n      jumpi\n      0x0100\n      dup1\n      dup4\n      sload\n      div\n      mul\n      dup4\n      mstore\n      swap2\n      0x20\n      add\n      swap2\n      jump(tag_110)\n    tag_111:\n      dup3\n      add\n      swap2\n      swap1\n      0x00\n      mstore\n      keccak256(0x00, 0x20)\n      swap1\n    tag_112:\n      dup2\n      sload\n      dup2\n      mstore\n      swap1\n      0x01\n      add\n      swap1\n      0x20\n      add\n      dup1\n      dup4\n      gt\n      tag_112\n      jumpi\n      dup3\n      swap1\n      sub\n      0x1f\n      and\n      dup3\n      add\n      swap2\n    tag_110:\n      pop\n      pop\n      pop\n      pop\n      pop\n      dup2\n      mstore\n      0x20\n      add\n      swap1\n      0x01\n      add\n      swap1\n      jump(tag_105)\n    tag_106:\n      pop\n      pop\n      pop\n      pop\n      swap1\n      pop\n      swap6\n      pop\n      swap6\n      pop\n      swap6\n      pop\n      swap6\n      pop\n      pop\n      pop\n        /* \"contracts/Patient2.sol\":2432:2742  function viewPatientData() public view returns (uint256 id, uint256 age, string memory name, string[] memory disease) {... */\n      swap1\n      swap2\n      swap3\n      swap4\n      jump\t// out\n        /* \"contracts/Patient2.sol\":2780:3039  function viewMedicineDetails(uint256 _id) public view returns (string memory name, uint256 expiryDate, string memory dose, uint256 price) {... */\n    tag_38:\n        /* \"contracts/Patient2.sol\":2843:2861  string memory name */\n      0x60\n        /* \"contracts/Patient2.sol\":2863:2881  uint256 expiryDate */\n      0x00\n        /* \"contracts/Patient2.sol\":2883:2901  string memory dose */\n      0x60\n        /* \"contracts/Patient2.sol\":2903:2916  uint256 price */\n      0x00\n        /* \"contracts/Patient2.sol\":2929:2949  Medicine storage med */\n      dup1\n        /* \"contracts/Patient2.sol\":2952:2961  medicines */\n      0x07\n        /* \"contracts/Patient2.sol\":2952:2966  medicines[_id] */\n      0x00\n        /* \"contracts/Patient2.sol\":2962:2965  _id */\n      dup8\n        /* \"contracts/Patient2.sol\":2952:2966  medicines[_id] */\n      dup2\n      mstore\n      0x20\n      add\n      swap1\n      dup2\n      mstore\n      0x20\n      add\n      0x00\n      keccak256\n        /* \"contracts/Patient2.sol\":2929:2966  Medicine storage med = medicines[_id] */\n      swap1\n      pop\n        /* \"contracts/Patient2.sol\":2985:2988  med */\n      dup1\n        /* \"contracts/Patient2.sol\":2985:2993  med.name */\n      0x01\n      add\n        /* \"contracts/Patient2.sol\":2995:2998  med */\n      dup2\n        /* \"contracts/Patient2.sol\":2995:3009  med.expiryDate */\n      0x02\n      add\n      sload\n        /* \"contracts/Patient2.sol\":3011:3014  med */\n      dup3\n        /* \"contracts/Patient2.sol\":3011:3019  med.dose */\n      0x03\n      add\n        /* \"contracts/Patient2.sol\":3021:3024  med */\n      dup4\n        /* \"contracts/Patient2.sol\":3021:3030  med.price */\n      0x04\n      add\n      sload\n        /* \"contracts/Patient2.sol\":2977:3031  return (med.name, med.expiryDate, med.dose, med.price) */\n      dup4\n      dup1\n      sload\n      tag_114\n      swap1\n      tag_81\n      jump\t// in\n    tag_114:\n      dup1\n      0x1f\n      add\n      0x20\n      dup1\n      swap2\n      div\n      mul\n      0x20\n      add\n      mload(0x40)\n      swap1\n      dup2\n      add\n      0x40\n      mstore\n      dup1\n      swap3\n      swap2\n      swap1\n      dup2\n      dup2\n      mstore\n      0x20\n      add\n      dup3\n      dup1\n      sload\n      tag_115\n      swap1\n      tag_81\n      jump\t// in\n    tag_115:\n      dup1\n      iszero\n      tag_116\n      jumpi\n      dup1\n      0x1f\n      lt\n      tag_117\n      jumpi\n      0x0100\n      dup1\n      dup4\n      sload\n      div\n      mul\n      dup4\n      mstore\n      swap2\n      0x20\n      add\n      swap2\n      jump(tag_116)\n    tag_117:\n      dup3\n      add\n      swap2\n      swap1\n      0x00\n      mstore\n      keccak256(0x00, 0x20)\n      swap1\n    tag_118:\n      dup2\n      sload\n      dup2\n      mstore\n      swap1\n      0x01\n      add\n      swap1\n      0x20\n      add\n      dup1\n      dup4\n      gt\n      tag_118\n      jumpi\n      dup3\n      swap1\n      sub\n      0x1f\n      and\n      dup3\n      add\n      swap2\n    tag_116:\n      pop\n      pop\n      pop\n      pop\n      pop\n      swap4\n      pop\n      dup2\n      dup1\n      sload\n      tag_119\n      swap1\n      tag_81\n      jump\t// in\n    tag_119:\n      dup1\n      0x1f\n      add\n      0x20\n      dup1\n      swap2\n      div\n      mul\n      0x20\n      add\n      mload(0x40)\n      swap1\n      dup2\n      add\n      0x40\n      mstore\n      dup1\n      swap3\n      swap2\n      swap1\n      dup2\n      dup2\n      mstore\n      0x20\n      add\n      dup3\n      dup1\n      sload\n      tag_120\n      swap1\n      tag_81\n      jump\t// in\n    tag_120:\n      dup1\n      iszero\n      tag_121\n      jumpi\n      dup1\n      0x1f\n      lt\n      tag_122\n      jumpi\n      0x0100\n      dup1\n      dup4\n      sload\n      div\n      mul\n      dup4\n      mstore\n      swap2\n      0x20\n      add\n      swap2\n      jump(tag_121)\n    tag_122:\n      dup3\n      add\n      swap2\n      swap1\n      0x00\n      mstore\n      keccak256(0x00, 0x20)\n      swap1\n    tag_123:\n      dup2\n      sload\n      dup2\n      mstore\n      swap1\n      0x01\n      add\n      swap1\n      0x20\n      add\n      dup1\n      dup4\n      gt\n      tag_123\n      jumpi\n      dup3\n      swap1\n      sub\n      0x1f\n      and\n      dup3\n      add\n      swap2\n    tag_121:\n      pop\n      pop\n      pop\n      pop\n      pop\n      swap2\n      pop\n      swap5\n      pop\n      swap5\n      pop\n      swap5\n      pop\n      swap5\n      pop\n      pop\n        /* \"contracts/Patient2.sol\":2780:3039  function viewMedicineDetails(uint256 _id) public view returns (string memory name, uint256 expiryDate, string memory dose, uint256 price) {... */\n      swap2\n      swap4\n      pop\n      swap2\n      swap4\n      jump\t// out\n        /* \"contracts/Patient2.sol\":3412:3558  function viewPrescribedMedicines(address _patient) public view returns (uint256[] memory ids) {... */\n    tag_44:\n        /* \"contracts/Patient2.sol\":3484:3504  uint256[] memory ids */\n      0x60\n        /* \"contracts/Patient2.sol\":3524:3540  patientMedicines */\n      0x08\n        /* \"contracts/Patient2.sol\":3524:3550  patientMedicines[_patient] */\n      0x00\n        /* \"contracts/Patient2.sol\":3541:3549  _patient */\n      dup4\n        /* \"contracts/Patient2.sol\":3524:3550  patientMedicines[_patient] */\n      0xffffffffffffffffffffffffffffffffffffffff\n      and\n      0xffffffffffffffffffffffffffffffffffffffff\n      and\n      dup2\n      mstore\n      0x20\n      add\n      swap1\n      dup2\n      mstore\n      0x20\n      add\n      0x00\n      keccak256\n        /* \"contracts/Patient2.sol\":3517:3550  return patientMedicines[_patient] */\n      dup1\n      sload\n      dup1\n      0x20\n      mul\n      0x20\n      add\n      mload(0x40)\n      swap1\n      dup2\n      add\n      0x40\n      mstore\n      dup1\n      swap3\n      swap2\n      swap1\n      dup2\n      dup2\n      mstore\n      0x20\n      add\n      dup3\n      dup1\n      sload\n      dup1\n      iszero\n      tag_125\n      jumpi\n      0x20\n      mul\n      dup3\n      add\n      swap2\n      swap1\n      0x00\n      mstore\n      keccak256(0x00, 0x20)\n      swap1\n    tag_126:\n      dup2\n      sload\n      dup2\n      mstore\n      0x20\n      add\n      swap1\n      0x01\n      add\n      swap1\n      dup1\n      dup4\n      gt\n      tag_126\n      jumpi\n    tag_125:\n      pop\n      pop\n      pop\n      pop\n      pop\n      swap1\n      pop\n        /* \"contracts/Patient2.sol\":3412:3558  function viewPrescribedMedicines(address _patient) public view returns (uint256[] memory ids) {... */\n      swap2\n      swap1\n      pop\n      jump\t// out\n        /* \"contracts/Patient2.sol\":1548:1714  function addDisease(string memory _disease) public {... */\n    tag_50:\n        /* \"contracts/Patient2.sol\":1610:1627  uint256 patientId */\n      0x00\n        /* \"contracts/Patient2.sol\":1630:1640  patientIds */\n      0x06\n        /* \"contracts/Patient2.sol\":1630:1652  patientIds[msg.sender] */\n      0x00\n        /* \"contracts/Patient2.sol\":1641:1651  msg.sender */\n      caller\n        /* \"contracts/Patient2.sol\":1630:1652  patientIds[msg.sender] */\n      0xffffffffffffffffffffffffffffffffffffffff\n      and\n      0xffffffffffffffffffffffffffffffffffffffff\n      and\n      dup2\n      mstore\n      0x20\n      add\n      swap1\n      dup2\n      mstore\n      0x20\n      add\n      0x00\n      keccak256\n      sload\n        /* \"contracts/Patient2.sol\":1610:1652  uint256 patientId = patientIds[msg.sender] */\n      swap1\n      pop\n        /* \"contracts/Patient2.sol\":1663:1671  patients */\n      0x05\n        /* \"contracts/Patient2.sol\":1663:1682  patients[patientId] */\n      0x00\n        /* \"contracts/Patient2.sol\":1672:1681  patientId */\n      dup3\n        /* \"contracts/Patient2.sol\":1663:1682  patients[patientId] */\n      dup2\n      mstore\n      0x20\n      add\n      swap1\n      dup2\n      mstore\n      0x20\n      add\n      0x00\n      keccak256\n        /* \"contracts/Patient2.sol\":1663:1691  patients[patientId].diseases */\n      0x03\n      add\n        /* \"contracts/Patient2.sol\":1697:1705  _disease */\n      dup3\n        /* \"contracts/Patient2.sol\":1663:1706  patients[patientId].diseases.push(_disease) */\n      swap1\n      dup1\n      0x01\n      dup2\n      sload\n      add\n      dup1\n      dup3\n      sstore\n      dup1\n      swap2\n      pop\n      pop\n      0x01\n      swap1\n      sub\n      swap1\n      0x00\n      mstore\n      keccak256(0x00, 0x20)\n      add\n      0x00\n      swap1\n      swap2\n      swap1\n      swap2\n      swap1\n      swap2\n      pop\n      swap1\n      dup2\n      tag_129\n      swap2\n      swap1\n      tag_72\n      jump\t// in\n    tag_129:\n      pop\n        /* \"contracts/Patient2.sol\":1599:1714  {... */\n      pop\n        /* \"contracts/Patient2.sol\":1548:1714  function addDisease(string memory _disease) public {... */\n      pop\n      jump\t// out\n        /* \"contracts/Patient2.sol\":3594:3857  function viewDoctorDetails(uint256 _id) public view returns (uint256 id, string memory name, string memory qualification, string memory add) {... */\n    tag_53:\n        /* \"contracts/Patient2.sol\":3655:3665  uint256 id */\n      0x00\n        /* \"contracts/Patient2.sol\":3667:3685  string memory name */\n      0x60\n        /* \"contracts/Patient2.sol\":3687:3714  string memory qualification */\n      dup1\n        /* \"contracts/Patient2.sol\":3716:3733  string memory add */\n      0x60\n        /* \"contracts/Patient2.sol\":3746:3764  Doctor storage doc */\n      0x00\n        /* \"contracts/Patient2.sol\":3767:3774  doctors */\n      0x03\n        /* \"contracts/Patient2.sol\":3767:3779  doctors[_id] */\n      0x00\n        /* \"contracts/Patient2.sol\":3775:3778  _id */\n      dup8\n        /* \"contracts/Patient2.sol\":3767:3779  doctors[_id] */\n      dup2\n      mstore\n      0x20\n      add\n      swap1\n      dup2\n      mstore\n      0x20\n      add\n      0x00\n      keccak256\n        /* \"contracts/Patient2.sol\":3746:3779  Doctor storage doc = doctors[_id] */\n      swap1\n      pop\n        /* \"contracts/Patient2.sol\":3798:3801  doc */\n      dup1\n        /* \"contracts/Patient2.sol\":3798:3804  doc.id */\n      0x00\n      add\n      sload\n        /* \"contracts/Patient2.sol\":3806:3809  doc */\n      dup2\n        /* \"contracts/Patient2.sol\":3806:3814  doc.name */\n      0x01\n      add\n        /* \"contracts/Patient2.sol\":3816:3819  doc */\n      dup3\n        /* \"contracts/Patient2.sol\":3816:3833  doc.qualification */\n      0x02\n      add\n        /* \"contracts/Patient2.sol\":3835:3838  doc */\n      dup4\n        /* \"contracts/Patient2.sol\":3835:3848  doc.workPlace */\n      0x03\n      add\n        /* \"contracts/Patient2.sol\":3790:3849  return (doc.id, doc.name, doc.qualification, doc.workPlace) */\n      dup3\n      dup1\n      sload\n      tag_131\n      swap1\n      tag_81\n      jump\t// in\n    tag_131:\n      dup1\n      0x1f\n      add\n      0x20\n      dup1\n      swap2\n      div\n      mul\n      0x20\n      add\n      mload(0x40)\n      swap1\n      dup2\n      add\n      0x40\n      mstore\n      dup1\n      swap3\n      swap2\n      swap1\n      dup2\n      dup2\n      mstore\n      0x20\n      add\n      dup3\n      dup1\n      sload\n      tag_132\n      swap1\n      tag_81\n      jump\t// in\n    tag_132:\n      dup1\n      iszero\n      tag_133\n      jumpi\n      dup1\n      0x1f\n      lt\n      tag_134\n      jumpi\n      0x0100\n      dup1\n      dup4\n      sload\n      div\n      mul\n      dup4\n      mstore\n      swap2\n      0x20\n      add\n      swap2\n      jump(tag_133)\n    tag_134:\n      dup3\n      add\n      swap2\n      swap1\n      0x00\n      mstore\n      keccak256(0x00, 0x20)\n      swap1\n    tag_135:\n      dup2\n      sload\n      dup2\n      mstore\n      swap1\n      0x01\n      add\n      swap1\n      0x20\n      add\n      dup1\n      dup4\n      gt\n      tag_135\n      jumpi\n      dup3\n      swap1\n      sub\n      0x1f\n      and\n      dup3\n      add\n      swap2\n    tag_133:\n      pop\n      pop\n      pop\n      pop\n      pop\n      swap3\n      pop\n      dup2\n      dup1\n      sload\n      tag_136\n      swap1\n      tag_81\n      jump\t// in\n    tag_136:\n      dup1\n      0x1f\n      add\n      0x20\n      dup1\n      swap2\n      div\n      mul\n      0x20\n      add\n      mload(0x40)\n      swap1\n      dup2\n      add\n      0x40\n      mstore\n      dup1\n      swap3\n      swap2\n      swap1\n      dup2\n      dup2\n      mstore\n      0x20\n      add\n      dup3\n      dup1\n      sload\n      tag_137\n      swap1\n      tag_81\n      jump\t// in\n    tag_137:\n      dup1\n      iszero\n      tag_138\n      jumpi\n      dup1\n      0x1f\n      lt\n      tag_139\n      jumpi\n      0x0100\n      dup1\n      dup4\n      sload\n      div\n      mul\n      dup4\n      mstore\n      swap2\n      0x20\n      add\n      swap2\n      jump(tag_138)\n    tag_139:\n      dup3\n      add\n      swap2\n      swap1\n      0x00\n      mstore\n      keccak256(0x00, 0x20)\n      swap1\n    tag_140:\n      dup2\n      sload\n      dup2\n      mstore\n      swap1\n      0x01\n      add\n      swap1\n      0x20\n      add\n      dup1\n      dup4\n      gt\n      tag_140\n      jumpi\n      dup3\n      swap1\n      sub\n      0x1f\n      and\n      dup3\n      add\n      swap2\n    tag_138:\n      pop\n      pop\n      pop\n      pop\n      pop\n      swap2\n      pop\n      dup1\n      dup1\n      sload\n      tag_141\n      swap1\n      tag_81\n      jump\t// in\n    tag_141:\n      dup1\n      0x1f\n      add\n      0x20\n      dup1\n      swap2\n      div\n      mul\n      0x20\n      add\n      mload(0x40)\n      swap1\n      dup2\n      add\n      0x40\n      mstore\n      dup1\n      swap3\n      swap2\n      swap1\n      dup2\n      dup2\n      mstore\n      0x20\n      add\n      dup3\n      dup1\n      sload\n      tag_142\n      swap1\n      tag_81\n      jump\t// in\n    tag_142:\n      dup1\n      iszero\n      tag_143\n      jumpi\n      dup1\n      0x1f\n      lt\n      tag_144\n      jumpi\n      0x0100\n      dup1\n      dup4\n      sload\n      div\n      mul\n      dup4\n      mstore\n      swap2\n      0x20\n      add\n      swap2\n      jump(tag_143)\n    tag_144:\n      dup3\n      add\n      swap2\n      swap1\n      0x00\n      mstore\n      keccak256(0x00, 0x20)\n      swap1\n    tag_145:\n      dup2\n      sload\n      dup2\n      mstore\n      swap1\n      0x01\n      add\n      swap1\n      0x20\n      add\n      dup1\n      dup4\n      gt\n      tag_145\n      jumpi\n      dup3\n      swap1\n      sub\n      0x1f\n      and\n      dup3\n      add\n      swap2\n    tag_143:\n      pop\n      pop\n      pop\n      pop\n      pop\n      swap1\n      pop\n      swap5\n      pop\n      swap5\n      pop\n      swap5\n      pop\n      swap5\n      pop\n      pop\n        /* \"contracts/Patient2.sol\":3594:3857  function viewDoctorDetails(uint256 _id) public view returns (uint256 id, string memory name, string memory qualification, string memory add) {... */\n      swap2\n      swap4\n      pop\n      swap2\n      swap4\n      jump\t// out\n        /* \"contracts/Patient2.sol\":2028:2199  function prescribeMedicine(uint256 _id, address _patient) public {... */\n    tag_59:\n        /* \"contracts/Patient2.sol\":2104:2121  uint256 patientId */\n      0x00\n        /* \"contracts/Patient2.sol\":2124:2134  patientIds */\n      0x06\n        /* \"contracts/Patient2.sol\":2124:2144  patientIds[_patient] */\n      0x00\n        /* \"contracts/Patient2.sol\":2135:2143  _patient */\n      dup4\n        /* \"contracts/Patient2.sol\":2124:2144  patientIds[_patient] */\n      0xffffffffffffffffffffffffffffffffffffffff\n      and\n      0xffffffffffffffffffffffffffffffffffffffff\n      and\n      dup2\n      mstore\n      0x20\n      add\n      swap1\n      dup2\n      mstore\n      0x20\n      add\n      0x00\n      keccak256\n      sload\n        /* \"contracts/Patient2.sol\":2104:2144  uint256 patientId = patientIds[_patient] */\n      swap1\n      pop\n        /* \"contracts/Patient2.sol\":2155:2171  patientMedicines */\n      0x08\n        /* \"contracts/Patient2.sol\":2155:2181  patientMedicines[_patient] */\n      0x00\n        /* \"contracts/Patient2.sol\":2172:2180  _patient */\n      dup4\n        /* \"contracts/Patient2.sol\":2155:2181  patientMedicines[_patient] */\n      0xffffffffffffffffffffffffffffffffffffffff\n      and\n      0xffffffffffffffffffffffffffffffffffffffff\n      and\n      dup2\n      mstore\n      0x20\n      add\n      swap1\n      dup2\n      mstore\n      0x20\n      add\n      0x00\n      keccak256\n        /* \"contracts/Patient2.sol\":2187:2190  _id */\n      dup4\n        /* \"contracts/Patient2.sol\":2155:2191  patientMedicines[_patient].push(_id) */\n      swap1\n      dup1\n      0x01\n      dup2\n      sload\n      add\n      dup1\n      dup3\n      sstore\n      dup1\n      swap2\n      pop\n      pop\n      0x01\n      swap1\n      sub\n      swap1\n      0x00\n      mstore\n      keccak256(0x00, 0x20)\n      add\n      0x00\n      swap1\n      swap2\n      swap1\n      swap2\n      swap1\n      swap2\n      pop\n      sstore\n        /* \"contracts/Patient2.sol\":2093:2199  {... */\n      pop\n        /* \"contracts/Patient2.sol\":2028:2199  function prescribeMedicine(uint256 _id, address _patient) public {... */\n      pop\n      pop\n      jump\t// out\n        /* \"contracts/Patient2.sol\":2249:2398  function updatePatientAge(uint256 _age) public {... */\n    tag_62:\n        /* \"contracts/Patient2.sol\":2307:2324  uint256 patientId */\n      0x00\n        /* \"contracts/Patient2.sol\":2327:2337  patientIds */\n      0x06\n        /* \"contracts/Patient2.sol\":2327:2349  patientIds[msg.sender] */\n      0x00\n        /* \"contracts/Patient2.sol\":2338:2348  msg.sender */\n      caller\n        /* \"contracts/Patient2.sol\":2327:2349  patientIds[msg.sender] */\n      0xffffffffffffffffffffffffffffffffffffffff\n      and\n      0xffffffffffffffffffffffffffffffffffffffff\n      and\n      dup2\n      mstore\n      0x20\n      add\n      swap1\n      dup2\n      mstore\n      0x20\n      add\n      0x00\n      keccak256\n      sload\n        /* \"contracts/Patient2.sol\":2307:2349  uint256 patientId = patientIds[msg.sender] */\n      swap1\n      pop\n        /* \"contracts/Patient2.sol\":2386:2390  _age */\n      dup2\n        /* \"contracts/Patient2.sol\":2360:2368  patients */\n      0x05\n        /* \"contracts/Patient2.sol\":2360:2379  patients[patientId] */\n      0x00\n        /* \"contracts/Patient2.sol\":2369:2378  patientId */\n      dup4\n        /* \"contracts/Patient2.sol\":2360:2379  patients[patientId] */\n      dup2\n      mstore\n      0x20\n      add\n      swap1\n      dup2\n      mstore\n      0x20\n      add\n      0x00\n      keccak256\n        /* \"contracts/Patient2.sol\":2360:2383  patients[patientId].age */\n      0x02\n      add\n        /* \"contracts/Patient2.sol\":2360:2390  patients[patientId].age = _age */\n      dup2\n      swap1\n      sstore\n      pop\n        /* \"contracts/Patient2.sol\":2296:2398  {... */\n      pop\n        /* \"contracts/Patient2.sol\":2249:2398  function updatePatientAge(uint256 _age) public {... */\n      pop\n      jump\t// out\n    tag_74:\n      dup3\n      dup1\n      sload\n      dup3\n      dup3\n      sstore\n      swap1\n      0x00\n      mstore\n      keccak256(0x00, 0x20)\n      swap1\n      dup2\n      add\n      swap3\n      dup3\n      iszero\n      tag_149\n      jumpi\n      swap2\n      0x20\n      mul\n      dup3\n      add\n    tag_150:\n      dup3\n      dup2\n      gt\n      iszero\n      tag_151\n      jumpi\n      dup3\n      mload\n      dup3\n      swap1\n      dup2\n      tag_152\n      swap2\n      swap1\n      tag_72\n      jump\t// in\n    tag_152:\n      pop\n      swap2\n      0x20\n      add\n      swap2\n      swap1\n      0x01\n      add\n      swap1\n      jump(tag_150)\n    tag_151:\n    tag_149:\n      pop\n      swap1\n      pop\n      tag_153\n      swap2\n      swap1\n      tag_154\n      jump\t// in\n    tag_153:\n      pop\n      swap1\n      jump\t// out\n    tag_154:\n    tag_155:\n      dup1\n      dup3\n      gt\n      iszero\n      tag_156\n      jumpi\n      0x00\n      dup2\n      dup2\n      tag_157\n      swap2\n      swap1\n      tag_158\n      jump\t// in\n    tag_157:\n      pop\n      0x01\n      add\n      jump(tag_155)\n    tag_156:\n      pop\n      swap1\n      jump\t// out\n    tag_158:\n      pop\n      dup1\n      sload\n      tag_159\n      swap1\n      tag_81\n      jump\t// in\n    tag_159:\n      0x00\n      dup3\n      sstore\n      dup1\n      0x1f\n      lt\n      tag_161\n      jumpi\n      pop\n      jump(tag_160)\n    tag_161:\n      0x1f\n      add\n      0x20\n      swap1\n      div\n      swap1\n      0x00\n      mstore\n      keccak256(0x00, 0x20)\n      swap1\n      dup2\n      add\n      swap1\n      tag_162\n      swap2\n      swap1\n      tag_163\n      jump\t// in\n    tag_162:\n    tag_160:\n      pop\n      jump\t// out\n    tag_163:\n    tag_164:\n      dup1\n      dup3\n      gt\n      iszero\n      tag_165\n      jumpi\n      0x00\n      dup2\n      0x00\n      swap1\n      sstore\n      pop\n      0x01\n      add\n      jump(tag_164)\n    tag_165:\n      pop\n      swap1\n      jump\t// out\n        /* \"#utility.yul\":7:82   */\n    tag_166:\n        /* \"#utility.yul\":40:46   */\n      0x00\n        /* \"#utility.yul\":73:75   */\n      0x40\n        /* \"#utility.yul\":67:76   */\n      mload\n        /* \"#utility.yul\":57:76   */\n      swap1\n      pop\n        /* \"#utility.yul\":7:82   */\n      swap1\n      jump\t// out\n        /* \"#utility.yul\":88:205   */\n    tag_167:\n        /* \"#utility.yul\":197:198   */\n      0x00\n        /* \"#utility.yul\":194:195   */\n      dup1\n        /* \"#utility.yul\":187:199   */\n      revert\n        /* \"#utility.yul\":211:328   */\n    tag_168:\n        /* \"#utility.yul\":320:321   */\n      0x00\n        /* \"#utility.yul\":317:318   */\n      dup1\n        /* \"#utility.yul\":310:322   */\n      revert\n        /* \"#utility.yul\":334:451   */\n    tag_169:\n        /* \"#utility.yul\":443:444   */\n      0x00\n        /* \"#utility.yul\":440:441   */\n      dup1\n        /* \"#utility.yul\":433:445   */\n      revert\n        /* \"#utility.yul\":457:574   */\n    tag_170:\n        /* \"#utility.yul\":566:567   */\n      0x00\n        /* \"#utility.yul\":563:564   */\n      dup1\n        /* \"#utility.yul\":556:568   */\n      revert\n        /* \"#utility.yul\":580:682   */\n    tag_171:\n        /* \"#utility.yul\":621:627   */\n      0x00\n        /* \"#utility.yul\":672:674   */\n      0x1f\n        /* \"#utility.yul\":668:675   */\n      not\n        /* \"#utility.yul\":663:665   */\n      0x1f\n        /* \"#utility.yul\":656:661   */\n      dup4\n        /* \"#utility.yul\":652:666   */\n      add\n        /* \"#utility.yul\":648:676   */\n      and\n        /* \"#utility.yul\":638:676   */\n      swap1\n      pop\n        /* \"#utility.yul\":580:682   */\n      swap2\n      swap1\n      pop\n      jump\t// out\n        /* \"#utility.yul\":688:868   */\n    tag_68:\n        /* \"#utility.yul\":736:813   */\n      0x4e487b7100000000000000000000000000000000000000000000000000000000\n        /* \"#utility.yul\":733:734   */\n      0x00\n        /* \"#utility.yul\":726:814   */\n      mstore\n        /* \"#utility.yul\":833:837   */\n      0x41\n        /* \"#utility.yul\":830:831   */\n      0x04\n        /* \"#utility.yul\":823:838   */\n      mstore\n        /* \"#utility.yul\":857:861   */\n      0x24\n        /* \"#utility.yul\":854:855   */\n      0x00\n        /* \"#utility.yul\":847:862   */\n      revert\n        /* \"#utility.yul\":874:1155   */\n    tag_172:\n        /* \"#utility.yul\":957:984   */\n      tag_231\n        /* \"#utility.yul\":979:983   */\n      dup3\n        /* \"#utility.yul\":957:984   */\n      tag_171\n      jump\t// in\n    tag_231:\n        /* \"#utility.yul\":949:955   */\n      dup2\n        /* \"#utility.yul\":945:985   */\n      add\n        /* \"#utility.yul\":1087:1093   */\n      dup2\n        /* \"#utility.yul\":1075:1085   */\n      dup2\n        /* \"#utility.yul\":1072:1094   */\n      lt\n        /* \"#utility.yul\":1051:1069   */\n      0xffffffffffffffff\n        /* \"#utility.yul\":1039:1049   */\n      dup3\n        /* \"#utility.yul\":1036:1070   */\n      gt\n        /* \"#utility.yul\":1033:1095   */\n      or\n        /* \"#utility.yul\":1030:1118   */\n      iszero\n      tag_232\n      jumpi\n        /* \"#utility.yul\":1098:1116   */\n      tag_233\n      tag_68\n      jump\t// in\n    tag_233:\n        /* \"#utility.yul\":1030:1118   */\n    tag_232:\n        /* \"#utility.yul\":1138:1148   */\n      dup1\n        /* \"#utility.yul\":1134:1136   */\n      0x40\n        /* \"#utility.yul\":1127:1149   */\n      mstore\n        /* \"#utility.yul\":917:1155   */\n      pop\n        /* \"#utility.yul\":874:1155   */\n      pop\n      pop\n      jump\t// out\n        /* \"#utility.yul\":1161:1290   */\n    tag_173:\n        /* \"#utility.yul\":1195:1201   */\n      0x00\n        /* \"#utility.yul\":1222:1242   */\n      tag_235\n      tag_166\n      jump\t// in\n    tag_235:\n        /* \"#utility.yul\":1212:1242   */\n      swap1\n      pop\n        /* \"#utility.yul\":1251:1284   */\n      tag_236\n        /* \"#utility.yul\":1279:1283   */\n      dup3\n        /* \"#utility.yul\":1271:1277   */\n      dup3\n        /* \"#utility.yul\":1251:1284   */\n      tag_172\n      jump\t// in\n    tag_236:\n        /* \"#utility.yul\":1161:1290   */\n      swap2\n      swap1\n      pop\n      jump\t// out\n        /* \"#utility.yul\":1296:1604   */\n    tag_174:\n        /* \"#utility.yul\":1358:1362   */\n      0x00\n        /* \"#utility.yul\":1448:1466   */\n      0xffffffffffffffff\n        /* \"#utility.yul\":1440:1446   */\n      dup3\n        /* \"#utility.yul\":1437:1467   */\n      gt\n        /* \"#utility.yul\":1434:1490   */\n      iszero\n      tag_238\n      jumpi\n        /* \"#utility.yul\":1470:1488   */\n      tag_239\n      tag_68\n      jump\t// in\n    tag_239:\n        /* \"#utility.yul\":1434:1490   */\n    tag_238:\n        /* \"#utility.yul\":1508:1537   */\n      tag_240\n        /* \"#utility.yul\":1530:1536   */\n      dup3\n        /* \"#utility.yul\":1508:1537   */\n      tag_171\n      jump\t// in\n    tag_240:\n        /* \"#utility.yul\":1500:1537   */\n      swap1\n      pop\n        /* \"#utility.yul\":1592:1596   */\n      0x20\n        /* \"#utility.yul\":1586:1590   */\n      dup2\n        /* \"#utility.yul\":1582:1597   */\n      add\n        /* \"#utility.yul\":1574:1597   */\n      swap1\n      pop\n        /* \"#utility.yul\":1296:1604   */\n      swap2\n      swap1\n      pop\n      jump\t// out\n        /* \"#utility.yul\":1610:1756   */\n    tag_175:\n        /* \"#utility.yul\":1707:1713   */\n      dup3\n        /* \"#utility.yul\":1702:1705   */\n      dup2\n        /* \"#utility.yul\":1697:1700   */\n      dup4\n        /* \"#utility.yul\":1684:1714   */\n      calldatacopy\n        /* \"#utility.yul\":1748:1749   */\n      0x00\n        /* \"#utility.yul\":1739:1745   */\n      dup4\n        /* \"#utility.yul\":1734:1737   */\n      dup4\n        /* \"#utility.yul\":1730:1746   */\n      add\n        /* \"#utility.yul\":1723:1750   */\n      mstore\n        /* \"#utility.yul\":1610:1756   */\n      pop\n      pop\n      pop\n      jump\t// out\n        /* \"#utility.yul\":1762:2187   */\n    tag_176:\n        /* \"#utility.yul\":1840:1845   */\n      0x00\n        /* \"#utility.yul\":1865:1931   */\n      tag_243\n        /* \"#utility.yul\":1881:1930   */\n      tag_244\n        /* \"#utility.yul\":1923:1929   */\n      dup5\n        /* \"#utility.yul\":1881:1930   */\n      tag_174\n      jump\t// in\n    tag_244:\n        /* \"#utility.yul\":1865:1931   */\n      tag_173\n      jump\t// in\n    tag_243:\n        /* \"#utility.yul\":1856:1931   */\n      swap1\n      pop\n        /* \"#utility.yul\":1954:1960   */\n      dup3\n        /* \"#utility.yul\":1947:1952   */\n      dup2\n        /* \"#utility.yul\":1940:1961   */\n      mstore\n        /* \"#utility.yul\":1992:1996   */\n      0x20\n        /* \"#utility.yul\":1985:1990   */\n      dup2\n        /* \"#utility.yul\":1981:1997   */\n      add\n        /* \"#utility.yul\":2030:2033   */\n      dup5\n        /* \"#utility.yul\":2021:2027   */\n      dup5\n        /* \"#utility.yul\":2016:2019   */\n      dup5\n        /* \"#utility.yul\":2012:2028   */\n      add\n        /* \"#utility.yul\":2009:2034   */\n      gt\n        /* \"#utility.yul\":2006:2118   */\n      iszero\n      tag_245\n      jumpi\n        /* \"#utility.yul\":2037:2116   */\n      tag_246\n      tag_170\n      jump\t// in\n    tag_246:\n        /* \"#utility.yul\":2006:2118   */\n    tag_245:\n        /* \"#utility.yul\":2127:2181   */\n      tag_247\n        /* \"#utility.yul\":2174:2180   */\n      dup5\n        /* \"#utility.yul\":2169:2172   */\n      dup3\n        /* \"#utility.yul\":2164:2167   */\n      dup6\n        /* \"#utility.yul\":2127:2181   */\n      tag_175\n      jump\t// in\n    tag_247:\n        /* \"#utility.yul\":1846:2187   */\n      pop\n        /* \"#utility.yul\":1762:2187   */\n      swap4\n      swap3\n      pop\n      pop\n      pop\n      jump\t// out\n        /* \"#utility.yul\":2207:2547   */\n    tag_177:\n        /* \"#utility.yul\":2263:2268   */\n      0x00\n        /* \"#utility.yul\":2312:2315   */\n      dup3\n        /* \"#utility.yul\":2305:2309   */\n      0x1f\n        /* \"#utility.yul\":2297:2303   */\n      dup4\n        /* \"#utility.yul\":2293:2310   */\n      add\n        /* \"#utility.yul\":2289:2316   */\n      slt\n        /* \"#utility.yul\":2279:2401   */\n      tag_249\n      jumpi\n        /* \"#utility.yul\":2320:2399   */\n      tag_250\n      tag_169\n      jump\t// in\n    tag_250:\n        /* \"#utility.yul\":2279:2401   */\n    tag_249:\n        /* \"#utility.yul\":2437:2443   */\n      dup2\n        /* \"#utility.yul\":2424:2444   */\n      calldataload\n        /* \"#utility.yul\":2462:2541   */\n      tag_251\n        /* \"#utility.yul\":2537:2540   */\n      dup5\n        /* \"#utility.yul\":2529:2535   */\n      dup3\n        /* \"#utility.yul\":2522:2526   */\n      0x20\n        /* \"#utility.yul\":2514:2520   */\n      dup7\n        /* \"#utility.yul\":2510:2527   */\n      add\n        /* \"#utility.yul\":2462:2541   */\n      tag_176\n      jump\t// in\n    tag_251:\n        /* \"#utility.yul\":2453:2541   */\n      swap2\n      pop\n        /* \"#utility.yul\":2269:2547   */\n      pop\n        /* \"#utility.yul\":2207:2547   */\n      swap3\n      swap2\n      pop\n      pop\n      jump\t// out\n        /* \"#utility.yul\":2553:2630   */\n    tag_178:\n        /* \"#utility.yul\":2590:2597   */\n      0x00\n        /* \"#utility.yul\":2619:2624   */\n      dup2\n        /* \"#utility.yul\":2608:2624   */\n      swap1\n      pop\n        /* \"#utility.yul\":2553:2630   */\n      swap2\n      swap1\n      pop\n      jump\t// out\n        /* \"#utility.yul\":2636:2758   */\n    tag_179:\n        /* \"#utility.yul\":2709:2733   */\n      tag_254\n        /* \"#utility.yul\":2727:2732   */\n      dup2\n        /* \"#utility.yul\":2709:2733   */\n      tag_178\n      jump\t// in\n    tag_254:\n        /* \"#utility.yul\":2702:2707   */\n      dup2\n        /* \"#utility.yul\":2699:2734   */\n      eq\n        /* \"#utility.yul\":2689:2752   */\n      tag_255\n      jumpi\n        /* \"#utility.yul\":2748:2749   */\n      0x00\n        /* \"#utility.yul\":2745:2746   */\n      dup1\n        /* \"#utility.yul\":2738:2750   */\n      revert\n        /* \"#utility.yul\":2689:2752   */\n    tag_255:\n        /* \"#utility.yul\":2636:2758   */\n      pop\n      jump\t// out\n        /* \"#utility.yul\":2764:2903   */\n    tag_180:\n        /* \"#utility.yul\":2810:2815   */\n      0x00\n        /* \"#utility.yul\":2848:2854   */\n      dup2\n        /* \"#utility.yul\":2835:2855   */\n      calldataload\n        /* \"#utility.yul\":2826:2855   */\n      swap1\n      pop\n        /* \"#utility.yul\":2864:2897   */\n      tag_257\n        /* \"#utility.yul\":2891:2896   */\n      dup2\n        /* \"#utility.yul\":2864:2897   */\n      tag_179\n      jump\t// in\n    tag_257:\n        /* \"#utility.yul\":2764:2903   */\n      swap3\n      swap2\n      pop\n      pop\n      jump\t// out\n        /* \"#utility.yul\":2909:3563   */\n    tag_17:\n        /* \"#utility.yul\":2987:2993   */\n      0x00\n        /* \"#utility.yul\":2995:3001   */\n      dup1\n        /* \"#utility.yul\":3044:3046   */\n      0x40\n        /* \"#utility.yul\":3032:3041   */\n      dup4\n        /* \"#utility.yul\":3023:3030   */\n      dup6\n        /* \"#utility.yul\":3019:3042   */\n      sub\n        /* \"#utility.yul\":3015:3047   */\n      slt\n        /* \"#utility.yul\":3012:3131   */\n      iszero\n      tag_259\n      jumpi\n        /* \"#utility.yul\":3050:3129   */\n      tag_260\n      tag_167\n      jump\t// in\n    tag_260:\n        /* \"#utility.yul\":3012:3131   */\n    tag_259:\n        /* \"#utility.yul\":3198:3199   */\n      0x00\n        /* \"#utility.yul\":3187:3196   */\n      dup4\n        /* \"#utility.yul\":3183:3200   */\n      add\n        /* \"#utility.yul\":3170:3201   */\n      calldataload\n        /* \"#utility.yul\":3228:3246   */\n      0xffffffffffffffff\n        /* \"#utility.yul\":3220:3226   */\n      dup2\n        /* \"#utility.yul\":3217:3247   */\n      gt\n        /* \"#utility.yul\":3214:3331   */\n      iszero\n      tag_261\n      jumpi\n        /* \"#utility.yul\":3250:3329   */\n      tag_262\n      tag_168\n      jump\t// in\n    tag_262:\n        /* \"#utility.yul\":3214:3331   */\n    tag_261:\n        /* \"#utility.yul\":3355:3418   */\n      tag_263\n        /* \"#utility.yul\":3410:3417   */\n      dup6\n        /* \"#utility.yul\":3401:3407   */\n      dup3\n        /* \"#utility.yul\":3390:3399   */\n      dup7\n        /* \"#utility.yul\":3386:3408   */\n      add\n        /* \"#utility.yul\":3355:3418   */\n      tag_177\n      jump\t// in\n    tag_263:\n        /* \"#utility.yul\":3345:3418   */\n      swap3\n      pop\n        /* \"#utility.yul\":3141:3428   */\n      pop\n        /* \"#utility.yul\":3467:3469   */\n      0x20\n        /* \"#utility.yul\":3493:3546   */\n      tag_264\n        /* \"#utility.yul\":3538:3545   */\n      dup6\n        /* \"#utility.yul\":3529:3535   */\n      dup3\n        /* \"#utility.yul\":3518:3527   */\n      dup7\n        /* \"#utility.yul\":3514:3536   */\n      add\n        /* \"#utility.yul\":3493:3546   */\n      tag_180\n      jump\t// in\n    tag_264:\n        /* \"#utility.yul\":3483:3546   */\n      swap2\n      pop\n        /* \"#utility.yul\":3438:3556   */\n      pop\n        /* \"#utility.yul\":2909:3563   */\n      swap3\n      pop\n      swap3\n      swap1\n      pop\n      jump\t// out\n        /* \"#utility.yul\":3569:4694   */\n    tag_21:\n        /* \"#utility.yul\":3675:3681   */\n      0x00\n        /* \"#utility.yul\":3683:3689   */\n      dup1\n        /* \"#utility.yul\":3691:3697   */\n      0x00\n        /* \"#utility.yul\":3699:3705   */\n      dup1\n        /* \"#utility.yul\":3748:3751   */\n      0x80\n        /* \"#utility.yul\":3736:3745   */\n      dup6\n        /* \"#utility.yul\":3727:3734   */\n      dup8\n        /* \"#utility.yul\":3723:3746   */\n      sub\n        /* \"#utility.yul\":3719:3752   */\n      slt\n        /* \"#utility.yul\":3716:3836   */\n      iszero\n      tag_266\n      jumpi\n        /* \"#utility.yul\":3755:3834   */\n      tag_267\n      tag_167\n      jump\t// in\n    tag_267:\n        /* \"#utility.yul\":3716:3836   */\n    tag_266:\n        /* \"#utility.yul\":3903:3904   */\n      0x00\n        /* \"#utility.yul\":3892:3901   */\n      dup6\n        /* \"#utility.yul\":3888:3905   */\n      add\n        /* \"#utility.yul\":3875:3906   */\n      calldataload\n        /* \"#utility.yul\":3933:3951   */\n      0xffffffffffffffff\n        /* \"#utility.yul\":3925:3931   */\n      dup2\n        /* \"#utility.yul\":3922:3952   */\n      gt\n        /* \"#utility.yul\":3919:4036   */\n      iszero\n      tag_268\n      jumpi\n        /* \"#utility.yul\":3955:4034   */\n      tag_269\n      tag_168\n      jump\t// in\n    tag_269:\n        /* \"#utility.yul\":3919:4036   */\n    tag_268:\n        /* \"#utility.yul\":4060:4123   */\n      tag_270\n        /* \"#utility.yul\":4115:4122   */\n      dup8\n        /* \"#utility.yul\":4106:4112   */\n      dup3\n        /* \"#utility.yul\":4095:4104   */\n      dup9\n        /* \"#utility.yul\":4091:4113   */\n      add\n        /* \"#utility.yul\":4060:4123   */\n      tag_177\n      jump\t// in\n    tag_270:\n        /* \"#utility.yul\":4050:4123   */\n      swap5\n      pop\n        /* \"#utility.yul\":3846:4133   */\n      pop\n        /* \"#utility.yul\":4172:4174   */\n      0x20\n        /* \"#utility.yul\":4198:4251   */\n      tag_271\n        /* \"#utility.yul\":4243:4250   */\n      dup8\n        /* \"#utility.yul\":4234:4240   */\n      dup3\n        /* \"#utility.yul\":4223:4232   */\n      dup9\n        /* \"#utility.yul\":4219:4241   */\n      add\n        /* \"#utility.yul\":4198:4251   */\n      tag_180\n      jump\t// in\n    tag_271:\n        /* \"#utility.yul\":4188:4251   */\n      swap4\n      pop\n        /* \"#utility.yul\":4143:4261   */\n      pop\n        /* \"#utility.yul\":4328:4330   */\n      0x40\n        /* \"#utility.yul\":4317:4326   */\n      dup6\n        /* \"#utility.yul\":4313:4331   */\n      add\n        /* \"#utility.yul\":4300:4332   */\n      calldataload\n        /* \"#utility.yul\":4359:4377   */\n      0xffffffffffffffff\n        /* \"#utility.yul\":4351:4357   */\n      dup2\n        /* \"#utility.yul\":4348:4378   */\n      gt\n        /* \"#utility.yul\":4345:4462   */\n      iszero\n      tag_272\n      jumpi\n        /* \"#utility.yul\":4381:4460   */\n      tag_273\n      tag_168\n      jump\t// in\n    tag_273:\n        /* \"#utility.yul\":4345:4462   */\n    tag_272:\n        /* \"#utility.yul\":4486:4549   */\n      tag_274\n        /* \"#utility.yul\":4541:4548   */\n      dup8\n        /* \"#utility.yul\":4532:4538   */\n      dup3\n        /* \"#utility.yul\":4521:4530   */\n      dup9\n        /* \"#utility.yul\":4517:4539   */\n      add\n        /* \"#utility.yul\":4486:4549   */\n      tag_177\n      jump\t// in\n    tag_274:\n        /* \"#utility.yul\":4476:4549   */\n      swap3\n      pop\n        /* \"#utility.yul\":4271:4559   */\n      pop\n        /* \"#utility.yul\":4598:4600   */\n      0x60\n        /* \"#utility.yul\":4624:4677   */\n      tag_275\n        /* \"#utility.yul\":4669:4676   */\n      dup8\n        /* \"#utility.yul\":4660:4666   */\n      dup3\n        /* \"#utility.yul\":4649:4658   */\n      dup9\n        /* \"#utility.yul\":4645:4667   */\n      add\n        /* \"#utility.yul\":4624:4677   */\n      tag_180\n      jump\t// in\n    tag_275:\n        /* \"#utility.yul\":4614:4677   */\n      swap2\n      pop\n        /* \"#utility.yul\":4569:4687   */\n      pop\n        /* \"#utility.yul\":3569:4694   */\n      swap3\n      swap6\n      swap2\n      swap5\n      pop\n      swap3\n      pop\n      jump\t// out\n        /* \"#utility.yul\":4700:5029   */\n    tag_25:\n        /* \"#utility.yul\":4759:4765   */\n      0x00\n        /* \"#utility.yul\":4808:4810   */\n      0x20\n        /* \"#utility.yul\":4796:4805   */\n      dup3\n        /* \"#utility.yul\":4787:4794   */\n      dup5\n        /* \"#utility.yul\":4783:4806   */\n      sub\n        /* \"#utility.yul\":4779:4811   */\n      slt\n        /* \"#utility.yul\":4776:4895   */\n      iszero\n      tag_277\n      jumpi\n        /* \"#utility.yul\":4814:4893   */\n      tag_278\n      tag_167\n      jump\t// in\n    tag_278:\n        /* \"#utility.yul\":4776:4895   */\n    tag_277:\n        /* \"#utility.yul\":4934:4935   */\n      0x00\n        /* \"#utility.yul\":4959:5012   */\n      tag_279\n        /* \"#utility.yul\":5004:5011   */\n      dup5\n        /* \"#utility.yul\":4995:5001   */\n      dup3\n        /* \"#utility.yul\":4984:4993   */\n      dup6\n        /* \"#utility.yul\":4980:5002   */\n      add\n        /* \"#utility.yul\":4959:5012   */\n      tag_180\n      jump\t// in\n    tag_279:\n        /* \"#utility.yul\":4949:5012   */\n      swap2\n      pop\n        /* \"#utility.yul\":4905:5022   */\n      pop\n        /* \"#utility.yul\":4700:5029   */\n      swap3\n      swap2\n      pop\n      pop\n      jump\t// out\n        /* \"#utility.yul\":5035:5153   */\n    tag_181:\n        /* \"#utility.yul\":5122:5146   */\n      tag_281\n        /* \"#utility.yul\":5140:5145   */\n      dup2\n        /* \"#utility.yul\":5122:5146   */\n      tag_178\n      jump\t// in\n    tag_281:\n        /* \"#utility.yul\":5117:5120   */\n      dup3\n        /* \"#utility.yul\":5110:5147   */\n      mstore\n        /* \"#utility.yul\":5035:5153   */\n      pop\n      pop\n      jump\t// out\n        /* \"#utility.yul\":5159:5258   */\n    tag_182:\n        /* \"#utility.yul\":5211:5217   */\n      0x00\n        /* \"#utility.yul\":5245:5250   */\n      dup2\n        /* \"#utility.yul\":5239:5251   */\n      mload\n        /* \"#utility.yul\":5229:5251   */\n      swap1\n      pop\n        /* \"#utility.yul\":5159:5258   */\n      swap2\n      swap1\n      pop\n      jump\t// out\n        /* \"#utility.yul\":5264:5433   */\n    tag_183:\n        /* \"#utility.yul\":5348:5359   */\n      0x00\n        /* \"#utility.yul\":5382:5388   */\n      dup3\n        /* \"#utility.yul\":5377:5380   */\n      dup3\n        /* \"#utility.yul\":5370:5389   */\n      mstore\n        /* \"#utility.yul\":5422:5426   */\n      0x20\n        /* \"#utility.yul\":5417:5420   */\n      dup3\n        /* \"#utility.yul\":5413:5427   */\n      add\n        /* \"#utility.yul\":5398:5427   */\n      swap1\n      pop\n        /* \"#utility.yul\":5264:5433   */\n      swap3\n      swap2\n      pop\n      pop\n      jump\t// out\n        /* \"#utility.yul\":5439:5685   */\n    tag_184:\n        /* \"#utility.yul\":5520:5521   */\n      0x00\n        /* \"#utility.yul\":5530:5643   */\n    tag_285:\n        /* \"#utility.yul\":5544:5550   */\n      dup4\n        /* \"#utility.yul\":5541:5542   */\n      dup2\n        /* \"#utility.yul\":5538:5551   */\n      lt\n        /* \"#utility.yul\":5530:5643   */\n      iszero\n      tag_287\n      jumpi\n        /* \"#utility.yul\":5629:5630   */\n      dup1\n        /* \"#utility.yul\":5624:5627   */\n      dup3\n        /* \"#utility.yul\":5620:5631   */\n      add\n        /* \"#utility.yul\":5614:5632   */\n      mload\n        /* \"#utility.yul\":5610:5611   */\n      dup2\n        /* \"#utility.yul\":5605:5608   */\n      dup5\n        /* \"#utility.yul\":5601:5612   */\n      add\n        /* \"#utility.yul\":5594:5633   */\n      mstore\n        /* \"#utility.yul\":5566:5568   */\n      0x20\n        /* \"#utility.yul\":5563:5564   */\n      dup2\n        /* \"#utility.yul\":5559:5569   */\n      add\n        /* \"#utility.yul\":5554:5569   */\n      swap1\n      pop\n        /* \"#utility.yul\":5530:5643   */\n      jump(tag_285)\n    tag_287:\n        /* \"#utility.yul\":5677:5678   */\n      0x00\n        /* \"#utility.yul\":5668:5674   */\n      dup5\n        /* \"#utility.yul\":5663:5666   */\n      dup5\n        /* \"#utility.yul\":5659:5675   */\n      add\n        /* \"#utility.yul\":5652:5679   */\n      mstore\n        /* \"#utility.yul\":5501:5685   */\n      pop\n        /* \"#utility.yul\":5439:5685   */\n      pop\n      pop\n      pop\n      jump\t// out\n        /* \"#utility.yul\":5691:6068   */\n    tag_185:\n        /* \"#utility.yul\":5779:5782   */\n      0x00\n        /* \"#utility.yul\":5807:5846   */\n      tag_289\n        /* \"#utility.yul\":5840:5845   */\n      dup3\n        /* \"#utility.yul\":5807:5846   */\n      tag_182\n      jump\t// in\n    tag_289:\n        /* \"#utility.yul\":5862:5933   */\n      tag_290\n        /* \"#utility.yul\":5926:5932   */\n      dup2\n        /* \"#utility.yul\":5921:5924   */\n      dup6\n        /* \"#utility.yul\":5862:5933   */\n      tag_183\n      jump\t// in\n    tag_290:\n        /* \"#utility.yul\":5855:5933   */\n      swap4\n      pop\n        /* \"#utility.yul\":5942:6007   */\n      tag_291\n        /* \"#utility.yul\":6000:6006   */\n      dup2\n        /* \"#utility.yul\":5995:5998   */\n      dup6\n        /* \"#utility.yul\":5988:5992   */\n      0x20\n        /* \"#utility.yul\":5981:5986   */\n      dup7\n        /* \"#utility.yul\":5977:5993   */\n      add\n        /* \"#utility.yul\":5942:6007   */\n      tag_184\n      jump\t// in\n    tag_291:\n        /* \"#utility.yul\":6032:6061   */\n      tag_292\n        /* \"#utility.yul\":6054:6060   */\n      dup2\n        /* \"#utility.yul\":6032:6061   */\n      tag_171\n      jump\t// in\n    tag_292:\n        /* \"#utility.yul\":6027:6030   */\n      dup5\n        /* \"#utility.yul\":6023:6062   */\n      add\n        /* \"#utility.yul\":6016:6062   */\n      swap2\n      pop\n        /* \"#utility.yul\":5783:6068   */\n      pop\n        /* \"#utility.yul\":5691:6068   */\n      swap3\n      swap2\n      pop\n      pop\n      jump\t// out\n        /* \"#utility.yul\":6074:6198   */\n    tag_186:\n        /* \"#utility.yul\":6151:6157   */\n      0x00\n        /* \"#utility.yul\":6185:6190   */\n      dup2\n        /* \"#utility.yul\":6179:6191   */\n      mload\n        /* \"#utility.yul\":6169:6191   */\n      swap1\n      pop\n        /* \"#utility.yul\":6074:6198   */\n      swap2\n      swap1\n      pop\n      jump\t// out\n        /* \"#utility.yul\":6204:6398   */\n    tag_187:\n        /* \"#utility.yul\":6313:6324   */\n      0x00\n        /* \"#utility.yul\":6347:6353   */\n      dup3\n        /* \"#utility.yul\":6342:6345   */\n      dup3\n        /* \"#utility.yul\":6335:6354   */\n      mstore\n        /* \"#utility.yul\":6387:6391   */\n      0x20\n        /* \"#utility.yul\":6382:6385   */\n      dup3\n        /* \"#utility.yul\":6378:6392   */\n      add\n        /* \"#utility.yul\":6363:6392   */\n      swap1\n      pop\n        /* \"#utility.yul\":6204:6398   */\n      swap3\n      swap2\n      pop\n      pop\n      jump\t// out\n        /* \"#utility.yul\":6404:6546   */\n    tag_188:\n        /* \"#utility.yul\":6481:6485   */\n      0x00\n        /* \"#utility.yul\":6504:6507   */\n      dup2\n        /* \"#utility.yul\":6496:6507   */\n      swap1\n      pop\n        /* \"#utility.yul\":6534:6538   */\n      0x20\n        /* \"#utility.yul\":6529:6532   */\n      dup3\n        /* \"#utility.yul\":6525:6539   */\n      add\n        /* \"#utility.yul\":6517:6539   */\n      swap1\n      pop\n        /* \"#utility.yul\":6404:6546   */\n      swap2\n      swap1\n      pop\n      jump\t// out\n        /* \"#utility.yul\":6552:6711   */\n    tag_189:\n        /* \"#utility.yul\":6626:6637   */\n      0x00\n        /* \"#utility.yul\":6660:6666   */\n      dup3\n        /* \"#utility.yul\":6655:6658   */\n      dup3\n        /* \"#utility.yul\":6648:6667   */\n      mstore\n        /* \"#utility.yul\":6700:6704   */\n      0x20\n        /* \"#utility.yul\":6695:6698   */\n      dup3\n        /* \"#utility.yul\":6691:6705   */\n      add\n        /* \"#utility.yul\":6676:6705   */\n      swap1\n      pop\n        /* \"#utility.yul\":6552:6711   */\n      swap3\n      swap2\n      pop\n      pop\n      jump\t// out\n        /* \"#utility.yul\":6717:7074   */\n    tag_190:\n        /* \"#utility.yul\":6795:6798   */\n      0x00\n        /* \"#utility.yul\":6823:6862   */\n      tag_298\n        /* \"#utility.yul\":6856:6861   */\n      dup3\n        /* \"#utility.yul\":6823:6862   */\n      tag_182\n      jump\t// in\n    tag_298:\n        /* \"#utility.yul\":6878:6939   */\n      tag_299\n        /* \"#utility.yul\":6932:6938   */\n      dup2\n        /* \"#utility.yul\":6927:6930   */\n      dup6\n        /* \"#utility.yul\":6878:6939   */\n      tag_189\n      jump\t// in\n    tag_299:\n        /* \"#utility.yul\":6871:6939   */\n      swap4\n      pop\n        /* \"#utility.yul\":6948:7013   */\n      tag_300\n        /* \"#utility.yul\":7006:7012   */\n      dup2\n        /* \"#utility.yul\":7001:7004   */\n      dup6\n        /* \"#utility.yul\":6994:6998   */\n      0x20\n        /* \"#utility.yul\":6987:6992   */\n      dup7\n        /* \"#utility.yul\":6983:6999   */\n      add\n        /* \"#utility.yul\":6948:7013   */\n      tag_184\n      jump\t// in\n    tag_300:\n        /* \"#utility.yul\":7038:7067   */\n      tag_301\n        /* \"#utility.yul\":7060:7066   */\n      dup2\n        /* \"#utility.yul\":7038:7067   */\n      tag_171\n      jump\t// in\n    tag_301:\n        /* \"#utility.yul\":7033:7036   */\n      dup5\n        /* \"#utility.yul\":7029:7068   */\n      add\n        /* \"#utility.yul\":7022:7068   */\n      swap2\n      pop\n        /* \"#utility.yul\":6799:7074   */\n      pop\n        /* \"#utility.yul\":6717:7074   */\n      swap3\n      swap2\n      pop\n      pop\n      jump\t// out\n        /* \"#utility.yul\":7080:7276   */\n    tag_191:\n        /* \"#utility.yul\":7169:7179   */\n      0x00\n        /* \"#utility.yul\":7204:7270   */\n      tag_303\n        /* \"#utility.yul\":7266:7269   */\n      dup4\n        /* \"#utility.yul\":7258:7264   */\n      dup4\n        /* \"#utility.yul\":7204:7270   */\n      tag_190\n      jump\t// in\n    tag_303:\n        /* \"#utility.yul\":7190:7270   */\n      swap1\n      pop\n        /* \"#utility.yul\":7080:7276   */\n      swap3\n      swap2\n      pop\n      pop\n      jump\t// out\n        /* \"#utility.yul\":7282:7405   */\n    tag_192:\n        /* \"#utility.yul\":7362:7366   */\n      0x00\n        /* \"#utility.yul\":7394:7398   */\n      0x20\n        /* \"#utility.yul\":7389:7392   */\n      dup3\n        /* \"#utility.yul\":7385:7399   */\n      add\n        /* \"#utility.yul\":7377:7399   */\n      swap1\n      pop\n        /* \"#utility.yul\":7282:7405   */\n      swap2\n      swap1\n      pop\n      jump\t// out\n        /* \"#utility.yul\":7439:8430   */\n    tag_193:\n        /* \"#utility.yul\":7578:7581   */\n      0x00\n        /* \"#utility.yul\":7607:7671   */\n      tag_306\n        /* \"#utility.yul\":7665:7670   */\n      dup3\n        /* \"#utility.yul\":7607:7671   */\n      tag_186\n      jump\t// in\n    tag_306:\n        /* \"#utility.yul\":7687:7783   */\n      tag_307\n        /* \"#utility.yul\":7776:7782   */\n      dup2\n        /* \"#utility.yul\":7771:7774   */\n      dup6\n        /* \"#utility.yul\":7687:7783   */\n      tag_187\n      jump\t// in\n    tag_307:\n        /* \"#utility.yul\":7680:7783   */\n      swap4\n      pop\n        /* \"#utility.yul\":7809:7812   */\n      dup4\n        /* \"#utility.yul\":7854:7858   */\n      0x20\n        /* \"#utility.yul\":7846:7852   */\n      dup3\n        /* \"#utility.yul\":7842:7859   */\n      mul\n        /* \"#utility.yul\":7837:7840   */\n      dup6\n        /* \"#utility.yul\":7833:7860   */\n      add\n        /* \"#utility.yul\":7884:7950   */\n      tag_308\n        /* \"#utility.yul\":7944:7949   */\n      dup6\n        /* \"#utility.yul\":7884:7950   */\n      tag_188\n      jump\t// in\n    tag_308:\n        /* \"#utility.yul\":7973:7980   */\n      dup1\n        /* \"#utility.yul\":8004:8005   */\n      0x00\n        /* \"#utility.yul\":7989:8385   */\n    tag_309:\n        /* \"#utility.yul\":8014:8020   */\n      dup6\n        /* \"#utility.yul\":8011:8012   */\n      dup2\n        /* \"#utility.yul\":8008:8021   */\n      lt\n        /* \"#utility.yul\":7989:8385   */\n      iszero\n      tag_311\n      jumpi\n        /* \"#utility.yul\":8085:8094   */\n      dup5\n        /* \"#utility.yul\":8079:8083   */\n      dup5\n        /* \"#utility.yul\":8075:8095   */\n      sub\n        /* \"#utility.yul\":8070:8073   */\n      dup10\n        /* \"#utility.yul\":8063:8096   */\n      mstore\n        /* \"#utility.yul\":8136:8142   */\n      dup2\n        /* \"#utility.yul\":8130:8143   */\n      mload\n        /* \"#utility.yul\":8164:8248   */\n      tag_312\n        /* \"#utility.yul\":8243:8247   */\n      dup6\n        /* \"#utility.yul\":8228:8241   */\n      dup3\n        /* \"#utility.yul\":8164:8248   */\n      tag_191\n      jump\t// in\n    tag_312:\n        /* \"#utility.yul\":8156:8248   */\n      swap5\n      pop\n        /* \"#utility.yul\":8271:8341   */\n      tag_313\n        /* \"#utility.yul\":8334:8340   */\n      dup4\n        /* \"#utility.yul\":8271:8341   */\n      tag_192\n      jump\t// in\n    tag_313:\n        /* \"#utility.yul\":8261:8341   */\n      swap3\n      pop\n        /* \"#utility.yul\":8370:8374   */\n      0x20\n        /* \"#utility.yul\":8365:8368   */\n      dup11\n        /* \"#utility.yul\":8361:8375   */\n      add\n        /* \"#utility.yul\":8354:8375   */\n      swap10\n      pop\n        /* \"#utility.yul\":8049:8385   */\n      pop\n        /* \"#utility.yul\":8036:8037   */\n      0x01\n        /* \"#utility.yul\":8033:8034   */\n      dup2\n        /* \"#utility.yul\":8029:8038   */\n      add\n        /* \"#utility.yul\":8024:8038   */\n      swap1\n      pop\n        /* \"#utility.yul\":7989:8385   */\n      jump(tag_309)\n    tag_311:\n        /* \"#utility.yul\":7993:8007   */\n      pop\n        /* \"#utility.yul\":8401:8405   */\n      dup3\n        /* \"#utility.yul\":8394:8405   */\n      swap8\n      pop\n        /* \"#utility.yul\":8421:8424   */\n      dup8\n        /* \"#utility.yul\":8414:8424   */\n      swap6\n      pop\n        /* \"#utility.yul\":7583:8430   */\n      pop\n      pop\n      pop\n      pop\n      pop\n        /* \"#utility.yul\":7439:8430   */\n      swap3\n      swap2\n      pop\n      pop\n      jump\t// out\n        /* \"#utility.yul\":8436:9271   */\n    tag_28:\n        /* \"#utility.yul\":8703:8707   */\n      0x00\n        /* \"#utility.yul\":8741:8744   */\n      0x80\n        /* \"#utility.yul\":8730:8739   */\n      dup3\n        /* \"#utility.yul\":8726:8745   */\n      add\n        /* \"#utility.yul\":8718:8745   */\n      swap1\n      pop\n        /* \"#utility.yul\":8755:8826   */\n      tag_315\n        /* \"#utility.yul\":8823:8824   */\n      0x00\n        /* \"#utility.yul\":8812:8821   */\n      dup4\n        /* \"#utility.yul\":8808:8825   */\n      add\n        /* \"#utility.yul\":8799:8805   */\n      dup8\n        /* \"#utility.yul\":8755:8826   */\n      tag_181\n      jump\t// in\n    tag_315:\n        /* \"#utility.yul\":8836:8908   */\n      tag_316\n        /* \"#utility.yul\":8904:8906   */\n      0x20\n        /* \"#utility.yul\":8893:8902   */\n      dup4\n        /* \"#utility.yul\":8889:8907   */\n      add\n        /* \"#utility.yul\":8880:8886   */\n      dup7\n        /* \"#utility.yul\":8836:8908   */\n      tag_181\n      jump\t// in\n    tag_316:\n        /* \"#utility.yul\":8955:8964   */\n      dup2\n        /* \"#utility.yul\":8949:8953   */\n      dup2\n        /* \"#utility.yul\":8945:8965   */\n      sub\n        /* \"#utility.yul\":8940:8942   */\n      0x40\n        /* \"#utility.yul\":8929:8938   */\n      dup4\n        /* \"#utility.yul\":8925:8943   */\n      add\n        /* \"#utility.yul\":8918:8966   */\n      mstore\n        /* \"#utility.yul\":8983:9061   */\n      tag_317\n        /* \"#utility.yul\":9056:9060   */\n      dup2\n        /* \"#utility.yul\":9047:9053   */\n      dup6\n        /* \"#utility.yul\":8983:9061   */\n      tag_185\n      jump\t// in\n    tag_317:\n        /* \"#utility.yul\":8975:9061   */\n      swap1\n      pop\n        /* \"#utility.yul\":9108:9117   */\n      dup2\n        /* \"#utility.yul\":9102:9106   */\n      dup2\n        /* \"#utility.yul\":9098:9118   */\n      sub\n        /* \"#utility.yul\":9093:9095   */\n      0x60\n        /* \"#utility.yul\":9082:9091   */\n      dup4\n        /* \"#utility.yul\":9078:9096   */\n      add\n        /* \"#utility.yul\":9071:9119   */\n      mstore\n        /* \"#utility.yul\":9136:9264   */\n      tag_318\n        /* \"#utility.yul\":9259:9263   */\n      dup2\n        /* \"#utility.yul\":9250:9256   */\n      dup5\n        /* \"#utility.yul\":9136:9264   */\n      tag_193\n      jump\t// in\n    tag_318:\n        /* \"#utility.yul\":9128:9264   */\n      swap1\n      pop\n        /* \"#utility.yul\":8436:9271   */\n      swap6\n      swap5\n      pop\n      pop\n      pop\n      pop\n      pop\n      jump\t// out\n        /* \"#utility.yul\":9277:10436   */\n    tag_31:\n        /* \"#utility.yul\":9384:9390   */\n      0x00\n        /* \"#utility.yul\":9392:9398   */\n      dup1\n        /* \"#utility.yul\":9400:9406   */\n      0x00\n        /* \"#utility.yul\":9449:9451   */\n      0x60\n        /* \"#utility.yul\":9437:9446   */\n      dup5\n        /* \"#utility.yul\":9428:9435   */\n      dup7\n        /* \"#utility.yul\":9424:9447   */\n      sub\n        /* \"#utility.yul\":9420:9452   */\n      slt\n        /* \"#utility.yul\":9417:9536   */\n      iszero\n      tag_320\n      jumpi\n        /* \"#utility.yul\":9455:9534   */\n      tag_321\n      tag_167\n      jump\t// in\n    tag_321:\n        /* \"#utility.yul\":9417:9536   */\n    tag_320:\n        /* \"#utility.yul\":9603:9604   */\n      0x00\n        /* \"#utility.yul\":9592:9601   */\n      dup5\n        /* \"#utility.yul\":9588:9605   */\n      add\n        /* \"#utility.yul\":9575:9606   */\n      calldataload\n        /* \"#utility.yul\":9633:9651   */\n      0xffffffffffffffff\n        /* \"#utility.yul\":9625:9631   */\n      dup2\n        /* \"#utility.yul\":9622:9652   */\n      gt\n        /* \"#utility.yul\":9619:9736   */\n      iszero\n      tag_322\n      jumpi\n        /* \"#utility.yul\":9655:9734   */\n      tag_323\n      tag_168\n      jump\t// in\n    tag_323:\n        /* \"#utility.yul\":9619:9736   */\n    tag_322:\n        /* \"#utility.yul\":9760:9823   */\n      tag_324\n        /* \"#utility.yul\":9815:9822   */\n      dup7\n        /* \"#utility.yul\":9806:9812   */\n      dup3\n        /* \"#utility.yul\":9795:9804   */\n      dup8\n        /* \"#utility.yul\":9791:9813   */\n      add\n        /* \"#utility.yul\":9760:9823   */\n      tag_177\n      jump\t// in\n    tag_324:\n        /* \"#utility.yul\":9750:9823   */\n      swap4\n      pop\n        /* \"#utility.yul\":9546:9833   */\n      pop\n        /* \"#utility.yul\":9900:9902   */\n      0x20\n        /* \"#utility.yul\":9889:9898   */\n      dup5\n        /* \"#utility.yul\":9885:9903   */\n      add\n        /* \"#utility.yul\":9872:9904   */\n      calldataload\n        /* \"#utility.yul\":9931:9949   */\n      0xffffffffffffffff\n        /* \"#utility.yul\":9923:9929   */\n      dup2\n        /* \"#utility.yul\":9920:9950   */\n      gt\n        /* \"#utility.yul\":9917:10034   */\n      iszero\n      tag_325\n      jumpi\n        /* \"#utility.yul\":9953:10032   */\n      tag_326\n      tag_168\n      jump\t// in\n    tag_326:\n        /* \"#utility.yul\":9917:10034   */\n    tag_325:\n        /* \"#utility.yul\":10058:10121   */\n      tag_327\n        /* \"#utility.yul\":10113:10120   */\n      dup7\n        /* \"#utility.yul\":10104:10110   */\n      dup3\n        /* \"#utility.yul\":10093:10102   */\n      dup8\n        /* \"#utility.yul\":10089:10111   */\n      add\n        /* \"#utility.yul\":10058:10121   */\n      tag_177\n      jump\t// in\n    tag_327:\n        /* \"#utility.yul\":10048:10121   */\n      swap3\n      pop\n        /* \"#utility.yul\":9843:10131   */\n      pop\n        /* \"#utility.yul\":10198:10200   */\n      0x40\n        /* \"#utility.yul\":10187:10196   */\n      dup5\n        /* \"#utility.yul\":10183:10201   */\n      add\n        /* \"#utility.yul\":10170:10202   */\n      calldataload\n        /* \"#utility.yul\":10229:10247   */\n      0xffffffffffffffff\n        /* \"#utility.yul\":10221:10227   */\n      dup2\n        /* \"#utility.yul\":10218:10248   */\n      gt\n        /* \"#utility.yul\":10215:10332   */\n      iszero\n      tag_328\n      jumpi\n        /* \"#utility.yul\":10251:10330   */\n      tag_329\n      tag_168\n      jump\t// in\n    tag_329:\n        /* \"#utility.yul\":10215:10332   */\n    tag_328:\n        /* \"#utility.yul\":10356:10419   */\n      tag_330\n        /* \"#utility.yul\":10411:10418   */\n      dup7\n        /* \"#utility.yul\":10402:10408   */\n      dup3\n        /* \"#utility.yul\":10391:10400   */\n      dup8\n        /* \"#utility.yul\":10387:10409   */\n      add\n        /* \"#utility.yul\":10356:10419   */\n      tag_177\n      jump\t// in\n    tag_330:\n        /* \"#utility.yul\":10346:10419   */\n      swap2\n      pop\n        /* \"#utility.yul\":10141:10429   */\n      pop\n        /* \"#utility.yul\":9277:10436   */\n      swap3\n      pop\n      swap3\n      pop\n      swap3\n      jump\t// out\n        /* \"#utility.yul\":10442:11177   */\n    tag_40:\n        /* \"#utility.yul\":10659:10663   */\n      0x00\n        /* \"#utility.yul\":10697:10700   */\n      0x80\n        /* \"#utility.yul\":10686:10695   */\n      dup3\n        /* \"#utility.yul\":10682:10701   */\n      add\n        /* \"#utility.yul\":10674:10701   */\n      swap1\n      pop\n        /* \"#utility.yul\":10747:10756   */\n      dup2\n        /* \"#utility.yul\":10741:10745   */\n      dup2\n        /* \"#utility.yul\":10737:10757   */\n      sub\n        /* \"#utility.yul\":10733:10734   */\n      0x00\n        /* \"#utility.yul\":10722:10731   */\n      dup4\n        /* \"#utility.yul\":10718:10735   */\n      add\n        /* \"#utility.yul\":10711:10758   */\n      mstore\n        /* \"#utility.yul\":10775:10853   */\n      tag_332\n        /* \"#utility.yul\":10848:10852   */\n      dup2\n        /* \"#utility.yul\":10839:10845   */\n      dup8\n        /* \"#utility.yul\":10775:10853   */\n      tag_185\n      jump\t// in\n    tag_332:\n        /* \"#utility.yul\":10767:10853   */\n      swap1\n      pop\n        /* \"#utility.yul\":10863:10935   */\n      tag_333\n        /* \"#utility.yul\":10931:10933   */\n      0x20\n        /* \"#utility.yul\":10920:10929   */\n      dup4\n        /* \"#utility.yul\":10916:10934   */\n      add\n        /* \"#utility.yul\":10907:10913   */\n      dup7\n        /* \"#utility.yul\":10863:10935   */\n      tag_181\n      jump\t// in\n    tag_333:\n        /* \"#utility.yul\":10982:10991   */\n      dup2\n        /* \"#utility.yul\":10976:10980   */\n      dup2\n        /* \"#utility.yul\":10972:10992   */\n      sub\n        /* \"#utility.yul\":10967:10969   */\n      0x40\n        /* \"#utility.yul\":10956:10965   */\n      dup4\n        /* \"#utility.yul\":10952:10970   */\n      add\n        /* \"#utility.yul\":10945:10993   */\n      mstore\n        /* \"#utility.yul\":11010:11088   */\n      tag_334\n        /* \"#utility.yul\":11083:11087   */\n      dup2\n        /* \"#utility.yul\":11074:11080   */\n      dup6\n        /* \"#utility.yul\":11010:11088   */\n      tag_185\n      jump\t// in\n    tag_334:\n        /* \"#utility.yul\":11002:11088   */\n      swap1\n      pop\n        /* \"#utility.yul\":11098:11170   */\n      tag_335\n        /* \"#utility.yul\":11166:11168   */\n      0x60\n        /* \"#utility.yul\":11155:11164   */\n      dup4\n        /* \"#utility.yul\":11151:11169   */\n      add\n        /* \"#utility.yul\":11142:11148   */\n      dup5\n        /* \"#utility.yul\":11098:11170   */\n      tag_181\n      jump\t// in\n    tag_335:\n        /* \"#utility.yul\":10442:11177   */\n      swap6\n      swap5\n      pop\n      pop\n      pop\n      pop\n      pop\n      jump\t// out\n        /* \"#utility.yul\":11183:11309   */\n    tag_194:\n        /* \"#utility.yul\":11220:11227   */\n      0x00\n        /* \"#utility.yul\":11260:11302   */\n      0xffffffffffffffffffffffffffffffffffffffff\n        /* \"#utility.yul\":11253:11258   */\n      dup3\n        /* \"#utility.yul\":11249:11303   */\n      and\n        /* \"#utility.yul\":11238:11303   */\n      swap1\n      pop\n        /* \"#utility.yul\":11183:11309   */\n      swap2\n      swap1\n      pop\n      jump\t// out\n        /* \"#utility.yul\":11315:11411   */\n    tag_195:\n        /* \"#utility.yul\":11352:11359   */\n      0x00\n        /* \"#utility.yul\":11381:11405   */\n      tag_338\n        /* \"#utility.yul\":11399:11404   */\n      dup3\n        /* \"#utility.yul\":11381:11405   */\n      tag_194\n      jump\t// in\n    tag_338:\n        /* \"#utility.yul\":11370:11405   */\n      swap1\n      pop\n        /* \"#utility.yul\":11315:11411   */\n      swap2\n      swap1\n      pop\n      jump\t// out\n        /* \"#utility.yul\":11417:11539   */\n    tag_196:\n        /* \"#utility.yul\":11490:11514   */\n      tag_340\n        /* \"#utility.yul\":11508:11513   */\n      dup2\n        /* \"#utility.yul\":11490:11514   */\n      tag_195\n      jump\t// in\n    tag_340:\n        /* \"#utility.yul\":11483:11488   */\n      dup2\n        /* \"#utility.yul\":11480:11515   */\n      eq\n        /* \"#utility.yul\":11470:11533   */\n      tag_341\n      jumpi\n        /* \"#utility.yul\":11529:11530   */\n      0x00\n        /* \"#utility.yul\":11526:11527   */\n      dup1\n        /* \"#utility.yul\":11519:11531   */\n      revert\n        /* \"#utility.yul\":11470:11533   */\n    tag_341:\n        /* \"#utility.yul\":11417:11539   */\n      pop\n      jump\t// out\n        /* \"#utility.yul\":11545:11684   */\n    tag_197:\n        /* \"#utility.yul\":11591:11596   */\n      0x00\n        /* \"#utility.yul\":11629:11635   */\n      dup2\n        /* \"#utility.yul\":11616:11636   */\n      calldataload\n        /* \"#utility.yul\":11607:11636   */\n      swap1\n      pop\n        /* \"#utility.yul\":11645:11678   */\n      tag_343\n        /* \"#utility.yul\":11672:11677   */\n      dup2\n        /* \"#utility.yul\":11645:11678   */\n      tag_196\n      jump\t// in\n    tag_343:\n        /* \"#utility.yul\":11545:11684   */\n      swap3\n      swap2\n      pop\n      pop\n      jump\t// out\n        /* \"#utility.yul\":11690:12019   */\n    tag_43:\n        /* \"#utility.yul\":11749:11755   */\n      0x00\n        /* \"#utility.yul\":11798:11800   */\n      0x20\n        /* \"#utility.yul\":11786:11795   */\n      dup3\n        /* \"#utility.yul\":11777:11784   */\n      dup5\n        /* \"#utility.yul\":11773:11796   */\n      sub\n        /* \"#utility.yul\":11769:11801   */\n      slt\n        /* \"#utility.yul\":11766:11885   */\n      iszero\n      tag_345\n      jumpi\n        /* \"#utility.yul\":11804:11883   */\n      tag_346\n      tag_167\n      jump\t// in\n    tag_346:\n        /* \"#utility.yul\":11766:11885   */\n    tag_345:\n        /* \"#utility.yul\":11924:11925   */\n      0x00\n        /* \"#utility.yul\":11949:12002   */\n      tag_347\n        /* \"#utility.yul\":11994:12001   */\n      dup5\n        /* \"#utility.yul\":11985:11991   */\n      dup3\n        /* \"#utility.yul\":11974:11983   */\n      dup6\n        /* \"#utility.yul\":11970:11992   */\n      add\n        /* \"#utility.yul\":11949:12002   */\n      tag_197\n      jump\t// in\n    tag_347:\n        /* \"#utility.yul\":11939:12002   */\n      swap2\n      pop\n        /* \"#utility.yul\":11895:12012   */\n      pop\n        /* \"#utility.yul\":11690:12019   */\n      swap3\n      swap2\n      pop\n      pop\n      jump\t// out\n        /* \"#utility.yul\":12025:12139   */\n    tag_198:\n        /* \"#utility.yul\":12092:12098   */\n      0x00\n        /* \"#utility.yul\":12126:12131   */\n      dup2\n        /* \"#utility.yul\":12120:12132   */\n      mload\n        /* \"#utility.yul\":12110:12132   */\n      swap1\n      pop\n        /* \"#utility.yul\":12025:12139   */\n      swap2\n      swap1\n      pop\n      jump\t// out\n        /* \"#utility.yul\":12145:12329   */\n    tag_199:\n        /* \"#utility.yul\":12244:12255   */\n      0x00\n        /* \"#utility.yul\":12278:12284   */\n      dup3\n        /* \"#utility.yul\":12273:12276   */\n      dup3\n        /* \"#utility.yul\":12266:12285   */\n      mstore\n        /* \"#utility.yul\":12318:12322   */\n      0x20\n        /* \"#utility.yul\":12313:12316   */\n      dup3\n        /* \"#utility.yul\":12309:12323   */\n      add\n        /* \"#utility.yul\":12294:12323   */\n      swap1\n      pop\n        /* \"#utility.yul\":12145:12329   */\n      swap3\n      swap2\n      pop\n      pop\n      jump\t// out\n        /* \"#utility.yul\":12335:12467   */\n    tag_200:\n        /* \"#utility.yul\":12402:12406   */\n      0x00\n        /* \"#utility.yul\":12425:12428   */\n      dup2\n        /* \"#utility.yul\":12417:12428   */\n      swap1\n      pop\n        /* \"#utility.yul\":12455:12459   */\n      0x20\n        /* \"#utility.yul\":12450:12453   */\n      dup3\n        /* \"#utility.yul\":12446:12460   */\n      add\n        /* \"#utility.yul\":12438:12460   */\n      swap1\n      pop\n        /* \"#utility.yul\":12335:12467   */\n      swap2\n      swap1\n      pop\n      jump\t// out\n        /* \"#utility.yul\":12473:12581   */\n    tag_201:\n        /* \"#utility.yul\":12550:12574   */\n      tag_352\n        /* \"#utility.yul\":12568:12573   */\n      dup2\n        /* \"#utility.yul\":12550:12574   */\n      tag_178\n      jump\t// in\n    tag_352:\n        /* \"#utility.yul\":12545:12548   */\n      dup3\n        /* \"#utility.yul\":12538:12575   */\n      mstore\n        /* \"#utility.yul\":12473:12581   */\n      pop\n      pop\n      jump\t// out\n        /* \"#utility.yul\":12587:12766   */\n    tag_202:\n        /* \"#utility.yul\":12656:12666   */\n      0x00\n        /* \"#utility.yul\":12677:12723   */\n      tag_354\n        /* \"#utility.yul\":12719:12722   */\n      dup4\n        /* \"#utility.yul\":12711:12717   */\n      dup4\n        /* \"#utility.yul\":12677:12723   */\n      tag_201\n      jump\t// in\n    tag_354:\n        /* \"#utility.yul\":12755:12759   */\n      0x20\n        /* \"#utility.yul\":12750:12753   */\n      dup4\n        /* \"#utility.yul\":12746:12760   */\n      add\n        /* \"#utility.yul\":12732:12760   */\n      swap1\n      pop\n        /* \"#utility.yul\":12587:12766   */\n      swap3\n      swap2\n      pop\n      pop\n      jump\t// out\n        /* \"#utility.yul\":12772:12885   */\n    tag_203:\n        /* \"#utility.yul\":12842:12846   */\n      0x00\n        /* \"#utility.yul\":12874:12878   */\n      0x20\n        /* \"#utility.yul\":12869:12872   */\n      dup3\n        /* \"#utility.yul\":12865:12879   */\n      add\n        /* \"#utility.yul\":12857:12879   */\n      swap1\n      pop\n        /* \"#utility.yul\":12772:12885   */\n      swap2\n      swap1\n      pop\n      jump\t// out\n        /* \"#utility.yul\":12921:13653   */\n    tag_204:\n        /* \"#utility.yul\":13040:13043   */\n      0x00\n        /* \"#utility.yul\":13069:13123   */\n      tag_357\n        /* \"#utility.yul\":13117:13122   */\n      dup3\n        /* \"#utility.yul\":13069:13123   */\n      tag_198\n      jump\t// in\n    tag_357:\n        /* \"#utility.yul\":13139:13225   */\n      tag_358\n        /* \"#utility.yul\":13218:13224   */\n      dup2\n        /* \"#utility.yul\":13213:13216   */\n      dup6\n        /* \"#utility.yul\":13139:13225   */\n      tag_199\n      jump\t// in\n    tag_358:\n        /* \"#utility.yul\":13132:13225   */\n      swap4\n      pop\n        /* \"#utility.yul\":13249:13305   */\n      tag_359\n        /* \"#utility.yul\":13299:13304   */\n      dup4\n        /* \"#utility.yul\":13249:13305   */\n      tag_200\n      jump\t// in\n    tag_359:\n        /* \"#utility.yul\":13328:13335   */\n      dup1\n        /* \"#utility.yul\":13359:13360   */\n      0x00\n        /* \"#utility.yul\":13344:13628   */\n    tag_360:\n        /* \"#utility.yul\":13369:13375   */\n      dup4\n        /* \"#utility.yul\":13366:13367   */\n      dup2\n        /* \"#utility.yul\":13363:13376   */\n      lt\n        /* \"#utility.yul\":13344:13628   */\n      iszero\n      tag_362\n      jumpi\n        /* \"#utility.yul\":13445:13451   */\n      dup2\n        /* \"#utility.yul\":13439:13452   */\n      mload\n        /* \"#utility.yul\":13472:13535   */\n      tag_363\n        /* \"#utility.yul\":13531:13534   */\n      dup9\n        /* \"#utility.yul\":13516:13529   */\n      dup3\n        /* \"#utility.yul\":13472:13535   */\n      tag_202\n      jump\t// in\n    tag_363:\n        /* \"#utility.yul\":13465:13535   */\n      swap8\n      pop\n        /* \"#utility.yul\":13558:13618   */\n      tag_364\n        /* \"#utility.yul\":13611:13617   */\n      dup4\n        /* \"#utility.yul\":13558:13618   */\n      tag_203\n      jump\t// in\n    tag_364:\n        /* \"#utility.yul\":13548:13618   */\n      swap3\n      pop\n        /* \"#utility.yul\":13404:13628   */\n      pop\n        /* \"#utility.yul\":13391:13392   */\n      0x01\n        /* \"#utility.yul\":13388:13389   */\n      dup2\n        /* \"#utility.yul\":13384:13393   */\n      add\n        /* \"#utility.yul\":13379:13393   */\n      swap1\n      pop\n        /* \"#utility.yul\":13344:13628   */\n      jump(tag_360)\n    tag_362:\n        /* \"#utility.yul\":13348:13362   */\n      pop\n        /* \"#utility.yul\":13644:13647   */\n      dup6\n        /* \"#utility.yul\":13637:13647   */\n      swap4\n      pop\n        /* \"#utility.yul\":13045:13653   */\n      pop\n      pop\n      pop\n        /* \"#utility.yul\":12921:13653   */\n      swap3\n      swap2\n      pop\n      pop\n      jump\t// out\n        /* \"#utility.yul\":13659:14032   */\n    tag_46:\n        /* \"#utility.yul\":13802:13806   */\n      0x00\n        /* \"#utility.yul\":13840:13842   */\n      0x20\n        /* \"#utility.yul\":13829:13838   */\n      dup3\n        /* \"#utility.yul\":13825:13843   */\n      add\n        /* \"#utility.yul\":13817:13843   */\n      swap1\n      pop\n        /* \"#utility.yul\":13889:13898   */\n      dup2\n        /* \"#utility.yul\":13883:13887   */\n      dup2\n        /* \"#utility.yul\":13879:13899   */\n      sub\n        /* \"#utility.yul\":13875:13876   */\n      0x00\n        /* \"#utility.yul\":13864:13873   */\n      dup4\n        /* \"#utility.yul\":13860:13877   */\n      add\n        /* \"#utility.yul\":13853:13900   */\n      mstore\n        /* \"#utility.yul\":13917:14025   */\n      tag_366\n        /* \"#utility.yul\":14020:14024   */\n      dup2\n        /* \"#utility.yul\":14011:14017   */\n      dup5\n        /* \"#utility.yul\":13917:14025   */\n      tag_204\n      jump\t// in\n    tag_366:\n        /* \"#utility.yul\":13909:14025   */\n      swap1\n      pop\n        /* \"#utility.yul\":13659:14032   */\n      swap3\n      swap2\n      pop\n      pop\n      jump\t// out\n        /* \"#utility.yul\":14038:14547   */\n    tag_49:\n        /* \"#utility.yul\":14107:14113   */\n      0x00\n        /* \"#utility.yul\":14156:14158   */\n      0x20\n        /* \"#utility.yul\":14144:14153   */\n      dup3\n        /* \"#utility.yul\":14135:14142   */\n      dup5\n        /* \"#utility.yul\":14131:14154   */\n      sub\n        /* \"#utility.yul\":14127:14159   */\n      slt\n        /* \"#utility.yul\":14124:14243   */\n      iszero\n      tag_368\n      jumpi\n        /* \"#utility.yul\":14162:14241   */\n      tag_369\n      tag_167\n      jump\t// in\n    tag_369:\n        /* \"#utility.yul\":14124:14243   */\n    tag_368:\n        /* \"#utility.yul\":14310:14311   */\n      0x00\n        /* \"#utility.yul\":14299:14308   */\n      dup3\n        /* \"#utility.yul\":14295:14312   */\n      add\n        /* \"#utility.yul\":14282:14313   */\n      calldataload\n        /* \"#utility.yul\":14340:14358   */\n      0xffffffffffffffff\n        /* \"#utility.yul\":14332:14338   */\n      dup2\n        /* \"#utility.yul\":14329:14359   */\n      gt\n        /* \"#utility.yul\":14326:14443   */\n      iszero\n      tag_370\n      jumpi\n        /* \"#utility.yul\":14362:14441   */\n      tag_371\n      tag_168\n      jump\t// in\n    tag_371:\n        /* \"#utility.yul\":14326:14443   */\n    tag_370:\n        /* \"#utility.yul\":14467:14530   */\n      tag_372\n        /* \"#utility.yul\":14522:14529   */\n      dup5\n        /* \"#utility.yul\":14513:14519   */\n      dup3\n        /* \"#utility.yul\":14502:14511   */\n      dup6\n        /* \"#utility.yul\":14498:14520   */\n      add\n        /* \"#utility.yul\":14467:14530   */\n      tag_177\n      jump\t// in\n    tag_372:\n        /* \"#utility.yul\":14457:14530   */\n      swap2\n      pop\n        /* \"#utility.yul\":14253:14540   */\n      pop\n        /* \"#utility.yul\":14038:14547   */\n      swap3\n      swap2\n      pop\n      pop\n      jump\t// out\n        /* \"#utility.yul\":14553:15379   */\n    tag_55:\n        /* \"#utility.yul\":14790:14794   */\n      0x00\n        /* \"#utility.yul\":14828:14831   */\n      0x80\n        /* \"#utility.yul\":14817:14826   */\n      dup3\n        /* \"#utility.yul\":14813:14832   */\n      add\n        /* \"#utility.yul\":14805:14832   */\n      swap1\n      pop\n        /* \"#utility.yul\":14842:14913   */\n      tag_374\n        /* \"#utility.yul\":14910:14911   */\n      0x00\n        /* \"#utility.yul\":14899:14908   */\n      dup4\n        /* \"#utility.yul\":14895:14912   */\n      add\n        /* \"#utility.yul\":14886:14892   */\n      dup8\n        /* \"#utility.yul\":14842:14913   */\n      tag_181\n      jump\t// in\n    tag_374:\n        /* \"#utility.yul\":14960:14969   */\n      dup2\n        /* \"#utility.yul\":14954:14958   */\n      dup2\n        /* \"#utility.yul\":14950:14970   */\n      sub\n        /* \"#utility.yul\":14945:14947   */\n      0x20\n        /* \"#utility.yul\":14934:14943   */\n      dup4\n        /* \"#utility.yul\":14930:14948   */\n      add\n        /* \"#utility.yul\":14923:14971   */\n      mstore\n        /* \"#utility.yul\":14988:15066   */\n      tag_375\n        /* \"#utility.yul\":15061:15065   */\n      dup2\n        /* \"#utility.yul\":15052:15058   */\n      dup7\n        /* \"#utility.yul\":14988:15066   */\n      tag_185\n      jump\t// in\n    tag_375:\n        /* \"#utility.yul\":14980:15066   */\n      swap1\n      pop\n        /* \"#utility.yul\":15113:15122   */\n      dup2\n        /* \"#utility.yul\":15107:15111   */\n      dup2\n        /* \"#utility.yul\":15103:15123   */\n      sub\n        /* \"#utility.yul\":15098:15100   */\n      0x40\n        /* \"#utility.yul\":15087:15096   */\n      dup4\n        /* \"#utility.yul\":15083:15101   */\n      add\n        /* \"#utility.yul\":15076:15124   */\n      mstore\n        /* \"#utility.yul\":15141:15219   */\n      tag_376\n        /* \"#utility.yul\":15214:15218   */\n      dup2\n        /* \"#utility.yul\":15205:15211   */\n      dup6\n        /* \"#utility.yul\":15141:15219   */\n      tag_185\n      jump\t// in\n    tag_376:\n        /* \"#utility.yul\":15133:15219   */\n      swap1\n      pop\n        /* \"#utility.yul\":15266:15275   */\n      dup2\n        /* \"#utility.yul\":15260:15264   */\n      dup2\n        /* \"#utility.yul\":15256:15276   */\n      sub\n        /* \"#utility.yul\":15251:15253   */\n      0x60\n        /* \"#utility.yul\":15240:15249   */\n      dup4\n        /* \"#utility.yul\":15236:15254   */\n      add\n        /* \"#utility.yul\":15229:15277   */\n      mstore\n        /* \"#utility.yul\":15294:15372   */\n      tag_377\n        /* \"#utility.yul\":15367:15371   */\n      dup2\n        /* \"#utility.yul\":15358:15364   */\n      dup5\n        /* \"#utility.yul\":15294:15372   */\n      tag_185\n      jump\t// in\n    tag_377:\n        /* \"#utility.yul\":15286:15372   */\n      swap1\n      pop\n        /* \"#utility.yul\":14553:15379   */\n      swap6\n      swap5\n      pop\n      pop\n      pop\n      pop\n      pop\n      jump\t// out\n        /* \"#utility.yul\":15385:15859   */\n    tag_58:\n        /* \"#utility.yul\":15453:15459   */\n      0x00\n        /* \"#utility.yul\":15461:15467   */\n      dup1\n        /* \"#utility.yul\":15510:15512   */\n      0x40\n        /* \"#utility.yul\":15498:15507   */\n      dup4\n        /* \"#utility.yul\":15489:15496   */\n      dup6\n        /* \"#utility.yul\":15485:15508   */\n      sub\n        /* \"#utility.yul\":15481:15513   */\n      slt\n        /* \"#utility.yul\":15478:15597   */\n      iszero\n      tag_379\n      jumpi\n        /* \"#utility.yul\":15516:15595   */\n      tag_380\n      tag_167\n      jump\t// in\n    tag_380:\n        /* \"#utility.yul\":15478:15597   */\n    tag_379:\n        /* \"#utility.yul\":15636:15637   */\n      0x00\n        /* \"#utility.yul\":15661:15714   */\n      tag_381\n        /* \"#utility.yul\":15706:15713   */\n      dup6\n        /* \"#utility.yul\":15697:15703   */\n      dup3\n        /* \"#utility.yul\":15686:15695   */\n      dup7\n        /* \"#utility.yul\":15682:15704   */\n      add\n        /* \"#utility.yul\":15661:15714   */\n      tag_180\n      jump\t// in\n    tag_381:\n        /* \"#utility.yul\":15651:15714   */\n      swap3\n      pop\n        /* \"#utility.yul\":15607:15724   */\n      pop\n        /* \"#utility.yul\":15763:15765   */\n      0x20\n        /* \"#utility.yul\":15789:15842   */\n      tag_382\n        /* \"#utility.yul\":15834:15841   */\n      dup6\n        /* \"#utility.yul\":15825:15831   */\n      dup3\n        /* \"#utility.yul\":15814:15823   */\n      dup7\n        /* \"#utility.yul\":15810:15832   */\n      add\n        /* \"#utility.yul\":15789:15842   */\n      tag_197\n      jump\t// in\n    tag_382:\n        /* \"#utility.yul\":15779:15842   */\n      swap2\n      pop\n        /* \"#utility.yul\":15734:15852   */\n      pop\n        /* \"#utility.yul\":15385:15859   */\n      swap3\n      pop\n      swap3\n      swap1\n      pop\n      jump\t// out\n        /* \"#utility.yul\":15865:16045   */\n    tag_205:\n        /* \"#utility.yul\":15913:15990   */\n      0x4e487b7100000000000000000000000000000000000000000000000000000000\n        /* \"#utility.yul\":15910:15911   */\n      0x00\n        /* \"#utility.yul\":15903:15991   */\n      mstore\n        /* \"#utility.yul\":16010:16014   */\n      0x11\n        /* \"#utility.yul\":16007:16008   */\n      0x04\n        /* \"#utility.yul\":16000:16015   */\n      mstore\n        /* \"#utility.yul\":16034:16038   */\n      0x24\n        /* \"#utility.yul\":16031:16032   */\n      0x00\n        /* \"#utility.yul\":16024:16039   */\n      revert\n        /* \"#utility.yul\":16051:16284   */\n    tag_65:\n        /* \"#utility.yul\":16090:16093   */\n      0x00\n        /* \"#utility.yul\":16113:16137   */\n      tag_385\n        /* \"#utility.yul\":16131:16136   */\n      dup3\n        /* \"#utility.yul\":16113:16137   */\n      tag_178\n      jump\t// in\n    tag_385:\n        /* \"#utility.yul\":16104:16137   */\n      swap2\n      pop\n        /* \"#utility.yul\":16159:16225   */\n      0xffffffffffffffffffffffffffffffffffffffffffffffffffffffffffffffff\n        /* \"#utility.yul\":16152:16157   */\n      dup3\n        /* \"#utility.yul\":16149:16226   */\n      sub\n        /* \"#utility.yul\":16146:16249   */\n      tag_386\n      jumpi\n        /* \"#utility.yul\":16229:16247   */\n      tag_387\n      tag_205\n      jump\t// in\n    tag_387:\n        /* \"#utility.yul\":16146:16249   */\n    tag_386:\n        /* \"#utility.yul\":16276:16277   */\n      0x01\n        /* \"#utility.yul\":16269:16274   */\n      dup3\n        /* \"#utility.yul\":16265:16278   */\n      add\n        /* \"#utility.yul\":16258:16278   */\n      swap1\n      pop\n        /* \"#utility.yul\":16051:16284   */\n      swap2\n      swap1\n      pop\n      jump\t// out\n        /* \"#utility.yul\":16290:16470   */\n    tag_206:\n        /* \"#utility.yul\":16338:16415   */\n      0x4e487b7100000000000000000000000000000000000000000000000000000000\n        /* \"#utility.yul\":16335:16336   */\n      0x00\n        /* \"#utility.yul\":16328:16416   */\n      mstore\n        /* \"#utility.yul\":16435:16439   */\n      0x22\n        /* \"#utility.yul\":16432:16433   */\n      0x04\n        /* \"#utility.yul\":16425:16440   */\n      mstore\n        /* \"#utility.yul\":16459:16463   */\n      0x24\n        /* \"#utility.yul\":16456:16457   */\n      0x00\n        /* \"#utility.yul\":16449:16464   */\n      revert\n        /* \"#utility.yul\":16476:16796   */\n    tag_81:\n        /* \"#utility.yul\":16520:16526   */\n      0x00\n        /* \"#utility.yul\":16557:16558   */\n      0x02\n        /* \"#utility.yul\":16551:16555   */\n      dup3\n        /* \"#utility.yul\":16547:16559   */\n      div\n        /* \"#utility.yul\":16537:16559   */\n      swap1\n      pop\n        /* \"#utility.yul\":16604:16605   */\n      0x01\n        /* \"#utility.yul\":16598:16602   */\n      dup3\n        /* \"#utility.yul\":16594:16606   */\n      and\n        /* \"#utility.yul\":16625:16643   */\n      dup1\n        /* \"#utility.yul\":16615:16696   */\n      tag_390\n      jumpi\n        /* \"#utility.yul\":16681:16685   */\n      0x7f\n        /* \"#utility.yul\":16673:16679   */\n      dup3\n        /* \"#utility.yul\":16669:16686   */\n      and\n        /* \"#utility.yul\":16659:16686   */\n      swap2\n      pop\n        /* \"#utility.yul\":16615:16696   */\n    tag_390:\n        /* \"#utility.yul\":16743:16745   */\n      0x20\n        /* \"#utility.yul\":16735:16741   */\n      dup3\n        /* \"#utility.yul\":16732:16746   */\n      lt\n        /* \"#utility.yul\":16712:16730   */\n      dup2\n        /* \"#utility.yul\":16709:16747   */\n      sub\n        /* \"#utility.yul\":16706:16790   */\n      tag_391\n      jumpi\n        /* \"#utility.yul\":16762:16780   */\n      tag_392\n      tag_206\n      jump\t// in\n    tag_392:\n        /* \"#utility.yul\":16706:16790   */\n    tag_391:\n        /* \"#utility.yul\":16527:16796   */\n      pop\n        /* \"#utility.yul\":16476:16796   */\n      swap2\n      swap1\n      pop\n      jump\t// out\n        /* \"#utility.yul\":16802:16943   */\n    tag_207:\n        /* \"#utility.yul\":16851:16855   */\n      0x00\n        /* \"#utility.yul\":16874:16877   */\n      dup2\n        /* \"#utility.yul\":16866:16877   */\n      swap1\n      pop\n        /* \"#utility.yul\":16897:16900   */\n      dup2\n        /* \"#utility.yul\":16894:16895   */\n      0x00\n        /* \"#utility.yul\":16887:16901   */\n      mstore\n        /* \"#utility.yul\":16931:16935   */\n      0x20\n        /* \"#utility.yul\":16928:16929   */\n      0x00\n        /* \"#utility.yul\":16918:16936   */\n      keccak256\n        /* \"#utility.yul\":16910:16936   */\n      swap1\n      pop\n        /* \"#utility.yul\":16802:16943   */\n      swap2\n      swap1\n      pop\n      jump\t// out\n        /* \"#utility.yul\":16949:17042   */\n    tag_208:\n        /* \"#utility.yul\":16986:16992   */\n      0x00\n        /* \"#utility.yul\":17033:17035   */\n      0x20\n        /* \"#utility.yul\":17028:17030   */\n      0x1f\n        /* \"#utility.yul\":17021:17026   */\n      dup4\n        /* \"#utility.yul\":17017:17031   */\n      add\n        /* \"#utility.yul\":17013:17036   */\n      div\n        /* \"#utility.yul\":17003:17036   */\n      swap1\n      pop\n        /* \"#utility.yul\":16949:17042   */\n      swap2\n      swap1\n      pop\n      jump\t// out\n        /* \"#utility.yul\":17048:17155   */\n    tag_209:\n        /* \"#utility.yul\":17092:17100   */\n      0x00\n        /* \"#utility.yul\":17142:17147   */\n      dup3\n        /* \"#utility.yul\":17136:17140   */\n      dup3\n        /* \"#utility.yul\":17132:17148   */\n      shl\n        /* \"#utility.yul\":17111:17148   */\n      swap1\n      pop\n        /* \"#utility.yul\":17048:17155   */\n      swap3\n      swap2\n      pop\n      pop\n      jump\t// out\n        /* \"#utility.yul\":17161:17554   */\n    tag_210:\n        /* \"#utility.yul\":17230:17236   */\n      0x00\n        /* \"#utility.yul\":17280:17281   */\n      0x08\n        /* \"#utility.yul\":17268:17278   */\n      dup4\n        /* \"#utility.yul\":17264:17282   */\n      mul\n        /* \"#utility.yul\":17303:17400   */\n      tag_397\n        /* \"#utility.yul\":17333:17399   */\n      0xffffffffffffffffffffffffffffffffffffffffffffffffffffffffffffffff\n        /* \"#utility.yul\":17322:17331   */\n      dup3\n        /* \"#utility.yul\":17303:17400   */\n      tag_209\n      jump\t// in\n    tag_397:\n        /* \"#utility.yul\":17421:17460   */\n      tag_398\n        /* \"#utility.yul\":17451:17459   */\n      dup7\n        /* \"#utility.yul\":17440:17449   */\n      dup4\n        /* \"#utility.yul\":17421:17460   */\n      tag_209\n      jump\t// in\n    tag_398:\n        /* \"#utility.yul\":17409:17460   */\n      swap6\n      pop\n        /* \"#utility.yul\":17493:17497   */\n      dup1\n        /* \"#utility.yul\":17489:17498   */\n      not\n        /* \"#utility.yul\":17482:17487   */\n      dup5\n        /* \"#utility.yul\":17478:17499   */\n      and\n        /* \"#utility.yul\":17469:17499   */\n      swap4\n      pop\n        /* \"#utility.yul\":17542:17546   */\n      dup1\n        /* \"#utility.yul\":17532:17540   */\n      dup7\n        /* \"#utility.yul\":17528:17547   */\n      and\n        /* \"#utility.yul\":17521:17526   */\n      dup5\n        /* \"#utility.yul\":17518:17548   */\n      or\n        /* \"#utility.yul\":17508:17548   */\n      swap3\n      pop\n        /* \"#utility.yul\":17237:17554   */\n      pop\n      pop\n        /* \"#utility.yul\":17161:17554   */\n      swap4\n      swap3\n      pop\n      pop\n      pop\n      jump\t// out\n        /* \"#utility.yul\":17560:17620   */\n    tag_211:\n        /* \"#utility.yul\":17588:17591   */\n      0x00\n        /* \"#utility.yul\":17609:17614   */\n      dup2\n        /* \"#utility.yul\":17602:17614   */\n      swap1\n      pop\n        /* \"#utility.yul\":17560:17620   */\n      swap2\n      swap1\n      pop\n      jump\t// out\n        /* \"#utility.yul\":17626:17768   */\n    tag_212:\n        /* \"#utility.yul\":17676:17685   */\n      0x00\n        /* \"#utility.yul\":17709:17762   */\n      tag_401\n        /* \"#utility.yul\":17727:17761   */\n      tag_402\n        /* \"#utility.yul\":17736:17760   */\n      tag_403\n        /* \"#utility.yul\":17754:17759   */\n      dup5\n        /* \"#utility.yul\":17736:17760   */\n      tag_178\n      jump\t// in\n    tag_403:\n        /* \"#utility.yul\":17727:17761   */\n      tag_211\n      jump\t// in\n    tag_402:\n        /* \"#utility.yul\":17709:17762   */\n      tag_178\n      jump\t// in\n    tag_401:\n        /* \"#utility.yul\":17696:17762   */\n      swap1\n      pop\n        /* \"#utility.yul\":17626:17768   */\n      swap2\n      swap1\n      pop\n      jump\t// out\n        /* \"#utility.yul\":17774:17849   */\n    tag_213:\n        /* \"#utility.yul\":17817:17820   */\n      0x00\n        /* \"#utility.yul\":17838:17843   */\n      dup2\n        /* \"#utility.yul\":17831:17843   */\n      swap1\n      pop\n        /* \"#utility.yul\":17774:17849   */\n      swap2\n      swap1\n      pop\n      jump\t// out\n        /* \"#utility.yul\":17855:18124   */\n    tag_214:\n        /* \"#utility.yul\":17965:18004   */\n      tag_406\n        /* \"#utility.yul\":17996:18003   */\n      dup4\n        /* \"#utility.yul\":17965:18004   */\n      tag_212\n      jump\t// in\n    tag_406:\n        /* \"#utility.yul\":18026:18117   */\n      tag_407\n        /* \"#utility.yul\":18075:18116   */\n      tag_408\n        /* \"#utility.yul\":18099:18115   */\n      dup3\n        /* \"#utility.yul\":18075:18116   */\n      tag_213\n      jump\t// in\n    tag_408:\n        /* \"#utility.yul\":18067:18073   */\n      dup5\n        /* \"#utility.yul\":18060:18064   */\n      dup5\n        /* \"#utility.yul\":18054:18065   */\n      sload\n        /* \"#utility.yul\":18026:18117   */\n      tag_210\n      jump\t// in\n    tag_407:\n        /* \"#utility.yul\":18020:18024   */\n      dup3\n        /* \"#utility.yul\":18013:18118   */\n      sstore\n        /* \"#utility.yul\":17931:18124   */\n      pop\n        /* \"#utility.yul\":17855:18124   */\n      pop\n      pop\n      pop\n      jump\t// out\n        /* \"#utility.yul\":18130:18203   */\n    tag_215:\n        /* \"#utility.yul\":18175:18178   */\n      0x00\n        /* \"#utility.yul\":18130:18203   */\n      swap1\n      jump\t// out\n        /* \"#utility.yul\":18209:18398   */\n    tag_216:\n        /* \"#utility.yul\":18286:18318   */\n      tag_411\n      tag_215\n      jump\t// in\n    tag_411:\n        /* \"#utility.yul\":18327:18392   */\n      tag_412\n        /* \"#utility.yul\":18385:18391   */\n      dup2\n        /* \"#utility.yul\":18377:18383   */\n      dup5\n        /* \"#utility.yul\":18371:18375   */\n      dup5\n        /* \"#utility.yul\":18327:18392   */\n      tag_214\n      jump\t// in\n    tag_412:\n        /* \"#utility.yul\":18262:18398   */\n      pop\n        /* \"#utility.yul\":18209:18398   */\n      pop\n      pop\n      jump\t// out\n        /* \"#utility.yul\":18404:18590   */\n    tag_217:\n        /* \"#utility.yul\":18464:18584   */\n    tag_414:\n        /* \"#utility.yul\":18481:18484   */\n      dup2\n        /* \"#utility.yul\":18474:18479   */\n      dup2\n        /* \"#utility.yul\":18471:18485   */\n      lt\n        /* \"#utility.yul\":18464:18584   */\n      iszero\n      tag_416\n      jumpi\n        /* \"#utility.yul\":18535:18574   */\n      tag_417\n        /* \"#utility.yul\":18572:18573   */\n      0x00\n        /* \"#utility.yul\":18565:18570   */\n      dup3\n        /* \"#utility.yul\":18535:18574   */\n      tag_216\n      jump\t// in\n    tag_417:\n        /* \"#utility.yul\":18508:18509   */\n      0x01\n        /* \"#utility.yul\":18501:18506   */\n      dup2\n        /* \"#utility.yul\":18497:18510   */\n      add\n        /* \"#utility.yul\":18488:18510   */\n      swap1\n      pop\n        /* \"#utility.yul\":18464:18584   */\n      jump(tag_414)\n    tag_416:\n        /* \"#utility.yul\":18404:18590   */\n      pop\n      pop\n      jump\t// out\n        /* \"#utility.yul\":18596:19139   */\n    tag_218:\n        /* \"#utility.yul\":18697:18699   */\n      0x1f\n        /* \"#utility.yul\":18692:18695   */\n      dup3\n        /* \"#utility.yul\":18689:18700   */\n      gt\n        /* \"#utility.yul\":18686:19132   */\n      iszero\n      tag_419\n      jumpi\n        /* \"#utility.yul\":18731:18769   */\n      tag_420\n        /* \"#utility.yul\":18763:18768   */\n      dup2\n        /* \"#utility.yul\":18731:18769   */\n      tag_207\n      jump\t// in\n    tag_420:\n        /* \"#utility.yul\":18815:18844   */\n      tag_421\n        /* \"#utility.yul\":18833:18843   */\n      dup5\n        /* \"#utility.yul\":18815:18844   */\n      tag_208\n      jump\t// in\n    tag_421:\n        /* \"#utility.yul\":18805:18813   */\n      dup2\n        /* \"#utility.yul\":18801:18845   */\n      add\n        /* \"#utility.yul\":18998:19000   */\n      0x20\n        /* \"#utility.yul\":18986:18996   */\n      dup6\n        /* \"#utility.yul\":18983:19001   */\n      lt\n        /* \"#utility.yul\":18980:19029   */\n      iszero\n      tag_422\n      jumpi\n        /* \"#utility.yul\":19019:19027   */\n      dup2\n        /* \"#utility.yul\":19004:19027   */\n      swap1\n      pop\n        /* \"#utility.yul\":18980:19029   */\n    tag_422:\n        /* \"#utility.yul\":19042:19122   */\n      tag_423\n        /* \"#utility.yul\":19098:19120   */\n      tag_424\n        /* \"#utility.yul\":19116:19119   */\n      dup6\n        /* \"#utility.yul\":19098:19120   */\n      tag_208\n      jump\t// in\n    tag_424:\n        /* \"#utility.yul\":19088:19096   */\n      dup4\n        /* \"#utility.yul\":19084:19121   */\n      add\n        /* \"#utility.yul\":19071:19082   */\n      dup3\n        /* \"#utility.yul\":19042:19122   */\n      tag_217\n      jump\t// in\n    tag_423:\n        /* \"#utility.yul\":18701:19132   */\n      pop\n      pop\n        /* \"#utility.yul\":18686:19132   */\n    tag_419:\n        /* \"#utility.yul\":18596:19139   */\n      pop\n      pop\n      pop\n      jump\t// out\n        /* \"#utility.yul\":19145:19262   */\n    tag_219:\n        /* \"#utility.yul\":19199:19207   */\n      0x00\n        /* \"#utility.yul\":19249:19254   */\n      dup3\n        /* \"#utility.yul\":19243:19247   */\n      dup3\n        /* \"#utility.yul\":19239:19255   */\n      shr\n        /* \"#utility.yul\":19218:19255   */\n      swap1\n      pop\n        /* \"#utility.yul\":19145:19262   */\n      swap3\n      swap2\n      pop\n      pop\n      jump\t// out\n        /* \"#utility.yul\":19268:19437   */\n    tag_220:\n        /* \"#utility.yul\":19312:19318   */\n      0x00\n        /* \"#utility.yul\":19345:19396   */\n      tag_427\n        /* \"#utility.yul\":19393:19394   */\n      0x00\n        /* \"#utility.yul\":19389:19395   */\n      not\n        /* \"#utility.yul\":19381:19386   */\n      dup5\n        /* \"#utility.yul\":19378:19379   */\n      0x08\n        /* \"#utility.yul\":19374:19387   */\n      mul\n        /* \"#utility.yul\":19345:19396   */\n      tag_219\n      jump\t// in\n    tag_427:\n        /* \"#utility.yul\":19341:19397   */\n      not\n        /* \"#utility.yul\":19426:19430   */\n      dup1\n        /* \"#utility.yul\":19420:19424   */\n      dup4\n        /* \"#utility.yul\":19416:19431   */\n      and\n        /* \"#utility.yul\":19406:19431   */\n      swap2\n      pop\n        /* \"#utility.yul\":19319:19437   */\n      pop\n        /* \"#utility.yul\":19268:19437   */\n      swap3\n      swap2\n      pop\n      pop\n      jump\t// out\n        /* \"#utility.yul\":19442:19737   */\n    tag_221:\n        /* \"#utility.yul\":19518:19522   */\n      0x00\n        /* \"#utility.yul\":19664:19693   */\n      tag_429\n        /* \"#utility.yul\":19689:19692   */\n      dup4\n        /* \"#utility.yul\":19683:19687   */\n      dup4\n        /* \"#utility.yul\":19664:19693   */\n      tag_220\n      jump\t// in\n    tag_429:\n        /* \"#utility.yul\":19656:19693   */\n      swap2\n      pop\n        /* \"#utility.yul\":19726:19729   */\n      dup3\n        /* \"#utility.yul\":19723:19724   */\n      0x02\n        /* \"#utility.yul\":19719:19730   */\n      mul\n        /* \"#utility.yul\":19713:19717   */\n      dup3\n        /* \"#utility.yul\":19710:19731   */\n      or\n        /* \"#utility.yul\":19702:19731   */\n      swap1\n      pop\n        /* \"#utility.yul\":19442:19737   */\n      swap3\n      swap2\n      pop\n      pop\n      jump\t// out\n        /* \"#utility.yul\":19742:21137   */\n    tag_72:\n        /* \"#utility.yul\":19859:19896   */\n      tag_431\n        /* \"#utility.yul\":19892:19895   */\n      dup3\n        /* \"#utility.yul\":19859:19896   */\n      tag_182\n      jump\t// in\n    tag_431:\n        /* \"#utility.yul\":19961:19979   */\n      0xffffffffffffffff\n        /* \"#utility.yul\":19953:19959   */\n      dup2\n        /* \"#utility.yul\":19950:19980   */\n      gt\n        /* \"#utility.yul\":19947:20003   */\n      iszero\n      tag_432\n      jumpi\n        /* \"#utility.yul\":19983:20001   */\n      tag_433\n      tag_68\n      jump\t// in\n    tag_433:\n        /* \"#utility.yul\":19947:20003   */\n    tag_432:\n        /* \"#utility.yul\":20027:20065   */\n      tag_434\n        /* \"#utility.yul\":20059:20063   */\n      dup3\n        /* \"#utility.yul\":20053:20064   */\n      sload\n        /* \"#utility.yul\":20027:20065   */\n      tag_81\n      jump\t// in\n    tag_434:\n        /* \"#utility.yul\":20112:20179   */\n      tag_435\n        /* \"#utility.yul\":20172:20178   */\n      dup3\n        /* \"#utility.yul\":20164:20170   */\n      dup3\n        /* \"#utility.yul\":20158:20162   */\n      dup6\n        /* \"#utility.yul\":20112:20179   */\n      tag_218\n      jump\t// in\n    tag_435:\n        /* \"#utility.yul\":20206:20207   */\n      0x00\n        /* \"#utility.yul\":20230:20234   */\n      0x20\n        /* \"#utility.yul\":20217:20234   */\n      swap1\n      pop\n        /* \"#utility.yul\":20262:20264   */\n      0x1f\n        /* \"#utility.yul\":20254:20260   */\n      dup4\n        /* \"#utility.yul\":20251:20265   */\n      gt\n        /* \"#utility.yul\":20279:20280   */\n      0x01\n        /* \"#utility.yul\":20274:20892   */\n      dup2\n      eq\n      tag_437\n      jumpi\n        /* \"#utility.yul\":20936:20937   */\n      0x00\n        /* \"#utility.yul\":20953:20959   */\n      dup5\n        /* \"#utility.yul\":20950:21027   */\n      iszero\n      tag_438\n      jumpi\n        /* \"#utility.yul\":21002:21011   */\n      dup3\n        /* \"#utility.yul\":20997:21000   */\n      dup8\n        /* \"#utility.yul\":20993:21012   */\n      add\n        /* \"#utility.yul\":20987:21013   */\n      mload\n        /* \"#utility.yul\":20978:21013   */\n      swap1\n      pop\n        /* \"#utility.yul\":20950:21027   */\n    tag_438:\n        /* \"#utility.yul\":21053:21120   */\n      tag_439\n        /* \"#utility.yul\":21113:21119   */\n      dup6\n        /* \"#utility.yul\":21106:21111   */\n      dup3\n        /* \"#utility.yul\":21053:21120   */\n      tag_221\n      jump\t// in\n    tag_439:\n        /* \"#utility.yul\":21047:21051   */\n      dup7\n        /* \"#utility.yul\":21040:21121   */\n      sstore\n        /* \"#utility.yul\":20909:21131   */\n      pop\n        /* \"#utility.yul\":20244:21131   */\n      jump(tag_436)\n        /* \"#utility.yul\":20274:20892   */\n    tag_437:\n        /* \"#utility.yul\":20326:20330   */\n      0x1f\n        /* \"#utility.yul\":20322:20331   */\n      not\n        /* \"#utility.yul\":20314:20320   */\n      dup5\n        /* \"#utility.yul\":20310:20332   */\n      and\n        /* \"#utility.yul\":20360:20397   */\n      tag_440\n        /* \"#utility.yul\":20392:20396   */\n      dup7\n        /* \"#utility.yul\":20360:20397   */\n      tag_207\n      jump\t// in\n    tag_440:\n        /* \"#utility.yul\":20419:20420   */\n      0x00\n        /* \"#utility.yul\":20433:20641   */\n    tag_441:\n        /* \"#utility.yul\":20447:20454   */\n      dup3\n        /* \"#utility.yul\":20444:20445   */\n      dup2\n        /* \"#utility.yul\":20441:20455   */\n      lt\n        /* \"#utility.yul\":20433:20641   */\n      iszero\n      tag_443\n      jumpi\n        /* \"#utility.yul\":20526:20535   */\n      dup5\n        /* \"#utility.yul\":20521:20524   */\n      dup10\n        /* \"#utility.yul\":20517:20536   */\n      add\n        /* \"#utility.yul\":20511:20537   */\n      mload\n        /* \"#utility.yul\":20503:20509   */\n      dup3\n        /* \"#utility.yul\":20496:20538   */\n      sstore\n        /* \"#utility.yul\":20577:20578   */\n      0x01\n        /* \"#utility.yul\":20569:20575   */\n      dup3\n        /* \"#utility.yul\":20565:20579   */\n      add\n        /* \"#utility.yul\":20555:20579   */\n      swap2\n      pop\n        /* \"#utility.yul\":20624:20626   */\n      0x20\n        /* \"#utility.yul\":20613:20622   */\n      dup6\n        /* \"#utility.yul\":20609:20627   */\n      add\n        /* \"#utility.yul\":20596:20627   */\n      swap5\n      pop\n        /* \"#utility.yul\":20470:20474   */\n      0x20\n        /* \"#utility.yul\":20467:20468   */\n      dup2\n        /* \"#utility.yul\":20463:20475   */\n      add\n        /* \"#utility.yul\":20458:20475   */\n      swap1\n      pop\n        /* \"#utility.yul\":20433:20641   */\n      jump(tag_441)\n    tag_443:\n        /* \"#utility.yul\":20669:20675   */\n      dup7\n        /* \"#utility.yul\":20660:20667   */\n      dup4\n        /* \"#utility.yul\":20657:20676   */\n      lt\n        /* \"#utility.yul\":20654:20833   */\n      iszero\n      tag_444\n      jumpi\n        /* \"#utility.yul\":20727:20736   */\n      dup5\n        /* \"#utility.yul\":20722:20725   */\n      dup10\n        /* \"#utility.yul\":20718:20737   */\n      add\n        /* \"#utility.yul\":20712:20738   */\n      mload\n        /* \"#utility.yul\":20770:20818   */\n      tag_445\n        /* \"#utility.yul\":20812:20816   */\n      0x1f\n        /* \"#utility.yul\":20804:20810   */\n      dup10\n        /* \"#utility.yul\":20800:20817   */\n      and\n        /* \"#utility.yul\":20789:20798   */\n      dup3\n        /* \"#utility.yul\":20770:20818   */\n      tag_220\n      jump\t// in\n    tag_445:\n        /* \"#utility.yul\":20762:20768   */\n      dup4\n        /* \"#utility.yul\":20755:20819   */\n      sstore\n        /* \"#utility.yul\":20677:20833   */\n      pop\n        /* \"#utility.yul\":20654:20833   */\n    tag_444:\n        /* \"#utility.yul\":20879:20880   */\n      0x01\n        /* \"#utility.yul\":20875:20876   */\n      0x02\n        /* \"#utility.yul\":20867:20873   */\n      dup9\n        /* \"#utility.yul\":20863:20877   */\n      mul\n        /* \"#utility.yul\":20859:20881   */\n      add\n        /* \"#utility.yul\":20853:20857   */\n      dup9\n        /* \"#utility.yul\":20846:20882   */\n      sstore\n        /* \"#utility.yul\":20281:20892   */\n      pop\n      pop\n      pop\n        /* \"#utility.yul\":20244:21131   */\n    tag_436:\n      pop\n        /* \"#utility.yul\":19834:21137   */\n      pop\n      pop\n      pop\n        /* \"#utility.yul\":19742:21137   */\n      pop\n      pop\n      jump\t// out\n\n    auxdata: 0xa2646970667358221220db4228f93a003946f247cae512a177f639034eb26b7b5d43dabcc6fa0640039464736f6c63430008140033\n}\n",
				"bytecode": {
					"linkReferences": {},
					"object": "608060405234801561000f575f80fd5b506119898061001d5f395ff3fe608060405234801561000f575f80fd5b50600436106100a7575f3560e01c8063cc7fa2201161006f578063cc7fa22014610153578063d36000ed14610186578063d47c029c146101b6578063d5cfcb06146101d2578063dcd0c2b214610205578063e98ee2f014610221576100a7565b80632de304ed146100ab57806345b06e4f146100c7578063508bd55a146100e357806350c7a91214610116578063ac48ab0c14610132575b5f80fd5b6100c560048036038101906100c09190610fea565b61023d565b005b6100e160048036038101906100dc9190611044565b610367565b005b6100fd60048036038101906100f891906110e0565b61040b565b60405161010d9493929190611297565b60405180910390f35b610130600480360381019061012b91906112e8565b61059d565b005b61013a61067c565b60405161014a9493929190611297565b60405180910390f35b61016d600480360381019061016891906110e0565b61084f565b60405161017d949392919061138c565b60405180910390f35b6101a0600480360381019061019b9190611437565b61099f565b6040516101ad9190611519565b60405180910390f35b6101d060048036038101906101cb9190611539565b610a32565b005b6101ec60048036038101906101e791906110e0565b610abb565b6040516101fc9493929190611580565b60405180910390f35b61021f600480360381019061021a91906115d8565b610c93565b005b61023b600480360381019061023691906110e0565b610d3a565b005b60015f81548092919061024f90611643565b9190505550604051806080016040528060015481526020018381526020018281526020015f67ffffffffffffffff81111561028d5761028c610e93565b5b6040519080825280602002602001820160405280156102c057816020015b60608152602001906001900390816102ab5790505b5081525060055f60015481526020019081526020015f205f820151815f015560208201518160010190816102f49190611884565b5060408201518160020155606082015181600301908051906020019061031b929190610d98565b5090505060015460065f3373ffffffffffffffffffffffffffffffffffffffff1673ffffffffffffffffffffffffffffffffffffffff1681526020019081526020015f20819055505050565b60025f81548092919061037990611643565b91905055506040518060a0016040528060025481526020018581526020018481526020018381526020018281525060075f60025481526020019081526020015f205f820151815f015560208201518160010190816103d79190611884565b506040820151816002015560608201518160030190816103f79190611884565b506080820151816004015590505050505050565b5f806060805f60055f8781526020019081526020015f209050805f015481600201548260010183600301818054610441906116b7565b80601f016020809104026020016040519081016040528092919081815260200182805461046d906116b7565b80156104b85780601f1061048f576101008083540402835291602001916104b8565b820191905f5260205f20905b81548152906001019060200180831161049b57829003601f168201915b5050505050915080805480602002602001604051908101604052809291908181526020015f905b82821015610587578382905f5260205f200180546104fc906116b7565b80601f0160208091040260200160405190810160405280929190818152602001828054610528906116b7565b80156105735780601f1061054a57610100808354040283529160200191610573565b820191905f5260205f20905b81548152906001019060200180831161055657829003601f168201915b5050505050815260200190600101906104df565b5050505090509450945094509450509193509193565b5f808154809291906105ae90611643565b919050555060405180608001604052805f5481526020018481526020018381526020018281525060035f805481526020019081526020015f205f820151815f015560208201518160010190816106049190611884565b50604082015181600201908161061a9190611884565b5060608201518160030190816106309190611884565b509050505f5460045f3373ffffffffffffffffffffffffffffffffffffffff1673ffffffffffffffffffffffffffffffffffffffff1681526020019081526020015f2081905550505050565b5f806060805f60065f3373ffffffffffffffffffffffffffffffffffffffff1673ffffffffffffffffffffffffffffffffffffffff1681526020019081526020015f205490505f60055f8381526020019081526020015f209050805f0154816002015482600101836003018180546106f3906116b7565b80601f016020809104026020016040519081016040528092919081815260200182805461071f906116b7565b801561076a5780601f106107415761010080835404028352916020019161076a565b820191905f5260205f20905b81548152906001019060200180831161074d57829003601f168201915b5050505050915080805480602002602001604051908101604052809291908181526020015f905b82821015610839578382905f5260205f200180546107ae906116b7565b80601f01602080910402602001604051908101604052809291908181526020018280546107da906116b7565b80156108255780601f106107fc57610100808354040283529160200191610825565b820191905f5260205f20905b81548152906001019060200180831161080857829003601f168201915b505050505081526020019060010190610791565b5050505090509550955095509550505090919293565b60605f60605f8060075f8781526020019081526020015f209050806001018160020154826003018360040154838054610887906116b7565b80601f01602080910402602001604051908101604052809291908181526020018280546108b3906116b7565b80156108fe5780601f106108d5576101008083540402835291602001916108fe565b820191905f5260205f20905b8154815290600101906020018083116108e157829003601f168201915b50505050509350818054610911906116b7565b80601f016020809104026020016040519081016040528092919081815260200182805461093d906116b7565b80156109885780601f1061095f57610100808354040283529160200191610988565b820191905f5260205f20905b81548152906001019060200180831161096b57829003601f168201915b505050505091509450945094509450509193509193565b606060085f8373ffffffffffffffffffffffffffffffffffffffff1673ffffffffffffffffffffffffffffffffffffffff1681526020019081526020015f20805480602002602001604051908101604052809291908181526020018280548015610a2657602002820191905f5260205f20905b815481526020019060010190808311610a12575b50505050509050919050565b5f60065f3373ffffffffffffffffffffffffffffffffffffffff1673ffffffffffffffffffffffffffffffffffffffff1681526020019081526020015f2054905060055f8281526020019081526020015f2060030182908060018154018082558091505060019003905f5260205f20015f909190919091509081610ab69190611884565b505050565b5f60608060605f60035f8781526020019081526020015f209050805f0154816001018260020183600301828054610af1906116b7565b80601f0160208091040260200160405190810160405280929190818152602001828054610b1d906116b7565b8015610b685780601f10610b3f57610100808354040283529160200191610b68565b820191905f5260205f20905b815481529060010190602001808311610b4b57829003601f168201915b50505050509250818054610b7b906116b7565b80601f0160208091040260200160405190810160405280929190818152602001828054610ba7906116b7565b8015610bf25780601f10610bc957610100808354040283529160200191610bf2565b820191905f5260205f20905b815481529060010190602001808311610bd557829003601f168201915b50505050509150808054610c05906116b7565b80601f0160208091040260200160405190810160405280929190818152602001828054610c31906116b7565b8015610c7c5780601f10610c5357610100808354040283529160200191610c7c565b820191905f5260205f20905b815481529060010190602001808311610c5f57829003601f168201915b505050505090509450945094509450509193509193565b5f60065f8373ffffffffffffffffffffffffffffffffffffffff1673ffffffffffffffffffffffffffffffffffffffff1681526020019081526020015f2054905060085f8373ffffffffffffffffffffffffffffffffffffffff1673ffffffffffffffffffffffffffffffffffffffff1681526020019081526020015f2083908060018154018082558091505060019003905f5260205f20015f9091909190915055505050565b5f60065f3373ffffffffffffffffffffffffffffffffffffffff1673ffffffffffffffffffffffffffffffffffffffff1681526020019081526020015f205490508160055f8381526020019081526020015f20600201819055505050565b828054828255905f5260205f20908101928215610dde579160200282015b82811115610ddd578251829081610dcd9190611884565b5091602001919060010190610db6565b5b509050610deb9190610def565b5090565b5b80821115610e0e575f8181610e059190610e12565b50600101610df0565b5090565b508054610e1e906116b7565b5f825580601f10610e2f5750610e4c565b601f0160209004905f5260205f2090810190610e4b9190610e4f565b5b50565b5b80821115610e66575f815f905550600101610e50565b5090565b5f604051905090565b5f80fd5b5f80fd5b5f80fd5b5f80fd5b5f601f19601f8301169050919050565b7f4e487b71000000000000000000000000000000000000000000000000000000005f52604160045260245ffd5b610ec982610e83565b810181811067ffffffffffffffff82111715610ee857610ee7610e93565b5b80604052505050565b5f610efa610e6a565b9050610f068282610ec0565b919050565b5f67ffffffffffffffff821115610f2557610f24610e93565b5b610f2e82610e83565b9050602081019050919050565b828183375f83830152505050565b5f610f5b610f5684610f0b565b610ef1565b905082815260208101848484011115610f7757610f76610e7f565b5b610f82848285610f3b565b509392505050565b5f82601f830112610f9e57610f9d610e7b565b5b8135610fae848260208601610f49565b91505092915050565b5f819050919050565b610fc981610fb7565b8114610fd3575f80fd5b50565b5f81359050610fe481610fc0565b92915050565b5f806040838503121561100057610fff610e73565b5b5f83013567ffffffffffffffff81111561101d5761101c610e77565b5b61102985828601610f8a565b925050602061103a85828601610fd6565b9150509250929050565b5f805f806080858703121561105c5761105b610e73565b5b5f85013567ffffffffffffffff81111561107957611078610e77565b5b61108587828801610f8a565b945050602061109687828801610fd6565b935050604085013567ffffffffffffffff8111156110b7576110b6610e77565b5b6110c387828801610f8a565b92505060606110d487828801610fd6565b91505092959194509250565b5f602082840312156110f5576110f4610e73565b5b5f61110284828501610fd6565b91505092915050565b61111481610fb7565b82525050565b5f81519050919050565b5f82825260208201905092915050565b5f5b83811015611151578082015181840152602081019050611136565b5f8484015250505050565b5f6111668261111a565b6111708185611124565b9350611180818560208601611134565b61118981610e83565b840191505092915050565b5f81519050919050565b5f82825260208201905092915050565b5f819050602082019050919050565b5f82825260208201905092915050565b5f6111d78261111a565b6111e181856111bd565b93506111f1818560208601611134565b6111fa81610e83565b840191505092915050565b5f61121083836111cd565b905092915050565b5f602082019050919050565b5f61122e82611194565b611238818561119e565b93508360208202850161124a856111ae565b805f5b8581101561128557848403895281516112668582611205565b945061127183611218565b925060208a0199505060018101905061124d565b50829750879550505050505092915050565b5f6080820190506112aa5f83018761110b565b6112b7602083018661110b565b81810360408301526112c9818561115c565b905081810360608301526112dd8184611224565b905095945050505050565b5f805f606084860312156112ff576112fe610e73565b5b5f84013567ffffffffffffffff81111561131c5761131b610e77565b5b61132886828701610f8a565b935050602084013567ffffffffffffffff81111561134957611348610e77565b5b61135586828701610f8a565b925050604084013567ffffffffffffffff81111561137657611375610e77565b5b61138286828701610f8a565b9150509250925092565b5f6080820190508181035f8301526113a4818761115c565b90506113b3602083018661110b565b81810360408301526113c5818561115c565b90506113d4606083018461110b565b95945050505050565b5f73ffffffffffffffffffffffffffffffffffffffff82169050919050565b5f611406826113dd565b9050919050565b611416816113fc565b8114611420575f80fd5b50565b5f813590506114318161140d565b92915050565b5f6020828403121561144c5761144b610e73565b5b5f61145984828501611423565b91505092915050565b5f81519050919050565b5f82825260208201905092915050565b5f819050602082019050919050565b61149481610fb7565b82525050565b5f6114a5838361148b565b60208301905092915050565b5f602082019050919050565b5f6114c782611462565b6114d1818561146c565b93506114dc8361147c565b805f5b8381101561150c5781516114f3888261149a565b97506114fe836114b1565b9250506001810190506114df565b5085935050505092915050565b5f6020820190508181035f83015261153181846114bd565b905092915050565b5f6020828403121561154e5761154d610e73565b5b5f82013567ffffffffffffffff81111561156b5761156a610e77565b5b61157784828501610f8a565b91505092915050565b5f6080820190506115935f83018761110b565b81810360208301526115a5818661115c565b905081810360408301526115b9818561115c565b905081810360608301526115cd818461115c565b905095945050505050565b5f80604083850312156115ee576115ed610e73565b5b5f6115fb85828601610fd6565b925050602061160c85828601611423565b9150509250929050565b7f4e487b71000000000000000000000000000000000000000000000000000000005f52601160045260245ffd5b5f61164d82610fb7565b91507fffffffffffffffffffffffffffffffffffffffffffffffffffffffffffffffff820361167f5761167e611616565b5b600182019050919050565b7f4e487b71000000000000000000000000000000000000000000000000000000005f52602260045260245ffd5b5f60028204905060018216806116ce57607f821691505b6020821081036116e1576116e061168a565b5b50919050565b5f819050815f5260205f209050919050565b5f6020601f8301049050919050565b5f82821b905092915050565b5f600883026117437fffffffffffffffffffffffffffffffffffffffffffffffffffffffffffffffff82611708565b61174d8683611708565b95508019841693508086168417925050509392505050565b5f819050919050565b5f61178861178361177e84610fb7565b611765565b610fb7565b9050919050565b5f819050919050565b6117a18361176e565b6117b56117ad8261178f565b848454611714565b825550505050565b5f90565b6117c96117bd565b6117d4818484611798565b505050565b5b818110156117f7576117ec5f826117c1565b6001810190506117da565b5050565b601f82111561183c5761180d816116e7565b611816846116f9565b81016020851015611825578190505b611839611831856116f9565b8301826117d9565b50505b505050565b5f82821c905092915050565b5f61185c5f1984600802611841565b1980831691505092915050565b5f611874838361184d565b9150826002028217905092915050565b61188d8261111a565b67ffffffffffffffff8111156118a6576118a5610e93565b5b6118b082546116b7565b6118bb8282856117fb565b5f60209050601f8311600181146118ec575f84156118da578287015190505b6118e48582611869565b86555061194b565b601f1984166118fa866116e7565b5f5b82811015611921578489015182556001820191506020850194506020810190506118fc565b8683101561193e578489015161193a601f89168261184d565b8355505b6001600288020188555050505b50505050505056fea2646970667358221220db4228f93a003946f247cae512a177f639034eb26b7b5d43dabcc6fa0640039464736f6c63430008140033",
					"opcodes": "PUSH1 0x80 PUSH1 0x40 MSTORE CALLVALUE DUP1 ISZERO PUSH2 0xF JUMPI PUSH0 DUP1 REVERT JUMPDEST POP PUSH2 0x1989 DUP1 PUSH2 0x1D PUSH0 CODECOPY PUSH0 RETURN INVALID PUSH1 0x80 PUSH1 0x40 MSTORE CALLVALUE DUP1 ISZERO PUSH2 0xF JUMPI PUSH0 DUP1 REVERT JUMPDEST POP PUSH1 0x4 CALLDATASIZE LT PUSH2 0xA7 JUMPI PUSH0 CALLDATALOAD PUSH1 0xE0 SHR DUP1 PUSH4 0xCC7FA220 GT PUSH2 0x6F JUMPI DUP1 PUSH4 0xCC7FA220 EQ PUSH2 0x153 JUMPI DUP1 PUSH4 0xD36000ED EQ PUSH2 0x186 JUMPI DUP1 PUSH4 0xD47C029C EQ PUSH2 0x1B6 JUMPI DUP1 PUSH4 0xD5CFCB06 EQ PUSH2 0x1D2 JUMPI DUP1 PUSH4 0xDCD0C2B2 EQ PUSH2 0x205 JUMPI DUP1 PUSH4 0xE98EE2F0 EQ PUSH2 0x221 JUMPI PUSH2 0xA7 JUMP JUMPDEST DUP1 PUSH4 0x2DE304ED EQ PUSH2 0xAB JUMPI DUP1 PUSH4 0x45B06E4F EQ PUSH2 0xC7 JUMPI DUP1 PUSH4 0x508BD55A EQ PUSH2 0xE3 JUMPI DUP1 PUSH4 0x50C7A912 EQ PUSH2 0x116 JUMPI DUP1 PUSH4 0xAC48AB0C EQ PUSH2 0x132 JUMPI JUMPDEST PUSH0 DUP1 REVERT JUMPDEST PUSH2 0xC5 PUSH1 0x4 DUP1 CALLDATASIZE SUB DUP2 ADD SWAP1 PUSH2 0xC0 SWAP2 SWAP1 PUSH2 0xFEA JUMP JUMPDEST PUSH2 0x23D JUMP JUMPDEST STOP JUMPDEST PUSH2 0xE1 PUSH1 0x4 DUP1 CALLDATASIZE SUB DUP2 ADD SWAP1 PUSH2 0xDC SWAP2 SWAP1 PUSH2 0x1044 JUMP JUMPDEST PUSH2 0x367 JUMP JUMPDEST STOP JUMPDEST PUSH2 0xFD PUSH1 0x4 DUP1 CALLDATASIZE SUB DUP2 ADD SWAP1 PUSH2 0xF8 SWAP2 SWAP1 PUSH2 0x10E0 JUMP JUMPDEST PUSH2 0x40B JUMP JUMPDEST PUSH1 0x40 MLOAD PUSH2 0x10D SWAP5 SWAP4 SWAP3 SWAP2 SWAP1 PUSH2 0x1297 JUMP JUMPDEST PUSH1 0x40 MLOAD DUP1 SWAP2 SUB SWAP1 RETURN JUMPDEST PUSH2 0x130 PUSH1 0x4 DUP1 CALLDATASIZE SUB DUP2 ADD SWAP1 PUSH2 0x12B SWAP2 SWAP1 PUSH2 0x12E8 JUMP JUMPDEST PUSH2 0x59D JUMP JUMPDEST STOP JUMPDEST PUSH2 0x13A PUSH2 0x67C JUMP JUMPDEST PUSH1 0x40 MLOAD PUSH2 0x14A SWAP5 SWAP4 SWAP3 SWAP2 SWAP1 PUSH2 0x1297 JUMP JUMPDEST PUSH1 0x40 MLOAD DUP1 SWAP2 SUB SWAP1 RETURN JUMPDEST PUSH2 0x16D PUSH1 0x4 DUP1 CALLDATASIZE SUB DUP2 ADD SWAP1 PUSH2 0x168 SWAP2 SWAP1 PUSH2 0x10E0 JUMP JUMPDEST PUSH2 0x84F JUMP JUMPDEST PUSH1 0x40 MLOAD PUSH2 0x17D SWAP5 SWAP4 SWAP3 SWAP2 SWAP1 PUSH2 0x138C JUMP JUMPDEST PUSH1 0x40 MLOAD DUP1 SWAP2 SUB SWAP1 RETURN JUMPDEST PUSH2 0x1A0 PUSH1 0x4 DUP1 CALLDATASIZE SUB DUP2 ADD SWAP1 PUSH2 0x19B SWAP2 SWAP1 PUSH2 0x1437 JUMP JUMPDEST PUSH2 0x99F JUMP JUMPDEST PUSH1 0x40 MLOAD PUSH2 0x1AD SWAP2 SWAP1 PUSH2 0x1519 JUMP JUMPDEST PUSH1 0x40 MLOAD DUP1 SWAP2 SUB SWAP1 RETURN JUMPDEST PUSH2 0x1D0 PUSH1 0x4 DUP1 CALLDATASIZE SUB DUP2 ADD SWAP1 PUSH2 0x1CB SWAP2 SWAP1 PUSH2 0x1539 JUMP JUMPDEST PUSH2 0xA32 JUMP JUMPDEST STOP JUMPDEST PUSH2 0x1EC PUSH1 0x4 DUP1 CALLDATASIZE SUB DUP2 ADD SWAP1 PUSH2 0x1E7 SWAP2 SWAP1 PUSH2 0x10E0 JUMP JUMPDEST PUSH2 0xABB JUMP JUMPDEST PUSH1 0x40 MLOAD PUSH2 0x1FC SWAP5 SWAP4 SWAP3 SWAP2 SWAP1 PUSH2 0x1580 JUMP JUMPDEST PUSH1 0x40 MLOAD DUP1 SWAP2 SUB SWAP1 RETURN JUMPDEST PUSH2 0x21F PUSH1 0x4 DUP1 CALLDATASIZE SUB DUP2 ADD SWAP1 PUSH2 0x21A SWAP2 SWAP1 PUSH2 0x15D8 JUMP JUMPDEST PUSH2 0xC93 JUMP JUMPDEST STOP JUMPDEST PUSH2 0x23B PUSH1 0x4 DUP1 CALLDATASIZE SUB DUP2 ADD SWAP1 PUSH2 0x236 SWAP2 SWAP1 PUSH2 0x10E0 JUMP JUMPDEST PUSH2 0xD3A JUMP JUMPDEST STOP JUMPDEST PUSH1 0x1 PUSH0 DUP2 SLOAD DUP1 SWAP3 SWAP2 SWAP1 PUSH2 0x24F SWAP1 PUSH2 0x1643 JUMP JUMPDEST SWAP2 SWAP1 POP SSTORE POP PUSH1 0x40 MLOAD DUP1 PUSH1 0x80 ADD PUSH1 0x40 MSTORE DUP1 PUSH1 0x1 SLOAD DUP2 MSTORE PUSH1 0x20 ADD DUP4 DUP2 MSTORE PUSH1 0x20 ADD DUP3 DUP2 MSTORE PUSH1 0x20 ADD PUSH0 PUSH8 0xFFFFFFFFFFFFFFFF DUP2 GT ISZERO PUSH2 0x28D JUMPI PUSH2 0x28C PUSH2 0xE93 JUMP JUMPDEST JUMPDEST PUSH1 0x40 MLOAD SWAP1 DUP1 DUP3 MSTORE DUP1 PUSH1 0x20 MUL PUSH1 0x20 ADD DUP3 ADD PUSH1 0x40 MSTORE DUP1 ISZERO PUSH2 0x2C0 JUMPI DUP2 PUSH1 0x20 ADD JUMPDEST PUSH1 0x60 DUP2 MSTORE PUSH1 0x20 ADD SWAP1 PUSH1 0x1 SWAP1 SUB SWAP1 DUP2 PUSH2 0x2AB JUMPI SWAP1 POP JUMPDEST POP DUP2 MSTORE POP PUSH1 0x5 PUSH0 PUSH1 0x1 SLOAD DUP2 MSTORE PUSH1 0x20 ADD SWAP1 DUP2 MSTORE PUSH1 0x20 ADD PUSH0 KECCAK256 PUSH0 DUP3 ADD MLOAD DUP2 PUSH0 ADD SSTORE PUSH1 0x20 DUP3 ADD MLOAD DUP2 PUSH1 0x1 ADD SWAP1 DUP2 PUSH2 0x2F4 SWAP2 SWAP1 PUSH2 0x1884 JUMP JUMPDEST POP PUSH1 0x40 DUP3 ADD MLOAD DUP2 PUSH1 0x2 ADD SSTORE PUSH1 0x60 DUP3 ADD MLOAD DUP2 PUSH1 0x3 ADD SWAP1 DUP1 MLOAD SWAP1 PUSH1 0x20 ADD SWAP1 PUSH2 0x31B SWAP3 SWAP2 SWAP1 PUSH2 0xD98 JUMP JUMPDEST POP SWAP1 POP POP PUSH1 0x1 SLOAD PUSH1 0x6 PUSH0 CALLER PUSH20 0xFFFFFFFFFFFFFFFFFFFFFFFFFFFFFFFFFFFFFFFF AND PUSH20 0xFFFFFFFFFFFFFFFFFFFFFFFFFFFFFFFFFFFFFFFF AND DUP2 MSTORE PUSH1 0x20 ADD SWAP1 DUP2 MSTORE PUSH1 0x20 ADD PUSH0 KECCAK256 DUP2 SWAP1 SSTORE POP POP POP JUMP JUMPDEST PUSH1 0x2 PUSH0 DUP2 SLOAD DUP1 SWAP3 SWAP2 SWAP1 PUSH2 0x379 SWAP1 PUSH2 0x1643 JUMP JUMPDEST SWAP2 SWAP1 POP SSTORE POP PUSH1 0x40 MLOAD DUP1 PUSH1 0xA0 ADD PUSH1 0x40 MSTORE DUP1 PUSH1 0x2 SLOAD DUP2 MSTORE PUSH1 0x20 ADD DUP6 DUP2 MSTORE PUSH1 0x20 ADD DUP5 DUP2 MSTORE PUSH1 0x20 ADD DUP4 DUP2 MSTORE PUSH1 0x20 ADD DUP3 DUP2 MSTORE POP PUSH1 0x7 PUSH0 PUSH1 0x2 SLOAD DUP2 MSTORE PUSH1 0x20 ADD SWAP1 DUP2 MSTORE PUSH1 0x20 ADD PUSH0 KECCAK256 PUSH0 DUP3 ADD MLOAD DUP2 PUSH0 ADD SSTORE PUSH1 0x20 DUP3 ADD MLOAD DUP2 PUSH1 0x1 ADD SWAP1 DUP2 PUSH2 0x3D7 SWAP2 SWAP1 PUSH2 0x1884 JUMP JUMPDEST POP PUSH1 0x40 DUP3 ADD MLOAD DUP2 PUSH1 0x2 ADD SSTORE PUSH1 0x60 DUP3 ADD MLOAD DUP2 PUSH1 0x3 ADD SWAP1 DUP2 PUSH2 0x3F7 SWAP2 SWAP1 PUSH2 0x1884 JUMP JUMPDEST POP PUSH1 0x80 DUP3 ADD MLOAD DUP2 PUSH1 0x4 ADD SSTORE SWAP1 POP POP POP POP POP POP JUMP JUMPDEST PUSH0 DUP1 PUSH1 0x60 DUP1 PUSH0 PUSH1 0x5 PUSH0 DUP8 DUP2 MSTORE PUSH1 0x20 ADD SWAP1 DUP2 MSTORE PUSH1 0x20 ADD PUSH0 KECCAK256 SWAP1 POP DUP1 PUSH0 ADD SLOAD DUP2 PUSH1 0x2 ADD SLOAD DUP3 PUSH1 0x1 ADD DUP4 PUSH1 0x3 ADD DUP2 DUP1 SLOAD PUSH2 0x441 SWAP1 PUSH2 0x16B7 JUMP JUMPDEST DUP1 PUSH1 0x1F ADD PUSH1 0x20 DUP1 SWAP2 DIV MUL PUSH1 0x20 ADD PUSH1 0x40 MLOAD SWAP1 DUP2 ADD PUSH1 0x40 MSTORE DUP1 SWAP3 SWAP2 SWAP1 DUP2 DUP2 MSTORE PUSH1 0x20 ADD DUP3 DUP1 SLOAD PUSH2 0x46D SWAP1 PUSH2 0x16B7 JUMP JUMPDEST DUP1 ISZERO PUSH2 0x4B8 JUMPI DUP1 PUSH1 0x1F LT PUSH2 0x48F JUMPI PUSH2 0x100 DUP1 DUP4 SLOAD DIV MUL DUP4 MSTORE SWAP2 PUSH1 0x20 ADD SWAP2 PUSH2 0x4B8 JUMP JUMPDEST DUP3 ADD SWAP2 SWAP1 PUSH0 MSTORE PUSH1 0x20 PUSH0 KECCAK256 SWAP1 JUMPDEST DUP2 SLOAD DUP2 MSTORE SWAP1 PUSH1 0x1 ADD SWAP1 PUSH1 0x20 ADD DUP1 DUP4 GT PUSH2 0x49B JUMPI DUP3 SWAP1 SUB PUSH1 0x1F AND DUP3 ADD SWAP2 JUMPDEST POP POP POP POP POP SWAP2 POP DUP1 DUP1 SLOAD DUP1 PUSH1 0x20 MUL PUSH1 0x20 ADD PUSH1 0x40 MLOAD SWAP1 DUP2 ADD PUSH1 0x40 MSTORE DUP1 SWAP3 SWAP2 SWAP1 DUP2 DUP2 MSTORE PUSH1 0x20 ADD PUSH0 SWAP1 JUMPDEST DUP3 DUP3 LT ISZERO PUSH2 0x587 JUMPI DUP4 DUP3 SWAP1 PUSH0 MSTORE PUSH1 0x20 PUSH0 KECCAK256 ADD DUP1 SLOAD PUSH2 0x4FC SWAP1 PUSH2 0x16B7 JUMP JUMPDEST DUP1 PUSH1 0x1F ADD PUSH1 0x20 DUP1 SWAP2 DIV MUL PUSH1 0x20 ADD PUSH1 0x40 MLOAD SWAP1 DUP2 ADD PUSH1 0x40 MSTORE DUP1 SWAP3 SWAP2 SWAP1 DUP2 DUP2 MSTORE PUSH1 0x20 ADD DUP3 DUP1 SLOAD PUSH2 0x528 SWAP1 PUSH2 0x16B7 JUMP JUMPDEST DUP1 ISZERO PUSH2 0x573 JUMPI DUP1 PUSH1 0x1F LT PUSH2 0x54A JUMPI PUSH2 0x100 DUP1 DUP4 SLOAD DIV MUL DUP4 MSTORE SWAP2 PUSH1 0x20 ADD SWAP2 PUSH2 0x573 JUMP JUMPDEST DUP3 ADD SWAP2 SWAP1 PUSH0 MSTORE PUSH1 0x20 PUSH0 KECCAK256 SWAP1 JUMPDEST DUP2 SLOAD DUP2 MSTORE SWAP1 PUSH1 0x1 ADD SWAP1 PUSH1 0x20 ADD DUP1 DUP4 GT PUSH2 0x556 JUMPI DUP3 SWAP1 SUB PUSH1 0x1F AND DUP3 ADD SWAP2 JUMPDEST POP POP POP POP POP DUP2 MSTORE PUSH1 0x20 ADD SWAP1 PUSH1 0x1 ADD SWAP1 PUSH2 0x4DF JUMP JUMPDEST POP POP POP POP SWAP1 POP SWAP5 POP SWAP5 POP SWAP5 POP SWAP5 POP POP SWAP2 SWAP4 POP SWAP2 SWAP4 JUMP JUMPDEST PUSH0 DUP1 DUP2 SLOAD DUP1 SWAP3 SWAP2 SWAP1 PUSH2 0x5AE SWAP1 PUSH2 0x1643 JUMP JUMPDEST SWAP2 SWAP1 POP SSTORE POP PUSH1 0x40 MLOAD DUP1 PUSH1 0x80 ADD PUSH1 0x40 MSTORE DUP1 PUSH0 SLOAD DUP2 MSTORE PUSH1 0x20 ADD DUP5 DUP2 MSTORE PUSH1 0x20 ADD DUP4 DUP2 MSTORE PUSH1 0x20 ADD DUP3 DUP2 MSTORE POP PUSH1 0x3 PUSH0 DUP1 SLOAD DUP2 MSTORE PUSH1 0x20 ADD SWAP1 DUP2 MSTORE PUSH1 0x20 ADD PUSH0 KECCAK256 PUSH0 DUP3 ADD MLOAD DUP2 PUSH0 ADD SSTORE PUSH1 0x20 DUP3 ADD MLOAD DUP2 PUSH1 0x1 ADD SWAP1 DUP2 PUSH2 0x604 SWAP2 SWAP1 PUSH2 0x1884 JUMP JUMPDEST POP PUSH1 0x40 DUP3 ADD MLOAD DUP2 PUSH1 0x2 ADD SWAP1 DUP2 PUSH2 0x61A SWAP2 SWAP1 PUSH2 0x1884 JUMP JUMPDEST POP PUSH1 0x60 DUP3 ADD MLOAD DUP2 PUSH1 0x3 ADD SWAP1 DUP2 PUSH2 0x630 SWAP2 SWAP1 PUSH2 0x1884 JUMP JUMPDEST POP SWAP1 POP POP PUSH0 SLOAD PUSH1 0x4 PUSH0 CALLER PUSH20 0xFFFFFFFFFFFFFFFFFFFFFFFFFFFFFFFFFFFFFFFF AND PUSH20 0xFFFFFFFFFFFFFFFFFFFFFFFFFFFFFFFFFFFFFFFF AND DUP2 MSTORE PUSH1 0x20 ADD SWAP1 DUP2 MSTORE PUSH1 0x20 ADD PUSH0 KECCAK256 DUP2 SWAP1 SSTORE POP POP POP POP JUMP JUMPDEST PUSH0 DUP1 PUSH1 0x60 DUP1 PUSH0 PUSH1 0x6 PUSH0 CALLER PUSH20 0xFFFFFFFFFFFFFFFFFFFFFFFFFFFFFFFFFFFFFFFF AND PUSH20 0xFFFFFFFFFFFFFFFFFFFFFFFFFFFFFFFFFFFFFFFF AND DUP2 MSTORE PUSH1 0x20 ADD SWAP1 DUP2 MSTORE PUSH1 0x20 ADD PUSH0 KECCAK256 SLOAD SWAP1 POP PUSH0 PUSH1 0x5 PUSH0 DUP4 DUP2 MSTORE PUSH1 0x20 ADD SWAP1 DUP2 MSTORE PUSH1 0x20 ADD PUSH0 KECCAK256 SWAP1 POP DUP1 PUSH0 ADD SLOAD DUP2 PUSH1 0x2 ADD SLOAD DUP3 PUSH1 0x1 ADD DUP4 PUSH1 0x3 ADD DUP2 DUP1 SLOAD PUSH2 0x6F3 SWAP1 PUSH2 0x16B7 JUMP JUMPDEST DUP1 PUSH1 0x1F ADD PUSH1 0x20 DUP1 SWAP2 DIV MUL PUSH1 0x20 ADD PUSH1 0x40 MLOAD SWAP1 DUP2 ADD PUSH1 0x40 MSTORE DUP1 SWAP3 SWAP2 SWAP1 DUP2 DUP2 MSTORE PUSH1 0x20 ADD DUP3 DUP1 SLOAD PUSH2 0x71F SWAP1 PUSH2 0x16B7 JUMP JUMPDEST DUP1 ISZERO PUSH2 0x76A JUMPI DUP1 PUSH1 0x1F LT PUSH2 0x741 JUMPI PUSH2 0x100 DUP1 DUP4 SLOAD DIV MUL DUP4 MSTORE SWAP2 PUSH1 0x20 ADD SWAP2 PUSH2 0x76A JUMP JUMPDEST DUP3 ADD SWAP2 SWAP1 PUSH0 MSTORE PUSH1 0x20 PUSH0 KECCAK256 SWAP1 JUMPDEST DUP2 SLOAD DUP2 MSTORE SWAP1 PUSH1 0x1 ADD SWAP1 PUSH1 0x20 ADD DUP1 DUP4 GT PUSH2 0x74D JUMPI DUP3 SWAP1 SUB PUSH1 0x1F AND DUP3 ADD SWAP2 JUMPDEST POP POP POP POP POP SWAP2 POP DUP1 DUP1 SLOAD DUP1 PUSH1 0x20 MUL PUSH1 0x20 ADD PUSH1 0x40 MLOAD SWAP1 DUP2 ADD PUSH1 0x40 MSTORE DUP1 SWAP3 SWAP2 SWAP1 DUP2 DUP2 MSTORE PUSH1 0x20 ADD PUSH0 SWAP1 JUMPDEST DUP3 DUP3 LT ISZERO PUSH2 0x839 JUMPI DUP4 DUP3 SWAP1 PUSH0 MSTORE PUSH1 0x20 PUSH0 KECCAK256 ADD DUP1 SLOAD PUSH2 0x7AE SWAP1 PUSH2 0x16B7 JUMP JUMPDEST DUP1 PUSH1 0x1F ADD PUSH1 0x20 DUP1 SWAP2 DIV MUL PUSH1 0x20 ADD PUSH1 0x40 MLOAD SWAP1 DUP2 ADD PUSH1 0x40 MSTORE DUP1 SWAP3 SWAP2 SWAP1 DUP2 DUP2 MSTORE PUSH1 0x20 ADD DUP3 DUP1 SLOAD PUSH2 0x7DA SWAP1 PUSH2 0x16B7 JUMP JUMPDEST DUP1 ISZERO PUSH2 0x825 JUMPI DUP1 PUSH1 0x1F LT PUSH2 0x7FC JUMPI PUSH2 0x100 DUP1 DUP4 SLOAD DIV MUL DUP4 MSTORE SWAP2 PUSH1 0x20 ADD SWAP2 PUSH2 0x825 JUMP JUMPDEST DUP3 ADD SWAP2 SWAP1 PUSH0 MSTORE PUSH1 0x20 PUSH0 KECCAK256 SWAP1 JUMPDEST DUP2 SLOAD DUP2 MSTORE SWAP1 PUSH1 0x1 ADD SWAP1 PUSH1 0x20 ADD DUP1 DUP4 GT PUSH2 0x808 JUMPI DUP3 SWAP1 SUB PUSH1 0x1F AND DUP3 ADD SWAP2 JUMPDEST POP POP POP POP POP DUP2 MSTORE PUSH1 0x20 ADD SWAP1 PUSH1 0x1 ADD SWAP1 PUSH2 0x791 JUMP JUMPDEST POP POP POP POP SWAP1 POP SWAP6 POP SWAP6 POP SWAP6 POP SWAP6 POP POP POP SWAP1 SWAP2 SWAP3 SWAP4 JUMP JUMPDEST PUSH1 0x60 PUSH0 PUSH1 0x60 PUSH0 DUP1 PUSH1 0x7 PUSH0 DUP8 DUP2 MSTORE PUSH1 0x20 ADD SWAP1 DUP2 MSTORE PUSH1 0x20 ADD PUSH0 KECCAK256 SWAP1 POP DUP1 PUSH1 0x1 ADD DUP2 PUSH1 0x2 ADD SLOAD DUP3 PUSH1 0x3 ADD DUP4 PUSH1 0x4 ADD SLOAD DUP4 DUP1 SLOAD PUSH2 0x887 SWAP1 PUSH2 0x16B7 JUMP JUMPDEST DUP1 PUSH1 0x1F ADD PUSH1 0x20 DUP1 SWAP2 DIV MUL PUSH1 0x20 ADD PUSH1 0x40 MLOAD SWAP1 DUP2 ADD PUSH1 0x40 MSTORE DUP1 SWAP3 SWAP2 SWAP1 DUP2 DUP2 MSTORE PUSH1 0x20 ADD DUP3 DUP1 SLOAD PUSH2 0x8B3 SWAP1 PUSH2 0x16B7 JUMP JUMPDEST DUP1 ISZERO PUSH2 0x8FE JUMPI DUP1 PUSH1 0x1F LT PUSH2 0x8D5 JUMPI PUSH2 0x100 DUP1 DUP4 SLOAD DIV MUL DUP4 MSTORE SWAP2 PUSH1 0x20 ADD SWAP2 PUSH2 0x8FE JUMP JUMPDEST DUP3 ADD SWAP2 SWAP1 PUSH0 MSTORE PUSH1 0x20 PUSH0 KECCAK256 SWAP1 JUMPDEST DUP2 SLOAD DUP2 MSTORE SWAP1 PUSH1 0x1 ADD SWAP1 PUSH1 0x20 ADD DUP1 DUP4 GT PUSH2 0x8E1 JUMPI DUP3 SWAP1 SUB PUSH1 0x1F AND DUP3 ADD SWAP2 JUMPDEST POP POP POP POP POP SWAP4 POP DUP2 DUP1 SLOAD PUSH2 0x911 SWAP1 PUSH2 0x16B7 JUMP JUMPDEST DUP1 PUSH1 0x1F ADD PUSH1 0x20 DUP1 SWAP2 DIV MUL PUSH1 0x20 ADD PUSH1 0x40 MLOAD SWAP1 DUP2 ADD PUSH1 0x40 MSTORE DUP1 SWAP3 SWAP2 SWAP1 DUP2 DUP2 MSTORE PUSH1 0x20 ADD DUP3 DUP1 SLOAD PUSH2 0x93D SWAP1 PUSH2 0x16B7 JUMP JUMPDEST DUP1 ISZERO PUSH2 0x988 JUMPI DUP1 PUSH1 0x1F LT PUSH2 0x95F JUMPI PUSH2 0x100 DUP1 DUP4 SLOAD DIV MUL DUP4 MSTORE SWAP2 PUSH1 0x20 ADD SWAP2 PUSH2 0x988 JUMP JUMPDEST DUP3 ADD SWAP2 SWAP1 PUSH0 MSTORE PUSH1 0x20 PUSH0 KECCAK256 SWAP1 JUMPDEST DUP2 SLOAD DUP2 MSTORE SWAP1 PUSH1 0x1 ADD SWAP1 PUSH1 0x20 ADD DUP1 DUP4 GT PUSH2 0x96B JUMPI DUP3 SWAP1 SUB PUSH1 0x1F AND DUP3 ADD SWAP2 JUMPDEST POP POP POP POP POP SWAP2 POP SWAP5 POP SWAP5 POP SWAP5 POP SWAP5 POP POP SWAP2 SWAP4 POP SWAP2 SWAP4 JUMP JUMPDEST PUSH1 0x60 PUSH1 0x8 PUSH0 DUP4 PUSH20 0xFFFFFFFFFFFFFFFFFFFFFFFFFFFFFFFFFFFFFFFF AND PUSH20 0xFFFFFFFFFFFFFFFFFFFFFFFFFFFFFFFFFFFFFFFF AND DUP2 MSTORE PUSH1 0x20 ADD SWAP1 DUP2 MSTORE PUSH1 0x20 ADD PUSH0 KECCAK256 DUP1 SLOAD DUP1 PUSH1 0x20 MUL PUSH1 0x20 ADD PUSH1 0x40 MLOAD SWAP1 DUP2 ADD PUSH1 0x40 MSTORE DUP1 SWAP3 SWAP2 SWAP1 DUP2 DUP2 MSTORE PUSH1 0x20 ADD DUP3 DUP1 SLOAD DUP1 ISZERO PUSH2 0xA26 JUMPI PUSH1 0x20 MUL DUP3 ADD SWAP2 SWAP1 PUSH0 MSTORE PUSH1 0x20 PUSH0 KECCAK256 SWAP1 JUMPDEST DUP2 SLOAD DUP2 MSTORE PUSH1 0x20 ADD SWAP1 PUSH1 0x1 ADD SWAP1 DUP1 DUP4 GT PUSH2 0xA12 JUMPI JUMPDEST POP POP POP POP POP SWAP1 POP SWAP2 SWAP1 POP JUMP JUMPDEST PUSH0 PUSH1 0x6 PUSH0 CALLER PUSH20 0xFFFFFFFFFFFFFFFFFFFFFFFFFFFFFFFFFFFFFFFF AND PUSH20 0xFFFFFFFFFFFFFFFFFFFFFFFFFFFFFFFFFFFFFFFF AND DUP2 MSTORE PUSH1 0x20 ADD SWAP1 DUP2 MSTORE PUSH1 0x20 ADD PUSH0 KECCAK256 SLOAD SWAP1 POP PUSH1 0x5 PUSH0 DUP3 DUP2 MSTORE PUSH1 0x20 ADD SWAP1 DUP2 MSTORE PUSH1 0x20 ADD PUSH0 KECCAK256 PUSH1 0x3 ADD DUP3 SWAP1 DUP1 PUSH1 0x1 DUP2 SLOAD ADD DUP1 DUP3 SSTORE DUP1 SWAP2 POP POP PUSH1 0x1 SWAP1 SUB SWAP1 PUSH0 MSTORE PUSH1 0x20 PUSH0 KECCAK256 ADD PUSH0 SWAP1 SWAP2 SWAP1 SWAP2 SWAP1 SWAP2 POP SWAP1 DUP2 PUSH2 0xAB6 SWAP2 SWAP1 PUSH2 0x1884 JUMP JUMPDEST POP POP POP JUMP JUMPDEST PUSH0 PUSH1 0x60 DUP1 PUSH1 0x60 PUSH0 PUSH1 0x3 PUSH0 DUP8 DUP2 MSTORE PUSH1 0x20 ADD SWAP1 DUP2 MSTORE PUSH1 0x20 ADD PUSH0 KECCAK256 SWAP1 POP DUP1 PUSH0 ADD SLOAD DUP2 PUSH1 0x1 ADD DUP3 PUSH1 0x2 ADD DUP4 PUSH1 0x3 ADD DUP3 DUP1 SLOAD PUSH2 0xAF1 SWAP1 PUSH2 0x16B7 JUMP JUMPDEST DUP1 PUSH1 0x1F ADD PUSH1 0x20 DUP1 SWAP2 DIV MUL PUSH1 0x20 ADD PUSH1 0x40 MLOAD SWAP1 DUP2 ADD PUSH1 0x40 MSTORE DUP1 SWAP3 SWAP2 SWAP1 DUP2 DUP2 MSTORE PUSH1 0x20 ADD DUP3 DUP1 SLOAD PUSH2 0xB1D SWAP1 PUSH2 0x16B7 JUMP JUMPDEST DUP1 ISZERO PUSH2 0xB68 JUMPI DUP1 PUSH1 0x1F LT PUSH2 0xB3F JUMPI PUSH2 0x100 DUP1 DUP4 SLOAD DIV MUL DUP4 MSTORE SWAP2 PUSH1 0x20 ADD SWAP2 PUSH2 0xB68 JUMP JUMPDEST DUP3 ADD SWAP2 SWAP1 PUSH0 MSTORE PUSH1 0x20 PUSH0 KECCAK256 SWAP1 JUMPDEST DUP2 SLOAD DUP2 MSTORE SWAP1 PUSH1 0x1 ADD SWAP1 PUSH1 0x20 ADD DUP1 DUP4 GT PUSH2 0xB4B JUMPI DUP3 SWAP1 SUB PUSH1 0x1F AND DUP3 ADD SWAP2 JUMPDEST POP POP POP POP POP SWAP3 POP DUP2 DUP1 SLOAD PUSH2 0xB7B SWAP1 PUSH2 0x16B7 JUMP JUMPDEST DUP1 PUSH1 0x1F ADD PUSH1 0x20 DUP1 SWAP2 DIV MUL PUSH1 0x20 ADD PUSH1 0x40 MLOAD SWAP1 DUP2 ADD PUSH1 0x40 MSTORE DUP1 SWAP3 SWAP2 SWAP1 DUP2 DUP2 MSTORE PUSH1 0x20 ADD DUP3 DUP1 SLOAD PUSH2 0xBA7 SWAP1 PUSH2 0x16B7 JUMP JUMPDEST DUP1 ISZERO PUSH2 0xBF2 JUMPI DUP1 PUSH1 0x1F LT PUSH2 0xBC9 JUMPI PUSH2 0x100 DUP1 DUP4 SLOAD DIV MUL DUP4 MSTORE SWAP2 PUSH1 0x20 ADD SWAP2 PUSH2 0xBF2 JUMP JUMPDEST DUP3 ADD SWAP2 SWAP1 PUSH0 MSTORE PUSH1 0x20 PUSH0 KECCAK256 SWAP1 JUMPDEST DUP2 SLOAD DUP2 MSTORE SWAP1 PUSH1 0x1 ADD SWAP1 PUSH1 0x20 ADD DUP1 DUP4 GT PUSH2 0xBD5 JUMPI DUP3 SWAP1 SUB PUSH1 0x1F AND DUP3 ADD SWAP2 JUMPDEST POP POP POP POP POP SWAP2 POP DUP1 DUP1 SLOAD PUSH2 0xC05 SWAP1 PUSH2 0x16B7 JUMP JUMPDEST DUP1 PUSH1 0x1F ADD PUSH1 0x20 DUP1 SWAP2 DIV MUL PUSH1 0x20 ADD PUSH1 0x40 MLOAD SWAP1 DUP2 ADD PUSH1 0x40 MSTORE DUP1 SWAP3 SWAP2 SWAP1 DUP2 DUP2 MSTORE PUSH1 0x20 ADD DUP3 DUP1 SLOAD PUSH2 0xC31 SWAP1 PUSH2 0x16B7 JUMP JUMPDEST DUP1 ISZERO PUSH2 0xC7C JUMPI DUP1 PUSH1 0x1F LT PUSH2 0xC53 JUMPI PUSH2 0x100 DUP1 DUP4 SLOAD DIV MUL DUP4 MSTORE SWAP2 PUSH1 0x20 ADD SWAP2 PUSH2 0xC7C JUMP JUMPDEST DUP3 ADD SWAP2 SWAP1 PUSH0 MSTORE PUSH1 0x20 PUSH0 KECCAK256 SWAP1 JUMPDEST DUP2 SLOAD DUP2 MSTORE SWAP1 PUSH1 0x1 ADD SWAP1 PUSH1 0x20 ADD DUP1 DUP4 GT PUSH2 0xC5F JUMPI DUP3 SWAP1 SUB PUSH1 0x1F AND DUP3 ADD SWAP2 JUMPDEST POP POP POP POP POP SWAP1 POP SWAP5 POP SWAP5 POP SWAP5 POP SWAP5 POP POP SWAP2 SWAP4 POP SWAP2 SWAP4 JUMP JUMPDEST PUSH0 PUSH1 0x6 PUSH0 DUP4 PUSH20 0xFFFFFFFFFFFFFFFFFFFFFFFFFFFFFFFFFFFFFFFF AND PUSH20 0xFFFFFFFFFFFFFFFFFFFFFFFFFFFFFFFFFFFFFFFF AND DUP2 MSTORE PUSH1 0x20 ADD SWAP1 DUP2 MSTORE PUSH1 0x20 ADD PUSH0 KECCAK256 SLOAD SWAP1 POP PUSH1 0x8 PUSH0 DUP4 PUSH20 0xFFFFFFFFFFFFFFFFFFFFFFFFFFFFFFFFFFFFFFFF AND PUSH20 0xFFFFFFFFFFFFFFFFFFFFFFFFFFFFFFFFFFFFFFFF AND DUP2 MSTORE PUSH1 0x20 ADD SWAP1 DUP2 MSTORE PUSH1 0x20 ADD PUSH0 KECCAK256 DUP4 SWAP1 DUP1 PUSH1 0x1 DUP2 SLOAD ADD DUP1 DUP3 SSTORE DUP1 SWAP2 POP POP PUSH1 0x1 SWAP1 SUB SWAP1 PUSH0 MSTORE PUSH1 0x20 PUSH0 KECCAK256 ADD PUSH0 SWAP1 SWAP2 SWAP1 SWAP2 SWAP1 SWAP2 POP SSTORE POP POP POP JUMP JUMPDEST PUSH0 PUSH1 0x6 PUSH0 CALLER PUSH20 0xFFFFFFFFFFFFFFFFFFFFFFFFFFFFFFFFFFFFFFFF AND PUSH20 0xFFFFFFFFFFFFFFFFFFFFFFFFFFFFFFFFFFFFFFFF AND DUP2 MSTORE PUSH1 0x20 ADD SWAP1 DUP2 MSTORE PUSH1 0x20 ADD PUSH0 KECCAK256 SLOAD SWAP1 POP DUP2 PUSH1 0x5 PUSH0 DUP4 DUP2 MSTORE PUSH1 0x20 ADD SWAP1 DUP2 MSTORE PUSH1 0x20 ADD PUSH0 KECCAK256 PUSH1 0x2 ADD DUP2 SWAP1 SSTORE POP POP POP JUMP JUMPDEST DUP3 DUP1 SLOAD DUP3 DUP3 SSTORE SWAP1 PUSH0 MSTORE PUSH1 0x20 PUSH0 KECCAK256 SWAP1 DUP2 ADD SWAP3 DUP3 ISZERO PUSH2 0xDDE JUMPI SWAP2 PUSH1 0x20 MUL DUP3 ADD JUMPDEST DUP3 DUP2 GT ISZERO PUSH2 0xDDD JUMPI DUP3 MLOAD DUP3 SWAP1 DUP2 PUSH2 0xDCD SWAP2 SWAP1 PUSH2 0x1884 JUMP JUMPDEST POP SWAP2 PUSH1 0x20 ADD SWAP2 SWAP1 PUSH1 0x1 ADD SWAP1 PUSH2 0xDB6 JUMP JUMPDEST JUMPDEST POP SWAP1 POP PUSH2 0xDEB SWAP2 SWAP1 PUSH2 0xDEF JUMP JUMPDEST POP SWAP1 JUMP JUMPDEST JUMPDEST DUP1 DUP3 GT ISZERO PUSH2 0xE0E JUMPI PUSH0 DUP2 DUP2 PUSH2 0xE05 SWAP2 SWAP1 PUSH2 0xE12 JUMP JUMPDEST POP PUSH1 0x1 ADD PUSH2 0xDF0 JUMP JUMPDEST POP SWAP1 JUMP JUMPDEST POP DUP1 SLOAD PUSH2 0xE1E SWAP1 PUSH2 0x16B7 JUMP JUMPDEST PUSH0 DUP3 SSTORE DUP1 PUSH1 0x1F LT PUSH2 0xE2F JUMPI POP PUSH2 0xE4C JUMP JUMPDEST PUSH1 0x1F ADD PUSH1 0x20 SWAP1 DIV SWAP1 PUSH0 MSTORE PUSH1 0x20 PUSH0 KECCAK256 SWAP1 DUP2 ADD SWAP1 PUSH2 0xE4B SWAP2 SWAP1 PUSH2 0xE4F JUMP JUMPDEST JUMPDEST POP JUMP JUMPDEST JUMPDEST DUP1 DUP3 GT ISZERO PUSH2 0xE66 JUMPI PUSH0 DUP2 PUSH0 SWAP1 SSTORE POP PUSH1 0x1 ADD PUSH2 0xE50 JUMP JUMPDEST POP SWAP1 JUMP JUMPDEST PUSH0 PUSH1 0x40 MLOAD SWAP1 POP SWAP1 JUMP JUMPDEST PUSH0 DUP1 REVERT JUMPDEST PUSH0 DUP1 REVERT JUMPDEST PUSH0 DUP1 REVERT JUMPDEST PUSH0 DUP1 REVERT JUMPDEST PUSH0 PUSH1 0x1F NOT PUSH1 0x1F DUP4 ADD AND SWAP1 POP SWAP2 SWAP1 POP JUMP JUMPDEST PUSH32 0x4E487B7100000000000000000000000000000000000000000000000000000000 PUSH0 MSTORE PUSH1 0x41 PUSH1 0x4 MSTORE PUSH1 0x24 PUSH0 REVERT JUMPDEST PUSH2 0xEC9 DUP3 PUSH2 0xE83 JUMP JUMPDEST DUP2 ADD DUP2 DUP2 LT PUSH8 0xFFFFFFFFFFFFFFFF DUP3 GT OR ISZERO PUSH2 0xEE8 JUMPI PUSH2 0xEE7 PUSH2 0xE93 JUMP JUMPDEST JUMPDEST DUP1 PUSH1 0x40 MSTORE POP POP POP JUMP JUMPDEST PUSH0 PUSH2 0xEFA PUSH2 0xE6A JUMP JUMPDEST SWAP1 POP PUSH2 0xF06 DUP3 DUP3 PUSH2 0xEC0 JUMP JUMPDEST SWAP2 SWAP1 POP JUMP JUMPDEST PUSH0 PUSH8 0xFFFFFFFFFFFFFFFF DUP3 GT ISZERO PUSH2 0xF25 JUMPI PUSH2 0xF24 PUSH2 0xE93 JUMP JUMPDEST JUMPDEST PUSH2 0xF2E DUP3 PUSH2 0xE83 JUMP JUMPDEST SWAP1 POP PUSH1 0x20 DUP2 ADD SWAP1 POP SWAP2 SWAP1 POP JUMP JUMPDEST DUP3 DUP2 DUP4 CALLDATACOPY PUSH0 DUP4 DUP4 ADD MSTORE POP POP POP JUMP JUMPDEST PUSH0 PUSH2 0xF5B PUSH2 0xF56 DUP5 PUSH2 0xF0B JUMP JUMPDEST PUSH2 0xEF1 JUMP JUMPDEST SWAP1 POP DUP3 DUP2 MSTORE PUSH1 0x20 DUP2 ADD DUP5 DUP5 DUP5 ADD GT ISZERO PUSH2 0xF77 JUMPI PUSH2 0xF76 PUSH2 0xE7F JUMP JUMPDEST JUMPDEST PUSH2 0xF82 DUP5 DUP3 DUP6 PUSH2 0xF3B JUMP JUMPDEST POP SWAP4 SWAP3 POP POP POP JUMP JUMPDEST PUSH0 DUP3 PUSH1 0x1F DUP4 ADD SLT PUSH2 0xF9E JUMPI PUSH2 0xF9D PUSH2 0xE7B JUMP JUMPDEST JUMPDEST DUP2 CALLDATALOAD PUSH2 0xFAE DUP5 DUP3 PUSH1 0x20 DUP7 ADD PUSH2 0xF49 JUMP JUMPDEST SWAP2 POP POP SWAP3 SWAP2 POP POP JUMP JUMPDEST PUSH0 DUP2 SWAP1 POP SWAP2 SWAP1 POP JUMP JUMPDEST PUSH2 0xFC9 DUP2 PUSH2 0xFB7 JUMP JUMPDEST DUP2 EQ PUSH2 0xFD3 JUMPI PUSH0 DUP1 REVERT JUMPDEST POP JUMP JUMPDEST PUSH0 DUP2 CALLDATALOAD SWAP1 POP PUSH2 0xFE4 DUP2 PUSH2 0xFC0 JUMP JUMPDEST SWAP3 SWAP2 POP POP JUMP JUMPDEST PUSH0 DUP1 PUSH1 0x40 DUP4 DUP6 SUB SLT ISZERO PUSH2 0x1000 JUMPI PUSH2 0xFFF PUSH2 0xE73 JUMP JUMPDEST JUMPDEST PUSH0 DUP4 ADD CALLDATALOAD PUSH8 0xFFFFFFFFFFFFFFFF DUP2 GT ISZERO PUSH2 0x101D JUMPI PUSH2 0x101C PUSH2 0xE77 JUMP JUMPDEST JUMPDEST PUSH2 0x1029 DUP6 DUP3 DUP7 ADD PUSH2 0xF8A JUMP JUMPDEST SWAP3 POP POP PUSH1 0x20 PUSH2 0x103A DUP6 DUP3 DUP7 ADD PUSH2 0xFD6 JUMP JUMPDEST SWAP2 POP POP SWAP3 POP SWAP3 SWAP1 POP JUMP JUMPDEST PUSH0 DUP1 PUSH0 DUP1 PUSH1 0x80 DUP6 DUP8 SUB SLT ISZERO PUSH2 0x105C JUMPI PUSH2 0x105B PUSH2 0xE73 JUMP JUMPDEST JUMPDEST PUSH0 DUP6 ADD CALLDATALOAD PUSH8 0xFFFFFFFFFFFFFFFF DUP2 GT ISZERO PUSH2 0x1079 JUMPI PUSH2 0x1078 PUSH2 0xE77 JUMP JUMPDEST JUMPDEST PUSH2 0x1085 DUP8 DUP3 DUP9 ADD PUSH2 0xF8A JUMP JUMPDEST SWAP5 POP POP PUSH1 0x20 PUSH2 0x1096 DUP8 DUP3 DUP9 ADD PUSH2 0xFD6 JUMP JUMPDEST SWAP4 POP POP PUSH1 0x40 DUP6 ADD CALLDATALOAD PUSH8 0xFFFFFFFFFFFFFFFF DUP2 GT ISZERO PUSH2 0x10B7 JUMPI PUSH2 0x10B6 PUSH2 0xE77 JUMP JUMPDEST JUMPDEST PUSH2 0x10C3 DUP8 DUP3 DUP9 ADD PUSH2 0xF8A JUMP JUMPDEST SWAP3 POP POP PUSH1 0x60 PUSH2 0x10D4 DUP8 DUP3 DUP9 ADD PUSH2 0xFD6 JUMP JUMPDEST SWAP2 POP POP SWAP3 SWAP6 SWAP2 SWAP5 POP SWAP3 POP JUMP JUMPDEST PUSH0 PUSH1 0x20 DUP3 DUP5 SUB SLT ISZERO PUSH2 0x10F5 JUMPI PUSH2 0x10F4 PUSH2 0xE73 JUMP JUMPDEST JUMPDEST PUSH0 PUSH2 0x1102 DUP5 DUP3 DUP6 ADD PUSH2 0xFD6 JUMP JUMPDEST SWAP2 POP POP SWAP3 SWAP2 POP POP JUMP JUMPDEST PUSH2 0x1114 DUP2 PUSH2 0xFB7 JUMP JUMPDEST DUP3 MSTORE POP POP JUMP JUMPDEST PUSH0 DUP2 MLOAD SWAP1 POP SWAP2 SWAP1 POP JUMP JUMPDEST PUSH0 DUP3 DUP3 MSTORE PUSH1 0x20 DUP3 ADD SWAP1 POP SWAP3 SWAP2 POP POP JUMP JUMPDEST PUSH0 JUMPDEST DUP4 DUP2 LT ISZERO PUSH2 0x1151 JUMPI DUP1 DUP3 ADD MLOAD DUP2 DUP5 ADD MSTORE PUSH1 0x20 DUP2 ADD SWAP1 POP PUSH2 0x1136 JUMP JUMPDEST PUSH0 DUP5 DUP5 ADD MSTORE POP POP POP POP JUMP JUMPDEST PUSH0 PUSH2 0x1166 DUP3 PUSH2 0x111A JUMP JUMPDEST PUSH2 0x1170 DUP2 DUP6 PUSH2 0x1124 JUMP JUMPDEST SWAP4 POP PUSH2 0x1180 DUP2 DUP6 PUSH1 0x20 DUP7 ADD PUSH2 0x1134 JUMP JUMPDEST PUSH2 0x1189 DUP2 PUSH2 0xE83 JUMP JUMPDEST DUP5 ADD SWAP2 POP POP SWAP3 SWAP2 POP POP JUMP JUMPDEST PUSH0 DUP2 MLOAD SWAP1 POP SWAP2 SWAP1 POP JUMP JUMPDEST PUSH0 DUP3 DUP3 MSTORE PUSH1 0x20 DUP3 ADD SWAP1 POP SWAP3 SWAP2 POP POP JUMP JUMPDEST PUSH0 DUP2 SWAP1 POP PUSH1 0x20 DUP3 ADD SWAP1 POP SWAP2 SWAP1 POP JUMP JUMPDEST PUSH0 DUP3 DUP3 MSTORE PUSH1 0x20 DUP3 ADD SWAP1 POP SWAP3 SWAP2 POP POP JUMP JUMPDEST PUSH0 PUSH2 0x11D7 DUP3 PUSH2 0x111A JUMP JUMPDEST PUSH2 0x11E1 DUP2 DUP6 PUSH2 0x11BD JUMP JUMPDEST SWAP4 POP PUSH2 0x11F1 DUP2 DUP6 PUSH1 0x20 DUP7 ADD PUSH2 0x1134 JUMP JUMPDEST PUSH2 0x11FA DUP2 PUSH2 0xE83 JUMP JUMPDEST DUP5 ADD SWAP2 POP POP SWAP3 SWAP2 POP POP JUMP JUMPDEST PUSH0 PUSH2 0x1210 DUP4 DUP4 PUSH2 0x11CD JUMP JUMPDEST SWAP1 POP SWAP3 SWAP2 POP POP JUMP JUMPDEST PUSH0 PUSH1 0x20 DUP3 ADD SWAP1 POP SWAP2 SWAP1 POP JUMP JUMPDEST PUSH0 PUSH2 0x122E DUP3 PUSH2 0x1194 JUMP JUMPDEST PUSH2 0x1238 DUP2 DUP6 PUSH2 0x119E JUMP JUMPDEST SWAP4 POP DUP4 PUSH1 0x20 DUP3 MUL DUP6 ADD PUSH2 0x124A DUP6 PUSH2 0x11AE JUMP JUMPDEST DUP1 PUSH0 JUMPDEST DUP6 DUP2 LT ISZERO PUSH2 0x1285 JUMPI DUP5 DUP5 SUB DUP10 MSTORE DUP2 MLOAD PUSH2 0x1266 DUP6 DUP3 PUSH2 0x1205 JUMP JUMPDEST SWAP5 POP PUSH2 0x1271 DUP4 PUSH2 0x1218 JUMP JUMPDEST SWAP3 POP PUSH1 0x20 DUP11 ADD SWAP10 POP POP PUSH1 0x1 DUP2 ADD SWAP1 POP PUSH2 0x124D JUMP JUMPDEST POP DUP3 SWAP8 POP DUP8 SWAP6 POP POP POP POP POP POP SWAP3 SWAP2 POP POP JUMP JUMPDEST PUSH0 PUSH1 0x80 DUP3 ADD SWAP1 POP PUSH2 0x12AA PUSH0 DUP4 ADD DUP8 PUSH2 0x110B JUMP JUMPDEST PUSH2 0x12B7 PUSH1 0x20 DUP4 ADD DUP7 PUSH2 0x110B JUMP JUMPDEST DUP2 DUP2 SUB PUSH1 0x40 DUP4 ADD MSTORE PUSH2 0x12C9 DUP2 DUP6 PUSH2 0x115C JUMP JUMPDEST SWAP1 POP DUP2 DUP2 SUB PUSH1 0x60 DUP4 ADD MSTORE PUSH2 0x12DD DUP2 DUP5 PUSH2 0x1224 JUMP JUMPDEST SWAP1 POP SWAP6 SWAP5 POP POP POP POP POP JUMP JUMPDEST PUSH0 DUP1 PUSH0 PUSH1 0x60 DUP5 DUP7 SUB SLT ISZERO PUSH2 0x12FF JUMPI PUSH2 0x12FE PUSH2 0xE73 JUMP JUMPDEST JUMPDEST PUSH0 DUP5 ADD CALLDATALOAD PUSH8 0xFFFFFFFFFFFFFFFF DUP2 GT ISZERO PUSH2 0x131C JUMPI PUSH2 0x131B PUSH2 0xE77 JUMP JUMPDEST JUMPDEST PUSH2 0x1328 DUP7 DUP3 DUP8 ADD PUSH2 0xF8A JUMP JUMPDEST SWAP4 POP POP PUSH1 0x20 DUP5 ADD CALLDATALOAD PUSH8 0xFFFFFFFFFFFFFFFF DUP2 GT ISZERO PUSH2 0x1349 JUMPI PUSH2 0x1348 PUSH2 0xE77 JUMP JUMPDEST JUMPDEST PUSH2 0x1355 DUP7 DUP3 DUP8 ADD PUSH2 0xF8A JUMP JUMPDEST SWAP3 POP POP PUSH1 0x40 DUP5 ADD CALLDATALOAD PUSH8 0xFFFFFFFFFFFFFFFF DUP2 GT ISZERO PUSH2 0x1376 JUMPI PUSH2 0x1375 PUSH2 0xE77 JUMP JUMPDEST JUMPDEST PUSH2 0x1382 DUP7 DUP3 DUP8 ADD PUSH2 0xF8A JUMP JUMPDEST SWAP2 POP POP SWAP3 POP SWAP3 POP SWAP3 JUMP JUMPDEST PUSH0 PUSH1 0x80 DUP3 ADD SWAP1 POP DUP2 DUP2 SUB PUSH0 DUP4 ADD MSTORE PUSH2 0x13A4 DUP2 DUP8 PUSH2 0x115C JUMP JUMPDEST SWAP1 POP PUSH2 0x13B3 PUSH1 0x20 DUP4 ADD DUP7 PUSH2 0x110B JUMP JUMPDEST DUP2 DUP2 SUB PUSH1 0x40 DUP4 ADD MSTORE PUSH2 0x13C5 DUP2 DUP6 PUSH2 0x115C JUMP JUMPDEST SWAP1 POP PUSH2 0x13D4 PUSH1 0x60 DUP4 ADD DUP5 PUSH2 0x110B JUMP JUMPDEST SWAP6 SWAP5 POP POP POP POP POP JUMP JUMPDEST PUSH0 PUSH20 0xFFFFFFFFFFFFFFFFFFFFFFFFFFFFFFFFFFFFFFFF DUP3 AND SWAP1 POP SWAP2 SWAP1 POP JUMP JUMPDEST PUSH0 PUSH2 0x1406 DUP3 PUSH2 0x13DD JUMP JUMPDEST SWAP1 POP SWAP2 SWAP1 POP JUMP JUMPDEST PUSH2 0x1416 DUP2 PUSH2 0x13FC JUMP JUMPDEST DUP2 EQ PUSH2 0x1420 JUMPI PUSH0 DUP1 REVERT JUMPDEST POP JUMP JUMPDEST PUSH0 DUP2 CALLDATALOAD SWAP1 POP PUSH2 0x1431 DUP2 PUSH2 0x140D JUMP JUMPDEST SWAP3 SWAP2 POP POP JUMP JUMPDEST PUSH0 PUSH1 0x20 DUP3 DUP5 SUB SLT ISZERO PUSH2 0x144C JUMPI PUSH2 0x144B PUSH2 0xE73 JUMP JUMPDEST JUMPDEST PUSH0 PUSH2 0x1459 DUP5 DUP3 DUP6 ADD PUSH2 0x1423 JUMP JUMPDEST SWAP2 POP POP SWAP3 SWAP2 POP POP JUMP JUMPDEST PUSH0 DUP2 MLOAD SWAP1 POP SWAP2 SWAP1 POP JUMP JUMPDEST PUSH0 DUP3 DUP3 MSTORE PUSH1 0x20 DUP3 ADD SWAP1 POP SWAP3 SWAP2 POP POP JUMP JUMPDEST PUSH0 DUP2 SWAP1 POP PUSH1 0x20 DUP3 ADD SWAP1 POP SWAP2 SWAP1 POP JUMP JUMPDEST PUSH2 0x1494 DUP2 PUSH2 0xFB7 JUMP JUMPDEST DUP3 MSTORE POP POP JUMP JUMPDEST PUSH0 PUSH2 0x14A5 DUP4 DUP4 PUSH2 0x148B JUMP JUMPDEST PUSH1 0x20 DUP4 ADD SWAP1 POP SWAP3 SWAP2 POP POP JUMP JUMPDEST PUSH0 PUSH1 0x20 DUP3 ADD SWAP1 POP SWAP2 SWAP1 POP JUMP JUMPDEST PUSH0 PUSH2 0x14C7 DUP3 PUSH2 0x1462 JUMP JUMPDEST PUSH2 0x14D1 DUP2 DUP6 PUSH2 0x146C JUMP JUMPDEST SWAP4 POP PUSH2 0x14DC DUP4 PUSH2 0x147C JUMP JUMPDEST DUP1 PUSH0 JUMPDEST DUP4 DUP2 LT ISZERO PUSH2 0x150C JUMPI DUP2 MLOAD PUSH2 0x14F3 DUP9 DUP3 PUSH2 0x149A JUMP JUMPDEST SWAP8 POP PUSH2 0x14FE DUP4 PUSH2 0x14B1 JUMP JUMPDEST SWAP3 POP POP PUSH1 0x1 DUP2 ADD SWAP1 POP PUSH2 0x14DF JUMP JUMPDEST POP DUP6 SWAP4 POP POP POP POP SWAP3 SWAP2 POP POP JUMP JUMPDEST PUSH0 PUSH1 0x20 DUP3 ADD SWAP1 POP DUP2 DUP2 SUB PUSH0 DUP4 ADD MSTORE PUSH2 0x1531 DUP2 DUP5 PUSH2 0x14BD JUMP JUMPDEST SWAP1 POP SWAP3 SWAP2 POP POP JUMP JUMPDEST PUSH0 PUSH1 0x20 DUP3 DUP5 SUB SLT ISZERO PUSH2 0x154E JUMPI PUSH2 0x154D PUSH2 0xE73 JUMP JUMPDEST JUMPDEST PUSH0 DUP3 ADD CALLDATALOAD PUSH8 0xFFFFFFFFFFFFFFFF DUP2 GT ISZERO PUSH2 0x156B JUMPI PUSH2 0x156A PUSH2 0xE77 JUMP JUMPDEST JUMPDEST PUSH2 0x1577 DUP5 DUP3 DUP6 ADD PUSH2 0xF8A JUMP JUMPDEST SWAP2 POP POP SWAP3 SWAP2 POP POP JUMP JUMPDEST PUSH0 PUSH1 0x80 DUP3 ADD SWAP1 POP PUSH2 0x1593 PUSH0 DUP4 ADD DUP8 PUSH2 0x110B JUMP JUMPDEST DUP2 DUP2 SUB PUSH1 0x20 DUP4 ADD MSTORE PUSH2 0x15A5 DUP2 DUP7 PUSH2 0x115C JUMP JUMPDEST SWAP1 POP DUP2 DUP2 SUB PUSH1 0x40 DUP4 ADD MSTORE PUSH2 0x15B9 DUP2 DUP6 PUSH2 0x115C JUMP JUMPDEST SWAP1 POP DUP2 DUP2 SUB PUSH1 0x60 DUP4 ADD MSTORE PUSH2 0x15CD DUP2 DUP5 PUSH2 0x115C JUMP JUMPDEST SWAP1 POP SWAP6 SWAP5 POP POP POP POP POP JUMP JUMPDEST PUSH0 DUP1 PUSH1 0x40 DUP4 DUP6 SUB SLT ISZERO PUSH2 0x15EE JUMPI PUSH2 0x15ED PUSH2 0xE73 JUMP JUMPDEST JUMPDEST PUSH0 PUSH2 0x15FB DUP6 DUP3 DUP7 ADD PUSH2 0xFD6 JUMP JUMPDEST SWAP3 POP POP PUSH1 0x20 PUSH2 0x160C DUP6 DUP3 DUP7 ADD PUSH2 0x1423 JUMP JUMPDEST SWAP2 POP POP SWAP3 POP SWAP3 SWAP1 POP JUMP JUMPDEST PUSH32 0x4E487B7100000000000000000000000000000000000000000000000000000000 PUSH0 MSTORE PUSH1 0x11 PUSH1 0x4 MSTORE PUSH1 0x24 PUSH0 REVERT JUMPDEST PUSH0 PUSH2 0x164D DUP3 PUSH2 0xFB7 JUMP JUMPDEST SWAP2 POP PUSH32 0xFFFFFFFFFFFFFFFFFFFFFFFFFFFFFFFFFFFFFFFFFFFFFFFFFFFFFFFFFFFFFFFF DUP3 SUB PUSH2 0x167F JUMPI PUSH2 0x167E PUSH2 0x1616 JUMP JUMPDEST JUMPDEST PUSH1 0x1 DUP3 ADD SWAP1 POP SWAP2 SWAP1 POP JUMP JUMPDEST PUSH32 0x4E487B7100000000000000000000000000000000000000000000000000000000 PUSH0 MSTORE PUSH1 0x22 PUSH1 0x4 MSTORE PUSH1 0x24 PUSH0 REVERT JUMPDEST PUSH0 PUSH1 0x2 DUP3 DIV SWAP1 POP PUSH1 0x1 DUP3 AND DUP1 PUSH2 0x16CE JUMPI PUSH1 0x7F DUP3 AND SWAP2 POP JUMPDEST PUSH1 0x20 DUP3 LT DUP2 SUB PUSH2 0x16E1 JUMPI PUSH2 0x16E0 PUSH2 0x168A JUMP JUMPDEST JUMPDEST POP SWAP2 SWAP1 POP JUMP JUMPDEST PUSH0 DUP2 SWAP1 POP DUP2 PUSH0 MSTORE PUSH1 0x20 PUSH0 KECCAK256 SWAP1 POP SWAP2 SWAP1 POP JUMP JUMPDEST PUSH0 PUSH1 0x20 PUSH1 0x1F DUP4 ADD DIV SWAP1 POP SWAP2 SWAP1 POP JUMP JUMPDEST PUSH0 DUP3 DUP3 SHL SWAP1 POP SWAP3 SWAP2 POP POP JUMP JUMPDEST PUSH0 PUSH1 0x8 DUP4 MUL PUSH2 0x1743 PUSH32 0xFFFFFFFFFFFFFFFFFFFFFFFFFFFFFFFFFFFFFFFFFFFFFFFFFFFFFFFFFFFFFFFF DUP3 PUSH2 0x1708 JUMP JUMPDEST PUSH2 0x174D DUP7 DUP4 PUSH2 0x1708 JUMP JUMPDEST SWAP6 POP DUP1 NOT DUP5 AND SWAP4 POP DUP1 DUP7 AND DUP5 OR SWAP3 POP POP POP SWAP4 SWAP3 POP POP POP JUMP JUMPDEST PUSH0 DUP2 SWAP1 POP SWAP2 SWAP1 POP JUMP JUMPDEST PUSH0 PUSH2 0x1788 PUSH2 0x1783 PUSH2 0x177E DUP5 PUSH2 0xFB7 JUMP JUMPDEST PUSH2 0x1765 JUMP JUMPDEST PUSH2 0xFB7 JUMP JUMPDEST SWAP1 POP SWAP2 SWAP1 POP JUMP JUMPDEST PUSH0 DUP2 SWAP1 POP SWAP2 SWAP1 POP JUMP JUMPDEST PUSH2 0x17A1 DUP4 PUSH2 0x176E JUMP JUMPDEST PUSH2 0x17B5 PUSH2 0x17AD DUP3 PUSH2 0x178F JUMP JUMPDEST DUP5 DUP5 SLOAD PUSH2 0x1714 JUMP JUMPDEST DUP3 SSTORE POP POP POP POP JUMP JUMPDEST PUSH0 SWAP1 JUMP JUMPDEST PUSH2 0x17C9 PUSH2 0x17BD JUMP JUMPDEST PUSH2 0x17D4 DUP2 DUP5 DUP5 PUSH2 0x1798 JUMP JUMPDEST POP POP POP JUMP JUMPDEST JUMPDEST DUP2 DUP2 LT ISZERO PUSH2 0x17F7 JUMPI PUSH2 0x17EC PUSH0 DUP3 PUSH2 0x17C1 JUMP JUMPDEST PUSH1 0x1 DUP2 ADD SWAP1 POP PUSH2 0x17DA JUMP JUMPDEST POP POP JUMP JUMPDEST PUSH1 0x1F DUP3 GT ISZERO PUSH2 0x183C JUMPI PUSH2 0x180D DUP2 PUSH2 0x16E7 JUMP JUMPDEST PUSH2 0x1816 DUP5 PUSH2 0x16F9 JUMP JUMPDEST DUP2 ADD PUSH1 0x20 DUP6 LT ISZERO PUSH2 0x1825 JUMPI DUP2 SWAP1 POP JUMPDEST PUSH2 0x1839 PUSH2 0x1831 DUP6 PUSH2 0x16F9 JUMP JUMPDEST DUP4 ADD DUP3 PUSH2 0x17D9 JUMP JUMPDEST POP POP JUMPDEST POP POP POP JUMP JUMPDEST PUSH0 DUP3 DUP3 SHR SWAP1 POP SWAP3 SWAP2 POP POP JUMP JUMPDEST PUSH0 PUSH2 0x185C PUSH0 NOT DUP5 PUSH1 0x8 MUL PUSH2 0x1841 JUMP JUMPDEST NOT DUP1 DUP4 AND SWAP2 POP POP SWAP3 SWAP2 POP POP JUMP JUMPDEST PUSH0 PUSH2 0x1874 DUP4 DUP4 PUSH2 0x184D JUMP JUMPDEST SWAP2 POP DUP3 PUSH1 0x2 MUL DUP3 OR SWAP1 POP SWAP3 SWAP2 POP POP JUMP JUMPDEST PUSH2 0x188D DUP3 PUSH2 0x111A JUMP JUMPDEST PUSH8 0xFFFFFFFFFFFFFFFF DUP2 GT ISZERO PUSH2 0x18A6 JUMPI PUSH2 0x18A5 PUSH2 0xE93 JUMP JUMPDEST JUMPDEST PUSH2 0x18B0 DUP3 SLOAD PUSH2 0x16B7 JUMP JUMPDEST PUSH2 0x18BB DUP3 DUP3 DUP6 PUSH2 0x17FB JUMP JUMPDEST PUSH0 PUSH1 0x20 SWAP1 POP PUSH1 0x1F DUP4 GT PUSH1 0x1 DUP2 EQ PUSH2 0x18EC JUMPI PUSH0 DUP5 ISZERO PUSH2 0x18DA JUMPI DUP3 DUP8 ADD MLOAD SWAP1 POP JUMPDEST PUSH2 0x18E4 DUP6 DUP3 PUSH2 0x1869 JUMP JUMPDEST DUP7 SSTORE POP PUSH2 0x194B JUMP JUMPDEST PUSH1 0x1F NOT DUP5 AND PUSH2 0x18FA DUP7 PUSH2 0x16E7 JUMP JUMPDEST PUSH0 JUMPDEST DUP3 DUP2 LT ISZERO PUSH2 0x1921 JUMPI DUP5 DUP10 ADD MLOAD DUP3 SSTORE PUSH1 0x1 DUP3 ADD SWAP2 POP PUSH1 0x20 DUP6 ADD SWAP5 POP PUSH1 0x20 DUP2 ADD SWAP1 POP PUSH2 0x18FC JUMP JUMPDEST DUP7 DUP4 LT ISZERO PUSH2 0x193E JUMPI DUP5 DUP10 ADD MLOAD PUSH2 0x193A PUSH1 0x1F DUP10 AND DUP3 PUSH2 0x184D JUMP JUMPDEST DUP4 SSTORE POP JUMPDEST PUSH1 0x1 PUSH1 0x2 DUP9 MUL ADD DUP9 SSTORE POP POP POP JUMPDEST POP POP POP POP POP POP JUMP INVALID LOG2 PUSH5 0x6970667358 0x22 SLT KECCAK256 0xDB TIMESTAMP 0x28 0xF9 GASPRICE STOP CODECOPY CHAINID CALLCODE SELFBALANCE 0xCA 0xE5 SLT LOG1 PUSH24 0xF639034EB26B7B5D43DABCC6FA0640039464736F6C634300 ADDMOD EQ STOP CALLER "
				},
				"gasEstimates": {
					"creation": {
						"codeDepositCost": "1307400",
						"executionCost": "1361",
						"totalCost": "1308761"
					},
					"external": {
						"addDisease(string)": "infinite",
						"addMedicine(string,uint256,string,uint256)": "infinite",
						"prescribeMedicine(uint256,address)": "49416",
						"registerDoctor(string,string,string)": "infinite",
						"registerPatient(string,uint256)": "infinite",
						"updatePatientAge(uint256)": "24906",
						"viewDoctorDetails(uint256)": "infinite",
						"viewMedicineDetails(uint256)": "infinite",
						"viewPatientData()": "infinite",
						"viewPatientDataByDoctor(uint256)": "infinite",
						"viewPrescribedMedicines(address)": "infinite"
					}
				},
				"methodIdentifiers": {
					"addDisease(string)": "d47c029c",
					"addMedicine(string,uint256,string,uint256)": "45b06e4f",
					"prescribeMedicine(uint256,address)": "dcd0c2b2",
					"registerDoctor(string,string,string)": "50c7a912",
					"registerPatient(string,uint256)": "2de304ed",
					"updatePatientAge(uint256)": "e98ee2f0",
					"viewDoctorDetails(uint256)": "d5cfcb06",
					"viewMedicineDetails(uint256)": "cc7fa220",
					"viewPatientData()": "ac48ab0c",
					"viewPatientDataByDoctor(uint256)": "508bd55a",
					"viewPrescribedMedicines(address)": "d36000ed"
				}
			},
			"storageLayout": {
				"storage": [
					{
						"astId": 33,
						"contract": "contracts/Patient2.sol:HealthcareSystem",
						"label": "doctorCount",
						"offset": 0,
						"slot": "0",
						"type": "t_uint256"
					},
					{
						"astId": 35,
						"contract": "contracts/Patient2.sol:HealthcareSystem",
						"label": "patientCount",
						"offset": 0,
						"slot": "1",
						"type": "t_uint256"
					},
					{
						"astId": 37,
						"contract": "contracts/Patient2.sol:HealthcareSystem",
						"label": "medicineCount",
						"offset": 0,
						"slot": "2",
						"type": "t_uint256"
					},
					{
						"astId": 42,
						"contract": "contracts/Patient2.sol:HealthcareSystem",
						"label": "doctors",
						"offset": 0,
						"slot": "3",
						"type": "t_mapping(t_uint256,t_struct(Doctor)10_storage)"
					},
					{
						"astId": 46,
						"contract": "contracts/Patient2.sol:HealthcareSystem",
						"label": "doctorIds",
						"offset": 0,
						"slot": "4",
						"type": "t_mapping(t_address,t_uint256)"
					},
					{
						"astId": 51,
						"contract": "contracts/Patient2.sol:HealthcareSystem",
						"label": "patients",
						"offset": 0,
						"slot": "5",
						"type": "t_mapping(t_uint256,t_struct(Patient)20_storage)"
					},
					{
						"astId": 55,
						"contract": "contracts/Patient2.sol:HealthcareSystem",
						"label": "patientIds",
						"offset": 0,
						"slot": "6",
						"type": "t_mapping(t_address,t_uint256)"
					},
					{
						"astId": 60,
						"contract": "contracts/Patient2.sol:HealthcareSystem",
						"label": "medicines",
						"offset": 0,
						"slot": "7",
						"type": "t_mapping(t_uint256,t_struct(Medicine)31_storage)"
					},
					{
						"astId": 65,
						"contract": "contracts/Patient2.sol:HealthcareSystem",
						"label": "patientMedicines",
						"offset": 0,
						"slot": "8",
						"type": "t_mapping(t_address,t_array(t_uint256)dyn_storage)"
					}
				],
				"types": {
					"t_address": {
						"encoding": "inplace",
						"label": "address",
						"numberOfBytes": "20"
					},
					"t_array(t_string_storage)dyn_storage": {
						"base": "t_string_storage",
						"encoding": "dynamic_array",
						"label": "string[]",
						"numberOfBytes": "32"
					},
					"t_array(t_uint256)dyn_storage": {
						"base": "t_uint256",
						"encoding": "dynamic_array",
						"label": "uint256[]",
						"numberOfBytes": "32"
					},
					"t_mapping(t_address,t_array(t_uint256)dyn_storage)": {
						"encoding": "mapping",
						"key": "t_address",
						"label": "mapping(address => uint256[])",
						"numberOfBytes": "32",
						"value": "t_array(t_uint256)dyn_storage"
					},
					"t_mapping(t_address,t_uint256)": {
						"encoding": "mapping",
						"key": "t_address",
						"label": "mapping(address => uint256)",
						"numberOfBytes": "32",
						"value": "t_uint256"
					},
					"t_mapping(t_uint256,t_struct(Doctor)10_storage)": {
						"encoding": "mapping",
						"key": "t_uint256",
						"label": "mapping(uint256 => struct HealthcareSystem.Doctor)",
						"numberOfBytes": "32",
						"value": "t_struct(Doctor)10_storage"
					},
					"t_mapping(t_uint256,t_struct(Medicine)31_storage)": {
						"encoding": "mapping",
						"key": "t_uint256",
						"label": "mapping(uint256 => struct HealthcareSystem.Medicine)",
						"numberOfBytes": "32",
						"value": "t_struct(Medicine)31_storage"
					},
					"t_mapping(t_uint256,t_struct(Patient)20_storage)": {
						"encoding": "mapping",
						"key": "t_uint256",
						"label": "mapping(uint256 => struct HealthcareSystem.Patient)",
						"numberOfBytes": "32",
						"value": "t_struct(Patient)20_storage"
					},
					"t_string_storage": {
						"encoding": "bytes",
						"label": "string",
						"numberOfBytes": "32"
					},
					"t_struct(Doctor)10_storage": {
						"encoding": "inplace",
						"label": "struct HealthcareSystem.Doctor",
						"members": [
							{
								"astId": 3,
								"contract": "contracts/Patient2.sol:HealthcareSystem",
								"label": "id",
								"offset": 0,
								"slot": "0",
								"type": "t_uint256"
							},
							{
								"astId": 5,
								"contract": "contracts/Patient2.sol:HealthcareSystem",
								"label": "name",
								"offset": 0,
								"slot": "1",
								"type": "t_string_storage"
							},
							{
								"astId": 7,
								"contract": "contracts/Patient2.sol:HealthcareSystem",
								"label": "qualification",
								"offset": 0,
								"slot": "2",
								"type": "t_string_storage"
							},
							{
								"astId": 9,
								"contract": "contracts/Patient2.sol:HealthcareSystem",
								"label": "workPlace",
								"offset": 0,
								"slot": "3",
								"type": "t_string_storage"
							}
						],
						"numberOfBytes": "128"
					},
					"t_struct(Medicine)31_storage": {
						"encoding": "inplace",
						"label": "struct HealthcareSystem.Medicine",
						"members": [
							{
								"astId": 22,
								"contract": "contracts/Patient2.sol:HealthcareSystem",
								"label": "id",
								"offset": 0,
								"slot": "0",
								"type": "t_uint256"
							},
							{
								"astId": 24,
								"contract": "contracts/Patient2.sol:HealthcareSystem",
								"label": "name",
								"offset": 0,
								"slot": "1",
								"type": "t_string_storage"
							},
							{
								"astId": 26,
								"contract": "contracts/Patient2.sol:HealthcareSystem",
								"label": "expiryDate",
								"offset": 0,
								"slot": "2",
								"type": "t_uint256"
							},
							{
								"astId": 28,
								"contract": "contracts/Patient2.sol:HealthcareSystem",
								"label": "dose",
								"offset": 0,
								"slot": "3",
								"type": "t_string_storage"
							},
							{
								"astId": 30,
								"contract": "contracts/Patient2.sol:HealthcareSystem",
								"label": "price",
								"offset": 0,
								"slot": "4",
								"type": "t_uint256"
							}
						],
						"numberOfBytes": "160"
					},
					"t_struct(Patient)20_storage": {
						"encoding": "inplace",
						"label": "struct HealthcareSystem.Patient",
						"members": [
							{
								"astId": 12,
								"contract": "contracts/Patient2.sol:HealthcareSystem",
								"label": "id",
								"offset": 0,
								"slot": "0",
								"type": "t_uint256"
							},
							{
								"astId": 14,
								"contract": "contracts/Patient2.sol:HealthcareSystem",
								"label": "name",
								"offset": 0,
								"slot": "1",
								"type": "t_string_storage"
							},
							{
								"astId": 16,
								"contract": "contracts/Patient2.sol:HealthcareSystem",
								"label": "age",
								"offset": 0,
								"slot": "2",
								"type": "t_uint256"
							},
							{
								"astId": 19,
								"contract": "contracts/Patient2.sol:HealthcareSystem",
								"label": "diseases",
								"offset": 0,
								"slot": "3",
								"type": "t_array(t_string_storage)dyn_storage"
							}
						],
						"numberOfBytes": "128"
					},
					"t_uint256": {
						"encoding": "inplace",
						"label": "uint256",
						"numberOfBytes": "32"
					}
				}
			},
			"userdoc": {
				"kind": "user",
				"methods": {},
				"version": 1
			}
		}
	}
}