{
	"contracts/enum1.sol": {
		"test": {
			"abi": [
				{
					"inputs": [],
					"name": "getDefaultOrChoice",
					"outputs": [
						{
							"internalType": "uint256",
							"name": "",
							"type": "uint256"
						}
					],
					"stateMutability": "view",
					"type": "function"
				},
				{
					"inputs": [],
					"name": "getchoice",
					"outputs": [
						{
							"internalType": "enum test.PizzaSize",
							"name": "",
							"type": "uint8"
						}
					],
					"stateMutability": "view",
					"type": "function"
				},
				{
					"inputs": [],
					"name": "setMedium",
					"outputs": [],
					"stateMutability": "nonpayable",
					"type": "function"
				}
			],
			"devdoc": {
				"kind": "dev",
				"methods": {},
				"version": 1
			},
			"evm": {
				"assembly": "    /* \"contracts/enum1.sol\":28:469  contract test {... */\n  mstore(0x40, 0x80)\n    /* \"contracts/enum1.sol\":158:173  PizzaSize.LARGE */\n  0x02\n    /* \"contracts/enum1.sol\":133:173  PizzaSize defaultChoice= PizzaSize.LARGE */\n  0x00\n  exp(0x0100, 0x01)\n  dup2\n  sload\n  dup2\n  0xff\n  mul\n  not\n  and\n  swap1\n  dup4\n  0x02\n  dup2\n  gt\n  iszero\n  tag_1\n  jumpi\n  tag_2\n  tag_3\n  jump\t// in\ntag_2:\ntag_1:\n  mul\n  or\n  swap1\n  sstore\n  pop\n    /* \"contracts/enum1.sol\":28:469  contract test {... */\n  callvalue\n  dup1\n  iszero\n  tag_4\n  jumpi\n  0x00\n  dup1\n  revert\ntag_4:\n  pop\n  jump(tag_5)\n    /* \"#utility.yul\":7:187   */\ntag_3:\n    /* \"#utility.yul\":55:132   */\n  0x4e487b7100000000000000000000000000000000000000000000000000000000\n    /* \"#utility.yul\":52:53   */\n  0x00\n    /* \"#utility.yul\":45:133   */\n  mstore\n    /* \"#utility.yul\":152:156   */\n  0x21\n    /* \"#utility.yul\":149:150   */\n  0x04\n    /* \"#utility.yul\":142:157   */\n  mstore\n    /* \"#utility.yul\":176:180   */\n  0x24\n    /* \"#utility.yul\":173:174   */\n  0x00\n    /* \"#utility.yul\":166:181   */\n  revert\n    /* \"contracts/enum1.sol\":28:469  contract test {... */\ntag_5:\n  dataSize(sub_0)\n  dup1\n  dataOffset(sub_0)\n  0x00\n  codecopy\n  0x00\n  return\nstop\n\nsub_0: assembly {\n        /* \"contracts/enum1.sol\":28:469  contract test {... */\n      mstore(0x40, 0x80)\n      callvalue\n      dup1\n      iszero\n      tag_1\n      jumpi\n      0x00\n      dup1\n      revert\n    tag_1:\n      pop\n      jumpi(tag_2, lt(calldatasize, 0x04))\n      shr(0xe0, calldataload(0x00))\n      dup1\n      0x70c270bf\n      eq\n      tag_3\n      jumpi\n      dup1\n      0xaf53b6f3\n      eq\n      tag_4\n      jumpi\n      dup1\n      0xdb39b915\n      eq\n      tag_5\n      jumpi\n    tag_2:\n      0x00\n      dup1\n      revert\n        /* \"contracts/enum1.sol\":261:355  function getchoice() public view returns (PizzaSize)... */\n    tag_3:\n      tag_6\n      tag_7\n      jump\t// in\n    tag_6:\n      mload(0x40)\n      tag_8\n      swap2\n      swap1\n      tag_9\n      jump\t// in\n    tag_8:\n      mload(0x40)\n      dup1\n      swap2\n      sub\n      swap1\n      return\n        /* \"contracts/enum1.sol\":363:464  function getDefaultOrChoice() public view returns (uint){... */\n    tag_4:\n      tag_10\n      tag_11\n      jump\t// in\n    tag_10:\n      mload(0x40)\n      tag_12\n      swap2\n      swap1\n      tag_13\n      jump\t// in\n    tag_12:\n      mload(0x40)\n      dup1\n      swap2\n      sub\n      swap1\n      return\n        /* \"contracts/enum1.sol\":180:253  function setMedium()  public {... */\n    tag_5:\n      tag_14\n      tag_15\n      jump\t// in\n    tag_14:\n      stop\n        /* \"contracts/enum1.sol\":261:355  function getchoice() public view returns (PizzaSize)... */\n    tag_7:\n        /* \"contracts/enum1.sol\":303:312  PizzaSize */\n      0x00\n        /* \"contracts/enum1.sol\":341:347  choice */\n      dup1\n      0x00\n      swap1\n      sload\n      swap1\n      0x0100\n      exp\n      swap1\n      div\n      0xff\n      and\n        /* \"contracts/enum1.sol\":334:347  return choice */\n      swap1\n      pop\n        /* \"contracts/enum1.sol\":261:355  function getchoice() public view returns (PizzaSize)... */\n      swap1\n      jump\t// out\n        /* \"contracts/enum1.sol\":363:464  function getDefaultOrChoice() public view returns (uint){... */\n    tag_11:\n        /* \"contracts/enum1.sol\":414:418  uint */\n      0x00\n        /* \"contracts/enum1.sol\":442:455  defaultChoice */\n      dup1\n      0x01\n      swap1\n      sload\n      swap1\n      0x0100\n      exp\n      swap1\n      div\n      0xff\n      and\n        /* \"contracts/enum1.sol\":437:456  uint(defaultChoice) */\n      0x02\n      dup2\n      gt\n      iszero\n      tag_18\n      jumpi\n      tag_19\n      tag_20\n      jump\t// in\n    tag_19:\n    tag_18:\n        /* \"contracts/enum1.sol\":430:456  return uint(defaultChoice) */\n      swap1\n      pop\n        /* \"contracts/enum1.sol\":363:464  function getDefaultOrChoice() public view returns (uint){... */\n      swap1\n      jump\t// out\n        /* \"contracts/enum1.sol\":180:253  function setMedium()  public {... */\n    tag_15:\n        /* \"contracts/enum1.sol\":229:245  PizzaSize.MEDIUM */\n      0x01\n        /* \"contracts/enum1.sol\":220:226  choice */\n      0x00\n      dup1\n        /* \"contracts/enum1.sol\":220:245  choice = PizzaSize.MEDIUM */\n      0x0100\n      exp\n      dup2\n      sload\n      dup2\n      0xff\n      mul\n      not\n      and\n      swap1\n      dup4\n      0x02\n      dup2\n      gt\n      iszero\n      tag_22\n      jumpi\n      tag_23\n      tag_20\n      jump\t// in\n    tag_23:\n    tag_22:\n      mul\n      or\n      swap1\n      sstore\n      pop\n        /* \"contracts/enum1.sol\":180:253  function setMedium()  public {... */\n      jump\t// out\n        /* \"#utility.yul\":7:187   */\n    tag_20:\n        /* \"#utility.yul\":55:132   */\n      0x4e487b7100000000000000000000000000000000000000000000000000000000\n        /* \"#utility.yul\":52:53   */\n      0x00\n        /* \"#utility.yul\":45:133   */\n      mstore\n        /* \"#utility.yul\":152:156   */\n      0x21\n        /* \"#utility.yul\":149:150   */\n      0x04\n        /* \"#utility.yul\":142:157   */\n      mstore\n        /* \"#utility.yul\":176:180   */\n      0x24\n        /* \"#utility.yul\":173:174   */\n      0x00\n        /* \"#utility.yul\":166:181   */\n      revert\n        /* \"#utility.yul\":193:309   */\n    tag_24:\n        /* \"#utility.yul\":277:278   */\n      0x03\n        /* \"#utility.yul\":270:275   */\n      dup2\n        /* \"#utility.yul\":267:279   */\n      lt\n        /* \"#utility.yul\":257:303   */\n      tag_33\n      jumpi\n        /* \"#utility.yul\":283:301   */\n      tag_34\n      tag_20\n      jump\t// in\n    tag_34:\n        /* \"#utility.yul\":257:303   */\n    tag_33:\n        /* \"#utility.yul\":193:309   */\n      pop\n      jump\t// out\n        /* \"#utility.yul\":315:448   */\n    tag_25:\n        /* \"#utility.yul\":363:370   */\n      0x00\n        /* \"#utility.yul\":392:397   */\n      dup2\n        /* \"#utility.yul\":381:397   */\n      swap1\n      pop\n        /* \"#utility.yul\":398:442   */\n      tag_36\n        /* \"#utility.yul\":436:441   */\n      dup3\n        /* \"#utility.yul\":398:442   */\n      tag_24\n      jump\t// in\n    tag_36:\n        /* \"#utility.yul\":315:448   */\n      swap2\n      swap1\n      pop\n      jump\t// out\n        /* \"#utility.yul\":454:587   */\n    tag_26:\n        /* \"#utility.yul\":513:522   */\n      0x00\n        /* \"#utility.yul\":546:581   */\n      tag_38\n        /* \"#utility.yul\":575:580   */\n      dup3\n        /* \"#utility.yul\":546:581   */\n      tag_25\n      jump\t// in\n    tag_38:\n        /* \"#utility.yul\":533:581   */\n      swap1\n      pop\n        /* \"#utility.yul\":454:587   */\n      swap2\n      swap1\n      pop\n      jump\t// out\n        /* \"#utility.yul\":593:742   */\n    tag_27:\n        /* \"#utility.yul\":689:735   */\n      tag_40\n        /* \"#utility.yul\":729:734   */\n      dup2\n        /* \"#utility.yul\":689:735   */\n      tag_26\n      jump\t// in\n    tag_40:\n        /* \"#utility.yul\":684:687   */\n      dup3\n        /* \"#utility.yul\":677:736   */\n      mstore\n        /* \"#utility.yul\":593:742   */\n      pop\n      pop\n      jump\t// out\n        /* \"#utility.yul\":748:988   */\n    tag_9:\n        /* \"#utility.yul\":850:854   */\n      0x00\n        /* \"#utility.yul\":888:890   */\n      0x20\n        /* \"#utility.yul\":877:886   */\n      dup3\n        /* \"#utility.yul\":873:891   */\n      add\n        /* \"#utility.yul\":865:891   */\n      swap1\n      pop\n        /* \"#utility.yul\":901:981   */\n      tag_42\n        /* \"#utility.yul\":978:979   */\n      0x00\n        /* \"#utility.yul\":967:976   */\n      dup4\n        /* \"#utility.yul\":963:980   */\n      add\n        /* \"#utility.yul\":954:960   */\n      dup5\n        /* \"#utility.yul\":901:981   */\n      tag_27\n      jump\t// in\n    tag_42:\n        /* \"#utility.yul\":748:988   */\n      swap3\n      swap2\n      pop\n      pop\n      jump\t// out\n        /* \"#utility.yul\":994:1071   */\n    tag_28:\n        /* \"#utility.yul\":1031:1038   */\n      0x00\n        /* \"#utility.yul\":1060:1065   */\n      dup2\n        /* \"#utility.yul\":1049:1065   */\n      swap1\n      pop\n        /* \"#utility.yul\":994:1071   */\n      swap2\n      swap1\n      pop\n      jump\t// out\n        /* \"#utility.yul\":1077:1195   */\n    tag_29:\n        /* \"#utility.yul\":1164:1188   */\n      tag_45\n        /* \"#utility.yul\":1182:1187   */\n      dup2\n        /* \"#utility.yul\":1164:1188   */\n      tag_28\n      jump\t// in\n    tag_45:\n        /* \"#utility.yul\":1159:1162   */\n      dup3\n        /* \"#utility.yul\":1152:1189   */\n      mstore\n        /* \"#utility.yul\":1077:1195   */\n      pop\n      pop\n      jump\t// out\n        /* \"#utility.yul\":1201:1423   */\n    tag_13:\n        /* \"#utility.yul\":1294:1298   */\n      0x00\n        /* \"#utility.yul\":1332:1334   */\n      0x20\n        /* \"#utility.yul\":1321:1330   */\n      dup3\n        /* \"#utility.yul\":1317:1335   */\n      add\n        /* \"#utility.yul\":1309:1335   */\n      swap1\n      pop\n        /* \"#utility.yul\":1345:1416   */\n      tag_47\n        /* \"#utility.yul\":1413:1414   */\n      0x00\n        /* \"#utility.yul\":1402:1411   */\n      dup4\n        /* \"#utility.yul\":1398:1415   */\n      add\n        /* \"#utility.yul\":1389:1395   */\n      dup5\n        /* \"#utility.yul\":1345:1416   */\n      tag_29\n      jump\t// in\n    tag_47:\n        /* \"#utility.yul\":1201:1423   */\n      swap3\n      swap2\n      pop\n      pop\n      jump\t// out\n\n    auxdata: 0xa264697066735822122003193b99da26e1474bafb6e17910a10c2f2fd5b93e49c98dce2e6d49f05dd4c264736f6c634300080e0033\n}\n",
				"bytecode": {
					"linkReferences": {},
					"object": "60806040526002600060016101000a81548160ff0219169083600281111561002a57610029610041565b5b021790555034801561003b57600080fd5b50610070565b7f4e487b7100000000000000000000000000000000000000000000000000000000600052602160045260246000fd5b6101f28061007f6000396000f3fe608060405234801561001057600080fd5b50600436106100415760003560e01c806370c270bf14610046578063af53b6f314610064578063db39b91514610082575b600080fd5b61004e61008c565b60405161005b919061016d565b60405180910390f35b61006c6100a2565b60405161007991906101a1565b60405180910390f35b61008a6100ca565b005b60008060009054906101000a900460ff16905090565b60008060019054906101000a900460ff1660028111156100c5576100c46100f6565b5b905090565b60016000806101000a81548160ff021916908360028111156100ef576100ee6100f6565b5b0217905550565b7f4e487b7100000000000000000000000000000000000000000000000000000000600052602160045260246000fd5b60038110610136576101356100f6565b5b50565b600081905061014782610125565b919050565b600061015782610139565b9050919050565b6101678161014c565b82525050565b6000602082019050610182600083018461015e565b92915050565b6000819050919050565b61019b81610188565b82525050565b60006020820190506101b66000830184610192565b9291505056fea264697066735822122003193b99da26e1474bafb6e17910a10c2f2fd5b93e49c98dce2e6d49f05dd4c264736f6c634300080e0033",
					"opcodes": "PUSH1 0x80 PUSH1 0x40 MSTORE PUSH1 0x2 PUSH1 0x0 PUSH1 0x1 PUSH2 0x100 EXP DUP2 SLOAD DUP2 PUSH1 0xFF MUL NOT AND SWAP1 DUP4 PUSH1 0x2 DUP2 GT ISZERO PUSH2 0x2A JUMPI PUSH2 0x29 PUSH2 0x41 JUMP JUMPDEST JUMPDEST MUL OR SWAP1 SSTORE POP CALLVALUE DUP1 ISZERO PUSH2 0x3B JUMPI PUSH1 0x0 DUP1 REVERT JUMPDEST POP PUSH2 0x70 JUMP JUMPDEST PUSH32 0x4E487B7100000000000000000000000000000000000000000000000000000000 PUSH1 0x0 MSTORE PUSH1 0x21 PUSH1 0x4 MSTORE PUSH1 0x24 PUSH1 0x0 REVERT JUMPDEST PUSH2 0x1F2 DUP1 PUSH2 0x7F PUSH1 0x0 CODECOPY PUSH1 0x0 RETURN INVALID PUSH1 0x80 PUSH1 0x40 MSTORE CALLVALUE DUP1 ISZERO PUSH2 0x10 JUMPI PUSH1 0x0 DUP1 REVERT JUMPDEST POP PUSH1 0x4 CALLDATASIZE LT PUSH2 0x41 JUMPI PUSH1 0x0 CALLDATALOAD PUSH1 0xE0 SHR DUP1 PUSH4 0x70C270BF EQ PUSH2 0x46 JUMPI DUP1 PUSH4 0xAF53B6F3 EQ PUSH2 0x64 JUMPI DUP1 PUSH4 0xDB39B915 EQ PUSH2 0x82 JUMPI JUMPDEST PUSH1 0x0 DUP1 REVERT JUMPDEST PUSH2 0x4E PUSH2 0x8C JUMP JUMPDEST PUSH1 0x40 MLOAD PUSH2 0x5B SWAP2 SWAP1 PUSH2 0x16D JUMP JUMPDEST PUSH1 0x40 MLOAD DUP1 SWAP2 SUB SWAP1 RETURN JUMPDEST PUSH2 0x6C PUSH2 0xA2 JUMP JUMPDEST PUSH1 0x40 MLOAD PUSH2 0x79 SWAP2 SWAP1 PUSH2 0x1A1 JUMP JUMPDEST PUSH1 0x40 MLOAD DUP1 SWAP2 SUB SWAP1 RETURN JUMPDEST PUSH2 0x8A PUSH2 0xCA JUMP JUMPDEST STOP JUMPDEST PUSH1 0x0 DUP1 PUSH1 0x0 SWAP1 SLOAD SWAP1 PUSH2 0x100 EXP SWAP1 DIV PUSH1 0xFF AND SWAP1 POP SWAP1 JUMP JUMPDEST PUSH1 0x0 DUP1 PUSH1 0x1 SWAP1 SLOAD SWAP1 PUSH2 0x100 EXP SWAP1 DIV PUSH1 0xFF AND PUSH1 0x2 DUP2 GT ISZERO PUSH2 0xC5 JUMPI PUSH2 0xC4 PUSH2 0xF6 JUMP JUMPDEST JUMPDEST SWAP1 POP SWAP1 JUMP JUMPDEST PUSH1 0x1 PUSH1 0x0 DUP1 PUSH2 0x100 EXP DUP2 SLOAD DUP2 PUSH1 0xFF MUL NOT AND SWAP1 DUP4 PUSH1 0x2 DUP2 GT ISZERO PUSH2 0xEF JUMPI PUSH2 0xEE PUSH2 0xF6 JUMP JUMPDEST JUMPDEST MUL OR SWAP1 SSTORE POP JUMP JUMPDEST PUSH32 0x4E487B7100000000000000000000000000000000000000000000000000000000 PUSH1 0x0 MSTORE PUSH1 0x21 PUSH1 0x4 MSTORE PUSH1 0x24 PUSH1 0x0 REVERT JUMPDEST PUSH1 0x3 DUP2 LT PUSH2 0x136 JUMPI PUSH2 0x135 PUSH2 0xF6 JUMP JUMPDEST JUMPDEST POP JUMP JUMPDEST PUSH1 0x0 DUP2 SWAP1 POP PUSH2 0x147 DUP3 PUSH2 0x125 JUMP JUMPDEST SWAP2 SWAP1 POP JUMP JUMPDEST PUSH1 0x0 PUSH2 0x157 DUP3 PUSH2 0x139 JUMP JUMPDEST SWAP1 POP SWAP2 SWAP1 POP JUMP JUMPDEST PUSH2 0x167 DUP2 PUSH2 0x14C JUMP JUMPDEST DUP3 MSTORE POP POP JUMP JUMPDEST PUSH1 0x0 PUSH1 0x20 DUP3 ADD SWAP1 POP PUSH2 0x182 PUSH1 0x0 DUP4 ADD DUP5 PUSH2 0x15E JUMP JUMPDEST SWAP3 SWAP2 POP POP JUMP JUMPDEST PUSH1 0x0 DUP2 SWAP1 POP SWAP2 SWAP1 POP JUMP JUMPDEST PUSH2 0x19B DUP2 PUSH2 0x188 JUMP JUMPDEST DUP3 MSTORE POP POP JUMP JUMPDEST PUSH1 0x0 PUSH1 0x20 DUP3 ADD SWAP1 POP PUSH2 0x1B6 PUSH1 0x0 DUP4 ADD DUP5 PUSH2 0x192 JUMP JUMPDEST SWAP3 SWAP2 POP POP JUMP INVALID LOG2 PUSH5 0x6970667358 0x22 SLT KECCAK256 SUB NOT EXTCODESIZE SWAP10 0xDA 0x26 0xE1 SELFBALANCE 0x4B 0xAF 0xB6 0xE1 PUSH26 0x10A10C2F2FD5B93E49C98DCE2E6D49F05DD4C264736F6C634300 ADDMOD 0xE STOP CALLER "
				},
				"gasEstimates": {
					"creation": {
						"codeDepositCost": "99600",
						"executionCost": "24496",
						"totalCost": "124096"
					},
					"external": {
						"getDefaultOrChoice()": "2549",
						"getchoice()": "2546",
						"setMedium()": "24453"
					}
				},
				"methodIdentifiers": {
					"getDefaultOrChoice()": "af53b6f3",
					"getchoice()": "70c270bf",
					"setMedium()": "db39b915"
				}
			},
			"storageLayout": {
				"storage": [
					{
						"astId": 8,
						"contract": "contracts/enum1.sol:test",
						"label": "choice",
						"offset": 0,
						"slot": "0",
						"type": "t_enum(PizzaSize)5"
					},
					{
						"astId": 13,
						"contract": "contracts/enum1.sol:test",
						"label": "defaultChoice",
						"offset": 1,
						"slot": "0",
						"type": "t_enum(PizzaSize)5"
					}
				],
				"types": {
					"t_enum(PizzaSize)5": {
						"encoding": "inplace",
						"label": "enum test.PizzaSize",
						"numberOfBytes": "1"
					}
				}
			},
			"userdoc": {
				"kind": "user",
				"methods": {},
				"version": 1
			}
		}
	}
}