{
	"contracts/singlelineMapping.sol": {
		"test": {
			"abi": [
				{
					"inputs": [
						{
							"internalType": "uint256",
							"name": "",
							"type": "uint256"
						}
					],
					"name": "SLParticipant",
					"outputs": [
						{
							"internalType": "string",
							"name": "Pname",
							"type": "string"
						},
						{
							"internalType": "uint256",
							"name": "Page",
							"type": "uint256"
						},
						{
							"internalType": "uint256",
							"name": "PphoneNo",
							"type": "uint256"
						},
						{
							"internalType": "string",
							"name": "Pemail",
							"type": "string"
						},
						{
							"internalType": "string",
							"name": "courseEnrolled",
							"type": "string"
						},
						{
							"internalType": "bool",
							"name": "feePaid",
							"type": "bool"
						}
					],
					"stateMutability": "view",
					"type": "function"
				},
				{
					"inputs": [
						{
							"internalType": "uint256",
							"name": "key",
							"type": "uint256"
						},
						{
							"internalType": "string",
							"name": "_name",
							"type": "string"
						},
						{
							"internalType": "uint256",
							"name": "_page",
							"type": "uint256"
						},
						{
							"internalType": "uint256",
							"name": "_pphoneNo",
							"type": "uint256"
						},
						{
							"internalType": "string",
							"name": "pemail",
							"type": "string"
						},
						{
							"internalType": "string",
							"name": "_courseenrolled",
							"type": "string"
						},
						{
							"internalType": "bool",
							"name": "_feepaid",
							"type": "bool"
						}
					],
					"name": "addParticipant",
					"outputs": [],
					"stateMutability": "nonpayable",
					"type": "function"
				},
				{
					"inputs": [
						{
							"internalType": "uint256",
							"name": "key",
							"type": "uint256"
						}
					],
					"name": "getparticipant",
					"outputs": [
						{
							"components": [
								{
									"internalType": "string",
									"name": "Pname",
									"type": "string"
								},
								{
									"internalType": "uint256",
									"name": "Page",
									"type": "uint256"
								},
								{
									"internalType": "uint256",
									"name": "PphoneNo",
									"type": "uint256"
								},
								{
									"internalType": "string",
									"name": "Pemail",
									"type": "string"
								},
								{
									"internalType": "string",
									"name": "courseEnrolled",
									"type": "string"
								},
								{
									"internalType": "bool",
									"name": "feePaid",
									"type": "bool"
								}
							],
							"internalType": "struct test.Participant",
							"name": "",
							"type": "tuple"
						}
					],
					"stateMutability": "view",
					"type": "function"
				}
			],
			"devdoc": {
				"kind": "dev",
				"methods": {},
				"version": 1
			},
			"evm": {
				"assembly": "    /* \"contracts/singlelineMapping.sol\":28:776  contract test {... */\n  mstore(0x40, 0x80)\n  callvalue\n  dup1\n  iszero\n  tag_1\n  jumpi\n  0x00\n  dup1\n  revert\ntag_1:\n  pop\n  dataSize(sub_0)\n  dup1\n  dataOffset(sub_0)\n  0x00\n  codecopy\n  0x00\n  return\nstop\n\nsub_0: assembly {\n        /* \"contracts/singlelineMapping.sol\":28:776  contract test {... */\n      mstore(0x40, 0x80)\n      callvalue\n      dup1\n      iszero\n      tag_1\n      jumpi\n      0x00\n      dup1\n      revert\n    tag_1:\n      pop\n      jumpi(tag_2, lt(calldatasize, 0x04))\n      shr(0xe0, calldataload(0x00))\n      dup1\n      0x2a72500a\n      eq\n      tag_3\n      jumpi\n      dup1\n      0xa82dab0b\n      eq\n      tag_4\n      jumpi\n      dup1\n      0xde02c544\n      eq\n      tag_5\n      jumpi\n    tag_2:\n      0x00\n      dup1\n      revert\n        /* \"contracts/singlelineMapping.sol\":329:620  function addParticipant(uint key, string memory _name, uint _page, uint _pphoneNo, string memory pemail,... */\n    tag_3:\n      tag_6\n      0x04\n      dup1\n      calldatasize\n      sub\n      dup2\n      add\n      swap1\n      tag_7\n      swap2\n      swap1\n      tag_8\n      jump\t// in\n    tag_7:\n      tag_9\n      jump\t// in\n    tag_6:\n      stop\n        /* \"contracts/singlelineMapping.sol\":640:769  function getparticipant(uint key) public view returns(Participant memory){... */\n    tag_4:\n      tag_10\n      0x04\n      dup1\n      calldatasize\n      sub\n      dup2\n      add\n      swap1\n      tag_11\n      swap2\n      swap1\n      tag_12\n      jump\t// in\n    tag_11:\n      tag_13\n      jump\t// in\n    tag_10:\n      mload(0x40)\n      tag_14\n      swap2\n      swap1\n      tag_15\n      jump\t// in\n    tag_14:\n      mload(0x40)\n      dup1\n      swap2\n      sub\n      swap1\n      return\n        /* \"contracts/singlelineMapping.sol\":266:316  mapping (uint => Participant) public SLParticipant */\n    tag_5:\n      tag_16\n      0x04\n      dup1\n      calldatasize\n      sub\n      dup2\n      add\n      swap1\n      tag_17\n      swap2\n      swap1\n      tag_12\n      jump\t// in\n    tag_17:\n      tag_18\n      jump\t// in\n    tag_16:\n      mload(0x40)\n      tag_19\n      swap7\n      swap6\n      swap5\n      swap4\n      swap3\n      swap2\n      swap1\n      tag_20\n      jump\t// in\n    tag_19:\n      mload(0x40)\n      dup1\n      swap2\n      sub\n      swap1\n      return\n        /* \"contracts/singlelineMapping.sol\":329:620  function addParticipant(uint key, string memory _name, uint _page, uint _pphoneNo, string memory pemail,... */\n    tag_9:\n        /* \"contracts/singlelineMapping.sol\":537:608  Participant(_name, _page, _pphoneNo, pemail, _courseenrolled, _feepaid) */\n      mload(0x40)\n      dup1\n      0xc0\n      add\n      0x40\n      mstore\n      dup1\n        /* \"contracts/singlelineMapping.sol\":549:554  _name */\n      dup8\n        /* \"contracts/singlelineMapping.sol\":537:608  Participant(_name, _page, _pphoneNo, pemail, _courseenrolled, _feepaid) */\n      dup2\n      mstore\n      0x20\n      add\n        /* \"contracts/singlelineMapping.sol\":556:561  _page */\n      dup7\n        /* \"contracts/singlelineMapping.sol\":537:608  Participant(_name, _page, _pphoneNo, pemail, _courseenrolled, _feepaid) */\n      dup2\n      mstore\n      0x20\n      add\n        /* \"contracts/singlelineMapping.sol\":563:572  _pphoneNo */\n      dup6\n        /* \"contracts/singlelineMapping.sol\":537:608  Participant(_name, _page, _pphoneNo, pemail, _courseenrolled, _feepaid) */\n      dup2\n      mstore\n      0x20\n      add\n        /* \"contracts/singlelineMapping.sol\":574:580  pemail */\n      dup5\n        /* \"contracts/singlelineMapping.sol\":537:608  Participant(_name, _page, _pphoneNo, pemail, _courseenrolled, _feepaid) */\n      dup2\n      mstore\n      0x20\n      add\n        /* \"contracts/singlelineMapping.sol\":582:597  _courseenrolled */\n      dup4\n        /* \"contracts/singlelineMapping.sol\":537:608  Participant(_name, _page, _pphoneNo, pemail, _courseenrolled, _feepaid) */\n      dup2\n      mstore\n      0x20\n      add\n        /* \"contracts/singlelineMapping.sol\":599:607  _feepaid */\n      dup3\n        /* \"contracts/singlelineMapping.sol\":537:608  Participant(_name, _page, _pphoneNo, pemail, _courseenrolled, _feepaid) */\n      iszero\n      iszero\n      dup2\n      mstore\n      pop\n        /* \"contracts/singlelineMapping.sol\":516:529  SLParticipant */\n      0x00\n        /* \"contracts/singlelineMapping.sol\":516:534  SLParticipant[key] */\n      dup1\n        /* \"contracts/singlelineMapping.sol\":530:533  key */\n      dup10\n        /* \"contracts/singlelineMapping.sol\":516:534  SLParticipant[key] */\n      dup2\n      mstore\n      0x20\n      add\n      swap1\n      dup2\n      mstore\n      0x20\n      add\n      0x00\n      keccak256\n        /* \"contracts/singlelineMapping.sol\":516:608  SLParticipant[key] = Participant(_name, _page, _pphoneNo, pemail, _courseenrolled, _feepaid) */\n      0x00\n      dup3\n      add\n      mload\n      dup2\n      0x00\n      add\n      swap1\n      dup2\n      tag_22\n      swap2\n      swap1\n      tag_23\n      jump\t// in\n    tag_22:\n      pop\n      0x20\n      dup3\n      add\n      mload\n      dup2\n      0x01\n      add\n      sstore\n      0x40\n      dup3\n      add\n      mload\n      dup2\n      0x02\n      add\n      sstore\n      0x60\n      dup3\n      add\n      mload\n      dup2\n      0x03\n      add\n      swap1\n      dup2\n      tag_24\n      swap2\n      swap1\n      tag_23\n      jump\t// in\n    tag_24:\n      pop\n      0x80\n      dup3\n      add\n      mload\n      dup2\n      0x04\n      add\n      swap1\n      dup2\n      tag_25\n      swap2\n      swap1\n      tag_23\n      jump\t// in\n    tag_25:\n      pop\n      0xa0\n      dup3\n      add\n      mload\n      dup2\n      0x05\n      add\n      exp(0x0100, 0x00)\n      dup2\n      sload\n      dup2\n      0xff\n      mul\n      not\n      and\n      swap1\n      dup4\n      iszero\n      iszero\n      mul\n      or\n      swap1\n      sstore\n      pop\n      swap1\n      pop\n      pop\n        /* \"contracts/singlelineMapping.sol\":329:620  function addParticipant(uint key, string memory _name, uint _page, uint _pphoneNo, string memory pemail,... */\n      pop\n      pop\n      pop\n      pop\n      pop\n      pop\n      pop\n      jump\t// out\n        /* \"contracts/singlelineMapping.sol\":640:769  function getparticipant(uint key) public view returns(Participant memory){... */\n    tag_13:\n        /* \"contracts/singlelineMapping.sol\":694:712  Participant memory */\n      tag_26\n      tag_27\n      jump\t// in\n    tag_26:\n        /* \"contracts/singlelineMapping.sol\":739:752  SLParticipant */\n      0x00\n        /* \"contracts/singlelineMapping.sol\":739:757  SLParticipant[key] */\n      dup1\n        /* \"contracts/singlelineMapping.sol\":753:756  key */\n      dup4\n        /* \"contracts/singlelineMapping.sol\":739:757  SLParticipant[key] */\n      dup2\n      mstore\n      0x20\n      add\n      swap1\n      dup2\n      mstore\n      0x20\n      add\n      0x00\n      keccak256\n        /* \"contracts/singlelineMapping.sol\":732:757  return SLParticipant[key] */\n      mload(0x40)\n      dup1\n      0xc0\n      add\n      0x40\n      mstore\n      swap1\n      dup2\n      0x00\n      dup3\n      add\n      dup1\n      sload\n      tag_29\n      swap1\n      tag_30\n      jump\t// in\n    tag_29:\n      dup1\n      0x1f\n      add\n      0x20\n      dup1\n      swap2\n      div\n      mul\n      0x20\n      add\n      mload(0x40)\n      swap1\n      dup2\n      add\n      0x40\n      mstore\n      dup1\n      swap3\n      swap2\n      swap1\n      dup2\n      dup2\n      mstore\n      0x20\n      add\n      dup3\n      dup1\n      sload\n      tag_31\n      swap1\n      tag_30\n      jump\t// in\n    tag_31:\n      dup1\n      iszero\n      tag_32\n      jumpi\n      dup1\n      0x1f\n      lt\n      tag_33\n      jumpi\n      0x0100\n      dup1\n      dup4\n      sload\n      div\n      mul\n      dup4\n      mstore\n      swap2\n      0x20\n      add\n      swap2\n      jump(tag_32)\n    tag_33:\n      dup3\n      add\n      swap2\n      swap1\n      0x00\n      mstore\n      keccak256(0x00, 0x20)\n      swap1\n    tag_34:\n      dup2\n      sload\n      dup2\n      mstore\n      swap1\n      0x01\n      add\n      swap1\n      0x20\n      add\n      dup1\n      dup4\n      gt\n      tag_34\n      jumpi\n      dup3\n      swap1\n      sub\n      0x1f\n      and\n      dup3\n      add\n      swap2\n    tag_32:\n      pop\n      pop\n      pop\n      pop\n      pop\n      dup2\n      mstore\n      0x20\n      add\n      0x01\n      dup3\n      add\n      sload\n      dup2\n      mstore\n      0x20\n      add\n      0x02\n      dup3\n      add\n      sload\n      dup2\n      mstore\n      0x20\n      add\n      0x03\n      dup3\n      add\n      dup1\n      sload\n      tag_35\n      swap1\n      tag_30\n      jump\t// in\n    tag_35:\n      dup1\n      0x1f\n      add\n      0x20\n      dup1\n      swap2\n      div\n      mul\n      0x20\n      add\n      mload(0x40)\n      swap1\n      dup2\n      add\n      0x40\n      mstore\n      dup1\n      swap3\n      swap2\n      swap1\n      dup2\n      dup2\n      mstore\n      0x20\n      add\n      dup3\n      dup1\n      sload\n      tag_36\n      swap1\n      tag_30\n      jump\t// in\n    tag_36:\n      dup1\n      iszero\n      tag_37\n      jumpi\n      dup1\n      0x1f\n      lt\n      tag_38\n      jumpi\n      0x0100\n      dup1\n      dup4\n      sload\n      div\n      mul\n      dup4\n      mstore\n      swap2\n      0x20\n      add\n      swap2\n      jump(tag_37)\n    tag_38:\n      dup3\n      add\n      swap2\n      swap1\n      0x00\n      mstore\n      keccak256(0x00, 0x20)\n      swap1\n    tag_39:\n      dup2\n      sload\n      dup2\n      mstore\n      swap1\n      0x01\n      add\n      swap1\n      0x20\n      add\n      dup1\n      dup4\n      gt\n      tag_39\n      jumpi\n      dup3\n      swap1\n      sub\n      0x1f\n      and\n      dup3\n      add\n      swap2\n    tag_37:\n      pop\n      pop\n      pop\n      pop\n      pop\n      dup2\n      mstore\n      0x20\n      add\n      0x04\n      dup3\n      add\n      dup1\n      sload\n      tag_40\n      swap1\n      tag_30\n      jump\t// in\n    tag_40:\n      dup1\n      0x1f\n      add\n      0x20\n      dup1\n      swap2\n      div\n      mul\n      0x20\n      add\n      mload(0x40)\n      swap1\n      dup2\n      add\n      0x40\n      mstore\n      dup1\n      swap3\n      swap2\n      swap1\n      dup2\n      dup2\n      mstore\n      0x20\n      add\n      dup3\n      dup1\n      sload\n      tag_41\n      swap1\n      tag_30\n      jump\t// in\n    tag_41:\n      dup1\n      iszero\n      tag_42\n      jumpi\n      dup1\n      0x1f\n      lt\n      tag_43\n      jumpi\n      0x0100\n      dup1\n      dup4\n      sload\n      div\n      mul\n      dup4\n      mstore\n      swap2\n      0x20\n      add\n      swap2\n      jump(tag_42)\n    tag_43:\n      dup3\n      add\n      swap2\n      swap1\n      0x00\n      mstore\n      keccak256(0x00, 0x20)\n      swap1\n    tag_44:\n      dup2\n      sload\n      dup2\n      mstore\n      swap1\n      0x01\n      add\n      swap1\n      0x20\n      add\n      dup1\n      dup4\n      gt\n      tag_44\n      jumpi\n      dup3\n      swap1\n      sub\n      0x1f\n      and\n      dup3\n      add\n      swap2\n    tag_42:\n      pop\n      pop\n      pop\n      pop\n      pop\n      dup2\n      mstore\n      0x20\n      add\n      0x05\n      dup3\n      add\n      0x00\n      swap1\n      sload\n      swap1\n      0x0100\n      exp\n      swap1\n      div\n      0xff\n      and\n      iszero\n      iszero\n      iszero\n      iszero\n      dup2\n      mstore\n      pop\n      pop\n      swap1\n      pop\n        /* \"contracts/singlelineMapping.sol\":640:769  function getparticipant(uint key) public view returns(Participant memory){... */\n      swap2\n      swap1\n      pop\n      jump\t// out\n        /* \"contracts/singlelineMapping.sol\":266:316  mapping (uint => Participant) public SLParticipant */\n    tag_18:\n      mstore(0x20, 0x00)\n      dup1\n      0x00\n      mstore\n      keccak256(0x00, 0x40)\n      0x00\n      swap2\n      pop\n      swap1\n      pop\n      dup1\n      0x00\n      add\n      dup1\n      sload\n      tag_45\n      swap1\n      tag_30\n      jump\t// in\n    tag_45:\n      dup1\n      0x1f\n      add\n      0x20\n      dup1\n      swap2\n      div\n      mul\n      0x20\n      add\n      mload(0x40)\n      swap1\n      dup2\n      add\n      0x40\n      mstore\n      dup1\n      swap3\n      swap2\n      swap1\n      dup2\n      dup2\n      mstore\n      0x20\n      add\n      dup3\n      dup1\n      sload\n      tag_46\n      swap1\n      tag_30\n      jump\t// in\n    tag_46:\n      dup1\n      iszero\n      tag_47\n      jumpi\n      dup1\n      0x1f\n      lt\n      tag_48\n      jumpi\n      0x0100\n      dup1\n      dup4\n      sload\n      div\n      mul\n      dup4\n      mstore\n      swap2\n      0x20\n      add\n      swap2\n      jump(tag_47)\n    tag_48:\n      dup3\n      add\n      swap2\n      swap1\n      0x00\n      mstore\n      keccak256(0x00, 0x20)\n      swap1\n    tag_49:\n      dup2\n      sload\n      dup2\n      mstore\n      swap1\n      0x01\n      add\n      swap1\n      0x20\n      add\n      dup1\n      dup4\n      gt\n      tag_49\n      jumpi\n      dup3\n      swap1\n      sub\n      0x1f\n      and\n      dup3\n      add\n      swap2\n    tag_47:\n      pop\n      pop\n      pop\n      pop\n      pop\n      swap1\n      dup1\n      0x01\n      add\n      sload\n      swap1\n      dup1\n      0x02\n      add\n      sload\n      swap1\n      dup1\n      0x03\n      add\n      dup1\n      sload\n      tag_50\n      swap1\n      tag_30\n      jump\t// in\n    tag_50:\n      dup1\n      0x1f\n      add\n      0x20\n      dup1\n      swap2\n      div\n      mul\n      0x20\n      add\n      mload(0x40)\n      swap1\n      dup2\n      add\n      0x40\n      mstore\n      dup1\n      swap3\n      swap2\n      swap1\n      dup2\n      dup2\n      mstore\n      0x20\n      add\n      dup3\n      dup1\n      sload\n      tag_51\n      swap1\n      tag_30\n      jump\t// in\n    tag_51:\n      dup1\n      iszero\n      tag_52\n      jumpi\n      dup1\n      0x1f\n      lt\n      tag_53\n      jumpi\n      0x0100\n      dup1\n      dup4\n      sload\n      div\n      mul\n      dup4\n      mstore\n      swap2\n      0x20\n      add\n      swap2\n      jump(tag_52)\n    tag_53:\n      dup3\n      add\n      swap2\n      swap1\n      0x00\n      mstore\n      keccak256(0x00, 0x20)\n      swap1\n    tag_54:\n      dup2\n      sload\n      dup2\n      mstore\n      swap1\n      0x01\n      add\n      swap1\n      0x20\n      add\n      dup1\n      dup4\n      gt\n      tag_54\n      jumpi\n      dup3\n      swap1\n      sub\n      0x1f\n      and\n      dup3\n      add\n      swap2\n    tag_52:\n      pop\n      pop\n      pop\n      pop\n      pop\n      swap1\n      dup1\n      0x04\n      add\n      dup1\n      sload\n      tag_55\n      swap1\n      tag_30\n      jump\t// in\n    tag_55:\n      dup1\n      0x1f\n      add\n      0x20\n      dup1\n      swap2\n      div\n      mul\n      0x20\n      add\n      mload(0x40)\n      swap1\n      dup2\n      add\n      0x40\n      mstore\n      dup1\n      swap3\n      swap2\n      swap1\n      dup2\n      dup2\n      mstore\n      0x20\n      add\n      dup3\n      dup1\n      sload\n      tag_56\n      swap1\n      tag_30\n      jump\t// in\n    tag_56:\n      dup1\n      iszero\n      tag_57\n      jumpi\n      dup1\n      0x1f\n      lt\n      tag_58\n      jumpi\n      0x0100\n      dup1\n      dup4\n      sload\n      div\n      mul\n      dup4\n      mstore\n      swap2\n      0x20\n      add\n      swap2\n      jump(tag_57)\n    tag_58:\n      dup3\n      add\n      swap2\n      swap1\n      0x00\n      mstore\n      keccak256(0x00, 0x20)\n      swap1\n    tag_59:\n      dup2\n      sload\n      dup2\n      mstore\n      swap1\n      0x01\n      add\n      swap1\n      0x20\n      add\n      dup1\n      dup4\n      gt\n      tag_59\n      jumpi\n      dup3\n      swap1\n      sub\n      0x1f\n      and\n      dup3\n      add\n      swap2\n    tag_57:\n      pop\n      pop\n      pop\n      pop\n      pop\n      swap1\n      dup1\n      0x05\n      add\n      0x00\n      swap1\n      sload\n      swap1\n      0x0100\n      exp\n      swap1\n      div\n      0xff\n      and\n      swap1\n      pop\n      dup7\n      jump\t// out\n    tag_27:\n      mload(0x40)\n      dup1\n      0xc0\n      add\n      0x40\n      mstore\n      dup1\n      0x60\n      dup2\n      mstore\n      0x20\n      add\n      0x00\n      dup2\n      mstore\n      0x20\n      add\n      0x00\n      dup2\n      mstore\n      0x20\n      add\n      0x60\n      dup2\n      mstore\n      0x20\n      add\n      0x60\n      dup2\n      mstore\n      0x20\n      add\n      iszero(iszero(0x00))\n      dup2\n      mstore\n      pop\n      swap1\n      jump\t// out\n        /* \"#utility.yul\":7:82   */\n    tag_60:\n        /* \"#utility.yul\":40:46   */\n      0x00\n        /* \"#utility.yul\":73:75   */\n      0x40\n        /* \"#utility.yul\":67:76   */\n      mload\n        /* \"#utility.yul\":57:76   */\n      swap1\n      pop\n        /* \"#utility.yul\":7:82   */\n      swap1\n      jump\t// out\n        /* \"#utility.yul\":88:205   */\n    tag_61:\n        /* \"#utility.yul\":197:198   */\n      0x00\n        /* \"#utility.yul\":194:195   */\n      dup1\n        /* \"#utility.yul\":187:199   */\n      revert\n        /* \"#utility.yul\":211:328   */\n    tag_62:\n        /* \"#utility.yul\":320:321   */\n      0x00\n        /* \"#utility.yul\":317:318   */\n      dup1\n        /* \"#utility.yul\":310:322   */\n      revert\n        /* \"#utility.yul\":334:411   */\n    tag_63:\n        /* \"#utility.yul\":371:378   */\n      0x00\n        /* \"#utility.yul\":400:405   */\n      dup2\n        /* \"#utility.yul\":389:405   */\n      swap1\n      pop\n        /* \"#utility.yul\":334:411   */\n      swap2\n      swap1\n      pop\n      jump\t// out\n        /* \"#utility.yul\":417:539   */\n    tag_64:\n        /* \"#utility.yul\":490:514   */\n      tag_112\n        /* \"#utility.yul\":508:513   */\n      dup2\n        /* \"#utility.yul\":490:514   */\n      tag_63\n      jump\t// in\n    tag_112:\n        /* \"#utility.yul\":483:488   */\n      dup2\n        /* \"#utility.yul\":480:515   */\n      eq\n        /* \"#utility.yul\":470:533   */\n      tag_113\n      jumpi\n        /* \"#utility.yul\":529:530   */\n      0x00\n        /* \"#utility.yul\":526:527   */\n      dup1\n        /* \"#utility.yul\":519:531   */\n      revert\n        /* \"#utility.yul\":470:533   */\n    tag_113:\n        /* \"#utility.yul\":417:539   */\n      pop\n      jump\t// out\n        /* \"#utility.yul\":545:684   */\n    tag_65:\n        /* \"#utility.yul\":591:596   */\n      0x00\n        /* \"#utility.yul\":629:635   */\n      dup2\n        /* \"#utility.yul\":616:636   */\n      calldataload\n        /* \"#utility.yul\":607:636   */\n      swap1\n      pop\n        /* \"#utility.yul\":645:678   */\n      tag_115\n        /* \"#utility.yul\":672:677   */\n      dup2\n        /* \"#utility.yul\":645:678   */\n      tag_64\n      jump\t// in\n    tag_115:\n        /* \"#utility.yul\":545:684   */\n      swap3\n      swap2\n      pop\n      pop\n      jump\t// out\n        /* \"#utility.yul\":690:807   */\n    tag_66:\n        /* \"#utility.yul\":799:800   */\n      0x00\n        /* \"#utility.yul\":796:797   */\n      dup1\n        /* \"#utility.yul\":789:801   */\n      revert\n        /* \"#utility.yul\":813:930   */\n    tag_67:\n        /* \"#utility.yul\":922:923   */\n      0x00\n        /* \"#utility.yul\":919:920   */\n      dup1\n        /* \"#utility.yul\":912:924   */\n      revert\n        /* \"#utility.yul\":936:1038   */\n    tag_68:\n        /* \"#utility.yul\":977:983   */\n      0x00\n        /* \"#utility.yul\":1028:1030   */\n      0x1f\n        /* \"#utility.yul\":1024:1031   */\n      not\n        /* \"#utility.yul\":1019:1021   */\n      0x1f\n        /* \"#utility.yul\":1012:1017   */\n      dup4\n        /* \"#utility.yul\":1008:1022   */\n      add\n        /* \"#utility.yul\":1004:1032   */\n      and\n        /* \"#utility.yul\":994:1032   */\n      swap1\n      pop\n        /* \"#utility.yul\":936:1038   */\n      swap2\n      swap1\n      pop\n      jump\t// out\n        /* \"#utility.yul\":1044:1224   */\n    tag_69:\n        /* \"#utility.yul\":1092:1169   */\n      0x4e487b7100000000000000000000000000000000000000000000000000000000\n        /* \"#utility.yul\":1089:1090   */\n      0x00\n        /* \"#utility.yul\":1082:1170   */\n      mstore\n        /* \"#utility.yul\":1189:1193   */\n      0x41\n        /* \"#utility.yul\":1186:1187   */\n      0x04\n        /* \"#utility.yul\":1179:1194   */\n      mstore\n        /* \"#utility.yul\":1213:1217   */\n      0x24\n        /* \"#utility.yul\":1210:1211   */\n      0x00\n        /* \"#utility.yul\":1203:1218   */\n      revert\n        /* \"#utility.yul\":1230:1511   */\n    tag_70:\n        /* \"#utility.yul\":1313:1340   */\n      tag_121\n        /* \"#utility.yul\":1335:1339   */\n      dup3\n        /* \"#utility.yul\":1313:1340   */\n      tag_68\n      jump\t// in\n    tag_121:\n        /* \"#utility.yul\":1305:1311   */\n      dup2\n        /* \"#utility.yul\":1301:1341   */\n      add\n        /* \"#utility.yul\":1443:1449   */\n      dup2\n        /* \"#utility.yul\":1431:1441   */\n      dup2\n        /* \"#utility.yul\":1428:1450   */\n      lt\n        /* \"#utility.yul\":1407:1425   */\n      0xffffffffffffffff\n        /* \"#utility.yul\":1395:1405   */\n      dup3\n        /* \"#utility.yul\":1392:1426   */\n      gt\n        /* \"#utility.yul\":1389:1451   */\n      or\n        /* \"#utility.yul\":1386:1474   */\n      iszero\n      tag_122\n      jumpi\n        /* \"#utility.yul\":1454:1472   */\n      tag_123\n      tag_69\n      jump\t// in\n    tag_123:\n        /* \"#utility.yul\":1386:1474   */\n    tag_122:\n        /* \"#utility.yul\":1494:1504   */\n      dup1\n        /* \"#utility.yul\":1490:1492   */\n      0x40\n        /* \"#utility.yul\":1483:1505   */\n      mstore\n        /* \"#utility.yul\":1273:1511   */\n      pop\n        /* \"#utility.yul\":1230:1511   */\n      pop\n      pop\n      jump\t// out\n        /* \"#utility.yul\":1517:1646   */\n    tag_71:\n        /* \"#utility.yul\":1551:1557   */\n      0x00\n        /* \"#utility.yul\":1578:1598   */\n      tag_125\n      tag_60\n      jump\t// in\n    tag_125:\n        /* \"#utility.yul\":1568:1598   */\n      swap1\n      pop\n        /* \"#utility.yul\":1607:1640   */\n      tag_126\n        /* \"#utility.yul\":1635:1639   */\n      dup3\n        /* \"#utility.yul\":1627:1633   */\n      dup3\n        /* \"#utility.yul\":1607:1640   */\n      tag_70\n      jump\t// in\n    tag_126:\n        /* \"#utility.yul\":1517:1646   */\n      swap2\n      swap1\n      pop\n      jump\t// out\n        /* \"#utility.yul\":1652:1960   */\n    tag_72:\n        /* \"#utility.yul\":1714:1718   */\n      0x00\n        /* \"#utility.yul\":1804:1822   */\n      0xffffffffffffffff\n        /* \"#utility.yul\":1796:1802   */\n      dup3\n        /* \"#utility.yul\":1793:1823   */\n      gt\n        /* \"#utility.yul\":1790:1846   */\n      iszero\n      tag_128\n      jumpi\n        /* \"#utility.yul\":1826:1844   */\n      tag_129\n      tag_69\n      jump\t// in\n    tag_129:\n        /* \"#utility.yul\":1790:1846   */\n    tag_128:\n        /* \"#utility.yul\":1864:1893   */\n      tag_130\n        /* \"#utility.yul\":1886:1892   */\n      dup3\n        /* \"#utility.yul\":1864:1893   */\n      tag_68\n      jump\t// in\n    tag_130:\n        /* \"#utility.yul\":1856:1893   */\n      swap1\n      pop\n        /* \"#utility.yul\":1948:1952   */\n      0x20\n        /* \"#utility.yul\":1942:1946   */\n      dup2\n        /* \"#utility.yul\":1938:1953   */\n      add\n        /* \"#utility.yul\":1930:1953   */\n      swap1\n      pop\n        /* \"#utility.yul\":1652:1960   */\n      swap2\n      swap1\n      pop\n      jump\t// out\n        /* \"#utility.yul\":1966:2112   */\n    tag_73:\n        /* \"#utility.yul\":2063:2069   */\n      dup3\n        /* \"#utility.yul\":2058:2061   */\n      dup2\n        /* \"#utility.yul\":2053:2056   */\n      dup4\n        /* \"#utility.yul\":2040:2070   */\n      calldatacopy\n        /* \"#utility.yul\":2104:2105   */\n      0x00\n        /* \"#utility.yul\":2095:2101   */\n      dup4\n        /* \"#utility.yul\":2090:2093   */\n      dup4\n        /* \"#utility.yul\":2086:2102   */\n      add\n        /* \"#utility.yul\":2079:2106   */\n      mstore\n        /* \"#utility.yul\":1966:2112   */\n      pop\n      pop\n      pop\n      jump\t// out\n        /* \"#utility.yul\":2118:2543   */\n    tag_74:\n        /* \"#utility.yul\":2196:2201   */\n      0x00\n        /* \"#utility.yul\":2221:2287   */\n      tag_133\n        /* \"#utility.yul\":2237:2286   */\n      tag_134\n        /* \"#utility.yul\":2279:2285   */\n      dup5\n        /* \"#utility.yul\":2237:2286   */\n      tag_72\n      jump\t// in\n    tag_134:\n        /* \"#utility.yul\":2221:2287   */\n      tag_71\n      jump\t// in\n    tag_133:\n        /* \"#utility.yul\":2212:2287   */\n      swap1\n      pop\n        /* \"#utility.yul\":2310:2316   */\n      dup3\n        /* \"#utility.yul\":2303:2308   */\n      dup2\n        /* \"#utility.yul\":2296:2317   */\n      mstore\n        /* \"#utility.yul\":2348:2352   */\n      0x20\n        /* \"#utility.yul\":2341:2346   */\n      dup2\n        /* \"#utility.yul\":2337:2353   */\n      add\n        /* \"#utility.yul\":2386:2389   */\n      dup5\n        /* \"#utility.yul\":2377:2383   */\n      dup5\n        /* \"#utility.yul\":2372:2375   */\n      dup5\n        /* \"#utility.yul\":2368:2384   */\n      add\n        /* \"#utility.yul\":2365:2390   */\n      gt\n        /* \"#utility.yul\":2362:2474   */\n      iszero\n      tag_135\n      jumpi\n        /* \"#utility.yul\":2393:2472   */\n      tag_136\n      tag_67\n      jump\t// in\n    tag_136:\n        /* \"#utility.yul\":2362:2474   */\n    tag_135:\n        /* \"#utility.yul\":2483:2537   */\n      tag_137\n        /* \"#utility.yul\":2530:2536   */\n      dup5\n        /* \"#utility.yul\":2525:2528   */\n      dup3\n        /* \"#utility.yul\":2520:2523   */\n      dup6\n        /* \"#utility.yul\":2483:2537   */\n      tag_73\n      jump\t// in\n    tag_137:\n        /* \"#utility.yul\":2202:2543   */\n      pop\n        /* \"#utility.yul\":2118:2543   */\n      swap4\n      swap3\n      pop\n      pop\n      pop\n      jump\t// out\n        /* \"#utility.yul\":2563:2903   */\n    tag_75:\n        /* \"#utility.yul\":2619:2624   */\n      0x00\n        /* \"#utility.yul\":2668:2671   */\n      dup3\n        /* \"#utility.yul\":2661:2665   */\n      0x1f\n        /* \"#utility.yul\":2653:2659   */\n      dup4\n        /* \"#utility.yul\":2649:2666   */\n      add\n        /* \"#utility.yul\":2645:2672   */\n      slt\n        /* \"#utility.yul\":2635:2757   */\n      tag_139\n      jumpi\n        /* \"#utility.yul\":2676:2755   */\n      tag_140\n      tag_66\n      jump\t// in\n    tag_140:\n        /* \"#utility.yul\":2635:2757   */\n    tag_139:\n        /* \"#utility.yul\":2793:2799   */\n      dup2\n        /* \"#utility.yul\":2780:2800   */\n      calldataload\n        /* \"#utility.yul\":2818:2897   */\n      tag_141\n        /* \"#utility.yul\":2893:2896   */\n      dup5\n        /* \"#utility.yul\":2885:2891   */\n      dup3\n        /* \"#utility.yul\":2878:2882   */\n      0x20\n        /* \"#utility.yul\":2870:2876   */\n      dup7\n        /* \"#utility.yul\":2866:2883   */\n      add\n        /* \"#utility.yul\":2818:2897   */\n      tag_74\n      jump\t// in\n    tag_141:\n        /* \"#utility.yul\":2809:2897   */\n      swap2\n      pop\n        /* \"#utility.yul\":2625:2903   */\n      pop\n        /* \"#utility.yul\":2563:2903   */\n      swap3\n      swap2\n      pop\n      pop\n      jump\t// out\n        /* \"#utility.yul\":2909:2999   */\n    tag_76:\n        /* \"#utility.yul\":2943:2950   */\n      0x00\n        /* \"#utility.yul\":2986:2991   */\n      dup2\n        /* \"#utility.yul\":2979:2992   */\n      iszero\n        /* \"#utility.yul\":2972:2993   */\n      iszero\n        /* \"#utility.yul\":2961:2993   */\n      swap1\n      pop\n        /* \"#utility.yul\":2909:2999   */\n      swap2\n      swap1\n      pop\n      jump\t// out\n        /* \"#utility.yul\":3005:3121   */\n    tag_77:\n        /* \"#utility.yul\":3075:3096   */\n      tag_144\n        /* \"#utility.yul\":3090:3095   */\n      dup2\n        /* \"#utility.yul\":3075:3096   */\n      tag_76\n      jump\t// in\n    tag_144:\n        /* \"#utility.yul\":3068:3073   */\n      dup2\n        /* \"#utility.yul\":3065:3097   */\n      eq\n        /* \"#utility.yul\":3055:3115   */\n      tag_145\n      jumpi\n        /* \"#utility.yul\":3111:3112   */\n      0x00\n        /* \"#utility.yul\":3108:3109   */\n      dup1\n        /* \"#utility.yul\":3101:3113   */\n      revert\n        /* \"#utility.yul\":3055:3115   */\n    tag_145:\n        /* \"#utility.yul\":3005:3121   */\n      pop\n      jump\t// out\n        /* \"#utility.yul\":3127:3260   */\n    tag_78:\n        /* \"#utility.yul\":3170:3175   */\n      0x00\n        /* \"#utility.yul\":3208:3214   */\n      dup2\n        /* \"#utility.yul\":3195:3215   */\n      calldataload\n        /* \"#utility.yul\":3186:3215   */\n      swap1\n      pop\n        /* \"#utility.yul\":3224:3254   */\n      tag_147\n        /* \"#utility.yul\":3248:3253   */\n      dup2\n        /* \"#utility.yul\":3224:3254   */\n      tag_77\n      jump\t// in\n    tag_147:\n        /* \"#utility.yul\":3127:3260   */\n      swap3\n      swap2\n      pop\n      pop\n      jump\t// out\n        /* \"#utility.yul\":3266:5003   */\n    tag_8:\n        /* \"#utility.yul\":3406:3412   */\n      0x00\n        /* \"#utility.yul\":3414:3420   */\n      dup1\n        /* \"#utility.yul\":3422:3428   */\n      0x00\n        /* \"#utility.yul\":3430:3436   */\n      dup1\n        /* \"#utility.yul\":3438:3444   */\n      0x00\n        /* \"#utility.yul\":3446:3452   */\n      dup1\n        /* \"#utility.yul\":3454:3460   */\n      0x00\n        /* \"#utility.yul\":3503:3506   */\n      0xe0\n        /* \"#utility.yul\":3491:3500   */\n      dup9\n        /* \"#utility.yul\":3482:3489   */\n      dup11\n        /* \"#utility.yul\":3478:3501   */\n      sub\n        /* \"#utility.yul\":3474:3507   */\n      slt\n        /* \"#utility.yul\":3471:3591   */\n      iszero\n      tag_149\n      jumpi\n        /* \"#utility.yul\":3510:3589   */\n      tag_150\n      tag_61\n      jump\t// in\n    tag_150:\n        /* \"#utility.yul\":3471:3591   */\n    tag_149:\n        /* \"#utility.yul\":3630:3631   */\n      0x00\n        /* \"#utility.yul\":3655:3708   */\n      tag_151\n        /* \"#utility.yul\":3700:3707   */\n      dup11\n        /* \"#utility.yul\":3691:3697   */\n      dup3\n        /* \"#utility.yul\":3680:3689   */\n      dup12\n        /* \"#utility.yul\":3676:3698   */\n      add\n        /* \"#utility.yul\":3655:3708   */\n      tag_65\n      jump\t// in\n    tag_151:\n        /* \"#utility.yul\":3645:3708   */\n      swap8\n      pop\n        /* \"#utility.yul\":3601:3718   */\n      pop\n        /* \"#utility.yul\":3785:3787   */\n      0x20\n        /* \"#utility.yul\":3774:3783   */\n      dup9\n        /* \"#utility.yul\":3770:3788   */\n      add\n        /* \"#utility.yul\":3757:3789   */\n      calldataload\n        /* \"#utility.yul\":3816:3834   */\n      0xffffffffffffffff\n        /* \"#utility.yul\":3808:3814   */\n      dup2\n        /* \"#utility.yul\":3805:3835   */\n      gt\n        /* \"#utility.yul\":3802:3919   */\n      iszero\n      tag_152\n      jumpi\n        /* \"#utility.yul\":3838:3917   */\n      tag_153\n      tag_62\n      jump\t// in\n    tag_153:\n        /* \"#utility.yul\":3802:3919   */\n    tag_152:\n        /* \"#utility.yul\":3943:4006   */\n      tag_154\n        /* \"#utility.yul\":3998:4005   */\n      dup11\n        /* \"#utility.yul\":3989:3995   */\n      dup3\n        /* \"#utility.yul\":3978:3987   */\n      dup12\n        /* \"#utility.yul\":3974:3996   */\n      add\n        /* \"#utility.yul\":3943:4006   */\n      tag_75\n      jump\t// in\n    tag_154:\n        /* \"#utility.yul\":3933:4006   */\n      swap7\n      pop\n        /* \"#utility.yul\":3728:4016   */\n      pop\n        /* \"#utility.yul\":4055:4057   */\n      0x40\n        /* \"#utility.yul\":4081:4134   */\n      tag_155\n        /* \"#utility.yul\":4126:4133   */\n      dup11\n        /* \"#utility.yul\":4117:4123   */\n      dup3\n        /* \"#utility.yul\":4106:4115   */\n      dup12\n        /* \"#utility.yul\":4102:4124   */\n      add\n        /* \"#utility.yul\":4081:4134   */\n      tag_65\n      jump\t// in\n    tag_155:\n        /* \"#utility.yul\":4071:4134   */\n      swap6\n      pop\n        /* \"#utility.yul\":4026:4144   */\n      pop\n        /* \"#utility.yul\":4183:4185   */\n      0x60\n        /* \"#utility.yul\":4209:4262   */\n      tag_156\n        /* \"#utility.yul\":4254:4261   */\n      dup11\n        /* \"#utility.yul\":4245:4251   */\n      dup3\n        /* \"#utility.yul\":4234:4243   */\n      dup12\n        /* \"#utility.yul\":4230:4252   */\n      add\n        /* \"#utility.yul\":4209:4262   */\n      tag_65\n      jump\t// in\n    tag_156:\n        /* \"#utility.yul\":4199:4262   */\n      swap5\n      pop\n        /* \"#utility.yul\":4154:4272   */\n      pop\n        /* \"#utility.yul\":4339:4342   */\n      0x80\n        /* \"#utility.yul\":4328:4337   */\n      dup9\n        /* \"#utility.yul\":4324:4343   */\n      add\n        /* \"#utility.yul\":4311:4344   */\n      calldataload\n        /* \"#utility.yul\":4371:4389   */\n      0xffffffffffffffff\n        /* \"#utility.yul\":4363:4369   */\n      dup2\n        /* \"#utility.yul\":4360:4390   */\n      gt\n        /* \"#utility.yul\":4357:4474   */\n      iszero\n      tag_157\n      jumpi\n        /* \"#utility.yul\":4393:4472   */\n      tag_158\n      tag_62\n      jump\t// in\n    tag_158:\n        /* \"#utility.yul\":4357:4474   */\n    tag_157:\n        /* \"#utility.yul\":4498:4561   */\n      tag_159\n        /* \"#utility.yul\":4553:4560   */\n      dup11\n        /* \"#utility.yul\":4544:4550   */\n      dup3\n        /* \"#utility.yul\":4533:4542   */\n      dup12\n        /* \"#utility.yul\":4529:4551   */\n      add\n        /* \"#utility.yul\":4498:4561   */\n      tag_75\n      jump\t// in\n    tag_159:\n        /* \"#utility.yul\":4488:4561   */\n      swap4\n      pop\n        /* \"#utility.yul\":4282:4571   */\n      pop\n        /* \"#utility.yul\":4638:4641   */\n      0xa0\n        /* \"#utility.yul\":4627:4636   */\n      dup9\n        /* \"#utility.yul\":4623:4642   */\n      add\n        /* \"#utility.yul\":4610:4643   */\n      calldataload\n        /* \"#utility.yul\":4670:4688   */\n      0xffffffffffffffff\n        /* \"#utility.yul\":4662:4668   */\n      dup2\n        /* \"#utility.yul\":4659:4689   */\n      gt\n        /* \"#utility.yul\":4656:4773   */\n      iszero\n      tag_160\n      jumpi\n        /* \"#utility.yul\":4692:4771   */\n      tag_161\n      tag_62\n      jump\t// in\n    tag_161:\n        /* \"#utility.yul\":4656:4773   */\n    tag_160:\n        /* \"#utility.yul\":4797:4860   */\n      tag_162\n        /* \"#utility.yul\":4852:4859   */\n      dup11\n        /* \"#utility.yul\":4843:4849   */\n      dup3\n        /* \"#utility.yul\":4832:4841   */\n      dup12\n        /* \"#utility.yul\":4828:4850   */\n      add\n        /* \"#utility.yul\":4797:4860   */\n      tag_75\n      jump\t// in\n    tag_162:\n        /* \"#utility.yul\":4787:4860   */\n      swap3\n      pop\n        /* \"#utility.yul\":4581:4870   */\n      pop\n        /* \"#utility.yul\":4909:4912   */\n      0xc0\n        /* \"#utility.yul\":4936:4986   */\n      tag_163\n        /* \"#utility.yul\":4978:4985   */\n      dup11\n        /* \"#utility.yul\":4969:4975   */\n      dup3\n        /* \"#utility.yul\":4958:4967   */\n      dup12\n        /* \"#utility.yul\":4954:4976   */\n      add\n        /* \"#utility.yul\":4936:4986   */\n      tag_78\n      jump\t// in\n    tag_163:\n        /* \"#utility.yul\":4926:4986   */\n      swap2\n      pop\n        /* \"#utility.yul\":4880:4996   */\n      pop\n        /* \"#utility.yul\":3266:5003   */\n      swap3\n      swap6\n      swap9\n      swap2\n      swap5\n      swap8\n      pop\n      swap3\n      swap6\n      pop\n      jump\t// out\n        /* \"#utility.yul\":5009:5338   */\n    tag_12:\n        /* \"#utility.yul\":5068:5074   */\n      0x00\n        /* \"#utility.yul\":5117:5119   */\n      0x20\n        /* \"#utility.yul\":5105:5114   */\n      dup3\n        /* \"#utility.yul\":5096:5103   */\n      dup5\n        /* \"#utility.yul\":5092:5115   */\n      sub\n        /* \"#utility.yul\":5088:5120   */\n      slt\n        /* \"#utility.yul\":5085:5204   */\n      iszero\n      tag_165\n      jumpi\n        /* \"#utility.yul\":5123:5202   */\n      tag_166\n      tag_61\n      jump\t// in\n    tag_166:\n        /* \"#utility.yul\":5085:5204   */\n    tag_165:\n        /* \"#utility.yul\":5243:5244   */\n      0x00\n        /* \"#utility.yul\":5268:5321   */\n      tag_167\n        /* \"#utility.yul\":5313:5320   */\n      dup5\n        /* \"#utility.yul\":5304:5310   */\n      dup3\n        /* \"#utility.yul\":5293:5302   */\n      dup6\n        /* \"#utility.yul\":5289:5311   */\n      add\n        /* \"#utility.yul\":5268:5321   */\n      tag_65\n      jump\t// in\n    tag_167:\n        /* \"#utility.yul\":5258:5321   */\n      swap2\n      pop\n        /* \"#utility.yul\":5214:5331   */\n      pop\n        /* \"#utility.yul\":5009:5338   */\n      swap3\n      swap2\n      pop\n      pop\n      jump\t// out\n        /* \"#utility.yul\":5344:5443   */\n    tag_79:\n        /* \"#utility.yul\":5396:5402   */\n      0x00\n        /* \"#utility.yul\":5430:5435   */\n      dup2\n        /* \"#utility.yul\":5424:5436   */\n      mload\n        /* \"#utility.yul\":5414:5436   */\n      swap1\n      pop\n        /* \"#utility.yul\":5344:5443   */\n      swap2\n      swap1\n      pop\n      jump\t// out\n        /* \"#utility.yul\":5449:5608   */\n    tag_80:\n        /* \"#utility.yul\":5523:5534   */\n      0x00\n        /* \"#utility.yul\":5557:5563   */\n      dup3\n        /* \"#utility.yul\":5552:5555   */\n      dup3\n        /* \"#utility.yul\":5545:5564   */\n      mstore\n        /* \"#utility.yul\":5597:5601   */\n      0x20\n        /* \"#utility.yul\":5592:5595   */\n      dup3\n        /* \"#utility.yul\":5588:5602   */\n      add\n        /* \"#utility.yul\":5573:5602   */\n      swap1\n      pop\n        /* \"#utility.yul\":5449:5608   */\n      swap3\n      swap2\n      pop\n      pop\n      jump\t// out\n        /* \"#utility.yul\":5614:5860   */\n    tag_81:\n        /* \"#utility.yul\":5695:5696   */\n      0x00\n        /* \"#utility.yul\":5705:5818   */\n    tag_171:\n        /* \"#utility.yul\":5719:5725   */\n      dup4\n        /* \"#utility.yul\":5716:5717   */\n      dup2\n        /* \"#utility.yul\":5713:5726   */\n      lt\n        /* \"#utility.yul\":5705:5818   */\n      iszero\n      tag_173\n      jumpi\n        /* \"#utility.yul\":5804:5805   */\n      dup1\n        /* \"#utility.yul\":5799:5802   */\n      dup3\n        /* \"#utility.yul\":5795:5806   */\n      add\n        /* \"#utility.yul\":5789:5807   */\n      mload\n        /* \"#utility.yul\":5785:5786   */\n      dup2\n        /* \"#utility.yul\":5780:5783   */\n      dup5\n        /* \"#utility.yul\":5776:5787   */\n      add\n        /* \"#utility.yul\":5769:5808   */\n      mstore\n        /* \"#utility.yul\":5741:5743   */\n      0x20\n        /* \"#utility.yul\":5738:5739   */\n      dup2\n        /* \"#utility.yul\":5734:5744   */\n      add\n        /* \"#utility.yul\":5729:5744   */\n      swap1\n      pop\n        /* \"#utility.yul\":5705:5818   */\n      jump(tag_171)\n    tag_173:\n        /* \"#utility.yul\":5852:5853   */\n      0x00\n        /* \"#utility.yul\":5843:5849   */\n      dup5\n        /* \"#utility.yul\":5838:5841   */\n      dup5\n        /* \"#utility.yul\":5834:5850   */\n      add\n        /* \"#utility.yul\":5827:5854   */\n      mstore\n        /* \"#utility.yul\":5676:5860   */\n      pop\n        /* \"#utility.yul\":5614:5860   */\n      pop\n      pop\n      pop\n      jump\t// out\n        /* \"#utility.yul\":5866:6223   */\n    tag_82:\n        /* \"#utility.yul\":5944:5947   */\n      0x00\n        /* \"#utility.yul\":5972:6011   */\n      tag_175\n        /* \"#utility.yul\":6005:6010   */\n      dup3\n        /* \"#utility.yul\":5972:6011   */\n      tag_79\n      jump\t// in\n    tag_175:\n        /* \"#utility.yul\":6027:6088   */\n      tag_176\n        /* \"#utility.yul\":6081:6087   */\n      dup2\n        /* \"#utility.yul\":6076:6079   */\n      dup6\n        /* \"#utility.yul\":6027:6088   */\n      tag_80\n      jump\t// in\n    tag_176:\n        /* \"#utility.yul\":6020:6088   */\n      swap4\n      pop\n        /* \"#utility.yul\":6097:6162   */\n      tag_177\n        /* \"#utility.yul\":6155:6161   */\n      dup2\n        /* \"#utility.yul\":6150:6153   */\n      dup6\n        /* \"#utility.yul\":6143:6147   */\n      0x20\n        /* \"#utility.yul\":6136:6141   */\n      dup7\n        /* \"#utility.yul\":6132:6148   */\n      add\n        /* \"#utility.yul\":6097:6162   */\n      tag_81\n      jump\t// in\n    tag_177:\n        /* \"#utility.yul\":6187:6216   */\n      tag_178\n        /* \"#utility.yul\":6209:6215   */\n      dup2\n        /* \"#utility.yul\":6187:6216   */\n      tag_68\n      jump\t// in\n    tag_178:\n        /* \"#utility.yul\":6182:6185   */\n      dup5\n        /* \"#utility.yul\":6178:6217   */\n      add\n        /* \"#utility.yul\":6171:6217   */\n      swap2\n      pop\n        /* \"#utility.yul\":5948:6223   */\n      pop\n        /* \"#utility.yul\":5866:6223   */\n      swap3\n      swap2\n      pop\n      pop\n      jump\t// out\n        /* \"#utility.yul\":6229:6337   */\n    tag_83:\n        /* \"#utility.yul\":6306:6330   */\n      tag_180\n        /* \"#utility.yul\":6324:6329   */\n      dup2\n        /* \"#utility.yul\":6306:6330   */\n      tag_63\n      jump\t// in\n    tag_180:\n        /* \"#utility.yul\":6301:6304   */\n      dup3\n        /* \"#utility.yul\":6294:6331   */\n      mstore\n        /* \"#utility.yul\":6229:6337   */\n      pop\n      pop\n      jump\t// out\n        /* \"#utility.yul\":6343:6442   */\n    tag_84:\n        /* \"#utility.yul\":6414:6435   */\n      tag_182\n        /* \"#utility.yul\":6429:6434   */\n      dup2\n        /* \"#utility.yul\":6414:6435   */\n      tag_76\n      jump\t// in\n    tag_182:\n        /* \"#utility.yul\":6409:6412   */\n      dup3\n        /* \"#utility.yul\":6402:6436   */\n      mstore\n        /* \"#utility.yul\":6343:6442   */\n      pop\n      pop\n      jump\t// out\n        /* \"#utility.yul\":6506:7968   */\n    tag_85:\n        /* \"#utility.yul\":6629:6632   */\n      0x00\n        /* \"#utility.yul\":6665:6669   */\n      0xc0\n        /* \"#utility.yul\":6660:6663   */\n      dup4\n        /* \"#utility.yul\":6656:6670   */\n      add\n        /* \"#utility.yul\":6753:6757   */\n      0x00\n        /* \"#utility.yul\":6746:6751   */\n      dup4\n        /* \"#utility.yul\":6742:6758   */\n      add\n        /* \"#utility.yul\":6736:6759   */\n      mload\n        /* \"#utility.yul\":6806:6809   */\n      dup5\n        /* \"#utility.yul\":6800:6804   */\n      dup3\n        /* \"#utility.yul\":6796:6810   */\n      sub\n        /* \"#utility.yul\":6789:6793   */\n      0x00\n        /* \"#utility.yul\":6784:6787   */\n      dup7\n        /* \"#utility.yul\":6780:6794   */\n      add\n        /* \"#utility.yul\":6773:6811   */\n      mstore\n        /* \"#utility.yul\":6832:6905   */\n      tag_184\n        /* \"#utility.yul\":6900:6904   */\n      dup3\n        /* \"#utility.yul\":6886:6898   */\n      dup3\n        /* \"#utility.yul\":6832:6905   */\n      tag_82\n      jump\t// in\n    tag_184:\n        /* \"#utility.yul\":6824:6905   */\n      swap2\n      pop\n        /* \"#utility.yul\":6680:6916   */\n      pop\n        /* \"#utility.yul\":6998:7002   */\n      0x20\n        /* \"#utility.yul\":6991:6996   */\n      dup4\n        /* \"#utility.yul\":6987:7003   */\n      add\n        /* \"#utility.yul\":6981:7004   */\n      mload\n        /* \"#utility.yul\":7017:7080   */\n      tag_185\n        /* \"#utility.yul\":7074:7078   */\n      0x20\n        /* \"#utility.yul\":7069:7072   */\n      dup7\n        /* \"#utility.yul\":7065:7079   */\n      add\n        /* \"#utility.yul\":7051:7063   */\n      dup3\n        /* \"#utility.yul\":7017:7080   */\n      tag_83\n      jump\t// in\n    tag_185:\n        /* \"#utility.yul\":6926:7090   */\n      pop\n        /* \"#utility.yul\":7176:7180   */\n      0x40\n        /* \"#utility.yul\":7169:7174   */\n      dup4\n        /* \"#utility.yul\":7165:7181   */\n      add\n        /* \"#utility.yul\":7159:7182   */\n      mload\n        /* \"#utility.yul\":7195:7258   */\n      tag_186\n        /* \"#utility.yul\":7252:7256   */\n      0x40\n        /* \"#utility.yul\":7247:7250   */\n      dup7\n        /* \"#utility.yul\":7243:7257   */\n      add\n        /* \"#utility.yul\":7229:7241   */\n      dup3\n        /* \"#utility.yul\":7195:7258   */\n      tag_83\n      jump\t// in\n    tag_186:\n        /* \"#utility.yul\":7100:7268   */\n      pop\n        /* \"#utility.yul\":7352:7356   */\n      0x60\n        /* \"#utility.yul\":7345:7350   */\n      dup4\n        /* \"#utility.yul\":7341:7357   */\n      add\n        /* \"#utility.yul\":7335:7358   */\n      mload\n        /* \"#utility.yul\":7405:7408   */\n      dup5\n        /* \"#utility.yul\":7399:7403   */\n      dup3\n        /* \"#utility.yul\":7395:7409   */\n      sub\n        /* \"#utility.yul\":7388:7392   */\n      0x60\n        /* \"#utility.yul\":7383:7386   */\n      dup7\n        /* \"#utility.yul\":7379:7393   */\n      add\n        /* \"#utility.yul\":7372:7410   */\n      mstore\n        /* \"#utility.yul\":7431:7504   */\n      tag_187\n        /* \"#utility.yul\":7499:7503   */\n      dup3\n        /* \"#utility.yul\":7485:7497   */\n      dup3\n        /* \"#utility.yul\":7431:7504   */\n      tag_82\n      jump\t// in\n    tag_187:\n        /* \"#utility.yul\":7423:7504   */\n      swap2\n      pop\n        /* \"#utility.yul\":7278:7515   */\n      pop\n        /* \"#utility.yul\":7607:7611   */\n      0x80\n        /* \"#utility.yul\":7600:7605   */\n      dup4\n        /* \"#utility.yul\":7596:7612   */\n      add\n        /* \"#utility.yul\":7590:7613   */\n      mload\n        /* \"#utility.yul\":7660:7663   */\n      dup5\n        /* \"#utility.yul\":7654:7658   */\n      dup3\n        /* \"#utility.yul\":7650:7664   */\n      sub\n        /* \"#utility.yul\":7643:7647   */\n      0x80\n        /* \"#utility.yul\":7638:7641   */\n      dup7\n        /* \"#utility.yul\":7634:7648   */\n      add\n        /* \"#utility.yul\":7627:7665   */\n      mstore\n        /* \"#utility.yul\":7686:7759   */\n      tag_188\n        /* \"#utility.yul\":7754:7758   */\n      dup3\n        /* \"#utility.yul\":7740:7752   */\n      dup3\n        /* \"#utility.yul\":7686:7759   */\n      tag_82\n      jump\t// in\n    tag_188:\n        /* \"#utility.yul\":7678:7759   */\n      swap2\n      pop\n        /* \"#utility.yul\":7525:7770   */\n      pop\n        /* \"#utility.yul\":7855:7859   */\n      0xa0\n        /* \"#utility.yul\":7848:7853   */\n      dup4\n        /* \"#utility.yul\":7844:7860   */\n      add\n        /* \"#utility.yul\":7838:7861   */\n      mload\n        /* \"#utility.yul\":7874:7931   */\n      tag_189\n        /* \"#utility.yul\":7925:7929   */\n      0xa0\n        /* \"#utility.yul\":7920:7923   */\n      dup7\n        /* \"#utility.yul\":7916:7930   */\n      add\n        /* \"#utility.yul\":7902:7914   */\n      dup3\n        /* \"#utility.yul\":7874:7931   */\n      tag_84\n      jump\t// in\n    tag_189:\n        /* \"#utility.yul\":7780:7941   */\n      pop\n        /* \"#utility.yul\":7958:7962   */\n      dup1\n        /* \"#utility.yul\":7951:7962   */\n      swap2\n      pop\n        /* \"#utility.yul\":6634:7968   */\n      pop\n        /* \"#utility.yul\":6506:7968   */\n      swap3\n      swap2\n      pop\n      pop\n      jump\t// out\n        /* \"#utility.yul\":7974:8355   */\n    tag_15:\n        /* \"#utility.yul\":8121:8125   */\n      0x00\n        /* \"#utility.yul\":8159:8161   */\n      0x20\n        /* \"#utility.yul\":8148:8157   */\n      dup3\n        /* \"#utility.yul\":8144:8162   */\n      add\n        /* \"#utility.yul\":8136:8162   */\n      swap1\n      pop\n        /* \"#utility.yul\":8208:8217   */\n      dup2\n        /* \"#utility.yul\":8202:8206   */\n      dup2\n        /* \"#utility.yul\":8198:8218   */\n      sub\n        /* \"#utility.yul\":8194:8195   */\n      0x00\n        /* \"#utility.yul\":8183:8192   */\n      dup4\n        /* \"#utility.yul\":8179:8196   */\n      add\n        /* \"#utility.yul\":8172:8219   */\n      mstore\n        /* \"#utility.yul\":8236:8348   */\n      tag_191\n        /* \"#utility.yul\":8343:8347   */\n      dup2\n        /* \"#utility.yul\":8334:8340   */\n      dup5\n        /* \"#utility.yul\":8236:8348   */\n      tag_85\n      jump\t// in\n    tag_191:\n        /* \"#utility.yul\":8228:8348   */\n      swap1\n      pop\n        /* \"#utility.yul\":7974:8355   */\n      swap3\n      swap2\n      pop\n      pop\n      jump\t// out\n        /* \"#utility.yul\":8361:8530   */\n    tag_86:\n        /* \"#utility.yul\":8445:8456   */\n      0x00\n        /* \"#utility.yul\":8479:8485   */\n      dup3\n        /* \"#utility.yul\":8474:8477   */\n      dup3\n        /* \"#utility.yul\":8467:8486   */\n      mstore\n        /* \"#utility.yul\":8519:8523   */\n      0x20\n        /* \"#utility.yul\":8514:8517   */\n      dup3\n        /* \"#utility.yul\":8510:8524   */\n      add\n        /* \"#utility.yul\":8495:8524   */\n      swap1\n      pop\n        /* \"#utility.yul\":8361:8530   */\n      swap3\n      swap2\n      pop\n      pop\n      jump\t// out\n        /* \"#utility.yul\":8536:8913   */\n    tag_87:\n        /* \"#utility.yul\":8624:8627   */\n      0x00\n        /* \"#utility.yul\":8652:8691   */\n      tag_194\n        /* \"#utility.yul\":8685:8690   */\n      dup3\n        /* \"#utility.yul\":8652:8691   */\n      tag_79\n      jump\t// in\n    tag_194:\n        /* \"#utility.yul\":8707:8778   */\n      tag_195\n        /* \"#utility.yul\":8771:8777   */\n      dup2\n        /* \"#utility.yul\":8766:8769   */\n      dup6\n        /* \"#utility.yul\":8707:8778   */\n      tag_86\n      jump\t// in\n    tag_195:\n        /* \"#utility.yul\":8700:8778   */\n      swap4\n      pop\n        /* \"#utility.yul\":8787:8852   */\n      tag_196\n        /* \"#utility.yul\":8845:8851   */\n      dup2\n        /* \"#utility.yul\":8840:8843   */\n      dup6\n        /* \"#utility.yul\":8833:8837   */\n      0x20\n        /* \"#utility.yul\":8826:8831   */\n      dup7\n        /* \"#utility.yul\":8822:8838   */\n      add\n        /* \"#utility.yul\":8787:8852   */\n      tag_81\n      jump\t// in\n    tag_196:\n        /* \"#utility.yul\":8877:8906   */\n      tag_197\n        /* \"#utility.yul\":8899:8905   */\n      dup2\n        /* \"#utility.yul\":8877:8906   */\n      tag_68\n      jump\t// in\n    tag_197:\n        /* \"#utility.yul\":8872:8875   */\n      dup5\n        /* \"#utility.yul\":8868:8907   */\n      add\n        /* \"#utility.yul\":8861:8907   */\n      swap2\n      pop\n        /* \"#utility.yul\":8628:8913   */\n      pop\n        /* \"#utility.yul\":8536:8913   */\n      swap3\n      swap2\n      pop\n      pop\n      jump\t// out\n        /* \"#utility.yul\":8919:9037   */\n    tag_88:\n        /* \"#utility.yul\":9006:9030   */\n      tag_199\n        /* \"#utility.yul\":9024:9029   */\n      dup2\n        /* \"#utility.yul\":9006:9030   */\n      tag_63\n      jump\t// in\n    tag_199:\n        /* \"#utility.yul\":9001:9004   */\n      dup3\n        /* \"#utility.yul\":8994:9031   */\n      mstore\n        /* \"#utility.yul\":8919:9037   */\n      pop\n      pop\n      jump\t// out\n        /* \"#utility.yul\":9043:9152   */\n    tag_89:\n        /* \"#utility.yul\":9124:9145   */\n      tag_201\n        /* \"#utility.yul\":9139:9144   */\n      dup2\n        /* \"#utility.yul\":9124:9145   */\n      tag_76\n      jump\t// in\n    tag_201:\n        /* \"#utility.yul\":9119:9122   */\n      dup3\n        /* \"#utility.yul\":9112:9146   */\n      mstore\n        /* \"#utility.yul\":9043:9152   */\n      pop\n      pop\n      jump\t// out\n        /* \"#utility.yul\":9158:10194   */\n    tag_20:\n        /* \"#utility.yul\":9445:9449   */\n      0x00\n        /* \"#utility.yul\":9483:9486   */\n      0xc0\n        /* \"#utility.yul\":9472:9481   */\n      dup3\n        /* \"#utility.yul\":9468:9487   */\n      add\n        /* \"#utility.yul\":9460:9487   */\n      swap1\n      pop\n        /* \"#utility.yul\":9533:9542   */\n      dup2\n        /* \"#utility.yul\":9527:9531   */\n      dup2\n        /* \"#utility.yul\":9523:9543   */\n      sub\n        /* \"#utility.yul\":9519:9520   */\n      0x00\n        /* \"#utility.yul\":9508:9517   */\n      dup4\n        /* \"#utility.yul\":9504:9521   */\n      add\n        /* \"#utility.yul\":9497:9544   */\n      mstore\n        /* \"#utility.yul\":9561:9639   */\n      tag_203\n        /* \"#utility.yul\":9634:9638   */\n      dup2\n        /* \"#utility.yul\":9625:9631   */\n      dup10\n        /* \"#utility.yul\":9561:9639   */\n      tag_87\n      jump\t// in\n    tag_203:\n        /* \"#utility.yul\":9553:9639   */\n      swap1\n      pop\n        /* \"#utility.yul\":9649:9721   */\n      tag_204\n        /* \"#utility.yul\":9717:9719   */\n      0x20\n        /* \"#utility.yul\":9706:9715   */\n      dup4\n        /* \"#utility.yul\":9702:9720   */\n      add\n        /* \"#utility.yul\":9693:9699   */\n      dup9\n        /* \"#utility.yul\":9649:9721   */\n      tag_88\n      jump\t// in\n    tag_204:\n        /* \"#utility.yul\":9731:9803   */\n      tag_205\n        /* \"#utility.yul\":9799:9801   */\n      0x40\n        /* \"#utility.yul\":9788:9797   */\n      dup4\n        /* \"#utility.yul\":9784:9802   */\n      add\n        /* \"#utility.yul\":9775:9781   */\n      dup8\n        /* \"#utility.yul\":9731:9803   */\n      tag_88\n      jump\t// in\n    tag_205:\n        /* \"#utility.yul\":9850:9859   */\n      dup2\n        /* \"#utility.yul\":9844:9848   */\n      dup2\n        /* \"#utility.yul\":9840:9860   */\n      sub\n        /* \"#utility.yul\":9835:9837   */\n      0x60\n        /* \"#utility.yul\":9824:9833   */\n      dup4\n        /* \"#utility.yul\":9820:9838   */\n      add\n        /* \"#utility.yul\":9813:9861   */\n      mstore\n        /* \"#utility.yul\":9878:9956   */\n      tag_206\n        /* \"#utility.yul\":9951:9955   */\n      dup2\n        /* \"#utility.yul\":9942:9948   */\n      dup7\n        /* \"#utility.yul\":9878:9956   */\n      tag_87\n      jump\t// in\n    tag_206:\n        /* \"#utility.yul\":9870:9956   */\n      swap1\n      pop\n        /* \"#utility.yul\":10004:10013   */\n      dup2\n        /* \"#utility.yul\":9998:10002   */\n      dup2\n        /* \"#utility.yul\":9994:10014   */\n      sub\n        /* \"#utility.yul\":9988:9991   */\n      0x80\n        /* \"#utility.yul\":9977:9986   */\n      dup4\n        /* \"#utility.yul\":9973:9992   */\n      add\n        /* \"#utility.yul\":9966:10015   */\n      mstore\n        /* \"#utility.yul\":10032:10110   */\n      tag_207\n        /* \"#utility.yul\":10105:10109   */\n      dup2\n        /* \"#utility.yul\":10096:10102   */\n      dup6\n        /* \"#utility.yul\":10032:10110   */\n      tag_87\n      jump\t// in\n    tag_207:\n        /* \"#utility.yul\":10024:10110   */\n      swap1\n      pop\n        /* \"#utility.yul\":10120:10187   */\n      tag_208\n        /* \"#utility.yul\":10182:10185   */\n      0xa0\n        /* \"#utility.yul\":10171:10180   */\n      dup4\n        /* \"#utility.yul\":10167:10186   */\n      add\n        /* \"#utility.yul\":10158:10164   */\n      dup5\n        /* \"#utility.yul\":10120:10187   */\n      tag_89\n      jump\t// in\n    tag_208:\n        /* \"#utility.yul\":9158:10194   */\n      swap8\n      swap7\n      pop\n      pop\n      pop\n      pop\n      pop\n      pop\n      pop\n      jump\t// out\n        /* \"#utility.yul\":10200:10380   */\n    tag_90:\n        /* \"#utility.yul\":10248:10325   */\n      0x4e487b7100000000000000000000000000000000000000000000000000000000\n        /* \"#utility.yul\":10245:10246   */\n      0x00\n        /* \"#utility.yul\":10238:10326   */\n      mstore\n        /* \"#utility.yul\":10345:10349   */\n      0x22\n        /* \"#utility.yul\":10342:10343   */\n      0x04\n        /* \"#utility.yul\":10335:10350   */\n      mstore\n        /* \"#utility.yul\":10369:10373   */\n      0x24\n        /* \"#utility.yul\":10366:10367   */\n      0x00\n        /* \"#utility.yul\":10359:10374   */\n      revert\n        /* \"#utility.yul\":10386:10706   */\n    tag_30:\n        /* \"#utility.yul\":10430:10436   */\n      0x00\n        /* \"#utility.yul\":10467:10468   */\n      0x02\n        /* \"#utility.yul\":10461:10465   */\n      dup3\n        /* \"#utility.yul\":10457:10469   */\n      div\n        /* \"#utility.yul\":10447:10469   */\n      swap1\n      pop\n        /* \"#utility.yul\":10514:10515   */\n      0x01\n        /* \"#utility.yul\":10508:10512   */\n      dup3\n        /* \"#utility.yul\":10504:10516   */\n      and\n        /* \"#utility.yul\":10535:10553   */\n      dup1\n        /* \"#utility.yul\":10525:10606   */\n      tag_211\n      jumpi\n        /* \"#utility.yul\":10591:10595   */\n      0x7f\n        /* \"#utility.yul\":10583:10589   */\n      dup3\n        /* \"#utility.yul\":10579:10596   */\n      and\n        /* \"#utility.yul\":10569:10596   */\n      swap2\n      pop\n        /* \"#utility.yul\":10525:10606   */\n    tag_211:\n        /* \"#utility.yul\":10653:10655   */\n      0x20\n        /* \"#utility.yul\":10645:10651   */\n      dup3\n        /* \"#utility.yul\":10642:10656   */\n      lt\n        /* \"#utility.yul\":10622:10640   */\n      dup2\n        /* \"#utility.yul\":10619:10657   */\n      sub\n        /* \"#utility.yul\":10616:10700   */\n      tag_212\n      jumpi\n        /* \"#utility.yul\":10672:10690   */\n      tag_213\n      tag_90\n      jump\t// in\n    tag_213:\n        /* \"#utility.yul\":10616:10700   */\n    tag_212:\n        /* \"#utility.yul\":10437:10706   */\n      pop\n        /* \"#utility.yul\":10386:10706   */\n      swap2\n      swap1\n      pop\n      jump\t// out\n        /* \"#utility.yul\":10712:10853   */\n    tag_91:\n        /* \"#utility.yul\":10761:10765   */\n      0x00\n        /* \"#utility.yul\":10784:10787   */\n      dup2\n        /* \"#utility.yul\":10776:10787   */\n      swap1\n      pop\n        /* \"#utility.yul\":10807:10810   */\n      dup2\n        /* \"#utility.yul\":10804:10805   */\n      0x00\n        /* \"#utility.yul\":10797:10811   */\n      mstore\n        /* \"#utility.yul\":10841:10845   */\n      0x20\n        /* \"#utility.yul\":10838:10839   */\n      0x00\n        /* \"#utility.yul\":10828:10846   */\n      keccak256\n        /* \"#utility.yul\":10820:10846   */\n      swap1\n      pop\n        /* \"#utility.yul\":10712:10853   */\n      swap2\n      swap1\n      pop\n      jump\t// out\n        /* \"#utility.yul\":10859:10952   */\n    tag_92:\n        /* \"#utility.yul\":10896:10902   */\n      0x00\n        /* \"#utility.yul\":10943:10945   */\n      0x20\n        /* \"#utility.yul\":10938:10940   */\n      0x1f\n        /* \"#utility.yul\":10931:10936   */\n      dup4\n        /* \"#utility.yul\":10927:10941   */\n      add\n        /* \"#utility.yul\":10923:10946   */\n      div\n        /* \"#utility.yul\":10913:10946   */\n      swap1\n      pop\n        /* \"#utility.yul\":10859:10952   */\n      swap2\n      swap1\n      pop\n      jump\t// out\n        /* \"#utility.yul\":10958:11065   */\n    tag_93:\n        /* \"#utility.yul\":11002:11010   */\n      0x00\n        /* \"#utility.yul\":11052:11057   */\n      dup3\n        /* \"#utility.yul\":11046:11050   */\n      dup3\n        /* \"#utility.yul\":11042:11058   */\n      shl\n        /* \"#utility.yul\":11021:11058   */\n      swap1\n      pop\n        /* \"#utility.yul\":10958:11065   */\n      swap3\n      swap2\n      pop\n      pop\n      jump\t// out\n        /* \"#utility.yul\":11071:11464   */\n    tag_94:\n        /* \"#utility.yul\":11140:11146   */\n      0x00\n        /* \"#utility.yul\":11190:11191   */\n      0x08\n        /* \"#utility.yul\":11178:11188   */\n      dup4\n        /* \"#utility.yul\":11174:11192   */\n      mul\n        /* \"#utility.yul\":11213:11310   */\n      tag_218\n        /* \"#utility.yul\":11243:11309   */\n      0xffffffffffffffffffffffffffffffffffffffffffffffffffffffffffffffff\n        /* \"#utility.yul\":11232:11241   */\n      dup3\n        /* \"#utility.yul\":11213:11310   */\n      tag_93\n      jump\t// in\n    tag_218:\n        /* \"#utility.yul\":11331:11370   */\n      tag_219\n        /* \"#utility.yul\":11361:11369   */\n      dup7\n        /* \"#utility.yul\":11350:11359   */\n      dup4\n        /* \"#utility.yul\":11331:11370   */\n      tag_93\n      jump\t// in\n    tag_219:\n        /* \"#utility.yul\":11319:11370   */\n      swap6\n      pop\n        /* \"#utility.yul\":11403:11407   */\n      dup1\n        /* \"#utility.yul\":11399:11408   */\n      not\n        /* \"#utility.yul\":11392:11397   */\n      dup5\n        /* \"#utility.yul\":11388:11409   */\n      and\n        /* \"#utility.yul\":11379:11409   */\n      swap4\n      pop\n        /* \"#utility.yul\":11452:11456   */\n      dup1\n        /* \"#utility.yul\":11442:11450   */\n      dup7\n        /* \"#utility.yul\":11438:11457   */\n      and\n        /* \"#utility.yul\":11431:11436   */\n      dup5\n        /* \"#utility.yul\":11428:11458   */\n      or\n        /* \"#utility.yul\":11418:11458   */\n      swap3\n      pop\n        /* \"#utility.yul\":11147:11464   */\n      pop\n      pop\n        /* \"#utility.yul\":11071:11464   */\n      swap4\n      swap3\n      pop\n      pop\n      pop\n      jump\t// out\n        /* \"#utility.yul\":11470:11530   */\n    tag_95:\n        /* \"#utility.yul\":11498:11501   */\n      0x00\n        /* \"#utility.yul\":11519:11524   */\n      dup2\n        /* \"#utility.yul\":11512:11524   */\n      swap1\n      pop\n        /* \"#utility.yul\":11470:11530   */\n      swap2\n      swap1\n      pop\n      jump\t// out\n        /* \"#utility.yul\":11536:11678   */\n    tag_96:\n        /* \"#utility.yul\":11586:11595   */\n      0x00\n        /* \"#utility.yul\":11619:11672   */\n      tag_222\n        /* \"#utility.yul\":11637:11671   */\n      tag_223\n        /* \"#utility.yul\":11646:11670   */\n      tag_224\n        /* \"#utility.yul\":11664:11669   */\n      dup5\n        /* \"#utility.yul\":11646:11670   */\n      tag_63\n      jump\t// in\n    tag_224:\n        /* \"#utility.yul\":11637:11671   */\n      tag_95\n      jump\t// in\n    tag_223:\n        /* \"#utility.yul\":11619:11672   */\n      tag_63\n      jump\t// in\n    tag_222:\n        /* \"#utility.yul\":11606:11672   */\n      swap1\n      pop\n        /* \"#utility.yul\":11536:11678   */\n      swap2\n      swap1\n      pop\n      jump\t// out\n        /* \"#utility.yul\":11684:11759   */\n    tag_97:\n        /* \"#utility.yul\":11727:11730   */\n      0x00\n        /* \"#utility.yul\":11748:11753   */\n      dup2\n        /* \"#utility.yul\":11741:11753   */\n      swap1\n      pop\n        /* \"#utility.yul\":11684:11759   */\n      swap2\n      swap1\n      pop\n      jump\t// out\n        /* \"#utility.yul\":11765:12034   */\n    tag_98:\n        /* \"#utility.yul\":11875:11914   */\n      tag_227\n        /* \"#utility.yul\":11906:11913   */\n      dup4\n        /* \"#utility.yul\":11875:11914   */\n      tag_96\n      jump\t// in\n    tag_227:\n        /* \"#utility.yul\":11936:12027   */\n      tag_228\n        /* \"#utility.yul\":11985:12026   */\n      tag_229\n        /* \"#utility.yul\":12009:12025   */\n      dup3\n        /* \"#utility.yul\":11985:12026   */\n      tag_97\n      jump\t// in\n    tag_229:\n        /* \"#utility.yul\":11977:11983   */\n      dup5\n        /* \"#utility.yul\":11970:11974   */\n      dup5\n        /* \"#utility.yul\":11964:11975   */\n      sload\n        /* \"#utility.yul\":11936:12027   */\n      tag_94\n      jump\t// in\n    tag_228:\n        /* \"#utility.yul\":11930:11934   */\n      dup3\n        /* \"#utility.yul\":11923:12028   */\n      sstore\n        /* \"#utility.yul\":11841:12034   */\n      pop\n        /* \"#utility.yul\":11765:12034   */\n      pop\n      pop\n      pop\n      jump\t// out\n        /* \"#utility.yul\":12040:12113   */\n    tag_99:\n        /* \"#utility.yul\":12085:12088   */\n      0x00\n        /* \"#utility.yul\":12040:12113   */\n      swap1\n      jump\t// out\n        /* \"#utility.yul\":12119:12308   */\n    tag_100:\n        /* \"#utility.yul\":12196:12228   */\n      tag_232\n      tag_99\n      jump\t// in\n    tag_232:\n        /* \"#utility.yul\":12237:12302   */\n      tag_233\n        /* \"#utility.yul\":12295:12301   */\n      dup2\n        /* \"#utility.yul\":12287:12293   */\n      dup5\n        /* \"#utility.yul\":12281:12285   */\n      dup5\n        /* \"#utility.yul\":12237:12302   */\n      tag_98\n      jump\t// in\n    tag_233:\n        /* \"#utility.yul\":12172:12308   */\n      pop\n        /* \"#utility.yul\":12119:12308   */\n      pop\n      pop\n      jump\t// out\n        /* \"#utility.yul\":12314:12500   */\n    tag_101:\n        /* \"#utility.yul\":12374:12494   */\n    tag_235:\n        /* \"#utility.yul\":12391:12394   */\n      dup2\n        /* \"#utility.yul\":12384:12389   */\n      dup2\n        /* \"#utility.yul\":12381:12395   */\n      lt\n        /* \"#utility.yul\":12374:12494   */\n      iszero\n      tag_237\n      jumpi\n        /* \"#utility.yul\":12445:12484   */\n      tag_238\n        /* \"#utility.yul\":12482:12483   */\n      0x00\n        /* \"#utility.yul\":12475:12480   */\n      dup3\n        /* \"#utility.yul\":12445:12484   */\n      tag_100\n      jump\t// in\n    tag_238:\n        /* \"#utility.yul\":12418:12419   */\n      0x01\n        /* \"#utility.yul\":12411:12416   */\n      dup2\n        /* \"#utility.yul\":12407:12420   */\n      add\n        /* \"#utility.yul\":12398:12420   */\n      swap1\n      pop\n        /* \"#utility.yul\":12374:12494   */\n      jump(tag_235)\n    tag_237:\n        /* \"#utility.yul\":12314:12500   */\n      pop\n      pop\n      jump\t// out\n        /* \"#utility.yul\":12506:13049   */\n    tag_102:\n        /* \"#utility.yul\":12607:12609   */\n      0x1f\n        /* \"#utility.yul\":12602:12605   */\n      dup3\n        /* \"#utility.yul\":12599:12610   */\n      gt\n        /* \"#utility.yul\":12596:13042   */\n      iszero\n      tag_240\n      jumpi\n        /* \"#utility.yul\":12641:12679   */\n      tag_241\n        /* \"#utility.yul\":12673:12678   */\n      dup2\n        /* \"#utility.yul\":12641:12679   */\n      tag_91\n      jump\t// in\n    tag_241:\n        /* \"#utility.yul\":12725:12754   */\n      tag_242\n        /* \"#utility.yul\":12743:12753   */\n      dup5\n        /* \"#utility.yul\":12725:12754   */\n      tag_92\n      jump\t// in\n    tag_242:\n        /* \"#utility.yul\":12715:12723   */\n      dup2\n        /* \"#utility.yul\":12711:12755   */\n      add\n        /* \"#utility.yul\":12908:12910   */\n      0x20\n        /* \"#utility.yul\":12896:12906   */\n      dup6\n        /* \"#utility.yul\":12893:12911   */\n      lt\n        /* \"#utility.yul\":12890:12939   */\n      iszero\n      tag_243\n      jumpi\n        /* \"#utility.yul\":12929:12937   */\n      dup2\n        /* \"#utility.yul\":12914:12937   */\n      swap1\n      pop\n        /* \"#utility.yul\":12890:12939   */\n    tag_243:\n        /* \"#utility.yul\":12952:13032   */\n      tag_244\n        /* \"#utility.yul\":13008:13030   */\n      tag_245\n        /* \"#utility.yul\":13026:13029   */\n      dup6\n        /* \"#utility.yul\":13008:13030   */\n      tag_92\n      jump\t// in\n    tag_245:\n        /* \"#utility.yul\":12998:13006   */\n      dup4\n        /* \"#utility.yul\":12994:13031   */\n      add\n        /* \"#utility.yul\":12981:12992   */\n      dup3\n        /* \"#utility.yul\":12952:13032   */\n      tag_101\n      jump\t// in\n    tag_244:\n        /* \"#utility.yul\":12611:13042   */\n      pop\n      pop\n        /* \"#utility.yul\":12596:13042   */\n    tag_240:\n        /* \"#utility.yul\":12506:13049   */\n      pop\n      pop\n      pop\n      jump\t// out\n        /* \"#utility.yul\":13055:13172   */\n    tag_103:\n        /* \"#utility.yul\":13109:13117   */\n      0x00\n        /* \"#utility.yul\":13159:13164   */\n      dup3\n        /* \"#utility.yul\":13153:13157   */\n      dup3\n        /* \"#utility.yul\":13149:13165   */\n      shr\n        /* \"#utility.yul\":13128:13165   */\n      swap1\n      pop\n        /* \"#utility.yul\":13055:13172   */\n      swap3\n      swap2\n      pop\n      pop\n      jump\t// out\n        /* \"#utility.yul\":13178:13347   */\n    tag_104:\n        /* \"#utility.yul\":13222:13228   */\n      0x00\n        /* \"#utility.yul\":13255:13306   */\n      tag_248\n        /* \"#utility.yul\":13303:13304   */\n      0x00\n        /* \"#utility.yul\":13299:13305   */\n      not\n        /* \"#utility.yul\":13291:13296   */\n      dup5\n        /* \"#utility.yul\":13288:13289   */\n      0x08\n        /* \"#utility.yul\":13284:13297   */\n      mul\n        /* \"#utility.yul\":13255:13306   */\n      tag_103\n      jump\t// in\n    tag_248:\n        /* \"#utility.yul\":13251:13307   */\n      not\n        /* \"#utility.yul\":13336:13340   */\n      dup1\n        /* \"#utility.yul\":13330:13334   */\n      dup4\n        /* \"#utility.yul\":13326:13341   */\n      and\n        /* \"#utility.yul\":13316:13341   */\n      swap2\n      pop\n        /* \"#utility.yul\":13229:13347   */\n      pop\n        /* \"#utility.yul\":13178:13347   */\n      swap3\n      swap2\n      pop\n      pop\n      jump\t// out\n        /* \"#utility.yul\":13352:13647   */\n    tag_105:\n        /* \"#utility.yul\":13428:13432   */\n      0x00\n        /* \"#utility.yul\":13574:13603   */\n      tag_250\n        /* \"#utility.yul\":13599:13602   */\n      dup4\n        /* \"#utility.yul\":13593:13597   */\n      dup4\n        /* \"#utility.yul\":13574:13603   */\n      tag_104\n      jump\t// in\n    tag_250:\n        /* \"#utility.yul\":13566:13603   */\n      swap2\n      pop\n        /* \"#utility.yul\":13636:13639   */\n      dup3\n        /* \"#utility.yul\":13633:13634   */\n      0x02\n        /* \"#utility.yul\":13629:13640   */\n      mul\n        /* \"#utility.yul\":13623:13627   */\n      dup3\n        /* \"#utility.yul\":13620:13641   */\n      or\n        /* \"#utility.yul\":13612:13641   */\n      swap1\n      pop\n        /* \"#utility.yul\":13352:13647   */\n      swap3\n      swap2\n      pop\n      pop\n      jump\t// out\n        /* \"#utility.yul\":13652:15047   */\n    tag_23:\n        /* \"#utility.yul\":13769:13806   */\n      tag_252\n        /* \"#utility.yul\":13802:13805   */\n      dup3\n        /* \"#utility.yul\":13769:13806   */\n      tag_79\n      jump\t// in\n    tag_252:\n        /* \"#utility.yul\":13871:13889   */\n      0xffffffffffffffff\n        /* \"#utility.yul\":13863:13869   */\n      dup2\n        /* \"#utility.yul\":13860:13890   */\n      gt\n        /* \"#utility.yul\":13857:13913   */\n      iszero\n      tag_253\n      jumpi\n        /* \"#utility.yul\":13893:13911   */\n      tag_254\n      tag_69\n      jump\t// in\n    tag_254:\n        /* \"#utility.yul\":13857:13913   */\n    tag_253:\n        /* \"#utility.yul\":13937:13975   */\n      tag_255\n        /* \"#utility.yul\":13969:13973   */\n      dup3\n        /* \"#utility.yul\":13963:13974   */\n      sload\n        /* \"#utility.yul\":13937:13975   */\n      tag_30\n      jump\t// in\n    tag_255:\n        /* \"#utility.yul\":14022:14089   */\n      tag_256\n        /* \"#utility.yul\":14082:14088   */\n      dup3\n        /* \"#utility.yul\":14074:14080   */\n      dup3\n        /* \"#utility.yul\":14068:14072   */\n      dup6\n        /* \"#utility.yul\":14022:14089   */\n      tag_102\n      jump\t// in\n    tag_256:\n        /* \"#utility.yul\":14116:14117   */\n      0x00\n        /* \"#utility.yul\":14140:14144   */\n      0x20\n        /* \"#utility.yul\":14127:14144   */\n      swap1\n      pop\n        /* \"#utility.yul\":14172:14174   */\n      0x1f\n        /* \"#utility.yul\":14164:14170   */\n      dup4\n        /* \"#utility.yul\":14161:14175   */\n      gt\n        /* \"#utility.yul\":14189:14190   */\n      0x01\n        /* \"#utility.yul\":14184:14802   */\n      dup2\n      eq\n      tag_258\n      jumpi\n        /* \"#utility.yul\":14846:14847   */\n      0x00\n        /* \"#utility.yul\":14863:14869   */\n      dup5\n        /* \"#utility.yul\":14860:14937   */\n      iszero\n      tag_259\n      jumpi\n        /* \"#utility.yul\":14912:14921   */\n      dup3\n        /* \"#utility.yul\":14907:14910   */\n      dup8\n        /* \"#utility.yul\":14903:14922   */\n      add\n        /* \"#utility.yul\":14897:14923   */\n      mload\n        /* \"#utility.yul\":14888:14923   */\n      swap1\n      pop\n        /* \"#utility.yul\":14860:14937   */\n    tag_259:\n        /* \"#utility.yul\":14963:15030   */\n      tag_260\n        /* \"#utility.yul\":15023:15029   */\n      dup6\n        /* \"#utility.yul\":15016:15021   */\n      dup3\n        /* \"#utility.yul\":14963:15030   */\n      tag_105\n      jump\t// in\n    tag_260:\n        /* \"#utility.yul\":14957:14961   */\n      dup7\n        /* \"#utility.yul\":14950:15031   */\n      sstore\n        /* \"#utility.yul\":14819:15041   */\n      pop\n        /* \"#utility.yul\":14154:15041   */\n      jump(tag_257)\n        /* \"#utility.yul\":14184:14802   */\n    tag_258:\n        /* \"#utility.yul\":14236:14240   */\n      0x1f\n        /* \"#utility.yul\":14232:14241   */\n      not\n        /* \"#utility.yul\":14224:14230   */\n      dup5\n        /* \"#utility.yul\":14220:14242   */\n      and\n        /* \"#utility.yul\":14270:14307   */\n      tag_261\n        /* \"#utility.yul\":14302:14306   */\n      dup7\n        /* \"#utility.yul\":14270:14307   */\n      tag_91\n      jump\t// in\n    tag_261:\n        /* \"#utility.yul\":14329:14330   */\n      0x00\n        /* \"#utility.yul\":14343:14551   */\n    tag_262:\n        /* \"#utility.yul\":14357:14364   */\n      dup3\n        /* \"#utility.yul\":14354:14355   */\n      dup2\n        /* \"#utility.yul\":14351:14365   */\n      lt\n        /* \"#utility.yul\":14343:14551   */\n      iszero\n      tag_264\n      jumpi\n        /* \"#utility.yul\":14436:14445   */\n      dup5\n        /* \"#utility.yul\":14431:14434   */\n      dup10\n        /* \"#utility.yul\":14427:14446   */\n      add\n        /* \"#utility.yul\":14421:14447   */\n      mload\n        /* \"#utility.yul\":14413:14419   */\n      dup3\n        /* \"#utility.yul\":14406:14448   */\n      sstore\n        /* \"#utility.yul\":14487:14488   */\n      0x01\n        /* \"#utility.yul\":14479:14485   */\n      dup3\n        /* \"#utility.yul\":14475:14489   */\n      add\n        /* \"#utility.yul\":14465:14489   */\n      swap2\n      pop\n        /* \"#utility.yul\":14534:14536   */\n      0x20\n        /* \"#utility.yul\":14523:14532   */\n      dup6\n        /* \"#utility.yul\":14519:14537   */\n      add\n        /* \"#utility.yul\":14506:14537   */\n      swap5\n      pop\n        /* \"#utility.yul\":14380:14384   */\n      0x20\n        /* \"#utility.yul\":14377:14378   */\n      dup2\n        /* \"#utility.yul\":14373:14385   */\n      add\n        /* \"#utility.yul\":14368:14385   */\n      swap1\n      pop\n        /* \"#utility.yul\":14343:14551   */\n      jump(tag_262)\n    tag_264:\n        /* \"#utility.yul\":14579:14585   */\n      dup7\n        /* \"#utility.yul\":14570:14577   */\n      dup4\n        /* \"#utility.yul\":14567:14586   */\n      lt\n        /* \"#utility.yul\":14564:14743   */\n      iszero\n      tag_265\n      jumpi\n        /* \"#utility.yul\":14637:14646   */\n      dup5\n        /* \"#utility.yul\":14632:14635   */\n      dup10\n        /* \"#utility.yul\":14628:14647   */\n      add\n        /* \"#utility.yul\":14622:14648   */\n      mload\n        /* \"#utility.yul\":14680:14728   */\n      tag_266\n        /* \"#utility.yul\":14722:14726   */\n      0x1f\n        /* \"#utility.yul\":14714:14720   */\n      dup10\n        /* \"#utility.yul\":14710:14727   */\n      and\n        /* \"#utility.yul\":14699:14708   */\n      dup3\n        /* \"#utility.yul\":14680:14728   */\n      tag_104\n      jump\t// in\n    tag_266:\n        /* \"#utility.yul\":14672:14678   */\n      dup4\n        /* \"#utility.yul\":14665:14729   */\n      sstore\n        /* \"#utility.yul\":14587:14743   */\n      pop\n        /* \"#utility.yul\":14564:14743   */\n    tag_265:\n        /* \"#utility.yul\":14789:14790   */\n      0x01\n        /* \"#utility.yul\":14785:14786   */\n      0x02\n        /* \"#utility.yul\":14777:14783   */\n      dup9\n        /* \"#utility.yul\":14773:14787   */\n      mul\n        /* \"#utility.yul\":14769:14791   */\n      add\n        /* \"#utility.yul\":14763:14767   */\n      dup9\n        /* \"#utility.yul\":14756:14792   */\n      sstore\n        /* \"#utility.yul\":14191:14802   */\n      pop\n      pop\n      pop\n        /* \"#utility.yul\":14154:15041   */\n    tag_257:\n      pop\n        /* \"#utility.yul\":13744:15047   */\n      pop\n      pop\n      pop\n        /* \"#utility.yul\":13652:15047   */\n      pop\n      pop\n      jump\t// out\n\n    auxdata: 0xa264697066735822122068d1ea7e8c3bfc98db442f04c884117c95b28acdf10dfe20daaf71e8193450ce64736f6c63430008140033\n}\n",
				"bytecode": {
					"linkReferences": {},
					"object": "608060405234801561000f575f80fd5b50610d898061001d5f395ff3fe608060405234801561000f575f80fd5b506004361061003f575f3560e01c80632a72500a14610043578063a82dab0b1461005f578063de02c5441461008f575b5f80fd5b61005d60048036038101906100589190610748565b6100c4565b005b61007960048036038101906100749190610839565b610182565b6040516100869190610990565b60405180910390f35b6100a960048036038101906100a49190610839565b610389565b6040516100bb96959493929190610a16565b60405180910390f35b6040518060c001604052808781526020018681526020018581526020018481526020018381526020018215158152505f808981526020019081526020015f205f820151815f0190816101169190610c84565b50602082015181600101556040820151816002015560608201518160030190816101409190610c84565b5060808201518160040190816101569190610c84565b5060a0820151816005015f6101000a81548160ff02191690831515021790555090505050505050505050565b61018a61055e565b5f808381526020019081526020015f206040518060c00160405290815f820180546101b490610ab7565b80601f01602080910402602001604051908101604052809291908181526020018280546101e090610ab7565b801561022b5780601f106102025761010080835404028352916020019161022b565b820191905f5260205f20905b81548152906001019060200180831161020e57829003601f168201915b50505050508152602001600182015481526020016002820154815260200160038201805461025890610ab7565b80601f016020809104026020016040519081016040528092919081815260200182805461028490610ab7565b80156102cf5780601f106102a6576101008083540402835291602001916102cf565b820191905f5260205f20905b8154815290600101906020018083116102b257829003601f168201915b505050505081526020016004820180546102e890610ab7565b80601f016020809104026020016040519081016040528092919081815260200182805461031490610ab7565b801561035f5780601f106103365761010080835404028352916020019161035f565b820191905f5260205f20905b81548152906001019060200180831161034257829003601f168201915b50505050508152602001600582015f9054906101000a900460ff1615151515815250509050919050565b5f602052805f5260405f205f91509050805f0180546103a790610ab7565b80601f01602080910402602001604051908101604052809291908181526020018280546103d390610ab7565b801561041e5780601f106103f55761010080835404028352916020019161041e565b820191905f5260205f20905b81548152906001019060200180831161040157829003601f168201915b50505050509080600101549080600201549080600301805461043f90610ab7565b80601f016020809104026020016040519081016040528092919081815260200182805461046b90610ab7565b80156104b65780601f1061048d576101008083540402835291602001916104b6565b820191905f5260205f20905b81548152906001019060200180831161049957829003601f168201915b5050505050908060040180546104cb90610ab7565b80601f01602080910402602001604051908101604052809291908181526020018280546104f790610ab7565b80156105425780601f1061051957610100808354040283529160200191610542565b820191905f5260205f20905b81548152906001019060200180831161052557829003601f168201915b505050505090806005015f9054906101000a900460ff16905086565b6040518060c00160405280606081526020015f81526020015f815260200160608152602001606081526020015f151581525090565b5f604051905090565b5f80fd5b5f80fd5b5f819050919050565b6105b6816105a4565b81146105c0575f80fd5b50565b5f813590506105d1816105ad565b92915050565b5f80fd5b5f80fd5b5f601f19601f8301169050919050565b7f4e487b71000000000000000000000000000000000000000000000000000000005f52604160045260245ffd5b610625826105df565b810181811067ffffffffffffffff82111715610644576106436105ef565b5b80604052505050565b5f610656610593565b9050610662828261061c565b919050565b5f67ffffffffffffffff821115610681576106806105ef565b5b61068a826105df565b9050602081019050919050565b828183375f83830152505050565b5f6106b76106b284610667565b61064d565b9050828152602081018484840111156106d3576106d26105db565b5b6106de848285610697565b509392505050565b5f82601f8301126106fa576106f96105d7565b5b813561070a8482602086016106a5565b91505092915050565b5f8115159050919050565b61072781610713565b8114610731575f80fd5b50565b5f813590506107428161071e565b92915050565b5f805f805f805f60e0888a0312156107635761076261059c565b5b5f6107708a828b016105c3565b975050602088013567ffffffffffffffff811115610791576107906105a0565b5b61079d8a828b016106e6565b96505060406107ae8a828b016105c3565b95505060606107bf8a828b016105c3565b945050608088013567ffffffffffffffff8111156107e0576107df6105a0565b5b6107ec8a828b016106e6565b93505060a088013567ffffffffffffffff81111561080d5761080c6105a0565b5b6108198a828b016106e6565b92505060c061082a8a828b01610734565b91505092959891949750929550565b5f6020828403121561084e5761084d61059c565b5b5f61085b848285016105c3565b91505092915050565b5f81519050919050565b5f82825260208201905092915050565b5f5b8381101561089b578082015181840152602081019050610880565b5f8484015250505050565b5f6108b082610864565b6108ba818561086e565b93506108ca81856020860161087e565b6108d3816105df565b840191505092915050565b6108e7816105a4565b82525050565b6108f681610713565b82525050565b5f60c083015f8301518482035f86015261091682826108a6565b915050602083015161092b60208601826108de565b50604083015161093e60408601826108de565b506060830151848203606086015261095682826108a6565b9150506080830151848203608086015261097082826108a6565b91505060a083015161098560a08601826108ed565b508091505092915050565b5f6020820190508181035f8301526109a881846108fc565b905092915050565b5f82825260208201905092915050565b5f6109ca82610864565b6109d481856109b0565b93506109e481856020860161087e565b6109ed816105df565b840191505092915050565b610a01816105a4565b82525050565b610a1081610713565b82525050565b5f60c0820190508181035f830152610a2e81896109c0565b9050610a3d60208301886109f8565b610a4a60408301876109f8565b8181036060830152610a5c81866109c0565b90508181036080830152610a7081856109c0565b9050610a7f60a0830184610a07565b979650505050505050565b7f4e487b71000000000000000000000000000000000000000000000000000000005f52602260045260245ffd5b5f6002820490506001821680610ace57607f821691505b602082108103610ae157610ae0610a8a565b5b50919050565b5f819050815f5260205f209050919050565b5f6020601f8301049050919050565b5f82821b905092915050565b5f60088302610b437fffffffffffffffffffffffffffffffffffffffffffffffffffffffffffffffff82610b08565b610b4d8683610b08565b95508019841693508086168417925050509392505050565b5f819050919050565b5f610b88610b83610b7e846105a4565b610b65565b6105a4565b9050919050565b5f819050919050565b610ba183610b6e565b610bb5610bad82610b8f565b848454610b14565b825550505050565b5f90565b610bc9610bbd565b610bd4818484610b98565b505050565b5b81811015610bf757610bec5f82610bc1565b600181019050610bda565b5050565b601f821115610c3c57610c0d81610ae7565b610c1684610af9565b81016020851015610c25578190505b610c39610c3185610af9565b830182610bd9565b50505b505050565b5f82821c905092915050565b5f610c5c5f1984600802610c41565b1980831691505092915050565b5f610c748383610c4d565b9150826002028217905092915050565b610c8d82610864565b67ffffffffffffffff811115610ca657610ca56105ef565b5b610cb08254610ab7565b610cbb828285610bfb565b5f60209050601f831160018114610cec575f8415610cda578287015190505b610ce48582610c69565b865550610d4b565b601f198416610cfa86610ae7565b5f5b82811015610d2157848901518255600182019150602085019450602081019050610cfc565b86831015610d3e5784890151610d3a601f891682610c4d565b8355505b6001600288020188555050505b50505050505056fea264697066735822122068d1ea7e8c3bfc98db442f04c884117c95b28acdf10dfe20daaf71e8193450ce64736f6c63430008140033",
					"opcodes": "PUSH1 0x80 PUSH1 0x40 MSTORE CALLVALUE DUP1 ISZERO PUSH2 0xF JUMPI PUSH0 DUP1 REVERT JUMPDEST POP PUSH2 0xD89 DUP1 PUSH2 0x1D PUSH0 CODECOPY PUSH0 RETURN INVALID PUSH1 0x80 PUSH1 0x40 MSTORE CALLVALUE DUP1 ISZERO PUSH2 0xF JUMPI PUSH0 DUP1 REVERT JUMPDEST POP PUSH1 0x4 CALLDATASIZE LT PUSH2 0x3F JUMPI PUSH0 CALLDATALOAD PUSH1 0xE0 SHR DUP1 PUSH4 0x2A72500A EQ PUSH2 0x43 JUMPI DUP1 PUSH4 0xA82DAB0B EQ PUSH2 0x5F JUMPI DUP1 PUSH4 0xDE02C544 EQ PUSH2 0x8F JUMPI JUMPDEST PUSH0 DUP1 REVERT JUMPDEST PUSH2 0x5D PUSH1 0x4 DUP1 CALLDATASIZE SUB DUP2 ADD SWAP1 PUSH2 0x58 SWAP2 SWAP1 PUSH2 0x748 JUMP JUMPDEST PUSH2 0xC4 JUMP JUMPDEST STOP JUMPDEST PUSH2 0x79 PUSH1 0x4 DUP1 CALLDATASIZE SUB DUP2 ADD SWAP1 PUSH2 0x74 SWAP2 SWAP1 PUSH2 0x839 JUMP JUMPDEST PUSH2 0x182 JUMP JUMPDEST PUSH1 0x40 MLOAD PUSH2 0x86 SWAP2 SWAP1 PUSH2 0x990 JUMP JUMPDEST PUSH1 0x40 MLOAD DUP1 SWAP2 SUB SWAP1 RETURN JUMPDEST PUSH2 0xA9 PUSH1 0x4 DUP1 CALLDATASIZE SUB DUP2 ADD SWAP1 PUSH2 0xA4 SWAP2 SWAP1 PUSH2 0x839 JUMP JUMPDEST PUSH2 0x389 JUMP JUMPDEST PUSH1 0x40 MLOAD PUSH2 0xBB SWAP7 SWAP6 SWAP5 SWAP4 SWAP3 SWAP2 SWAP1 PUSH2 0xA16 JUMP JUMPDEST PUSH1 0x40 MLOAD DUP1 SWAP2 SUB SWAP1 RETURN JUMPDEST PUSH1 0x40 MLOAD DUP1 PUSH1 0xC0 ADD PUSH1 0x40 MSTORE DUP1 DUP8 DUP2 MSTORE PUSH1 0x20 ADD DUP7 DUP2 MSTORE PUSH1 0x20 ADD DUP6 DUP2 MSTORE PUSH1 0x20 ADD DUP5 DUP2 MSTORE PUSH1 0x20 ADD DUP4 DUP2 MSTORE PUSH1 0x20 ADD DUP3 ISZERO ISZERO DUP2 MSTORE POP PUSH0 DUP1 DUP10 DUP2 MSTORE PUSH1 0x20 ADD SWAP1 DUP2 MSTORE PUSH1 0x20 ADD PUSH0 KECCAK256 PUSH0 DUP3 ADD MLOAD DUP2 PUSH0 ADD SWAP1 DUP2 PUSH2 0x116 SWAP2 SWAP1 PUSH2 0xC84 JUMP JUMPDEST POP PUSH1 0x20 DUP3 ADD MLOAD DUP2 PUSH1 0x1 ADD SSTORE PUSH1 0x40 DUP3 ADD MLOAD DUP2 PUSH1 0x2 ADD SSTORE PUSH1 0x60 DUP3 ADD MLOAD DUP2 PUSH1 0x3 ADD SWAP1 DUP2 PUSH2 0x140 SWAP2 SWAP1 PUSH2 0xC84 JUMP JUMPDEST POP PUSH1 0x80 DUP3 ADD MLOAD DUP2 PUSH1 0x4 ADD SWAP1 DUP2 PUSH2 0x156 SWAP2 SWAP1 PUSH2 0xC84 JUMP JUMPDEST POP PUSH1 0xA0 DUP3 ADD MLOAD DUP2 PUSH1 0x5 ADD PUSH0 PUSH2 0x100 EXP DUP2 SLOAD DUP2 PUSH1 0xFF MUL NOT AND SWAP1 DUP4 ISZERO ISZERO MUL OR SWAP1 SSTORE POP SWAP1 POP POP POP POP POP POP POP POP POP JUMP JUMPDEST PUSH2 0x18A PUSH2 0x55E JUMP JUMPDEST PUSH0 DUP1 DUP4 DUP2 MSTORE PUSH1 0x20 ADD SWAP1 DUP2 MSTORE PUSH1 0x20 ADD PUSH0 KECCAK256 PUSH1 0x40 MLOAD DUP1 PUSH1 0xC0 ADD PUSH1 0x40 MSTORE SWAP1 DUP2 PUSH0 DUP3 ADD DUP1 SLOAD PUSH2 0x1B4 SWAP1 PUSH2 0xAB7 JUMP JUMPDEST DUP1 PUSH1 0x1F ADD PUSH1 0x20 DUP1 SWAP2 DIV MUL PUSH1 0x20 ADD PUSH1 0x40 MLOAD SWAP1 DUP2 ADD PUSH1 0x40 MSTORE DUP1 SWAP3 SWAP2 SWAP1 DUP2 DUP2 MSTORE PUSH1 0x20 ADD DUP3 DUP1 SLOAD PUSH2 0x1E0 SWAP1 PUSH2 0xAB7 JUMP JUMPDEST DUP1 ISZERO PUSH2 0x22B JUMPI DUP1 PUSH1 0x1F LT PUSH2 0x202 JUMPI PUSH2 0x100 DUP1 DUP4 SLOAD DIV MUL DUP4 MSTORE SWAP2 PUSH1 0x20 ADD SWAP2 PUSH2 0x22B JUMP JUMPDEST DUP3 ADD SWAP2 SWAP1 PUSH0 MSTORE PUSH1 0x20 PUSH0 KECCAK256 SWAP1 JUMPDEST DUP2 SLOAD DUP2 MSTORE SWAP1 PUSH1 0x1 ADD SWAP1 PUSH1 0x20 ADD DUP1 DUP4 GT PUSH2 0x20E JUMPI DUP3 SWAP1 SUB PUSH1 0x1F AND DUP3 ADD SWAP2 JUMPDEST POP POP POP POP POP DUP2 MSTORE PUSH1 0x20 ADD PUSH1 0x1 DUP3 ADD SLOAD DUP2 MSTORE PUSH1 0x20 ADD PUSH1 0x2 DUP3 ADD SLOAD DUP2 MSTORE PUSH1 0x20 ADD PUSH1 0x3 DUP3 ADD DUP1 SLOAD PUSH2 0x258 SWAP1 PUSH2 0xAB7 JUMP JUMPDEST DUP1 PUSH1 0x1F ADD PUSH1 0x20 DUP1 SWAP2 DIV MUL PUSH1 0x20 ADD PUSH1 0x40 MLOAD SWAP1 DUP2 ADD PUSH1 0x40 MSTORE DUP1 SWAP3 SWAP2 SWAP1 DUP2 DUP2 MSTORE PUSH1 0x20 ADD DUP3 DUP1 SLOAD PUSH2 0x284 SWAP1 PUSH2 0xAB7 JUMP JUMPDEST DUP1 ISZERO PUSH2 0x2CF JUMPI DUP1 PUSH1 0x1F LT PUSH2 0x2A6 JUMPI PUSH2 0x100 DUP1 DUP4 SLOAD DIV MUL DUP4 MSTORE SWAP2 PUSH1 0x20 ADD SWAP2 PUSH2 0x2CF JUMP JUMPDEST DUP3 ADD SWAP2 SWAP1 PUSH0 MSTORE PUSH1 0x20 PUSH0 KECCAK256 SWAP1 JUMPDEST DUP2 SLOAD DUP2 MSTORE SWAP1 PUSH1 0x1 ADD SWAP1 PUSH1 0x20 ADD DUP1 DUP4 GT PUSH2 0x2B2 JUMPI DUP3 SWAP1 SUB PUSH1 0x1F AND DUP3 ADD SWAP2 JUMPDEST POP POP POP POP POP DUP2 MSTORE PUSH1 0x20 ADD PUSH1 0x4 DUP3 ADD DUP1 SLOAD PUSH2 0x2E8 SWAP1 PUSH2 0xAB7 JUMP JUMPDEST DUP1 PUSH1 0x1F ADD PUSH1 0x20 DUP1 SWAP2 DIV MUL PUSH1 0x20 ADD PUSH1 0x40 MLOAD SWAP1 DUP2 ADD PUSH1 0x40 MSTORE DUP1 SWAP3 SWAP2 SWAP1 DUP2 DUP2 MSTORE PUSH1 0x20 ADD DUP3 DUP1 SLOAD PUSH2 0x314 SWAP1 PUSH2 0xAB7 JUMP JUMPDEST DUP1 ISZERO PUSH2 0x35F JUMPI DUP1 PUSH1 0x1F LT PUSH2 0x336 JUMPI PUSH2 0x100 DUP1 DUP4 SLOAD DIV MUL DUP4 MSTORE SWAP2 PUSH1 0x20 ADD SWAP2 PUSH2 0x35F JUMP JUMPDEST DUP3 ADD SWAP2 SWAP1 PUSH0 MSTORE PUSH1 0x20 PUSH0 KECCAK256 SWAP1 JUMPDEST DUP2 SLOAD DUP2 MSTORE SWAP1 PUSH1 0x1 ADD SWAP1 PUSH1 0x20 ADD DUP1 DUP4 GT PUSH2 0x342 JUMPI DUP3 SWAP1 SUB PUSH1 0x1F AND DUP3 ADD SWAP2 JUMPDEST POP POP POP POP POP DUP2 MSTORE PUSH1 0x20 ADD PUSH1 0x5 DUP3 ADD PUSH0 SWAP1 SLOAD SWAP1 PUSH2 0x100 EXP SWAP1 DIV PUSH1 0xFF AND ISZERO ISZERO ISZERO ISZERO DUP2 MSTORE POP POP SWAP1 POP SWAP2 SWAP1 POP JUMP JUMPDEST PUSH0 PUSH1 0x20 MSTORE DUP1 PUSH0 MSTORE PUSH1 0x40 PUSH0 KECCAK256 PUSH0 SWAP2 POP SWAP1 POP DUP1 PUSH0 ADD DUP1 SLOAD PUSH2 0x3A7 SWAP1 PUSH2 0xAB7 JUMP JUMPDEST DUP1 PUSH1 0x1F ADD PUSH1 0x20 DUP1 SWAP2 DIV MUL PUSH1 0x20 ADD PUSH1 0x40 MLOAD SWAP1 DUP2 ADD PUSH1 0x40 MSTORE DUP1 SWAP3 SWAP2 SWAP1 DUP2 DUP2 MSTORE PUSH1 0x20 ADD DUP3 DUP1 SLOAD PUSH2 0x3D3 SWAP1 PUSH2 0xAB7 JUMP JUMPDEST DUP1 ISZERO PUSH2 0x41E JUMPI DUP1 PUSH1 0x1F LT PUSH2 0x3F5 JUMPI PUSH2 0x100 DUP1 DUP4 SLOAD DIV MUL DUP4 MSTORE SWAP2 PUSH1 0x20 ADD SWAP2 PUSH2 0x41E JUMP JUMPDEST DUP3 ADD SWAP2 SWAP1 PUSH0 MSTORE PUSH1 0x20 PUSH0 KECCAK256 SWAP1 JUMPDEST DUP2 SLOAD DUP2 MSTORE SWAP1 PUSH1 0x1 ADD SWAP1 PUSH1 0x20 ADD DUP1 DUP4 GT PUSH2 0x401 JUMPI DUP3 SWAP1 SUB PUSH1 0x1F AND DUP3 ADD SWAP2 JUMPDEST POP POP POP POP POP SWAP1 DUP1 PUSH1 0x1 ADD SLOAD SWAP1 DUP1 PUSH1 0x2 ADD SLOAD SWAP1 DUP1 PUSH1 0x3 ADD DUP1 SLOAD PUSH2 0x43F SWAP1 PUSH2 0xAB7 JUMP JUMPDEST DUP1 PUSH1 0x1F ADD PUSH1 0x20 DUP1 SWAP2 DIV MUL PUSH1 0x20 ADD PUSH1 0x40 MLOAD SWAP1 DUP2 ADD PUSH1 0x40 MSTORE DUP1 SWAP3 SWAP2 SWAP1 DUP2 DUP2 MSTORE PUSH1 0x20 ADD DUP3 DUP1 SLOAD PUSH2 0x46B SWAP1 PUSH2 0xAB7 JUMP JUMPDEST DUP1 ISZERO PUSH2 0x4B6 JUMPI DUP1 PUSH1 0x1F LT PUSH2 0x48D JUMPI PUSH2 0x100 DUP1 DUP4 SLOAD DIV MUL DUP4 MSTORE SWAP2 PUSH1 0x20 ADD SWAP2 PUSH2 0x4B6 JUMP JUMPDEST DUP3 ADD SWAP2 SWAP1 PUSH0 MSTORE PUSH1 0x20 PUSH0 KECCAK256 SWAP1 JUMPDEST DUP2 SLOAD DUP2 MSTORE SWAP1 PUSH1 0x1 ADD SWAP1 PUSH1 0x20 ADD DUP1 DUP4 GT PUSH2 0x499 JUMPI DUP3 SWAP1 SUB PUSH1 0x1F AND DUP3 ADD SWAP2 JUMPDEST POP POP POP POP POP SWAP1 DUP1 PUSH1 0x4 ADD DUP1 SLOAD PUSH2 0x4CB SWAP1 PUSH2 0xAB7 JUMP JUMPDEST DUP1 PUSH1 0x1F ADD PUSH1 0x20 DUP1 SWAP2 DIV MUL PUSH1 0x20 ADD PUSH1 0x40 MLOAD SWAP1 DUP2 ADD PUSH1 0x40 MSTORE DUP1 SWAP3 SWAP2 SWAP1 DUP2 DUP2 MSTORE PUSH1 0x20 ADD DUP3 DUP1 SLOAD PUSH2 0x4F7 SWAP1 PUSH2 0xAB7 JUMP JUMPDEST DUP1 ISZERO PUSH2 0x542 JUMPI DUP1 PUSH1 0x1F LT PUSH2 0x519 JUMPI PUSH2 0x100 DUP1 DUP4 SLOAD DIV MUL DUP4 MSTORE SWAP2 PUSH1 0x20 ADD SWAP2 PUSH2 0x542 JUMP JUMPDEST DUP3 ADD SWAP2 SWAP1 PUSH0 MSTORE PUSH1 0x20 PUSH0 KECCAK256 SWAP1 JUMPDEST DUP2 SLOAD DUP2 MSTORE SWAP1 PUSH1 0x1 ADD SWAP1 PUSH1 0x20 ADD DUP1 DUP4 GT PUSH2 0x525 JUMPI DUP3 SWAP1 SUB PUSH1 0x1F AND DUP3 ADD SWAP2 JUMPDEST POP POP POP POP POP SWAP1 DUP1 PUSH1 0x5 ADD PUSH0 SWAP1 SLOAD SWAP1 PUSH2 0x100 EXP SWAP1 DIV PUSH1 0xFF AND SWAP1 POP DUP7 JUMP JUMPDEST PUSH1 0x40 MLOAD DUP1 PUSH1 0xC0 ADD PUSH1 0x40 MSTORE DUP1 PUSH1 0x60 DUP2 MSTORE PUSH1 0x20 ADD PUSH0 DUP2 MSTORE PUSH1 0x20 ADD PUSH0 DUP2 MSTORE PUSH1 0x20 ADD PUSH1 0x60 DUP2 MSTORE PUSH1 0x20 ADD PUSH1 0x60 DUP2 MSTORE PUSH1 0x20 ADD PUSH0 ISZERO ISZERO DUP2 MSTORE POP SWAP1 JUMP JUMPDEST PUSH0 PUSH1 0x40 MLOAD SWAP1 POP SWAP1 JUMP JUMPDEST PUSH0 DUP1 REVERT JUMPDEST PUSH0 DUP1 REVERT JUMPDEST PUSH0 DUP2 SWAP1 POP SWAP2 SWAP1 POP JUMP JUMPDEST PUSH2 0x5B6 DUP2 PUSH2 0x5A4 JUMP JUMPDEST DUP2 EQ PUSH2 0x5C0 JUMPI PUSH0 DUP1 REVERT JUMPDEST POP JUMP JUMPDEST PUSH0 DUP2 CALLDATALOAD SWAP1 POP PUSH2 0x5D1 DUP2 PUSH2 0x5AD JUMP JUMPDEST SWAP3 SWAP2 POP POP JUMP JUMPDEST PUSH0 DUP1 REVERT JUMPDEST PUSH0 DUP1 REVERT JUMPDEST PUSH0 PUSH1 0x1F NOT PUSH1 0x1F DUP4 ADD AND SWAP1 POP SWAP2 SWAP1 POP JUMP JUMPDEST PUSH32 0x4E487B7100000000000000000000000000000000000000000000000000000000 PUSH0 MSTORE PUSH1 0x41 PUSH1 0x4 MSTORE PUSH1 0x24 PUSH0 REVERT JUMPDEST PUSH2 0x625 DUP3 PUSH2 0x5DF JUMP JUMPDEST DUP2 ADD DUP2 DUP2 LT PUSH8 0xFFFFFFFFFFFFFFFF DUP3 GT OR ISZERO PUSH2 0x644 JUMPI PUSH2 0x643 PUSH2 0x5EF JUMP JUMPDEST JUMPDEST DUP1 PUSH1 0x40 MSTORE POP POP POP JUMP JUMPDEST PUSH0 PUSH2 0x656 PUSH2 0x593 JUMP JUMPDEST SWAP1 POP PUSH2 0x662 DUP3 DUP3 PUSH2 0x61C JUMP JUMPDEST SWAP2 SWAP1 POP JUMP JUMPDEST PUSH0 PUSH8 0xFFFFFFFFFFFFFFFF DUP3 GT ISZERO PUSH2 0x681 JUMPI PUSH2 0x680 PUSH2 0x5EF JUMP JUMPDEST JUMPDEST PUSH2 0x68A DUP3 PUSH2 0x5DF JUMP JUMPDEST SWAP1 POP PUSH1 0x20 DUP2 ADD SWAP1 POP SWAP2 SWAP1 POP JUMP JUMPDEST DUP3 DUP2 DUP4 CALLDATACOPY PUSH0 DUP4 DUP4 ADD MSTORE POP POP POP JUMP JUMPDEST PUSH0 PUSH2 0x6B7 PUSH2 0x6B2 DUP5 PUSH2 0x667 JUMP JUMPDEST PUSH2 0x64D JUMP JUMPDEST SWAP1 POP DUP3 DUP2 MSTORE PUSH1 0x20 DUP2 ADD DUP5 DUP5 DUP5 ADD GT ISZERO PUSH2 0x6D3 JUMPI PUSH2 0x6D2 PUSH2 0x5DB JUMP JUMPDEST JUMPDEST PUSH2 0x6DE DUP5 DUP3 DUP6 PUSH2 0x697 JUMP JUMPDEST POP SWAP4 SWAP3 POP POP POP JUMP JUMPDEST PUSH0 DUP3 PUSH1 0x1F DUP4 ADD SLT PUSH2 0x6FA JUMPI PUSH2 0x6F9 PUSH2 0x5D7 JUMP JUMPDEST JUMPDEST DUP2 CALLDATALOAD PUSH2 0x70A DUP5 DUP3 PUSH1 0x20 DUP7 ADD PUSH2 0x6A5 JUMP JUMPDEST SWAP2 POP POP SWAP3 SWAP2 POP POP JUMP JUMPDEST PUSH0 DUP2 ISZERO ISZERO SWAP1 POP SWAP2 SWAP1 POP JUMP JUMPDEST PUSH2 0x727 DUP2 PUSH2 0x713 JUMP JUMPDEST DUP2 EQ PUSH2 0x731 JUMPI PUSH0 DUP1 REVERT JUMPDEST POP JUMP JUMPDEST PUSH0 DUP2 CALLDATALOAD SWAP1 POP PUSH2 0x742 DUP2 PUSH2 0x71E JUMP JUMPDEST SWAP3 SWAP2 POP POP JUMP JUMPDEST PUSH0 DUP1 PUSH0 DUP1 PUSH0 DUP1 PUSH0 PUSH1 0xE0 DUP9 DUP11 SUB SLT ISZERO PUSH2 0x763 JUMPI PUSH2 0x762 PUSH2 0x59C JUMP JUMPDEST JUMPDEST PUSH0 PUSH2 0x770 DUP11 DUP3 DUP12 ADD PUSH2 0x5C3 JUMP JUMPDEST SWAP8 POP POP PUSH1 0x20 DUP9 ADD CALLDATALOAD PUSH8 0xFFFFFFFFFFFFFFFF DUP2 GT ISZERO PUSH2 0x791 JUMPI PUSH2 0x790 PUSH2 0x5A0 JUMP JUMPDEST JUMPDEST PUSH2 0x79D DUP11 DUP3 DUP12 ADD PUSH2 0x6E6 JUMP JUMPDEST SWAP7 POP POP PUSH1 0x40 PUSH2 0x7AE DUP11 DUP3 DUP12 ADD PUSH2 0x5C3 JUMP JUMPDEST SWAP6 POP POP PUSH1 0x60 PUSH2 0x7BF DUP11 DUP3 DUP12 ADD PUSH2 0x5C3 JUMP JUMPDEST SWAP5 POP POP PUSH1 0x80 DUP9 ADD CALLDATALOAD PUSH8 0xFFFFFFFFFFFFFFFF DUP2 GT ISZERO PUSH2 0x7E0 JUMPI PUSH2 0x7DF PUSH2 0x5A0 JUMP JUMPDEST JUMPDEST PUSH2 0x7EC DUP11 DUP3 DUP12 ADD PUSH2 0x6E6 JUMP JUMPDEST SWAP4 POP POP PUSH1 0xA0 DUP9 ADD CALLDATALOAD PUSH8 0xFFFFFFFFFFFFFFFF DUP2 GT ISZERO PUSH2 0x80D JUMPI PUSH2 0x80C PUSH2 0x5A0 JUMP JUMPDEST JUMPDEST PUSH2 0x819 DUP11 DUP3 DUP12 ADD PUSH2 0x6E6 JUMP JUMPDEST SWAP3 POP POP PUSH1 0xC0 PUSH2 0x82A DUP11 DUP3 DUP12 ADD PUSH2 0x734 JUMP JUMPDEST SWAP2 POP POP SWAP3 SWAP6 SWAP9 SWAP2 SWAP5 SWAP8 POP SWAP3 SWAP6 POP JUMP JUMPDEST PUSH0 PUSH1 0x20 DUP3 DUP5 SUB SLT ISZERO PUSH2 0x84E JUMPI PUSH2 0x84D PUSH2 0x59C JUMP JUMPDEST JUMPDEST PUSH0 PUSH2 0x85B DUP5 DUP3 DUP6 ADD PUSH2 0x5C3 JUMP JUMPDEST SWAP2 POP POP SWAP3 SWAP2 POP POP JUMP JUMPDEST PUSH0 DUP2 MLOAD SWAP1 POP SWAP2 SWAP1 POP JUMP JUMPDEST PUSH0 DUP3 DUP3 MSTORE PUSH1 0x20 DUP3 ADD SWAP1 POP SWAP3 SWAP2 POP POP JUMP JUMPDEST PUSH0 JUMPDEST DUP4 DUP2 LT ISZERO PUSH2 0x89B JUMPI DUP1 DUP3 ADD MLOAD DUP2 DUP5 ADD MSTORE PUSH1 0x20 DUP2 ADD SWAP1 POP PUSH2 0x880 JUMP JUMPDEST PUSH0 DUP5 DUP5 ADD MSTORE POP POP POP POP JUMP JUMPDEST PUSH0 PUSH2 0x8B0 DUP3 PUSH2 0x864 JUMP JUMPDEST PUSH2 0x8BA DUP2 DUP6 PUSH2 0x86E JUMP JUMPDEST SWAP4 POP PUSH2 0x8CA DUP2 DUP6 PUSH1 0x20 DUP7 ADD PUSH2 0x87E JUMP JUMPDEST PUSH2 0x8D3 DUP2 PUSH2 0x5DF JUMP JUMPDEST DUP5 ADD SWAP2 POP POP SWAP3 SWAP2 POP POP JUMP JUMPDEST PUSH2 0x8E7 DUP2 PUSH2 0x5A4 JUMP JUMPDEST DUP3 MSTORE POP POP JUMP JUMPDEST PUSH2 0x8F6 DUP2 PUSH2 0x713 JUMP JUMPDEST DUP3 MSTORE POP POP JUMP JUMPDEST PUSH0 PUSH1 0xC0 DUP4 ADD PUSH0 DUP4 ADD MLOAD DUP5 DUP3 SUB PUSH0 DUP7 ADD MSTORE PUSH2 0x916 DUP3 DUP3 PUSH2 0x8A6 JUMP JUMPDEST SWAP2 POP POP PUSH1 0x20 DUP4 ADD MLOAD PUSH2 0x92B PUSH1 0x20 DUP7 ADD DUP3 PUSH2 0x8DE JUMP JUMPDEST POP PUSH1 0x40 DUP4 ADD MLOAD PUSH2 0x93E PUSH1 0x40 DUP7 ADD DUP3 PUSH2 0x8DE JUMP JUMPDEST POP PUSH1 0x60 DUP4 ADD MLOAD DUP5 DUP3 SUB PUSH1 0x60 DUP7 ADD MSTORE PUSH2 0x956 DUP3 DUP3 PUSH2 0x8A6 JUMP JUMPDEST SWAP2 POP POP PUSH1 0x80 DUP4 ADD MLOAD DUP5 DUP3 SUB PUSH1 0x80 DUP7 ADD MSTORE PUSH2 0x970 DUP3 DUP3 PUSH2 0x8A6 JUMP JUMPDEST SWAP2 POP POP PUSH1 0xA0 DUP4 ADD MLOAD PUSH2 0x985 PUSH1 0xA0 DUP7 ADD DUP3 PUSH2 0x8ED JUMP JUMPDEST POP DUP1 SWAP2 POP POP SWAP3 SWAP2 POP POP JUMP JUMPDEST PUSH0 PUSH1 0x20 DUP3 ADD SWAP1 POP DUP2 DUP2 SUB PUSH0 DUP4 ADD MSTORE PUSH2 0x9A8 DUP2 DUP5 PUSH2 0x8FC JUMP JUMPDEST SWAP1 POP SWAP3 SWAP2 POP POP JUMP JUMPDEST PUSH0 DUP3 DUP3 MSTORE PUSH1 0x20 DUP3 ADD SWAP1 POP SWAP3 SWAP2 POP POP JUMP JUMPDEST PUSH0 PUSH2 0x9CA DUP3 PUSH2 0x864 JUMP JUMPDEST PUSH2 0x9D4 DUP2 DUP6 PUSH2 0x9B0 JUMP JUMPDEST SWAP4 POP PUSH2 0x9E4 DUP2 DUP6 PUSH1 0x20 DUP7 ADD PUSH2 0x87E JUMP JUMPDEST PUSH2 0x9ED DUP2 PUSH2 0x5DF JUMP JUMPDEST DUP5 ADD SWAP2 POP POP SWAP3 SWAP2 POP POP JUMP JUMPDEST PUSH2 0xA01 DUP2 PUSH2 0x5A4 JUMP JUMPDEST DUP3 MSTORE POP POP JUMP JUMPDEST PUSH2 0xA10 DUP2 PUSH2 0x713 JUMP JUMPDEST DUP3 MSTORE POP POP JUMP JUMPDEST PUSH0 PUSH1 0xC0 DUP3 ADD SWAP1 POP DUP2 DUP2 SUB PUSH0 DUP4 ADD MSTORE PUSH2 0xA2E DUP2 DUP10 PUSH2 0x9C0 JUMP JUMPDEST SWAP1 POP PUSH2 0xA3D PUSH1 0x20 DUP4 ADD DUP9 PUSH2 0x9F8 JUMP JUMPDEST PUSH2 0xA4A PUSH1 0x40 DUP4 ADD DUP8 PUSH2 0x9F8 JUMP JUMPDEST DUP2 DUP2 SUB PUSH1 0x60 DUP4 ADD MSTORE PUSH2 0xA5C DUP2 DUP7 PUSH2 0x9C0 JUMP JUMPDEST SWAP1 POP DUP2 DUP2 SUB PUSH1 0x80 DUP4 ADD MSTORE PUSH2 0xA70 DUP2 DUP6 PUSH2 0x9C0 JUMP JUMPDEST SWAP1 POP PUSH2 0xA7F PUSH1 0xA0 DUP4 ADD DUP5 PUSH2 0xA07 JUMP JUMPDEST SWAP8 SWAP7 POP POP POP POP POP POP POP JUMP JUMPDEST PUSH32 0x4E487B7100000000000000000000000000000000000000000000000000000000 PUSH0 MSTORE PUSH1 0x22 PUSH1 0x4 MSTORE PUSH1 0x24 PUSH0 REVERT JUMPDEST PUSH0 PUSH1 0x2 DUP3 DIV SWAP1 POP PUSH1 0x1 DUP3 AND DUP1 PUSH2 0xACE JUMPI PUSH1 0x7F DUP3 AND SWAP2 POP JUMPDEST PUSH1 0x20 DUP3 LT DUP2 SUB PUSH2 0xAE1 JUMPI PUSH2 0xAE0 PUSH2 0xA8A JUMP JUMPDEST JUMPDEST POP SWAP2 SWAP1 POP JUMP JUMPDEST PUSH0 DUP2 SWAP1 POP DUP2 PUSH0 MSTORE PUSH1 0x20 PUSH0 KECCAK256 SWAP1 POP SWAP2 SWAP1 POP JUMP JUMPDEST PUSH0 PUSH1 0x20 PUSH1 0x1F DUP4 ADD DIV SWAP1 POP SWAP2 SWAP1 POP JUMP JUMPDEST PUSH0 DUP3 DUP3 SHL SWAP1 POP SWAP3 SWAP2 POP POP JUMP JUMPDEST PUSH0 PUSH1 0x8 DUP4 MUL PUSH2 0xB43 PUSH32 0xFFFFFFFFFFFFFFFFFFFFFFFFFFFFFFFFFFFFFFFFFFFFFFFFFFFFFFFFFFFFFFFF DUP3 PUSH2 0xB08 JUMP JUMPDEST PUSH2 0xB4D DUP7 DUP4 PUSH2 0xB08 JUMP JUMPDEST SWAP6 POP DUP1 NOT DUP5 AND SWAP4 POP DUP1 DUP7 AND DUP5 OR SWAP3 POP POP POP SWAP4 SWAP3 POP POP POP JUMP JUMPDEST PUSH0 DUP2 SWAP1 POP SWAP2 SWAP1 POP JUMP JUMPDEST PUSH0 PUSH2 0xB88 PUSH2 0xB83 PUSH2 0xB7E DUP5 PUSH2 0x5A4 JUMP JUMPDEST PUSH2 0xB65 JUMP JUMPDEST PUSH2 0x5A4 JUMP JUMPDEST SWAP1 POP SWAP2 SWAP1 POP JUMP JUMPDEST PUSH0 DUP2 SWAP1 POP SWAP2 SWAP1 POP JUMP JUMPDEST PUSH2 0xBA1 DUP4 PUSH2 0xB6E JUMP JUMPDEST PUSH2 0xBB5 PUSH2 0xBAD DUP3 PUSH2 0xB8F JUMP JUMPDEST DUP5 DUP5 SLOAD PUSH2 0xB14 JUMP JUMPDEST DUP3 SSTORE POP POP POP POP JUMP JUMPDEST PUSH0 SWAP1 JUMP JUMPDEST PUSH2 0xBC9 PUSH2 0xBBD JUMP JUMPDEST PUSH2 0xBD4 DUP2 DUP5 DUP5 PUSH2 0xB98 JUMP JUMPDEST POP POP POP JUMP JUMPDEST JUMPDEST DUP2 DUP2 LT ISZERO PUSH2 0xBF7 JUMPI PUSH2 0xBEC PUSH0 DUP3 PUSH2 0xBC1 JUMP JUMPDEST PUSH1 0x1 DUP2 ADD SWAP1 POP PUSH2 0xBDA JUMP JUMPDEST POP POP JUMP JUMPDEST PUSH1 0x1F DUP3 GT ISZERO PUSH2 0xC3C JUMPI PUSH2 0xC0D DUP2 PUSH2 0xAE7 JUMP JUMPDEST PUSH2 0xC16 DUP5 PUSH2 0xAF9 JUMP JUMPDEST DUP2 ADD PUSH1 0x20 DUP6 LT ISZERO PUSH2 0xC25 JUMPI DUP2 SWAP1 POP JUMPDEST PUSH2 0xC39 PUSH2 0xC31 DUP6 PUSH2 0xAF9 JUMP JUMPDEST DUP4 ADD DUP3 PUSH2 0xBD9 JUMP JUMPDEST POP POP JUMPDEST POP POP POP JUMP JUMPDEST PUSH0 DUP3 DUP3 SHR SWAP1 POP SWAP3 SWAP2 POP POP JUMP JUMPDEST PUSH0 PUSH2 0xC5C PUSH0 NOT DUP5 PUSH1 0x8 MUL PUSH2 0xC41 JUMP JUMPDEST NOT DUP1 DUP4 AND SWAP2 POP POP SWAP3 SWAP2 POP POP JUMP JUMPDEST PUSH0 PUSH2 0xC74 DUP4 DUP4 PUSH2 0xC4D JUMP JUMPDEST SWAP2 POP DUP3 PUSH1 0x2 MUL DUP3 OR SWAP1 POP SWAP3 SWAP2 POP POP JUMP JUMPDEST PUSH2 0xC8D DUP3 PUSH2 0x864 JUMP JUMPDEST PUSH8 0xFFFFFFFFFFFFFFFF DUP2 GT ISZERO PUSH2 0xCA6 JUMPI PUSH2 0xCA5 PUSH2 0x5EF JUMP JUMPDEST JUMPDEST PUSH2 0xCB0 DUP3 SLOAD PUSH2 0xAB7 JUMP JUMPDEST PUSH2 0xCBB DUP3 DUP3 DUP6 PUSH2 0xBFB JUMP JUMPDEST PUSH0 PUSH1 0x20 SWAP1 POP PUSH1 0x1F DUP4 GT PUSH1 0x1 DUP2 EQ PUSH2 0xCEC JUMPI PUSH0 DUP5 ISZERO PUSH2 0xCDA JUMPI DUP3 DUP8 ADD MLOAD SWAP1 POP JUMPDEST PUSH2 0xCE4 DUP6 DUP3 PUSH2 0xC69 JUMP JUMPDEST DUP7 SSTORE POP PUSH2 0xD4B JUMP JUMPDEST PUSH1 0x1F NOT DUP5 AND PUSH2 0xCFA DUP7 PUSH2 0xAE7 JUMP JUMPDEST PUSH0 JUMPDEST DUP3 DUP2 LT ISZERO PUSH2 0xD21 JUMPI DUP5 DUP10 ADD MLOAD DUP3 SSTORE PUSH1 0x1 DUP3 ADD SWAP2 POP PUSH1 0x20 DUP6 ADD SWAP5 POP PUSH1 0x20 DUP2 ADD SWAP1 POP PUSH2 0xCFC JUMP JUMPDEST DUP7 DUP4 LT ISZERO PUSH2 0xD3E JUMPI DUP5 DUP10 ADD MLOAD PUSH2 0xD3A PUSH1 0x1F DUP10 AND DUP3 PUSH2 0xC4D JUMP JUMPDEST DUP4 SSTORE POP JUMPDEST PUSH1 0x1 PUSH1 0x2 DUP9 MUL ADD DUP9 SSTORE POP POP POP JUMPDEST POP POP POP POP POP POP JUMP INVALID LOG2 PUSH5 0x6970667358 0x22 SLT KECCAK256 PUSH9 0xD1EA7E8C3BFC98DB44 0x2F DIV 0xC8 DUP5 GT PUSH29 0x95B28ACDF10DFE20DAAF71E8193450CE64736F6C634300081400330000 "
				},
				"gasEstimates": {
					"creation": {
						"codeDepositCost": "693000",
						"executionCost": "726",
						"totalCost": "693726"
					},
					"external": {
						"SLParticipant(uint256)": "infinite",
						"addParticipant(uint256,string,uint256,uint256,string,string,bool)": "infinite",
						"getparticipant(uint256)": "infinite"
					}
				},
				"methodIdentifiers": {
					"SLParticipant(uint256)": "de02c544",
					"addParticipant(uint256,string,uint256,uint256,string,string,bool)": "2a72500a",
					"getparticipant(uint256)": "a82dab0b"
				}
			},
			"storageLayout": {
				"storage": [
					{
						"astId": 19,
						"contract": "contracts/singlelineMapping.sol:test",
						"label": "SLParticipant",
						"offset": 0,
						"slot": "0",
						"type": "t_mapping(t_uint256,t_struct(Participant)14_storage)"
					}
				],
				"types": {
					"t_bool": {
						"encoding": "inplace",
						"label": "bool",
						"numberOfBytes": "1"
					},
					"t_mapping(t_uint256,t_struct(Participant)14_storage)": {
						"encoding": "mapping",
						"key": "t_uint256",
						"label": "mapping(uint256 => struct test.Participant)",
						"numberOfBytes": "32",
						"value": "t_struct(Participant)14_storage"
					},
					"t_string_storage": {
						"encoding": "bytes",
						"label": "string",
						"numberOfBytes": "32"
					},
					"t_struct(Participant)14_storage": {
						"encoding": "inplace",
						"label": "struct test.Participant",
						"members": [
							{
								"astId": 3,
								"contract": "contracts/singlelineMapping.sol:test",
								"label": "Pname",
								"offset": 0,
								"slot": "0",
								"type": "t_string_storage"
							},
							{
								"astId": 5,
								"contract": "contracts/singlelineMapping.sol:test",
								"label": "Page",
								"offset": 0,
								"slot": "1",
								"type": "t_uint256"
							},
							{
								"astId": 7,
								"contract": "contracts/singlelineMapping.sol:test",
								"label": "PphoneNo",
								"offset": 0,
								"slot": "2",
								"type": "t_uint256"
							},
							{
								"astId": 9,
								"contract": "contracts/singlelineMapping.sol:test",
								"label": "Pemail",
								"offset": 0,
								"slot": "3",
								"type": "t_string_storage"
							},
							{
								"astId": 11,
								"contract": "contracts/singlelineMapping.sol:test",
								"label": "courseEnrolled",
								"offset": 0,
								"slot": "4",
								"type": "t_string_storage"
							},
							{
								"astId": 13,
								"contract": "contracts/singlelineMapping.sol:test",
								"label": "feePaid",
								"offset": 0,
								"slot": "5",
								"type": "t_bool"
							}
						],
						"numberOfBytes": "192"
					},
					"t_uint256": {
						"encoding": "inplace",
						"label": "uint256",
						"numberOfBytes": "32"
					}
				}
			},
			"userdoc": {
				"kind": "user",
				"methods": {},
				"version": 1
			}
		}
	}
}