{
	"contracts/librarySettergetter.sol": {
		"Example": {
			"abi": [
				{
					"inputs": [],
					"name": "getMyString",
					"outputs": [
						{
							"internalType": "string",
							"name": "",
							"type": "string"
						}
					],
					"stateMutability": "view",
					"type": "function"
				},
				{
					"inputs": [
						{
							"internalType": "string",
							"name": "_myString",
							"type": "string"
						}
					],
					"name": "setMyString",
					"outputs": [],
					"stateMutability": "nonpayable",
					"type": "function"
				}
			],
			"devdoc": {
				"kind": "dev",
				"methods": {},
				"version": 1
			},
			"evm": {
				"assembly": "    /* \"contracts/librarySettergetter.sol\":354:664  contract Example {... */\n  mstore(0x40, 0x80)\n  callvalue\n  dup1\n  iszero\n  tag_1\n  jumpi\n  0x00\n  dup1\n  revert\ntag_1:\n  pop\n  dataSize(sub_0)\n  dup1\n  dataOffset(sub_0)\n  0x00\n  codecopy\n  0x00\n  return\nstop\n\nsub_0: assembly {\n        /* \"contracts/librarySettergetter.sol\":354:664  contract Example {... */\n      mstore(0x40, 0x80)\n      callvalue\n      dup1\n      iszero\n      tag_1\n      jumpi\n      0x00\n      dup1\n      revert\n    tag_1:\n      pop\n      jumpi(tag_2, lt(calldatasize, 0x04))\n      shr(0xe0, calldataload(0x00))\n      dup1\n      0x7e7b8a96\n      eq\n      tag_3\n      jumpi\n      dup1\n      0x82180568\n      eq\n      tag_4\n      jumpi\n    tag_2:\n      0x00\n      dup1\n      revert\n        /* \"contracts/librarySettergetter.sol\":562:661  function getMyString() public view returns (string memory) {... */\n    tag_3:\n      tag_5\n      tag_6\n      jump\t// in\n    tag_5:\n      mload(0x40)\n      tag_7\n      swap2\n      swap1\n      tag_8\n      jump\t// in\n    tag_7:\n      mload(0x40)\n      dup1\n      swap2\n      sub\n      swap1\n      return\n        /* \"contracts/librarySettergetter.sol\":459:554  function setMyString(string memory _myString) public {... */\n    tag_4:\n      tag_9\n      0x04\n      dup1\n      calldatasize\n      sub\n      dup2\n      add\n      swap1\n      tag_10\n      swap2\n      swap1\n      tag_11\n      jump\t// in\n    tag_10:\n      tag_12\n      jump\t// in\n    tag_9:\n      stop\n        /* \"contracts/librarySettergetter.sol\":562:661  function getMyString() public view returns (string memory) {... */\n    tag_6:\n        /* \"contracts/librarySettergetter.sol\":606:619  string memory */\n      0x60\n        /* \"contracts/librarySettergetter.sol\":639:647  myString */\n      0x00\n        /* \"contracts/librarySettergetter.sol\":639:651  myString.get */\n      linkerSymbol(\"813b8a39ef1dd142fc1ddaa538feea8164f28c633c4e145e193b4dfb135f144b\")\n      0xec06762f\n      swap1\n      swap2\n        /* \"contracts/librarySettergetter.sol\":639:653  myString.get() */\n      mload(0x40)\n      dup3\n      0xffffffff\n      and\n      0xe0\n      shl\n      dup2\n      mstore\n      0x04\n      add\n      tag_14\n      swap2\n      swap1\n      tag_15\n      jump\t// in\n    tag_14:\n      0x00\n      mload(0x40)\n      dup1\n      dup4\n      sub\n      dup2\n      dup7\n      gas\n      delegatecall\n      iszero\n      dup1\n      iszero\n      tag_17\n      jumpi\n      returndatasize\n      0x00\n      dup1\n      returndatacopy\n      revert(0x00, returndatasize)\n    tag_17:\n      pop\n      pop\n      pop\n      pop\n      mload(0x40)\n      returndatasize\n      0x00\n      dup3\n      returndatacopy\n      returndatasize\n      not(0x1f)\n      0x1f\n      dup3\n      add\n      and\n      dup3\n      add\n      dup1\n      0x40\n      mstore\n      pop\n      dup2\n      add\n      swap1\n      tag_18\n      swap2\n      swap1\n      tag_19\n      jump\t// in\n    tag_18:\n        /* \"contracts/librarySettergetter.sol\":632:653  return myString.get() */\n      swap1\n      pop\n        /* \"contracts/librarySettergetter.sol\":562:661  function getMyString() public view returns (string memory) {... */\n      swap1\n      jump\t// out\n        /* \"contracts/librarySettergetter.sol\":459:554  function setMyString(string memory _myString) public {... */\n    tag_12:\n        /* \"contracts/librarySettergetter.sol\":523:531  myString */\n      0x00\n        /* \"contracts/librarySettergetter.sol\":523:535  myString.set */\n      linkerSymbol(\"813b8a39ef1dd142fc1ddaa538feea8164f28c633c4e145e193b4dfb135f144b\")\n      0x1d7bbc79\n      swap1\n      swap2\n        /* \"contracts/librarySettergetter.sol\":536:545  _myString */\n      dup4\n        /* \"contracts/librarySettergetter.sol\":523:546  myString.set(_myString) */\n      mload(0x40)\n      dup4\n      0xffffffff\n      and\n      0xe0\n      shl\n      dup2\n      mstore\n      0x04\n      add\n      tag_21\n      swap3\n      swap2\n      swap1\n      tag_22\n      jump\t// in\n    tag_21:\n      0x00\n      mload(0x40)\n      dup1\n      dup4\n      sub\n      dup2\n      dup7\n      dup1\n      extcodesize\n      iszero\n      dup1\n      iszero\n      tag_23\n      jumpi\n      0x00\n      dup1\n      revert\n    tag_23:\n      pop\n      gas\n      delegatecall\n      iszero\n      dup1\n      iszero\n      tag_25\n      jumpi\n      returndatasize\n      0x00\n      dup1\n      returndatacopy\n      revert(0x00, returndatasize)\n    tag_25:\n      pop\n      pop\n      pop\n      pop\n        /* \"contracts/librarySettergetter.sol\":459:554  function setMyString(string memory _myString) public {... */\n      pop\n      jump\t// out\n        /* \"#utility.yul\":7:106   */\n    tag_26:\n        /* \"#utility.yul\":59:65   */\n      0x00\n        /* \"#utility.yul\":93:98   */\n      dup2\n        /* \"#utility.yul\":87:99   */\n      mload\n        /* \"#utility.yul\":77:99   */\n      swap1\n      pop\n        /* \"#utility.yul\":7:106   */\n      swap2\n      swap1\n      pop\n      jump\t// out\n        /* \"#utility.yul\":112:281   */\n    tag_27:\n        /* \"#utility.yul\":196:207   */\n      0x00\n        /* \"#utility.yul\":230:236   */\n      dup3\n        /* \"#utility.yul\":225:228   */\n      dup3\n        /* \"#utility.yul\":218:237   */\n      mstore\n        /* \"#utility.yul\":270:274   */\n      0x20\n        /* \"#utility.yul\":265:268   */\n      dup3\n        /* \"#utility.yul\":261:275   */\n      add\n        /* \"#utility.yul\":246:275   */\n      swap1\n      pop\n        /* \"#utility.yul\":112:281   */\n      swap3\n      swap2\n      pop\n      pop\n      jump\t// out\n        /* \"#utility.yul\":287:426   */\n    tag_28:\n        /* \"#utility.yul\":376:382   */\n      dup3\n        /* \"#utility.yul\":371:374   */\n      dup2\n        /* \"#utility.yul\":366:369   */\n      dup4\n        /* \"#utility.yul\":360:383   */\n      mcopy\n        /* \"#utility.yul\":417:418   */\n      0x00\n        /* \"#utility.yul\":408:414   */\n      dup4\n        /* \"#utility.yul\":403:406   */\n      dup4\n        /* \"#utility.yul\":399:415   */\n      add\n        /* \"#utility.yul\":392:419   */\n      mstore\n        /* \"#utility.yul\":287:426   */\n      pop\n      pop\n      pop\n      jump\t// out\n        /* \"#utility.yul\":432:534   */\n    tag_29:\n        /* \"#utility.yul\":473:479   */\n      0x00\n        /* \"#utility.yul\":524:526   */\n      0x1f\n        /* \"#utility.yul\":520:527   */\n      not\n        /* \"#utility.yul\":515:517   */\n      0x1f\n        /* \"#utility.yul\":508:513   */\n      dup4\n        /* \"#utility.yul\":504:518   */\n      add\n        /* \"#utility.yul\":500:528   */\n      and\n        /* \"#utility.yul\":490:528   */\n      swap1\n      pop\n        /* \"#utility.yul\":432:534   */\n      swap2\n      swap1\n      pop\n      jump\t// out\n        /* \"#utility.yul\":540:917   */\n    tag_30:\n        /* \"#utility.yul\":628:631   */\n      0x00\n        /* \"#utility.yul\":656:695   */\n      tag_54\n        /* \"#utility.yul\":689:694   */\n      dup3\n        /* \"#utility.yul\":656:695   */\n      tag_26\n      jump\t// in\n    tag_54:\n        /* \"#utility.yul\":711:782   */\n      tag_55\n        /* \"#utility.yul\":775:781   */\n      dup2\n        /* \"#utility.yul\":770:773   */\n      dup6\n        /* \"#utility.yul\":711:782   */\n      tag_27\n      jump\t// in\n    tag_55:\n        /* \"#utility.yul\":704:782   */\n      swap4\n      pop\n        /* \"#utility.yul\":791:856   */\n      tag_56\n        /* \"#utility.yul\":849:855   */\n      dup2\n        /* \"#utility.yul\":844:847   */\n      dup6\n        /* \"#utility.yul\":837:841   */\n      0x20\n        /* \"#utility.yul\":830:835   */\n      dup7\n        /* \"#utility.yul\":826:842   */\n      add\n        /* \"#utility.yul\":791:856   */\n      tag_28\n      jump\t// in\n    tag_56:\n        /* \"#utility.yul\":881:910   */\n      tag_57\n        /* \"#utility.yul\":903:909   */\n      dup2\n        /* \"#utility.yul\":881:910   */\n      tag_29\n      jump\t// in\n    tag_57:\n        /* \"#utility.yul\":876:879   */\n      dup5\n        /* \"#utility.yul\":872:911   */\n      add\n        /* \"#utility.yul\":865:911   */\n      swap2\n      pop\n        /* \"#utility.yul\":632:917   */\n      pop\n        /* \"#utility.yul\":540:917   */\n      swap3\n      swap2\n      pop\n      pop\n      jump\t// out\n        /* \"#utility.yul\":923:1236   */\n    tag_8:\n        /* \"#utility.yul\":1036:1040   */\n      0x00\n        /* \"#utility.yul\":1074:1076   */\n      0x20\n        /* \"#utility.yul\":1063:1072   */\n      dup3\n        /* \"#utility.yul\":1059:1077   */\n      add\n        /* \"#utility.yul\":1051:1077   */\n      swap1\n      pop\n        /* \"#utility.yul\":1123:1132   */\n      dup2\n        /* \"#utility.yul\":1117:1121   */\n      dup2\n        /* \"#utility.yul\":1113:1133   */\n      sub\n        /* \"#utility.yul\":1109:1110   */\n      0x00\n        /* \"#utility.yul\":1098:1107   */\n      dup4\n        /* \"#utility.yul\":1094:1111   */\n      add\n        /* \"#utility.yul\":1087:1134   */\n      mstore\n        /* \"#utility.yul\":1151:1229   */\n      tag_59\n        /* \"#utility.yul\":1224:1228   */\n      dup2\n        /* \"#utility.yul\":1215:1221   */\n      dup5\n        /* \"#utility.yul\":1151:1229   */\n      tag_30\n      jump\t// in\n    tag_59:\n        /* \"#utility.yul\":1143:1229   */\n      swap1\n      pop\n        /* \"#utility.yul\":923:1236   */\n      swap3\n      swap2\n      pop\n      pop\n      jump\t// out\n        /* \"#utility.yul\":1242:1317   */\n    tag_31:\n        /* \"#utility.yul\":1275:1281   */\n      0x00\n        /* \"#utility.yul\":1308:1310   */\n      0x40\n        /* \"#utility.yul\":1302:1311   */\n      mload\n        /* \"#utility.yul\":1292:1311   */\n      swap1\n      pop\n        /* \"#utility.yul\":1242:1317   */\n      swap1\n      jump\t// out\n        /* \"#utility.yul\":1323:1440   */\n    tag_32:\n        /* \"#utility.yul\":1432:1433   */\n      0x00\n        /* \"#utility.yul\":1429:1430   */\n      dup1\n        /* \"#utility.yul\":1422:1434   */\n      revert\n        /* \"#utility.yul\":1446:1563   */\n    tag_33:\n        /* \"#utility.yul\":1555:1556   */\n      0x00\n        /* \"#utility.yul\":1552:1553   */\n      dup1\n        /* \"#utility.yul\":1545:1557   */\n      revert\n        /* \"#utility.yul\":1569:1686   */\n    tag_34:\n        /* \"#utility.yul\":1678:1679   */\n      0x00\n        /* \"#utility.yul\":1675:1676   */\n      dup1\n        /* \"#utility.yul\":1668:1680   */\n      revert\n        /* \"#utility.yul\":1692:1809   */\n    tag_35:\n        /* \"#utility.yul\":1801:1802   */\n      0x00\n        /* \"#utility.yul\":1798:1799   */\n      dup1\n        /* \"#utility.yul\":1791:1803   */\n      revert\n        /* \"#utility.yul\":1815:1995   */\n    tag_36:\n        /* \"#utility.yul\":1863:1940   */\n      0x4e487b7100000000000000000000000000000000000000000000000000000000\n        /* \"#utility.yul\":1860:1861   */\n      0x00\n        /* \"#utility.yul\":1853:1941   */\n      mstore\n        /* \"#utility.yul\":1960:1964   */\n      0x41\n        /* \"#utility.yul\":1957:1958   */\n      0x04\n        /* \"#utility.yul\":1950:1965   */\n      mstore\n        /* \"#utility.yul\":1984:1988   */\n      0x24\n        /* \"#utility.yul\":1981:1982   */\n      0x00\n        /* \"#utility.yul\":1974:1989   */\n      revert\n        /* \"#utility.yul\":2001:2282   */\n    tag_37:\n        /* \"#utility.yul\":2084:2111   */\n      tag_67\n        /* \"#utility.yul\":2106:2110   */\n      dup3\n        /* \"#utility.yul\":2084:2111   */\n      tag_29\n      jump\t// in\n    tag_67:\n        /* \"#utility.yul\":2076:2082   */\n      dup2\n        /* \"#utility.yul\":2072:2112   */\n      add\n        /* \"#utility.yul\":2214:2220   */\n      dup2\n        /* \"#utility.yul\":2202:2212   */\n      dup2\n        /* \"#utility.yul\":2199:2221   */\n      lt\n        /* \"#utility.yul\":2178:2196   */\n      0xffffffffffffffff\n        /* \"#utility.yul\":2166:2176   */\n      dup3\n        /* \"#utility.yul\":2163:2197   */\n      gt\n        /* \"#utility.yul\":2160:2222   */\n      or\n        /* \"#utility.yul\":2157:2245   */\n      iszero\n      tag_68\n      jumpi\n        /* \"#utility.yul\":2225:2243   */\n      tag_69\n      tag_36\n      jump\t// in\n    tag_69:\n        /* \"#utility.yul\":2157:2245   */\n    tag_68:\n        /* \"#utility.yul\":2265:2275   */\n      dup1\n        /* \"#utility.yul\":2261:2263   */\n      0x40\n        /* \"#utility.yul\":2254:2276   */\n      mstore\n        /* \"#utility.yul\":2044:2282   */\n      pop\n        /* \"#utility.yul\":2001:2282   */\n      pop\n      pop\n      jump\t// out\n        /* \"#utility.yul\":2288:2417   */\n    tag_38:\n        /* \"#utility.yul\":2322:2328   */\n      0x00\n        /* \"#utility.yul\":2349:2369   */\n      tag_71\n      tag_31\n      jump\t// in\n    tag_71:\n        /* \"#utility.yul\":2339:2369   */\n      swap1\n      pop\n        /* \"#utility.yul\":2378:2411   */\n      tag_72\n        /* \"#utility.yul\":2406:2410   */\n      dup3\n        /* \"#utility.yul\":2398:2404   */\n      dup3\n        /* \"#utility.yul\":2378:2411   */\n      tag_37\n      jump\t// in\n    tag_72:\n        /* \"#utility.yul\":2288:2417   */\n      swap2\n      swap1\n      pop\n      jump\t// out\n        /* \"#utility.yul\":2423:2731   */\n    tag_39:\n        /* \"#utility.yul\":2485:2489   */\n      0x00\n        /* \"#utility.yul\":2575:2593   */\n      0xffffffffffffffff\n        /* \"#utility.yul\":2567:2573   */\n      dup3\n        /* \"#utility.yul\":2564:2594   */\n      gt\n        /* \"#utility.yul\":2561:2617   */\n      iszero\n      tag_74\n      jumpi\n        /* \"#utility.yul\":2597:2615   */\n      tag_75\n      tag_36\n      jump\t// in\n    tag_75:\n        /* \"#utility.yul\":2561:2617   */\n    tag_74:\n        /* \"#utility.yul\":2635:2664   */\n      tag_76\n        /* \"#utility.yul\":2657:2663   */\n      dup3\n        /* \"#utility.yul\":2635:2664   */\n      tag_29\n      jump\t// in\n    tag_76:\n        /* \"#utility.yul\":2627:2664   */\n      swap1\n      pop\n        /* \"#utility.yul\":2719:2723   */\n      0x20\n        /* \"#utility.yul\":2713:2717   */\n      dup2\n        /* \"#utility.yul\":2709:2724   */\n      add\n        /* \"#utility.yul\":2701:2724   */\n      swap1\n      pop\n        /* \"#utility.yul\":2423:2731   */\n      swap2\n      swap1\n      pop\n      jump\t// out\n        /* \"#utility.yul\":2737:2885   */\n    tag_40:\n        /* \"#utility.yul\":2835:2841   */\n      dup3\n        /* \"#utility.yul\":2830:2833   */\n      dup2\n        /* \"#utility.yul\":2825:2828   */\n      dup4\n        /* \"#utility.yul\":2812:2842   */\n      calldatacopy\n        /* \"#utility.yul\":2876:2877   */\n      0x00\n        /* \"#utility.yul\":2867:2873   */\n      dup4\n        /* \"#utility.yul\":2862:2865   */\n      dup4\n        /* \"#utility.yul\":2858:2874   */\n      add\n        /* \"#utility.yul\":2851:2878   */\n      mstore\n        /* \"#utility.yul\":2737:2885   */\n      pop\n      pop\n      pop\n      jump\t// out\n        /* \"#utility.yul\":2891:3316   */\n    tag_41:\n        /* \"#utility.yul\":2969:2974   */\n      0x00\n        /* \"#utility.yul\":2994:3060   */\n      tag_79\n        /* \"#utility.yul\":3010:3059   */\n      tag_80\n        /* \"#utility.yul\":3052:3058   */\n      dup5\n        /* \"#utility.yul\":3010:3059   */\n      tag_39\n      jump\t// in\n    tag_80:\n        /* \"#utility.yul\":2994:3060   */\n      tag_38\n      jump\t// in\n    tag_79:\n        /* \"#utility.yul\":2985:3060   */\n      swap1\n      pop\n        /* \"#utility.yul\":3083:3089   */\n      dup3\n        /* \"#utility.yul\":3076:3081   */\n      dup2\n        /* \"#utility.yul\":3069:3090   */\n      mstore\n        /* \"#utility.yul\":3121:3125   */\n      0x20\n        /* \"#utility.yul\":3114:3119   */\n      dup2\n        /* \"#utility.yul\":3110:3126   */\n      add\n        /* \"#utility.yul\":3159:3162   */\n      dup5\n        /* \"#utility.yul\":3150:3156   */\n      dup5\n        /* \"#utility.yul\":3145:3148   */\n      dup5\n        /* \"#utility.yul\":3141:3157   */\n      add\n        /* \"#utility.yul\":3138:3163   */\n      gt\n        /* \"#utility.yul\":3135:3247   */\n      iszero\n      tag_81\n      jumpi\n        /* \"#utility.yul\":3166:3245   */\n      tag_82\n      tag_35\n      jump\t// in\n    tag_82:\n        /* \"#utility.yul\":3135:3247   */\n    tag_81:\n        /* \"#utility.yul\":3256:3310   */\n      tag_83\n        /* \"#utility.yul\":3303:3309   */\n      dup5\n        /* \"#utility.yul\":3298:3301   */\n      dup3\n        /* \"#utility.yul\":3293:3296   */\n      dup6\n        /* \"#utility.yul\":3256:3310   */\n      tag_40\n      jump\t// in\n    tag_83:\n        /* \"#utility.yul\":2975:3316   */\n      pop\n        /* \"#utility.yul\":2891:3316   */\n      swap4\n      swap3\n      pop\n      pop\n      pop\n      jump\t// out\n        /* \"#utility.yul\":3336:3676   */\n    tag_42:\n        /* \"#utility.yul\":3392:3397   */\n      0x00\n        /* \"#utility.yul\":3441:3444   */\n      dup3\n        /* \"#utility.yul\":3434:3438   */\n      0x1f\n        /* \"#utility.yul\":3426:3432   */\n      dup4\n        /* \"#utility.yul\":3422:3439   */\n      add\n        /* \"#utility.yul\":3418:3445   */\n      slt\n        /* \"#utility.yul\":3408:3530   */\n      tag_85\n      jumpi\n        /* \"#utility.yul\":3449:3528   */\n      tag_86\n      tag_34\n      jump\t// in\n    tag_86:\n        /* \"#utility.yul\":3408:3530   */\n    tag_85:\n        /* \"#utility.yul\":3566:3572   */\n      dup2\n        /* \"#utility.yul\":3553:3573   */\n      calldataload\n        /* \"#utility.yul\":3591:3670   */\n      tag_87\n        /* \"#utility.yul\":3666:3669   */\n      dup5\n        /* \"#utility.yul\":3658:3664   */\n      dup3\n        /* \"#utility.yul\":3651:3655   */\n      0x20\n        /* \"#utility.yul\":3643:3649   */\n      dup7\n        /* \"#utility.yul\":3639:3656   */\n      add\n        /* \"#utility.yul\":3591:3670   */\n      tag_41\n      jump\t// in\n    tag_87:\n        /* \"#utility.yul\":3582:3670   */\n      swap2\n      pop\n        /* \"#utility.yul\":3398:3676   */\n      pop\n        /* \"#utility.yul\":3336:3676   */\n      swap3\n      swap2\n      pop\n      pop\n      jump\t// out\n        /* \"#utility.yul\":3682:4191   */\n    tag_11:\n        /* \"#utility.yul\":3751:3757   */\n      0x00\n        /* \"#utility.yul\":3800:3802   */\n      0x20\n        /* \"#utility.yul\":3788:3797   */\n      dup3\n        /* \"#utility.yul\":3779:3786   */\n      dup5\n        /* \"#utility.yul\":3775:3798   */\n      sub\n        /* \"#utility.yul\":3771:3803   */\n      slt\n        /* \"#utility.yul\":3768:3887   */\n      iszero\n      tag_89\n      jumpi\n        /* \"#utility.yul\":3806:3885   */\n      tag_90\n      tag_32\n      jump\t// in\n    tag_90:\n        /* \"#utility.yul\":3768:3887   */\n    tag_89:\n        /* \"#utility.yul\":3954:3955   */\n      0x00\n        /* \"#utility.yul\":3943:3952   */\n      dup3\n        /* \"#utility.yul\":3939:3956   */\n      add\n        /* \"#utility.yul\":3926:3957   */\n      calldataload\n        /* \"#utility.yul\":3984:4002   */\n      0xffffffffffffffff\n        /* \"#utility.yul\":3976:3982   */\n      dup2\n        /* \"#utility.yul\":3973:4003   */\n      gt\n        /* \"#utility.yul\":3970:4087   */\n      iszero\n      tag_91\n      jumpi\n        /* \"#utility.yul\":4006:4085   */\n      tag_92\n      tag_33\n      jump\t// in\n    tag_92:\n        /* \"#utility.yul\":3970:4087   */\n    tag_91:\n        /* \"#utility.yul\":4111:4174   */\n      tag_93\n        /* \"#utility.yul\":4166:4173   */\n      dup5\n        /* \"#utility.yul\":4157:4163   */\n      dup3\n        /* \"#utility.yul\":4146:4155   */\n      dup6\n        /* \"#utility.yul\":4142:4164   */\n      add\n        /* \"#utility.yul\":4111:4174   */\n      tag_42\n      jump\t// in\n    tag_93:\n        /* \"#utility.yul\":4101:4174   */\n      swap2\n      pop\n        /* \"#utility.yul\":3897:4184   */\n      pop\n        /* \"#utility.yul\":3682:4191   */\n      swap3\n      swap2\n      pop\n      pop\n      jump\t// out\n        /* \"#utility.yul\":4197:4324   */\n    tag_43:\n        /* \"#utility.yul\":4312:4317   */\n      dup1\n        /* \"#utility.yul\":4307:4310   */\n      dup3\n        /* \"#utility.yul\":4300:4318   */\n      mstore\n        /* \"#utility.yul\":4197:4324   */\n      pop\n      pop\n      jump\t// out\n        /* \"#utility.yul\":4330:4608   */\n    tag_15:\n        /* \"#utility.yul\":4451:4455   */\n      0x00\n        /* \"#utility.yul\":4489:4491   */\n      0x20\n        /* \"#utility.yul\":4478:4487   */\n      dup3\n        /* \"#utility.yul\":4474:4492   */\n      add\n        /* \"#utility.yul\":4466:4492   */\n      swap1\n      pop\n        /* \"#utility.yul\":4502:4601   */\n      tag_96\n        /* \"#utility.yul\":4598:4599   */\n      0x00\n        /* \"#utility.yul\":4587:4596   */\n      dup4\n        /* \"#utility.yul\":4583:4600   */\n      add\n        /* \"#utility.yul\":4574:4580   */\n      dup5\n        /* \"#utility.yul\":4502:4601   */\n      tag_43\n      jump\t// in\n    tag_96:\n        /* \"#utility.yul\":4330:4608   */\n      swap3\n      swap2\n      pop\n      pop\n      jump\t// out\n        /* \"#utility.yul\":4614:5048   */\n    tag_44:\n        /* \"#utility.yul\":4703:4708   */\n      0x00\n        /* \"#utility.yul\":4728:4794   */\n      tag_98\n        /* \"#utility.yul\":4744:4793   */\n      tag_99\n        /* \"#utility.yul\":4786:4792   */\n      dup5\n        /* \"#utility.yul\":4744:4793   */\n      tag_39\n      jump\t// in\n    tag_99:\n        /* \"#utility.yul\":4728:4794   */\n      tag_38\n      jump\t// in\n    tag_98:\n        /* \"#utility.yul\":4719:4794   */\n      swap1\n      pop\n        /* \"#utility.yul\":4817:4823   */\n      dup3\n        /* \"#utility.yul\":4810:4815   */\n      dup2\n        /* \"#utility.yul\":4803:4824   */\n      mstore\n        /* \"#utility.yul\":4855:4859   */\n      0x20\n        /* \"#utility.yul\":4848:4853   */\n      dup2\n        /* \"#utility.yul\":4844:4860   */\n      add\n        /* \"#utility.yul\":4893:4896   */\n      dup5\n        /* \"#utility.yul\":4884:4890   */\n      dup5\n        /* \"#utility.yul\":4879:4882   */\n      dup5\n        /* \"#utility.yul\":4875:4891   */\n      add\n        /* \"#utility.yul\":4872:4897   */\n      gt\n        /* \"#utility.yul\":4869:4981   */\n      iszero\n      tag_100\n      jumpi\n        /* \"#utility.yul\":4900:4979   */\n      tag_101\n      tag_35\n      jump\t// in\n    tag_101:\n        /* \"#utility.yul\":4869:4981   */\n    tag_100:\n        /* \"#utility.yul\":4990:5042   */\n      tag_102\n        /* \"#utility.yul\":5035:5041   */\n      dup5\n        /* \"#utility.yul\":5030:5033   */\n      dup3\n        /* \"#utility.yul\":5025:5028   */\n      dup6\n        /* \"#utility.yul\":4990:5042   */\n      tag_28\n      jump\t// in\n    tag_102:\n        /* \"#utility.yul\":4709:5048   */\n      pop\n        /* \"#utility.yul\":4614:5048   */\n      swap4\n      swap3\n      pop\n      pop\n      pop\n      jump\t// out\n        /* \"#utility.yul\":5068:5423   */\n    tag_45:\n        /* \"#utility.yul\":5135:5140   */\n      0x00\n        /* \"#utility.yul\":5184:5187   */\n      dup3\n        /* \"#utility.yul\":5177:5181   */\n      0x1f\n        /* \"#utility.yul\":5169:5175   */\n      dup4\n        /* \"#utility.yul\":5165:5182   */\n      add\n        /* \"#utility.yul\":5161:5188   */\n      slt\n        /* \"#utility.yul\":5151:5273   */\n      tag_104\n      jumpi\n        /* \"#utility.yul\":5192:5271   */\n      tag_105\n      tag_34\n      jump\t// in\n    tag_105:\n        /* \"#utility.yul\":5151:5273   */\n    tag_104:\n        /* \"#utility.yul\":5302:5308   */\n      dup2\n        /* \"#utility.yul\":5296:5309   */\n      mload\n        /* \"#utility.yul\":5327:5417   */\n      tag_106\n        /* \"#utility.yul\":5413:5416   */\n      dup5\n        /* \"#utility.yul\":5405:5411   */\n      dup3\n        /* \"#utility.yul\":5398:5402   */\n      0x20\n        /* \"#utility.yul\":5390:5396   */\n      dup7\n        /* \"#utility.yul\":5386:5403   */\n      add\n        /* \"#utility.yul\":5327:5417   */\n      tag_44\n      jump\t// in\n    tag_106:\n        /* \"#utility.yul\":5318:5417   */\n      swap2\n      pop\n        /* \"#utility.yul\":5141:5423   */\n      pop\n        /* \"#utility.yul\":5068:5423   */\n      swap3\n      swap2\n      pop\n      pop\n      jump\t// out\n        /* \"#utility.yul\":5429:5953   */\n    tag_19:\n        /* \"#utility.yul\":5509:5515   */\n      0x00\n        /* \"#utility.yul\":5558:5560   */\n      0x20\n        /* \"#utility.yul\":5546:5555   */\n      dup3\n        /* \"#utility.yul\":5537:5544   */\n      dup5\n        /* \"#utility.yul\":5533:5556   */\n      sub\n        /* \"#utility.yul\":5529:5561   */\n      slt\n        /* \"#utility.yul\":5526:5645   */\n      iszero\n      tag_108\n      jumpi\n        /* \"#utility.yul\":5564:5643   */\n      tag_109\n      tag_32\n      jump\t// in\n    tag_109:\n        /* \"#utility.yul\":5526:5645   */\n    tag_108:\n        /* \"#utility.yul\":5705:5706   */\n      0x00\n        /* \"#utility.yul\":5694:5703   */\n      dup3\n        /* \"#utility.yul\":5690:5707   */\n      add\n        /* \"#utility.yul\":5684:5708   */\n      mload\n        /* \"#utility.yul\":5735:5753   */\n      0xffffffffffffffff\n        /* \"#utility.yul\":5727:5733   */\n      dup2\n        /* \"#utility.yul\":5724:5754   */\n      gt\n        /* \"#utility.yul\":5721:5838   */\n      iszero\n      tag_110\n      jumpi\n        /* \"#utility.yul\":5757:5836   */\n      tag_111\n      tag_33\n      jump\t// in\n    tag_111:\n        /* \"#utility.yul\":5721:5838   */\n    tag_110:\n        /* \"#utility.yul\":5862:5936   */\n      tag_112\n        /* \"#utility.yul\":5928:5935   */\n      dup5\n        /* \"#utility.yul\":5919:5925   */\n      dup3\n        /* \"#utility.yul\":5908:5917   */\n      dup6\n        /* \"#utility.yul\":5904:5926   */\n      add\n        /* \"#utility.yul\":5862:5936   */\n      tag_45\n      jump\t// in\n    tag_112:\n        /* \"#utility.yul\":5852:5936   */\n      swap2\n      pop\n        /* \"#utility.yul\":5655:5946   */\n      pop\n        /* \"#utility.yul\":5429:5953   */\n      swap3\n      swap2\n      pop\n      pop\n      jump\t// out\n        /* \"#utility.yul\":5959:6136   */\n    tag_46:\n        /* \"#utility.yul\":6051:6062   */\n      0x00\n        /* \"#utility.yul\":6085:6091   */\n      dup3\n        /* \"#utility.yul\":6080:6083   */\n      dup3\n        /* \"#utility.yul\":6073:6092   */\n      mstore\n        /* \"#utility.yul\":6125:6129   */\n      0x20\n        /* \"#utility.yul\":6120:6123   */\n      dup3\n        /* \"#utility.yul\":6116:6130   */\n      add\n        /* \"#utility.yul\":6101:6130   */\n      swap1\n      pop\n        /* \"#utility.yul\":5959:6136   */\n      swap3\n      swap2\n      pop\n      pop\n      jump\t// out\n        /* \"#utility.yul\":6142:6535   */\n    tag_47:\n        /* \"#utility.yul\":6238:6241   */\n      0x00\n        /* \"#utility.yul\":6266:6305   */\n      tag_115\n        /* \"#utility.yul\":6299:6304   */\n      dup3\n        /* \"#utility.yul\":6266:6305   */\n      tag_26\n      jump\t// in\n    tag_115:\n        /* \"#utility.yul\":6321:6400   */\n      tag_116\n        /* \"#utility.yul\":6393:6399   */\n      dup2\n        /* \"#utility.yul\":6388:6391   */\n      dup6\n        /* \"#utility.yul\":6321:6400   */\n      tag_46\n      jump\t// in\n    tag_116:\n        /* \"#utility.yul\":6314:6400   */\n      swap4\n      pop\n        /* \"#utility.yul\":6409:6474   */\n      tag_117\n        /* \"#utility.yul\":6467:6473   */\n      dup2\n        /* \"#utility.yul\":6462:6465   */\n      dup6\n        /* \"#utility.yul\":6455:6459   */\n      0x20\n        /* \"#utility.yul\":6448:6453   */\n      dup7\n        /* \"#utility.yul\":6444:6460   */\n      add\n        /* \"#utility.yul\":6409:6474   */\n      tag_28\n      jump\t// in\n    tag_117:\n        /* \"#utility.yul\":6499:6528   */\n      tag_118\n        /* \"#utility.yul\":6521:6527   */\n      dup2\n        /* \"#utility.yul\":6499:6528   */\n      tag_29\n      jump\t// in\n    tag_118:\n        /* \"#utility.yul\":6494:6497   */\n      dup5\n        /* \"#utility.yul\":6490:6529   */\n      add\n        /* \"#utility.yul\":6483:6529   */\n      swap2\n      pop\n        /* \"#utility.yul\":6242:6535   */\n      pop\n        /* \"#utility.yul\":6142:6535   */\n      swap3\n      swap2\n      pop\n      pop\n      jump\t// out\n        /* \"#utility.yul\":6541:7028   */\n    tag_22:\n        /* \"#utility.yul\":6710:6714   */\n      0x00\n        /* \"#utility.yul\":6748:6750   */\n      0x40\n        /* \"#utility.yul\":6737:6746   */\n      dup3\n        /* \"#utility.yul\":6733:6751   */\n      add\n        /* \"#utility.yul\":6725:6751   */\n      swap1\n      pop\n        /* \"#utility.yul\":6761:6860   */\n      tag_120\n        /* \"#utility.yul\":6857:6858   */\n      0x00\n        /* \"#utility.yul\":6846:6855   */\n      dup4\n        /* \"#utility.yul\":6842:6859   */\n      add\n        /* \"#utility.yul\":6833:6839   */\n      dup6\n        /* \"#utility.yul\":6761:6860   */\n      tag_43\n      jump\t// in\n    tag_120:\n        /* \"#utility.yul\":6907:6916   */\n      dup2\n        /* \"#utility.yul\":6901:6905   */\n      dup2\n        /* \"#utility.yul\":6897:6917   */\n      sub\n        /* \"#utility.yul\":6892:6894   */\n      0x20\n        /* \"#utility.yul\":6881:6890   */\n      dup4\n        /* \"#utility.yul\":6877:6895   */\n      add\n        /* \"#utility.yul\":6870:6918   */\n      mstore\n        /* \"#utility.yul\":6935:7021   */\n      tag_121\n        /* \"#utility.yul\":7016:7020   */\n      dup2\n        /* \"#utility.yul\":7007:7013   */\n      dup5\n        /* \"#utility.yul\":6935:7021   */\n      tag_47\n      jump\t// in\n    tag_121:\n        /* \"#utility.yul\":6927:7021   */\n      swap1\n      pop\n        /* \"#utility.yul\":6541:7028   */\n      swap4\n      swap3\n      pop\n      pop\n      pop\n      jump\t// out\n\n    auxdata: 0xa26469706673582212206177800a3c592a5bd9a855376097d207ee6d9f7037546ceac88fcedb2e4e01ea64736f6c63430008190033\n}\n",
				"bytecode": {
					"linkReferences": {
						"contracts/librarySettergetter.sol": {
							"StringLib": [
								{
									"length": 20,
									"start": 147
								},
								{
									"length": 20,
									"start": 275
								}
							]
						}
					},
					"object": "6080604052348015600e575f80fd5b506104f38061001c5f395ff3fe608060405234801561000f575f80fd5b5060043610610034575f3560e01c80637e7b8a96146100385780638218056814610056575b5f80fd5b610040610072565b60405161004d91906101ce565b60405180910390f35b610070600480360381019061006b919061032b565b6100f4565b005b60605f73__$813b8a39ef1dd142fc1ddaa538feea8164$__63ec06762f90916040518263ffffffff1660e01b81526004016100ad9190610379565b5f60405180830381865af41580156100c7573d5f803e3d5ffd5b505050506040513d5f823e3d601f19601f820116820180604052508101906100ef9190610400565b905090565b5f73__$813b8a39ef1dd142fc1ddaa538feea8164$__631d7bbc799091836040518363ffffffff1660e01b815260040161012f92919061048f565b5f6040518083038186803b158015610145575f80fd5b505af4158015610157573d5f803e3d5ffd5b5050505050565b5f81519050919050565b5f82825260208201905092915050565b8281835e5f83830152505050565b5f601f19601f8301169050919050565b5f6101a08261015e565b6101aa8185610168565b93506101ba818560208601610178565b6101c381610186565b840191505092915050565b5f6020820190508181035f8301526101e68184610196565b905092915050565b5f604051905090565b5f80fd5b5f80fd5b5f80fd5b5f80fd5b7f4e487b71000000000000000000000000000000000000000000000000000000005f52604160045260245ffd5b61023d82610186565b810181811067ffffffffffffffff8211171561025c5761025b610207565b5b80604052505050565b5f61026e6101ee565b905061027a8282610234565b919050565b5f67ffffffffffffffff82111561029957610298610207565b5b6102a282610186565b9050602081019050919050565b828183375f83830152505050565b5f6102cf6102ca8461027f565b610265565b9050828152602081018484840111156102eb576102ea610203565b5b6102f68482856102af565b509392505050565b5f82601f830112610312576103116101ff565b5b81356103228482602086016102bd565b91505092915050565b5f602082840312156103405761033f6101f7565b5b5f82013567ffffffffffffffff81111561035d5761035c6101fb565b5b610369848285016102fe565b91505092915050565b8082525050565b5f60208201905061038c5f830184610372565b92915050565b5f6103a461039f8461027f565b610265565b9050828152602081018484840111156103c0576103bf610203565b5b6103cb848285610178565b509392505050565b5f82601f8301126103e7576103e66101ff565b5b81516103f7848260208601610392565b91505092915050565b5f60208284031215610415576104146101f7565b5b5f82015167ffffffffffffffff811115610432576104316101fb565b5b61043e848285016103d3565b91505092915050565b5f82825260208201905092915050565b5f6104618261015e565b61046b8185610447565b935061047b818560208601610178565b61048481610186565b840191505092915050565b5f6040820190506104a25f830185610372565b81810360208301526104b48184610457565b9050939250505056fea26469706673582212206177800a3c592a5bd9a855376097d207ee6d9f7037546ceac88fcedb2e4e01ea64736f6c63430008190033",
					"opcodes": "PUSH1 0x80 PUSH1 0x40 MSTORE CALLVALUE DUP1 ISZERO PUSH1 0xE JUMPI PUSH0 DUP1 REVERT JUMPDEST POP PUSH2 0x4F3 DUP1 PUSH2 0x1C PUSH0 CODECOPY PUSH0 RETURN INVALID PUSH1 0x80 PUSH1 0x40 MSTORE CALLVALUE DUP1 ISZERO PUSH2 0xF JUMPI PUSH0 DUP1 REVERT JUMPDEST POP PUSH1 0x4 CALLDATASIZE LT PUSH2 0x34 JUMPI PUSH0 CALLDATALOAD PUSH1 0xE0 SHR DUP1 PUSH4 0x7E7B8A96 EQ PUSH2 0x38 JUMPI DUP1 PUSH4 0x82180568 EQ PUSH2 0x56 JUMPI JUMPDEST PUSH0 DUP1 REVERT JUMPDEST PUSH2 0x40 PUSH2 0x72 JUMP JUMPDEST PUSH1 0x40 MLOAD PUSH2 0x4D SWAP2 SWAP1 PUSH2 0x1CE JUMP JUMPDEST PUSH1 0x40 MLOAD DUP1 SWAP2 SUB SWAP1 RETURN JUMPDEST PUSH2 0x70 PUSH1 0x4 DUP1 CALLDATASIZE SUB DUP2 ADD SWAP1 PUSH2 0x6B SWAP2 SWAP1 PUSH2 0x32B JUMP JUMPDEST PUSH2 0xF4 JUMP JUMPDEST STOP JUMPDEST PUSH1 0x60 PUSH0 PUSH20 0x0 PUSH4 0xEC06762F SWAP1 SWAP2 PUSH1 0x40 MLOAD DUP3 PUSH4 0xFFFFFFFF AND PUSH1 0xE0 SHL DUP2 MSTORE PUSH1 0x4 ADD PUSH2 0xAD SWAP2 SWAP1 PUSH2 0x379 JUMP JUMPDEST PUSH0 PUSH1 0x40 MLOAD DUP1 DUP4 SUB DUP2 DUP7 GAS DELEGATECALL ISZERO DUP1 ISZERO PUSH2 0xC7 JUMPI RETURNDATASIZE PUSH0 DUP1 RETURNDATACOPY RETURNDATASIZE PUSH0 REVERT JUMPDEST POP POP POP POP PUSH1 0x40 MLOAD RETURNDATASIZE PUSH0 DUP3 RETURNDATACOPY RETURNDATASIZE PUSH1 0x1F NOT PUSH1 0x1F DUP3 ADD AND DUP3 ADD DUP1 PUSH1 0x40 MSTORE POP DUP2 ADD SWAP1 PUSH2 0xEF SWAP2 SWAP1 PUSH2 0x400 JUMP JUMPDEST SWAP1 POP SWAP1 JUMP JUMPDEST PUSH0 PUSH20 0x0 PUSH4 0x1D7BBC79 SWAP1 SWAP2 DUP4 PUSH1 0x40 MLOAD DUP4 PUSH4 0xFFFFFFFF AND PUSH1 0xE0 SHL DUP2 MSTORE PUSH1 0x4 ADD PUSH2 0x12F SWAP3 SWAP2 SWAP1 PUSH2 0x48F JUMP JUMPDEST PUSH0 PUSH1 0x40 MLOAD DUP1 DUP4 SUB DUP2 DUP7 DUP1 EXTCODESIZE ISZERO DUP1 ISZERO PUSH2 0x145 JUMPI PUSH0 DUP1 REVERT JUMPDEST POP GAS DELEGATECALL ISZERO DUP1 ISZERO PUSH2 0x157 JUMPI RETURNDATASIZE PUSH0 DUP1 RETURNDATACOPY RETURNDATASIZE PUSH0 REVERT JUMPDEST POP POP POP POP POP JUMP JUMPDEST PUSH0 DUP2 MLOAD SWAP1 POP SWAP2 SWAP1 POP JUMP JUMPDEST PUSH0 DUP3 DUP3 MSTORE PUSH1 0x20 DUP3 ADD SWAP1 POP SWAP3 SWAP2 POP POP JUMP JUMPDEST DUP3 DUP2 DUP4 MCOPY PUSH0 DUP4 DUP4 ADD MSTORE POP POP POP JUMP JUMPDEST PUSH0 PUSH1 0x1F NOT PUSH1 0x1F DUP4 ADD AND SWAP1 POP SWAP2 SWAP1 POP JUMP JUMPDEST PUSH0 PUSH2 0x1A0 DUP3 PUSH2 0x15E JUMP JUMPDEST PUSH2 0x1AA DUP2 DUP6 PUSH2 0x168 JUMP JUMPDEST SWAP4 POP PUSH2 0x1BA DUP2 DUP6 PUSH1 0x20 DUP7 ADD PUSH2 0x178 JUMP JUMPDEST PUSH2 0x1C3 DUP2 PUSH2 0x186 JUMP JUMPDEST DUP5 ADD SWAP2 POP POP SWAP3 SWAP2 POP POP JUMP JUMPDEST PUSH0 PUSH1 0x20 DUP3 ADD SWAP1 POP DUP2 DUP2 SUB PUSH0 DUP4 ADD MSTORE PUSH2 0x1E6 DUP2 DUP5 PUSH2 0x196 JUMP JUMPDEST SWAP1 POP SWAP3 SWAP2 POP POP JUMP JUMPDEST PUSH0 PUSH1 0x40 MLOAD SWAP1 POP SWAP1 JUMP JUMPDEST PUSH0 DUP1 REVERT JUMPDEST PUSH0 DUP1 REVERT JUMPDEST PUSH0 DUP1 REVERT JUMPDEST PUSH0 DUP1 REVERT JUMPDEST PUSH32 0x4E487B7100000000000000000000000000000000000000000000000000000000 PUSH0 MSTORE PUSH1 0x41 PUSH1 0x4 MSTORE PUSH1 0x24 PUSH0 REVERT JUMPDEST PUSH2 0x23D DUP3 PUSH2 0x186 JUMP JUMPDEST DUP2 ADD DUP2 DUP2 LT PUSH8 0xFFFFFFFFFFFFFFFF DUP3 GT OR ISZERO PUSH2 0x25C JUMPI PUSH2 0x25B PUSH2 0x207 JUMP JUMPDEST JUMPDEST DUP1 PUSH1 0x40 MSTORE POP POP POP JUMP JUMPDEST PUSH0 PUSH2 0x26E PUSH2 0x1EE JUMP JUMPDEST SWAP1 POP PUSH2 0x27A DUP3 DUP3 PUSH2 0x234 JUMP JUMPDEST SWAP2 SWAP1 POP JUMP JUMPDEST PUSH0 PUSH8 0xFFFFFFFFFFFFFFFF DUP3 GT ISZERO PUSH2 0x299 JUMPI PUSH2 0x298 PUSH2 0x207 JUMP JUMPDEST JUMPDEST PUSH2 0x2A2 DUP3 PUSH2 0x186 JUMP JUMPDEST SWAP1 POP PUSH1 0x20 DUP2 ADD SWAP1 POP SWAP2 SWAP1 POP JUMP JUMPDEST DUP3 DUP2 DUP4 CALLDATACOPY PUSH0 DUP4 DUP4 ADD MSTORE POP POP POP JUMP JUMPDEST PUSH0 PUSH2 0x2CF PUSH2 0x2CA DUP5 PUSH2 0x27F JUMP JUMPDEST PUSH2 0x265 JUMP JUMPDEST SWAP1 POP DUP3 DUP2 MSTORE PUSH1 0x20 DUP2 ADD DUP5 DUP5 DUP5 ADD GT ISZERO PUSH2 0x2EB JUMPI PUSH2 0x2EA PUSH2 0x203 JUMP JUMPDEST JUMPDEST PUSH2 0x2F6 DUP5 DUP3 DUP6 PUSH2 0x2AF JUMP JUMPDEST POP SWAP4 SWAP3 POP POP POP JUMP JUMPDEST PUSH0 DUP3 PUSH1 0x1F DUP4 ADD SLT PUSH2 0x312 JUMPI PUSH2 0x311 PUSH2 0x1FF JUMP JUMPDEST JUMPDEST DUP2 CALLDATALOAD PUSH2 0x322 DUP5 DUP3 PUSH1 0x20 DUP7 ADD PUSH2 0x2BD JUMP JUMPDEST SWAP2 POP POP SWAP3 SWAP2 POP POP JUMP JUMPDEST PUSH0 PUSH1 0x20 DUP3 DUP5 SUB SLT ISZERO PUSH2 0x340 JUMPI PUSH2 0x33F PUSH2 0x1F7 JUMP JUMPDEST JUMPDEST PUSH0 DUP3 ADD CALLDATALOAD PUSH8 0xFFFFFFFFFFFFFFFF DUP2 GT ISZERO PUSH2 0x35D JUMPI PUSH2 0x35C PUSH2 0x1FB JUMP JUMPDEST JUMPDEST PUSH2 0x369 DUP5 DUP3 DUP6 ADD PUSH2 0x2FE JUMP JUMPDEST SWAP2 POP POP SWAP3 SWAP2 POP POP JUMP JUMPDEST DUP1 DUP3 MSTORE POP POP JUMP JUMPDEST PUSH0 PUSH1 0x20 DUP3 ADD SWAP1 POP PUSH2 0x38C PUSH0 DUP4 ADD DUP5 PUSH2 0x372 JUMP JUMPDEST SWAP3 SWAP2 POP POP JUMP JUMPDEST PUSH0 PUSH2 0x3A4 PUSH2 0x39F DUP5 PUSH2 0x27F JUMP JUMPDEST PUSH2 0x265 JUMP JUMPDEST SWAP1 POP DUP3 DUP2 MSTORE PUSH1 0x20 DUP2 ADD DUP5 DUP5 DUP5 ADD GT ISZERO PUSH2 0x3C0 JUMPI PUSH2 0x3BF PUSH2 0x203 JUMP JUMPDEST JUMPDEST PUSH2 0x3CB DUP5 DUP3 DUP6 PUSH2 0x178 JUMP JUMPDEST POP SWAP4 SWAP3 POP POP POP JUMP JUMPDEST PUSH0 DUP3 PUSH1 0x1F DUP4 ADD SLT PUSH2 0x3E7 JUMPI PUSH2 0x3E6 PUSH2 0x1FF JUMP JUMPDEST JUMPDEST DUP2 MLOAD PUSH2 0x3F7 DUP5 DUP3 PUSH1 0x20 DUP7 ADD PUSH2 0x392 JUMP JUMPDEST SWAP2 POP POP SWAP3 SWAP2 POP POP JUMP JUMPDEST PUSH0 PUSH1 0x20 DUP3 DUP5 SUB SLT ISZERO PUSH2 0x415 JUMPI PUSH2 0x414 PUSH2 0x1F7 JUMP JUMPDEST JUMPDEST PUSH0 DUP3 ADD MLOAD PUSH8 0xFFFFFFFFFFFFFFFF DUP2 GT ISZERO PUSH2 0x432 JUMPI PUSH2 0x431 PUSH2 0x1FB JUMP JUMPDEST JUMPDEST PUSH2 0x43E DUP5 DUP3 DUP6 ADD PUSH2 0x3D3 JUMP JUMPDEST SWAP2 POP POP SWAP3 SWAP2 POP POP JUMP JUMPDEST PUSH0 DUP3 DUP3 MSTORE PUSH1 0x20 DUP3 ADD SWAP1 POP SWAP3 SWAP2 POP POP JUMP JUMPDEST PUSH0 PUSH2 0x461 DUP3 PUSH2 0x15E JUMP JUMPDEST PUSH2 0x46B DUP2 DUP6 PUSH2 0x447 JUMP JUMPDEST SWAP4 POP PUSH2 0x47B DUP2 DUP6 PUSH1 0x20 DUP7 ADD PUSH2 0x178 JUMP JUMPDEST PUSH2 0x484 DUP2 PUSH2 0x186 JUMP JUMPDEST DUP5 ADD SWAP2 POP POP SWAP3 SWAP2 POP POP JUMP JUMPDEST PUSH0 PUSH1 0x40 DUP3 ADD SWAP1 POP PUSH2 0x4A2 PUSH0 DUP4 ADD DUP6 PUSH2 0x372 JUMP JUMPDEST DUP2 DUP2 SUB PUSH1 0x20 DUP4 ADD MSTORE PUSH2 0x4B4 DUP2 DUP5 PUSH2 0x457 JUMP JUMPDEST SWAP1 POP SWAP4 SWAP3 POP POP POP JUMP INVALID LOG2 PUSH5 0x6970667358 0x22 SLT KECCAK256 PUSH2 0x7780 EXP EXTCODECOPY MSIZE 0x2A JUMPDEST 0xD9 0xA8 SSTORE CALLDATACOPY PUSH1 0x97 0xD2 SMOD 0xEE PUSH14 0x9F7037546CEAC88FCEDB2E4E01EA PUSH5 0x736F6C6343 STOP ADDMOD NOT STOP CALLER "
				},
				"gasEstimates": {
					"creation": {
						"codeDepositCost": "253400",
						"executionCost": "292",
						"totalCost": "253692"
					},
					"external": {
						"getMyString()": "infinite",
						"setMyString(string)": "infinite"
					}
				},
				"methodIdentifiers": {
					"getMyString()": "7e7b8a96",
					"setMyString(string)": "82180568"
				}
			},
			"storageLayout": {
				"storage": [
					{
						"astId": 39,
						"contract": "contracts/librarySettergetter.sol:Example",
						"label": "myString",
						"offset": 0,
						"slot": "0",
						"type": "t_struct(Data)4_storage"
					}
				],
				"types": {
					"t_string_storage": {
						"encoding": "bytes",
						"label": "string",
						"numberOfBytes": "32"
					},
					"t_struct(Data)4_storage": {
						"encoding": "inplace",
						"label": "struct StringLib.Data",
						"members": [
							{
								"astId": 3,
								"contract": "contracts/librarySettergetter.sol:Example",
								"label": "value",
								"offset": 0,
								"slot": "0",
								"type": "t_string_storage"
							}
						],
						"numberOfBytes": "32"
					}
				}
			},
			"userdoc": {
				"kind": "user",
				"methods": {},
				"version": 1
			}
		}
	}
}