{
	"data": {
		"bytecode": {
			"linkReferences": {},
			"object": "608060405260645f553480156012575f80fd5b50610283806100205f395ff3fe608060405234801561000f575f80fd5b5060043610610034575f3560e01c80635487692114610038578063b69ef8a814610068575b5f80fd5b610052600480360381019061004d9190610122565b610086565b60405161005f919061015c565b60405180910390f35b6100706100e6565b60405161007d919061015c565b60405180910390f35b5f80548211156100cb576040517f08c379a00000000000000000000000000000000000000000000000000000000081526004016100c2906101cf565b60405180910390fd5b815f546100d8919061021a565b5f819055505f549050919050565b5f5481565b5f80fd5b5f819050919050565b610101816100ef565b811461010b575f80fd5b50565b5f8135905061011c816100f8565b92915050565b5f60208284031215610137576101366100eb565b5b5f6101448482850161010e565b91505092915050565b610156816100ef565b82525050565b5f60208201905061016f5f83018461014d565b92915050565b5f82825260208201905092915050565b7f726576657274206e6f7420616c6c6f77656400000000000000000000000000005f82015250565b5f6101b9601283610175565b91506101c482610185565b602082019050919050565b5f6020820190508181035f8301526101e6816101ad565b9050919050565b7f4e487b71000000000000000000000000000000000000000000000000000000005f52601160045260245ffd5b5f610224826100ef565b915061022f836100ef565b9250828203905081811115610247576102466101ed565b5b9291505056fea264697066735822122003935b2ddbda14c0587fc6c84d6dd5b1769276fb1f73e9b96f0e2aee6e33094464736f6c63430008190033",
			"opcodes": "PUSH1 0x80 PUSH1 0x40 MSTORE PUSH1 0x64 PUSH0 SSTORE CALLVALUE DUP1 ISZERO PUSH1 0x12 JUMPI PUSH0 DUP1 REVERT JUMPDEST POP PUSH2 0x283 DUP1 PUSH2 0x20 PUSH0 CODECOPY PUSH0 RETURN INVALID PUSH1 0x80 PUSH1 0x40 MSTORE CALLVALUE DUP1 ISZERO PUSH2 0xF JUMPI PUSH0 DUP1 REVERT JUMPDEST POP PUSH1 0x4 CALLDATASIZE LT PUSH2 0x34 JUMPI PUSH0 CALLDATALOAD PUSH1 0xE0 SHR DUP1 PUSH4 0x54876921 EQ PUSH2 0x38 JUMPI DUP1 PUSH4 0xB69EF8A8 EQ PUSH2 0x68 JUMPI JUMPDEST PUSH0 DUP1 REVERT JUMPDEST PUSH2 0x52 PUSH1 0x4 DUP1 CALLDATASIZE SUB DUP2 ADD SWAP1 PUSH2 0x4D SWAP2 SWAP1 PUSH2 0x122 JUMP JUMPDEST PUSH2 0x86 JUMP JUMPDEST PUSH1 0x40 MLOAD PUSH2 0x5F SWAP2 SWAP1 PUSH2 0x15C JUMP JUMPDEST PUSH1 0x40 MLOAD DUP1 SWAP2 SUB SWAP1 RETURN JUMPDEST PUSH2 0x70 PUSH2 0xE6 JUMP JUMPDEST PUSH1 0x40 MLOAD PUSH2 0x7D SWAP2 SWAP1 PUSH2 0x15C JUMP JUMPDEST PUSH1 0x40 MLOAD DUP1 SWAP2 SUB SWAP1 RETURN JUMPDEST PUSH0 DUP1 SLOAD DUP3 GT ISZERO PUSH2 0xCB JUMPI PUSH1 0x40 MLOAD PUSH32 0x8C379A000000000000000000000000000000000000000000000000000000000 DUP2 MSTORE PUSH1 0x4 ADD PUSH2 0xC2 SWAP1 PUSH2 0x1CF JUMP JUMPDEST PUSH1 0x40 MLOAD DUP1 SWAP2 SUB SWAP1 REVERT JUMPDEST DUP2 PUSH0 SLOAD PUSH2 0xD8 SWAP2 SWAP1 PUSH2 0x21A JUMP JUMPDEST PUSH0 DUP2 SWAP1 SSTORE POP PUSH0 SLOAD SWAP1 POP SWAP2 SWAP1 POP JUMP JUMPDEST PUSH0 SLOAD DUP2 JUMP JUMPDEST PUSH0 DUP1 REVERT JUMPDEST PUSH0 DUP2 SWAP1 POP SWAP2 SWAP1 POP JUMP JUMPDEST PUSH2 0x101 DUP2 PUSH2 0xEF JUMP JUMPDEST DUP2 EQ PUSH2 0x10B JUMPI PUSH0 DUP1 REVERT JUMPDEST POP JUMP JUMPDEST PUSH0 DUP2 CALLDATALOAD SWAP1 POP PUSH2 0x11C DUP2 PUSH2 0xF8 JUMP JUMPDEST SWAP3 SWAP2 POP POP JUMP JUMPDEST PUSH0 PUSH1 0x20 DUP3 DUP5 SUB SLT ISZERO PUSH2 0x137 JUMPI PUSH2 0x136 PUSH2 0xEB JUMP JUMPDEST JUMPDEST PUSH0 PUSH2 0x144 DUP5 DUP3 DUP6 ADD PUSH2 0x10E JUMP JUMPDEST SWAP2 POP POP SWAP3 SWAP2 POP POP JUMP JUMPDEST PUSH2 0x156 DUP2 PUSH2 0xEF JUMP JUMPDEST DUP3 MSTORE POP POP JUMP JUMPDEST PUSH0 PUSH1 0x20 DUP3 ADD SWAP1 POP PUSH2 0x16F PUSH0 DUP4 ADD DUP5 PUSH2 0x14D JUMP JUMPDEST SWAP3 SWAP2 POP POP JUMP JUMPDEST PUSH0 DUP3 DUP3 MSTORE PUSH1 0x20 DUP3 ADD SWAP1 POP SWAP3 SWAP2 POP POP JUMP JUMPDEST PUSH32 0x726576657274206E6F7420616C6C6F7765640000000000000000000000000000 PUSH0 DUP3 ADD MSTORE POP JUMP JUMPDEST PUSH0 PUSH2 0x1B9 PUSH1 0x12 DUP4 PUSH2 0x175 JUMP JUMPDEST SWAP2 POP PUSH2 0x1C4 DUP3 PUSH2 0x185 JUMP JUMPDEST PUSH1 0x20 DUP3 ADD SWAP1 POP SWAP2 SWAP1 POP JUMP JUMPDEST PUSH0 PUSH1 0x20 DUP3 ADD SWAP1 POP DUP2 DUP2 SUB PUSH0 DUP4 ADD MSTORE PUSH2 0x1E6 DUP2 PUSH2 0x1AD JUMP JUMPDEST SWAP1 POP SWAP2 SWAP1 POP JUMP JUMPDEST PUSH32 0x4E487B7100000000000000000000000000000000000000000000000000000000 PUSH0 MSTORE PUSH1 0x11 PUSH1 0x4 MSTORE PUSH1 0x24 PUSH0 REVERT JUMPDEST PUSH0 PUSH2 0x224 DUP3 PUSH2 0xEF JUMP JUMPDEST SWAP2 POP PUSH2 0x22F DUP4 PUSH2 0xEF JUMP JUMPDEST SWAP3 POP DUP3 DUP3 SUB SWAP1 POP DUP2 DUP2 GT ISZERO PUSH2 0x247 JUMPI PUSH2 0x246 PUSH2 0x1ED JUMP JUMPDEST JUMPDEST SWAP3 SWAP2 POP POP JUMP INVALID LOG2 PUSH5 0x6970667358 0x22 SLT KECCAK256 SUB SWAP4 JUMPDEST 0x2D 0xDB 0xDA EQ 0xC0 PC PUSH32 0xC6C84D6DD5B1769276FB1F73E9B96F0E2AEE6E33094464736F6C634300081900 CALLER "
		},
		"gasEstimates": {
			"creation": {
				"codeDepositCost": "128600",
				"executionCost": "22280",
				"totalCost": "150880"
			},
			"external": {
				"balance()": "2424",
				"withdrawMoney(uint256)": "infinite"
			}
		},
		"methodIdentifiers": {
			"balance()": "b69ef8a8",
			"withdrawMoney(uint256)": "54876921"
		}
	},
	"abi": [
		{
			"inputs": [],
			"name": "balance",
			"outputs": [
				{
					"internalType": "uint256",
					"name": "",
					"type": "uint256"
				}
			],
			"stateMutability": "view",
			"type": "function"
		},
		{
			"inputs": [
				{
					"internalType": "uint256",
					"name": "_amount",
					"type": "uint256"
				}
			],
			"name": "withdrawMoney",
			"outputs": [
				{
					"internalType": "uint256",
					"name": "",
					"type": "uint256"
				}
			],
			"stateMutability": "nonpayable",
			"type": "function"
		}
	]
}