{
	"data": {
		"bytecode": {
			"linkReferences": {},
			"object": "608060405234801561000f575f80fd5b5061100b8061001d5f395ff3fe608060405234801561000f575f80fd5b506004361061004a575f3560e01c80632a72500a1461004e578063a82dab0b1461006a578063de02c5441461009a578063ed09e22c146100cf575b5f80fd5b610068600480360381019061006391906109ca565b610104565b005b610084600480360381019061007f9190610abb565b6101c9565b6040516100919190610c12565b60405180910390f35b6100b460048036038101906100af9190610abb565b6103d0565b6040516100c696959493929190610c98565b60405180910390f35b6100e960048036038101906100e49190610abb565b6105a5565b6040516100fb96959493929190610c98565b60405180910390f35b855f808981526020019081526020015f205f0190816101239190610f06565b50845f808981526020019081526020015f2060010181905550835f808981526020019081526020015f2060020181905550825f808981526020019081526020015f2060030190816101749190610f06565b50815f808981526020019081526020015f2060040190816101959190610f06565b50805f808981526020019081526020015f206005015f6101000a81548160ff02191690831515021790555050505050505050565b6101d16107e0565b5f808381526020019081526020015f206040518060c00160405290815f820180546101fb90610d39565b80601f016020809104026020016040519081016040528092919081815260200182805461022790610d39565b80156102725780601f1061024957610100808354040283529160200191610272565b820191905f5260205f20905b81548152906001019060200180831161025557829003601f168201915b50505050508152602001600182015481526020016002820154815260200160038201805461029f90610d39565b80601f01602080910402602001604051908101604052809291908181526020018280546102cb90610d39565b80156103165780601f106102ed57610100808354040283529160200191610316565b820191905f5260205f20905b8154815290600101906020018083116102f957829003601f168201915b5050505050815260200160048201805461032f90610d39565b80601f016020809104026020016040519081016040528092919081815260200182805461035b90610d39565b80156103a65780601f1061037d576101008083540402835291602001916103a6565b820191905f5260205f20905b81548152906001019060200180831161038957829003601f168201915b50505050508152602001600582015f9054906101000a900460ff1615151515815250509050919050565b5f602052805f5260405f205f91509050805f0180546103ee90610d39565b80601f016020809104026020016040519081016040528092919081815260200182805461041a90610d39565b80156104655780601f1061043c57610100808354040283529160200191610465565b820191905f5260205f20905b81548152906001019060200180831161044857829003601f168201915b50505050509080600101549080600201549080600301805461048690610d39565b80601f01602080910402602001604051908101604052809291908181526020018280546104b290610d39565b80156104fd5780601f106104d4576101008083540402835291602001916104fd565b820191905f5260205f20905b8154815290600101906020018083116104e057829003601f168201915b50505050509080600401805461051290610d39565b80601f016020809104026020016040519081016040528092919081815260200182805461053e90610d39565b80156105895780601f1061056057610100808354040283529160200191610589565b820191905f5260205f20905b81548152906001019060200180831161056c57829003601f168201915b505050505090806005015f9054906101000a900460ff16905086565b60605f806060805f805f8881526020019081526020015f205f015f808981526020019081526020015f20600101545f808a81526020019081526020015f20600201545f808b81526020019081526020015f206003015f808c81526020019081526020015f206004015f808d81526020019081526020015f206005015f9054906101000a900460ff1685805461063990610d39565b80601f016020809104026020016040519081016040528092919081815260200182805461066590610d39565b80156106b05780601f10610687576101008083540402835291602001916106b0565b820191905f5260205f20905b81548152906001019060200180831161069357829003601f168201915b505050505095508280546106c390610d39565b80601f01602080910402602001604051908101604052809291908181526020018280546106ef90610d39565b801561073a5780601f106107115761010080835404028352916020019161073a565b820191905f5260205f20905b81548152906001019060200180831161071d57829003601f168201915b5050505050925081805461074d90610d39565b80601f016020809104026020016040519081016040528092919081815260200182805461077990610d39565b80156107c45780601f1061079b576101008083540402835291602001916107c4565b820191905f5260205f20905b8154815290600101906020018083116107a757829003601f168201915b5050505050915095509550955095509550955091939550919395565b6040518060c00160405280606081526020015f81526020015f815260200160608152602001606081526020015f151581525090565b5f604051905090565b5f80fd5b5f80fd5b5f819050919050565b61083881610826565b8114610842575f80fd5b50565b5f813590506108538161082f565b92915050565b5f80fd5b5f80fd5b5f601f19601f8301169050919050565b7f4e487b71000000000000000000000000000000000000000000000000000000005f52604160045260245ffd5b6108a782610861565b810181811067ffffffffffffffff821117156108c6576108c5610871565b5b80604052505050565b5f6108d8610815565b90506108e4828261089e565b919050565b5f67ffffffffffffffff82111561090357610902610871565b5b61090c82610861565b9050602081019050919050565b828183375f83830152505050565b5f610939610934846108e9565b6108cf565b9050828152602081018484840111156109555761095461085d565b5b610960848285610919565b509392505050565b5f82601f83011261097c5761097b610859565b5b813561098c848260208601610927565b91505092915050565b5f8115159050919050565b6109a981610995565b81146109b3575f80fd5b50565b5f813590506109c4816109a0565b92915050565b5f805f805f805f60e0888a0312156109e5576109e461081e565b5b5f6109f28a828b01610845565b975050602088013567ffffffffffffffff811115610a1357610a12610822565b5b610a1f8a828b01610968565b9650506040610a308a828b01610845565b9550506060610a418a828b01610845565b945050608088013567ffffffffffffffff811115610a6257610a61610822565b5b610a6e8a828b01610968565b93505060a088013567ffffffffffffffff811115610a8f57610a8e610822565b5b610a9b8a828b01610968565b92505060c0610aac8a828b016109b6565b91505092959891949750929550565b5f60208284031215610ad057610acf61081e565b5b5f610add84828501610845565b91505092915050565b5f81519050919050565b5f82825260208201905092915050565b5f5b83811015610b1d578082015181840152602081019050610b02565b5f8484015250505050565b5f610b3282610ae6565b610b3c8185610af0565b9350610b4c818560208601610b00565b610b5581610861565b840191505092915050565b610b6981610826565b82525050565b610b7881610995565b82525050565b5f60c083015f8301518482035f860152610b988282610b28565b9150506020830151610bad6020860182610b60565b506040830151610bc06040860182610b60565b5060608301518482036060860152610bd88282610b28565b91505060808301518482036080860152610bf28282610b28565b91505060a0830151610c0760a0860182610b6f565b508091505092915050565b5f6020820190508181035f830152610c2a8184610b7e565b905092915050565b5f82825260208201905092915050565b5f610c4c82610ae6565b610c568185610c32565b9350610c66818560208601610b00565b610c6f81610861565b840191505092915050565b610c8381610826565b82525050565b610c9281610995565b82525050565b5f60c0820190508181035f830152610cb08189610c42565b9050610cbf6020830188610c7a565b610ccc6040830187610c7a565b8181036060830152610cde8186610c42565b90508181036080830152610cf28185610c42565b9050610d0160a0830184610c89565b979650505050505050565b7f4e487b71000000000000000000000000000000000000000000000000000000005f52602260045260245ffd5b5f6002820490506001821680610d5057607f821691505b602082108103610d6357610d62610d0c565b5b50919050565b5f819050815f5260205f209050919050565b5f6020601f8301049050919050565b5f82821b905092915050565b5f60088302610dc57fffffffffffffffffffffffffffffffffffffffffffffffffffffffffffffffff82610d8a565b610dcf8683610d8a565b95508019841693508086168417925050509392505050565b5f819050919050565b5f610e0a610e05610e0084610826565b610de7565b610826565b9050919050565b5f819050919050565b610e2383610df0565b610e37610e2f82610e11565b848454610d96565b825550505050565b5f90565b610e4b610e3f565b610e56818484610e1a565b505050565b5b81811015610e7957610e6e5f82610e43565b600181019050610e5c565b5050565b601f821115610ebe57610e8f81610d69565b610e9884610d7b565b81016020851015610ea7578190505b610ebb610eb385610d7b565b830182610e5b565b50505b505050565b5f82821c905092915050565b5f610ede5f1984600802610ec3565b1980831691505092915050565b5f610ef68383610ecf565b9150826002028217905092915050565b610f0f82610ae6565b67ffffffffffffffff811115610f2857610f27610871565b5b610f328254610d39565b610f3d828285610e7d565b5f60209050601f831160018114610f6e575f8415610f5c578287015190505b610f668582610eeb565b865550610fcd565b601f198416610f7c86610d69565b5f5b82811015610fa357848901518255600182019150602085019450602081019050610f7e565b86831015610fc05784890151610fbc601f891682610ecf565b8355505b6001600288020188555050505b50505050505056fea2646970667358221220599c876b5ccc5afec0d9630d11f77a47b313b917530e70388f3c0d77c161b2e464736f6c63430008140033",
			"opcodes": "PUSH1 0x80 PUSH1 0x40 MSTORE CALLVALUE DUP1 ISZERO PUSH2 0xF JUMPI PUSH0 DUP1 REVERT JUMPDEST POP PUSH2 0x100B DUP1 PUSH2 0x1D PUSH0 CODECOPY PUSH0 RETURN INVALID PUSH1 0x80 PUSH1 0x40 MSTORE CALLVALUE DUP1 ISZERO PUSH2 0xF JUMPI PUSH0 DUP1 REVERT JUMPDEST POP PUSH1 0x4 CALLDATASIZE LT PUSH2 0x4A JUMPI PUSH0 CALLDATALOAD PUSH1 0xE0 SHR DUP1 PUSH4 0x2A72500A EQ PUSH2 0x4E JUMPI DUP1 PUSH4 0xA82DAB0B EQ PUSH2 0x6A JUMPI DUP1 PUSH4 0xDE02C544 EQ PUSH2 0x9A JUMPI DUP1 PUSH4 0xED09E22C EQ PUSH2 0xCF JUMPI JUMPDEST PUSH0 DUP1 REVERT JUMPDEST PUSH2 0x68 PUSH1 0x4 DUP1 CALLDATASIZE SUB DUP2 ADD SWAP1 PUSH2 0x63 SWAP2 SWAP1 PUSH2 0x9CA JUMP JUMPDEST PUSH2 0x104 JUMP JUMPDEST STOP JUMPDEST PUSH2 0x84 PUSH1 0x4 DUP1 CALLDATASIZE SUB DUP2 ADD SWAP1 PUSH2 0x7F SWAP2 SWAP1 PUSH2 0xABB JUMP JUMPDEST PUSH2 0x1C9 JUMP JUMPDEST PUSH1 0x40 MLOAD PUSH2 0x91 SWAP2 SWAP1 PUSH2 0xC12 JUMP JUMPDEST PUSH1 0x40 MLOAD DUP1 SWAP2 SUB SWAP1 RETURN JUMPDEST PUSH2 0xB4 PUSH1 0x4 DUP1 CALLDATASIZE SUB DUP2 ADD SWAP1 PUSH2 0xAF SWAP2 SWAP1 PUSH2 0xABB JUMP JUMPDEST PUSH2 0x3D0 JUMP JUMPDEST PUSH1 0x40 MLOAD PUSH2 0xC6 SWAP7 SWAP6 SWAP5 SWAP4 SWAP3 SWAP2 SWAP1 PUSH2 0xC98 JUMP JUMPDEST PUSH1 0x40 MLOAD DUP1 SWAP2 SUB SWAP1 RETURN JUMPDEST PUSH2 0xE9 PUSH1 0x4 DUP1 CALLDATASIZE SUB DUP2 ADD SWAP1 PUSH2 0xE4 SWAP2 SWAP1 PUSH2 0xABB JUMP JUMPDEST PUSH2 0x5A5 JUMP JUMPDEST PUSH1 0x40 MLOAD PUSH2 0xFB SWAP7 SWAP6 SWAP5 SWAP4 SWAP3 SWAP2 SWAP1 PUSH2 0xC98 JUMP JUMPDEST PUSH1 0x40 MLOAD DUP1 SWAP2 SUB SWAP1 RETURN JUMPDEST DUP6 PUSH0 DUP1 DUP10 DUP2 MSTORE PUSH1 0x20 ADD SWAP1 DUP2 MSTORE PUSH1 0x20 ADD PUSH0 KECCAK256 PUSH0 ADD SWAP1 DUP2 PUSH2 0x123 SWAP2 SWAP1 PUSH2 0xF06 JUMP JUMPDEST POP DUP5 PUSH0 DUP1 DUP10 DUP2 MSTORE PUSH1 0x20 ADD SWAP1 DUP2 MSTORE PUSH1 0x20 ADD PUSH0 KECCAK256 PUSH1 0x1 ADD DUP2 SWAP1 SSTORE POP DUP4 PUSH0 DUP1 DUP10 DUP2 MSTORE PUSH1 0x20 ADD SWAP1 DUP2 MSTORE PUSH1 0x20 ADD PUSH0 KECCAK256 PUSH1 0x2 ADD DUP2 SWAP1 SSTORE POP DUP3 PUSH0 DUP1 DUP10 DUP2 MSTORE PUSH1 0x20 ADD SWAP1 DUP2 MSTORE PUSH1 0x20 ADD PUSH0 KECCAK256 PUSH1 0x3 ADD SWAP1 DUP2 PUSH2 0x174 SWAP2 SWAP1 PUSH2 0xF06 JUMP JUMPDEST POP DUP2 PUSH0 DUP1 DUP10 DUP2 MSTORE PUSH1 0x20 ADD SWAP1 DUP2 MSTORE PUSH1 0x20 ADD PUSH0 KECCAK256 PUSH1 0x4 ADD SWAP1 DUP2 PUSH2 0x195 SWAP2 SWAP1 PUSH2 0xF06 JUMP JUMPDEST POP DUP1 PUSH0 DUP1 DUP10 DUP2 MSTORE PUSH1 0x20 ADD SWAP1 DUP2 MSTORE PUSH1 0x20 ADD PUSH0 KECCAK256 PUSH1 0x5 ADD PUSH0 PUSH2 0x100 EXP DUP2 SLOAD DUP2 PUSH1 0xFF MUL NOT AND SWAP1 DUP4 ISZERO ISZERO MUL OR SWAP1 SSTORE POP POP POP POP POP POP POP POP JUMP JUMPDEST PUSH2 0x1D1 PUSH2 0x7E0 JUMP JUMPDEST PUSH0 DUP1 DUP4 DUP2 MSTORE PUSH1 0x20 ADD SWAP1 DUP2 MSTORE PUSH1 0x20 ADD PUSH0 KECCAK256 PUSH1 0x40 MLOAD DUP1 PUSH1 0xC0 ADD PUSH1 0x40 MSTORE SWAP1 DUP2 PUSH0 DUP3 ADD DUP1 SLOAD PUSH2 0x1FB SWAP1 PUSH2 0xD39 JUMP JUMPDEST DUP1 PUSH1 0x1F ADD PUSH1 0x20 DUP1 SWAP2 DIV MUL PUSH1 0x20 ADD PUSH1 0x40 MLOAD SWAP1 DUP2 ADD PUSH1 0x40 MSTORE DUP1 SWAP3 SWAP2 SWAP1 DUP2 DUP2 MSTORE PUSH1 0x20 ADD DUP3 DUP1 SLOAD PUSH2 0x227 SWAP1 PUSH2 0xD39 JUMP JUMPDEST DUP1 ISZERO PUSH2 0x272 JUMPI DUP1 PUSH1 0x1F LT PUSH2 0x249 JUMPI PUSH2 0x100 DUP1 DUP4 SLOAD DIV MUL DUP4 MSTORE SWAP2 PUSH1 0x20 ADD SWAP2 PUSH2 0x272 JUMP JUMPDEST DUP3 ADD SWAP2 SWAP1 PUSH0 MSTORE PUSH1 0x20 PUSH0 KECCAK256 SWAP1 JUMPDEST DUP2 SLOAD DUP2 MSTORE SWAP1 PUSH1 0x1 ADD SWAP1 PUSH1 0x20 ADD DUP1 DUP4 GT PUSH2 0x255 JUMPI DUP3 SWAP1 SUB PUSH1 0x1F AND DUP3 ADD SWAP2 JUMPDEST POP POP POP POP POP DUP2 MSTORE PUSH1 0x20 ADD PUSH1 0x1 DUP3 ADD SLOAD DUP2 MSTORE PUSH1 0x20 ADD PUSH1 0x2 DUP3 ADD SLOAD DUP2 MSTORE PUSH1 0x20 ADD PUSH1 0x3 DUP3 ADD DUP1 SLOAD PUSH2 0x29F SWAP1 PUSH2 0xD39 JUMP JUMPDEST DUP1 PUSH1 0x1F ADD PUSH1 0x20 DUP1 SWAP2 DIV MUL PUSH1 0x20 ADD PUSH1 0x40 MLOAD SWAP1 DUP2 ADD PUSH1 0x40 MSTORE DUP1 SWAP3 SWAP2 SWAP1 DUP2 DUP2 MSTORE PUSH1 0x20 ADD DUP3 DUP1 SLOAD PUSH2 0x2CB SWAP1 PUSH2 0xD39 JUMP JUMPDEST DUP1 ISZERO PUSH2 0x316 JUMPI DUP1 PUSH1 0x1F LT PUSH2 0x2ED JUMPI PUSH2 0x100 DUP1 DUP4 SLOAD DIV MUL DUP4 MSTORE SWAP2 PUSH1 0x20 ADD SWAP2 PUSH2 0x316 JUMP JUMPDEST DUP3 ADD SWAP2 SWAP1 PUSH0 MSTORE PUSH1 0x20 PUSH0 KECCAK256 SWAP1 JUMPDEST DUP2 SLOAD DUP2 MSTORE SWAP1 PUSH1 0x1 ADD SWAP1 PUSH1 0x20 ADD DUP1 DUP4 GT PUSH2 0x2F9 JUMPI DUP3 SWAP1 SUB PUSH1 0x1F AND DUP3 ADD SWAP2 JUMPDEST POP POP POP POP POP DUP2 MSTORE PUSH1 0x20 ADD PUSH1 0x4 DUP3 ADD DUP1 SLOAD PUSH2 0x32F SWAP1 PUSH2 0xD39 JUMP JUMPDEST DUP1 PUSH1 0x1F ADD PUSH1 0x20 DUP1 SWAP2 DIV MUL PUSH1 0x20 ADD PUSH1 0x40 MLOAD SWAP1 DUP2 ADD PUSH1 0x40 MSTORE DUP1 SWAP3 SWAP2 SWAP1 DUP2 DUP2 MSTORE PUSH1 0x20 ADD DUP3 DUP1 SLOAD PUSH2 0x35B SWAP1 PUSH2 0xD39 JUMP JUMPDEST DUP1 ISZERO PUSH2 0x3A6 JUMPI DUP1 PUSH1 0x1F LT PUSH2 0x37D JUMPI PUSH2 0x100 DUP1 DUP4 SLOAD DIV MUL DUP4 MSTORE SWAP2 PUSH1 0x20 ADD SWAP2 PUSH2 0x3A6 JUMP JUMPDEST DUP3 ADD SWAP2 SWAP1 PUSH0 MSTORE PUSH1 0x20 PUSH0 KECCAK256 SWAP1 JUMPDEST DUP2 SLOAD DUP2 MSTORE SWAP1 PUSH1 0x1 ADD SWAP1 PUSH1 0x20 ADD DUP1 DUP4 GT PUSH2 0x389 JUMPI DUP3 SWAP1 SUB PUSH1 0x1F AND DUP3 ADD SWAP2 JUMPDEST POP POP POP POP POP DUP2 MSTORE PUSH1 0x20 ADD PUSH1 0x5 DUP3 ADD PUSH0 SWAP1 SLOAD SWAP1 PUSH2 0x100 EXP SWAP1 DIV PUSH1 0xFF AND ISZERO ISZERO ISZERO ISZERO DUP2 MSTORE POP POP SWAP1 POP SWAP2 SWAP1 POP JUMP JUMPDEST PUSH0 PUSH1 0x20 MSTORE DUP1 PUSH0 MSTORE PUSH1 0x40 PUSH0 KECCAK256 PUSH0 SWAP2 POP SWAP1 POP DUP1 PUSH0 ADD DUP1 SLOAD PUSH2 0x3EE SWAP1 PUSH2 0xD39 JUMP JUMPDEST DUP1 PUSH1 0x1F ADD PUSH1 0x20 DUP1 SWAP2 DIV MUL PUSH1 0x20 ADD PUSH1 0x40 MLOAD SWAP1 DUP2 ADD PUSH1 0x40 MSTORE DUP1 SWAP3 SWAP2 SWAP1 DUP2 DUP2 MSTORE PUSH1 0x20 ADD DUP3 DUP1 SLOAD PUSH2 0x41A SWAP1 PUSH2 0xD39 JUMP JUMPDEST DUP1 ISZERO PUSH2 0x465 JUMPI DUP1 PUSH1 0x1F LT PUSH2 0x43C JUMPI PUSH2 0x100 DUP1 DUP4 SLOAD DIV MUL DUP4 MSTORE SWAP2 PUSH1 0x20 ADD SWAP2 PUSH2 0x465 JUMP JUMPDEST DUP3 ADD SWAP2 SWAP1 PUSH0 MSTORE PUSH1 0x20 PUSH0 KECCAK256 SWAP1 JUMPDEST DUP2 SLOAD DUP2 MSTORE SWAP1 PUSH1 0x1 ADD SWAP1 PUSH1 0x20 ADD DUP1 DUP4 GT PUSH2 0x448 JUMPI DUP3 SWAP1 SUB PUSH1 0x1F AND DUP3 ADD SWAP2 JUMPDEST POP POP POP POP POP SWAP1 DUP1 PUSH1 0x1 ADD SLOAD SWAP1 DUP1 PUSH1 0x2 ADD SLOAD SWAP1 DUP1 PUSH1 0x3 ADD DUP1 SLOAD PUSH2 0x486 SWAP1 PUSH2 0xD39 JUMP JUMPDEST DUP1 PUSH1 0x1F ADD PUSH1 0x20 DUP1 SWAP2 DIV MUL PUSH1 0x20 ADD PUSH1 0x40 MLOAD SWAP1 DUP2 ADD PUSH1 0x40 MSTORE DUP1 SWAP3 SWAP2 SWAP1 DUP2 DUP2 MSTORE PUSH1 0x20 ADD DUP3 DUP1 SLOAD PUSH2 0x4B2 SWAP1 PUSH2 0xD39 JUMP JUMPDEST DUP1 ISZERO PUSH2 0x4FD JUMPI DUP1 PUSH1 0x1F LT PUSH2 0x4D4 JUMPI PUSH2 0x100 DUP1 DUP4 SLOAD DIV MUL DUP4 MSTORE SWAP2 PUSH1 0x20 ADD SWAP2 PUSH2 0x4FD JUMP JUMPDEST DUP3 ADD SWAP2 SWAP1 PUSH0 MSTORE PUSH1 0x20 PUSH0 KECCAK256 SWAP1 JUMPDEST DUP2 SLOAD DUP2 MSTORE SWAP1 PUSH1 0x1 ADD SWAP1 PUSH1 0x20 ADD DUP1 DUP4 GT PUSH2 0x4E0 JUMPI DUP3 SWAP1 SUB PUSH1 0x1F AND DUP3 ADD SWAP2 JUMPDEST POP POP POP POP POP SWAP1 DUP1 PUSH1 0x4 ADD DUP1 SLOAD PUSH2 0x512 SWAP1 PUSH2 0xD39 JUMP JUMPDEST DUP1 PUSH1 0x1F ADD PUSH1 0x20 DUP1 SWAP2 DIV MUL PUSH1 0x20 ADD PUSH1 0x40 MLOAD SWAP1 DUP2 ADD PUSH1 0x40 MSTORE DUP1 SWAP3 SWAP2 SWAP1 DUP2 DUP2 MSTORE PUSH1 0x20 ADD DUP3 DUP1 SLOAD PUSH2 0x53E SWAP1 PUSH2 0xD39 JUMP JUMPDEST DUP1 ISZERO PUSH2 0x589 JUMPI DUP1 PUSH1 0x1F LT PUSH2 0x560 JUMPI PUSH2 0x100 DUP1 DUP4 SLOAD DIV MUL DUP4 MSTORE SWAP2 PUSH1 0x20 ADD SWAP2 PUSH2 0x589 JUMP JUMPDEST DUP3 ADD SWAP2 SWAP1 PUSH0 MSTORE PUSH1 0x20 PUSH0 KECCAK256 SWAP1 JUMPDEST DUP2 SLOAD DUP2 MSTORE SWAP1 PUSH1 0x1 ADD SWAP1 PUSH1 0x20 ADD DUP1 DUP4 GT PUSH2 0x56C JUMPI DUP3 SWAP1 SUB PUSH1 0x1F AND DUP3 ADD SWAP2 JUMPDEST POP POP POP POP POP SWAP1 DUP1 PUSH1 0x5 ADD PUSH0 SWAP1 SLOAD SWAP1 PUSH2 0x100 EXP SWAP1 DIV PUSH1 0xFF AND SWAP1 POP DUP7 JUMP JUMPDEST PUSH1 0x60 PUSH0 DUP1 PUSH1 0x60 DUP1 PUSH0 DUP1 PUSH0 DUP9 DUP2 MSTORE PUSH1 0x20 ADD SWAP1 DUP2 MSTORE PUSH1 0x20 ADD PUSH0 KECCAK256 PUSH0 ADD PUSH0 DUP1 DUP10 DUP2 MSTORE PUSH1 0x20 ADD SWAP1 DUP2 MSTORE PUSH1 0x20 ADD PUSH0 KECCAK256 PUSH1 0x1 ADD SLOAD PUSH0 DUP1 DUP11 DUP2 MSTORE PUSH1 0x20 ADD SWAP1 DUP2 MSTORE PUSH1 0x20 ADD PUSH0 KECCAK256 PUSH1 0x2 ADD SLOAD PUSH0 DUP1 DUP12 DUP2 MSTORE PUSH1 0x20 ADD SWAP1 DUP2 MSTORE PUSH1 0x20 ADD PUSH0 KECCAK256 PUSH1 0x3 ADD PUSH0 DUP1 DUP13 DUP2 MSTORE PUSH1 0x20 ADD SWAP1 DUP2 MSTORE PUSH1 0x20 ADD PUSH0 KECCAK256 PUSH1 0x4 ADD PUSH0 DUP1 DUP14 DUP2 MSTORE PUSH1 0x20 ADD SWAP1 DUP2 MSTORE PUSH1 0x20 ADD PUSH0 KECCAK256 PUSH1 0x5 ADD PUSH0 SWAP1 SLOAD SWAP1 PUSH2 0x100 EXP SWAP1 DIV PUSH1 0xFF AND DUP6 DUP1 SLOAD PUSH2 0x639 SWAP1 PUSH2 0xD39 JUMP JUMPDEST DUP1 PUSH1 0x1F ADD PUSH1 0x20 DUP1 SWAP2 DIV MUL PUSH1 0x20 ADD PUSH1 0x40 MLOAD SWAP1 DUP2 ADD PUSH1 0x40 MSTORE DUP1 SWAP3 SWAP2 SWAP1 DUP2 DUP2 MSTORE PUSH1 0x20 ADD DUP3 DUP1 SLOAD PUSH2 0x665 SWAP1 PUSH2 0xD39 JUMP JUMPDEST DUP1 ISZERO PUSH2 0x6B0 JUMPI DUP1 PUSH1 0x1F LT PUSH2 0x687 JUMPI PUSH2 0x100 DUP1 DUP4 SLOAD DIV MUL DUP4 MSTORE SWAP2 PUSH1 0x20 ADD SWAP2 PUSH2 0x6B0 JUMP JUMPDEST DUP3 ADD SWAP2 SWAP1 PUSH0 MSTORE PUSH1 0x20 PUSH0 KECCAK256 SWAP1 JUMPDEST DUP2 SLOAD DUP2 MSTORE SWAP1 PUSH1 0x1 ADD SWAP1 PUSH1 0x20 ADD DUP1 DUP4 GT PUSH2 0x693 JUMPI DUP3 SWAP1 SUB PUSH1 0x1F AND DUP3 ADD SWAP2 JUMPDEST POP POP POP POP POP SWAP6 POP DUP3 DUP1 SLOAD PUSH2 0x6C3 SWAP1 PUSH2 0xD39 JUMP JUMPDEST DUP1 PUSH1 0x1F ADD PUSH1 0x20 DUP1 SWAP2 DIV MUL PUSH1 0x20 ADD PUSH1 0x40 MLOAD SWAP1 DUP2 ADD PUSH1 0x40 MSTORE DUP1 SWAP3 SWAP2 SWAP1 DUP2 DUP2 MSTORE PUSH1 0x20 ADD DUP3 DUP1 SLOAD PUSH2 0x6EF SWAP1 PUSH2 0xD39 JUMP JUMPDEST DUP1 ISZERO PUSH2 0x73A JUMPI DUP1 PUSH1 0x1F LT PUSH2 0x711 JUMPI PUSH2 0x100 DUP1 DUP4 SLOAD DIV MUL DUP4 MSTORE SWAP2 PUSH1 0x20 ADD SWAP2 PUSH2 0x73A JUMP JUMPDEST DUP3 ADD SWAP2 SWAP1 PUSH0 MSTORE PUSH1 0x20 PUSH0 KECCAK256 SWAP1 JUMPDEST DUP2 SLOAD DUP2 MSTORE SWAP1 PUSH1 0x1 ADD SWAP1 PUSH1 0x20 ADD DUP1 DUP4 GT PUSH2 0x71D JUMPI DUP3 SWAP1 SUB PUSH1 0x1F AND DUP3 ADD SWAP2 JUMPDEST POP POP POP POP POP SWAP3 POP DUP2 DUP1 SLOAD PUSH2 0x74D SWAP1 PUSH2 0xD39 JUMP JUMPDEST DUP1 PUSH1 0x1F ADD PUSH1 0x20 DUP1 SWAP2 DIV MUL PUSH1 0x20 ADD PUSH1 0x40 MLOAD SWAP1 DUP2 ADD PUSH1 0x40 MSTORE DUP1 SWAP3 SWAP2 SWAP1 DUP2 DUP2 MSTORE PUSH1 0x20 ADD DUP3 DUP1 SLOAD PUSH2 0x779 SWAP1 PUSH2 0xD39 JUMP JUMPDEST DUP1 ISZERO PUSH2 0x7C4 JUMPI DUP1 PUSH1 0x1F LT PUSH2 0x79B JUMPI PUSH2 0x100 DUP1 DUP4 SLOAD DIV MUL DUP4 MSTORE SWAP2 PUSH1 0x20 ADD SWAP2 PUSH2 0x7C4 JUMP JUMPDEST DUP3 ADD SWAP2 SWAP1 PUSH0 MSTORE PUSH1 0x20 PUSH0 KECCAK256 SWAP1 JUMPDEST DUP2 SLOAD DUP2 MSTORE SWAP1 PUSH1 0x1 ADD SWAP1 PUSH1 0x20 ADD DUP1 DUP4 GT PUSH2 0x7A7 JUMPI DUP3 SWAP1 SUB PUSH1 0x1F AND DUP3 ADD SWAP2 JUMPDEST POP POP POP POP POP SWAP2 POP SWAP6 POP SWAP6 POP SWAP6 POP SWAP6 POP SWAP6 POP SWAP6 POP SWAP2 SWAP4 SWAP6 POP SWAP2 SWAP4 SWAP6 JUMP JUMPDEST PUSH1 0x40 MLOAD DUP1 PUSH1 0xC0 ADD PUSH1 0x40 MSTORE DUP1 PUSH1 0x60 DUP2 MSTORE PUSH1 0x20 ADD PUSH0 DUP2 MSTORE PUSH1 0x20 ADD PUSH0 DUP2 MSTORE PUSH1 0x20 ADD PUSH1 0x60 DUP2 MSTORE PUSH1 0x20 ADD PUSH1 0x60 DUP2 MSTORE PUSH1 0x20 ADD PUSH0 ISZERO ISZERO DUP2 MSTORE POP SWAP1 JUMP JUMPDEST PUSH0 PUSH1 0x40 MLOAD SWAP1 POP SWAP1 JUMP JUMPDEST PUSH0 DUP1 REVERT JUMPDEST PUSH0 DUP1 REVERT JUMPDEST PUSH0 DUP2 SWAP1 POP SWAP2 SWAP1 POP JUMP JUMPDEST PUSH2 0x838 DUP2 PUSH2 0x826 JUMP JUMPDEST DUP2 EQ PUSH2 0x842 JUMPI PUSH0 DUP1 REVERT JUMPDEST POP JUMP JUMPDEST PUSH0 DUP2 CALLDATALOAD SWAP1 POP PUSH2 0x853 DUP2 PUSH2 0x82F JUMP JUMPDEST SWAP3 SWAP2 POP POP JUMP JUMPDEST PUSH0 DUP1 REVERT JUMPDEST PUSH0 DUP1 REVERT JUMPDEST PUSH0 PUSH1 0x1F NOT PUSH1 0x1F DUP4 ADD AND SWAP1 POP SWAP2 SWAP1 POP JUMP JUMPDEST PUSH32 0x4E487B7100000000000000000000000000000000000000000000000000000000 PUSH0 MSTORE PUSH1 0x41 PUSH1 0x4 MSTORE PUSH1 0x24 PUSH0 REVERT JUMPDEST PUSH2 0x8A7 DUP3 PUSH2 0x861 JUMP JUMPDEST DUP2 ADD DUP2 DUP2 LT PUSH8 0xFFFFFFFFFFFFFFFF DUP3 GT OR ISZERO PUSH2 0x8C6 JUMPI PUSH2 0x8C5 PUSH2 0x871 JUMP JUMPDEST JUMPDEST DUP1 PUSH1 0x40 MSTORE POP POP POP JUMP JUMPDEST PUSH0 PUSH2 0x8D8 PUSH2 0x815 JUMP JUMPDEST SWAP1 POP PUSH2 0x8E4 DUP3 DUP3 PUSH2 0x89E JUMP JUMPDEST SWAP2 SWAP1 POP JUMP JUMPDEST PUSH0 PUSH8 0xFFFFFFFFFFFFFFFF DUP3 GT ISZERO PUSH2 0x903 JUMPI PUSH2 0x902 PUSH2 0x871 JUMP JUMPDEST JUMPDEST PUSH2 0x90C DUP3 PUSH2 0x861 JUMP JUMPDEST SWAP1 POP PUSH1 0x20 DUP2 ADD SWAP1 POP SWAP2 SWAP1 POP JUMP JUMPDEST DUP3 DUP2 DUP4 CALLDATACOPY PUSH0 DUP4 DUP4 ADD MSTORE POP POP POP JUMP JUMPDEST PUSH0 PUSH2 0x939 PUSH2 0x934 DUP5 PUSH2 0x8E9 JUMP JUMPDEST PUSH2 0x8CF JUMP JUMPDEST SWAP1 POP DUP3 DUP2 MSTORE PUSH1 0x20 DUP2 ADD DUP5 DUP5 DUP5 ADD GT ISZERO PUSH2 0x955 JUMPI PUSH2 0x954 PUSH2 0x85D JUMP JUMPDEST JUMPDEST PUSH2 0x960 DUP5 DUP3 DUP6 PUSH2 0x919 JUMP JUMPDEST POP SWAP4 SWAP3 POP POP POP JUMP JUMPDEST PUSH0 DUP3 PUSH1 0x1F DUP4 ADD SLT PUSH2 0x97C JUMPI PUSH2 0x97B PUSH2 0x859 JUMP JUMPDEST JUMPDEST DUP2 CALLDATALOAD PUSH2 0x98C DUP5 DUP3 PUSH1 0x20 DUP7 ADD PUSH2 0x927 JUMP JUMPDEST SWAP2 POP POP SWAP3 SWAP2 POP POP JUMP JUMPDEST PUSH0 DUP2 ISZERO ISZERO SWAP1 POP SWAP2 SWAP1 POP JUMP JUMPDEST PUSH2 0x9A9 DUP2 PUSH2 0x995 JUMP JUMPDEST DUP2 EQ PUSH2 0x9B3 JUMPI PUSH0 DUP1 REVERT JUMPDEST POP JUMP JUMPDEST PUSH0 DUP2 CALLDATALOAD SWAP1 POP PUSH2 0x9C4 DUP2 PUSH2 0x9A0 JUMP JUMPDEST SWAP3 SWAP2 POP POP JUMP JUMPDEST PUSH0 DUP1 PUSH0 DUP1 PUSH0 DUP1 PUSH0 PUSH1 0xE0 DUP9 DUP11 SUB SLT ISZERO PUSH2 0x9E5 JUMPI PUSH2 0x9E4 PUSH2 0x81E JUMP JUMPDEST JUMPDEST PUSH0 PUSH2 0x9F2 DUP11 DUP3 DUP12 ADD PUSH2 0x845 JUMP JUMPDEST SWAP8 POP POP PUSH1 0x20 DUP9 ADD CALLDATALOAD PUSH8 0xFFFFFFFFFFFFFFFF DUP2 GT ISZERO PUSH2 0xA13 JUMPI PUSH2 0xA12 PUSH2 0x822 JUMP JUMPDEST JUMPDEST PUSH2 0xA1F DUP11 DUP3 DUP12 ADD PUSH2 0x968 JUMP JUMPDEST SWAP7 POP POP PUSH1 0x40 PUSH2 0xA30 DUP11 DUP3 DUP12 ADD PUSH2 0x845 JUMP JUMPDEST SWAP6 POP POP PUSH1 0x60 PUSH2 0xA41 DUP11 DUP3 DUP12 ADD PUSH2 0x845 JUMP JUMPDEST SWAP5 POP POP PUSH1 0x80 DUP9 ADD CALLDATALOAD PUSH8 0xFFFFFFFFFFFFFFFF DUP2 GT ISZERO PUSH2 0xA62 JUMPI PUSH2 0xA61 PUSH2 0x822 JUMP JUMPDEST JUMPDEST PUSH2 0xA6E DUP11 DUP3 DUP12 ADD PUSH2 0x968 JUMP JUMPDEST SWAP4 POP POP PUSH1 0xA0 DUP9 ADD CALLDATALOAD PUSH8 0xFFFFFFFFFFFFFFFF DUP2 GT ISZERO PUSH2 0xA8F JUMPI PUSH2 0xA8E PUSH2 0x822 JUMP JUMPDEST JUMPDEST PUSH2 0xA9B DUP11 DUP3 DUP12 ADD PUSH2 0x968 JUMP JUMPDEST SWAP3 POP POP PUSH1 0xC0 PUSH2 0xAAC DUP11 DUP3 DUP12 ADD PUSH2 0x9B6 JUMP JUMPDEST SWAP2 POP POP SWAP3 SWAP6 SWAP9 SWAP2 SWAP5 SWAP8 POP SWAP3 SWAP6 POP JUMP JUMPDEST PUSH0 PUSH1 0x20 DUP3 DUP5 SUB SLT ISZERO PUSH2 0xAD0 JUMPI PUSH2 0xACF PUSH2 0x81E JUMP JUMPDEST JUMPDEST PUSH0 PUSH2 0xADD DUP5 DUP3 DUP6 ADD PUSH2 0x845 JUMP JUMPDEST SWAP2 POP POP SWAP3 SWAP2 POP POP JUMP JUMPDEST PUSH0 DUP2 MLOAD SWAP1 POP SWAP2 SWAP1 POP JUMP JUMPDEST PUSH0 DUP3 DUP3 MSTORE PUSH1 0x20 DUP3 ADD SWAP1 POP SWAP3 SWAP2 POP POP JUMP JUMPDEST PUSH0 JUMPDEST DUP4 DUP2 LT ISZERO PUSH2 0xB1D JUMPI DUP1 DUP3 ADD MLOAD DUP2 DUP5 ADD MSTORE PUSH1 0x20 DUP2 ADD SWAP1 POP PUSH2 0xB02 JUMP JUMPDEST PUSH0 DUP5 DUP5 ADD MSTORE POP POP POP POP JUMP JUMPDEST PUSH0 PUSH2 0xB32 DUP3 PUSH2 0xAE6 JUMP JUMPDEST PUSH2 0xB3C DUP2 DUP6 PUSH2 0xAF0 JUMP JUMPDEST SWAP4 POP PUSH2 0xB4C DUP2 DUP6 PUSH1 0x20 DUP7 ADD PUSH2 0xB00 JUMP JUMPDEST PUSH2 0xB55 DUP2 PUSH2 0x861 JUMP JUMPDEST DUP5 ADD SWAP2 POP POP SWAP3 SWAP2 POP POP JUMP JUMPDEST PUSH2 0xB69 DUP2 PUSH2 0x826 JUMP JUMPDEST DUP3 MSTORE POP POP JUMP JUMPDEST PUSH2 0xB78 DUP2 PUSH2 0x995 JUMP JUMPDEST DUP3 MSTORE POP POP JUMP JUMPDEST PUSH0 PUSH1 0xC0 DUP4 ADD PUSH0 DUP4 ADD MLOAD DUP5 DUP3 SUB PUSH0 DUP7 ADD MSTORE PUSH2 0xB98 DUP3 DUP3 PUSH2 0xB28 JUMP JUMPDEST SWAP2 POP POP PUSH1 0x20 DUP4 ADD MLOAD PUSH2 0xBAD PUSH1 0x20 DUP7 ADD DUP3 PUSH2 0xB60 JUMP JUMPDEST POP PUSH1 0x40 DUP4 ADD MLOAD PUSH2 0xBC0 PUSH1 0x40 DUP7 ADD DUP3 PUSH2 0xB60 JUMP JUMPDEST POP PUSH1 0x60 DUP4 ADD MLOAD DUP5 DUP3 SUB PUSH1 0x60 DUP7 ADD MSTORE PUSH2 0xBD8 DUP3 DUP3 PUSH2 0xB28 JUMP JUMPDEST SWAP2 POP POP PUSH1 0x80 DUP4 ADD MLOAD DUP5 DUP3 SUB PUSH1 0x80 DUP7 ADD MSTORE PUSH2 0xBF2 DUP3 DUP3 PUSH2 0xB28 JUMP JUMPDEST SWAP2 POP POP PUSH1 0xA0 DUP4 ADD MLOAD PUSH2 0xC07 PUSH1 0xA0 DUP7 ADD DUP3 PUSH2 0xB6F JUMP JUMPDEST POP DUP1 SWAP2 POP POP SWAP3 SWAP2 POP POP JUMP JUMPDEST PUSH0 PUSH1 0x20 DUP3 ADD SWAP1 POP DUP2 DUP2 SUB PUSH0 DUP4 ADD MSTORE PUSH2 0xC2A DUP2 DUP5 PUSH2 0xB7E JUMP JUMPDEST SWAP1 POP SWAP3 SWAP2 POP POP JUMP JUMPDEST PUSH0 DUP3 DUP3 MSTORE PUSH1 0x20 DUP3 ADD SWAP1 POP SWAP3 SWAP2 POP POP JUMP JUMPDEST PUSH0 PUSH2 0xC4C DUP3 PUSH2 0xAE6 JUMP JUMPDEST PUSH2 0xC56 DUP2 DUP6 PUSH2 0xC32 JUMP JUMPDEST SWAP4 POP PUSH2 0xC66 DUP2 DUP6 PUSH1 0x20 DUP7 ADD PUSH2 0xB00 JUMP JUMPDEST PUSH2 0xC6F DUP2 PUSH2 0x861 JUMP JUMPDEST DUP5 ADD SWAP2 POP POP SWAP3 SWAP2 POP POP JUMP JUMPDEST PUSH2 0xC83 DUP2 PUSH2 0x826 JUMP JUMPDEST DUP3 MSTORE POP POP JUMP JUMPDEST PUSH2 0xC92 DUP2 PUSH2 0x995 JUMP JUMPDEST DUP3 MSTORE POP POP JUMP JUMPDEST PUSH0 PUSH1 0xC0 DUP3 ADD SWAP1 POP DUP2 DUP2 SUB PUSH0 DUP4 ADD MSTORE PUSH2 0xCB0 DUP2 DUP10 PUSH2 0xC42 JUMP JUMPDEST SWAP1 POP PUSH2 0xCBF PUSH1 0x20 DUP4 ADD DUP9 PUSH2 0xC7A JUMP JUMPDEST PUSH2 0xCCC PUSH1 0x40 DUP4 ADD DUP8 PUSH2 0xC7A JUMP JUMPDEST DUP2 DUP2 SUB PUSH1 0x60 DUP4 ADD MSTORE PUSH2 0xCDE DUP2 DUP7 PUSH2 0xC42 JUMP JUMPDEST SWAP1 POP DUP2 DUP2 SUB PUSH1 0x80 DUP4 ADD MSTORE PUSH2 0xCF2 DUP2 DUP6 PUSH2 0xC42 JUMP JUMPDEST SWAP1 POP PUSH2 0xD01 PUSH1 0xA0 DUP4 ADD DUP5 PUSH2 0xC89 JUMP JUMPDEST SWAP8 SWAP7 POP POP POP POP POP POP POP JUMP JUMPDEST PUSH32 0x4E487B7100000000000000000000000000000000000000000000000000000000 PUSH0 MSTORE PUSH1 0x22 PUSH1 0x4 MSTORE PUSH1 0x24 PUSH0 REVERT JUMPDEST PUSH0 PUSH1 0x2 DUP3 DIV SWAP1 POP PUSH1 0x1 DUP3 AND DUP1 PUSH2 0xD50 JUMPI PUSH1 0x7F DUP3 AND SWAP2 POP JUMPDEST PUSH1 0x20 DUP3 LT DUP2 SUB PUSH2 0xD63 JUMPI PUSH2 0xD62 PUSH2 0xD0C JUMP JUMPDEST JUMPDEST POP SWAP2 SWAP1 POP JUMP JUMPDEST PUSH0 DUP2 SWAP1 POP DUP2 PUSH0 MSTORE PUSH1 0x20 PUSH0 KECCAK256 SWAP1 POP SWAP2 SWAP1 POP JUMP JUMPDEST PUSH0 PUSH1 0x20 PUSH1 0x1F DUP4 ADD DIV SWAP1 POP SWAP2 SWAP1 POP JUMP JUMPDEST PUSH0 DUP3 DUP3 SHL SWAP1 POP SWAP3 SWAP2 POP POP JUMP JUMPDEST PUSH0 PUSH1 0x8 DUP4 MUL PUSH2 0xDC5 PUSH32 0xFFFFFFFFFFFFFFFFFFFFFFFFFFFFFFFFFFFFFFFFFFFFFFFFFFFFFFFFFFFFFFFF DUP3 PUSH2 0xD8A JUMP JUMPDEST PUSH2 0xDCF DUP7 DUP4 PUSH2 0xD8A JUMP JUMPDEST SWAP6 POP DUP1 NOT DUP5 AND SWAP4 POP DUP1 DUP7 AND DUP5 OR SWAP3 POP POP POP SWAP4 SWAP3 POP POP POP JUMP JUMPDEST PUSH0 DUP2 SWAP1 POP SWAP2 SWAP1 POP JUMP JUMPDEST PUSH0 PUSH2 0xE0A PUSH2 0xE05 PUSH2 0xE00 DUP5 PUSH2 0x826 JUMP JUMPDEST PUSH2 0xDE7 JUMP JUMPDEST PUSH2 0x826 JUMP JUMPDEST SWAP1 POP SWAP2 SWAP1 POP JUMP JUMPDEST PUSH0 DUP2 SWAP1 POP SWAP2 SWAP1 POP JUMP JUMPDEST PUSH2 0xE23 DUP4 PUSH2 0xDF0 JUMP JUMPDEST PUSH2 0xE37 PUSH2 0xE2F DUP3 PUSH2 0xE11 JUMP JUMPDEST DUP5 DUP5 SLOAD PUSH2 0xD96 JUMP JUMPDEST DUP3 SSTORE POP POP POP POP JUMP JUMPDEST PUSH0 SWAP1 JUMP JUMPDEST PUSH2 0xE4B PUSH2 0xE3F JUMP JUMPDEST PUSH2 0xE56 DUP2 DUP5 DUP5 PUSH2 0xE1A JUMP JUMPDEST POP POP POP JUMP JUMPDEST JUMPDEST DUP2 DUP2 LT ISZERO PUSH2 0xE79 JUMPI PUSH2 0xE6E PUSH0 DUP3 PUSH2 0xE43 JUMP JUMPDEST PUSH1 0x1 DUP2 ADD SWAP1 POP PUSH2 0xE5C JUMP JUMPDEST POP POP JUMP JUMPDEST PUSH1 0x1F DUP3 GT ISZERO PUSH2 0xEBE JUMPI PUSH2 0xE8F DUP2 PUSH2 0xD69 JUMP JUMPDEST PUSH2 0xE98 DUP5 PUSH2 0xD7B JUMP JUMPDEST DUP2 ADD PUSH1 0x20 DUP6 LT ISZERO PUSH2 0xEA7 JUMPI DUP2 SWAP1 POP JUMPDEST PUSH2 0xEBB PUSH2 0xEB3 DUP6 PUSH2 0xD7B JUMP JUMPDEST DUP4 ADD DUP3 PUSH2 0xE5B JUMP JUMPDEST POP POP JUMPDEST POP POP POP JUMP JUMPDEST PUSH0 DUP3 DUP3 SHR SWAP1 POP SWAP3 SWAP2 POP POP JUMP JUMPDEST PUSH0 PUSH2 0xEDE PUSH0 NOT DUP5 PUSH1 0x8 MUL PUSH2 0xEC3 JUMP JUMPDEST NOT DUP1 DUP4 AND SWAP2 POP POP SWAP3 SWAP2 POP POP JUMP JUMPDEST PUSH0 PUSH2 0xEF6 DUP4 DUP4 PUSH2 0xECF JUMP JUMPDEST SWAP2 POP DUP3 PUSH1 0x2 MUL DUP3 OR SWAP1 POP SWAP3 SWAP2 POP POP JUMP JUMPDEST PUSH2 0xF0F DUP3 PUSH2 0xAE6 JUMP JUMPDEST PUSH8 0xFFFFFFFFFFFFFFFF DUP2 GT ISZERO PUSH2 0xF28 JUMPI PUSH2 0xF27 PUSH2 0x871 JUMP JUMPDEST JUMPDEST PUSH2 0xF32 DUP3 SLOAD PUSH2 0xD39 JUMP JUMPDEST PUSH2 0xF3D DUP3 DUP3 DUP6 PUSH2 0xE7D JUMP JUMPDEST PUSH0 PUSH1 0x20 SWAP1 POP PUSH1 0x1F DUP4 GT PUSH1 0x1 DUP2 EQ PUSH2 0xF6E JUMPI PUSH0 DUP5 ISZERO PUSH2 0xF5C JUMPI DUP3 DUP8 ADD MLOAD SWAP1 POP JUMPDEST PUSH2 0xF66 DUP6 DUP3 PUSH2 0xEEB JUMP JUMPDEST DUP7 SSTORE POP PUSH2 0xFCD JUMP JUMPDEST PUSH1 0x1F NOT DUP5 AND PUSH2 0xF7C DUP7 PUSH2 0xD69 JUMP JUMPDEST PUSH0 JUMPDEST DUP3 DUP2 LT ISZERO PUSH2 0xFA3 JUMPI DUP5 DUP10 ADD MLOAD DUP3 SSTORE PUSH1 0x1 DUP3 ADD SWAP2 POP PUSH1 0x20 DUP6 ADD SWAP5 POP PUSH1 0x20 DUP2 ADD SWAP1 POP PUSH2 0xF7E JUMP JUMPDEST DUP7 DUP4 LT ISZERO PUSH2 0xFC0 JUMPI DUP5 DUP10 ADD MLOAD PUSH2 0xFBC PUSH1 0x1F DUP10 AND DUP3 PUSH2 0xECF JUMP JUMPDEST DUP4 SSTORE POP JUMPDEST PUSH1 0x1 PUSH1 0x2 DUP9 MUL ADD DUP9 SSTORE POP POP POP JUMPDEST POP POP POP POP POP POP JUMP INVALID LOG2 PUSH5 0x6970667358 0x22 SLT KECCAK256 MSIZE SWAP13 DUP8 PUSH12 0x5CCC5AFEC0D9630D11F77A47 0xB3 SGT 0xB9 OR MSTORE8 0xE PUSH17 0x388F3C0D77C161B2E464736F6C63430008 EQ STOP CALLER "
		},
		"gasEstimates": {
			"creation": {
				"codeDepositCost": "821400",
				"executionCost": "855",
				"totalCost": "822255"
			},
			"external": {
				"SLParticipant(uint256)": "infinite",
				"addParticipant(uint256,string,uint256,uint256,string,string,bool)": "infinite",
				"getparticipant(uint256)": "infinite",
				"getparticipant2(uint256)": "infinite"
			}
		},
		"methodIdentifiers": {
			"SLParticipant(uint256)": "de02c544",
			"addParticipant(uint256,string,uint256,uint256,string,string,bool)": "2a72500a",
			"getparticipant(uint256)": "a82dab0b",
			"getparticipant2(uint256)": "ed09e22c"
		}
	},
	"abi": [
		{
			"inputs": [
				{
					"internalType": "uint256",
					"name": "",
					"type": "uint256"
				}
			],
			"name": "SLParticipant",
			"outputs": [
				{
					"internalType": "string",
					"name": "Pname",
					"type": "string"
				},
				{
					"internalType": "uint256",
					"name": "Page",
					"type": "uint256"
				},
				{
					"internalType": "uint256",
					"name": "PphoneNo",
					"type": "uint256"
				},
				{
					"internalType": "string",
					"name": "Pemail",
					"type": "string"
				},
				{
					"internalType": "string",
					"name": "courseEnrolled",
					"type": "string"
				},
				{
					"internalType": "bool",
					"name": "feePaid",
					"type": "bool"
				}
			],
			"stateMutability": "view",
			"type": "function"
		},
		{
			"inputs": [
				{
					"internalType": "uint256",
					"name": "key",
					"type": "uint256"
				},
				{
					"internalType": "string",
					"name": "_name",
					"type": "string"
				},
				{
					"internalType": "uint256",
					"name": "_page",
					"type": "uint256"
				},
				{
					"internalType": "uint256",
					"name": "_pphoneNo",
					"type": "uint256"
				},
				{
					"internalType": "string",
					"name": "pemail",
					"type": "string"
				},
				{
					"internalType": "string",
					"name": "_courseenrolled",
					"type": "string"
				},
				{
					"internalType": "bool",
					"name": "_feepaid",
					"type": "bool"
				}
			],
			"name": "addParticipant",
			"outputs": [],
			"stateMutability": "nonpayable",
			"type": "function"
		},
		{
			"inputs": [
				{
					"internalType": "uint256",
					"name": "key",
					"type": "uint256"
				}
			],
			"name": "getparticipant",
			"outputs": [
				{
					"components": [
						{
							"internalType": "string",
							"name": "Pname",
							"type": "string"
						},
						{
							"internalType": "uint256",
							"name": "Page",
							"type": "uint256"
						},
						{
							"internalType": "uint256",
							"name": "PphoneNo",
							"type": "uint256"
						},
						{
							"internalType": "string",
							"name": "Pemail",
							"type": "string"
						},
						{
							"internalType": "string",
							"name": "courseEnrolled",
							"type": "string"
						},
						{
							"internalType": "bool",
							"name": "feePaid",
							"type": "bool"
						}
					],
					"internalType": "struct test.Participant",
					"name": "",
					"type": "tuple"
				}
			],
			"stateMutability": "view",
			"type": "function"
		},
		{
			"inputs": [
				{
					"internalType": "uint256",
					"name": "key",
					"type": "uint256"
				}
			],
			"name": "getparticipant2",
			"outputs": [
				{
					"internalType": "string",
					"name": "",
					"type": "string"
				},
				{
					"internalType": "uint256",
					"name": "",
					"type": "uint256"
				},
				{
					"internalType": "uint256",
					"name": "",
					"type": "uint256"
				},
				{
					"internalType": "string",
					"name": "",
					"type": "string"
				},
				{
					"internalType": "string",
					"name": "",
					"type": "string"
				},
				{
					"internalType": "bool",
					"name": "",
					"type": "bool"
				}
			],
			"stateMutability": "view",
			"type": "function"
		}
	]
}